{
  "abi": [
    {
      "inputs": [],
      "name": "NotPayable",
      "type": "error"
    },
    {
      "anonymous": false,
      "inputs": [
        {
          "indexed": false,
          "internalType": "uint256",
          "name": "marketId",
          "type": "uint256"
        },
        {
          "indexed": false,
          "internalType": "address",
          "name": "borrower",
          "type": "address"
        }
      ],
      "name": "BorrowerAttestation",
      "type": "event"
    },
    {
      "anonymous": false,
      "inputs": [
        {
          "indexed": false,
          "internalType": "uint256",
          "name": "marketId",
          "type": "uint256"
        },
        {
          "indexed": false,
          "internalType": "address",
          "name": "borrower",
          "type": "address"
        }
      ],
      "name": "BorrowerExitMarket",
      "type": "event"
    },
    {
      "anonymous": false,
      "inputs": [
        {
          "indexed": false,
          "internalType": "uint256",
          "name": "marketId",
          "type": "uint256"
        },
        {
          "indexed": false,
          "internalType": "address",
          "name": "borrower",
          "type": "address"
        }
      ],
      "name": "BorrowerRevocation",
      "type": "event"
    },
    {
      "anonymous": false,
      "inputs": [
        {
          "indexed": false,
          "internalType": "uint8",
          "name": "version",
          "type": "uint8"
        }
      ],
      "name": "Initialized",
      "type": "event"
    },
    {
      "anonymous": false,
      "inputs": [
        {
          "indexed": false,
          "internalType": "uint256",
          "name": "marketId",
          "type": "uint256"
        },
        {
          "indexed": false,
          "internalType": "address",
          "name": "lender",
          "type": "address"
        }
      ],
      "name": "LenderAttestation",
      "type": "event"
    },
    {
      "anonymous": false,
      "inputs": [
        {
          "indexed": false,
          "internalType": "uint256",
          "name": "marketId",
          "type": "uint256"
        },
        {
          "indexed": false,
          "internalType": "address",
          "name": "lender",
          "type": "address"
        }
      ],
      "name": "LenderExitMarket",
      "type": "event"
    },
    {
      "anonymous": false,
      "inputs": [
        {
          "indexed": false,
          "internalType": "uint256",
          "name": "marketId",
          "type": "uint256"
        },
        {
          "indexed": false,
          "internalType": "address",
          "name": "lender",
          "type": "address"
        }
      ],
      "name": "LenderRevocation",
      "type": "event"
    },
    {
      "anonymous": false,
      "inputs": [
        {
          "indexed": false,
          "internalType": "uint256",
          "name": "marketId",
          "type": "uint256"
        }
      ],
      "name": "MarketClosed",
      "type": "event"
    },
    {
      "anonymous": false,
      "inputs": [
        {
          "indexed": true,
          "internalType": "address",
          "name": "owner",
          "type": "address"
        },
        {
          "indexed": false,
          "internalType": "uint256",
          "name": "marketId",
          "type": "uint256"
        }
      ],
      "name": "MarketCreated",
      "type": "event"
    },
    {
      "anonymous": false,
      "inputs": [
        {
          "indexed": false,
          "internalType": "uint256",
          "name": "marketId",
          "type": "uint256"
        },
        {
          "indexed": false,
          "internalType": "uint32",
          "name": "duration",
          "type": "uint32"
        }
      ],
      "name": "SetBidExpirationTime",
      "type": "event"
    },
    {
      "anonymous": false,
      "inputs": [
        {
          "indexed": false,
          "internalType": "uint256",
          "name": "marketId",
          "type": "uint256"
        },
        {
          "indexed": false,
          "internalType": "bool",
          "name": "required",
          "type": "bool"
        }
      ],
      "name": "SetMarketBorrowerAttestation",
      "type": "event"
    },
    {
      "anonymous": false,
      "inputs": [
        {
          "indexed": false,
          "internalType": "uint256",
          "name": "marketId",
          "type": "uint256"
        },
        {
          "indexed": false,
          "internalType": "uint16",
          "name": "feePct",
          "type": "uint16"
        }
      ],
      "name": "SetMarketFee",
      "type": "event"
    },
    {
      "anonymous": false,
      "inputs": [
        {
          "indexed": false,
          "internalType": "uint256",
          "name": "marketId",
          "type": "uint256"
        },
        {
          "indexed": false,
          "internalType": "address",
          "name": "newRecipient",
          "type": "address"
        }
      ],
      "name": "SetMarketFeeRecipient",
      "type": "event"
    },
    {
      "anonymous": false,
      "inputs": [
        {
          "indexed": false,
          "internalType": "uint256",
          "name": "marketId",
          "type": "uint256"
        },
        {
          "indexed": false,
          "internalType": "bool",
          "name": "required",
          "type": "bool"
        }
      ],
      "name": "SetMarketLenderAttestation",
      "type": "event"
    },
    {
      "anonymous": false,
      "inputs": [
        {
          "indexed": false,
          "internalType": "uint256",
          "name": "marketId",
          "type": "uint256"
        },
        {
          "indexed": false,
          "internalType": "address",
          "name": "newOwner",
          "type": "address"
        }
      ],
      "name": "SetMarketOwner",
      "type": "event"
    },
    {
      "anonymous": false,
      "inputs": [
        {
          "indexed": false,
          "internalType": "uint256",
          "name": "marketId",
          "type": "uint256"
        },
        {
          "indexed": false,
          "internalType": "enum PaymentType",
          "name": "paymentType",
          "type": "uint8"
        }
      ],
      "name": "SetMarketPaymentType",
      "type": "event"
    },
    {
      "anonymous": false,
      "inputs": [
        {
          "indexed": false,
          "internalType": "uint256",
          "name": "marketId",
          "type": "uint256"
        },
        {
          "indexed": false,
          "internalType": "string",
          "name": "uri",
          "type": "string"
        }
      ],
      "name": "SetMarketURI",
      "type": "event"
    },
    {
      "anonymous": false,
      "inputs": [
        {
          "indexed": false,
          "internalType": "uint256",
          "name": "marketId",
          "type": "uint256"
        },
        {
          "indexed": false,
          "internalType": "uint32",
          "name": "duration",
          "type": "uint32"
        }
      ],
      "name": "SetPaymentCycleDuration",
      "type": "event"
    },
    {
      "anonymous": false,
      "inputs": [
        {
          "indexed": false,
          "internalType": "uint256",
          "name": "marketId",
          "type": "uint256"
        },
        {
          "indexed": false,
          "internalType": "uint32",
          "name": "duration",
          "type": "uint32"
        }
      ],
      "name": "SetPaymentDefaultDuration",
      "type": "event"
    },
    {
      "inputs": [],
      "name": "CURRENT_CODE_VERSION",
      "outputs": [
        {
          "internalType": "uint256",
          "name": "",
          "type": "uint256"
        }
      ],
      "stateMutability": "view",
      "type": "function"
    },
    {
      "inputs": [
        {
          "internalType": "uint256",
          "name": "_marketId",
          "type": "uint256"
        },
        {
          "internalType": "address",
          "name": "_borrowerAddress",
          "type": "address"
        },
        {
          "internalType": "uint256",
          "name": "_expirationTime",
          "type": "uint256"
        },
        {
          "internalType": "uint8",
          "name": "_v",
          "type": "uint8"
        },
        {
          "internalType": "bytes32",
          "name": "_r",
          "type": "bytes32"
        },
        {
          "internalType": "bytes32",
          "name": "_s",
          "type": "bytes32"
        }
      ],
      "name": "attestBorrower",
      "outputs": [],
      "stateMutability": "nonpayable",
      "type": "function"
    },
    {
      "inputs": [
        {
          "internalType": "uint256",
          "name": "_marketId",
          "type": "uint256"
        },
        {
          "internalType": "address",
          "name": "_borrowerAddress",
          "type": "address"
        },
        {
          "internalType": "uint256",
          "name": "_expirationTime",
          "type": "uint256"
        }
      ],
      "name": "attestBorrower",
      "outputs": [],
      "stateMutability": "nonpayable",
      "type": "function"
    },
    {
      "inputs": [
        {
          "internalType": "uint256",
          "name": "_marketId",
          "type": "uint256"
        },
        {
          "internalType": "address",
          "name": "_lenderAddress",
          "type": "address"
        },
        {
          "internalType": "uint256",
          "name": "_expirationTime",
          "type": "uint256"
        },
        {
          "internalType": "uint8",
          "name": "_v",
          "type": "uint8"
        },
        {
          "internalType": "bytes32",
          "name": "_r",
          "type": "bytes32"
        },
        {
          "internalType": "bytes32",
          "name": "_s",
          "type": "bytes32"
        }
      ],
      "name": "attestLender",
      "outputs": [],
      "stateMutability": "nonpayable",
      "type": "function"
    },
    {
      "inputs": [
        {
          "internalType": "uint256",
          "name": "_marketId",
          "type": "uint256"
        },
        {
          "internalType": "address",
          "name": "_lenderAddress",
          "type": "address"
        },
        {
          "internalType": "uint256",
          "name": "_expirationTime",
          "type": "uint256"
        }
      ],
      "name": "attestLender",
      "outputs": [],
      "stateMutability": "nonpayable",
      "type": "function"
    },
    {
      "inputs": [],
      "name": "borrowerAttestationSchemaId",
      "outputs": [
        {
          "internalType": "bytes32",
          "name": "",
          "type": "bytes32"
        }
      ],
      "stateMutability": "view",
      "type": "function"
    },
    {
      "inputs": [
        {
          "internalType": "uint256",
          "name": "_marketId",
          "type": "uint256"
        }
      ],
      "name": "borrowerExitMarket",
      "outputs": [],
      "stateMutability": "nonpayable",
      "type": "function"
    },
    {
      "inputs": [
        {
          "internalType": "uint256",
          "name": "_marketId",
          "type": "uint256"
        }
      ],
      "name": "closeMarket",
      "outputs": [],
      "stateMutability": "nonpayable",
      "type": "function"
    },
    {
      "inputs": [
        {
          "internalType": "address",
          "name": "_initialOwner",
          "type": "address"
        },
        {
          "internalType": "uint32",
          "name": "_paymentCycleDuration",
          "type": "uint32"
        },
        {
          "internalType": "uint32",
          "name": "_paymentDefaultDuration",
          "type": "uint32"
        },
        {
          "internalType": "uint32",
          "name": "_bidExpirationTime",
          "type": "uint32"
        },
        {
          "internalType": "uint16",
          "name": "_feePercent",
          "type": "uint16"
        },
        {
          "internalType": "bool",
          "name": "_requireLenderAttestation",
          "type": "bool"
        },
        {
          "internalType": "bool",
          "name": "_requireBorrowerAttestation",
          "type": "bool"
        },
        {
          "internalType": "enum PaymentType",
          "name": "_paymentType",
          "type": "uint8"
        },
        {
          "internalType": "string",
          "name": "_uri",
          "type": "string"
        }
      ],
      "name": "createMarket",
      "outputs": [
        {
          "internalType": "uint256",
          "name": "marketId_",
          "type": "uint256"
        }
      ],
      "stateMutability": "nonpayable",
      "type": "function"
    },
    {
      "inputs": [
        {
          "internalType": "address",
          "name": "_initialOwner",
          "type": "address"
        },
        {
          "internalType": "uint32",
          "name": "_paymentCycleDuration",
          "type": "uint32"
        },
        {
          "internalType": "uint32",
          "name": "_paymentDefaultDuration",
          "type": "uint32"
        },
        {
          "internalType": "uint32",
          "name": "_bidExpirationTime",
          "type": "uint32"
        },
        {
          "internalType": "uint16",
          "name": "_feePercent",
          "type": "uint16"
        },
        {
          "internalType": "bool",
          "name": "_requireLenderAttestation",
          "type": "bool"
        },
        {
          "internalType": "bool",
          "name": "_requireBorrowerAttestation",
          "type": "bool"
        },
        {
          "internalType": "string",
          "name": "_uri",
          "type": "string"
        }
      ],
      "name": "createMarket",
      "outputs": [
        {
          "internalType": "uint256",
          "name": "marketId_",
          "type": "uint256"
        }
      ],
      "stateMutability": "nonpayable",
      "type": "function"
    },
    {
      "inputs": [
        {
          "internalType": "uint256",
          "name": "_marketId",
          "type": "uint256"
        },
        {
          "internalType": "uint256",
          "name": "_page",
          "type": "uint256"
        },
        {
          "internalType": "uint256",
          "name": "_perPage",
          "type": "uint256"
        }
      ],
      "name": "getAllVerifiedBorrowersForMarket",
      "outputs": [
        {
          "internalType": "address[]",
          "name": "",
          "type": "address[]"
        }
      ],
      "stateMutability": "view",
      "type": "function"
    },
    {
      "inputs": [
        {
          "internalType": "uint256",
          "name": "_marketId",
          "type": "uint256"
        },
        {
          "internalType": "uint256",
          "name": "_page",
          "type": "uint256"
        },
        {
          "internalType": "uint256",
          "name": "_perPage",
          "type": "uint256"
        }
      ],
      "name": "getAllVerifiedLendersForMarket",
      "outputs": [
        {
          "internalType": "address[]",
          "name": "",
          "type": "address[]"
        }
      ],
      "stateMutability": "view",
      "type": "function"
    },
    {
      "inputs": [
        {
          "internalType": "uint256",
          "name": "marketId",
          "type": "uint256"
        }
      ],
      "name": "getBidExpirationTime",
      "outputs": [
        {
          "internalType": "uint32",
          "name": "",
          "type": "uint32"
        }
      ],
      "stateMutability": "view",
      "type": "function"
    },
    {
      "inputs": [
        {
          "internalType": "uint256",
          "name": "_marketId",
          "type": "uint256"
        }
      ],
      "name": "getMarketAttestationRequirements",
      "outputs": [
        {
          "internalType": "bool",
          "name": "lenderAttestationRequired",
          "type": "bool"
        },
        {
          "internalType": "bool",
          "name": "borrowerAttestationRequired",
          "type": "bool"
        }
      ],
      "stateMutability": "view",
      "type": "function"
    },
    {
      "inputs": [
        {
          "internalType": "uint256",
          "name": "_marketId",
          "type": "uint256"
        }
      ],
      "name": "getMarketData",
      "outputs": [
        {
          "internalType": "address",
          "name": "owner",
          "type": "address"
        },
        {
          "internalType": "uint32",
          "name": "paymentCycleDuration",
          "type": "uint32"
        },
        {
          "internalType": "uint32",
          "name": "paymentDefaultDuration",
          "type": "uint32"
        },
        {
          "internalType": "uint32",
          "name": "loanExpirationTime",
          "type": "uint32"
        },
        {
          "internalType": "string",
          "name": "metadataURI",
          "type": "string"
        },
        {
          "internalType": "uint16",
          "name": "marketplaceFeePercent",
          "type": "uint16"
        },
        {
          "internalType": "bool",
          "name": "lenderAttestationRequired",
          "type": "bool"
        }
      ],
      "stateMutability": "view",
      "type": "function"
    },
    {
      "inputs": [
        {
          "internalType": "uint256",
          "name": "_marketId",
          "type": "uint256"
        }
      ],
      "name": "getMarketFeeRecipient",
      "outputs": [
        {
          "internalType": "address",
          "name": "",
          "type": "address"
        }
      ],
      "stateMutability": "view",
      "type": "function"
    },
    {
      "inputs": [
        {
          "internalType": "uint256",
          "name": "_marketId",
          "type": "uint256"
        }
      ],
      "name": "getMarketOwner",
      "outputs": [
        {
          "internalType": "address",
          "name": "",
          "type": "address"
        }
      ],
      "stateMutability": "view",
      "type": "function"
    },
    {
      "inputs": [
        {
          "internalType": "uint256",
          "name": "_marketId",
          "type": "uint256"
        }
      ],
      "name": "getMarketURI",
      "outputs": [
        {
          "internalType": "string",
          "name": "",
          "type": "string"
        }
      ],
      "stateMutability": "view",
      "type": "function"
    },
    {
      "inputs": [
        {
          "internalType": "uint256",
          "name": "_marketId",
          "type": "uint256"
        }
      ],
      "name": "getMarketplaceFee",
      "outputs": [
        {
          "internalType": "uint16",
          "name": "fee",
          "type": "uint16"
        }
      ],
      "stateMutability": "view",
      "type": "function"
    },
    {
      "inputs": [
        {
          "internalType": "uint256",
          "name": "_marketId",
          "type": "uint256"
        }
      ],
      "name": "getPaymentCycleDuration",
      "outputs": [
        {
          "internalType": "uint32",
          "name": "",
          "type": "uint32"
        }
      ],
      "stateMutability": "view",
      "type": "function"
    },
    {
      "inputs": [
        {
          "internalType": "uint256",
          "name": "_marketId",
          "type": "uint256"
        }
      ],
      "name": "getPaymentDefaultDuration",
      "outputs": [
        {
          "internalType": "uint32",
          "name": "",
          "type": "uint32"
        }
      ],
      "stateMutability": "view",
      "type": "function"
    },
    {
      "inputs": [
        {
          "internalType": "uint256",
          "name": "_marketId",
          "type": "uint256"
        }
      ],
      "name": "getPaymentType",
      "outputs": [
        {
          "internalType": "enum PaymentType",
          "name": "",
          "type": "uint8"
        }
      ],
      "stateMutability": "view",
      "type": "function"
    },
    {
      "inputs": [
        {
          "internalType": "contract TellerAS",
          "name": "_tellerAS",
          "type": "address"
        }
      ],
      "name": "initialize",
      "outputs": [],
      "stateMutability": "nonpayable",
      "type": "function"
    },
    {
      "inputs": [
        {
          "internalType": "uint256",
          "name": "_marketId",
          "type": "uint256"
        }
      ],
      "name": "isMarketClosed",
      "outputs": [
        {
          "internalType": "bool",
          "name": "",
          "type": "bool"
        }
      ],
      "stateMutability": "view",
      "type": "function"
    },
    {
      "inputs": [],
      "name": "isPayable",
      "outputs": [
        {
          "internalType": "bool",
          "name": "",
          "type": "bool"
        }
      ],
      "stateMutability": "pure",
      "type": "function"
    },
    {
      "inputs": [
        {
          "internalType": "uint256",
          "name": "_marketId",
          "type": "uint256"
        },
        {
          "internalType": "address",
          "name": "_borrowerAddress",
          "type": "address"
        }
      ],
      "name": "isVerifiedBorrower",
      "outputs": [
        {
          "internalType": "bool",
          "name": "isVerified_",
          "type": "bool"
        },
        {
          "internalType": "bytes32",
          "name": "uuid_",
          "type": "bytes32"
        }
      ],
      "stateMutability": "view",
      "type": "function"
    },
    {
      "inputs": [
        {
          "internalType": "uint256",
          "name": "_marketId",
          "type": "uint256"
        },
        {
          "internalType": "address",
          "name": "_lenderAddress",
          "type": "address"
        }
      ],
      "name": "isVerifiedLender",
      "outputs": [
        {
          "internalType": "bool",
          "name": "isVerified_",
          "type": "bool"
        },
        {
          "internalType": "bytes32",
          "name": "uuid_",
          "type": "bytes32"
        }
      ],
      "stateMutability": "view",
      "type": "function"
    },
    {
      "inputs": [],
      "name": "lenderAttestationSchemaId",
      "outputs": [
        {
          "internalType": "bytes32",
          "name": "",
          "type": "bytes32"
        }
      ],
      "stateMutability": "view",
      "type": "function"
    },
    {
      "inputs": [
        {
          "internalType": "uint256",
          "name": "_marketId",
          "type": "uint256"
        }
      ],
      "name": "lenderExitMarket",
      "outputs": [],
      "stateMutability": "nonpayable",
      "type": "function"
    },
    {
      "inputs": [],
      "name": "marketCount",
      "outputs": [
        {
          "internalType": "uint256",
          "name": "",
          "type": "uint256"
        }
      ],
      "stateMutability": "view",
      "type": "function"
    },
    {
      "inputs": [],
      "name": "onUpgrade",
      "outputs": [],
      "stateMutability": "nonpayable",
      "type": "function"
    },
    {
      "inputs": [
        {
          "internalType": "address",
          "name": "recipient",
          "type": "address"
        },
        {
          "internalType": "bytes",
          "name": "schema",
          "type": "bytes"
        },
        {
          "internalType": "bytes",
          "name": "data",
          "type": "bytes"
        },
        {
          "internalType": "uint256",
          "name": "",
          "type": "uint256"
        },
        {
          "internalType": "address",
          "name": "attestor",
          "type": "address"
        }
      ],
      "name": "resolve",
      "outputs": [
        {
          "internalType": "bool",
          "name": "",
          "type": "bool"
        }
      ],
      "stateMutability": "payable",
      "type": "function"
    },
    {
      "inputs": [
        {
          "internalType": "uint256",
          "name": "_marketId",
          "type": "uint256"
        },
        {
          "internalType": "address",
          "name": "_borrowerAddress",
          "type": "address"
        }
      ],
      "name": "revokeBorrower",
      "outputs": [],
      "stateMutability": "nonpayable",
      "type": "function"
    },
    {
      "inputs": [
        {
          "internalType": "uint256",
          "name": "_marketId",
          "type": "uint256"
        },
        {
          "internalType": "address",
          "name": "_borrowerAddress",
          "type": "address"
        },
        {
          "internalType": "uint8",
          "name": "_v",
          "type": "uint8"
        },
        {
          "internalType": "bytes32",
          "name": "_r",
          "type": "bytes32"
        },
        {
          "internalType": "bytes32",
          "name": "_s",
          "type": "bytes32"
        }
      ],
      "name": "revokeBorrower",
      "outputs": [],
      "stateMutability": "nonpayable",
      "type": "function"
    },
    {
      "inputs": [
        {
          "internalType": "uint256",
          "name": "_marketId",
          "type": "uint256"
        },
        {
          "internalType": "address",
          "name": "_lenderAddress",
          "type": "address"
        },
        {
          "internalType": "uint8",
          "name": "_v",
          "type": "uint8"
        },
        {
          "internalType": "bytes32",
          "name": "_r",
          "type": "bytes32"
        },
        {
          "internalType": "bytes32",
          "name": "_s",
          "type": "bytes32"
        }
      ],
      "name": "revokeLender",
      "outputs": [],
      "stateMutability": "nonpayable",
      "type": "function"
    },
    {
      "inputs": [
        {
          "internalType": "uint256",
          "name": "_marketId",
          "type": "uint256"
        },
        {
          "internalType": "address",
          "name": "_lenderAddress",
          "type": "address"
        }
      ],
      "name": "revokeLender",
      "outputs": [],
      "stateMutability": "nonpayable",
      "type": "function"
    },
    {
      "inputs": [
        {
          "internalType": "uint256",
          "name": "_marketId",
          "type": "uint256"
        },
        {
          "internalType": "uint32",
          "name": "_duration",
          "type": "uint32"
        }
      ],
      "name": "setBidExpirationTime",
      "outputs": [],
      "stateMutability": "nonpayable",
      "type": "function"
    },
    {
      "inputs": [
        {
          "internalType": "uint256",
          "name": "_marketId",
          "type": "uint256"
        },
        {
          "internalType": "bool",
          "name": "_required",
          "type": "bool"
        }
      ],
      "name": "setBorrowerAttestationRequired",
      "outputs": [],
      "stateMutability": "nonpayable",
      "type": "function"
    },
    {
      "inputs": [
        {
          "internalType": "uint256",
          "name": "_marketId",
          "type": "uint256"
        },
        {
          "internalType": "bool",
          "name": "_required",
          "type": "bool"
        }
      ],
      "name": "setLenderAttestationRequired",
      "outputs": [],
      "stateMutability": "nonpayable",
      "type": "function"
    },
    {
      "inputs": [
        {
          "internalType": "uint256",
          "name": "_marketId",
          "type": "uint256"
        },
        {
          "internalType": "uint16",
          "name": "_newPercent",
          "type": "uint16"
        }
      ],
      "name": "setMarketFeePercent",
      "outputs": [],
      "stateMutability": "nonpayable",
      "type": "function"
    },
    {
      "inputs": [
        {
          "internalType": "uint256",
          "name": "_marketId",
          "type": "uint256"
        },
        {
          "internalType": "address",
          "name": "_recipient",
          "type": "address"
        }
      ],
      "name": "setMarketFeeRecipient",
      "outputs": [],
      "stateMutability": "nonpayable",
      "type": "function"
    },
    {
      "inputs": [
        {
          "internalType": "uint256",
          "name": "_marketId",
          "type": "uint256"
        },
        {
          "internalType": "enum PaymentType",
          "name": "_newPaymentType",
          "type": "uint8"
        }
      ],
      "name": "setMarketPaymentType",
      "outputs": [],
      "stateMutability": "nonpayable",
      "type": "function"
    },
    {
      "inputs": [
        {
          "internalType": "uint256",
          "name": "_marketId",
          "type": "uint256"
        },
        {
          "internalType": "string",
          "name": "_uri",
          "type": "string"
        }
      ],
      "name": "setMarketURI",
      "outputs": [],
      "stateMutability": "nonpayable",
      "type": "function"
    },
    {
      "inputs": [
        {
          "internalType": "uint256",
          "name": "_marketId",
          "type": "uint256"
        },
        {
          "internalType": "uint32",
          "name": "_duration",
          "type": "uint32"
        }
      ],
      "name": "setPaymentCycleDuration",
      "outputs": [],
      "stateMutability": "nonpayable",
      "type": "function"
    },
    {
      "inputs": [
        {
          "internalType": "uint256",
          "name": "_marketId",
          "type": "uint256"
        },
        {
          "internalType": "uint32",
          "name": "_duration",
          "type": "uint32"
        }
      ],
      "name": "setPaymentDefaultDuration",
      "outputs": [],
      "stateMutability": "nonpayable",
      "type": "function"
    },
    {
      "inputs": [
        {
          "internalType": "address",
          "name": "_tellerAS",
          "type": "address"
        }
      ],
      "name": "setTellerAS",
      "outputs": [],
      "stateMutability": "nonpayable",
      "type": "function"
    },
    {
      "inputs": [],
      "name": "tellerAS",
      "outputs": [
        {
          "internalType": "contract TellerAS",
          "name": "",
          "type": "address"
        }
      ],
      "stateMutability": "view",
      "type": "function"
    },
    {
      "inputs": [
        {
          "internalType": "uint256",
          "name": "_marketId",
          "type": "uint256"
        },
        {
          "internalType": "address",
          "name": "_newOwner",
          "type": "address"
        }
      ],
      "name": "transferMarketOwnership",
      "outputs": [],
      "stateMutability": "nonpayable",
      "type": "function"
    },
    {
      "inputs": [
        {
          "internalType": "uint256",
          "name": "_marketId",
          "type": "uint256"
        },
        {
          "internalType": "uint32",
          "name": "_paymentCycleDuration",
          "type": "uint32"
        },
        {
          "internalType": "uint32",
          "name": "_paymentDefaultDuration",
          "type": "uint32"
        },
        {
          "internalType": "uint32",
          "name": "_bidExpirationTime",
          "type": "uint32"
        },
        {
          "internalType": "uint16",
          "name": "_feePercent",
          "type": "uint16"
        },
        {
          "internalType": "bool",
          "name": "_borrowerAttestationRequired",
          "type": "bool"
        },
        {
          "internalType": "bool",
          "name": "_lenderAttestationRequired",
          "type": "bool"
        },
        {
          "internalType": "string",
          "name": "_metadataURI",
          "type": "string"
        }
      ],
      "name": "updateMarketSettings",
      "outputs": [],
      "stateMutability": "nonpayable",
      "type": "function"
    },
    {
      "inputs": [],
      "name": "version",
      "outputs": [
        {
          "internalType": "uint256",
          "name": "",
          "type": "uint256"
        }
      ],
      "stateMutability": "view",
      "type": "function"
    },
    {
      "stateMutability": "payable",
      "type": "receive"
    }
  ],
  "bytecode": {
    "object": "0x608060405234801561001057600080fd5b506131ad806100206000396000f3fe6080604052600436106102cd5760003560e01c80637f027a1a11610175578063be99279b116100dc578063d6e794dd11610095578063ec9790821161006f578063ec97908214610a05578063ecd6ce6e14610a1b578063f7c0c55514610a3b578063f9fa934514610a5b57600080fd5b8063d6e794dd1461097e578063ddfafef6146109c5578063e4050e29146109e557600080fd5b8063be99279b146108b7578063bfacba3d146108d7578063c4d66de81461090a578063c995cddc1461092a578063cb90cc311461094a578063ce46e0461461096a57600080fd5b806397eb575b1161012e57806397eb575b146107f7578063aa542fa514610817578063ae41809514610837578063b6b6d77f14610857578063bc4c349514610877578063bd536e6e1461089757600080fd5b80637f027a1a146106e8578063805deb53146107085780638b6366321461073e5780638eff9ea41461075e578063947a75b4146107c457806394e8e97e146107d757600080fd5b80633ef19a9b1161023457806354fd4d50116101ed57806364413796116101c75780636441379614610672578063679700d9146106925780637694d2ec146106a85780637cfc1818146106c857600080fd5b806354fd4d501461061c578063583b16ae146106325780636054b1751461065257600080fd5b80633ef19a9b146105675780633fa7f688146105875780634148f94c146105a7578063455154e5146105bc57806348000cea146105dc578063532f5694146105fc57600080fd5b80631cc672df116102865780631cc672df146104485780631db2b0d9146104885780631ebc7da8146104b55780632f1be8f9146104d55780633c0db788146104f55780633d3690291461051957600080fd5b8063066e7513146102f2578063082fc54d1461032e5780630a2e98e41461038057806311bed5bb146103c85780631824a46b146104065780631a4808d21461041b57600080fd5b366102ed57604051631574f9f360e01b815260040160405180910390fd5b005b600080fd5b3480156102fe57600080fd5b5061031261030d3660046126da565b610a7b565b6040805192151583526020830191909152015b60405180910390f35b34801561033a57600080fd5b5061036b61034936600461270a565b600090815260026020526040902060060154600160401b900463ffffffff1690565b60405163ffffffff9091168152602001610325565b34801561038c57600080fd5b506103b561039b36600461270a565b6000908152600260208190526040909120015461ffff1690565b60405161ffff9091168152602001610325565b3480156103d457600080fd5b5061036b6103e336600461270a565b600090815260026020526040902060060154640100000000900463ffffffff1690565b34801561041257600080fd5b506102eb610abb565b34801561042757600080fd5b5061043b61043636600461270a565b610b2c565b6040516103259190612769565b34801561045457600080fd5b5061047861046336600461270a565b60009081526008602052604090205460ff1690565b6040519015158152602001610325565b34801561049457600080fd5b506104a86104a336600461277c565b610bd1565b60405161032591906127a8565b3480156104c157600080fd5b506102eb6104d03660046126da565b610bfb565b3480156104e157600080fd5b506102eb6104f036600461280e565b610c9e565b34801561050157600080fd5b5061050b60015481565b604051908152602001610325565b34801561052557600080fd5b5061054f61053436600461270a565b6000908152600260205260409020546001600160a01b031690565b6040516001600160a01b039091168152602001610325565b34801561057357600080fd5b506103126105823660046126da565b610d6e565b34801561059357600080fd5b506102eb6105a236600461284b565b610da2565b3480156105b357600080fd5b5061050b600781565b3480156105c857600080fd5b506102eb6105d73660046126da565b610dba565b3480156105e857600080fd5b506102eb6105f73660046128a5565b610dca565b34801561060857600080fd5b506102eb610617366004612904565b610e51565b34801561062857600080fd5b5061050b60075481565b34801561063e57600080fd5b506102eb61064d36600461284b565b610f4e565b34801561065e57600080fd5b506102eb61066d366004612950565b610f5e565b34801561067e57600080fd5b5061054f61068d36600461270a565b610f74565b34801561069e57600080fd5b5061050b60065481565b3480156106b457600080fd5b506104a86106c336600461277c565b610fb7565b3480156106d457600080fd5b506102eb6106e33660046126da565b610fd6565b3480156106f457600080fd5b506102eb61070336600461270a565b61106d565b34801561071457600080fd5b5061036b61072336600461270a565b60009081526002602052604090206006015463ffffffff1690565b34801561074a57600080fd5b506102eb6107593660046126da565b6110d9565b34801561076a57600080fd5b506107ad61077936600461270a565b6000908152600260208190526040909120908101546006909101546201000090910460ff90811692600160601b9092041690565b604080519215158352901515602083015201610325565b6104786107d23660046129a0565b6110e5565b3480156107e357600080fd5b506102eb6107f2366004612a4e565b611193565b34801561080357600080fd5b506102eb610812366004612a73565b611250565b34801561082357600080fd5b506102eb610832366004612aba565b61125d565b34801561084357600080fd5b506102eb61085236600461270a565b611343565b34801561086357600080fd5b506102eb610872366004612aef565b6113dc565b34801561088357600080fd5b506102eb610892366004612950565b6114d4565b3480156108a357600080fd5b506102eb6108b236600461280e565b6114e3565b3480156108c357600080fd5b506102eb6108d2366004612a4e565b6115b0565b3480156108e357600080fd5b506108f76108f236600461270a565b61166f565b6040516103259796959493929190612b12565b34801561091657600080fd5b506102eb6109253660046128a5565b611781565b34801561093657600080fd5b506102eb61094536600461270a565b611ade565b34801561095657600080fd5b5061050b610965366004612b71565b611b29565b34801561097657600080fd5b506000610478565b34801561098a57600080fd5b506109b861099936600461270a565b6000908152600260205260409020600a0154600160a01b900460ff1690565b6040516103259190612c7c565b3480156109d157600080fd5b5060095461054f906001600160a01b031681565b3480156109f157600080fd5b506102eb610a00366004612a73565b611b3d565b348015610a1157600080fd5b5061050b60045481565b348015610a2757600080fd5b506102eb610a3636600461280e565b611b4a565b348015610a4757600080fd5b506102eb610a56366004612c8a565b611bff565b348015610a6757600080fd5b5061050b610a76366004612d42565b611c8a565b600082815260026020526040812060068101548291610aaf918591600160601b90910460ff16906009810190600701611cad565b915091505b9250929050565b6007805403610b265760405162461bcd60e51b815260206004820152602c60248201527f436f6e747261637420616c726561647920757067726164656420746f206c617460448201526b6573742076657273696f6e2160a01b60648201526084015b60405180910390fd5b60078055565b6000818152600260205260409020600101805460609190610b4c90612d7a565b80601f0160208091040260200160405190810160405280929190818152602001828054610b7890612d7a565b8015610bc55780601f10610b9a57610100808354040283529160200191610bc5565b820191906000526020600020905b815481529060010190602001808311610ba857829003601f168201915b50505050509050919050565b6000838152600260205260409020606090600301610bf0818585611d78565b9150505b9392505050565b60008281526002602052604090205482906001600160a01b03163314610c335760405162461bcd60e51b8152600401610b1d90612db4565b600083815260026020908152604091829020600a0180546001600160a01b0319166001600160a01b0386169081179091558251868152918201527ffc7e26c4fffcd77fc52c81b32a6a6b7838b5592ced8c14c1a46e2b4a322c568a91015b60405180910390a1505050565b60008281526002602052604090205482906001600160a01b03163314610cd65760405162461bcd60e51b8152600401610b1d90612db4565b60008381526002602052604090206006015463ffffffff8381166401000000009092041614610d6957600083815260026020908152604091829020600601805467ffffffff00000000191664010000000063ffffffff8716908102919091179091558251868152918201527f3e49e2efeacab7e8344acd4e7940449bf62039aa3734c34fa6d3525654be81019101610c91565b505050565b60008281526002602081905260408220908101548291610aaf9185916201000090910460ff16906005810190600301611cad565b610db28686866001878787611e5f565b505050505050565b610dc682826000611f95565b5050565b6009546001600160a01b031615610e2f5760405162461bcd60e51b8152602060048201526024808201527f4d61726b657452656769737472793a2054656c6c6572415320616c7265616479604482015263081cd95d60e21b6064820152608401610b1d565b600980546001600160a01b0319166001600160a01b0392909216919091179055565b60008381526002602052604090205483906001600160a01b03163314610e895760405162461bcd60e51b8152600401610b1d90612db4565b6000848152600260209081526040918290209151610eab926001019101612ddb565b604051602081830303815290604052805190602001208383604051602001610ed4929190612e51565b6040516020818303038152906040528051906020012014610f48576000848152600260205260409020600101610f0b838583612ebd565b507f6218b53065a32d32b3f52d9ad728c1b826a2aae15fc1ee92f83836debbcc1029848484604051610f3f93929190612f7d565b60405180910390a15b50505050565b610db28686866000878787611e5f565b610f6d85856001868686612008565b5050505050565b6000818152600260205260408120600a01546001600160a01b031680610fb15750506000908152600260205260409020546001600160a01b031690565b92915050565b6000838152600260205260409020606090600701610bf0818585611d78565b60008281526002602052604090205482906001600160a01b0316331461100e5760405162461bcd60e51b8152600401610b1d90612db4565b60008381526002602090815260409182902080546001600160a01b0319166001600160a01b0386169081179091558251868152918201527ff68f2d4b68e0d54a81a3b8e53403ddec34a1e288cf6a6f6b3621c0a47b6e36f99101610c91565b6000818152600260205260408120611088906003013361201f565b90508015610dc6577f55e867ccc9ac324e2c193ce4ed25397fb890213c704685f2c9fbe5bd7507298682335b604080519283526001600160a01b039091166020830152015b60405180910390a15050565b610dc682826001611f95565b6000808787306040516020016110fd93929190612fb3565b60408051601f1981840301815291905280516020909101209050600080611126878901896126da565b915091508260055414801561114c5750806001600160a01b03168b6001600160a01b0316145b801561117157506000828152600260205260409020546001600160a01b038681169116145b8061118457506001600160a01b03851630145b9b9a5050505050505050505050565b60008281526002602052604090205482906001600160a01b031633146111cb5760405162461bcd60e51b8152600401610b1d90612db4565b6000838152600260208190526040909120015462010000900460ff16151582151514610d6957600083815260026020818152604092839020909101805462ff0000191662010000861515908102919091179091558251868152918201527f4666a8529dea37114f2ecc11706d613f7a59a7967f8467da6877820b83d405a19101610c91565b610d698383836001612034565b60008281526002602052604090205482906001600160a01b031633146112955760405162461bcd60e51b8152600401610b1d90612db4565b6000838152600260205260409020600a0154600160a01b900460ff1660018111156112c2576112c2612c44565b8260018111156112d4576112d4612c44565b14610d69576000838152600260205260409020600a01805483919060ff60a01b1916600160a01b83600181111561130d5761130d612c44565b02179055507ff81d9cc918f72edfc74e6b61d4e19ef9a739e94a0e9715b108e6af62275142ef8383604051610c91929190612fd9565b60008181526002602052604090205481906001600160a01b0316331461137b5760405162461bcd60e51b8152600401610b1d90612db4565b60008281526008602052604090205460ff16610dc65760008281526008602052604090819020805460ff19166001179055517f9dc30b8eda31a6a144e092e5de600955523a6a925cc15cc1d1b9b4872cfa6155906110cd9084815260200190565b60008281526002602052604090205482906001600160a01b031633146114145760405162461bcd60e51b8152600401610b1d90612db4565b6127108261ffff16111561145c5760405162461bcd60e51b815260206004820152600f60248201526e1a5b9d985b1a59081c195c98d95b9d608a1b6044820152606401610b1d565b6000838152600260208190526040909120015461ffff838116911614610d6957600083815260026020818152604092839020909101805461ffff191661ffff86169081179091558251868152918201527f9c6f3e426c05d512408d4ecf517e5155756288155088ad45a81c0e111e3d18549101610c91565b610f6d85856000868686612008565b60008281526002602052604090205482906001600160a01b0316331461151b5760405162461bcd60e51b8152600401610b1d90612db4565b60008381526002602052604090206006015463ffffffff838116600160401b9092041614610d695760008381526002602090815260409182902060060180546bffffffff00000000000000001916600160401b63ffffffff8716908102919091179091558251868152918201527ff0275a50e761f3b1635fa59ce199b1f2268b3fcb7fbdfb18c21aa3d2d78aa7b79101610c91565b60008281526002602052604090205482906001600160a01b031633146115e85760405162461bcd60e51b8152600401610b1d90612db4565b600083815260026020526040902060060154600160601b900460ff16151582151514610d6957600083815260026020908152604091829020600601805460ff60601b1916600160601b861515908102919091179091558251868152918201527fc906280af595fe94779bb9a972f24fe4e0ed7f76bebb4ee0eb9a5f30d6dd4c879101610c91565b60008181526002602081905260408220805460068201549282015460019092018054859485948594606094869485946001600160a01b039093169363ffffffff808516946401000000008104821694600160401b90910490911692909161ffff8116916201000090910460ff169083906116e890612d7a565b80601f016020809104026020016040519081016040528092919081815260200182805461171490612d7a565b80156117615780601f1061173657610100808354040283529160200191611761565b820191906000526020600020905b81548152906001019060200180831161174457829003601f168201915b505050505092509650965096509650965096509650919395979092949650565b600054610100900460ff16158080156117a15750600054600160ff909116105b806117bb5750303b1580156117bb575060005460ff166001145b61181e5760405162461bcd60e51b815260206004820152602e60248201527f496e697469616c697a61626c653a20636f6e747261637420697320616c72656160448201526d191e481a5b9a5d1a585b1a5e995960921b6064820152608401610b1d565b6000805460ff191660011790558015611841576000805461ff0019166101001790555b600980546001600160a01b0319166001600160a01b038416908117909155604080516381fa6cd360e01b815290516381fa6cd3916004808201926020929091908290030181865afa15801561189a573d6000803e3d6000fd5b505050506040513d601f19601f820116820180604052508101906118be9190612fed565b6040805163a99e7e2960e01b81526004810191909152602960448201527f2875696e74323536206d61726b657449642c2061646472657373206c656e646560648201526872416464726573732960b81b60848201523060248201526001600160a01b03919091169063a99e7e299060a4016020604051808303816000875af115801561194e573d6000803e3d6000fd5b505050506040513d601f19601f82011682018060405250810190611972919061300a565b600155600954604080516381fa6cd360e01b815290516001600160a01b03909216916381fa6cd3916004808201926020929091908290030181865afa1580156119bf573d6000803e3d6000fd5b505050506040513d601f19601f820116820180604052508101906119e39190612fed565b6040805163a99e7e2960e01b81526004810191909152602b60448201527f2875696e74323536206d61726b657449642c206164647265737320626f72726f60648201526a776572416464726573732960a81b60848201523060248201526001600160a01b03919091169063a99e7e299060a4016020604051808303816000875af1158015611a75573d6000803e3d6000fd5b505050506040513d601f19601f82011682018060405250810190611a99919061300a565b6006558015610dc6576000805461ff0019169055604051600181527f7f26b83ff96e1f2b6a682f133852f6798a09c465da95921460cefb3847402498906020016110cd565b6000818152600260205260408120611af9906007013361201f565b90508015610dc6577f914ccbaf2f5c9c2f4b7c6be3497b6b2ceb6ce2d050aec6eb2e0e31b8f9f67f0c82336110b4565b60006111848b8b8b8b8b8b8b8b8b8b612182565b610d698383836000612034565b60008281526002602052604090205482906001600160a01b03163314611b825760405162461bcd60e51b8152600401610b1d90612db4565b60008381526002602052604090206006015463ffffffff838116911614610d6957600083815260026020908152604091829020600601805463ffffffff191663ffffffff86169081179091558251868152918201527fa04499c227e7a6de804e5a57e4b38990792373bd8d73b6c13ab76e40600748439101610c91565b60008981526002602052604090205489906001600160a01b03163314611c375760405162461bcd60e51b8152600401610b1d90612db4565b611c428a8484610e51565b611c4c8a8a611b4a565b611c568a89610c9e565b611c608a886114e3565b611c6a8a876113dc565b611c748a85611193565b611c7e8a866115b0565b50505050505050505050565b6000611c9f8a8a8a8a8a8a8a60008b8b612182565b9a9950505050505050505050565b6000808415611d6a57611cc083876122ee565b8015611d4757506009546001600160a01b03878116600090815260208790526040908190205490516330cd251f60e21b8152600481019190915291169063c334947c90602401602060405180830381865afa158015611d23573d6000803e3d6000fd5b505050506040513d601f19601f82011682018060405250810190611d479190613023565b6001600160a01b0387166000908152602086905260409020549092509050611d6f565b600191505b94509492505050565b60606000611d8585612310565b90506000611d938486613056565b9050818111611e56576000611da8858361306d565b905082811115611db55750815b611dbf8282613080565b67ffffffffffffffff811115611dd757611dd7612e61565b604051908082528060200260200182016040528015611e00578160200160208202803683370190505b509350815b81811015611e5357611e17888261231a565b858281518110611e2957611e29613093565b6001600160a01b039092166020928302919091019091015280611e4b816130a9565b915050611e05565b50505b50509392505050565b83611e6c57600654611e70565b6001545b806005819055506000808989604051602001611e9f9291909182526001600160a01b0316602082015260400190565b60405160208183030381529060405290506000600260008c815260200190815260200160002060000160009054906101000a90046001600160a01b03169050600960009054906101000a90046001600160a01b03166001600160a01b031663930ed0138b6005548c600087878e8e8e6040518a63ffffffff1660e01b8152600401611f32999897969594939291906130c2565b6020604051808303816000875af1158015611f51573d6000803e3d6000fd5b505050506040513d601f19601f82011682018060405250810190611f75919061300a565b92505050611f8589898389612326565b5050600060055550505050505050565b6000838152600260205260409020546001600160a01b0316336001600160a01b031614611ffb5760405162461bcd60e51b81526020600482015260146024820152732737ba103a34329036b0b935b2ba1037bbb732b960611b6044820152606401610b1d565b6000610f6d848484612428565b6000612015878787612428565b5050505050505050565b6000610bf4836001600160a01b038416612538565b8061204157600654612045565b6001545b60058190556000858152600260205260409020546001600160a01b0316336001600160a01b0316146120b05760405162461bcd60e51b81526020600482015260146024820152732737ba103a34329036b0b935b2ba1037bbb732b960611b6044820152606401610b1d565b6009546005546040516000926001600160a01b0316916309a954cd91889190889086906120f5908d9086906020019182526001600160a01b0316602082015260400190565b6040516020818303038152906040526040518663ffffffff1660e01b8152600401612124959493929190613123565b6020604051808303816000875af1158015612143573d6000803e3d6000fd5b505050506040513d601f19601f82011682018060405250810190612167919061300a565b905061217586868386612326565b5050600060055550505050565b60006001600160a01b038b166121d25760405162461bcd60e51b8152602060048201526015602482015274496e76616c6964206f776e6572206164647265737360581b6044820152606401610b1d565b6004600081546121e1906130a9565b9182905550600081815260026020526040902080546001600160a01b0319166001600160a01b038e16179055905061221a818484610e51565b612224818b611b4a565b61222e818a610c9e565b61223881886113dc565b61224281896114e3565b61224c818561125d565b851561227457600081815260026020819052604090912001805462ff00001916620100001790555b841561229d576000818152600260205260409020600601805460ff60601b1916600160601b1790555b8a6001600160a01b03167fa69fa77c6a90b171cf4e3d9a9dd6c4e56fbd1fbbdcf3925eaf600ccaa917feab826040516122d891815260200190565b60405180910390a29a9950505050505050505050565b6001600160a01b03811660009081526001830160205260408120541515610bf4565b6000610fb1825490565b6000610bf4838361262b565b80156123ae5760008481526002602081815260408084206001600160a01b038816855260058101835290842086905592879052526123679060030184612655565b50604080518581526001600160a01b03851660208201527f75675690de0899b0b869d83b44b2d926ac594426b2a0286c478ecdf815cbd33e910160405180910390a1610f48565b60008481526002602081815260408084206001600160a01b038816855260098101835290842086905592879052526123e99060070184612655565b50604080518581526001600160a01b03851660208201527f0c2cfc7e7a16ebee66e77fb314f4bfdb5505e33e77d41c0c60604efc70fd926b9101610f3f565b600081156124b3575060008381526002602081815260408084206001600160a01b0387168552600581018352908420549387905291905261246c906003018461201f565b50604080518581526001600160a01b03851660208201527f6e7c30dc58d3daa1458c79b66ca464f5f3d8a23d9e50eb14daf1cb0923bf2900910160405180910390a1610bf4565b5060008381526002602081815260408084206001600160a01b038716855260098101835290842054938790529190526124ef906007018461201f565b50604080518581526001600160a01b03851660208201527fe76a3e8b220b622b9fc2a655ab867687a93f195809eb3639f422e60936ff7eb4910160405180910390a19392505050565b6000818152600183016020526040812054801561262157600061255c600183613080565b855490915060009061257090600190613080565b90508181146125d557600086600001828154811061259057612590613093565b90600052602060002001549050808760000184815481106125b3576125b3613093565b6000918252602080832090910192909255918252600188019052604090208390555b85548690806125e6576125e6613161565b600190038181906000526020600020016000905590558560010160008681526020019081526020016000206000905560019350505050610fb1565b6000915050610fb1565b600082600001828154811061264257612642613093565b9060005260206000200154905092915050565b6000610bf4836001600160a01b0384166000612684838360009081526001919091016020526040902054151590565b6126ba57508154600181810184556000848152602080822090930184905584548482528286019093526040902091909155610fb1565b506000610fb1565b6001600160a01b03811681146126d757600080fd5b50565b600080604083850312156126ed57600080fd5b8235915060208301356126ff816126c2565b809150509250929050565b60006020828403121561271c57600080fd5b5035919050565b6000815180845260005b818110156127495760208185018101518683018201520161272d565b506000602082860101526020601f19601f83011685010191505092915050565b602081526000610bf46020830184612723565b60008060006060848603121561279157600080fd5b505081359360208301359350604090920135919050565b6020808252825182820181905260009190848201906040850190845b818110156127e95783516001600160a01b0316835292840192918401916001016127c4565b50909695505050505050565b803563ffffffff8116811461280957600080fd5b919050565b6000806040838503121561282157600080fd5b82359150612831602084016127f5565b90509250929050565b803560ff8116811461280957600080fd5b60008060008060008060c0878903121561286457600080fd5b863595506020870135612876816126c2565b94506040870135935061288b6060880161283a565b92506080870135915060a087013590509295509295509295565b6000602082840312156128b757600080fd5b8135610bf4816126c2565b60008083601f8401126128d457600080fd5b50813567ffffffffffffffff8111156128ec57600080fd5b602083019150836020828501011115610ab457600080fd5b60008060006040848603121561291957600080fd5b83359250602084013567ffffffffffffffff81111561293757600080fd5b612943868287016128c2565b9497909650939450505050565b600080600080600060a0868803121561296857600080fd5b85359450602086013561297a816126c2565b93506129886040870161283a565b94979396509394606081013594506080013592915050565b600080600080600080600060a0888a0312156129bb57600080fd5b87356129c6816126c2565b9650602088013567ffffffffffffffff808211156129e357600080fd5b6129ef8b838c016128c2565b909850965060408a0135915080821115612a0857600080fd5b50612a158a828b016128c2565b909550935050606088013591506080880135612a30816126c2565b8091505092959891949750929550565b80151581146126d757600080fd5b60008060408385031215612a6157600080fd5b8235915060208301356126ff81612a40565b600080600060608486031215612a8857600080fd5b833592506020840135612a9a816126c2565b929592945050506040919091013590565b80356002811061280957600080fd5b60008060408385031215612acd57600080fd5b8235915061283160208401612aab565b803561ffff8116811461280957600080fd5b60008060408385031215612b0257600080fd5b8235915061283160208401612add565b6001600160a01b038816815263ffffffff878116602083015286811660408301528516606082015260e060808201819052600090612b5290830186612723565b61ffff9490941660a08301525090151560c09091015295945050505050565b6000806000806000806000806000806101208b8d031215612b9157600080fd5b8a35612b9c816126c2565b9950612baa60208c016127f5565b9850612bb860408c016127f5565b9750612bc660608c016127f5565b9650612bd460808c01612add565b955060a08b0135612be481612a40565b945060c08b0135612bf481612a40565b9350612c0260e08c01612aab565b92506101008b013567ffffffffffffffff811115612c1f57600080fd5b612c2b8d828e016128c2565b915080935050809150509295989b9194979a5092959850565b634e487b7160e01b600052602160045260246000fd5b60028110612c7857634e487b7160e01b600052602160045260246000fd5b9052565b60208101610fb18284612c5a565b60008060008060008060008060006101008a8c031215612ca957600080fd5b89359850612cb960208b016127f5565b9750612cc760408b016127f5565b9650612cd560608b016127f5565b9550612ce360808b01612add565b945060a08a0135612cf381612a40565b935060c08a0135612d0381612a40565b925060e08a013567ffffffffffffffff811115612d1f57600080fd5b612d2b8c828d016128c2565b915080935050809150509295985092959850929598565b60008060008060008060008060006101008a8c031215612d6157600080fd5b8935612d6c816126c2565b9850612cb960208b016127f5565b600181811c90821680612d8e57607f821691505b602082108103612dae57634e487b7160e01b600052602260045260246000fd5b50919050565b6020808252600d908201526c2737ba103a34329037bbb732b960991b604082015260600190565b6000808354612de981612d7a565b60018281168015612e015760018114612e1657612e45565b60ff1984168752821515830287019450612e45565b8760005260208060002060005b85811015612e3c5781548a820152908401908201612e23565b50505082870194505b50929695505050505050565b8183823760009101908152919050565b634e487b7160e01b600052604160045260246000fd5b601f821115610d6957600081815260208120601f850160051c81016020861015612e9e5750805b601f850160051c820191505b81811015610db257828155600101612eaa565b67ffffffffffffffff831115612ed557612ed5612e61565b612ee983612ee38354612d7a565b83612e77565b6000601f841160018114612f1d5760008515612f055750838201355b600019600387901b1c1916600186901b178355610f6d565b600083815260209020601f19861690835b82811015612f4e5786850135825560209485019460019092019101612f2e565b5086821015612f6b5760001960f88860031b161c19848701351681555b505060018560011b0183555050505050565b83815260406020820152816040820152818360608301376000818301606090810191909152601f909201601f1916010192915050565b8284823760609190911b6bffffffffffffffffffffffff19169101908152601401919050565b82815260408101610bf46020830184612c5a565b600060208284031215612fff57600080fd5b8151610bf4816126c2565b60006020828403121561301c57600080fd5b5051919050565b60006020828403121561303557600080fd5b8151610bf481612a40565b634e487b7160e01b600052601160045260246000fd5b8082028115828204841417610fb157610fb1613040565b80820180821115610fb157610fb1613040565b81810381811115610fb157610fb1613040565b634e487b7160e01b600052603260045260246000fd5b6000600182016130bb576130bb613040565b5060010190565b600061012060018060a01b03808d1684528b60208501528a60408501528960608501528160808501526130f78285018a612723565b971660a0840152505060ff9390931660c084015260e08301919091526101009091015295945050505050565b60018060a01b038616815284602082015283604082015282606082015260a06080820152600061315660a0830184612723565b979650505050505050565b634e487b7160e01b600052603160045260246000fdfea26469706673582212200ebeaa6596b4d4ed2bc6b299d86b5c0d671fefa2878d36bee6c59882376c761764736f6c63430008110033",
    "linkReferences": {}
  },
  "methodIdentifiers": {
    "CURRENT_CODE_VERSION()": "4148f94c",
    "attestBorrower(uint256,address,uint256)": "e4050e29",
    "attestBorrower(uint256,address,uint256,uint8,bytes32,bytes32)": "583b16ae",
    "attestLender(uint256,address,uint256)": "97eb575b",
    "attestLender(uint256,address,uint256,uint8,bytes32,bytes32)": "3fa7f688",
    "borrowerAttestationSchemaId()": "679700d9",
    "borrowerExitMarket(uint256)": "c995cddc",
    "closeMarket(uint256)": "ae418095",
    "createMarket(address,uint32,uint32,uint32,uint16,bool,bool,string)": "f9fa9345",
    "createMarket(address,uint32,uint32,uint32,uint16,bool,bool,uint8,string)": "cb90cc31",
    "getAllVerifiedBorrowersForMarket(uint256,uint256,uint256)": "7694d2ec",
    "getAllVerifiedLendersForMarket(uint256,uint256,uint256)": "1db2b0d9",
    "getBidExpirationTime(uint256)": "082fc54d",
    "getMarketAttestationRequirements(uint256)": "8eff9ea4",
    "getMarketData(uint256)": "bfacba3d",
    "getMarketFeeRecipient(uint256)": "64413796",
    "getMarketOwner(uint256)": "3d369029",
    "getMarketURI(uint256)": "1a4808d2",
    "getMarketplaceFee(uint256)": "0a2e98e4",
    "getPaymentCycleDuration(uint256)": "805deb53",
    "getPaymentDefaultDuration(uint256)": "11bed5bb",
    "getPaymentType(uint256)": "d6e794dd",
    "initialize(address)": "c4d66de8",
    "isMarketClosed(uint256)": "1cc672df",
    "isPayable()": "ce46e046",
    "isVerifiedBorrower(uint256,address)": "066e7513",
    "isVerifiedLender(uint256,address)": "3ef19a9b",
    "lenderAttestationSchemaId()": "3c0db788",
    "lenderExitMarket(uint256)": "7f027a1a",
    "marketCount()": "ec979082",
    "onUpgrade()": "1824a46b",
    "resolve(address,bytes,bytes,uint256,address)": "947a75b4",
    "revokeBorrower(uint256,address)": "455154e5",
    "revokeBorrower(uint256,address,uint8,bytes32,bytes32)": "bc4c3495",
    "revokeLender(uint256,address)": "8b636632",
    "revokeLender(uint256,address,uint8,bytes32,bytes32)": "6054b175",
    "setBidExpirationTime(uint256,uint32)": "bd536e6e",
    "setBorrowerAttestationRequired(uint256,bool)": "be99279b",
    "setLenderAttestationRequired(uint256,bool)": "94e8e97e",
    "setMarketFeePercent(uint256,uint16)": "b6b6d77f",
    "setMarketFeeRecipient(uint256,address)": "1ebc7da8",
    "setMarketPaymentType(uint256,uint8)": "aa542fa5",
    "setMarketURI(uint256,string)": "532f5694",
    "setPaymentCycleDuration(uint256,uint32)": "ecd6ce6e",
    "setPaymentDefaultDuration(uint256,uint32)": "2f1be8f9",
    "setTellerAS(address)": "48000cea",
    "tellerAS()": "ddfafef6",
    "transferMarketOwnership(uint256,address)": "7cfc1818",
    "updateMarketSettings(uint256,uint32,uint32,uint32,uint16,bool,bool,string)": "f7c0c555",
    "version()": "54fd4d50"
  },
  "id": 4
}