{
  "abi": [
    {
      "anonymous": false,
      "inputs": [
        {
          "indexed": false,
          "internalType": "uint8",
          "name": "version",
          "type": "uint8"
        }
      ],
      "name": "Initialized",
      "type": "event"
    },
    {
      "anonymous": false,
      "inputs": [
        {
          "indexed": true,
          "internalType": "address",
          "name": "account",
          "type": "address"
        },
        {
          "indexed": true,
          "internalType": "enum RepMark",
          "name": "repMark",
          "type": "uint8"
        },
        {
          "indexed": false,
          "internalType": "uint256",
          "name": "bidId",
          "type": "uint256"
        }
      ],
      "name": "MarkAdded",
      "type": "event"
    },
    {
      "anonymous": false,
      "inputs": [
        {
          "indexed": true,
          "internalType": "address",
          "name": "account",
          "type": "address"
        },
        {
          "indexed": true,
          "internalType": "enum RepMark",
          "name": "repMark",
          "type": "uint8"
        },
        {
          "indexed": false,
          "internalType": "uint256",
          "name": "bidId",
          "type": "uint256"
        }
      ],
      "name": "MarkRemoved",
      "type": "event"
    },
    {
      "inputs": [],
      "name": "CONTROLLER",
      "outputs": [
        {
          "internalType": "bytes32",
          "name": "",
          "type": "bytes32"
        }
      ],
      "stateMutability": "view",
      "type": "function"
    },
    {
      "inputs": [
        {
          "internalType": "address",
          "name": "_account",
          "type": "address"
        }
      ],
      "name": "getCurrentDefaultLoanIds",
      "outputs": [
        {
          "internalType": "uint256[]",
          "name": "",
          "type": "uint256[]"
        }
      ],
      "stateMutability": "nonpayable",
      "type": "function"
    },
    {
      "inputs": [
        {
          "internalType": "address",
          "name": "_account",
          "type": "address"
        }
      ],
      "name": "getCurrentDelinquentLoanIds",
      "outputs": [
        {
          "internalType": "uint256[]",
          "name": "",
          "type": "uint256[]"
        }
      ],
      "stateMutability": "nonpayable",
      "type": "function"
    },
    {
      "inputs": [
        {
          "internalType": "address",
          "name": "_account",
          "type": "address"
        }
      ],
      "name": "getDefaultedLoanIds",
      "outputs": [
        {
          "internalType": "uint256[]",
          "name": "",
          "type": "uint256[]"
        }
      ],
      "stateMutability": "nonpayable",
      "type": "function"
    },
    {
      "inputs": [
        {
          "internalType": "address",
          "name": "_account",
          "type": "address"
        }
      ],
      "name": "getDelinquentLoanIds",
      "outputs": [
        {
          "internalType": "uint256[]",
          "name": "",
          "type": "uint256[]"
        }
      ],
      "stateMutability": "nonpayable",
      "type": "function"
    },
    {
      "inputs": [
        {
          "internalType": "address",
          "name": "_tellerV2",
          "type": "address"
        }
      ],
      "name": "initialize",
      "outputs": [],
      "stateMutability": "nonpayable",
      "type": "function"
    },
    {
      "inputs": [],
      "name": "tellerV2",
      "outputs": [
        {
          "internalType": "contract ITellerV2",
          "name": "",
          "type": "address"
        }
      ],
      "stateMutability": "view",
      "type": "function"
    },
    {
      "inputs": [
        {
          "internalType": "address",
          "name": "_account",
          "type": "address"
        }
      ],
      "name": "updateAccountReputation",
      "outputs": [],
      "stateMutability": "nonpayable",
      "type": "function"
    },
    {
      "inputs": [
        {
          "internalType": "address",
          "name": "_account",
          "type": "address"
        },
        {
          "internalType": "uint256",
          "name": "_bidId",
          "type": "uint256"
        }
      ],
      "name": "updateAccountReputation",
      "outputs": [
        {
          "internalType": "enum RepMark",
          "name": "",
          "type": "uint8"
        }
      ],
      "stateMutability": "nonpayable",
      "type": "function"
    }
  ],
  "bytecode": {
    "object": "0x608060405234801561001057600080fd5b50610bb4806100206000396000f3fe608060405234801561001057600080fd5b50600436106100935760003560e01c8063941675db11610066578063941675db146100fc578063c4d66de81461012d578063c7312e4714610140578063e0d5343d14610160578063ee0fc1211461017357600080fd5b806303c04b2814610098578063287b498a146100c15780637076185c146100d457806376604b37146100e9575b600080fd5b6100ab6100a6366004610953565b6101a8565b6040516100b8919061096e565b60405180910390f35b6100ab6100cf366004610953565b6101da565b6100e76100e2366004610953565b610206565b005b6100ab6100f7366004610953565b6102c9565b600054610115906201000090046001600160a01b031681565b6040516001600160a01b0390911681526020016100b8565b6100e761013b366004610953565b6102f5565b61015361014e3660046109b2565b610425565b6040516100b891906109f2565b6100ab61016e366004610953565b610438565b61019a7f70546d1c92f8c2132ae23a23f5177aa8526356051c7510df99f50e012d22152981565b6040519081526020016100b8565b60606101b382610206565b6001600160a01b03821660009081526002602052604090206101d490610460565b92915050565b60606101e582610206565b6001600160a01b03821660009081526004602052604090206101d490610460565b6000805460405163054de0ff60e01b81526001600160a01b038481166004830152620100009092049091169063054de0ff90602401600060405180830381865afa158015610258573d6000803e3d6000fd5b505050506040513d6000823e601f3d908101601f191682016040526102809190810190610a30565b905060005b81518110156102c4576102b1838383815181106102a4576102a4610aee565b602002602001015161046d565b50806102bc81610b1a565b915050610285565b505050565b60606102d482610206565b6001600160a01b03821660009081526001602052604090206101d490610460565b600054610100900460ff16158080156103155750600054600160ff909116105b8061032f5750303b15801561032f575060005460ff166001145b6103965760405162461bcd60e51b815260206004820152602e60248201527f496e697469616c697a61626c653a20636f6e747261637420697320616c72656160448201526d191e481a5b9a5d1a585b1a5e995960921b606482015260840160405180910390fd5b6000805460ff1916600117905580156103b9576000805461ff0019166101001790555b6000805462010000600160b01b031916620100006001600160a01b038516021790558015610421576000805461ff0019169055604051600181527f7f26b83ff96e1f2b6a682f133852f6798a09c465da95921460cefb38474024989060200160405180910390a15b5050565b6000610431838361046d565b9392505050565b606061044382610206565b6001600160a01b03821660009081526003602052604090206101d4905b6060600061043183610598565b6000805460405163e8cbab0960e01b815260048101849052620100009091046001600160a01b03169063e8cbab0990602401602060405180830381865afa1580156104bc573d6000803e3d6000fd5b505050506040513d601f19601f820116820180604052508101906104e09190610b33565b156104f9575060026104f4838360016105f4565b610574565b60005460405163093f561760e01b815260048101849052620100009091046001600160a01b03169063093f561790602401602060405180830381865afa158015610547573d6000803e3d6000fd5b505050506040513d601f19601f8201168201806040525081019061056b9190610b33565b15610574575060015b6000816002811115610588576105886109dc565b146101d4576101d48383836106cc565b6060816000018054806020026020016040519081016040528092919081815260200182805480156105e857602002820191906000526020600020905b8154815260200190600101908083116105d4575b50505050509050919050565b6001816002811115610608576106086109dc565b03610635576001600160a01b038316600090815260036020526040902061062f90836107dd565b50610672565b6002816002811115610649576106496109dc565b03610672576001600160a01b038316600090815260046020526040902061067090836107dd565b505b806002811115610684576106846109dc565b836001600160a01b03167f3b90fa143863a45908a7b69d67a369f6e401bfc21b1f1873b2c18f7dfdf0dd27846040516106bf91815260200190565b60405180910390a3505050565b60018160028111156106e0576106e06109dc565b03610730576001600160a01b038316600090815260016020526040902061070790836107e9565b506001600160a01b038316600090815260036020526040902061072a90836107e9565b50610790565b6002816002811115610744576107446109dc565b03610790576001600160a01b038316600090815260026020526040902061076b90836107e9565b506001600160a01b038316600090815260046020526040902061078e90836107e9565b505b8060028111156107a2576107a26109dc565b836001600160a01b03167f07ffa1c77b3c4d3bf16ff59253da47ed8e8a4367376d6caf4bf66469977bc5db846040516106bf91815260200190565b600061043183836107f5565b600061043183836108e8565b600081815260018301602052604081205480156108de576000610819600183610b55565b855490915060009061082d90600190610b55565b905081811461089257600086600001828154811061084d5761084d610aee565b906000526020600020015490508087600001848154811061087057610870610aee565b6000918252602080832090910192909255918252600188019052604090208390555b85548690806108a3576108a3610b68565b6001900381819060005260206000200160009055905585600101600086815260200190815260200160002060009055600193505050506101d4565b60009150506101d4565b600081815260018301602052604081205461092f575081546001818101845560008481526020808220909301849055845484825282860190935260409020919091556101d4565b5060006101d4565b80356001600160a01b038116811461094e57600080fd5b919050565b60006020828403121561096557600080fd5b61043182610937565b6020808252825182820181905260009190848201906040850190845b818110156109a65783518352928401929184019160010161098a565b50909695505050505050565b600080604083850312156109c557600080fd5b6109ce83610937565b946020939093013593505050565b634e487b7160e01b600052602160045260246000fd5b6020810160038310610a1457634e487b7160e01b600052602160045260246000fd5b91905290565b634e487b7160e01b600052604160045260246000fd5b60006020808385031215610a4357600080fd5b825167ffffffffffffffff80821115610a5b57600080fd5b818501915085601f830112610a6f57600080fd5b815181811115610a8157610a81610a1a565b8060051b604051601f19603f83011681018181108582111715610aa657610aa6610a1a565b604052918252848201925083810185019188831115610ac457600080fd5b938501935b82851015610ae257845184529385019392850192610ac9565b98975050505050505050565b634e487b7160e01b600052603260045260246000fd5b634e487b7160e01b600052601160045260246000fd5b600060018201610b2c57610b2c610b04565b5060010190565b600060208284031215610b4557600080fd5b8151801515811461043157600080fd5b818103818111156101d4576101d4610b04565b634e487b7160e01b600052603160045260246000fdfea2646970667358221220c35e2e506bf0b750834cbcb0c88e33f9981ea5466ab83e636b0330465ebf0ddf64736f6c63430008110033",
    "linkReferences": {}
  },
  "methodIdentifiers": {
    "CONTROLLER()": "ee0fc121",
    "getCurrentDefaultLoanIds(address)": "287b498a",
    "getCurrentDelinquentLoanIds(address)": "e0d5343d",
    "getDefaultedLoanIds(address)": "03c04b28",
    "getDelinquentLoanIds(address)": "76604b37",
    "initialize(address)": "c4d66de8",
    "tellerV2()": "941675db",
    "updateAccountReputation(address)": "7076185c",
    "updateAccountReputation(address,uint256)": "c7312e47"
  },
  "id": 9
}