{
  "abi": [
    {
      "inputs": [],
      "name": "NotPayable",
      "type": "error"
    },
    {
      "inputs": [],
      "name": "isPayable",
      "outputs": [
        {
          "internalType": "bool",
          "name": "",
          "type": "bool"
        }
      ],
      "stateMutability": "pure",
      "type": "function"
    },
    {
      "inputs": [
        {
          "internalType": "address",
          "name": "",
          "type": "address"
        },
        {
          "internalType": "bytes",
          "name": "",
          "type": "bytes"
        },
        {
          "internalType": "bytes",
          "name": "data",
          "type": "bytes"
        },
        {
          "internalType": "uint256",
          "name": "",
          "type": "uint256"
        },
        {
          "internalType": "address",
          "name": "",
          "type": "address"
        }
      ],
      "name": "resolve",
      "outputs": [
        {
          "internalType": "bool",
          "name": "",
          "type": "bool"
        }
      ],
      "stateMutability": "payable",
      "type": "function"
    },
    {
      "stateMutability": "payable",
      "type": "receive"
    }
  ],
  "bytecode": {
    "object": "0x608060405234801561001057600080fd5b50610247806100206000396000f3fe60806040526004361061002d5760003560e01c8063947a75b414610050578063ce46e0461461007757600080fd5b3661004b57604051631574f9f360e01b815260040160405180910390fd5b600080fd5b61006361005e366004610161565b61008b565b604051901515815260200160405180910390f35b34801561008357600080fd5b506000610063565b60006001841480156100f05750848460008181106100ab576100ab6101fb565b909101356001600160f81b031916159050806100f05750848460008181106100d5576100d56101fb565b9050013560f81c60f81b6001600160f81b031916600160f81b145b98975050505050505050565b80356001600160a01b038116811461011357600080fd5b919050565b60008083601f84011261012a57600080fd5b50813567ffffffffffffffff81111561014257600080fd5b60208301915083602082850101111561015a57600080fd5b9250929050565b600080600080600080600060a0888a03121561017c57600080fd5b610185886100fc565b9650602088013567ffffffffffffffff808211156101a257600080fd5b6101ae8b838c01610118565b909850965060408a01359150808211156101c757600080fd5b506101d48a828b01610118565b909550935050606088013591506101ed608089016100fc565b905092959891949750929550565b634e487b7160e01b600052603260045260246000fdfea26469706673582212201d6468b48f9f153d0e397e845aecbc2f9642864028a94c2e312061d37ee2ff8c64736f6c63430008110033",
    "linkReferences": {}
  },
  "methodIdentifiers": {
    "isPayable()": "ce46e046",
    "resolve(address,bytes,bytes,uint256,address)": "947a75b4"
  },
  "id": 97
}