{
  "address": "0xF4c50cb315115De1787A9f048A4fbC8f57990937",
  "abi": [
    {
      "inputs": [
        {
          "internalType": "address",
          "name": "_protocolAddress",
          "type": "address"
        },
        {
          "internalType": "address",
          "name": "_marketRegistry",
          "type": "address"
        }
      ],
      "stateMutability": "nonpayable",
      "type": "constructor"
    },
    {
      "anonymous": false,
      "inputs": [
        {
          "indexed": true,
          "internalType": "address",
          "name": "lender",
          "type": "address"
        },
        {
          "indexed": true,
          "internalType": "uint256",
          "name": "marketId",
          "type": "uint256"
        },
        {
          "indexed": true,
          "internalType": "address",
          "name": "lendingToken",
          "type": "address"
        }
      ],
      "name": "DeletedCommitment",
      "type": "event"
    },
    {
      "anonymous": false,
      "inputs": [
        {
          "indexed": true,
          "internalType": "address",
          "name": "lender",
          "type": "address"
        },
        {
          "indexed": true,
          "internalType": "uint256",
          "name": "marketId",
          "type": "uint256"
        },
        {
          "indexed": true,
          "internalType": "address",
          "name": "lendingToken",
          "type": "address"
        },
        {
          "indexed": false,
          "internalType": "uint256",
          "name": "tokenAmount",
          "type": "uint256"
        },
        {
          "indexed": false,
          "internalType": "uint256",
          "name": "bidId",
          "type": "uint256"
        }
      ],
      "name": "ExercisedCommitment",
      "type": "event"
    },
    {
      "anonymous": false,
      "inputs": [
        {
          "indexed": true,
          "internalType": "address",
          "name": "lender",
          "type": "address"
        },
        {
          "indexed": true,
          "internalType": "uint256",
          "name": "marketId",
          "type": "uint256"
        },
        {
          "indexed": true,
          "internalType": "address",
          "name": "lendingToken",
          "type": "address"
        },
        {
          "indexed": false,
          "internalType": "uint256",
          "name": "tokenAmount",
          "type": "uint256"
        }
      ],
      "name": "UpdatedCommitment",
      "type": "event"
    },
    {
      "inputs": [],
      "name": "_marketRegistry",
      "outputs": [
        {
          "internalType": "address",
          "name": "",
          "type": "address"
        }
      ],
      "stateMutability": "view",
      "type": "function"
    },
    {
      "inputs": [],
      "name": "_tellerV2",
      "outputs": [
        {
          "internalType": "address",
          "name": "",
          "type": "address"
        }
      ],
      "stateMutability": "view",
      "type": "function"
    },
    {
      "inputs": [
        {
          "internalType": "uint256",
          "name": "_marketId",
          "type": "uint256"
        },
        {
          "internalType": "address",
          "name": "_lender",
          "type": "address"
        },
        {
          "internalType": "address",
          "name": "_tokenAddress",
          "type": "address"
        },
        {
          "internalType": "uint256",
          "name": "_principal",
          "type": "uint256"
        },
        {
          "internalType": "uint32",
          "name": "_loanDuration",
          "type": "uint32"
        },
        {
          "internalType": "uint16",
          "name": "_interestRate",
          "type": "uint16"
        }
      ],
      "name": "acceptCommitment",
      "outputs": [
        {
          "internalType": "uint256",
          "name": "bidId",
          "type": "uint256"
        }
      ],
      "stateMutability": "nonpayable",
      "type": "function"
    },
    {
      "inputs": [
        {
          "internalType": "uint256",
          "name": "_marketId",
          "type": "uint256"
        },
        {
          "internalType": "address",
          "name": "_tokenAddress",
          "type": "address"
        }
      ],
      "name": "deleteCommitment",
      "outputs": [],
      "stateMutability": "nonpayable",
      "type": "function"
    },
    {
      "inputs": [],
      "name": "getMarketRegistry",
      "outputs": [
        {
          "internalType": "address",
          "name": "",
          "type": "address"
        }
      ],
      "stateMutability": "view",
      "type": "function"
    },
    {
      "inputs": [],
      "name": "getTellerV2",
      "outputs": [
        {
          "internalType": "contract TellerV2",
          "name": "",
          "type": "address"
        }
      ],
      "stateMutability": "view",
      "type": "function"
    },
    {
      "inputs": [
        {
          "internalType": "uint256",
          "name": "marketId",
          "type": "uint256"
        }
      ],
      "name": "getTellerV2MarketOwner",
      "outputs": [
        {
          "internalType": "address",
          "name": "",
          "type": "address"
        }
      ],
      "stateMutability": "nonpayable",
      "type": "function"
    },
    {
      "inputs": [
        {
          "internalType": "address",
          "name": "",
          "type": "address"
        },
        {
          "internalType": "uint256",
          "name": "",
          "type": "uint256"
        },
        {
          "internalType": "address",
          "name": "",
          "type": "address"
        }
      ],
      "name": "lenderMarketCommitments",
      "outputs": [
        {
          "internalType": "uint256",
          "name": "maxPrincipal",
          "type": "uint256"
        },
        {
          "internalType": "uint32",
          "name": "expiration",
          "type": "uint32"
        },
        {
          "internalType": "uint32",
          "name": "maxDuration",
          "type": "uint32"
        },
        {
          "internalType": "uint16",
          "name": "minInterestRate",
          "type": "uint16"
        }
      ],
      "stateMutability": "view",
      "type": "function"
    },
    {
      "inputs": [
        {
          "internalType": "uint256",
          "name": "_marketId",
          "type": "uint256"
        },
        {
          "internalType": "address",
          "name": "_tokenAddress",
          "type": "address"
        },
        {
          "internalType": "uint256",
          "name": "_maxPrincipal",
          "type": "uint256"
        },
        {
          "internalType": "uint32",
          "name": "_maxLoanDuration",
          "type": "uint32"
        },
        {
          "internalType": "uint16",
          "name": "_minInterestRate",
          "type": "uint16"
        },
        {
          "internalType": "uint32",
          "name": "_expiration",
          "type": "uint32"
        }
      ],
      "name": "updateCommitment",
      "outputs": [],
      "stateMutability": "nonpayable",
      "type": "function"
    }
  ],
  "artifactName": "LenderCommitmentForwarder",
  "transactionHash": "0xaeadc6e53572d33a9747c02468a94dee602553ef2400702f43032a7d6efb9724",
  "args": [
    "0x00182FdB0B880eE24D428e3Cc39383717677C37e",
    "0x5e30357d5136Bc4BfaDBA1ab341D0da09Fe7a9F1"
  ],
  "solcInputHash": "1ab98f09c6d4792790c77ae3c51e5751",
  "bytecode": "0x60c060405234801561001057600080fd5b50604051610e8b380380610e8b83398101604081905261002f91610062565b6001600160a01b039182166080521660a052610095565b80516001600160a01b038116811461005d57600080fd5b919050565b6000806040838503121561007557600080fd5b61007e83610046565b915061008c60208401610046565b90509250929050565b60805160a051610db56100d66000396000818161017401528181610212015261025501526000818161019a015281816101d801526108950152610db56000f3fe608060405234801561001057600080fd5b50600436106100935760003560e01c8063dc003d5a11610066578063dc003d5a14610198578063e2ea54a2146101be578063eafef46e146101d3578063f266afd4146101fa578063fd7b2d911461020d57600080fd5b80631dcaa70d14610098578063305e0317146100c85780637a6c479714610151578063c66b8ed214610172575b600080fd5b6100ab6100a6366004610a73565b610234565b6040516001600160a01b0390911681526020015b60405180910390f35b6101206100d6366004610aa4565b60656020908152600093845260408085208252928452828420905282529020805460019091015463ffffffff80821691640100000000810490911690600160401b900461ffff1684565b6040516100bf949392919093845263ffffffff92831660208501529116604083015261ffff16606082015260800190565b61016461015f366004610b11565b6102d7565b6040519081526020016100bf565b7f00000000000000000000000000000000000000000000000000000000000000006100ab565b7f00000000000000000000000000000000000000000000000000000000000000006100ab565b6101d16101cc366004610b7b565b61058f565b005b6100ab7f000000000000000000000000000000000000000000000000000000000000000081565b6101d1610208366004610bab565b61059e565b6100ab7f000000000000000000000000000000000000000000000000000000000000000081565b604051633d36902960e01b8152600481018290526000906001600160a01b037f00000000000000000000000000000000000000000000000000000000000000001690633d36902990602401602060405180830381600087803b15801561029957600080fd5b505af11580156102ad573d6000803e3d6000fd5b505050506040513d601f19601f820116820180604052508101906102d19190610c07565b92915050565b6000866102e381610234565b6001600160a01b0316336001600160a01b03161461030057600080fd5b6001600160a01b0387811660009081526065602090815260408083208c84528252808320938a1683529290522080543391908711156103905760405162461bcd60e51b815260206004820152602160248201527f436f6d6d69746d656e74207072696e636970616c20696e73756666696369656e6044820152601d60fa1b60648201526084015b60405180910390fd5b600181015463ffffffff640100000000909104811690871611156103f65760405162461bcd60e51b815260206004820181905260248201527f436f6d6d69746d656e74206475726174696f6e20696e73756666696369656e746044820152606401610387565b600181015461ffff600160401b9091048116908616101561046b5760405162461bcd60e51b815260206004820152602960248201527f496e746572657374207261746520696e73756666696369656e7420666f7220636044820152681bdb5b5a5d1b595b9d60ba1b6064820152608401610387565b600181015463ffffffff1642106104bd5760405162461bcd60e51b815260206004820152601660248201527510dbdb5b5a5d1b595b9d081a185cc8195e1c1a5c995960521b6044820152606401610387565b6040805160e081018252606060a08201819052600060c08301528c82526001600160a01b038b16602083015291810189905263ffffffff88169181019190915261ffff861660808201526105118184610671565b945061051d858b61070f565b5061052a8a8c8b8b610771565b886001600160a01b03168b8b6001600160a01b03167fddd5e86b54b6b7321832f8a4efeafa096d8e3ee18992a524e03c34f0faeb0f2a8b89604051610579929190918252602082015260400190565b60405180910390a4505050509695505050505050565b61059a3383836107bb565b5050565b3363ffffffff428116908316116105b457600080fd5b6001600160a01b0381811660008181526065602090815260408083208c84528252808320948b168084529482529182902089815560018101805463ffffffff89811667ffffffffffffffff1990921691909117640100000000918c16919091021769ffff00000000000000001916600160401b61ffff8b160217905591518981529193928b9290917fd74271b3deaa241e04cc6f3097fa3b4cc9795eab2e87dd45df4f888ca48ac224910160405180910390a45050505050505050565b600060606106f16306f33a9260e01b856020015186600001518760400151886060015189608001518a60a001518b60c001516040516024016106b99796959493929190610c80565b60408051601f198184030181529190526020810180516001600160e01b03166001600160e01b03199093169290921790915284610863565b9050808060200190518101906107079190610cdb565b949350505050565b600061076763a8cb5d6860e01b8460405160240161072f91815260200190565b60408051601f198184030181529190526020810180516001600160e01b03166001600160e01b03199093169290921790915283610863565b5060019392505050565b6001600160a01b0380851660009081526065602090815260408083208784528252808320938616835292905290812080548392906107b0908490610cf4565b909155505050505050565b6001600160a01b0380841660009081526065602090815260408083208684528252808320938516835292905220541561085e576001600160a01b038084166000818152606560209081526040808320878452825280832094861680845294909152808220828155600101805469ffffffffffffffffffff19169055518592917fbdf24bc1906bb232bd52241fded6c25f9f987e2588c352a4256bc0c4d63eff0f91a45b505050565b60606108bb838360405160200161087b929190610d19565b60408051601f198184030181529190526001600160a01b037f000000000000000000000000000000000000000000000000000000000000000016906108c2565b9392505050565b60606108bb83836040518060400160405280601e81526020017f416464726573733a206c6f772d6c6576656c2063616c6c206661696c656400008152506060610707848460008560608247101561096a5760405162461bcd60e51b815260206004820152602660248201527f416464726573733a20696e73756666696369656e742062616c616e636520666f6044820152651c8818d85b1b60d21b6064820152608401610387565b6001600160a01b0385163b6109c15760405162461bcd60e51b815260206004820152601d60248201527f416464726573733a2063616c6c20746f206e6f6e2d636f6e74726163740000006044820152606401610387565b600080866001600160a01b031685876040516109dd9190610d50565b60006040518083038185875af1925050503d8060008114610a1a576040519150601f19603f3d011682016040523d82523d6000602084013e610a1f565b606091505b5091509150610a2f828286610a3a565b979650505050505050565b60608315610a495750816108bb565b825115610a595782518084602001fd5b8160405162461bcd60e51b81526004016103879190610d6c565b600060208284031215610a8557600080fd5b5035919050565b6001600160a01b0381168114610aa157600080fd5b50565b600080600060608486031215610ab957600080fd5b8335610ac481610a8c565b9250602084013591506040840135610adb81610a8c565b809150509250925092565b803563ffffffff81168114610afa57600080fd5b919050565b803561ffff81168114610afa57600080fd5b60008060008060008060c08789031215610b2a57600080fd5b863595506020870135610b3c81610a8c565b94506040870135610b4c81610a8c565b935060608701359250610b6160808801610ae6565b9150610b6f60a08801610aff565b90509295509295509295565b60008060408385031215610b8e57600080fd5b823591506020830135610ba081610a8c565b809150509250929050565b60008060008060008060c08789031215610bc457600080fd5b863595506020870135610bd681610a8c565b945060408701359350610beb60608801610ae6565b9250610bf960808801610aff565b9150610b6f60a08801610ae6565b600060208284031215610c1957600080fd5b81516108bb81610a8c565b60005b83811015610c3f578181015183820152602001610c27565b83811115610c4e576000848401525b50505050565b60008151808452610c6c816020860160208601610c24565b601f01601f19169290920160200192915050565b600060018060a01b03808a16835288602084015287604084015263ffffffff8716606084015261ffff8616608084015260e060a0840152610cc460e0840186610c54565b915080841660c08401525098975050505050505050565b600060208284031215610ced57600080fd5b5051919050565b600082821015610d1457634e487b7160e01b600052601160045260246000fd5b500390565b60008351610d2b818460208801610c24565b60609390931b6bffffffffffffffffffffffff19169190920190815260140192915050565b60008251610d62818460208701610c24565b9190910192915050565b6020815260006108bb6020830184610c5456fea264697066735822122089c8d5bf011e5845b583822ff4f9bba875e74f404eb843e3e1f5e58515e34bda64736f6c63430008090033",
  "devdoc": {
    "events": {
      "DeletedCommitment(address,uint256,address)": {
        "params": {
          "lender": "The address of the lender.",
          "lendingToken": "The address of the asset the commitment removal applies to.",
          "marketId": "The Id of the market the commitment removal applies to."
        }
      },
      "ExercisedCommitment(address,uint256,address,uint256,uint256)": {
        "params": {
          "bidId": "The bid id for the loan from TellerV2.",
          "lender": "The address of the lender.",
          "lendingToken": "The address of the asset being committed.",
          "marketId": "The Id of the market the commitment applies to.",
          "tokenAmount": "The amount of the asset being committed."
        }
      },
      "UpdatedCommitment(address,uint256,address,uint256)": {
        "params": {
          "lender": "The address of the lender.",
          "lendingToken": "The address of the asset being committed.",
          "marketId": "The Id of the market the commitment applies to.",
          "tokenAmount": "The amount of the asset being committed."
        }
      }
    },
    "kind": "dev",
    "methods": {
      "acceptCommitment(uint256,address,address,uint256,uint32,uint16)": {
        "params": {
          "_interestRate": "The interest rate for the TellerV2 loan.",
          "_lender": "The address of the lender of the commitment.",
          "_loanDuration": "The loan duration for the TellerV2 loan.",
          "_marketId": "The Id of the market the commitment removal applies to.",
          "_principal": "The amount of currency to borrow for the loan.",
          "_tokenAddress": "The address of the asset for which the commitment is being removed."
        }
      },
      "deleteCommitment(uint256,address)": {
        "params": {
          "_marketId": "The Id of the market the commitment removal applies to.",
          "_tokenAddress": "The address of the asset for which the commitment is being removed."
        }
      },
      "updateCommitment(uint256,address,uint256,uint32,uint16,uint32)": {
        "params": {
          "_expiration": "Expiration time in seconds, when the commitment expires.",
          "_marketId": "The Id of the market the commitment applies to.",
          "_maxLoanDuration": "Length of time, in seconds that the lender's capital can be lent out for.",
          "_maxPrincipal": "Amount of tokens being committed by the lender.",
          "_minInterestRate": "Minimum Annual percentage to be applied for loans using the lender's capital.",
          "_tokenAddress": "The address of the asset being committed."
        }
      }
    },
    "version": 1
  },
  "userdoc": {
    "events": {
      "DeletedCommitment(address,uint256,address)": {
        "notice": "This event is emitted when a lender's commitment has been removed."
      },
      "ExercisedCommitment(address,uint256,address,uint256,uint256)": {
        "notice": "This event is emitted when a lender's commitment is exercised for a loan."
      },
      "UpdatedCommitment(address,uint256,address,uint256)": {
        "notice": "This event is emitted when a lender's commitment is submitted."
      }
    },
    "kind": "user",
    "methods": {
      "acceptCommitment(uint256,address,address,uint256,uint32,uint16)": {
        "notice": "Accept the commitment to submitBid and acceptBid using the funds"
      },
      "constructor": {
        "notice": "External Functions *"
      },
      "deleteCommitment(uint256,address)": {
        "notice": "Removes the commitment of a lender to a market."
      },
      "updateCommitment(uint256,address,uint256,uint32,uint16,uint32)": {
        "notice": "Updates the commitment of a lender to a market."
      }
    },
    "version": 1
  },
  "storageLayout": {
    "storage": [
      {
        "astId": 1617,
        "contract": "contracts/LenderCommitmentForwarder.sol:LenderCommitmentForwarder",
        "label": "_initialized",
        "offset": 0,
        "slot": "0",
        "type": "t_bool"
      },
      {
        "astId": 1620,
        "contract": "contracts/LenderCommitmentForwarder.sol:LenderCommitmentForwarder",
        "label": "_initializing",
        "offset": 1,
        "slot": "0",
        "type": "t_bool"
      },
      {
        "astId": 2157,
        "contract": "contracts/LenderCommitmentForwarder.sol:LenderCommitmentForwarder",
        "label": "__gap",
        "offset": 0,
        "slot": "1",
        "type": "t_array(t_uint256)50_storage"
      },
      {
        "astId": 13772,
        "contract": "contracts/LenderCommitmentForwarder.sol:LenderCommitmentForwarder",
        "label": "__gap",
        "offset": 0,
        "slot": "51",
        "type": "t_array(t_uint256)50_storage"
      },
      {
        "astId": 8963,
        "contract": "contracts/LenderCommitmentForwarder.sol:LenderCommitmentForwarder",
        "label": "lenderMarketCommitments",
        "offset": 0,
        "slot": "101",
        "type": "t_mapping(t_address,t_mapping(t_uint256,t_mapping(t_address,t_struct(Commitment)8939_storage)))"
      }
    ],
    "types": {
      "t_address": {
        "encoding": "inplace",
        "label": "address",
        "numberOfBytes": "20"
      },
      "t_array(t_uint256)50_storage": {
        "base": "t_uint256",
        "encoding": "inplace",
        "label": "uint256[50]",
        "numberOfBytes": "1600"
      },
      "t_bool": {
        "encoding": "inplace",
        "label": "bool",
        "numberOfBytes": "1"
      },
      "t_mapping(t_address,t_mapping(t_uint256,t_mapping(t_address,t_struct(Commitment)8939_storage)))": {
        "encoding": "mapping",
        "key": "t_address",
        "label": "mapping(address => mapping(uint256 => mapping(address => struct LenderCommitmentForwarder.Commitment)))",
        "numberOfBytes": "32",
        "value": "t_mapping(t_uint256,t_mapping(t_address,t_struct(Commitment)8939_storage))"
      },
      "t_mapping(t_address,t_struct(Commitment)8939_storage)": {
        "encoding": "mapping",
        "key": "t_address",
        "label": "mapping(address => struct LenderCommitmentForwarder.Commitment)",
        "numberOfBytes": "32",
        "value": "t_struct(Commitment)8939_storage"
      },
      "t_mapping(t_uint256,t_mapping(t_address,t_struct(Commitment)8939_storage))": {
        "encoding": "mapping",
        "key": "t_uint256",
        "label": "mapping(uint256 => mapping(address => struct LenderCommitmentForwarder.Commitment))",
        "numberOfBytes": "32",
        "value": "t_mapping(t_address,t_struct(Commitment)8939_storage)"
      },
      "t_struct(Commitment)8939_storage": {
        "encoding": "inplace",
        "label": "struct LenderCommitmentForwarder.Commitment",
        "members": [
          {
            "astId": 8932,
            "contract": "contracts/LenderCommitmentForwarder.sol:LenderCommitmentForwarder",
            "label": "maxPrincipal",
            "offset": 0,
            "slot": "0",
            "type": "t_uint256"
          },
          {
            "astId": 8934,
            "contract": "contracts/LenderCommitmentForwarder.sol:LenderCommitmentForwarder",
            "label": "expiration",
            "offset": 0,
            "slot": "1",
            "type": "t_uint32"
          },
          {
            "astId": 8936,
            "contract": "contracts/LenderCommitmentForwarder.sol:LenderCommitmentForwarder",
            "label": "maxDuration",
            "offset": 4,
            "slot": "1",
            "type": "t_uint32"
          },
          {
            "astId": 8938,
            "contract": "contracts/LenderCommitmentForwarder.sol:LenderCommitmentForwarder",
            "label": "minInterestRate",
            "offset": 8,
            "slot": "1",
            "type": "t_uint16"
          }
        ],
        "numberOfBytes": "64"
      },
      "t_uint16": {
        "encoding": "inplace",
        "label": "uint16",
        "numberOfBytes": "2"
      },
      "t_uint256": {
        "encoding": "inplace",
        "label": "uint256",
        "numberOfBytes": "32"
      },
      "t_uint32": {
        "encoding": "inplace",
        "label": "uint32",
        "numberOfBytes": "4"
      }
    }
  }
}