{
  "abi": [
    {
      "anonymous": false,
      "inputs": [
        {
          "indexed": false,
          "internalType": "uint256",
          "name": "_bidId",
          "type": "uint256"
        }
      ],
      "name": "CollateralClaimed",
      "type": "event"
    },
    {
      "anonymous": false,
      "inputs": [
        {
          "indexed": false,
          "internalType": "uint256",
          "name": "_bidId",
          "type": "uint256"
        },
        {
          "indexed": false,
          "internalType": "enum CollateralType",
          "name": "_type",
          "type": "uint8"
        },
        {
          "indexed": false,
          "internalType": "address",
          "name": "_collateralAddress",
          "type": "address"
        },
        {
          "indexed": false,
          "internalType": "uint256",
          "name": "_amount",
          "type": "uint256"
        },
        {
          "indexed": false,
          "internalType": "uint256",
          "name": "_tokenId",
          "type": "uint256"
        }
      ],
      "name": "CollateralCommitted",
      "type": "event"
    },
    {
      "anonymous": false,
      "inputs": [
        {
          "indexed": false,
          "internalType": "uint256",
          "name": "_bidId",
          "type": "uint256"
        },
        {
          "indexed": false,
          "internalType": "enum CollateralType",
          "name": "_type",
          "type": "uint8"
        },
        {
          "indexed": false,
          "internalType": "address",
          "name": "_collateralAddress",
          "type": "address"
        },
        {
          "indexed": false,
          "internalType": "uint256",
          "name": "_amount",
          "type": "uint256"
        },
        {
          "indexed": false,
          "internalType": "uint256",
          "name": "_tokenId",
          "type": "uint256"
        }
      ],
      "name": "CollateralDeposited",
      "type": "event"
    },
    {
      "anonymous": false,
      "inputs": [
        {
          "indexed": false,
          "internalType": "uint256",
          "name": "_bidId",
          "type": "uint256"
        },
        {
          "indexed": false,
          "internalType": "address",
          "name": "_collateralEscrow",
          "type": "address"
        }
      ],
      "name": "CollateralEscrowDeployed",
      "type": "event"
    },
    {
      "anonymous": false,
      "inputs": [
        {
          "indexed": false,
          "internalType": "uint256",
          "name": "_bidId",
          "type": "uint256"
        },
        {
          "indexed": false,
          "internalType": "enum CollateralType",
          "name": "_type",
          "type": "uint8"
        },
        {
          "indexed": false,
          "internalType": "address",
          "name": "_collateralAddress",
          "type": "address"
        },
        {
          "indexed": false,
          "internalType": "uint256",
          "name": "_amount",
          "type": "uint256"
        },
        {
          "indexed": false,
          "internalType": "uint256",
          "name": "_tokenId",
          "type": "uint256"
        },
        {
          "indexed": false,
          "internalType": "address",
          "name": "_recipient",
          "type": "address"
        }
      ],
      "name": "CollateralWithdrawn",
      "type": "event"
    },
    {
      "anonymous": false,
      "inputs": [
        {
          "indexed": false,
          "internalType": "uint8",
          "name": "version",
          "type": "uint8"
        }
      ],
      "name": "Initialized",
      "type": "event"
    },
    {
      "anonymous": false,
      "inputs": [
        {
          "indexed": true,
          "internalType": "address",
          "name": "previousOwner",
          "type": "address"
        },
        {
          "indexed": true,
          "internalType": "address",
          "name": "newOwner",
          "type": "address"
        }
      ],
      "name": "OwnershipTransferred",
      "type": "event"
    },
    {
      "inputs": [
        {
          "internalType": "uint256",
          "name": "_bidId",
          "type": "uint256"
        },
        {
          "components": [
            {
              "internalType": "enum CollateralType",
              "name": "_collateralType",
              "type": "uint8"
            },
            {
              "internalType": "uint256",
              "name": "_amount",
              "type": "uint256"
            },
            {
              "internalType": "uint256",
              "name": "_tokenId",
              "type": "uint256"
            },
            {
              "internalType": "address",
              "name": "_collateralAddress",
              "type": "address"
            }
          ],
          "internalType": "struct Collateral",
          "name": "collateralInfo",
          "type": "tuple"
        }
      ],
      "name": "_deposit",
      "outputs": [],
      "stateMutability": "payable",
      "type": "function"
    },
    {
      "inputs": [
        {
          "internalType": "uint256",
          "name": "",
          "type": "uint256"
        }
      ],
      "name": "_escrows",
      "outputs": [
        {
          "internalType": "address",
          "name": "",
          "type": "address"
        }
      ],
      "stateMutability": "view",
      "type": "function"
    },
    {
      "inputs": [
        {
          "internalType": "address",
          "name": "_borrowerAddress",
          "type": "address"
        },
        {
          "components": [
            {
              "internalType": "enum CollateralType",
              "name": "_collateralType",
              "type": "uint8"
            },
            {
              "internalType": "uint256",
              "name": "_amount",
              "type": "uint256"
            },
            {
              "internalType": "uint256",
              "name": "_tokenId",
              "type": "uint256"
            },
            {
              "internalType": "address",
              "name": "_collateralAddress",
              "type": "address"
            }
          ],
          "internalType": "struct Collateral[]",
          "name": "_collateralInfo",
          "type": "tuple[]"
        }
      ],
      "name": "checkBalances",
      "outputs": [
        {
          "internalType": "bool",
          "name": "validated_",
          "type": "bool"
        },
        {
          "internalType": "bool[]",
          "name": "checks_",
          "type": "bool[]"
        }
      ],
      "stateMutability": "nonpayable",
      "type": "function"
    },
    {
      "inputs": [
        {
          "internalType": "uint256",
          "name": "_bidId",
          "type": "uint256"
        },
        {
          "components": [
            {
              "internalType": "enum CollateralType",
              "name": "_collateralType",
              "type": "uint8"
            },
            {
              "internalType": "uint256",
              "name": "_amount",
              "type": "uint256"
            },
            {
              "internalType": "uint256",
              "name": "_tokenId",
              "type": "uint256"
            },
            {
              "internalType": "address",
              "name": "_collateralAddress",
              "type": "address"
            }
          ],
          "internalType": "struct Collateral[]",
          "name": "_collateralInfo",
          "type": "tuple[]"
        }
      ],
      "name": "commitCollateral",
      "outputs": [
        {
          "internalType": "bool",
          "name": "validation_",
          "type": "bool"
        }
      ],
      "stateMutability": "nonpayable",
      "type": "function"
    },
    {
      "inputs": [
        {
          "internalType": "uint256",
          "name": "_bidId",
          "type": "uint256"
        },
        {
          "components": [
            {
              "internalType": "enum CollateralType",
              "name": "_collateralType",
              "type": "uint8"
            },
            {
              "internalType": "uint256",
              "name": "_amount",
              "type": "uint256"
            },
            {
              "internalType": "uint256",
              "name": "_tokenId",
              "type": "uint256"
            },
            {
              "internalType": "address",
              "name": "_collateralAddress",
              "type": "address"
            }
          ],
          "internalType": "struct Collateral",
          "name": "_collateralInfo",
          "type": "tuple"
        }
      ],
      "name": "commitCollateral",
      "outputs": [
        {
          "internalType": "bool",
          "name": "validation_",
          "type": "bool"
        }
      ],
      "stateMutability": "nonpayable",
      "type": "function"
    },
    {
      "inputs": [
        {
          "internalType": "uint256",
          "name": "_bidId",
          "type": "uint256"
        }
      ],
      "name": "deployAndDeposit",
      "outputs": [],
      "stateMutability": "nonpayable",
      "type": "function"
    },
    {
      "inputs": [
        {
          "internalType": "uint256",
          "name": "_bidId",
          "type": "uint256"
        }
      ],
      "name": "getCollateralInfo",
      "outputs": [
        {
          "components": [
            {
              "internalType": "enum CollateralType",
              "name": "_collateralType",
              "type": "uint8"
            },
            {
              "internalType": "uint256",
              "name": "_amount",
              "type": "uint256"
            },
            {
              "internalType": "uint256",
              "name": "_tokenId",
              "type": "uint256"
            },
            {
              "internalType": "address",
              "name": "_collateralAddress",
              "type": "address"
            }
          ],
          "internalType": "struct Collateral[]",
          "name": "infos_",
          "type": "tuple[]"
        }
      ],
      "stateMutability": "view",
      "type": "function"
    },
    {
      "inputs": [
        {
          "internalType": "uint256",
          "name": "_bidId",
          "type": "uint256"
        }
      ],
      "name": "getEscrow",
      "outputs": [
        {
          "internalType": "address",
          "name": "",
          "type": "address"
        }
      ],
      "stateMutability": "view",
      "type": "function"
    },
    {
      "inputs": [
        {
          "internalType": "address",
          "name": "_collateralEscrowBeacon",
          "type": "address"
        },
        {
          "internalType": "address",
          "name": "_tellerV2",
          "type": "address"
        }
      ],
      "name": "initialize",
      "outputs": [],
      "stateMutability": "nonpayable",
      "type": "function"
    },
    {
      "inputs": [
        {
          "internalType": "uint256",
          "name": "_bidId",
          "type": "uint256"
        }
      ],
      "name": "isBidCollateralBacked",
      "outputs": [
        {
          "internalType": "bool",
          "name": "",
          "type": "bool"
        }
      ],
      "stateMutability": "nonpayable",
      "type": "function"
    },
    {
      "inputs": [
        {
          "internalType": "uint256",
          "name": "_bidId",
          "type": "uint256"
        },
        {
          "internalType": "address",
          "name": "_liquidatorAddress",
          "type": "address"
        }
      ],
      "name": "liquidateCollateral",
      "outputs": [],
      "stateMutability": "nonpayable",
      "type": "function"
    },
    {
      "inputs": [
        {
          "internalType": "address",
          "name": "",
          "type": "address"
        },
        {
          "internalType": "address",
          "name": "",
          "type": "address"
        },
        {
          "internalType": "uint256[]",
          "name": "_ids",
          "type": "uint256[]"
        },
        {
          "internalType": "uint256[]",
          "name": "_values",
          "type": "uint256[]"
        },
        {
          "internalType": "bytes",
          "name": "",
          "type": "bytes"
        }
      ],
      "name": "onERC1155BatchReceived",
      "outputs": [
        {
          "internalType": "bytes4",
          "name": "",
          "type": "bytes4"
        }
      ],
      "stateMutability": "nonpayable",
      "type": "function"
    },
    {
      "inputs": [
        {
          "internalType": "address",
          "name": "",
          "type": "address"
        },
        {
          "internalType": "address",
          "name": "",
          "type": "address"
        },
        {
          "internalType": "uint256",
          "name": "id",
          "type": "uint256"
        },
        {
          "internalType": "uint256",
          "name": "value",
          "type": "uint256"
        },
        {
          "internalType": "bytes",
          "name": "",
          "type": "bytes"
        }
      ],
      "name": "onERC1155Received",
      "outputs": [
        {
          "internalType": "bytes4",
          "name": "",
          "type": "bytes4"
        }
      ],
      "stateMutability": "nonpayable",
      "type": "function"
    },
    {
      "inputs": [
        {
          "internalType": "address",
          "name": "",
          "type": "address"
        },
        {
          "internalType": "address",
          "name": "",
          "type": "address"
        },
        {
          "internalType": "uint256",
          "name": "",
          "type": "uint256"
        },
        {
          "internalType": "bytes",
          "name": "",
          "type": "bytes"
        }
      ],
      "name": "onERC721Received",
      "outputs": [
        {
          "internalType": "bytes4",
          "name": "",
          "type": "bytes4"
        }
      ],
      "stateMutability": "pure",
      "type": "function"
    },
    {
      "inputs": [],
      "name": "owner",
      "outputs": [
        {
          "internalType": "address",
          "name": "",
          "type": "address"
        }
      ],
      "stateMutability": "view",
      "type": "function"
    },
    {
      "inputs": [],
      "name": "renounceOwnership",
      "outputs": [],
      "stateMutability": "nonpayable",
      "type": "function"
    },
    {
      "inputs": [
        {
          "internalType": "uint256",
          "name": "_bidId",
          "type": "uint256"
        }
      ],
      "name": "revalidateCollateral",
      "outputs": [
        {
          "internalType": "bool",
          "name": "validation_",
          "type": "bool"
        }
      ],
      "stateMutability": "nonpayable",
      "type": "function"
    },
    {
      "inputs": [
        {
          "internalType": "address",
          "name": "_collateralEscrowBeacon",
          "type": "address"
        }
      ],
      "name": "setCollateralEscrowBeacon",
      "outputs": [],
      "stateMutability": "nonpayable",
      "type": "function"
    },
    {
      "inputs": [],
      "name": "tellerV2",
      "outputs": [
        {
          "internalType": "contract ITellerV2",
          "name": "",
          "type": "address"
        }
      ],
      "stateMutability": "view",
      "type": "function"
    },
    {
      "inputs": [
        {
          "internalType": "address",
          "name": "newOwner",
          "type": "address"
        }
      ],
      "name": "transferOwnership",
      "outputs": [],
      "stateMutability": "nonpayable",
      "type": "function"
    },
    {
      "inputs": [
        {
          "internalType": "uint256",
          "name": "_bidId",
          "type": "uint256"
        }
      ],
      "name": "withdraw",
      "outputs": [],
      "stateMutability": "nonpayable",
      "type": "function"
    }
  ],
  "bytecode": {
    "object": "0x608060405234801561001057600080fd5b50613160806100206000396000f3fe608060405260043610620001425760003560e01c8063857919de11620000b9578063bc197c811162000078578063bc197c811462000404578063d6c20fa81462000429578063e4ad84b4146200045e578063f0472c491462000475578063f23a6e61146200049a578063f2fde38b14620004e457600080fd5b8063857919de14620003445780638da5cb5b14620003695780638de161161462000389578063934b5d1314620003ae578063941675db14620003e257600080fd5b8063485cc9551162000106578063485cc95514620002835780635289fe9314620002a8578063715018a614620002cd5780637d19e59614620002e5578063853c488d146200031f57600080fd5b806294f1e91462000147578063150b7a02146200019e5780631532dc451462000201578063251befba14620002375780632e1a7d4d146200025c575b600080fd5b3480156200015457600080fd5b50620001816200016636600462001fa1565b6067602052600090815260409020546001600160a01b031681565b6040516001600160a01b0390911681526020015b60405180910390f35b348015620001ab57600080fd5b50620001e7620001bd3660046200201d565b7f150b7a023d4804d13e8c85fb27262cb750cf6ba9f9dd3bb30d90f482ceeb4b1f95945050505050565b6040516001600160e01b0319909116815260200162000195565b3480156200020e57600080fd5b506200022662000220366004620020e0565b62000509565b604051901515815260200162000195565b3480156200024457600080fd5b50620002266200025636600462001fa1565b62000600565b3480156200026957600080fd5b50620002816200027b36600462001fa1565b62000622565b005b3480156200029057600080fd5b5062000281620002a236600462002130565b62000868565b348015620002b557600080fd5b5062000281620002c73660046200216e565b6200096f565b348015620002da57600080fd5b506200028162000a20565b348015620002f257600080fd5b50620001816200030436600462001fa1565b6000908152606760205260409020546001600160a01b031690565b3480156200032c57600080fd5b50620002266200033e3660046200218e565b62000a38565b3480156200035157600080fd5b50620002266200036336600462001fa1565b62000af7565b3480156200037657600080fd5b506033546001600160a01b031662000181565b3480156200039657600080fd5b5062000281620003a836600462001fa1565b62000b94565b348015620003bb57600080fd5b50620003d3620003cd36600462001fa1565b62000d5f565b60405162000195919062002201565b348015620003ef57600080fd5b5060655462000181906001600160a01b031681565b3480156200041157600080fd5b50620001e762000423366004620022c1565b62000ee1565b3480156200043657600080fd5b506200044e620004483660046200238e565b62000f82565b60405162000195929190620023ce565b620002816200046f366004620024c8565b62000ff7565b3480156200048257600080fd5b506200028162000494366004620024f8565b6200151e565b348015620004a757600080fd5b50620001e7620004b936600462002520565b7ff23a6e612e1ff4830e658fe43f4e3cb4a5f8170bd5d9e69fb5d7a7fa9e4fdf979695505050505050565b348015620004f157600080fd5b5062000281620005033660046200216e565b62001671565b606554604051633ef0a2f760e01b81526004810185905260009182916001600160a01b0390911690633ef0a2f790602401602060405180830381865afa15801562000558573d6000803e3d6000fd5b505050506040513d601f19601f820116820180604052508101906200057e9190620025a4565b90506200058d81858562000f82565b5091508115620005f85760005b83811015620005f6576000858583818110620005ba57620005ba620025c4565b905060800201803603810190620005d29190620025da565b9050620005e08782620016ed565b5080620005ed81620025f9565b9150506200059a565b505b509392505050565b600081815260686020526040812081906200061b90620017d8565b1192915050565b606554604051635fbbffd760e11b8152600481018390526000916001600160a01b03169063bf77ffae90602401602060405180830381865afa1580156200066d573d6000803e3d6000fd5b505050506040513d601f19601f8201168201806040525081019062000693919062002621565b90506004816005811115620006ac57620006ac620021c8565b036200073457606554604051633ef0a2f760e01b815260048101849052620007309184916001600160a01b0390911690633ef0a2f7906024015b602060405180830381865afa15801562000704573d6000803e3d6000fd5b505050506040513d601f19601f820116820180604052508101906200072a9190620025a4565b620017e9565b5050565b60655460405163e8cbab0960e01b8152600481018490526001600160a01b039091169063e8cbab0990602401602060405180830381865afa1580156200077e573d6000803e3d6000fd5b505050506040513d601f19601f82011682018060405250810190620007a4919062002644565b156200081b5760655460405163508482f560e11b815260048101849052620007e39184916001600160a01b039091169063a10905ea90602401620006e6565b6040518281527fd951b721f993d3959dc31ba5a751da7974aa23a2c46f52fc71c9ba9d1675b8e4906020015b60405180910390a15050565b60405162461bcd60e51b815260206004820152601e60248201527f636f6c6c61746572616c2063616e6e6f742062652077697468647261776e000060448201526064015b60405180910390fd5b600054610100900460ff1615808015620008895750600054600160ff909116105b80620008a55750303b158015620008a5575060005460ff166001145b620008c45760405162461bcd60e51b81526004016200085f9062002668565b6000805460ff191660011790558015620008e8576000805461ff0019166101001790555b606680546001600160a01b038086166001600160a01b03199283161790925560658054928516929091169190911790556200092262001940565b80156200096a576000805461ff0019169055604051600181527f7f26b83ff96e1f2b6a682f133852f6798a09c465da95921460cefb3847402498906020015b60405180910390a15b505050565b600054600290610100900460ff1615801562000992575060005460ff8083169116105b620009b15760405162461bcd60e51b81526004016200085f9062002668565b60008054606680546001600160a01b0319166001600160a01b03861617905561ff001961010060ff851661ffff19909316831717169091556040519081527f7f26b83ff96e1f2b6a682f133852f6798a09c465da95921460cefb38474024989060200160405180910390a15050565b62000a2a620019b8565b62000a36600062001a14565b565b606554604051633ef0a2f760e01b81526004810184905260009182916001600160a01b0390911690633ef0a2f790602401602060405180830381865afa15801562000a87573d6000803e3d6000fd5b505050506040513d601f19601f8201168201806040525081019062000aad9190620025a4565b905062000acb8162000ac536869003860186620025da565b62001a66565b9150811562000af05762000af08462000aea36869003860186620025da565b620016ed565b5092915050565b60008062000b058362000d5f565b606554604051633ef0a2f760e01b8152600481018690529192506000916001600160a01b0390911690633ef0a2f790602401602060405180830381865afa15801562000b55573d6000803e3d6000fd5b505050506040513d601f19601f8201168201806040525081019062000b7b9190620025a4565b905062000b8b8183600162001c26565b50949350505050565b6065546001600160a01b0316336001600160a01b03161462000bf15760405162461bcd60e51b815260206004820152601560248201527414d95b99195c881b9bdd08185d5d1a1bdc9a5e9959605a1b60448201526064016200085f565b62000bfc8162000600565b1562000d5c57600062000c0f8262001d0f565b50600083815260676020526040812080546001600160a01b0319166001600160a01b0384161790559091505b600083815260686020526040902062000c5490620017d8565b81101562000d1c57600083815260686020526040812062000d0791859160028101919062000c83908662001e7b565b6001600160a01b03168152602081019190915260409081016000208151608081019092528054829060ff16600281111562000cc25762000cc2620021c8565b600281111562000cd65762000cd6620021c8565b815260018201546020820152600282015460408201526003909101546001600160a01b031660609091015262000ff7565b8062000d1381620025f9565b91505062000c3b565b50604080518381526001600160a01b03831660208201527fc201bfb915e3eed80ff17e013f3d88db1c51ac7fc12728fce91a2afc659128ef91016200080f565b50565b600081815260686020526040812060609162000d7b8262001e90565b9050805167ffffffffffffffff81111562000d9a5762000d9a62002422565b60405190808252806020026020018201604052801562000dee57816020015b60408051608081018252600080825260208083018290529282018190526060820152825260001990920191018162000db95790505b50925060005b815181101562000ed95782600201600083838151811062000e195762000e19620025c4565b6020908102919091018101516001600160a01b0316825281019190915260409081016000208151608081019092528054829060ff16600281111562000e625762000e62620021c8565b600281111562000e765762000e76620021c8565b815260018201546020820152600282015460408201526003909101546001600160a01b0316606090910152845185908390811062000eb85762000eb8620025c4565b6020026020010181905250808062000ed090620025f9565b91505062000df4565b505050919050565b60006001861462000f545760405162461bcd60e51b815260206004820152603660248201527f4f6e6c7920616c6c6f776564206f6e65206173736574206261746368207472616044820152753739b332b9103832b9103a3930b739b0b1ba34b7b71760511b60648201526084016200085f565b507fbc197c819b3e337a6f9652dd10becd7eef83032af3b9d958d3d42f669414662198975050505050505050565b6000606062000fea858585808060200260200160405190810160405280939291908181526020016000905b8282101562000fdd5762000fcd60808302860136819003810190620025da565b8152602001906001019062000fad565b5050505050600062001c26565b915091505b935093915050565b60008160200151116200104d5760405162461bcd60e51b815260206004820152601860248201527f436f6c6c61746572616c206e6f742076616c696461746564000000000000000060448201526064016200085f565b6000806200105b8462001d0f565b909250905081600084516002811115620010795762001079620021c8565b036200120c57606084015160208501516040516323b872dd60e01b81526001600160a01b03858116600483015230602483015260448201929092529116906323b872dd906064016020604051808303816000875af1158015620010e0573d6000803e3d6000fd5b505050506040513d601f19601f8201168201806040525081019062001106919062002644565b506060840151602085015160405163095ea7b360e01b81526001600160a01b038681166004830152602482019290925291169063095ea7b3906044016020604051808303816000875af115801562001162573d6000803e3d6000fd5b505050506040513d601f19601f8201168201806040525081019062001188919062002644565b50606084015160208501516040516319c5aef560e11b81526001600160a01b0384169263338b5dea92620011d2926004016001600160a01b03929092168252602082015260400190565b600060405180830381600087803b158015620011ed57600080fd5b505af115801562001202573d6000803e3d6000fd5b50505050620014c6565b600184516002811115620012245762001224620021c8565b036200134f57606084015160408086015190516323b872dd60e01b81526001600160a01b03858116600483015230602483015260448201929092529116906323b872dd90606401600060405180830381600087803b1580156200128657600080fd5b505af11580156200129b573d6000803e3d6000fd5b5050506060850151604080870151905163095ea7b360e01b81526001600160a01b03878116600483015260248201929092529116915063095ea7b390604401600060405180830381600087803b158015620012f557600080fd5b505af11580156200130a573d6000803e3d6000fd5b50505050806001600160a01b031663f20c929660018660600151876020015188604001516040518563ffffffff1660e01b8152600401620011d29493929190620026b6565b600284516002811115620013675762001367620021c8565b03620014c657606084606001516001600160a01b031663f242432a843088604001518960200151866040518663ffffffff1660e01b8152600401620013b195949392919062002732565b600060405180830381600087803b158015620013cc57600080fd5b505af1158015620013e1573d6000803e3d6000fd5b505050606086015160405163a22cb46560e01b81526001600160a01b03878116600483015260016024830152909116915063a22cb46590604401600060405180830381600087803b1580156200143657600080fd5b505af11580156200144b573d6000803e3d6000fd5b50505050816001600160a01b031663f20c929660028760600151886020015189604001516040518563ffffffff1660e01b8152600401620014909493929190620026b6565b600060405180830381600087803b158015620014ab57600080fd5b505af1158015620014c0573d6000803e3d6000fd5b50505050505b7f1a7f128dbc559fb97831b7681dee32957c2917e95d1c5070da20fb89e91f9d7a8585600001518660600151876020015188604001516040516200150f95949392919062002779565b60405180910390a15050505050565b6065546001600160a01b0316336001600160a01b0316146200157b5760405162461bcd60e51b815260206004820152601560248201527414d95b99195c881b9bdd08185d5d1a1bdc9a5e9959605a1b60448201526064016200085f565b620015868262000600565b156200073057606554604051635fbbffd760e11b8152600481018490526000916001600160a01b03169063bf77ffae90602401602060405180830381865afa158015620015d7573d6000803e3d6000fd5b505050506040513d601f19601f82011682018060405250810190620015fd919062002621565b90506005816005811115620016165762001616620021c8565b14620016655760405162461bcd60e51b815260206004820152601c60248201527f4c6f616e20686173206e6f74206265656e206c6971756964617465640000000060448201526064016200085f565b6200096a8383620017e9565b6200167b620019b8565b6001600160a01b038116620016e25760405162461bcd60e51b815260206004820152602660248201527f4f776e61626c653a206e6577206f776e657220697320746865207a65726f206160448201526564647265737360d01b60648201526084016200085f565b62000d5c8162001a14565b600082815260686020526040902060608201516200170d90829062001e9f565b5060608201516001600160a01b0316600090815260028083016020526040909120835181548593839160ff1916906001908490811115620017525762001752620021c8565b021790555060208281015160018301556040808401516002840155606093840151600390930180546001600160a01b0319166001600160a01b0390941693909317909255845192850151908501518583015192517e31b4b6dbbe7e196215f0ee8d3bfca5460603ecaf2d16df68b990ceb382a11694620009619489949193919262002779565b6000620017e3825490565b92915050565b60005b60008381526068602052604090206200180590620017d8565b8110156200096a576000838152606860205260408120600281019082906200182e908562001e7b565b6001600160a01b03908116825260208083019390935260409182016000908120888252606790945282902054600384015460018501549351631a4ca37b60e21b815290831660048201526024810193909352868216604484015292935091909116906369328dec90606401600060405180830381600087803b158015620018b457600080fd5b505af1158015620018c9573d6000803e3d6000fd5b505082546003840154600185015460028601546040517f07bdd340c9eda3c1144c9d4d69713c05145dbdf05896acbd3e7d82766de138dd96506200192295508a9460ff16936001600160a01b03169291908a90620027b4565b60405180910390a150806200193781620025f9565b915050620017ec565b600054610100900460ff16620019ad5760405162461bcd60e51b815260206004820152602b60248201527f496e697469616c697a61626c653a20636f6e7472616374206973206e6f74206960448201526a6e697469616c697a696e6760a81b60648201526084016200085f565b62000a363362001a14565b6033546001600160a01b0316331462000a365760405162461bcd60e51b815260206004820181905260248201527f4f776e61626c653a2063616c6c6572206973206e6f7420746865206f776e657260448201526064016200085f565b603380546001600160a01b038381166001600160a01b0319831681179093556040519116919082907f8be0079c531659141344cd1fd0a4f28419497f9722a3daafe3b4186f6b6457e090600090a35050565b80516000908181600281111562001a815762001a81620021c8565b0362001b0b5760608301516040516370a0823160e01b81526001600160a01b038681166004830152909116906370a08231906024015b602060405180830381865afa15801562001ad5573d6000803e3d6000fd5b505050506040513d601f19601f8201168201806040525081019062001afb9190620027fc565b83602001511115915050620017e3565b600181600281111562001b225762001b22620021c8565b0362001bc05782606001516001600160a01b0316636352211e84604001516040518263ffffffff1660e01b815260040162001b5f91815260200190565b602060405180830381865afa15801562001b7d573d6000803e3d6000fd5b505050506040513d601f19601f8201168201806040525081019062001ba39190620025a4565b6001600160a01b0316846001600160a01b031614915050620017e3565b600281600281111562001bd75762001bd7620021c8565b0362001c1c5760608301516040808501519051627eeac760e11b81526001600160a01b038781166004830152602482019290925291169062fdd58e9060440162001ab7565b5060009392505050565b60006060835167ffffffffffffffff81111562001c475762001c4762002422565b60405190808252806020026020018201604052801562001c71578160200160208202803683370190505b5090506001915060005b845181101562001d0657600062001caf8787848151811062001ca15762001ca1620025c4565b602002602001015162001a66565b90508083838151811062001cc75762001cc7620025c4565b911515602092830291909101909101528062001cf05760009350841562001cf057505062000fef565b508062001cfd81620025f9565b91505062001c7b565b50935093915050565b600081815260676020526040808220546065549151633ef0a2f760e01b8152600481018590526001600160a01b0391821693929190911690633ef0a2f790602401602060405180830381865afa15801562001d6e573d6000803e3d6000fd5b505050506040513d601f19601f8201168201806040525081019062001d949190620025a4565b90506001600160a01b03821662001e76576001600160a01b03811662001df25760405162461bcd60e51b8152602060048201526012602482015271109a5908191bd95cc81b9bdd08195e1a5cdd60721b60448201526064016200085f565b60665460408051602480820187905282518083039091018152604490910182526020810180516001600160e01b031663fe4b84df60e01b17905290516000926001600160a01b0316919062001e479062001f93565b62001e5492919062002816565b604051809103906000f08015801562001e71573d6000803e3d6000fd5b509250505b915091565b600062001e89838362001eb6565b9392505050565b6060600062001e898362001ee3565b600062001e89836001600160a01b03841662001f41565b600082600001828154811062001ed05762001ed0620025c4565b9060005260206000200154905092915050565b60608160000180548060200260200160405190810160405280929190818152602001828054801562001f3557602002820191906000526020600020905b81548152602001906001019080831162001f20575b50505050509050919050565b600081815260018301602052604081205462001f8a57508154600181810184556000848152602080822090930184905584548482528286019093526040902091909155620017e3565b506000620017e3565b6108e6806200284583390190565b60006020828403121562001fb457600080fd5b5035919050565b6001600160a01b038116811462000d5c57600080fd5b60008083601f84011262001fe457600080fd5b50813567ffffffffffffffff81111562001ffd57600080fd5b6020830191508360208285010111156200201657600080fd5b9250929050565b6000806000806000608086880312156200203657600080fd5b8535620020438162001fbb565b94506020860135620020558162001fbb565b935060408601359250606086013567ffffffffffffffff8111156200207957600080fd5b620020878882890162001fd1565b969995985093965092949392505050565b60008083601f840112620020ab57600080fd5b50813567ffffffffffffffff811115620020c457600080fd5b6020830191508360208260071b85010111156200201657600080fd5b600080600060408486031215620020f657600080fd5b83359250602084013567ffffffffffffffff8111156200211557600080fd5b620021238682870162002098565b9497909650939450505050565b600080604083850312156200214457600080fd5b8235620021518162001fbb565b91506020830135620021638162001fbb565b809150509250929050565b6000602082840312156200218157600080fd5b813562001e898162001fbb565b60008082840360a0811215620021a357600080fd5b833592506080601f1982011215620021ba57600080fd5b506020830190509250929050565b634e487b7160e01b600052602160045260246000fd5b60038110620021fd57634e487b7160e01b600052602160045260246000fd5b9052565b602080825282518282018190526000919060409081850190868401855b828110156200226c57815162002236858251620021de565b808701518588015285810151868601526060908101516001600160a01b031690850152608090930192908501906001016200221e565b5091979650505050505050565b60008083601f8401126200228c57600080fd5b50813567ffffffffffffffff811115620022a557600080fd5b6020830191508360208260051b85010111156200201657600080fd5b60008060008060008060008060a0898b031215620022de57600080fd5b8835620022eb8162001fbb565b97506020890135620022fd8162001fbb565b9650604089013567ffffffffffffffff808211156200231b57600080fd5b620023298c838d0162002279565b909850965060608b01359150808211156200234357600080fd5b620023518c838d0162002279565b909650945060808b01359150808211156200236b57600080fd5b506200237a8b828c0162001fd1565b999c989b5096995094979396929594505050565b600080600060408486031215620023a457600080fd5b8335620023b18162001fbb565b9250602084013567ffffffffffffffff8111156200211557600080fd5b60006040820184151583526020604081850152818551808452606086019150828701935060005b8181101562002415578451151583529383019391830191600101620023f5565b5090979650505050505050565b634e487b7160e01b600052604160045260246000fd5b6000608082840312156200244b57600080fd5b6040516080810181811067ffffffffffffffff821117156200247d57634e487b7160e01b600052604160045260246000fd5b6040529050808235600381106200249357600080fd5b8082525060208301356020820152604083013560408201526060830135620024bb8162001fbb565b6060919091015292915050565b60008060a08385031215620024dc57600080fd5b82359150620024ef846020850162002438565b90509250929050565b600080604083850312156200250c57600080fd5b823591506020830135620021638162001fbb565b60008060008060008060a087890312156200253a57600080fd5b8635620025478162001fbb565b95506020870135620025598162001fbb565b94506040870135935060608701359250608087013567ffffffffffffffff8111156200258457600080fd5b6200259289828a0162001fd1565b979a9699509497509295939492505050565b600060208284031215620025b757600080fd5b815162001e898162001fbb565b634e487b7160e01b600052603260045260246000fd5b600060808284031215620025ed57600080fd5b62001e89838362002438565b6000600182016200261a57634e487b7160e01b600052601160045260246000fd5b5060010190565b6000602082840312156200263457600080fd5b81516006811062001e8957600080fd5b6000602082840312156200265757600080fd5b8151801515811462001e8957600080fd5b6020808252602e908201527f496e697469616c697a61626c653a20636f6e747261637420697320616c72656160408201526d191e481a5b9a5d1a585b1a5e995960921b606082015260800190565b60808101620026c68287620021de565b6001600160a01b039490941660208201526040810192909252606090910152919050565b6000815180845260005b818110156200271257602081850181015186830182015201620026f4565b506000602082860101526020601f19601f83011685010191505092915050565b6001600160a01b03868116825285166020820152604081018490526060810183905260a0608082018190526000906200276e90830184620026ea565b979650505050505050565b85815260a081016200278f6020830187620021de565b6001600160a01b03949094166040820152606081019290925260809091015292915050565b86815260c08101620027ca6020830188620021de565b6001600160a01b0395861660408301526060820194909452608081019290925290921660a09092019190915292915050565b6000602082840312156200280f57600080fd5b5051919050565b6001600160a01b03831681526040602082018190526000906200283c90830184620026ea565b94935050505056fe60806040526040516108e63803806108e68339810160408190526100229161044e565b61002e82826000610035565b5050610578565b61003e83610100565b6040516001600160a01b038416907f1cf3b03a6cf19fa2baba4df148e9dcabedea7f8a5c07840e207e5c089be95d3e90600090a260008251118061007f5750805b156100fb576100f9836001600160a01b0316635c60da1b6040518163ffffffff1660e01b8152600401602060405180830381865afa1580156100c5573d6000803e3d6000fd5b505050506040513d601f19601f820116820180604052508101906100e9919061050e565b836102a360201b6100291760201c565b505b505050565b610113816102cf60201b6100551760201c565b6101725760405162461bcd60e51b815260206004820152602560248201527f455243313936373a206e657720626561636f6e206973206e6f74206120636f6e6044820152641d1c9858dd60da1b60648201526084015b60405180910390fd5b6101e6816001600160a01b0316635c60da1b6040518163ffffffff1660e01b8152600401602060405180830381865afa1580156101b3573d6000803e3d6000fd5b505050506040513d601f19601f820116820180604052508101906101d7919061050e565b6102cf60201b6100551760201c565b61024b5760405162461bcd60e51b815260206004820152603060248201527f455243313936373a20626561636f6e20696d706c656d656e746174696f6e206960448201526f1cc81b9bdd08184818dbdb9d1c9858dd60821b6064820152608401610169565b806102827fa3f0ad74e5423aebfd80d3ef4346578335a9a72aeaee59ff6cb3582b35133d5060001b6102de60201b6100641760201c565b80546001600160a01b0319166001600160a01b039290921691909117905550565b60606102c883836040518060600160405280602781526020016108bf602791396102e1565b9392505050565b6001600160a01b03163b151590565b90565b60606001600160a01b0384163b6103495760405162461bcd60e51b815260206004820152602660248201527f416464726573733a2064656c65676174652063616c6c20746f206e6f6e2d636f6044820152651b9d1c9858dd60d21b6064820152608401610169565b600080856001600160a01b0316856040516103649190610529565b600060405180830381855af49150503d806000811461039f576040519150601f19603f3d011682016040523d82523d6000602084013e6103a4565b606091505b5090925090506103b58282866103bf565b9695505050505050565b606083156103ce5750816102c8565b8251156103de5782518084602001fd5b8160405162461bcd60e51b81526004016101699190610545565b80516001600160a01b038116811461040f57600080fd5b919050565b634e487b7160e01b600052604160045260246000fd5b60005b8381101561044557818101518382015260200161042d565b50506000910152565b6000806040838503121561046157600080fd5b61046a836103f8565b60208401519092506001600160401b038082111561048757600080fd5b818501915085601f83011261049b57600080fd5b8151818111156104ad576104ad610414565b604051601f8201601f19908116603f011681019083821181831017156104d5576104d5610414565b816040528281528860208487010111156104ee57600080fd5b6104ff83602083016020880161042a565b80955050505050509250929050565b60006020828403121561052057600080fd5b6102c8826103f8565b6000825161053b81846020870161042a565b9190910192915050565b602081526000825180602084015261056481604085016020870161042a565b601f01601f19169190910160400192915050565b610338806105876000396000f3fe60806040523661001357610011610017565b005b6100115b610027610022610067565b610100565b565b606061004e83836040518060600160405280602781526020016102dc60279139610124565b9392505050565b6001600160a01b03163b151590565b90565b600061009a7fa3f0ad74e5423aebfd80d3ef4346578335a9a72aeaee59ff6cb3582b35133d50546001600160a01b031690565b6001600160a01b0316635c60da1b6040518163ffffffff1660e01b8152600401602060405180830381865afa1580156100d7573d6000803e3d6000fd5b505050506040513d601f19601f820116820180604052508101906100fb919061023f565b905090565b3660008037600080366000845af43d6000803e80801561011f573d6000f35b3d6000fd5b60606001600160a01b0384163b6101915760405162461bcd60e51b815260206004820152602660248201527f416464726573733a2064656c65676174652063616c6c20746f206e6f6e2d636f6044820152651b9d1c9858dd60d21b60648201526084015b60405180910390fd5b600080856001600160a01b0316856040516101ac919061028c565b600060405180830381855af49150503d80600081146101e7576040519150601f19603f3d011682016040523d82523d6000602084013e6101ec565b606091505b50915091506101fc828286610206565b9695505050505050565b6060831561021557508161004e565b8251156102255782518084602001fd5b8160405162461bcd60e51b815260040161018891906102a8565b60006020828403121561025157600080fd5b81516001600160a01b038116811461004e57600080fd5b60005b8381101561028357818101518382015260200161026b565b50506000910152565b6000825161029e818460208701610268565b9190910192915050565b60208152600082518060208401526102c7816040850160208701610268565b601f01601f1916919091016040019291505056fe416464726573733a206c6f772d6c6576656c2064656c65676174652063616c6c206661696c6564a2646970667358221220e8041ef58dc8a8db12f2936072dd1d274c79f2ac3be7f571ee9badb18d5f877a64736f6c63430008110033416464726573733a206c6f772d6c6576656c2064656c65676174652063616c6c206661696c6564a2646970667358221220d1930556627d6903c828fa9d0933e15f9d135e5cc20ccc2b536f6e7318bca66a64736f6c63430008110033",
    "linkReferences": {}
  },
  "methodIdentifiers": {
    "_deposit(uint256,(uint8,uint256,uint256,address))": "e4ad84b4",
    "_escrows(uint256)": "0094f1e9",
    "checkBalances(address,(uint8,uint256,uint256,address)[])": "d6c20fa8",
    "commitCollateral(uint256,(uint8,uint256,uint256,address))": "853c488d",
    "commitCollateral(uint256,(uint8,uint256,uint256,address)[])": "1532dc45",
    "deployAndDeposit(uint256)": "8de16116",
    "getCollateralInfo(uint256)": "934b5d13",
    "getEscrow(uint256)": "7d19e596",
    "initialize(address,address)": "485cc955",
    "isBidCollateralBacked(uint256)": "251befba",
    "liquidateCollateral(uint256,address)": "f0472c49",
    "onERC1155BatchReceived(address,address,uint256[],uint256[],bytes)": "bc197c81",
    "onERC1155Received(address,address,uint256,uint256,bytes)": "f23a6e61",
    "onERC721Received(address,address,uint256,bytes)": "150b7a02",
    "owner()": "8da5cb5b",
    "renounceOwnership()": "715018a6",
    "revalidateCollateral(uint256)": "857919de",
    "setCollateralEscrowBeacon(address)": "5289fe93",
    "tellerV2()": "941675db",
    "transferOwnership(address)": "f2fde38b",
    "withdraw(uint256)": "2e1a7d4d"
  },
  "id": 0
}