{
  "abi": [
    {
      "inputs": [
        {
          "internalType": "contract TellerV2",
          "name": "_tellerV2",
          "type": "address"
        },
        {
          "internalType": "contract WethMock",
          "name": "_wethMock",
          "type": "address"
        }
      ],
      "stateMutability": "nonpayable",
      "type": "constructor"
    },
    {
      "inputs": [
        {
          "internalType": "uint256",
          "name": "_bidId",
          "type": "uint256"
        }
      ],
      "name": "acceptBid",
      "outputs": [],
      "stateMutability": "nonpayable",
      "type": "function"
    },
    {
      "inputs": [
        {
          "internalType": "address",
          "name": "_assetContractAddress",
          "type": "address"
        },
        {
          "internalType": "address",
          "name": "_spender",
          "type": "address"
        },
        {
          "internalType": "uint256",
          "name": "_amount",
          "type": "uint256"
        }
      ],
      "name": "addAllowance",
      "outputs": [],
      "stateMutability": "nonpayable",
      "type": "function"
    },
    {
      "inputs": [
        {
          "internalType": "address",
          "name": "marketRegistry",
          "type": "address"
        },
        {
          "internalType": "uint32",
          "name": "_paymentCycleDuration",
          "type": "uint32"
        },
        {
          "internalType": "uint32",
          "name": "_paymentDefaultDuration",
          "type": "uint32"
        },
        {
          "internalType": "uint32",
          "name": "_bidExpirationTime",
          "type": "uint32"
        },
        {
          "internalType": "uint16",
          "name": "_feePercent",
          "type": "uint16"
        },
        {
          "internalType": "bool",
          "name": "_requireLenderAttestation",
          "type": "bool"
        },
        {
          "internalType": "bool",
          "name": "_requireBorrowerAttestation",
          "type": "bool"
        },
        {
          "internalType": "enum PaymentType",
          "name": "_paymentType",
          "type": "uint8"
        },
        {
          "internalType": "string",
          "name": "_uri",
          "type": "string"
        }
      ],
      "name": "createMarket",
      "outputs": [
        {
          "internalType": "uint256",
          "name": "",
          "type": "uint256"
        }
      ],
      "stateMutability": "nonpayable",
      "type": "function"
    },
    {
      "inputs": [
        {
          "internalType": "uint256",
          "name": "amount",
          "type": "uint256"
        }
      ],
      "name": "depositToWeth",
      "outputs": [],
      "stateMutability": "nonpayable",
      "type": "function"
    },
    {
      "inputs": [
        {
          "internalType": "uint256",
          "name": "_bidId",
          "type": "uint256"
        }
      ],
      "name": "repayLoanFull",
      "outputs": [],
      "stateMutability": "nonpayable",
      "type": "function"
    },
    {
      "inputs": [
        {
          "internalType": "address",
          "name": "_lendingToken",
          "type": "address"
        },
        {
          "internalType": "uint256",
          "name": "_marketplaceId",
          "type": "uint256"
        },
        {
          "internalType": "uint256",
          "name": "_principal",
          "type": "uint256"
        },
        {
          "internalType": "uint32",
          "name": "_duration",
          "type": "uint32"
        },
        {
          "internalType": "uint16",
          "name": "_APR",
          "type": "uint16"
        },
        {
          "internalType": "string",
          "name": "_metadataURI",
          "type": "string"
        },
        {
          "internalType": "address",
          "name": "_receiver",
          "type": "address"
        }
      ],
      "name": "submitBid",
      "outputs": [
        {
          "internalType": "uint256",
          "name": "",
          "type": "uint256"
        }
      ],
      "stateMutability": "nonpayable",
      "type": "function"
    },
    {
      "inputs": [
        {
          "internalType": "address",
          "name": "_lendingToken",
          "type": "address"
        },
        {
          "internalType": "uint256",
          "name": "_marketplaceId",
          "type": "uint256"
        },
        {
          "internalType": "uint256",
          "name": "_principal",
          "type": "uint256"
        },
        {
          "internalType": "uint32",
          "name": "_duration",
          "type": "uint32"
        },
        {
          "internalType": "uint16",
          "name": "_APR",
          "type": "uint16"
        },
        {
          "internalType": "string",
          "name": "_metadataURI",
          "type": "string"
        },
        {
          "internalType": "address",
          "name": "_receiver",
          "type": "address"
        },
        {
          "components": [
            {
              "internalType": "enum CollateralType",
              "name": "_collateralType",
              "type": "uint8"
            },
            {
              "internalType": "uint256",
              "name": "_amount",
              "type": "uint256"
            },
            {
              "internalType": "uint256",
              "name": "_tokenId",
              "type": "uint256"
            },
            {
              "internalType": "address",
              "name": "_collateralAddress",
              "type": "address"
            }
          ],
          "internalType": "struct Collateral[]",
          "name": "_collateralInfo",
          "type": "tuple[]"
        }
      ],
      "name": "submitCollateralBid",
      "outputs": [
        {
          "internalType": "uint256",
          "name": "",
          "type": "uint256"
        }
      ],
      "stateMutability": "nonpayable",
      "type": "function"
    },
    {
      "inputs": [],
      "name": "tellerV2",
      "outputs": [
        {
          "internalType": "contract TellerV2",
          "name": "",
          "type": "address"
        }
      ],
      "stateMutability": "view",
      "type": "function"
    },
    {
      "inputs": [],
      "name": "wethMock",
      "outputs": [
        {
          "internalType": "contract WethMock",
          "name": "",
          "type": "address"
        }
      ],
      "stateMutability": "view",
      "type": "function"
    },
    {
      "stateMutability": "payable",
      "type": "receive"
    }
  ],
  "bytecode": {
    "object": "0x60c060405234801561001057600080fd5b50604051610c5f380380610c5f83398101604081905261002f9161005e565b6001600160a01b039182166080521660a052610098565b6001600160a01b038116811461005b57600080fd5b50565b6000806040838503121561007157600080fd5b825161007c81610046565b602084015190925061008d81610046565b809150509250929050565b60805160a051610b7f6100e0600039600081816101c901526102ba01526000818161015d01528181610225015281816103450152818161044d01526104fc0152610b7f6000f3fe60806040526004361061008a5760003560e01c80637cf13b53116100595780637cf13b531461012b578063941675db1461014b5780639a11e33914610197578063a7983164146101b7578063cb90cc31146101eb57600080fd5b806306f33a92146100965780630903f2a9146100c95780632b1fd58a146100eb5780635fd72d161461010b57600080fd5b3661009157005b600080fd5b3480156100a257600080fd5b506100b66100b136600461062f565b61020b565b6040519081526020015b60405180910390f35b3480156100d557600080fd5b506100e96100e43660046106c8565b6102b8565b005b3480156100f757600080fd5b506100e96101063660046106c8565b61032f565b34801561011757600080fd5b506100e96101263660046106e1565b6103c0565b34801561013757600080fd5b506100b661014636600461071d565b610433565b34801561015757600080fd5b5061017f7f000000000000000000000000000000000000000000000000000000000000000081565b6040516001600160a01b0390911681526020016100c0565b3480156101a357600080fd5b506100e96101b23660046106c8565b6104e6565b3480156101c357600080fd5b5061017f7f000000000000000000000000000000000000000000000000000000000000000081565b3480156101f757600080fd5b506100b6610206366004610827565b610563565b6040516303799d4960e11b81526000906001600160a01b037f000000000000000000000000000000000000000000000000000000000000000016906306f33a9290610268908c908c908c908c908c908c908c908c90600401610927565b6020604051808303816000875af1158015610287573d6000803e3d6000fd5b505050506040513d601f19601f820116820180604052508101906102ab9190610984565b9998505050505050505050565b7f00000000000000000000000000000000000000000000000000000000000000006001600160a01b031663d0e30db0826040518263ffffffff1660e01b81526004016000604051808303818588803b15801561031357600080fd5b505af1158015610327573d6000803e3d6000fd5b505050505050565b6040516315196bad60e31b8152600481018290527f00000000000000000000000000000000000000000000000000000000000000006001600160a01b03169063a8cb5d68906024016060604051808303816000875af1158015610396573d6000803e3d6000fd5b505050506040513d601f19601f820116820180604052508101906103ba919061099d565b50505050565b60405163095ea7b360e01b81526001600160a01b0383811660048301526024820183905284169063095ea7b3906044016020604051808303816000875af115801561040f573d6000803e3d6000fd5b505050506040513d601f19601f820116820180604052508101906103ba91906109cb565b604051637bbd53d760e01b81526000906001600160a01b037f00000000000000000000000000000000000000000000000000000000000000001690637bbd53d790610494908e908e908e908e908e908e908e908e908e908e906004016109ef565b6020604051808303816000875af11580156104b3573d6000803e3d6000fd5b505050506040513d601f19601f820116820180604052508101906104d79190610984565b9b9a5050505050505050505050565b604051639a11e33960e01b8152600481018290527f00000000000000000000000000000000000000000000000000000000000000006001600160a01b031690639a11e33990602401600060405180830381600087803b15801561054857600080fd5b505af115801561055c573d6000803e3d6000fd5b5050505050565b60405163cb90cc3160e01b81526000906001600160a01b038c169063cb90cc31906104949030908e908e908e908e908e908e908e908e908e90600401610ab9565b80356001600160a01b03811681146105bb57600080fd5b919050565b803563ffffffff811681146105bb57600080fd5b803561ffff811681146105bb57600080fd5b60008083601f8401126105f857600080fd5b50813567ffffffffffffffff81111561061057600080fd5b60208301915083602082850101111561062857600080fd5b9250929050565b60008060008060008060008060e0898b03121561064b57600080fd5b610654896105a4565b9750602089013596506040890135955061067060608a016105c0565b945061067e60808a016105d4565b935060a089013567ffffffffffffffff81111561069a57600080fd5b6106a68b828c016105e6565b90945092506106b9905060c08a016105a4565b90509295985092959890939650565b6000602082840312156106da57600080fd5b5035919050565b6000806000606084860312156106f657600080fd5b6106ff846105a4565b925061070d602085016105a4565b9150604084013590509250925092565b6000806000806000806000806000806101008b8d03121561073d57600080fd5b6107468b6105a4565b995060208b0135985060408b0135975061076260608c016105c0565b965061077060808c016105d4565b955060a08b013567ffffffffffffffff8082111561078d57600080fd5b6107998e838f016105e6565b90975095508591506107ad60c08e016105a4565b945060e08d01359150808211156107c357600080fd5b818d0191508d601f8301126107d757600080fd5b8135818111156107e657600080fd5b8e60208260071b85010111156107fb57600080fd5b6020830194508093505050509295989b9194979a5092959850565b801515811461082457600080fd5b50565b6000806000806000806000806000806101208b8d03121561084757600080fd5b6108508b6105a4565b995061085e60208c016105c0565b985061086c60408c016105c0565b975061087a60608c016105c0565b965061088860808c016105d4565b955060a08b013561089881610816565b945060c08b01356108a881610816565b935060e08b0135600281106108bc57600080fd5b92506101008b013567ffffffffffffffff8111156108d957600080fd5b6108e58d828e016105e6565b915080935050809150509295989b9194979a5092959850565b81835281816020850137506000828201602090810191909152601f909101601f19169091010190565b600060018060a01b03808b16835289602084015288604084015263ffffffff8816606084015261ffff8716608084015260e060a084015261096c60e0840186886108fe565b915080841660c0840152509998505050505050505050565b60006020828403121561099657600080fd5b5051919050565b6000806000606084860312156109b257600080fd5b8351925060208401519150604084015190509250925092565b6000602082840312156109dd57600080fd5b81516109e881610816565b9392505050565b600061010060018060a01b03808e16845260208d8186015260408d81870152606063ffffffff8e1681880152608061ffff8e16818901528560a0890152610a398689018d8f6108fe565b8b861660c08a015288810360e08a01528981528a965084016000805b8b811015610a9e57883560038110610a6b578283fd5b83528887013587840152858901358684015287610a89868b016105a4565b16838601529783019791830191600101610a55565b5050809750505050505050509b9a5050505050505050505050565b6001600160a01b038b16815263ffffffff8a8116602083015289811660408301528816606082015261ffff8716608082015285151560a082015284151560c0820152600061012060028610610b1e57634e487b7160e01b600052602160045260246000fd5b8560e084015280610100840152610b3881840185876108fe565b9d9c5050505050505050505050505056fea264697066735822122084709e87e4c096d6a1d2e01226a1eb96997c25ac79f4d60d555dd9fa19e9252564736f6c63430008110033",
    "linkReferences": {}
  },
  "methodIdentifiers": {
    "acceptBid(uint256)": "2b1fd58a",
    "addAllowance(address,address,uint256)": "5fd72d16",
    "createMarket(address,uint32,uint32,uint32,uint16,bool,bool,uint8,string)": "cb90cc31",
    "depositToWeth(uint256)": "0903f2a9",
    "repayLoanFull(uint256)": "9a11e339",
    "submitBid(address,uint256,uint256,uint32,uint16,string,address)": "06f33a92",
    "submitCollateralBid(address,uint256,uint256,uint32,uint16,string,address,(uint8,uint256,uint256,address)[])": "7cf13b53",
    "tellerV2()": "941675db",
    "wethMock()": "a7983164"
  },
  "id": 51
}