{
  "abi": [
    {
      "inputs": [
        {
          "internalType": "address",
          "name": "_tellerV2Autopay",
          "type": "address"
        },
        {
          "internalType": "address",
          "name": "_tellerV2",
          "type": "address"
        },
        {
          "internalType": "address",
          "name": "_wethMock",
          "type": "address"
        }
      ],
      "stateMutability": "nonpayable",
      "type": "constructor"
    },
    {
      "inputs": [
        {
          "internalType": "uint256",
          "name": "_bidId",
          "type": "uint256"
        }
      ],
      "name": "acceptBid",
      "outputs": [],
      "stateMutability": "nonpayable",
      "type": "function"
    },
    {
      "inputs": [
        {
          "internalType": "address",
          "name": "to",
          "type": "address"
        },
        {
          "internalType": "uint256",
          "name": "amount",
          "type": "uint256"
        }
      ],
      "name": "approveWeth",
      "outputs": [],
      "stateMutability": "nonpayable",
      "type": "function"
    },
    {
      "inputs": [
        {
          "internalType": "uint256",
          "name": "bidId",
          "type": "uint256"
        }
      ],
      "name": "autoPayLoanMinimum",
      "outputs": [],
      "stateMutability": "nonpayable",
      "type": "function"
    },
    {
      "inputs": [
        {
          "internalType": "address",
          "name": "marketRegistry",
          "type": "address"
        },
        {
          "internalType": "uint32",
          "name": "_paymentCycleDuration",
          "type": "uint32"
        },
        {
          "internalType": "uint32",
          "name": "_paymentDefaultDuration",
          "type": "uint32"
        },
        {
          "internalType": "uint32",
          "name": "_bidExpirationTime",
          "type": "uint32"
        },
        {
          "internalType": "uint16",
          "name": "_feePercent",
          "type": "uint16"
        },
        {
          "internalType": "bool",
          "name": "_requireLenderAttestation",
          "type": "bool"
        },
        {
          "internalType": "bool",
          "name": "_requireBorrowerAttestation",
          "type": "bool"
        },
        {
          "internalType": "enum PaymentType",
          "name": "_paymentType",
          "type": "uint8"
        },
        {
          "internalType": "string",
          "name": "_uri",
          "type": "string"
        }
      ],
      "name": "createMarketWithinRegistry",
      "outputs": [],
      "stateMutability": "nonpayable",
      "type": "function"
    },
    {
      "inputs": [
        {
          "internalType": "uint256",
          "name": "amount",
          "type": "uint256"
        }
      ],
      "name": "depositToWeth",
      "outputs": [],
      "stateMutability": "nonpayable",
      "type": "function"
    },
    {
      "inputs": [
        {
          "internalType": "uint256",
          "name": "bidId",
          "type": "uint256"
        },
        {
          "internalType": "bool",
          "name": "enabled",
          "type": "bool"
        }
      ],
      "name": "enableAutoPay",
      "outputs": [],
      "stateMutability": "nonpayable",
      "type": "function"
    },
    {
      "inputs": [
        {
          "internalType": "uint16",
          "name": "_newFee",
          "type": "uint16"
        },
        {
          "internalType": "address",
          "name": "_newOwner",
          "type": "address"
        }
      ],
      "name": "initialize",
      "outputs": [],
      "stateMutability": "nonpayable",
      "type": "function"
    },
    {
      "inputs": [
        {
          "internalType": "uint16",
          "name": "_newFee",
          "type": "uint16"
        }
      ],
      "name": "setAutopayFee",
      "outputs": [],
      "stateMutability": "nonpayable",
      "type": "function"
    },
    {
      "inputs": [
        {
          "internalType": "address",
          "name": "_lendingToken",
          "type": "address"
        },
        {
          "internalType": "uint256",
          "name": "_marketplaceId",
          "type": "uint256"
        },
        {
          "internalType": "uint256",
          "name": "_principal",
          "type": "uint256"
        },
        {
          "internalType": "uint32",
          "name": "_duration",
          "type": "uint32"
        },
        {
          "internalType": "uint16",
          "name": "_APR",
          "type": "uint16"
        },
        {
          "internalType": "string",
          "name": "_metadataURI",
          "type": "string"
        },
        {
          "internalType": "address",
          "name": "_receiver",
          "type": "address"
        }
      ],
      "name": "submitBid",
      "outputs": [
        {
          "internalType": "uint256",
          "name": "",
          "type": "uint256"
        }
      ],
      "stateMutability": "nonpayable",
      "type": "function"
    },
    {
      "inputs": [],
      "name": "tellerV2",
      "outputs": [
        {
          "internalType": "address",
          "name": "",
          "type": "address"
        }
      ],
      "stateMutability": "view",
      "type": "function"
    },
    {
      "inputs": [],
      "name": "tellerV2Autopay",
      "outputs": [
        {
          "internalType": "address",
          "name": "",
          "type": "address"
        }
      ],
      "stateMutability": "view",
      "type": "function"
    },
    {
      "inputs": [],
      "name": "wethMock",
      "outputs": [
        {
          "internalType": "address",
          "name": "",
          "type": "address"
        }
      ],
      "stateMutability": "view",
      "type": "function"
    },
    {
      "stateMutability": "payable",
      "type": "receive"
    }
  ],
  "bytecode": {
    "object": "0x60e060405234801561001057600080fd5b50604051610cbf380380610cbf83398101604081905261002f91610068565b6001600160a01b0392831660c0529082166080521660a0526100ab565b80516001600160a01b038116811461006357600080fd5b919050565b60008060006060848603121561007d57600080fd5b6100868461004c565b92506100946020850161004c565b91506100a26040850161004c565b90509250925092565b60805160a05160c051610bad6101126000396000818161020a0152818161036b015281816105670152818161068001526106e001526000818161023e015281816103d601526105f50152600081816101be015281816102ba01526104d60152610bad6000f3fe6080604052600436106100ab5760003560e01c80636a83bfcc116100645780636a83bfcc1461018c578063941675db146101ac5780639f781209146101f8578063a79831641461022c578063b0b69ed414610260578063e0dbcde51461028057600080fd5b806306f33a92146100b757806307c4caae146100ea5780630903f2a91461010c578063209c92d21461012c5780632b1fd58a1461014c5780632fa7b9fd1461016c57600080fd5b366100b257005b600080fd5b3480156100c357600080fd5b506100d76100d236600461079a565b6102a0565b6040519081526020015b60405180910390f35b3480156100f657600080fd5b5061010a610105366004610844565b61034d565b005b34801561011857600080fd5b5061010a610127366004610874565b6103d4565b34801561013857600080fd5b5061010a61014736600461088d565b61042f565b34801561015857600080fd5b5061010a610167366004610874565b6104c0565b34801561017857600080fd5b5061010a610187366004610874565b610551565b34801561019857600080fd5b5061010a6101a7366004610964565b6105cf565b3480156101b857600080fd5b506101e07f000000000000000000000000000000000000000000000000000000000000000081565b6040516001600160a01b0390911681526020016100e1565b34801561020457600080fd5b506101e07f000000000000000000000000000000000000000000000000000000000000000081565b34801561023857600080fd5b506101e07f000000000000000000000000000000000000000000000000000000000000000081565b34801561026c57600080fd5b5061010a61027b36600461098e565b610667565b34801561028c57600080fd5b5061010a61029b3660046109b0565b6106b7565b6040516303799d4960e11b81526000906001600160a01b037f000000000000000000000000000000000000000000000000000000000000000016906306f33a92906102fd908c908c908c908c908c908c908c908c90600401610a0c565b6020604051808303816000875af115801561031c573d6000803e3d6000fd5b505050506040513d601f19601f820116820180604052508101906103409190610a69565b9998505050505050505050565b604051630428d06560e21b81526004810183905281151560248201527f00000000000000000000000000000000000000000000000000000000000000006001600160a01b0316906310a34194906044015b600060405180830381600087803b1580156103b857600080fd5b505af11580156103cc573d6000803e3d6000fd5b505050505050565b7f00000000000000000000000000000000000000000000000000000000000000006001600160a01b031663d0e30db0826040518263ffffffff1660e01b81526004016000604051808303818588803b1580156103b857600080fd5b60405163344e553d60e01b81526001600160a01b038b169063344e553d906104709030908d908d908d908d908d908d908d906000908e908e90600401610aa0565b6020604051808303816000875af115801561048f573d6000803e3d6000fd5b505050506040513d601f19601f820116820180604052508101906104b39190610a69565b5050505050505050505050565b6040516315196bad60e31b8152600481018290527f00000000000000000000000000000000000000000000000000000000000000006001600160a01b03169063a8cb5d68906024016060604051808303816000875af1158015610527573d6000803e3d6000fd5b505050506040513d601f19601f8201168201806040525081019061054b9190610b2c565b50505050565b604051632fa7b9fd60e01b8152600481018290527f00000000000000000000000000000000000000000000000000000000000000006001600160a01b031690632fa7b9fd906024015b600060405180830381600087803b1580156105b457600080fd5b505af11580156105c8573d6000803e3d6000fd5b5050505050565b60405163095ea7b360e01b81526001600160a01b038381166004830152602482018390527f0000000000000000000000000000000000000000000000000000000000000000169063095ea7b3906044016020604051808303816000875af115801561063e573d6000803e3d6000fd5b505050506040513d601f19601f820116820180604052508101906106629190610b5a565b505050565b604051632c2da7b560e21b815261ffff821660048201527f00000000000000000000000000000000000000000000000000000000000000006001600160a01b03169063b0b69ed49060240161059a565b60405163e0dbcde560e01b815261ffff831660048201526001600160a01b0382811660248301527f0000000000000000000000000000000000000000000000000000000000000000169063e0dbcde59060440161039e565b80356001600160a01b038116811461072657600080fd5b919050565b803563ffffffff8116811461072657600080fd5b803561ffff8116811461072657600080fd5b60008083601f84011261076357600080fd5b50813567ffffffffffffffff81111561077b57600080fd5b60208301915083602082850101111561079357600080fd5b9250929050565b60008060008060008060008060e0898b0312156107b657600080fd5b6107bf8961070f565b975060208901359650604089013595506107db60608a0161072b565b94506107e960808a0161073f565b935060a089013567ffffffffffffffff81111561080557600080fd5b6108118b828c01610751565b9094509250610824905060c08a0161070f565b90509295985092959890939650565b801515811461084157600080fd5b50565b6000806040838503121561085757600080fd5b82359150602083013561086981610833565b809150509250929050565b60006020828403121561088657600080fd5b5035919050565b6000806000806000806000806000806101208b8d0312156108ad57600080fd5b6108b68b61070f565b99506108c460208c0161072b565b98506108d260408c0161072b565b97506108e060608c0161072b565b96506108ee60808c0161073f565b955060a08b01356108fe81610833565b945060c08b013561090e81610833565b935060e08b01356002811061092257600080fd5b92506101008b013567ffffffffffffffff81111561093f57600080fd5b61094b8d828e01610751565b915080935050809150509295989b9194979a5092959850565b6000806040838503121561097757600080fd5b6109808361070f565b946020939093013593505050565b6000602082840312156109a057600080fd5b6109a98261073f565b9392505050565b600080604083850312156109c357600080fd5b6109cc8361073f565b91506109da6020840161070f565b90509250929050565b81835281816020850137506000828201602090810191909152601f909101601f19169091010190565b600060018060a01b03808b16835289602084015288604084015263ffffffff8816606084015261ffff8716608084015260e060a0840152610a5160e0840186886109e3565b915080841660c0840152509998505050505050505050565b600060208284031215610a7b57600080fd5b5051919050565b6002811061084157634e487b7160e01b600052602160045260246000fd5b6001600160a01b038c16815263ffffffff8b811660208301528a811660408301528916606082015261ffff8816608082015286151560a082015285151560c08201526000610140610af087610a82565b8660e0840152610aff86610a82565b8561010084015280610120840152610b1a81840185876109e3565b9e9d5050505050505050505050505050565b600080600060608486031215610b4157600080fd5b8351925060208401519150604084015190509250925092565b600060208284031215610b6c57600080fd5b81516109a98161083356fea26469706673582212207f8fec8473f9815dab019bffe218cc3f1e9c8a268e799a1f83cfac34c34f06b664736f6c63430008110033",
    "linkReferences": {}
  },
  "methodIdentifiers": {
    "acceptBid(uint256)": "2b1fd58a",
    "approveWeth(address,uint256)": "6a83bfcc",
    "autoPayLoanMinimum(uint256)": "2fa7b9fd",
    "createMarketWithinRegistry(address,uint32,uint32,uint32,uint16,bool,bool,uint8,string)": "209c92d2",
    "depositToWeth(uint256)": "0903f2a9",
    "enableAutoPay(uint256,bool)": "07c4caae",
    "initialize(uint16,address)": "e0dbcde5",
    "setAutopayFee(uint16)": "b0b69ed4",
    "submitBid(address,uint256,uint256,uint32,uint16,string,address)": "06f33a92",
    "tellerV2()": "941675db",
    "tellerV2Autopay()": "9f781209",
    "wethMock()": "a7983164"
  },
  "id": 104
}