{
  "abi": [
    {
      "inputs": [
        {
          "internalType": "contract UpgradeableBeacon",
          "name": "escrowBeacon",
          "type": "address"
        },
        {
          "internalType": "address",
          "name": "_wethMock",
          "type": "address"
        }
      ],
      "stateMutability": "nonpayable",
      "type": "constructor"
    },
    {
      "inputs": [
        {
          "internalType": "uint256",
          "name": "amount",
          "type": "uint256"
        }
      ],
      "name": "approveWeth",
      "outputs": [],
      "stateMutability": "nonpayable",
      "type": "function"
    },
    {
      "inputs": [
        {
          "internalType": "enum CollateralType",
          "name": "_collateralType",
          "type": "uint8"
        },
        {
          "internalType": "address",
          "name": "_collateralAddress",
          "type": "address"
        },
        {
          "internalType": "uint256",
          "name": "_amount",
          "type": "uint256"
        },
        {
          "internalType": "uint256",
          "name": "_tokenId",
          "type": "uint256"
        }
      ],
      "name": "deposit",
      "outputs": [],
      "stateMutability": "nonpayable",
      "type": "function"
    },
    {
      "inputs": [
        {
          "internalType": "uint256",
          "name": "amount",
          "type": "uint256"
        }
      ],
      "name": "depositToWeth",
      "outputs": [],
      "stateMutability": "nonpayable",
      "type": "function"
    },
    {
      "inputs": [],
      "name": "escrow",
      "outputs": [
        {
          "internalType": "contract CollateralEscrowV1",
          "name": "",
          "type": "address"
        }
      ],
      "stateMutability": "view",
      "type": "function"
    },
    {
      "inputs": [
        {
          "internalType": "address",
          "name": "_collateralAddress",
          "type": "address"
        }
      ],
      "name": "getBalance",
      "outputs": [
        {
          "internalType": "uint256",
          "name": "amount_",
          "type": "uint256"
        }
      ],
      "stateMutability": "nonpayable",
      "type": "function"
    },
    {
      "inputs": [],
      "name": "wethMock",
      "outputs": [
        {
          "internalType": "address",
          "name": "",
          "type": "address"
        }
      ],
      "stateMutability": "view",
      "type": "function"
    },
    {
      "inputs": [
        {
          "internalType": "address",
          "name": "_collateralAddress",
          "type": "address"
        },
        {
          "internalType": "uint256",
          "name": "_amount",
          "type": "uint256"
        },
        {
          "internalType": "address",
          "name": "_recipient",
          "type": "address"
        }
      ],
      "name": "withdraw",
      "outputs": [],
      "stateMutability": "nonpayable",
      "type": "function"
    },
    {
      "stateMutability": "payable",
      "type": "receive"
    }
  ],
  "bytecode": {
    "object": "0x60a060405234801561001057600080fd5b5060405161109138038061109183398101604081905261002f916100ee565b604080516000602480830182905283518084039091018152604490920183526020820180516001600160e01b031663fe4b84df60e01b1790529151849190610076906100c9565b610081929190610128565b604051809103906000f08015801561009d573d6000803e3d6000fd5b50600080546001600160a01b0319166001600160a01b0392831617905591909116608052506101869050565b6109008061079183390190565b6001600160a01b03811681146100eb57600080fd5b50565b6000806040838503121561010157600080fd5b825161010c816100d6565b602084015190925061011d816100d6565b809150509250929050565b60018060a01b038316815260006020604081840152835180604085015260005b8181101561016457858101830151858201606001528201610148565b506000606082860101526060601f19601f830116850101925050509392505050565b6080516105e36101ae6000396000818160d4015281816101a301526102b401526105e36000f3fe6080604052600436106100745760003560e01c8063df1e66461161004e578063df1e664614610113578063e2fdcc1714610133578063f8b2cb4f14610153578063ffd2eef21461018157600080fd5b80630903f2a91461008057806369328dec146100a2578063a7983164146100c257600080fd5b3661007b57005b600080fd5b34801561008c57600080fd5b506100a061009b36600461040e565b6101a1565b005b3480156100ae57600080fd5b506100a06100bd36600461043f565b610218565b3480156100ce57600080fd5b506100f67f000000000000000000000000000000000000000000000000000000000000000081565b6040516001600160a01b0390911681526020015b60405180910390f35b34801561011f57600080fd5b506100a061012e36600461040e565b61028b565b34801561013f57600080fd5b506000546100f6906001600160a01b031681565b34801561015f57600080fd5b5061017361016e366004610481565b610327565b60405190815260200161010a565b34801561018d57600080fd5b506100a061019c3660046104b2565b6103a0565b7f00000000000000000000000000000000000000000000000000000000000000006001600160a01b031663d0e30db0826040518263ffffffff1660e01b81526004016000604051808303818588803b1580156101fc57600080fd5b505af1158015610210573d6000803e3d6000fd5b505050505050565b600054604051631a4ca37b60e21b81526001600160a01b038581166004830152602482018590528381166044830152909116906369328dec90606401600060405180830381600087803b15801561026e57600080fd5b505af1158015610282573d6000803e3d6000fd5b50505050505050565b60005460405163095ea7b360e01b81526001600160a01b039182166004820152602481018390527f00000000000000000000000000000000000000000000000000000000000000009091169063095ea7b3906044016020604051808303816000875af11580156102ff573d6000803e3d6000fd5b505050506040513d601f19601f8201168201806040525081019061032391906104f8565b5050565b600080546040516329bc969d60e01b81526001600160a01b038481166004830152909116906329bc969d90602401608060405180830381865afa158015610372573d6000803e3d6000fd5b505050506040513d601f19601f82011682018060405250810190610396919061051a565b5090949350505050565b600054604051637906494b60e11b81526001600160a01b039091169063f20c9296906103d6908790879087908790600401610566565b600060405180830381600087803b1580156103f057600080fd5b505af1158015610404573d6000803e3d6000fd5b5050505050505050565b60006020828403121561042057600080fd5b5035919050565b6001600160a01b038116811461043c57600080fd5b50565b60008060006060848603121561045457600080fd5b833561045f81610427565b925060208401359150604084013561047681610427565b809150509250925092565b60006020828403121561049357600080fd5b813561049e81610427565b9392505050565b6003811061043c57600080fd5b600080600080608085870312156104c857600080fd5b84356104d3816104a5565b935060208501356104e381610427565b93969395505050506040820135916060013590565b60006020828403121561050a57600080fd5b8151801515811461049e57600080fd5b6000806000806080858703121561053057600080fd5b845161053b816104a5565b809450506020850151925060408501519150606085015161055b81610427565b939692955090935050565b608081016003861061058857634e487b7160e01b600052602160045260246000fd5b9481526001600160a01b0393909316602084015260408301919091526060909101529056fea26469706673582212208d5a7da91278fedd872d12985f7862bd8fbd92586ddf2f63e9f01a637911f86d64736f6c6343000811003360806040526040516109003803806109008339810160408190526100229161045b565b61002e82826000610035565b5050610585565b61003e83610100565b6040516001600160a01b038416907f1cf3b03a6cf19fa2baba4df148e9dcabedea7f8a5c07840e207e5c089be95d3e90600090a260008251118061007f5750805b156100fb576100f9836001600160a01b0316635c60da1b6040518163ffffffff1660e01b8152600401602060405180830381865afa1580156100c5573d6000803e3d6000fd5b505050506040513d601f19601f820116820180604052508101906100e9919061051b565b836102a360201b6100291760201c565b505b505050565b610113816102cf60201b6100551760201c565b6101725760405162461bcd60e51b815260206004820152602560248201527f455243313936373a206e657720626561636f6e206973206e6f74206120636f6e6044820152641d1c9858dd60da1b60648201526084015b60405180910390fd5b6101e6816001600160a01b0316635c60da1b6040518163ffffffff1660e01b8152600401602060405180830381865afa1580156101b3573d6000803e3d6000fd5b505050506040513d601f19601f820116820180604052508101906101d7919061051b565b6102cf60201b6100551760201c565b61024b5760405162461bcd60e51b815260206004820152603060248201527f455243313936373a20626561636f6e20696d706c656d656e746174696f6e206960448201526f1cc81b9bdd08184818dbdb9d1c9858dd60821b6064820152608401610169565b806102827fa3f0ad74e5423aebfd80d3ef4346578335a9a72aeaee59ff6cb3582b35133d5060001b6102de60201b6100641760201c565b80546001600160a01b0319166001600160a01b039290921691909117905550565b60606102c883836040518060600160405280602781526020016108d9602791396102e1565b9392505050565b6001600160a01b03163b151590565b90565b6060600080856001600160a01b0316856040516102fe9190610536565b600060405180830381855af49150503d8060008114610339576040519150601f19603f3d011682016040523d82523d6000602084013e61033e565b606091505b5090925090506103508683838761035a565b9695505050505050565b606083156103c95782516000036103c2576001600160a01b0385163b6103c25760405162461bcd60e51b815260206004820152601d60248201527f416464726573733a2063616c6c20746f206e6f6e2d636f6e74726163740000006044820152606401610169565b50816103d3565b6103d383836103db565b949350505050565b8151156103eb5781518083602001fd5b8060405162461bcd60e51b81526004016101699190610552565b80516001600160a01b038116811461041c57600080fd5b919050565b634e487b7160e01b600052604160045260246000fd5b60005b8381101561045257818101518382015260200161043a565b50506000910152565b6000806040838503121561046e57600080fd5b61047783610405565b60208401519092506001600160401b038082111561049457600080fd5b818501915085601f8301126104a857600080fd5b8151818111156104ba576104ba610421565b604051601f8201601f19908116603f011681019083821181831017156104e2576104e2610421565b816040528281528860208487010111156104fb57600080fd5b61050c836020830160208801610437565b80955050505050509250929050565b60006020828403121561052d57600080fd5b6102c882610405565b60008251610548818460208701610437565b9190910192915050565b6020815260008251806020840152610571816040850160208701610437565b601f01601f19169190910160400192915050565b610345806105946000396000f3fe60806040523661001357610011610017565b005b6100115b610027610022610067565b610100565b565b606061004e83836040518060600160405280602781526020016102e960279139610124565b9392505050565b6001600160a01b03163b151590565b90565b600061009a7fa3f0ad74e5423aebfd80d3ef4346578335a9a72aeaee59ff6cb3582b35133d50546001600160a01b031690565b6001600160a01b0316635c60da1b6040518163ffffffff1660e01b8152600401602060405180830381865afa1580156100d7573d6000803e3d6000fd5b505050506040513d601f19601f820116820180604052508101906100fb919061024c565b905090565b3660008037600080366000845af43d6000803e80801561011f573d6000f35b3d6000fd5b6060600080856001600160a01b0316856040516101419190610299565b600060405180830381855af49150503d806000811461017c576040519150601f19603f3d011682016040523d82523d6000602084013e610181565b606091505b50915091506101928683838761019c565b9695505050505050565b60608315610210578251600003610209576001600160a01b0385163b6102095760405162461bcd60e51b815260206004820152601d60248201527f416464726573733a2063616c6c20746f206e6f6e2d636f6e747261637400000060448201526064015b60405180910390fd5b508161021a565b61021a8383610222565b949350505050565b8151156102325781518083602001fd5b8060405162461bcd60e51b815260040161020091906102b5565b60006020828403121561025e57600080fd5b81516001600160a01b038116811461004e57600080fd5b60005b83811015610290578181015183820152602001610278565b50506000910152565b600082516102ab818460208701610275565b9190910192915050565b60208152600082518060208401526102d4816040850160208701610275565b601f01601f1916919091016040019291505056fe416464726573733a206c6f772d6c6576656c2064656c65676174652063616c6c206661696c6564a264697066735822122008e4cda76d742bdf2080213f3ef3395b80943cebc80e0e5a540aa0d5636e6a2364736f6c63430008110033416464726573733a206c6f772d6c6576656c2064656c65676174652063616c6c206661696c6564",
    "linkReferences": {}
  },
  "methodIdentifiers": {
    "approveWeth(uint256)": "df1e6646",
    "deposit(uint8,address,uint256,uint256)": "ffd2eef2",
    "depositToWeth(uint256)": "0903f2a9",
    "escrow()": "e2fdcc17",
    "getBalance(address)": "f8b2cb4f",
    "wethMock()": "a7983164",
    "withdraw(address,uint256,address)": "69328dec"
  },
  "id": 96
}