{
  "abi": [
    {
      "anonymous": false,
      "inputs": [
        {
          "indexed": false,
          "internalType": "uint8",
          "name": "version",
          "type": "uint8"
        }
      ],
      "name": "Initialized",
      "type": "event"
    },
    {
      "anonymous": false,
      "inputs": [
        {
          "indexed": true,
          "internalType": "address",
          "name": "previousOwner",
          "type": "address"
        },
        {
          "indexed": true,
          "internalType": "address",
          "name": "newOwner",
          "type": "address"
        }
      ],
      "name": "OwnershipTransferred",
      "type": "event"
    },
    {
      "anonymous": false,
      "inputs": [
        {
          "indexed": false,
          "internalType": "uint16",
          "name": "newFee",
          "type": "uint16"
        },
        {
          "indexed": false,
          "internalType": "uint16",
          "name": "oldFee",
          "type": "uint16"
        }
      ],
      "name": "ProtocolFeeSet",
      "type": "event"
    },
    {
      "inputs": [
        {
          "internalType": "uint16",
          "name": "_initFee",
          "type": "uint16"
        }
      ],
      "name": "initialize",
      "outputs": [],
      "stateMutability": "nonpayable",
      "type": "function"
    },
    {
      "inputs": [],
      "name": "owner",
      "outputs": [
        {
          "internalType": "address",
          "name": "",
          "type": "address"
        }
      ],
      "stateMutability": "view",
      "type": "function"
    },
    {
      "inputs": [],
      "name": "protocolFee",
      "outputs": [
        {
          "internalType": "uint16",
          "name": "",
          "type": "uint16"
        }
      ],
      "stateMutability": "view",
      "type": "function"
    },
    {
      "inputs": [],
      "name": "renounceOwnership",
      "outputs": [],
      "stateMutability": "nonpayable",
      "type": "function"
    },
    {
      "inputs": [
        {
          "internalType": "uint16",
          "name": "newFee",
          "type": "uint16"
        }
      ],
      "name": "setProtocolFee",
      "outputs": [],
      "stateMutability": "nonpayable",
      "type": "function"
    },
    {
      "inputs": [],
      "name": "setProtocolFeeCalled",
      "outputs": [
        {
          "internalType": "bool",
          "name": "",
          "type": "bool"
        }
      ],
      "stateMutability": "view",
      "type": "function"
    },
    {
      "inputs": [
        {
          "internalType": "address",
          "name": "newOwner",
          "type": "address"
        }
      ],
      "name": "transferOwnership",
      "outputs": [],
      "stateMutability": "nonpayable",
      "type": "function"
    }
  ],
  "bytecode": {
    "object": "0x608060405234801561001057600080fd5b5061059c806100206000396000f3fe608060405234801561001057600080fd5b506004361061007d5760003560e01c80638da5cb5b1161005b5780638da5cb5b146100c7578063b0e21e8a146100e2578063e4467f35146100f8578063f2fde38b1461010b57600080fd5b80631375094614610082578063609c6c4e14610097578063715018a6146100bf575b600080fd5b6100956100903660046104c7565b61011e565b005b6065546100aa9062010000900460ff1681565b60405190151581526020015b60405180910390f35b610095610237565b6033546040516001600160a01b0390911681526020016100b6565b60655460405161ffff90911681526020016100b6565b6100956101063660046104c7565b61024b565b6100956101193660046104f2565b610275565b600054610100900460ff161580801561013e5750600054600160ff909116105b806101585750303b158015610158575060005460ff166001145b6101c05760405162461bcd60e51b815260206004820152602e60248201527f496e697469616c697a61626c653a20636f6e747261637420697320616c72656160448201526d191e481a5b9a5d1a585b1a5e995960921b60648201526084015b60405180910390fd5b6000805460ff1916600117905580156101e3576000805461ff0019166101001790555b6101ec826102ee565b8015610233576000805461ff0019169055604051600181527f7f26b83ff96e1f2b6a682f133852f6798a09c465da95921460cefb3847402498906020015b60405180910390a15b5050565b61023f610326565b6102496000610380565b565b610253610326565b6065805462ff00001916620100001790556001548061023357610233826103d2565b61027d610326565b6001600160a01b0381166102e25760405162461bcd60e51b815260206004820152602660248201527f4f776e61626c653a206e6577206f776e657220697320746865207a65726f206160448201526564647265737360d01b60648201526084016101b7565b6102eb81610380565b50565b600054610100900460ff166103155760405162461bcd60e51b81526004016101b79061051b565b61031d610438565b6102eb81610467565b6033546001600160a01b031633146102495760405162461bcd60e51b815260206004820181905260248201527f4f776e61626c653a2063616c6c6572206973206e6f7420746865206f776e657260448201526064016101b7565b603380546001600160a01b038381166001600160a01b0319831681179093556040519116919082907f8be0079c531659141344cd1fd0a4f28419497f9722a3daafe3b4186f6b6457e090600090a35050565b6103da610326565b60655461ffff8281169116146102eb576065805461ffff83811661ffff198316811790935560408051938452911660208301819052917f4810ece076cee6c6042808956f3f65dad1bc72b75181341d7bed810d39deda0f910161022a565b600054610100900460ff1661045f5760405162461bcd60e51b81526004016101b79061051b565b610249610497565b600054610100900460ff1661048e5760405162461bcd60e51b81526004016101b79061051b565b6102eb8161024b565b600054610100900460ff166104be5760405162461bcd60e51b81526004016101b79061051b565b61024933610380565b6000602082840312156104d957600080fd5b813561ffff811681146104eb57600080fd5b9392505050565b60006020828403121561050457600080fd5b81356001600160a01b03811681146104eb57600080fd5b6020808252602b908201527f496e697469616c697a61626c653a20636f6e7472616374206973206e6f74206960408201526a6e697469616c697a696e6760a81b60608201526080019056fea26469706673582212201b9cda336e729f7ecfe60f31dc66fdb48ede10a73e0b323d63c7628c016adbd464736f6c63430008110033",
    "linkReferences": {}
  },
  "methodIdentifiers": {
    "initialize(uint16)": "13750946",
    "owner()": "8da5cb5b",
    "protocolFee()": "b0e21e8a",
    "renounceOwnership()": "715018a6",
    "setProtocolFee(uint16)": "e4467f35",
    "setProtocolFeeCalled()": "609c6c4e",
    "transferOwnership(address)": "f2fde38b"
  },
  "id": 6
}