{
  "abi": [
    {
      "inputs": [
        {
          "internalType": "address",
          "name": "_protocolAddress",
          "type": "address"
        },
        {
          "internalType": "address",
          "name": "_marketRegistry",
          "type": "address"
        }
      ],
      "stateMutability": "nonpayable",
      "type": "constructor"
    },
    {
      "anonymous": false,
      "inputs": [
        {
          "indexed": true,
          "internalType": "address",
          "name": "lender",
          "type": "address"
        },
        {
          "indexed": true,
          "internalType": "uint256",
          "name": "marketId",
          "type": "uint256"
        },
        {
          "indexed": true,
          "internalType": "address",
          "name": "lendingToken",
          "type": "address"
        }
      ],
      "name": "DeletedCommitment",
      "type": "event"
    },
    {
      "anonymous": false,
      "inputs": [
        {
          "indexed": true,
          "internalType": "address",
          "name": "lender",
          "type": "address"
        },
        {
          "indexed": true,
          "internalType": "uint256",
          "name": "marketId",
          "type": "uint256"
        },
        {
          "indexed": true,
          "internalType": "address",
          "name": "lendingToken",
          "type": "address"
        },
        {
          "indexed": false,
          "internalType": "uint256",
          "name": "tokenAmount",
          "type": "uint256"
        },
        {
          "indexed": false,
          "internalType": "uint256",
          "name": "bidId",
          "type": "uint256"
        }
      ],
      "name": "ExercisedCommitment",
      "type": "event"
    },
    {
      "anonymous": false,
      "inputs": [
        {
          "indexed": false,
          "internalType": "uint8",
          "name": "version",
          "type": "uint8"
        }
      ],
      "name": "Initialized",
      "type": "event"
    },
    {
      "anonymous": false,
      "inputs": [
        {
          "indexed": true,
          "internalType": "address",
          "name": "lender",
          "type": "address"
        },
        {
          "indexed": true,
          "internalType": "uint256",
          "name": "marketId",
          "type": "uint256"
        },
        {
          "indexed": true,
          "internalType": "address",
          "name": "lendingToken",
          "type": "address"
        },
        {
          "indexed": false,
          "internalType": "uint256",
          "name": "tokenAmount",
          "type": "uint256"
        }
      ],
      "name": "UpdatedCommitment",
      "type": "event"
    },
    {
      "inputs": [],
      "name": "_marketRegistry",
      "outputs": [
        {
          "internalType": "address",
          "name": "",
          "type": "address"
        }
      ],
      "stateMutability": "view",
      "type": "function"
    },
    {
      "inputs": [],
      "name": "_tellerV2",
      "outputs": [
        {
          "internalType": "address",
          "name": "",
          "type": "address"
        }
      ],
      "stateMutability": "view",
      "type": "function"
    },
    {
      "inputs": [
        {
          "internalType": "uint256",
          "name": "_marketId",
          "type": "uint256"
        },
        {
          "internalType": "address",
          "name": "_lender",
          "type": "address"
        },
        {
          "internalType": "address",
          "name": "_tokenAddress",
          "type": "address"
        },
        {
          "internalType": "uint256",
          "name": "_principal",
          "type": "uint256"
        },
        {
          "internalType": "uint32",
          "name": "_loanDuration",
          "type": "uint32"
        },
        {
          "internalType": "uint16",
          "name": "_interestRate",
          "type": "uint16"
        }
      ],
      "name": "acceptCommitment",
      "outputs": [
        {
          "internalType": "uint256",
          "name": "bidId",
          "type": "uint256"
        }
      ],
      "stateMutability": "nonpayable",
      "type": "function"
    },
    {
      "inputs": [
        {
          "internalType": "uint256",
          "name": "_marketId",
          "type": "uint256"
        },
        {
          "internalType": "address",
          "name": "_tokenAddress",
          "type": "address"
        }
      ],
      "name": "deleteCommitment",
      "outputs": [],
      "stateMutability": "nonpayable",
      "type": "function"
    },
    {
      "inputs": [],
      "name": "getMarketRegistry",
      "outputs": [
        {
          "internalType": "address",
          "name": "",
          "type": "address"
        }
      ],
      "stateMutability": "view",
      "type": "function"
    },
    {
      "inputs": [],
      "name": "getTellerV2",
      "outputs": [
        {
          "internalType": "contract TellerV2",
          "name": "",
          "type": "address"
        }
      ],
      "stateMutability": "view",
      "type": "function"
    },
    {
      "inputs": [
        {
          "internalType": "uint256",
          "name": "marketId",
          "type": "uint256"
        }
      ],
      "name": "getTellerV2MarketOwner",
      "outputs": [
        {
          "internalType": "address",
          "name": "",
          "type": "address"
        }
      ],
      "stateMutability": "nonpayable",
      "type": "function"
    },
    {
      "inputs": [
        {
          "internalType": "address",
          "name": "",
          "type": "address"
        },
        {
          "internalType": "uint256",
          "name": "",
          "type": "uint256"
        },
        {
          "internalType": "address",
          "name": "",
          "type": "address"
        }
      ],
      "name": "lenderMarketCommitments",
      "outputs": [
        {
          "internalType": "uint256",
          "name": "maxPrincipal",
          "type": "uint256"
        },
        {
          "internalType": "uint32",
          "name": "expiration",
          "type": "uint32"
        },
        {
          "internalType": "uint32",
          "name": "maxDuration",
          "type": "uint32"
        },
        {
          "internalType": "uint16",
          "name": "minInterestRate",
          "type": "uint16"
        }
      ],
      "stateMutability": "view",
      "type": "function"
    },
    {
      "inputs": [
        {
          "internalType": "uint256",
          "name": "_marketId",
          "type": "uint256"
        },
        {
          "internalType": "address",
          "name": "_tokenAddress",
          "type": "address"
        },
        {
          "internalType": "uint256",
          "name": "_maxPrincipal",
          "type": "uint256"
        },
        {
          "internalType": "uint32",
          "name": "_maxLoanDuration",
          "type": "uint32"
        },
        {
          "internalType": "uint16",
          "name": "_minInterestRate",
          "type": "uint16"
        },
        {
          "internalType": "uint32",
          "name": "_expiration",
          "type": "uint32"
        }
      ],
      "name": "updateCommitment",
      "outputs": [],
      "stateMutability": "nonpayable",
      "type": "function"
    }
  ],
  "bytecode": {
    "object": "0x60c060405234801561001057600080fd5b50604051610e98380380610e9883398101604081905261002f91610062565b6001600160a01b039182166080521660a052610095565b80516001600160a01b038116811461005d57600080fd5b919050565b6000806040838503121561007557600080fd5b61007e83610046565b915061008c60208401610046565b90509250929050565b60805160a051610dc26100d66000396000818161017401528181610212015261025501526000818161019a015281816101d801526108a50152610dc26000f3fe608060405234801561001057600080fd5b50600436106100935760003560e01c8063dc003d5a11610066578063dc003d5a14610198578063e2ea54a2146101be578063eafef46e146101d3578063f266afd4146101fa578063fd7b2d911461020d57600080fd5b80631dcaa70d14610098578063305e0317146100c85780637a6c479714610151578063c66b8ed214610172575b600080fd5b6100ab6100a6366004610a90565b610234565b6040516001600160a01b0390911681526020015b60405180910390f35b6101206100d6366004610ac1565b60656020908152600093845260408085208252928452828420905282529020805460019091015463ffffffff80821691640100000000810490911690600160401b900461ffff1684565b6040516100bf949392919093845263ffffffff92831660208501529116604083015261ffff16606082015260800190565b61016461015f366004610b2e565b6102c8565b6040519081526020016100bf565b7f00000000000000000000000000000000000000000000000000000000000000006100ab565b7f00000000000000000000000000000000000000000000000000000000000000006100ab565b6101d16101cc366004610b98565b610580565b005b6100ab7f000000000000000000000000000000000000000000000000000000000000000081565b6101d1610208366004610bc8565b61058f565b6100ab7f000000000000000000000000000000000000000000000000000000000000000081565b604051633d36902960e01b8152600481018290526000906001600160a01b037f00000000000000000000000000000000000000000000000000000000000000001690633d369029906024016020604051808303816000875af115801561029e573d6000803e3d6000fd5b505050506040513d601f19601f820116820180604052508101906102c29190610c24565b92915050565b6000866102d481610234565b6001600160a01b0316336001600160a01b0316146102f157600080fd5b6001600160a01b0387811660009081526065602090815260408083208c84528252808320938a1683529290522080543391908711156103815760405162461bcd60e51b815260206004820152602160248201527f436f6d6d69746d656e74207072696e636970616c20696e73756666696369656e6044820152601d60fa1b60648201526084015b60405180910390fd5b600181015463ffffffff640100000000909104811690871611156103e75760405162461bcd60e51b815260206004820181905260248201527f436f6d6d69746d656e74206475726174696f6e20696e73756666696369656e746044820152606401610378565b600181015461ffff600160401b9091048116908616101561045c5760405162461bcd60e51b815260206004820152602960248201527f496e746572657374207261746520696e73756666696369656e7420666f7220636044820152681bdb5b5a5d1b595b9d60ba1b6064820152608401610378565b600181015463ffffffff1642106104ae5760405162461bcd60e51b815260206004820152601660248201527510dbdb5b5a5d1b595b9d081a185cc8195e1c1a5c995960521b6044820152606401610378565b6040805160e081018252606060a08201819052600060c08301528c82526001600160a01b038b16602083015291810189905263ffffffff88169181019190915261ffff861660808201526105028184610662565b945061050e858b61071f565b5061051b8a8c8b8b610781565b886001600160a01b03168b8b6001600160a01b03167fddd5e86b54b6b7321832f8a4efeafa096d8e3ee18992a524e03c34f0faeb0f2a8b8960405161056a929190918252602082015260400190565b60405180910390a4505050509695505050505050565b61058b3383836107cb565b5050565b3363ffffffff428116908316116105a557600080fd5b6001600160a01b0381811660008181526065602090815260408083208c84528252808320948b168084529482529182902089815560018101805463ffffffff89811667ffffffffffffffff1990921691909117640100000000918c16919091021769ffff00000000000000001916600160401b61ffff8b160217905591518981529193928b9290917fd74271b3deaa241e04cc6f3097fa3b4cc9795eab2e87dd45df4f888ca48ac224910160405180910390a45050505050505050565b6000606060007f3f701b82e94e212087cb6a5e259c2b121e2117b92c6659b2fad4faec2299c19990506107008186602001518760000151886040015189606001518a608001518b60a001518c60c001516040516024016106c89796959493929190610c91565b60408051601f198184030181529190526020810180516001600160e01b03166001600160e01b03199093169290921790915285610873565b9150818060200190518101906107169190610cec565b95945050505050565b600061077763a8cb5d6860e01b8460405160240161073f91815260200190565b60408051601f198184030181529190526020810180516001600160e01b03166001600160e01b03199093169290921790915283610873565b5060019392505050565b6001600160a01b0380851660009081526065602090815260408083208784528252808320938616835292905290812080548392906107c0908490610d05565b909155505050505050565b6001600160a01b0380841660009081526065602090815260408083208684528252808320938516835292905220541561086e576001600160a01b038084166000818152606560209081526040808320878452825280832094861680845294909152808220828155600101805469ffffffffffffffffffff19169055518592917fbdf24bc1906bb232bd52241fded6c25f9f987e2588c352a4256bc0c4d63eff0f91a45b505050565b60606108cb838360405160200161088b929190610d26565b60408051601f198184030181529190526001600160a01b037f000000000000000000000000000000000000000000000000000000000000000016906108d2565b9392505050565b60606108cb83836040518060400160405280601e81526020017f416464726573733a206c6f772d6c6576656c2063616c6c206661696c65640000815250606061091e8484600085610926565b949350505050565b6060824710156109875760405162461bcd60e51b815260206004820152602660248201527f416464726573733a20696e73756666696369656e742062616c616e636520666f6044820152651c8818d85b1b60d21b6064820152608401610378565b6001600160a01b0385163b6109de5760405162461bcd60e51b815260206004820152601d60248201527f416464726573733a2063616c6c20746f206e6f6e2d636f6e74726163740000006044820152606401610378565b600080866001600160a01b031685876040516109fa9190610d5d565b60006040518083038185875af1925050503d8060008114610a37576040519150601f19603f3d011682016040523d82523d6000602084013e610a3c565b606091505b5091509150610a4c828286610a57565b979650505050505050565b60608315610a665750816108cb565b825115610a765782518084602001fd5b8160405162461bcd60e51b81526004016103789190610d79565b600060208284031215610aa257600080fd5b5035919050565b6001600160a01b0381168114610abe57600080fd5b50565b600080600060608486031215610ad657600080fd5b8335610ae181610aa9565b9250602084013591506040840135610af881610aa9565b809150509250925092565b803563ffffffff81168114610b1757600080fd5b919050565b803561ffff81168114610b1757600080fd5b60008060008060008060c08789031215610b4757600080fd5b863595506020870135610b5981610aa9565b94506040870135610b6981610aa9565b935060608701359250610b7e60808801610b03565b9150610b8c60a08801610b1c565b90509295509295509295565b60008060408385031215610bab57600080fd5b823591506020830135610bbd81610aa9565b809150509250929050565b60008060008060008060c08789031215610be157600080fd5b863595506020870135610bf381610aa9565b945060408701359350610c0860608801610b03565b9250610c1660808801610b1c565b9150610b8c60a08801610b03565b600060208284031215610c3657600080fd5b81516108cb81610aa9565b60005b83811015610c5c578181015183820152602001610c44565b50506000910152565b60008151808452610c7d816020860160208601610c41565b601f01601f19169290920160200192915050565b600060018060a01b03808a16835288602084015287604084015263ffffffff8716606084015261ffff8616608084015260e060a0840152610cd560e0840186610c65565b915080841660c08401525098975050505050505050565b600060208284031215610cfe57600080fd5b5051919050565b818103818111156102c257634e487b7160e01b600052601160045260246000fd5b60008351610d38818460208801610c41565b60609390931b6bffffffffffffffffffffffff19169190920190815260140192915050565b60008251610d6f818460208701610c41565b9190910192915050565b6020815260006108cb6020830184610c6556fea2646970667358221220e8b574766d3ab04a0040c255f88b9806f866697360b28d17f758b1e8d5029ea964736f6c63430008110033",
    "linkReferences": {}
  },
  "methodIdentifiers": {
    "_marketRegistry()": "fd7b2d91",
    "_tellerV2()": "eafef46e",
    "acceptCommitment(uint256,address,address,uint256,uint32,uint16)": "7a6c4797",
    "deleteCommitment(uint256,address)": "e2ea54a2",
    "getMarketRegistry()": "c66b8ed2",
    "getTellerV2()": "dc003d5a",
    "getTellerV2MarketOwner(uint256)": "1dcaa70d",
    "lenderMarketCommitments(address,uint256,address)": "305e0317",
    "updateCommitment(uint256,address,uint256,uint32,uint16,uint32)": "f266afd4"
  },
  "id": 4
}