{
  "abi": [
    {
      "inputs": [
        {
          "internalType": "address",
          "name": "_protocolAddress",
          "type": "address"
        },
        {
          "internalType": "address",
          "name": "_marketRegistry",
          "type": "address"
        }
      ],
      "stateMutability": "nonpayable",
      "type": "constructor"
    },
    {
      "inputs": [
        {
          "internalType": "uint256",
          "name": "required",
          "type": "uint256"
        },
        {
          "internalType": "uint256",
          "name": "actual",
          "type": "uint256"
        }
      ],
      "name": "InsufficientBorrowerCollateral",
      "type": "error"
    },
    {
      "inputs": [
        {
          "internalType": "uint256",
          "name": "allocated",
          "type": "uint256"
        },
        {
          "internalType": "uint256",
          "name": "requested",
          "type": "uint256"
        }
      ],
      "name": "InsufficientCommitmentAllocation",
      "type": "error"
    },
    {
      "anonymous": false,
      "inputs": [
        {
          "indexed": true,
          "internalType": "uint256",
          "name": "commitmentId",
          "type": "uint256"
        },
        {
          "indexed": false,
          "internalType": "address",
          "name": "lender",
          "type": "address"
        },
        {
          "indexed": false,
          "internalType": "uint256",
          "name": "marketId",
          "type": "uint256"
        },
        {
          "indexed": false,
          "internalType": "address",
          "name": "lendingToken",
          "type": "address"
        },
        {
          "indexed": false,
          "internalType": "uint256",
          "name": "tokenAmount",
          "type": "uint256"
        }
      ],
      "name": "CreatedCommitment",
      "type": "event"
    },
    {
      "anonymous": false,
      "inputs": [
        {
          "indexed": true,
          "internalType": "uint256",
          "name": "commitmentId",
          "type": "uint256"
        }
      ],
      "name": "DeletedCommitment",
      "type": "event"
    },
    {
      "anonymous": false,
      "inputs": [
        {
          "indexed": true,
          "internalType": "uint256",
          "name": "commitmentId",
          "type": "uint256"
        },
        {
          "indexed": false,
          "internalType": "address",
          "name": "borrower",
          "type": "address"
        },
        {
          "indexed": false,
          "internalType": "uint256",
          "name": "marketId",
          "type": "uint256"
        },
        {
          "indexed": false,
          "internalType": "address",
          "name": "lendingToken",
          "type": "address"
        },
        {
          "indexed": false,
          "internalType": "uint256",
          "name": "tokenAmount",
          "type": "uint256"
        },
        {
          "indexed": true,
          "internalType": "uint256",
          "name": "bidId",
          "type": "uint256"
        }
      ],
      "name": "ExercisedCommitment",
      "type": "event"
    },
    {
      "anonymous": false,
      "inputs": [
        {
          "indexed": false,
          "internalType": "uint8",
          "name": "version",
          "type": "uint8"
        }
      ],
      "name": "Initialized",
      "type": "event"
    },
    {
      "anonymous": false,
      "inputs": [
        {
          "indexed": true,
          "internalType": "uint256",
          "name": "commitmentId",
          "type": "uint256"
        },
        {
          "indexed": false,
          "internalType": "address",
          "name": "lender",
          "type": "address"
        },
        {
          "indexed": false,
          "internalType": "uint256",
          "name": "marketId",
          "type": "uint256"
        },
        {
          "indexed": false,
          "internalType": "address",
          "name": "lendingToken",
          "type": "address"
        },
        {
          "indexed": false,
          "internalType": "uint256",
          "name": "tokenAmount",
          "type": "uint256"
        }
      ],
      "name": "UpdatedCommitment",
      "type": "event"
    },
    {
      "inputs": [],
      "name": "_marketRegistry",
      "outputs": [
        {
          "internalType": "address",
          "name": "",
          "type": "address"
        }
      ],
      "stateMutability": "view",
      "type": "function"
    },
    {
      "inputs": [],
      "name": "_tellerV2",
      "outputs": [
        {
          "internalType": "address",
          "name": "",
          "type": "address"
        }
      ],
      "stateMutability": "view",
      "type": "function"
    },
    {
      "inputs": [
        {
          "internalType": "uint256",
          "name": "_commitmentId",
          "type": "uint256"
        },
        {
          "internalType": "uint256",
          "name": "_principalAmount",
          "type": "uint256"
        },
        {
          "internalType": "uint256",
          "name": "_collateralAmount",
          "type": "uint256"
        },
        {
          "internalType": "uint256",
          "name": "_collateralTokenId",
          "type": "uint256"
        }
      ],
      "name": "acceptCommitment",
      "outputs": [
        {
          "internalType": "uint256",
          "name": "bidId",
          "type": "uint256"
        }
      ],
      "stateMutability": "nonpayable",
      "type": "function"
    },
    {
      "inputs": [
        {
          "components": [
            {
              "internalType": "uint256",
              "name": "maxPrincipal",
              "type": "uint256"
            },
            {
              "internalType": "uint32",
              "name": "expiration",
              "type": "uint32"
            },
            {
              "internalType": "uint32",
              "name": "maxDuration",
              "type": "uint32"
            },
            {
              "internalType": "uint16",
              "name": "minInterestRate",
              "type": "uint16"
            },
            {
              "internalType": "address",
              "name": "collateralTokenAddress",
              "type": "address"
            },
            {
              "internalType": "uint256",
              "name": "collateralTokenId",
              "type": "uint256"
            },
            {
              "internalType": "uint256",
              "name": "maxPrincipalPerCollateralAmount",
              "type": "uint256"
            },
            {
              "internalType": "enum LenderCommitmentForwarder.CommitmentCollateralType",
              "name": "collateralTokenType",
              "type": "uint8"
            },
            {
              "internalType": "address",
              "name": "lender",
              "type": "address"
            },
            {
              "internalType": "uint256",
              "name": "marketId",
              "type": "uint256"
            },
            {
              "internalType": "address",
              "name": "principalTokenAddress",
              "type": "address"
            }
          ],
          "internalType": "struct LenderCommitmentForwarder.Commitment",
          "name": "_commitment",
          "type": "tuple"
        },
        {
          "internalType": "address[]",
          "name": "borrowerAddressList",
          "type": "address[]"
        }
      ],
      "name": "createCommitment",
      "outputs": [
        {
          "internalType": "uint256",
          "name": "commitmentId_",
          "type": "uint256"
        }
      ],
      "stateMutability": "nonpayable",
      "type": "function"
    },
    {
      "inputs": [
        {
          "internalType": "uint256",
          "name": "_commitmentId",
          "type": "uint256"
        }
      ],
      "name": "deleteCommitment",
      "outputs": [],
      "stateMutability": "nonpayable",
      "type": "function"
    },
    {
      "inputs": [
        {
          "internalType": "uint256",
          "name": "_commitmentId",
          "type": "uint256"
        }
      ],
      "name": "getCommitmentBorrowers",
      "outputs": [
        {
          "internalType": "address[]",
          "name": "borrowers_",
          "type": "address[]"
        }
      ],
      "stateMutability": "view",
      "type": "function"
    },
    {
      "inputs": [],
      "name": "getMarketRegistry",
      "outputs": [
        {
          "internalType": "address",
          "name": "",
          "type": "address"
        }
      ],
      "stateMutability": "view",
      "type": "function"
    },
    {
      "inputs": [
        {
          "internalType": "uint256",
          "name": "_principalAmount",
          "type": "uint256"
        },
        {
          "internalType": "uint256",
          "name": "_maxPrincipalPerCollateralAmount",
          "type": "uint256"
        },
        {
          "internalType": "enum LenderCommitmentForwarder.CommitmentCollateralType",
          "name": "_collateralTokenType",
          "type": "uint8"
        },
        {
          "internalType": "address",
          "name": "_collateralTokenAddress",
          "type": "address"
        }
      ],
      "name": "getRequiredCollateral",
      "outputs": [
        {
          "internalType": "uint256",
          "name": "",
          "type": "uint256"
        }
      ],
      "stateMutability": "view",
      "type": "function"
    },
    {
      "inputs": [],
      "name": "getTellerV2",
      "outputs": [
        {
          "internalType": "address",
          "name": "",
          "type": "address"
        }
      ],
      "stateMutability": "view",
      "type": "function"
    },
    {
      "inputs": [
        {
          "internalType": "uint256",
          "name": "marketId",
          "type": "uint256"
        }
      ],
      "name": "getTellerV2MarketOwner",
      "outputs": [
        {
          "internalType": "address",
          "name": "",
          "type": "address"
        }
      ],
      "stateMutability": "nonpayable",
      "type": "function"
    },
    {
      "inputs": [
        {
          "internalType": "uint256",
          "name": "",
          "type": "uint256"
        }
      ],
      "name": "lenderMarketCommitments",
      "outputs": [
        {
          "internalType": "uint256",
          "name": "maxPrincipal",
          "type": "uint256"
        },
        {
          "internalType": "uint32",
          "name": "expiration",
          "type": "uint32"
        },
        {
          "internalType": "uint32",
          "name": "maxDuration",
          "type": "uint32"
        },
        {
          "internalType": "uint16",
          "name": "minInterestRate",
          "type": "uint16"
        },
        {
          "internalType": "address",
          "name": "collateralTokenAddress",
          "type": "address"
        },
        {
          "internalType": "uint256",
          "name": "collateralTokenId",
          "type": "uint256"
        },
        {
          "internalType": "uint256",
          "name": "maxPrincipalPerCollateralAmount",
          "type": "uint256"
        },
        {
          "internalType": "enum LenderCommitmentForwarder.CommitmentCollateralType",
          "name": "collateralTokenType",
          "type": "uint8"
        },
        {
          "internalType": "address",
          "name": "lender",
          "type": "address"
        },
        {
          "internalType": "uint256",
          "name": "marketId",
          "type": "uint256"
        },
        {
          "internalType": "address",
          "name": "principalTokenAddress",
          "type": "address"
        }
      ],
      "stateMutability": "view",
      "type": "function"
    },
    {
      "inputs": [
        {
          "internalType": "uint256",
          "name": "_commitmentId",
          "type": "uint256"
        },
        {
          "components": [
            {
              "internalType": "uint256",
              "name": "maxPrincipal",
              "type": "uint256"
            },
            {
              "internalType": "uint32",
              "name": "expiration",
              "type": "uint32"
            },
            {
              "internalType": "uint32",
              "name": "maxDuration",
              "type": "uint32"
            },
            {
              "internalType": "uint16",
              "name": "minInterestRate",
              "type": "uint16"
            },
            {
              "internalType": "address",
              "name": "collateralTokenAddress",
              "type": "address"
            },
            {
              "internalType": "uint256",
              "name": "collateralTokenId",
              "type": "uint256"
            },
            {
              "internalType": "uint256",
              "name": "maxPrincipalPerCollateralAmount",
              "type": "uint256"
            },
            {
              "internalType": "enum LenderCommitmentForwarder.CommitmentCollateralType",
              "name": "collateralTokenType",
              "type": "uint8"
            },
            {
              "internalType": "address",
              "name": "lender",
              "type": "address"
            },
            {
              "internalType": "uint256",
              "name": "marketId",
              "type": "uint256"
            },
            {
              "internalType": "address",
              "name": "principalTokenAddress",
              "type": "address"
            }
          ],
          "internalType": "struct LenderCommitmentForwarder.Commitment",
          "name": "_commitment",
          "type": "tuple"
        },
        {
          "internalType": "address[]",
          "name": "borrowerAddressList",
          "type": "address[]"
        }
      ],
      "name": "updateCommitment",
      "outputs": [],
      "stateMutability": "nonpayable",
      "type": "function"
    }
  ],
  "bytecode": {
    "object": "0x60c06040523480156200001157600080fd5b5060405162001eb238038062001eb2833981016040819052620000349162000069565b6001600160a01b039182166080521660a052620000a1565b80516001600160a01b03811681146200006457600080fd5b919050565b600080604083850312156200007d57600080fd5b62000088836200004c565b915062000098602084016200004c565b90509250929050565b60805160a051611dcf620000e36000396000818161021c0152818161029201526104670152600081816102420152818161026b01526112090152611dcf6000f3fe608060405234801561001057600080fd5b50600436106100b45760003560e01c8063bfb40bc011610071578063bfb40bc0146101f4578063c1abfa1114610207578063c66b8ed21461021a578063dc003d5a14610240578063eafef46e14610266578063fd7b2d911461028d57600080fd5b806311c35898146100b95780631dcaa70d146100ce57806325852a1a146100fe5780637d458e7b1461011f5780637ddfabd81461013f57806396799c0914610152575b600080fd5b6100cc6100c736600461158d565b6102b4565b005b6100e16100dc3660046115ea565b610446565b6040516001600160a01b0390911681526020015b60405180910390f35b61011161010c366004611603565b6104d8565b6040519081526020016100f5565b61013261012d3660046115ea565b61083d565b6040516100f59190611635565b61011161014d3660046116a4565b610857565b6101dd6101603660046115ea565b6065602052600090815260409020805460018201546002830154600384015460048501546005860154600690960154949563ffffffff8086169664010000000087049091169561ffff600160401b820416956001600160a01b03600160501b9092048216959094909360ff8216936101009092048316929091168b565b6040516100f59b9a99989796959493929190611704565b6100cc6102023660046115ea565b61092c565b6101116102153660046117a0565b610a23565b7f00000000000000000000000000000000000000000000000000000000000000006100e1565b7f00000000000000000000000000000000000000000000000000000000000000006100e1565b6100e17f000000000000000000000000000000000000000000000000000000000000000081565b6100e17f000000000000000000000000000000000000000000000000000000000000000081565b60008481526065602052604090206004015484906001600160a01b0361010090910416331461032a5760405162461bcd60e51b815260206004820152601e60248201527f756e617574686f72697a656420636f6d6d69746d656e74206c656e646572000060448201526064015b60405180910390fd5b60008581526065602052604090208490610344828261185d565b5050600085815260656020526040902061035d90610ba0565b600085815260676020526040812090818161037882826114f6565b5050505060005b828110156103d8576103c584848381811061039c5761039c6119e3565b90506020020160208101906103b191906119f9565b600088815260676020526040902090610d4d565b50806103d081611a2c565b91505061037f565b50847f3639fd8e82fc21d99ff6df2a4a03995fa53f752fddd525d8a9aadccefa788aa061040d610120870161010088016119f9565b61012087013561042561016089016101408a016119f9565b604051610437939291908a3590611a45565b60405180910390a25050505050565b604051633d36902960e01b8152600481018290526000906001600160a01b037f00000000000000000000000000000000000000000000000000000000000000001690633d36902990602401602060405180830381865afa1580156104ae573d6000803e3d6000fd5b505050506040513d601f19601f820116820180604052508101906104d29190611a6f565b92915050565b600084815260656020526040812033906104f181610ba0565b600087815260676020526040902061050890610d69565b1580610527575060008781526067602052604090206105279083610d73565b6105735760405162461bcd60e51b815260206004820181905260248201527f756e617574686f72697a656420636f6d6d69746d656e7420626f72726f7765726044820152606401610321565b80548611156105a25780546040516375d44cf160e11b8152600481019190915260248101879052604401610321565b6003810154600482015460018301546000926105d5928a9260ff90911690600160501b90046001600160a01b0316610857565b9050808610156106025760405163b744c71960e01b81526004810182905260248101879052604401610321565b6002600483015460ff16600581111561061d5761061d6116ee565b1480610640575060048083015460ff16600581111561063e5761063e6116ee565b145b156106ad57856001146106ad5760405162461bcd60e51b815260206004820152602f60248201527f696e76616c696420636f6d6d69746d656e7420636f6c6c61746572616c20616d60448201526e6f756e7420666f722045524337323160881b6064820152608401610321565b6002600483015460ff1660058111156106c8576106c86116ee565b14806106ec57506003600483015460ff1660058111156106ea576106ea6116ee565b145b1561075257848260020154146107525760405162461bcd60e51b815260206004820152602560248201527f696e76616c696420636f6d6d69746d656e7420636f6c6c61746572616c20746f6044820152641ad95b925960da1b6064820152608401610321565b60058201546006830154600184015460048501546107ae93879390926001600160a01b03918216928d92600160501b830416918d918d9160ff90911690640100000000810463ffffffff1690600160401b900461ffff16610d95565b93506107d1848360040160019054906101000a90046001600160a01b0316610ebf565b506107dc8888610f21565b6005820154600683015460405186928b927f117526dabecadc51baac96c1f9ab70d969f3bcc9dde7e15d2c5d08839dc6f3809261082a92899290916001600160a01b03909116908e90611a45565b60405180910390a3505050949350505050565b60008181526067602052604090206060906104d290610f48565b60008083600581111561086c5761086c6116ee565b0361087957506000610924565b600183600581111561088d5761088d6116ee565b03610917576000826001600160a01b031663313ce5676040518163ffffffff1660e01b8152600401602060405180830381865afa1580156108d2573d6000803e3d6000fd5b505050506040513d601f19601f820116820180604052508101906108f69190611a8c565b905061090f8661090783600a611b93565b876001610f55565b915050610924565b6109218585610fb0565b90505b949350505050565b60008181526065602052604090206004015481906001600160a01b0361010090910416331461099d5760405162461bcd60e51b815260206004820152601e60248201527f756e617574686f72697a656420636f6d6d69746d656e74206c656e64657200006044820152606401610321565b6000828152606560205260408082208281556001810180546001600160f01b031916905560028101839055600381018390556004810180546001600160a81b03191690556005810183905560060180546001600160a01b03191690555183917fd278ecade1e148fd8320435541f72d6a02dff654c1577ae2cadecba16e8ef21491a25050565b6066805460009182610a3483611a2c565b90915550905033610a4d610120860161010087016119f9565b6001600160a01b031614610aa35760405162461bcd60e51b815260206004820152601f60248201527f756e617574686f72697a656420636f6d6d69746d656e742063726561746f72006044820152606401610321565b60008181526065602052604090208490610abd828261185d565b50506000818152606560205260409020610ad690610ba0565b60005b82811015610b3257610b1f848483818110610af657610af66119e3565b9050602002016020810190610b0b91906119f9565b600084815260676020526040902090610d4d565b5080610b2a81611a2c565b915050610ad9565b50807f16b531d6c0bbff6da27b922e61fc528bb3ae5b435f9e56fb87e399afb6ae520a610b67610120870161010088016119f9565b610120870135610b7f61016089016101408a016119f9565b604051610b91939291908a3590611a45565b60405180910390a29392505050565b600181015463ffffffff428116911611610bf15760405162461bcd60e51b8152602060048201526012602482015271195e1c1a5c99590818dbdb5b5a5d1b595b9d60721b6044820152606401610321565b8054610c495760405162461bcd60e51b815260206004820152602160248201527f636f6d6d69746d656e74207072696e636970616c20616c6c6f636174696f6e206044820152600360fc1b6064820152608401610321565b6000600482015460ff166005811115610c6457610c646116ee565b14610d4a576000816003015411610cbd5760405162461bcd60e51b815260206004820152601d60248201527f636f6d6d69746d656e7420636f6c6c61746572616c20726174696f20300000006044820152606401610321565b6001600482015460ff166005811115610cd857610cd86116ee565b03610d4a57600281015415610d4a5760405162461bcd60e51b815260206004820152603260248201527f636f6d6d69746d656e7420636f6c6c61746572616c20746f6b656e206964206d6044820152710757374206265203020666f722045524332360741b6064820152608401610321565b50565b6000610d62836001600160a01b038416610fe7565b9392505050565b60006104d2825490565b6001600160a01b03811660009081526001830160205260408120541515610d62565b6040805160e081018252606060a08201819052600060c083018190528c83526001600160a01b038c1660208401529282018a905263ffffffff85168183015261ffff8416608083015282866005811115610df157610df16116ee565b14610ea35760408051600180825281830190925290816020015b604080516080810182526000808252602080830182905292820181905260608201528252600019909201910181610e0b5790505090506040518060800160405280610e5588611036565b6002811115610e6657610e666116ee565b81526020018981526020018881526020018a6001600160a01b031681525081600081518110610e9757610e976119e3565b60200260200101819052505b610eae82828f61111d565b9d9c50505050505050505050505050565b6000610f1763a8cb5d6860e01b84604051602401610edf91815260200190565b60408051601f198184030181529190526020810180516001600160e01b03166001600160e01b031990931692909217909152836111d7565b5060019392505050565b60008281526065602052604081208054839290610f3f908490611ba2565b90915550505050565b60606000610d628361122f565b600080610f6386868661128b565b90506001836002811115610f7957610f796116ee565b148015610f96575060008480610f9157610f91611bb5565b868809115b1561092157610fa6600182611bcb565b9695505050505050565b60008215610fde5781610fc4600185611ba2565b610fce9190611bde565b610fd9906001611bcb565b610d62565b50600092915050565b600081815260018301602052604081205461102e575081546001818101845560008481526020808220909301849055845484825282860190935260409020919091556104d2565b5060006104d2565b6000600182600581111561104c5761104c6116ee565b0361105957506000919050565b600282600581111561106d5761106d6116ee565b148061108a57506004826005811115611088576110886116ee565b145b1561109757506001919050565b60038260058111156110ab576110ab6116ee565b14806110c8575060058260058111156110c6576110c66116ee565b145b156110d557506002919050565b60405162461bcd60e51b815260206004820152601760248201527f556e6b6e6f776e20436f6c6c61746572616c20547970650000000000000000006044820152606401610321565b600060606111b87f7bbd53d737ed1c027135fcab72101b4ef195927d7d2d491dcedb08d60e474d3986602001518760000151886040015189606001518a608001518b60a001518c60c001518c604051602401611180989796959493929190611c50565b60408051601f198184030181529190526020810180516001600160e01b03166001600160e01b031990931692909217909152846111d7565b9050808060200190518101906111ce9190611d1a565b95945050505050565b6060610d6283836040516020016111ef929190611d33565b60408051601f198184030181529190526001600160a01b037f0000000000000000000000000000000000000000000000000000000000000000169061133a565b60608160000180548060200260200160405190810160405280929190818152602001828054801561127f57602002820191906000526020600020905b81548152602001906001019080831161126b575b50505050509050919050565b60008080600019858709858702925082811083820303915050806000036112c5578382816112bb576112bb611bb5565b0492505050610d62565b8084116112d157600080fd5b60008486880960026001871981018816978890046003810283188082028403028082028403028082028403028082028403028082028403029081029092039091026000889003889004909101858311909403939093029303949094049190911702949350505050565b6060610d62838360006040518060400160405280601e81526020017f416464726573733a206c6f772d6c6576656c2063616c6c206661696c656400008152506060824710156113da5760405162461bcd60e51b815260206004820152602660248201527f416464726573733a20696e73756666696369656e742062616c616e636520666f6044820152651c8818d85b1b60d21b6064820152608401610321565b600080866001600160a01b031685876040516113f69190611d6a565b60006040518083038185875af1925050503d8060008114611433576040519150601f19603f3d011682016040523d82523d6000602084013e611438565b606091505b509150915061144987838387611454565b979650505050505050565b606083156114c35782516000036114bc576001600160a01b0385163b6114bc5760405162461bcd60e51b815260206004820152601d60248201527f416464726573733a2063616c6c20746f206e6f6e2d636f6e74726163740000006044820152606401610321565b5081610924565b61092483838151156114d85781518083602001fd5b8060405162461bcd60e51b81526004016103219190611d86565b5050565b5080546000825590600052602060002090810190610d4a91905b808211156115245760008155600101611510565b5090565b6000610160828403121561153b57600080fd5b50919050565b60008083601f84011261155357600080fd5b50813567ffffffffffffffff81111561156b57600080fd5b6020830191508360208260051b850101111561158657600080fd5b9250929050565b6000806000806101a085870312156115a457600080fd5b843593506115b58660208701611528565b925061018085013567ffffffffffffffff8111156115d257600080fd5b6115de87828801611541565b95989497509550505050565b6000602082840312156115fc57600080fd5b5035919050565b6000806000806080858703121561161957600080fd5b5050823594602084013594506040840135936060013592509050565b6020808252825182820181905260009190848201906040850190845b818110156116765783516001600160a01b031683529284019291840191600101611651565b50909695505050505050565b60068110610d4a57600080fd5b6001600160a01b0381168114610d4a57600080fd5b600080600080608085870312156116ba57600080fd5b843593506020850135925060408501356116d381611682565b915060608501356116e38161168f565b939692955090935050565b634e487b7160e01b600052602160045260246000fd5b8b815263ffffffff8b811660208301528a16604082015261ffff891660608201526001600160a01b038816608082015260a0810187905260c08101869052610160810160068610611757576117576116ee565b8560e08301526117736101008301866001600160a01b03169052565b836101208301526117906101408301846001600160a01b03169052565b9c9b505050505050505050505050565b600080600061018084860312156117b657600080fd5b6117c08585611528565b925061016084013567ffffffffffffffff8111156117dd57600080fd5b6117e986828701611541565b9497909650939450505050565b6000813563ffffffff811681146104d257600080fd5b6000813561ffff811681146104d257600080fd5b600081356104d28161168f565b600081356104d281611682565b6006821061184a5761184a6116ee565b60ff1981541660ff831681178255505050565b813581556001810161188b611874602085016117f6565b825463ffffffff191663ffffffff91909116178255565b6118bc61189a604085016117f6565b825467ffffffff00000000191660209190911b67ffffffff0000000016178255565b6118f16118cb6060850161180c565b825469ffff0000000000000000191660409190911b69ffff000000000000000016178255565b61193f61190060808501611820565b8280547fffff0000000000000000000000000000000000000000ffffffffffffffffffff1660509290921b600160501b600160f01b0316919091179055565b5060a0820135600282015560c082013560038201556004810161196d61196760e0850161182d565b8261183a565b6119a361197d6101008501611820565b828054610100600160a81b03191660089290921b610100600160a81b0316919091179055565b5061012082013560058201556114f26119bf6101408401611820565b6006830180546001600160a01b0319166001600160a01b0392909216919091179055565b634e487b7160e01b600052603260045260246000fd5b600060208284031215611a0b57600080fd5b8135610d628161168f565b634e487b7160e01b600052601160045260246000fd5b600060018201611a3e57611a3e611a16565b5060010190565b6001600160a01b039485168152602081019390935292166040820152606081019190915260800190565b600060208284031215611a8157600080fd5b8151610d628161168f565b600060208284031215611a9e57600080fd5b815160ff81168114610d6257600080fd5b600181815b80851115611aea578160001904821115611ad057611ad0611a16565b80851615611add57918102915b93841c9390800290611ab4565b509250929050565b600082611b01575060016104d2565b81611b0e575060006104d2565b8160018114611b245760028114611b2e57611b4a565b60019150506104d2565b60ff841115611b3f57611b3f611a16565b50506001821b6104d2565b5060208310610133831016604e8410600b8410161715611b6d575081810a6104d2565b611b778383611aaf565b8060001904821115611b8b57611b8b611a16565b029392505050565b6000610d6260ff841683611af2565b818103818111156104d2576104d2611a16565b634e487b7160e01b600052601260045260246000fd5b808201808211156104d2576104d2611a16565b600082611bfb57634e487b7160e01b600052601260045260246000fd5b500490565b60005b83811015611c1b578181015183820152602001611c03565b50506000910152565b60008151808452611c3c816020860160208601611c00565b601f01601f19169290920160200192915050565b600061010060018060a01b03808c16845260208b8186015260408b81870152606063ffffffff8c1681880152608061ffff8c16818901528560a0890152611c998689018c611c24565b8a861660c08a015288810360e08a01528951808252858b0197509085019060005b81811015611d01578851805160038110611cd657611cd66116ee565b8452808801518885015286810151878501528501518816858401529786019791830191600101611cba565b5050809750505050505050509998505050505050505050565b600060208284031215611d2c57600080fd5b5051919050565b60008351611d45818460208801611c00565b60609390931b6bffffffffffffffffffffffff19169190920190815260140192915050565b60008251611d7c818460208701611c00565b9190910192915050565b602081526000610d626020830184611c2456fea2646970667358221220f8d0ae10802472d5c6d6ae62863681c0ec00f9809a1cf6a8c9e47eb95251684b64736f6c63430008110033",
    "linkReferences": {}
  },
  "methodIdentifiers": {
    "_marketRegistry()": "fd7b2d91",
    "_tellerV2()": "eafef46e",
    "acceptCommitment(uint256,uint256,uint256,uint256)": "25852a1a",
    "createCommitment((uint256,uint32,uint32,uint16,address,uint256,uint256,uint8,address,uint256,address),address[])": "c1abfa11",
    "deleteCommitment(uint256)": "bfb40bc0",
    "getCommitmentBorrowers(uint256)": "7d458e7b",
    "getMarketRegistry()": "c66b8ed2",
    "getRequiredCollateral(uint256,uint256,uint8,address)": "7ddfabd8",
    "getTellerV2()": "dc003d5a",
    "getTellerV2MarketOwner(uint256)": "1dcaa70d",
    "lenderMarketCommitments(uint256)": "96799c09",
    "updateCommitment(uint256,(uint256,uint32,uint32,uint16,address,uint256,uint256,uint8,address,uint256,address),address[])": "11c35898"
  },
  "id": 4
}