{
  "abi": [
    {
      "inputs": [
        {
          "internalType": "address",
          "name": "_protocolAddress",
          "type": "address"
        },
        {
          "internalType": "address",
          "name": "_marketRegistry",
          "type": "address"
        }
      ],
      "stateMutability": "nonpayable",
      "type": "constructor"
    },
    {
      "inputs": [
        {
          "internalType": "uint256",
          "name": "required",
          "type": "uint256"
        },
        {
          "internalType": "uint256",
          "name": "actual",
          "type": "uint256"
        }
      ],
      "name": "InsufficientBorrowerCollateral",
      "type": "error"
    },
    {
      "inputs": [
        {
          "internalType": "uint256",
          "name": "allocated",
          "type": "uint256"
        },
        {
          "internalType": "uint256",
          "name": "requested",
          "type": "uint256"
        }
      ],
      "name": "InsufficientCommitmentAllocation",
      "type": "error"
    },
    {
      "anonymous": false,
      "inputs": [
        {
          "indexed": true,
          "internalType": "uint256",
          "name": "commitmentId",
          "type": "uint256"
        },
        {
          "indexed": false,
          "internalType": "address",
          "name": "lender",
          "type": "address"
        },
        {
          "indexed": false,
          "internalType": "uint256",
          "name": "marketId",
          "type": "uint256"
        },
        {
          "indexed": false,
          "internalType": "address",
          "name": "lendingToken",
          "type": "address"
        },
        {
          "indexed": false,
          "internalType": "uint256",
          "name": "tokenAmount",
          "type": "uint256"
        }
      ],
      "name": "CreatedCommitment",
      "type": "event"
    },
    {
      "anonymous": false,
      "inputs": [
        {
          "indexed": true,
          "internalType": "uint256",
          "name": "commitmentId",
          "type": "uint256"
        }
      ],
      "name": "DeletedCommitment",
      "type": "event"
    },
    {
      "anonymous": false,
      "inputs": [
        {
          "indexed": true,
          "internalType": "uint256",
          "name": "commitmentId",
          "type": "uint256"
        },
        {
          "indexed": false,
          "internalType": "address",
          "name": "borrower",
          "type": "address"
        },
        {
          "indexed": false,
          "internalType": "uint256",
          "name": "tokenAmount",
          "type": "uint256"
        },
        {
          "indexed": false,
          "internalType": "uint256",
          "name": "bidId",
          "type": "uint256"
        }
      ],
      "name": "ExercisedCommitment",
      "type": "event"
    },
    {
      "anonymous": false,
      "inputs": [
        {
          "indexed": false,
          "internalType": "uint8",
          "name": "version",
          "type": "uint8"
        }
      ],
      "name": "Initialized",
      "type": "event"
    },
    {
      "anonymous": false,
      "inputs": [
        {
          "indexed": true,
          "internalType": "uint256",
          "name": "commitmentId",
          "type": "uint256"
        },
        {
          "indexed": false,
          "internalType": "address",
          "name": "lender",
          "type": "address"
        },
        {
          "indexed": false,
          "internalType": "uint256",
          "name": "marketId",
          "type": "uint256"
        },
        {
          "indexed": false,
          "internalType": "address",
          "name": "lendingToken",
          "type": "address"
        },
        {
          "indexed": false,
          "internalType": "uint256",
          "name": "tokenAmount",
          "type": "uint256"
        }
      ],
      "name": "UpdatedCommitment",
      "type": "event"
    },
    {
      "anonymous": false,
      "inputs": [
        {
          "indexed": true,
          "internalType": "uint256",
          "name": "commitmentId",
          "type": "uint256"
        }
      ],
      "name": "UpdatedCommitmentBorrowers",
      "type": "event"
    },
    {
      "inputs": [],
      "name": "_marketRegistry",
      "outputs": [
        {
          "internalType": "address",
          "name": "",
          "type": "address"
        }
      ],
      "stateMutability": "view",
      "type": "function"
    },
    {
      "inputs": [],
      "name": "_tellerV2",
      "outputs": [
        {
          "internalType": "address",
          "name": "",
          "type": "address"
        }
      ],
      "stateMutability": "view",
      "type": "function"
    },
    {
      "inputs": [
        {
          "internalType": "uint256",
          "name": "_commitmentId",
          "type": "uint256"
        },
        {
          "internalType": "uint256",
          "name": "_principalAmount",
          "type": "uint256"
        },
        {
          "internalType": "uint256",
          "name": "_collateralAmount",
          "type": "uint256"
        },
        {
          "internalType": "uint256",
          "name": "_collateralTokenId",
          "type": "uint256"
        },
        {
          "internalType": "address",
          "name": "_collateralTokenAddress",
          "type": "address"
        },
        {
          "internalType": "uint16",
          "name": "_interestRate",
          "type": "uint16"
        },
        {
          "internalType": "uint32",
          "name": "_loanDuration",
          "type": "uint32"
        }
      ],
      "name": "acceptCommitment",
      "outputs": [
        {
          "internalType": "uint256",
          "name": "bidId",
          "type": "uint256"
        }
      ],
      "stateMutability": "nonpayable",
      "type": "function"
    },
    {
      "inputs": [
        {
          "internalType": "uint256",
          "name": "",
          "type": "uint256"
        }
      ],
      "name": "commitments",
      "outputs": [
        {
          "internalType": "uint256",
          "name": "maxPrincipal",
          "type": "uint256"
        },
        {
          "internalType": "uint32",
          "name": "expiration",
          "type": "uint32"
        },
        {
          "internalType": "uint32",
          "name": "maxDuration",
          "type": "uint32"
        },
        {
          "internalType": "uint16",
          "name": "minInterestRate",
          "type": "uint16"
        },
        {
          "internalType": "address",
          "name": "collateralTokenAddress",
          "type": "address"
        },
        {
          "internalType": "uint256",
          "name": "collateralTokenId",
          "type": "uint256"
        },
        {
          "internalType": "uint256",
          "name": "maxPrincipalPerCollateralAmount",
          "type": "uint256"
        },
        {
          "internalType": "enum LenderCommitmentForwarder.CommitmentCollateralType",
          "name": "collateralTokenType",
          "type": "uint8"
        },
        {
          "internalType": "address",
          "name": "lender",
          "type": "address"
        },
        {
          "internalType": "uint256",
          "name": "marketId",
          "type": "uint256"
        },
        {
          "internalType": "address",
          "name": "principalTokenAddress",
          "type": "address"
        }
      ],
      "stateMutability": "view",
      "type": "function"
    },
    {
      "inputs": [
        {
          "components": [
            {
              "internalType": "uint256",
              "name": "maxPrincipal",
              "type": "uint256"
            },
            {
              "internalType": "uint32",
              "name": "expiration",
              "type": "uint32"
            },
            {
              "internalType": "uint32",
              "name": "maxDuration",
              "type": "uint32"
            },
            {
              "internalType": "uint16",
              "name": "minInterestRate",
              "type": "uint16"
            },
            {
              "internalType": "address",
              "name": "collateralTokenAddress",
              "type": "address"
            },
            {
              "internalType": "uint256",
              "name": "collateralTokenId",
              "type": "uint256"
            },
            {
              "internalType": "uint256",
              "name": "maxPrincipalPerCollateralAmount",
              "type": "uint256"
            },
            {
              "internalType": "enum LenderCommitmentForwarder.CommitmentCollateralType",
              "name": "collateralTokenType",
              "type": "uint8"
            },
            {
              "internalType": "address",
              "name": "lender",
              "type": "address"
            },
            {
              "internalType": "uint256",
              "name": "marketId",
              "type": "uint256"
            },
            {
              "internalType": "address",
              "name": "principalTokenAddress",
              "type": "address"
            }
          ],
          "internalType": "struct LenderCommitmentForwarder.Commitment",
          "name": "_commitment",
          "type": "tuple"
        },
        {
          "internalType": "address[]",
          "name": "_borrowerAddressList",
          "type": "address[]"
        }
      ],
      "name": "createCommitment",
      "outputs": [
        {
          "internalType": "uint256",
          "name": "commitmentId_",
          "type": "uint256"
        }
      ],
      "stateMutability": "nonpayable",
      "type": "function"
    },
    {
      "inputs": [
        {
          "internalType": "uint256",
          "name": "_commitmentId",
          "type": "uint256"
        }
      ],
      "name": "deleteCommitment",
      "outputs": [],
      "stateMutability": "nonpayable",
      "type": "function"
    },
    {
      "inputs": [
        {
          "internalType": "uint256",
          "name": "_commitmentId",
          "type": "uint256"
        }
      ],
      "name": "getCommitmentBorrowers",
      "outputs": [
        {
          "internalType": "address[]",
          "name": "borrowers_",
          "type": "address[]"
        }
      ],
      "stateMutability": "view",
      "type": "function"
    },
    {
      "inputs": [],
      "name": "getMarketRegistry",
      "outputs": [
        {
          "internalType": "address",
          "name": "",
          "type": "address"
        }
      ],
      "stateMutability": "view",
      "type": "function"
    },
    {
      "inputs": [
        {
          "internalType": "uint256",
          "name": "_principalAmount",
          "type": "uint256"
        },
        {
          "internalType": "uint256",
          "name": "_maxPrincipalPerCollateralAmount",
          "type": "uint256"
        },
        {
          "internalType": "enum LenderCommitmentForwarder.CommitmentCollateralType",
          "name": "_collateralTokenType",
          "type": "uint8"
        },
        {
          "internalType": "address",
          "name": "_collateralTokenAddress",
          "type": "address"
        },
        {
          "internalType": "address",
          "name": "_principalTokenAddress",
          "type": "address"
        }
      ],
      "name": "getRequiredCollateral",
      "outputs": [
        {
          "internalType": "uint256",
          "name": "",
          "type": "uint256"
        }
      ],
      "stateMutability": "view",
      "type": "function"
    },
    {
      "inputs": [],
      "name": "getTellerV2",
      "outputs": [
        {
          "internalType": "address",
          "name": "",
          "type": "address"
        }
      ],
      "stateMutability": "view",
      "type": "function"
    },
    {
      "inputs": [
        {
          "internalType": "uint256",
          "name": "marketId",
          "type": "uint256"
        }
      ],
      "name": "getTellerV2MarketOwner",
      "outputs": [
        {
          "internalType": "address",
          "name": "",
          "type": "address"
        }
      ],
      "stateMutability": "nonpayable",
      "type": "function"
    },
    {
      "inputs": [
        {
          "internalType": "uint256",
          "name": "_commitmentId",
          "type": "uint256"
        },
        {
          "components": [
            {
              "internalType": "uint256",
              "name": "maxPrincipal",
              "type": "uint256"
            },
            {
              "internalType": "uint32",
              "name": "expiration",
              "type": "uint32"
            },
            {
              "internalType": "uint32",
              "name": "maxDuration",
              "type": "uint32"
            },
            {
              "internalType": "uint16",
              "name": "minInterestRate",
              "type": "uint16"
            },
            {
              "internalType": "address",
              "name": "collateralTokenAddress",
              "type": "address"
            },
            {
              "internalType": "uint256",
              "name": "collateralTokenId",
              "type": "uint256"
            },
            {
              "internalType": "uint256",
              "name": "maxPrincipalPerCollateralAmount",
              "type": "uint256"
            },
            {
              "internalType": "enum LenderCommitmentForwarder.CommitmentCollateralType",
              "name": "collateralTokenType",
              "type": "uint8"
            },
            {
              "internalType": "address",
              "name": "lender",
              "type": "address"
            },
            {
              "internalType": "uint256",
              "name": "marketId",
              "type": "uint256"
            },
            {
              "internalType": "address",
              "name": "principalTokenAddress",
              "type": "address"
            }
          ],
          "internalType": "struct LenderCommitmentForwarder.Commitment",
          "name": "_commitment",
          "type": "tuple"
        }
      ],
      "name": "updateCommitment",
      "outputs": [],
      "stateMutability": "nonpayable",
      "type": "function"
    },
    {
      "inputs": [
        {
          "internalType": "uint256",
          "name": "_commitmentId",
          "type": "uint256"
        },
        {
          "internalType": "address[]",
          "name": "_borrowerAddressList",
          "type": "address[]"
        }
      ],
      "name": "updateCommitmentBorrowers",
      "outputs": [],
      "stateMutability": "nonpayable",
      "type": "function"
    }
  ],
  "bytecode": {
    "object": "0x60c06040523480156200001157600080fd5b506040516200218a3803806200218a833981016040819052620000349162000069565b6001600160a01b039182166080521660a052620000a1565b80516001600160a01b03811681146200006457600080fd5b919050565b600080604083850312156200007d57600080fd5b62000088836200004c565b915062000098602084016200004c565b90509250929050565b60805160a0516120a7620000e36000396000818161024a015281816102c001526104fd01526000818161027001528181610299015261140901526120a76000f3fe608060405234801561001057600080fd5b50600436106100cf5760003560e01c80637d458e7b1161008c578063c66b8ed211610066578063c66b8ed214610248578063dc003d5a1461026e578063eafef46e14610294578063fd7b2d91146102bb57600080fd5b80637d458e7b14610202578063bfb40bc014610222578063c1abfa111461023557600080fd5b80631409a2e4146100d45780631dcaa70d146100e957806349ce899714610119578063592113d0146101bb5780635ec77a81146101dc5780637479208b146101ef575b600080fd5b6100e76100e23660046117aa565b6102e2565b005b6100fc6100f73660046117d8565b6104dc565b6040516001600160a01b0390911681526020015b60405180910390f35b6101a46101273660046117d8565b6065602052600090815260409020805460018201546002830154600384015460048501546005860154600690960154949563ffffffff8086169664010000000087049091169561ffff600160401b820416956001600160a01b03600160501b9092048216959094909360ff8216936101009092048316929091168b565b6040516101109b9a99989796959493929190611807565b6101ce6101c93660046118da565b61056e565b604051908152602001610110565b6100e76101ea366004611998565b6109f7565b6101ce6101fd3660046119f1565b610a93565b6102156102103660046117d8565b610bc9565b6040516101109190611a50565b6100e76102303660046117d8565b610be3565b6101ce610243366004611a9d565b610cc9565b7f00000000000000000000000000000000000000000000000000000000000000006100fc565b7f00000000000000000000000000000000000000000000000000000000000000006100fc565b6100fc7f000000000000000000000000000000000000000000000000000000000000000081565b6100fc7f000000000000000000000000000000000000000000000000000000000000000081565b60008281526065602052604090206004015482906001600160a01b0361010090910416331461032c5760405162461bcd60e51b815260040161032390611ada565b60405180910390fd5b6000838152606560205260409020600601546001600160a01b031661035961016084016101408501611b11565b6001600160a01b0316146103c25760405162461bcd60e51b815260206004820152602a60248201527f5072696e636970616c20746f6b656e20616464726573732063616e6e6f74206260448201526932903ab83230ba32b21760b11b6064820152608401610323565b600083815260656020526040902060050154610120830135146104275760405162461bcd60e51b815260206004820152601c60248201527f4d61726b65742049642063616e6e6f7420626520757064617465642e000000006044820152606401610323565b600083815260656020526040902082906104418282611b85565b5050600083815260656020526040902061045a90610e0b565b827f3639fd8e82fc21d99ff6df2a4a03995fa53f752fddd525d8a9aadccefa788aa061048e61012085016101008601611b11565b6101208501356104a661016087016101408801611b11565b604080516001600160a01b03948516815260208101939093529216818301528535606082015290519081900360800190a2505050565b604051633d36902960e01b8152600481018290526000906001600160a01b037f00000000000000000000000000000000000000000000000000000000000000001690633d36902990602401602060405180830381865afa158015610544573d6000803e3d6000fd5b505050506040513d601f19601f820116820180604052508101906105689190611d0b565b92915050565b6000878152606560205260408120339061058781610e0b565b60018101546001600160a01b03878116600160501b90920416146105ed5760405162461bcd60e51b815260206004820152601c60248201527f4d69736d61746368696e6720636f6c6c61746572616c20746f6b656e000000006044820152606401610323565b600181015461ffff600160401b909104811690861610156106485760405162461bcd60e51b8152602060048201526015602482015274496e76616c696420696e746572657374207261746560581b6044820152606401610323565b600181015463ffffffff640100000000909104811690851611156106ae5760405162461bcd60e51b815260206004820152601960248201527f496e76616c6964206c6f616e206d6178206475726174696f6e000000000000006044820152606401610323565b60008a81526067602052604090206106c590610fb8565b15806106e4575060008a81526067602052604090206106e49083610fc2565b6107305760405162461bcd60e51b815260206004820181905260248201527f756e617574686f72697a656420636f6d6d69746d656e7420626f72726f7765726044820152606401610323565b805489111561075f5780546040516375d44cf160e11b81526004810191909152602481018a9052604401610323565b600381015460048201546001830154600684015460009361079d938e93919260ff909116916001600160a01b03600160501b90910481169116610a93565b9050808910156107ca5760405163b744c71960e01b815260048101829052602481018a9052604401610323565b6002600483015460ff1660058111156107e5576107e56117f1565b1480610808575060048083015460ff166005811115610806576108066117f1565b145b1561087557886001146108755760405162461bcd60e51b815260206004820152602f60248201527f696e76616c696420636f6d6d69746d656e7420636f6c6c61746572616c20616d60448201526e6f756e7420666f722045524337323160881b6064820152608401610323565b6002600483015460ff166005811115610890576108906117f1565b14806108b457506003600483015460ff1660058111156108b2576108b26117f1565b145b1561091a578782600201541461091a5760405162461bcd60e51b815260206004820152602560248201527f696e76616c696420636f6d6d69746d656e7420636f6c6c61746572616c20746f6044820152641ad95b925960da1b6064820152608401610323565b61096f8383600501548460060160009054906101000a90046001600160a01b03168d86600101600a9054906101000a90046001600160a01b03168e8e8960040160009054906101000a900460ff168d8f610fe7565b9350610992848360040160019054906101000a90046001600160a01b0316611111565b5061099d8b8b611173565b604080516001600160a01b0385168152602081018c90529081018590528b907f7839c0e772fbc0df2f1be83221fb8cd10f50be73dac060cbb277ee5c856219309060600160405180910390a2505050979650505050505050565b60008381526065602052604090206004015483906001600160a01b03610100909104163314610a385760405162461bcd60e51b815260040161032390611ada565b6000848152606760205260408120908181610a53828261175f565b50505050610a6284848461119a565b60405184907f04224de4972d2a55e811df57692f065a266ea975d06938d50b3cb33b498b161790600090a250505050565b600080846005811115610aa857610aa86117f1565b03610ab557506000610bc0565b600080836001600160a01b031663313ce5676040518163ffffffff1660e01b8152600401602060405180830381865afa158015610af6573d6000803e3d6000fd5b505050506040513d601f19601f82011682018060405250810190610b1a9190611d28565b90506001866005811115610b3057610b306117f1565b03610b9a57846001600160a01b031663313ce5676040518163ffffffff1660e01b8152600401602060405180830381865afa158015610b73573d6000803e3d6000fd5b505050506040513d601f19601f82011682018060405250810190610b979190611d28565b91505b610bbb88610ba88385611d61565b610bb390600a611e5e565b8960016111fc565b925050505b95945050505050565b60008181526067602052604090206060906105689061125b565b60008181526065602052604090206004015481906001600160a01b03610100909104163314610c245760405162461bcd60e51b815260040161032390611ada565b60008281526065602090815260408083208381556001810180546001600160f01b031916905560028101849055600381018490556004810180546001600160a81b03191690556005810184905560060180546001600160a01b031916905560679091528120908181610c96828261175f565b50506040518492507fd278ecade1e148fd8320435541f72d6a02dff654c1577ae2cadecba16e8ef2149150600090a25050565b6066805460009182610cda83611e6d565b90915550905033610cf361012086016101008701611b11565b6001600160a01b031614610d495760405162461bcd60e51b815260206004820152601f60248201527f756e617574686f72697a656420636f6d6d69746d656e742063726561746f72006044820152606401610323565b60008181526065602052604090208490610d638282611b85565b50506000818152606560205260409020610d7c90610e0b565b610d8781848461119a565b807f16b531d6c0bbff6da27b922e61fc528bb3ae5b435f9e56fb87e399afb6ae520a610dbb61012087016101008801611b11565b610120870135610dd361016089016101408a01611b11565b604080516001600160a01b03948516815260208101939093529216818301528735606082015290519081900360800190a29392505050565b600181015463ffffffff428116911611610e5c5760405162461bcd60e51b8152602060048201526012602482015271195e1c1a5c99590818dbdb5b5a5d1b595b9d60721b6044820152606401610323565b8054610eb45760405162461bcd60e51b815260206004820152602160248201527f636f6d6d69746d656e74207072696e636970616c20616c6c6f636174696f6e206044820152600360fc1b6064820152608401610323565b6000600482015460ff166005811115610ecf57610ecf6117f1565b14610fb5576000816003015411610f285760405162461bcd60e51b815260206004820152601d60248201527f636f6d6d69746d656e7420636f6c6c61746572616c20726174696f20300000006044820152606401610323565b6001600482015460ff166005811115610f4357610f436117f1565b03610fb557600281015415610fb55760405162461bcd60e51b815260206004820152603260248201527f636f6d6d69746d656e7420636f6c6c61746572616c20746f6b656e206964206d6044820152710757374206265203020666f722045524332360741b6064820152608401610323565b50565b6000610568825490565b6001600160a01b038116600090815260018301602052604081205415155b9392505050565b6040805160e081018252606060a08201819052600060c083018190528c83526001600160a01b038c1660208401529282018a905263ffffffff85168183015261ffff8416608083015282866005811115611043576110436117f1565b146110f55760408051600180825281830190925290816020015b60408051608081018252600080825260208083018290529282018190526060820152825260001990920191018161105d57905050905060405180608001604052806110a788611268565b60028111156110b8576110b86117f1565b81526020018981526020018881526020018a6001600160a01b0316815250816000815181106110e9576110e9611e86565b60200260200101819052505b61110082828f61134f565b9d9c50505050505050505050505050565b600061116963a8cb5d6860e01b8460405160240161113191815260200190565b60408051601f198184030181529190526020810180516001600160e01b03166001600160e01b031990931692909217909152836113d7565b5060019392505050565b60008281526065602052604081208054839290611191908490611e9c565b90915550505050565b60005b818110156111f6576111e38383838181106111ba576111ba611e86565b90506020020160208101906111cf9190611b11565b60008681526067602052604090209061142f565b50806111ee81611e6d565b91505061119d565b50505050565b60008061120a868686611444565b90506001836002811115611220576112206117f1565b14801561123d57506000848061123857611238611eaf565b868809115b156112505761124d600182611ec5565b90505b90505b949350505050565b60606000610fe0836114f3565b6000600182600581111561127e5761127e6117f1565b0361128b57506000919050565b600282600581111561129f5761129f6117f1565b14806112bc575060048260058111156112ba576112ba6117f1565b145b156112c957506001919050565b60038260058111156112dd576112dd6117f1565b14806112fa575060058260058111156112f8576112f86117f1565b145b1561130757506002919050565b60405162461bcd60e51b815260206004820152601760248201527f556e6b6e6f776e20436f6c6c61746572616c20547970650000000000000000006044820152606401610323565b600060606113c1856020015186600001518760400151886060015189608001518a60a001518b60c001518b604051602401611391989796959493929190611f28565b60408051601f198184030181529190526020810180516001600160e01b0316637bbd53d760e01b179052846113d7565b905080806020019051810190610bc09190611ff2565b6060610fe083836040516020016113ef92919061200b565b60408051601f198184030181529190526001600160a01b037f0000000000000000000000000000000000000000000000000000000000000000169061154f565b6000610fe0836001600160a01b038416611593565b600080806000198587098587029250828110838203039150508060000361147e5783828161147457611474611eaf565b0492505050610fe0565b80841161148a57600080fd5b60008486880960026001871981018816978890046003810283188082028403028082028403028082028403028082028403028082028403029081029092039091026000889003889004909101858311909403939093029303949094049190911702949350505050565b60608160000180548060200260200160405190810160405280929190818152602001828054801561154357602002820191906000526020600020905b81548152602001906001019080831161152f575b50505050509050919050565b6060610fe0838360006040518060400160405280601e81526020017f416464726573733a206c6f772d6c6576656c2063616c6c206661696c656400008152506115e2565b60008181526001830160205260408120546115da57508154600181810184556000848152602080822090930184905584548482528286019093526040902091909155610568565b506000610568565b6060824710156116435760405162461bcd60e51b815260206004820152602660248201527f416464726573733a20696e73756666696369656e742062616c616e636520666f6044820152651c8818d85b1b60d21b6064820152608401610323565b600080866001600160a01b0316858760405161165f9190612042565b60006040518083038185875af1925050503d806000811461169c576040519150601f19603f3d011682016040523d82523d6000602084013e6116a1565b606091505b50915091506116b2878383876116bd565b979650505050505050565b6060831561172c578251600003611725576001600160a01b0385163b6117255760405162461bcd60e51b815260206004820152601d60248201527f416464726573733a2063616c6c20746f206e6f6e2d636f6e74726163740000006044820152606401610323565b5081611253565b61125383838151156117415781518083602001fd5b8060405162461bcd60e51b8152600401610323919061205e565b5050565b5080546000825590600052602060002090810190610fb591905b8082111561178d5760008155600101611779565b5090565b600061016082840312156117a457600080fd5b50919050565b60008061018083850312156117be57600080fd5b823591506117cf8460208501611791565b90509250929050565b6000602082840312156117ea57600080fd5b5035919050565b634e487b7160e01b600052602160045260246000fd5b8b815263ffffffff8b811660208301528a16604082015261ffff891660608201526001600160a01b038816608082015260a0810187905260c0810186905261016081016006861061185a5761185a6117f1565b8560e08301526118766101008301866001600160a01b03169052565b836101208301526118936101408301846001600160a01b03169052565b9c9b505050505050505050505050565b6001600160a01b0381168114610fb557600080fd5b61ffff81168114610fb557600080fd5b63ffffffff81168114610fb557600080fd5b600080600080600080600060e0888a0312156118f557600080fd5b87359650602088013595506040880135945060608801359350608088013561191c816118a3565b925060a088013561192c816118b8565b915060c088013561193c816118c8565b8091505092959891949750929550565b60008083601f84011261195e57600080fd5b50813567ffffffffffffffff81111561197657600080fd5b6020830191508360208260051b850101111561199157600080fd5b9250929050565b6000806000604084860312156119ad57600080fd5b83359250602084013567ffffffffffffffff8111156119cb57600080fd5b6119d78682870161194c565b9497909650939450505050565b60068110610fb557600080fd5b600080600080600060a08688031215611a0957600080fd5b85359450602086013593506040860135611a22816119e4565b92506060860135611a32816118a3565b91506080860135611a42816118a3565b809150509295509295909350565b6020808252825182820181905260009190848201906040850190845b81811015611a915783516001600160a01b031683529284019291840191600101611a6c565b50909695505050505050565b60008060006101808486031215611ab357600080fd5b611abd8585611791565b925061016084013567ffffffffffffffff8111156119cb57600080fd5b6020808252601e908201527f756e617574686f72697a656420636f6d6d69746d656e74206c656e6465720000604082015260600190565b600060208284031215611b2357600080fd5b8135610fe0816118a3565b60008135610568816118c8565b60008135610568816118b8565b60008135610568816118a3565b60008135610568816119e4565b60068210611b7257611b726117f1565b60ff1981541660ff831681178255505050565b8135815560018101611bb3611b9c60208501611b2e565b825463ffffffff191663ffffffff91909116178255565b611be4611bc260408501611b2e565b825467ffffffff00000000191660209190911b67ffffffff0000000016178255565b611c19611bf360608501611b3b565b825469ffff0000000000000000191660409190911b69ffff000000000000000016178255565b611c67611c2860808501611b48565b8280547fffff0000000000000000000000000000000000000000ffffffffffffffffffff1660509290921b600160501b600160f01b0316919091179055565b5060a0820135600282015560c0820135600382015560048101611c95611c8f60e08501611b55565b82611b62565b611ccb611ca56101008501611b48565b828054610100600160a81b03191660089290921b610100600160a81b0316919091179055565b50610120820135600582015561175b611ce76101408401611b48565b6006830180546001600160a01b0319166001600160a01b0392909216919091179055565b600060208284031215611d1d57600080fd5b8151610fe0816118a3565b600060208284031215611d3a57600080fd5b815160ff81168114610fe057600080fd5b634e487b7160e01b600052601160045260246000fd5b60ff818116838216019081111561056857610568611d4b565b600181815b80851115611db5578160001904821115611d9b57611d9b611d4b565b80851615611da857918102915b93841c9390800290611d7f565b509250929050565b600082611dcc57506001610568565b81611dd957506000610568565b8160018114611def5760028114611df957611e15565b6001915050610568565b60ff841115611e0a57611e0a611d4b565b50506001821b610568565b5060208310610133831016604e8410600b8410161715611e38575081810a610568565b611e428383611d7a565b8060001904821115611e5657611e56611d4b565b029392505050565b6000610fe060ff841683611dbd565b600060018201611e7f57611e7f611d4b565b5060010190565b634e487b7160e01b600052603260045260246000fd5b8181038181111561056857610568611d4b565b634e487b7160e01b600052601260045260246000fd5b8082018082111561056857610568611d4b565b60005b83811015611ef3578181015183820152602001611edb565b50506000910152565b60008151808452611f14816020860160208601611ed8565b601f01601f19169290920160200192915050565b600061010060018060a01b03808c16845260208b8186015260408b81870152606063ffffffff8c1681880152608061ffff8c16818901528560a0890152611f718689018c611efc565b8a861660c08a015288810360e08a01528951808252858b0197509085019060005b81811015611fd9578851805160038110611fae57611fae6117f1565b8452808801518885015286810151878501528501518816858401529786019791830191600101611f92565b5050809750505050505050509998505050505050505050565b60006020828403121561200457600080fd5b5051919050565b6000835161201d818460208801611ed8565b60609390931b6bffffffffffffffffffffffff19169190920190815260140192915050565b60008251612054818460208701611ed8565b9190910192915050565b602081526000610fe06020830184611efc56fea2646970667358221220d9b6fdadf12423c5c88d352ebcf95a75d9fc2f3af9719bc25f607bbf8804011964736f6c63430008110033",
    "linkReferences": {}
  },
  "methodIdentifiers": {
    "_marketRegistry()": "fd7b2d91",
    "_tellerV2()": "eafef46e",
    "acceptCommitment(uint256,uint256,uint256,uint256,address,uint16,uint32)": "592113d0",
    "commitments(uint256)": "49ce8997",
    "createCommitment((uint256,uint32,uint32,uint16,address,uint256,uint256,uint8,address,uint256,address),address[])": "c1abfa11",
    "deleteCommitment(uint256)": "bfb40bc0",
    "getCommitmentBorrowers(uint256)": "7d458e7b",
    "getMarketRegistry()": "c66b8ed2",
    "getRequiredCollateral(uint256,uint256,uint8,address,address)": "7479208b",
    "getTellerV2()": "dc003d5a",
    "getTellerV2MarketOwner(uint256)": "1dcaa70d",
    "updateCommitment(uint256,(uint256,uint32,uint32,uint16,address,uint256,uint256,uint8,address,uint256,address))": "1409a2e4",
    "updateCommitmentBorrowers(uint256,address[])": "5ec77a81"
  },
  "id": 4
}