{
  "abi": [
    {
      "inputs": [
        {
          "internalType": "string",
          "name": "name",
          "type": "string"
        },
        {
          "internalType": "string",
          "name": "symbol",
          "type": "string"
        }
      ],
      "stateMutability": "nonpayable",
      "type": "constructor"
    },
    {
      "anonymous": false,
      "inputs": [
        {
          "indexed": true,
          "internalType": "address",
          "name": "owner",
          "type": "address"
        },
        {
          "indexed": true,
          "internalType": "address",
          "name": "spender",
          "type": "address"
        },
        {
          "indexed": false,
          "internalType": "uint256",
          "name": "value",
          "type": "uint256"
        }
      ],
      "name": "Approval",
      "type": "event"
    },
    {
      "anonymous": false,
      "inputs": [
        {
          "indexed": false,
          "internalType": "address",
          "name": "account",
          "type": "address"
        }
      ],
      "name": "Paused",
      "type": "event"
    },
    {
      "anonymous": false,
      "inputs": [
        {
          "indexed": true,
          "internalType": "bytes32",
          "name": "role",
          "type": "bytes32"
        },
        {
          "indexed": true,
          "internalType": "bytes32",
          "name": "previousAdminRole",
          "type": "bytes32"
        },
        {
          "indexed": true,
          "internalType": "bytes32",
          "name": "newAdminRole",
          "type": "bytes32"
        }
      ],
      "name": "RoleAdminChanged",
      "type": "event"
    },
    {
      "anonymous": false,
      "inputs": [
        {
          "indexed": true,
          "internalType": "bytes32",
          "name": "role",
          "type": "bytes32"
        },
        {
          "indexed": true,
          "internalType": "address",
          "name": "account",
          "type": "address"
        },
        {
          "indexed": true,
          "internalType": "address",
          "name": "sender",
          "type": "address"
        }
      ],
      "name": "RoleGranted",
      "type": "event"
    },
    {
      "anonymous": false,
      "inputs": [
        {
          "indexed": true,
          "internalType": "bytes32",
          "name": "role",
          "type": "bytes32"
        },
        {
          "indexed": true,
          "internalType": "address",
          "name": "account",
          "type": "address"
        },
        {
          "indexed": true,
          "internalType": "address",
          "name": "sender",
          "type": "address"
        }
      ],
      "name": "RoleRevoked",
      "type": "event"
    },
    {
      "anonymous": false,
      "inputs": [
        {
          "indexed": true,
          "internalType": "address",
          "name": "from",
          "type": "address"
        },
        {
          "indexed": true,
          "internalType": "address",
          "name": "to",
          "type": "address"
        },
        {
          "indexed": false,
          "internalType": "uint256",
          "name": "value",
          "type": "uint256"
        }
      ],
      "name": "Transfer",
      "type": "event"
    },
    {
      "anonymous": false,
      "inputs": [
        {
          "indexed": false,
          "internalType": "address",
          "name": "account",
          "type": "address"
        }
      ],
      "name": "Unpaused",
      "type": "event"
    },
    {
      "inputs": [],
      "name": "DEFAULT_ADMIN_ROLE",
      "outputs": [
        {
          "internalType": "bytes32",
          "name": "",
          "type": "bytes32"
        }
      ],
      "stateMutability": "view",
      "type": "function"
    },
    {
      "inputs": [],
      "name": "MINTER_ROLE",
      "outputs": [
        {
          "internalType": "bytes32",
          "name": "",
          "type": "bytes32"
        }
      ],
      "stateMutability": "view",
      "type": "function"
    },
    {
      "inputs": [],
      "name": "PAUSER_ROLE",
      "outputs": [
        {
          "internalType": "bytes32",
          "name": "",
          "type": "bytes32"
        }
      ],
      "stateMutability": "view",
      "type": "function"
    },
    {
      "inputs": [
        {
          "internalType": "address",
          "name": "owner",
          "type": "address"
        },
        {
          "internalType": "address",
          "name": "spender",
          "type": "address"
        }
      ],
      "name": "allowance",
      "outputs": [
        {
          "internalType": "uint256",
          "name": "",
          "type": "uint256"
        }
      ],
      "stateMutability": "view",
      "type": "function"
    },
    {
      "inputs": [
        {
          "internalType": "address",
          "name": "spender",
          "type": "address"
        },
        {
          "internalType": "uint256",
          "name": "amount",
          "type": "uint256"
        }
      ],
      "name": "approve",
      "outputs": [
        {
          "internalType": "bool",
          "name": "",
          "type": "bool"
        }
      ],
      "stateMutability": "nonpayable",
      "type": "function"
    },
    {
      "inputs": [
        {
          "internalType": "address",
          "name": "account",
          "type": "address"
        }
      ],
      "name": "balanceOf",
      "outputs": [
        {
          "internalType": "uint256",
          "name": "",
          "type": "uint256"
        }
      ],
      "stateMutability": "view",
      "type": "function"
    },
    {
      "inputs": [
        {
          "internalType": "uint256",
          "name": "amount",
          "type": "uint256"
        }
      ],
      "name": "burn",
      "outputs": [],
      "stateMutability": "nonpayable",
      "type": "function"
    },
    {
      "inputs": [
        {
          "internalType": "address",
          "name": "account",
          "type": "address"
        },
        {
          "internalType": "uint256",
          "name": "amount",
          "type": "uint256"
        }
      ],
      "name": "burnFrom",
      "outputs": [],
      "stateMutability": "nonpayable",
      "type": "function"
    },
    {
      "inputs": [],
      "name": "decimals",
      "outputs": [
        {
          "internalType": "uint8",
          "name": "",
          "type": "uint8"
        }
      ],
      "stateMutability": "view",
      "type": "function"
    },
    {
      "inputs": [
        {
          "internalType": "address",
          "name": "spender",
          "type": "address"
        },
        {
          "internalType": "uint256",
          "name": "subtractedValue",
          "type": "uint256"
        }
      ],
      "name": "decreaseAllowance",
      "outputs": [
        {
          "internalType": "bool",
          "name": "",
          "type": "bool"
        }
      ],
      "stateMutability": "nonpayable",
      "type": "function"
    },
    {
      "inputs": [
        {
          "internalType": "bytes32",
          "name": "role",
          "type": "bytes32"
        }
      ],
      "name": "getRoleAdmin",
      "outputs": [
        {
          "internalType": "bytes32",
          "name": "",
          "type": "bytes32"
        }
      ],
      "stateMutability": "view",
      "type": "function"
    },
    {
      "inputs": [
        {
          "internalType": "bytes32",
          "name": "role",
          "type": "bytes32"
        },
        {
          "internalType": "uint256",
          "name": "index",
          "type": "uint256"
        }
      ],
      "name": "getRoleMember",
      "outputs": [
        {
          "internalType": "address",
          "name": "",
          "type": "address"
        }
      ],
      "stateMutability": "view",
      "type": "function"
    },
    {
      "inputs": [
        {
          "internalType": "bytes32",
          "name": "role",
          "type": "bytes32"
        }
      ],
      "name": "getRoleMemberCount",
      "outputs": [
        {
          "internalType": "uint256",
          "name": "",
          "type": "uint256"
        }
      ],
      "stateMutability": "view",
      "type": "function"
    },
    {
      "inputs": [
        {
          "internalType": "bytes32",
          "name": "role",
          "type": "bytes32"
        },
        {
          "internalType": "address",
          "name": "account",
          "type": "address"
        }
      ],
      "name": "grantRole",
      "outputs": [],
      "stateMutability": "nonpayable",
      "type": "function"
    },
    {
      "inputs": [
        {
          "internalType": "bytes32",
          "name": "role",
          "type": "bytes32"
        },
        {
          "internalType": "address",
          "name": "account",
          "type": "address"
        }
      ],
      "name": "hasRole",
      "outputs": [
        {
          "internalType": "bool",
          "name": "",
          "type": "bool"
        }
      ],
      "stateMutability": "view",
      "type": "function"
    },
    {
      "inputs": [
        {
          "internalType": "address",
          "name": "spender",
          "type": "address"
        },
        {
          "internalType": "uint256",
          "name": "addedValue",
          "type": "uint256"
        }
      ],
      "name": "increaseAllowance",
      "outputs": [
        {
          "internalType": "bool",
          "name": "",
          "type": "bool"
        }
      ],
      "stateMutability": "nonpayable",
      "type": "function"
    },
    {
      "inputs": [
        {
          "internalType": "address",
          "name": "to",
          "type": "address"
        },
        {
          "internalType": "uint256",
          "name": "amount",
          "type": "uint256"
        }
      ],
      "name": "mint",
      "outputs": [],
      "stateMutability": "nonpayable",
      "type": "function"
    },
    {
      "inputs": [],
      "name": "name",
      "outputs": [
        {
          "internalType": "string",
          "name": "",
          "type": "string"
        }
      ],
      "stateMutability": "view",
      "type": "function"
    },
    {
      "inputs": [],
      "name": "pause",
      "outputs": [],
      "stateMutability": "nonpayable",
      "type": "function"
    },
    {
      "inputs": [],
      "name": "paused",
      "outputs": [
        {
          "internalType": "bool",
          "name": "",
          "type": "bool"
        }
      ],
      "stateMutability": "view",
      "type": "function"
    },
    {
      "inputs": [
        {
          "internalType": "bytes32",
          "name": "role",
          "type": "bytes32"
        },
        {
          "internalType": "address",
          "name": "account",
          "type": "address"
        }
      ],
      "name": "renounceRole",
      "outputs": [],
      "stateMutability": "nonpayable",
      "type": "function"
    },
    {
      "inputs": [
        {
          "internalType": "bytes32",
          "name": "role",
          "type": "bytes32"
        },
        {
          "internalType": "address",
          "name": "account",
          "type": "address"
        }
      ],
      "name": "revokeRole",
      "outputs": [],
      "stateMutability": "nonpayable",
      "type": "function"
    },
    {
      "inputs": [
        {
          "internalType": "bytes4",
          "name": "interfaceId",
          "type": "bytes4"
        }
      ],
      "name": "supportsInterface",
      "outputs": [
        {
          "internalType": "bool",
          "name": "",
          "type": "bool"
        }
      ],
      "stateMutability": "view",
      "type": "function"
    },
    {
      "inputs": [],
      "name": "symbol",
      "outputs": [
        {
          "internalType": "string",
          "name": "",
          "type": "string"
        }
      ],
      "stateMutability": "view",
      "type": "function"
    },
    {
      "inputs": [],
      "name": "totalSupply",
      "outputs": [
        {
          "internalType": "uint256",
          "name": "",
          "type": "uint256"
        }
      ],
      "stateMutability": "view",
      "type": "function"
    },
    {
      "inputs": [
        {
          "internalType": "address",
          "name": "to",
          "type": "address"
        },
        {
          "internalType": "uint256",
          "name": "amount",
          "type": "uint256"
        }
      ],
      "name": "transfer",
      "outputs": [
        {
          "internalType": "bool",
          "name": "",
          "type": "bool"
        }
      ],
      "stateMutability": "nonpayable",
      "type": "function"
    },
    {
      "inputs": [
        {
          "internalType": "address",
          "name": "from",
          "type": "address"
        },
        {
          "internalType": "address",
          "name": "to",
          "type": "address"
        },
        {
          "internalType": "uint256",
          "name": "amount",
          "type": "uint256"
        }
      ],
      "name": "transferFrom",
      "outputs": [
        {
          "internalType": "bool",
          "name": "",
          "type": "bool"
        }
      ],
      "stateMutability": "nonpayable",
      "type": "function"
    },
    {
      "inputs": [],
      "name": "unpause",
      "outputs": [],
      "stateMutability": "nonpayable",
      "type": "function"
    }
  ],
  "bytecode": {
    "object": "0x60806040523480156200001157600080fd5b5060405162001dab38038062001dab8339810160408190526200003491620002f7565b81816005620000448382620003ef565b506006620000538282620003ef565b50506007805460ff19169055506200006d600033620000cd565b620000997f9f2df0fed2c77648de5860a4cc508cd0818c85b8b8a1ab4ceeef8d981c8956a633620000cd565b620000c57f65d7a28e3265b37a6474929f336521b332c1681b933f6cb9f3376673440d862a33620000cd565b5050620004bb565b620000d98282620000dd565b5050565b620000f482826200012060201b6200093d1760201c565b60008281526001602090815260409091206200011b918390620009c1620001c0821b17901c565b505050565b6000828152602081815260408083206001600160a01b038516845290915290205460ff16620000d9576000828152602081815260408083206001600160a01b03851684529091529020805460ff191660011790556200017c3390565b6001600160a01b0316816001600160a01b0316837f2f8788117e7eff1d82e926ec794901d17c78024a50270940304540a733656f0d60405160405180910390a45050565b6000620001d7836001600160a01b038416620001e0565b90505b92915050565b60008181526001830160205260408120546200022957508154600181810184556000848152602080822090930184905584548482528286019093526040902091909155620001da565b506000620001da565b634e487b7160e01b600052604160045260246000fd5b600082601f8301126200025a57600080fd5b81516001600160401b038082111562000277576200027762000232565b604051601f8301601f19908116603f01168101908282118183101715620002a257620002a262000232565b81604052838152602092508683858801011115620002bf57600080fd5b600091505b83821015620002e35785820183015181830184015290820190620002c4565b600093810190920192909252949350505050565b600080604083850312156200030b57600080fd5b82516001600160401b03808211156200032357600080fd5b620003318683870162000248565b935060208501519150808211156200034857600080fd5b50620003578582860162000248565b9150509250929050565b600181811c908216806200037657607f821691505b6020821081036200039757634e487b7160e01b600052602260045260246000fd5b50919050565b601f8211156200011b57600081815260208120601f850160051c81016020861015620003c65750805b601f850160051c820191505b81811015620003e757828155600101620003d2565b505050505050565b81516001600160401b038111156200040b576200040b62000232565b62000423816200041c845462000361565b846200039d565b602080601f8311600181146200045b5760008415620004425750858301515b600019600386901b1c1916600185901b178555620003e7565b600085815260208120601f198616915b828110156200048c578886015182559484019460019091019084016200046b565b5085821015620004ab5787850151600019600388901b60f8161c191681555b5050505050600190811b01905550565b6118e080620004cb6000396000f3fe608060405234801561001057600080fd5b50600436106101c45760003560e01c806370a08231116100f9578063a457c2d711610097578063d539139311610071578063d5391393146103af578063d547741f146103d6578063dd62ed3e146103e9578063e63ab1e9146103fc57600080fd5b8063a457c2d714610376578063a9059cbb14610389578063ca15c8731461039c57600080fd5b80639010d07c116100d35780639010d07c1461032857806391d148541461035357806395d89b4114610366578063a217fddf1461036e57600080fd5b806370a08231146102e457806379cc67901461030d5780638456cb591461032057600080fd5b8063313ce567116101665780633f4ba83a116101405780633f4ba83a146102ab57806340c10f19146102b357806342966c68146102c65780635c975abb146102d957600080fd5b8063313ce5671461027657806336568abe14610285578063395093511461029857600080fd5b806318160ddd116101a257806318160ddd1461021957806323b872dd1461022b578063248a9ca31461023e5780632f2ff15d1461026157600080fd5b806301ffc9a7146101c957806306fdde03146101f1578063095ea7b314610206575b600080fd5b6101dc6101d73660046115a0565b610423565b60405190151581526020015b60405180910390f35b6101f961044e565b6040516101e891906115ee565b6101dc61021436600461163d565b6104e0565b6004545b6040519081526020016101e8565b6101dc610239366004611667565b6104f8565b61021d61024c3660046116a3565b60009081526020819052604090206001015490565b61027461026f3660046116bc565b61051c565b005b604051601281526020016101e8565b6102746102933660046116bc565b610546565b6101dc6102a636600461163d565b6105c9565b6102746105eb565b6102746102c136600461163d565b610691565b6102746102d43660046116a3565b610730565b60075460ff166101dc565b61021d6102f23660046116e8565b6001600160a01b031660009081526002602052604090205490565b61027461031b36600461163d565b61073d565b610274610752565b61033b610336366004611703565b6107f6565b6040516001600160a01b0390911681526020016101e8565b6101dc6103613660046116bc565b610815565b6101f961083e565b61021d600081565b6101dc61038436600461163d565b61084d565b6101dc61039736600461163d565b6108c8565b61021d6103aa3660046116a3565b6108d6565b61021d7f9f2df0fed2c77648de5860a4cc508cd0818c85b8b8a1ab4ceeef8d981c8956a681565b6102746103e43660046116bc565b6108ed565b61021d6103f7366004611725565b610912565b61021d7f65d7a28e3265b37a6474929f336521b332c1681b933f6cb9f3376673440d862a81565b60006001600160e01b03198216635a05180f60e01b14806104485750610448826109d6565b92915050565b60606005805461045d9061174f565b80601f01602080910402602001604051908101604052809291908181526020018280546104899061174f565b80156104d65780601f106104ab576101008083540402835291602001916104d6565b820191906000526020600020905b8154815290600101906020018083116104b957829003601f168201915b5050505050905090565b6000336104ee818585610a0b565b5060019392505050565b600033610506858285610b2f565b610511858585610ba9565b506001949350505050565b60008281526020819052604090206001015461053781610d82565b6105418383610d8c565b505050565b6001600160a01b03811633146105bb5760405162461bcd60e51b815260206004820152602f60248201527f416363657373436f6e74726f6c3a2063616e206f6e6c792072656e6f756e636560448201526e103937b632b9903337b91039b2b63360891b60648201526084015b60405180910390fd5b6105c58282610dae565b5050565b6000336104ee8185856105dc8383610912565b6105e6919061179f565b610a0b565b6106157f65d7a28e3265b37a6474929f336521b332c1681b933f6cb9f3376673440d862a33610815565b6106875760405162461bcd60e51b815260206004820152603960248201527f45524332305072657365744d696e7465725061757365723a206d75737420686160448201527f76652070617573657220726f6c6520746f20756e70617573650000000000000060648201526084016105b2565b61068f610dd0565b565b6106bb7f9f2df0fed2c77648de5860a4cc508cd0818c85b8b8a1ab4ceeef8d981c8956a633610815565b6107265760405162461bcd60e51b815260206004820152603660248201527f45524332305072657365744d696e7465725061757365723a206d7573742068616044820152751d99481b5a5b9d195c881c9bdb19481d1bc81b5a5b9d60521b60648201526084016105b2565b6105c58282610e22565b61073a3382610f0d565b50565b610748823383610b2f565b6105c58282610f0d565b61077c7f65d7a28e3265b37a6474929f336521b332c1681b933f6cb9f3376673440d862a33610815565b6107ee5760405162461bcd60e51b815260206004820152603760248201527f45524332305072657365744d696e7465725061757365723a206d75737420686160448201527f76652070617573657220726f6c6520746f20706175736500000000000000000060648201526084016105b2565b61068f611067565b600082815260016020526040812061080e90836110a4565b9392505050565b6000918252602082815260408084206001600160a01b0393909316845291905290205460ff1690565b60606006805461045d9061174f565b6000338161085b8286610912565b9050838110156108bb5760405162461bcd60e51b815260206004820152602560248201527f45524332303a2064656372656173656420616c6c6f77616e63652062656c6f77604482015264207a65726f60d81b60648201526084016105b2565b6105118286868403610a0b565b6000336104ee818585610ba9565b6000818152600160205260408120610448906110b0565b60008281526020819052604090206001015461090881610d82565b6105418383610dae565b6001600160a01b03918216600090815260036020908152604080832093909416825291909152205490565b6109478282610815565b6105c5576000828152602081815260408083206001600160a01b03851684529091529020805460ff1916600117905561097d3390565b6001600160a01b0316816001600160a01b0316837f2f8788117e7eff1d82e926ec794901d17c78024a50270940304540a733656f0d60405160405180910390a45050565b600061080e836001600160a01b0384166110ba565b60006001600160e01b03198216637965db0b60e01b148061044857506301ffc9a760e01b6001600160e01b0319831614610448565b6001600160a01b038316610a6d5760405162461bcd60e51b8152602060048201526024808201527f45524332303a20617070726f76652066726f6d20746865207a65726f206164646044820152637265737360e01b60648201526084016105b2565b6001600160a01b038216610ace5760405162461bcd60e51b815260206004820152602260248201527f45524332303a20617070726f766520746f20746865207a65726f206164647265604482015261737360f01b60648201526084016105b2565b6001600160a01b0383811660008181526003602090815260408083209487168084529482529182902085905590518481527f8c5be1e5ebec7d5bd14f71427d1e84f3dd0314c0f7b2291e5b200ac8c7c3b925910160405180910390a3505050565b6000610b3b8484610912565b90506000198114610ba35781811015610b965760405162461bcd60e51b815260206004820152601d60248201527f45524332303a20696e73756666696369656e7420616c6c6f77616e636500000060448201526064016105b2565b610ba38484848403610a0b565b50505050565b6001600160a01b038316610c0d5760405162461bcd60e51b815260206004820152602560248201527f45524332303a207472616e736665722066726f6d20746865207a65726f206164604482015264647265737360d81b60648201526084016105b2565b6001600160a01b038216610c6f5760405162461bcd60e51b815260206004820152602360248201527f45524332303a207472616e7366657220746f20746865207a65726f206164647260448201526265737360e81b60648201526084016105b2565b610c7a838383611109565b6001600160a01b03831660009081526002602052604090205481811015610cf25760405162461bcd60e51b815260206004820152602660248201527f45524332303a207472616e7366657220616d6f756e7420657863656564732062604482015265616c616e636560d01b60648201526084016105b2565b6001600160a01b03808516600090815260026020526040808220858503905591851681529081208054849290610d2990849061179f565b92505081905550826001600160a01b0316846001600160a01b03167fddf252ad1be2c89b69c2b068fc378daa952ba7f163c4a11628f55a4df523b3ef84604051610d7591815260200190565b60405180910390a3610ba3565b61073a8133611114565b610d96828261093d565b600082815260016020526040902061054190826109c1565b610db88282611178565b600082815260016020526040902061054190826111dd565b610dd86111f2565b6007805460ff191690557f5db9ee0a495bf2e6ff9c91a7834c1ba4fdd244a5e8aa4e537bd38aeae4b073aa335b6040516001600160a01b03909116815260200160405180910390a1565b6001600160a01b038216610e785760405162461bcd60e51b815260206004820152601f60248201527f45524332303a206d696e7420746f20746865207a65726f20616464726573730060448201526064016105b2565b610e8460008383611109565b8060046000828254610e96919061179f565b90915550506001600160a01b03821660009081526002602052604081208054839290610ec390849061179f565b90915550506040518181526001600160a01b038316906000907fddf252ad1be2c89b69c2b068fc378daa952ba7f163c4a11628f55a4df523b3ef9060200160405180910390a35050565b6001600160a01b038216610f6d5760405162461bcd60e51b815260206004820152602160248201527f45524332303a206275726e2066726f6d20746865207a65726f206164647265736044820152607360f81b60648201526084016105b2565b610f7982600083611109565b6001600160a01b03821660009081526002602052604090205481811015610fed5760405162461bcd60e51b815260206004820152602260248201527f45524332303a206275726e20616d6f756e7420657863656564732062616c616e604482015261636560f01b60648201526084016105b2565b6001600160a01b038316600090815260026020526040812083830390556004805484929061101c9084906117b2565b90915550506040518281526000906001600160a01b038516907fddf252ad1be2c89b69c2b068fc378daa952ba7f163c4a11628f55a4df523b3ef9060200160405180910390a3505050565b61106f61123b565b6007805460ff191660011790557f62e78cea01bee320cd4e420270b5ea74000d11b0c9f74754ebdbfc544b05a258610e053390565b600061080e8383611281565b6000610448825490565b600081815260018301602052604081205461110157508154600181810184556000848152602080822090930184905584548482528286019093526040902091909155610448565b506000610448565b6105418383836112ab565b61111e8282610815565b6105c557611136816001600160a01b03166014611311565b611141836020611311565b6040516020016111529291906117c5565b60408051601f198184030181529082905262461bcd60e51b82526105b2916004016115ee565b6111828282610815565b156105c5576000828152602081815260408083206001600160a01b0385168085529252808320805460ff1916905551339285917ff6391f5c32d9c69d2a47ea670b442974b53935d1edc7fd64eb21e047a839171b9190a45050565b600061080e836001600160a01b0384166114ad565b60075460ff1661068f5760405162461bcd60e51b815260206004820152601460248201527314185d5cd8589b194e881b9bdd081c185d5cd95960621b60448201526064016105b2565b60075460ff161561068f5760405162461bcd60e51b815260206004820152601060248201526f14185d5cd8589b194e881c185d5cd95960821b60448201526064016105b2565b60008260000182815481106112985761129861183a565b9060005260206000200154905092915050565b60075460ff16156105415760405162461bcd60e51b815260206004820152602a60248201527f45524332305061757361626c653a20746f6b656e207472616e736665722077686044820152691a5b19481c185d5cd95960b21b60648201526084016105b2565b60606000611320836002611850565b61132b90600261179f565b67ffffffffffffffff81111561134357611343611867565b6040519080825280601f01601f19166020018201604052801561136d576020820181803683370190505b509050600360fc1b816000815181106113885761138861183a565b60200101906001600160f81b031916908160001a905350600f60fb1b816001815181106113b7576113b761183a565b60200101906001600160f81b031916908160001a90535060006113db846002611850565b6113e690600161179f565b90505b600181111561145e576f181899199a1a9b1b9c1cb0b131b232b360811b85600f166010811061141a5761141a61183a565b1a60f81b8282815181106114305761143061183a565b60200101906001600160f81b031916908160001a90535060049490941c936114578161187d565b90506113e9565b50831561080e5760405162461bcd60e51b815260206004820181905260248201527f537472696e67733a20686578206c656e67746820696e73756666696369656e7460448201526064016105b2565b600081815260018301602052604081205480156115965760006114d16001836117b2565b85549091506000906114e5906001906117b2565b905081811461154a5760008660000182815481106115055761150561183a565b90600052602060002001549050808760000184815481106115285761152861183a565b6000918252602080832090910192909255918252600188019052604090208390555b855486908061155b5761155b611894565b600190038181906000526020600020016000905590558560010160008681526020019081526020016000206000905560019350505050610448565b6000915050610448565b6000602082840312156115b257600080fd5b81356001600160e01b03198116811461080e57600080fd5b60005b838110156115e55781810151838201526020016115cd565b50506000910152565b602081526000825180602084015261160d8160408501602087016115ca565b601f01601f19169190910160400192915050565b80356001600160a01b038116811461163857600080fd5b919050565b6000806040838503121561165057600080fd5b61165983611621565b946020939093013593505050565b60008060006060848603121561167c57600080fd5b61168584611621565b925061169360208501611621565b9150604084013590509250925092565b6000602082840312156116b557600080fd5b5035919050565b600080604083850312156116cf57600080fd5b823591506116df60208401611621565b90509250929050565b6000602082840312156116fa57600080fd5b61080e82611621565b6000806040838503121561171657600080fd5b50508035926020909101359150565b6000806040838503121561173857600080fd5b61174183611621565b91506116df60208401611621565b600181811c9082168061176357607f821691505b60208210810361178357634e487b7160e01b600052602260045260246000fd5b50919050565b634e487b7160e01b600052601160045260246000fd5b8082018082111561044857610448611789565b8181038181111561044857610448611789565b7f416363657373436f6e74726f6c3a206163636f756e74200000000000000000008152600083516117fd8160178501602088016115ca565b7001034b99036b4b9b9b4b733903937b6329607d1b601791840191820152835161182e8160288401602088016115ca565b01602801949350505050565b634e487b7160e01b600052603260045260246000fd5b808202811582820484141761044857610448611789565b634e487b7160e01b600052604160045260246000fd5b60008161188c5761188c611789565b506000190190565b634e487b7160e01b600052603160045260246000fdfea26469706673582212202e187d6f4210e5028e2ea70f827e1ac5abca4abc90187ee8729d95f8299d176d64736f6c63430008110033",
    "linkReferences": {}
  },
  "methodIdentifiers": {
    "DEFAULT_ADMIN_ROLE()": "a217fddf",
    "MINTER_ROLE()": "d5391393",
    "PAUSER_ROLE()": "e63ab1e9",
    "allowance(address,address)": "dd62ed3e",
    "approve(address,uint256)": "095ea7b3",
    "balanceOf(address)": "70a08231",
    "burn(uint256)": "42966c68",
    "burnFrom(address,uint256)": "79cc6790",
    "decimals()": "313ce567",
    "decreaseAllowance(address,uint256)": "a457c2d7",
    "getRoleAdmin(bytes32)": "248a9ca3",
    "getRoleMember(bytes32,uint256)": "9010d07c",
    "getRoleMemberCount(bytes32)": "ca15c873",
    "grantRole(bytes32,address)": "2f2ff15d",
    "hasRole(bytes32,address)": "91d14854",
    "increaseAllowance(address,uint256)": "39509351",
    "mint(address,uint256)": "40c10f19",
    "name()": "06fdde03",
    "pause()": "8456cb59",
    "paused()": "5c975abb",
    "renounceRole(bytes32,address)": "36568abe",
    "revokeRole(bytes32,address)": "d547741f",
    "supportsInterface(bytes4)": "01ffc9a7",
    "symbol()": "95d89b41",
    "totalSupply()": "18160ddd",
    "transfer(address,uint256)": "a9059cbb",
    "transferFrom(address,address,uint256)": "23b872dd",
    "unpause()": "3f4ba83a"
  },
  "id": 118
}