{
  "abi": [
    {
      "inputs": [],
      "name": "NotPayable",
      "type": "error"
    },
    {
      "anonymous": false,
      "inputs": [
        {
          "indexed": false,
          "internalType": "uint256",
          "name": "marketId",
          "type": "uint256"
        },
        {
          "indexed": false,
          "internalType": "address",
          "name": "borrower",
          "type": "address"
        }
      ],
      "name": "BorrowerAttestation",
      "type": "event"
    },
    {
      "anonymous": false,
      "inputs": [
        {
          "indexed": false,
          "internalType": "uint256",
          "name": "marketId",
          "type": "uint256"
        },
        {
          "indexed": false,
          "internalType": "address",
          "name": "borrower",
          "type": "address"
        }
      ],
      "name": "BorrowerExitMarket",
      "type": "event"
    },
    {
      "anonymous": false,
      "inputs": [
        {
          "indexed": false,
          "internalType": "uint256",
          "name": "marketId",
          "type": "uint256"
        },
        {
          "indexed": false,
          "internalType": "address",
          "name": "borrower",
          "type": "address"
        }
      ],
      "name": "BorrowerRevocation",
      "type": "event"
    },
    {
      "anonymous": false,
      "inputs": [
        {
          "indexed": false,
          "internalType": "uint8",
          "name": "version",
          "type": "uint8"
        }
      ],
      "name": "Initialized",
      "type": "event"
    },
    {
      "anonymous": false,
      "inputs": [
        {
          "indexed": false,
          "internalType": "uint256",
          "name": "marketId",
          "type": "uint256"
        },
        {
          "indexed": false,
          "internalType": "address",
          "name": "lender",
          "type": "address"
        }
      ],
      "name": "LenderAttestation",
      "type": "event"
    },
    {
      "anonymous": false,
      "inputs": [
        {
          "indexed": false,
          "internalType": "uint256",
          "name": "marketId",
          "type": "uint256"
        },
        {
          "indexed": false,
          "internalType": "address",
          "name": "lender",
          "type": "address"
        }
      ],
      "name": "LenderExitMarket",
      "type": "event"
    },
    {
      "anonymous": false,
      "inputs": [
        {
          "indexed": false,
          "internalType": "uint256",
          "name": "marketId",
          "type": "uint256"
        },
        {
          "indexed": false,
          "internalType": "address",
          "name": "lender",
          "type": "address"
        }
      ],
      "name": "LenderRevocation",
      "type": "event"
    },
    {
      "anonymous": false,
      "inputs": [
        {
          "indexed": false,
          "internalType": "uint256",
          "name": "marketId",
          "type": "uint256"
        }
      ],
      "name": "MarketClosed",
      "type": "event"
    },
    {
      "anonymous": false,
      "inputs": [
        {
          "indexed": true,
          "internalType": "address",
          "name": "owner",
          "type": "address"
        },
        {
          "indexed": false,
          "internalType": "uint256",
          "name": "marketId",
          "type": "uint256"
        }
      ],
      "name": "MarketCreated",
      "type": "event"
    },
    {
      "anonymous": false,
      "inputs": [
        {
          "indexed": false,
          "internalType": "uint256",
          "name": "marketId",
          "type": "uint256"
        },
        {
          "indexed": false,
          "internalType": "uint32",
          "name": "duration",
          "type": "uint32"
        }
      ],
      "name": "SetBidExpirationTime",
      "type": "event"
    },
    {
      "anonymous": false,
      "inputs": [
        {
          "indexed": false,
          "internalType": "uint256",
          "name": "marketId",
          "type": "uint256"
        },
        {
          "indexed": false,
          "internalType": "bool",
          "name": "required",
          "type": "bool"
        }
      ],
      "name": "SetMarketBorrowerAttestation",
      "type": "event"
    },
    {
      "anonymous": false,
      "inputs": [
        {
          "indexed": false,
          "internalType": "uint256",
          "name": "marketId",
          "type": "uint256"
        },
        {
          "indexed": false,
          "internalType": "uint16",
          "name": "feePct",
          "type": "uint16"
        }
      ],
      "name": "SetMarketFee",
      "type": "event"
    },
    {
      "anonymous": false,
      "inputs": [
        {
          "indexed": false,
          "internalType": "uint256",
          "name": "marketId",
          "type": "uint256"
        },
        {
          "indexed": false,
          "internalType": "address",
          "name": "newRecipient",
          "type": "address"
        }
      ],
      "name": "SetMarketFeeRecipient",
      "type": "event"
    },
    {
      "anonymous": false,
      "inputs": [
        {
          "indexed": false,
          "internalType": "uint256",
          "name": "marketId",
          "type": "uint256"
        },
        {
          "indexed": false,
          "internalType": "bool",
          "name": "required",
          "type": "bool"
        }
      ],
      "name": "SetMarketLenderAttestation",
      "type": "event"
    },
    {
      "anonymous": false,
      "inputs": [
        {
          "indexed": false,
          "internalType": "uint256",
          "name": "marketId",
          "type": "uint256"
        },
        {
          "indexed": false,
          "internalType": "address",
          "name": "newOwner",
          "type": "address"
        }
      ],
      "name": "SetMarketOwner",
      "type": "event"
    },
    {
      "anonymous": false,
      "inputs": [
        {
          "indexed": false,
          "internalType": "uint256",
          "name": "marketId",
          "type": "uint256"
        },
        {
          "indexed": false,
          "internalType": "enum PaymentType",
          "name": "paymentType",
          "type": "uint8"
        }
      ],
      "name": "SetMarketPaymentType",
      "type": "event"
    },
    {
      "anonymous": false,
      "inputs": [
        {
          "indexed": false,
          "internalType": "uint256",
          "name": "marketId",
          "type": "uint256"
        },
        {
          "indexed": false,
          "internalType": "string",
          "name": "uri",
          "type": "string"
        }
      ],
      "name": "SetMarketURI",
      "type": "event"
    },
    {
      "anonymous": false,
      "inputs": [
        {
          "indexed": false,
          "internalType": "uint256",
          "name": "marketId",
          "type": "uint256"
        },
        {
          "indexed": false,
          "internalType": "uint32",
          "name": "duration",
          "type": "uint32"
        }
      ],
      "name": "SetPaymentCycleDuration",
      "type": "event"
    },
    {
      "anonymous": false,
      "inputs": [
        {
          "indexed": false,
          "internalType": "uint256",
          "name": "marketId",
          "type": "uint256"
        },
        {
          "indexed": false,
          "internalType": "uint32",
          "name": "duration",
          "type": "uint32"
        }
      ],
      "name": "SetPaymentDefaultDuration",
      "type": "event"
    },
    {
      "inputs": [],
      "name": "CURRENT_CODE_VERSION",
      "outputs": [
        {
          "internalType": "uint256",
          "name": "",
          "type": "uint256"
        }
      ],
      "stateMutability": "view",
      "type": "function"
    },
    {
      "inputs": [
        {
          "internalType": "uint256",
          "name": "_marketId",
          "type": "uint256"
        },
        {
          "internalType": "address",
          "name": "_borrowerAddress",
          "type": "address"
        },
        {
          "internalType": "uint256",
          "name": "_expirationTime",
          "type": "uint256"
        },
        {
          "internalType": "uint8",
          "name": "_v",
          "type": "uint8"
        },
        {
          "internalType": "bytes32",
          "name": "_r",
          "type": "bytes32"
        },
        {
          "internalType": "bytes32",
          "name": "_s",
          "type": "bytes32"
        }
      ],
      "name": "attestBorrower",
      "outputs": [],
      "stateMutability": "nonpayable",
      "type": "function"
    },
    {
      "inputs": [
        {
          "internalType": "uint256",
          "name": "_marketId",
          "type": "uint256"
        },
        {
          "internalType": "address",
          "name": "_borrowerAddress",
          "type": "address"
        },
        {
          "internalType": "uint256",
          "name": "_expirationTime",
          "type": "uint256"
        }
      ],
      "name": "attestBorrower",
      "outputs": [],
      "stateMutability": "nonpayable",
      "type": "function"
    },
    {
      "inputs": [
        {
          "internalType": "uint256",
          "name": "_marketId",
          "type": "uint256"
        },
        {
          "internalType": "address",
          "name": "_lenderAddress",
          "type": "address"
        },
        {
          "internalType": "uint256",
          "name": "_expirationTime",
          "type": "uint256"
        },
        {
          "internalType": "uint8",
          "name": "_v",
          "type": "uint8"
        },
        {
          "internalType": "bytes32",
          "name": "_r",
          "type": "bytes32"
        },
        {
          "internalType": "bytes32",
          "name": "_s",
          "type": "bytes32"
        }
      ],
      "name": "attestLender",
      "outputs": [],
      "stateMutability": "nonpayable",
      "type": "function"
    },
    {
      "inputs": [
        {
          "internalType": "uint256",
          "name": "_marketId",
          "type": "uint256"
        },
        {
          "internalType": "address",
          "name": "_lenderAddress",
          "type": "address"
        },
        {
          "internalType": "uint256",
          "name": "_expirationTime",
          "type": "uint256"
        }
      ],
      "name": "attestLender",
      "outputs": [],
      "stateMutability": "nonpayable",
      "type": "function"
    },
    {
      "inputs": [],
      "name": "borrowerAttestationSchemaId",
      "outputs": [
        {
          "internalType": "bytes32",
          "name": "",
          "type": "bytes32"
        }
      ],
      "stateMutability": "view",
      "type": "function"
    },
    {
      "inputs": [
        {
          "internalType": "uint256",
          "name": "_marketId",
          "type": "uint256"
        }
      ],
      "name": "borrowerExitMarket",
      "outputs": [],
      "stateMutability": "nonpayable",
      "type": "function"
    },
    {
      "inputs": [
        {
          "internalType": "uint256",
          "name": "_marketId",
          "type": "uint256"
        }
      ],
      "name": "closeMarket",
      "outputs": [],
      "stateMutability": "nonpayable",
      "type": "function"
    },
    {
      "inputs": [
        {
          "internalType": "address",
          "name": "_initialOwner",
          "type": "address"
        },
        {
          "internalType": "uint32",
          "name": "_paymentCycleDuration",
          "type": "uint32"
        },
        {
          "internalType": "uint32",
          "name": "_paymentDefaultDuration",
          "type": "uint32"
        },
        {
          "internalType": "uint32",
          "name": "_bidExpirationTime",
          "type": "uint32"
        },
        {
          "internalType": "uint16",
          "name": "_feePercent",
          "type": "uint16"
        },
        {
          "internalType": "bool",
          "name": "_requireLenderAttestation",
          "type": "bool"
        },
        {
          "internalType": "bool",
          "name": "_requireBorrowerAttestation",
          "type": "bool"
        },
        {
          "internalType": "enum PaymentType",
          "name": "_paymentType",
          "type": "uint8"
        },
        {
          "internalType": "string",
          "name": "_uri",
          "type": "string"
        }
      ],
      "name": "createMarket",
      "outputs": [
        {
          "internalType": "uint256",
          "name": "marketId_",
          "type": "uint256"
        }
      ],
      "stateMutability": "nonpayable",
      "type": "function"
    },
    {
      "inputs": [
        {
          "internalType": "address",
          "name": "_initialOwner",
          "type": "address"
        },
        {
          "internalType": "uint32",
          "name": "_paymentCycleDuration",
          "type": "uint32"
        },
        {
          "internalType": "uint32",
          "name": "_paymentDefaultDuration",
          "type": "uint32"
        },
        {
          "internalType": "uint32",
          "name": "_bidExpirationTime",
          "type": "uint32"
        },
        {
          "internalType": "uint16",
          "name": "_feePercent",
          "type": "uint16"
        },
        {
          "internalType": "bool",
          "name": "_requireLenderAttestation",
          "type": "bool"
        },
        {
          "internalType": "bool",
          "name": "_requireBorrowerAttestation",
          "type": "bool"
        },
        {
          "internalType": "string",
          "name": "_uri",
          "type": "string"
        }
      ],
      "name": "createMarket",
      "outputs": [
        {
          "internalType": "uint256",
          "name": "marketId_",
          "type": "uint256"
        }
      ],
      "stateMutability": "nonpayable",
      "type": "function"
    },
    {
      "inputs": [
        {
          "internalType": "uint256",
          "name": "_marketId",
          "type": "uint256"
        },
        {
          "internalType": "uint256",
          "name": "_page",
          "type": "uint256"
        },
        {
          "internalType": "uint256",
          "name": "_perPage",
          "type": "uint256"
        }
      ],
      "name": "getAllVerifiedBorrowersForMarket",
      "outputs": [
        {
          "internalType": "address[]",
          "name": "",
          "type": "address[]"
        }
      ],
      "stateMutability": "view",
      "type": "function"
    },
    {
      "inputs": [
        {
          "internalType": "uint256",
          "name": "_marketId",
          "type": "uint256"
        },
        {
          "internalType": "uint256",
          "name": "_page",
          "type": "uint256"
        },
        {
          "internalType": "uint256",
          "name": "_perPage",
          "type": "uint256"
        }
      ],
      "name": "getAllVerifiedLendersForMarket",
      "outputs": [
        {
          "internalType": "address[]",
          "name": "",
          "type": "address[]"
        }
      ],
      "stateMutability": "view",
      "type": "function"
    },
    {
      "inputs": [
        {
          "internalType": "uint256",
          "name": "marketId",
          "type": "uint256"
        }
      ],
      "name": "getBidExpirationTime",
      "outputs": [
        {
          "internalType": "uint32",
          "name": "",
          "type": "uint32"
        }
      ],
      "stateMutability": "view",
      "type": "function"
    },
    {
      "inputs": [
        {
          "internalType": "uint256",
          "name": "_marketId",
          "type": "uint256"
        }
      ],
      "name": "getMarketAttestationRequirements",
      "outputs": [
        {
          "internalType": "bool",
          "name": "lenderAttestationRequired",
          "type": "bool"
        },
        {
          "internalType": "bool",
          "name": "borrowerAttestationRequired",
          "type": "bool"
        }
      ],
      "stateMutability": "view",
      "type": "function"
    },
    {
      "inputs": [
        {
          "internalType": "uint256",
          "name": "_marketId",
          "type": "uint256"
        }
      ],
      "name": "getMarketData",
      "outputs": [
        {
          "internalType": "address",
          "name": "owner",
          "type": "address"
        },
        {
          "internalType": "uint32",
          "name": "paymentCycleDuration",
          "type": "uint32"
        },
        {
          "internalType": "uint32",
          "name": "paymentDefaultDuration",
          "type": "uint32"
        },
        {
          "internalType": "uint32",
          "name": "loanExpirationTime",
          "type": "uint32"
        },
        {
          "internalType": "string",
          "name": "metadataURI",
          "type": "string"
        },
        {
          "internalType": "uint16",
          "name": "marketplaceFeePercent",
          "type": "uint16"
        },
        {
          "internalType": "bool",
          "name": "lenderAttestationRequired",
          "type": "bool"
        }
      ],
      "stateMutability": "view",
      "type": "function"
    },
    {
      "inputs": [
        {
          "internalType": "uint256",
          "name": "_marketId",
          "type": "uint256"
        }
      ],
      "name": "getMarketFeeRecipient",
      "outputs": [
        {
          "internalType": "address",
          "name": "",
          "type": "address"
        }
      ],
      "stateMutability": "view",
      "type": "function"
    },
    {
      "inputs": [
        {
          "internalType": "uint256",
          "name": "_marketId",
          "type": "uint256"
        }
      ],
      "name": "getMarketOwner",
      "outputs": [
        {
          "internalType": "address",
          "name": "",
          "type": "address"
        }
      ],
      "stateMutability": "view",
      "type": "function"
    },
    {
      "inputs": [
        {
          "internalType": "uint256",
          "name": "_marketId",
          "type": "uint256"
        }
      ],
      "name": "getMarketURI",
      "outputs": [
        {
          "internalType": "string",
          "name": "",
          "type": "string"
        }
      ],
      "stateMutability": "view",
      "type": "function"
    },
    {
      "inputs": [
        {
          "internalType": "uint256",
          "name": "_marketId",
          "type": "uint256"
        }
      ],
      "name": "getMarketplaceFee",
      "outputs": [
        {
          "internalType": "uint16",
          "name": "fee",
          "type": "uint16"
        }
      ],
      "stateMutability": "view",
      "type": "function"
    },
    {
      "inputs": [
        {
          "internalType": "uint256",
          "name": "_marketId",
          "type": "uint256"
        }
      ],
      "name": "getPaymentCycleDuration",
      "outputs": [
        {
          "internalType": "uint32",
          "name": "",
          "type": "uint32"
        }
      ],
      "stateMutability": "view",
      "type": "function"
    },
    {
      "inputs": [
        {
          "internalType": "uint256",
          "name": "_marketId",
          "type": "uint256"
        }
      ],
      "name": "getPaymentDefaultDuration",
      "outputs": [
        {
          "internalType": "uint32",
          "name": "",
          "type": "uint32"
        }
      ],
      "stateMutability": "view",
      "type": "function"
    },
    {
      "inputs": [
        {
          "internalType": "uint256",
          "name": "_marketId",
          "type": "uint256"
        }
      ],
      "name": "getPaymentType",
      "outputs": [
        {
          "internalType": "enum PaymentType",
          "name": "",
          "type": "uint8"
        }
      ],
      "stateMutability": "view",
      "type": "function"
    },
    {
      "inputs": [
        {
          "internalType": "contract TellerAS",
          "name": "_tellerAS",
          "type": "address"
        }
      ],
      "name": "initialize",
      "outputs": [],
      "stateMutability": "nonpayable",
      "type": "function"
    },
    {
      "inputs": [
        {
          "internalType": "uint256",
          "name": "_marketId",
          "type": "uint256"
        }
      ],
      "name": "isMarketClosed",
      "outputs": [
        {
          "internalType": "bool",
          "name": "",
          "type": "bool"
        }
      ],
      "stateMutability": "view",
      "type": "function"
    },
    {
      "inputs": [],
      "name": "isPayable",
      "outputs": [
        {
          "internalType": "bool",
          "name": "",
          "type": "bool"
        }
      ],
      "stateMutability": "pure",
      "type": "function"
    },
    {
      "inputs": [
        {
          "internalType": "uint256",
          "name": "_marketId",
          "type": "uint256"
        },
        {
          "internalType": "address",
          "name": "_borrowerAddress",
          "type": "address"
        }
      ],
      "name": "isVerifiedBorrower",
      "outputs": [
        {
          "internalType": "bool",
          "name": "isVerified_",
          "type": "bool"
        },
        {
          "internalType": "bytes32",
          "name": "uuid_",
          "type": "bytes32"
        }
      ],
      "stateMutability": "view",
      "type": "function"
    },
    {
      "inputs": [
        {
          "internalType": "uint256",
          "name": "_marketId",
          "type": "uint256"
        },
        {
          "internalType": "address",
          "name": "_lenderAddress",
          "type": "address"
        }
      ],
      "name": "isVerifiedLender",
      "outputs": [
        {
          "internalType": "bool",
          "name": "isVerified_",
          "type": "bool"
        },
        {
          "internalType": "bytes32",
          "name": "uuid_",
          "type": "bytes32"
        }
      ],
      "stateMutability": "view",
      "type": "function"
    },
    {
      "inputs": [],
      "name": "lenderAttestationSchemaId",
      "outputs": [
        {
          "internalType": "bytes32",
          "name": "",
          "type": "bytes32"
        }
      ],
      "stateMutability": "view",
      "type": "function"
    },
    {
      "inputs": [
        {
          "internalType": "uint256",
          "name": "_marketId",
          "type": "uint256"
        }
      ],
      "name": "lenderExitMarket",
      "outputs": [],
      "stateMutability": "nonpayable",
      "type": "function"
    },
    {
      "inputs": [],
      "name": "marketCount",
      "outputs": [
        {
          "internalType": "uint256",
          "name": "",
          "type": "uint256"
        }
      ],
      "stateMutability": "view",
      "type": "function"
    },
    {
      "inputs": [],
      "name": "onUpgrade",
      "outputs": [],
      "stateMutability": "nonpayable",
      "type": "function"
    },
    {
      "inputs": [
        {
          "internalType": "address",
          "name": "recipient",
          "type": "address"
        },
        {
          "internalType": "bytes",
          "name": "schema",
          "type": "bytes"
        },
        {
          "internalType": "bytes",
          "name": "data",
          "type": "bytes"
        },
        {
          "internalType": "uint256",
          "name": "",
          "type": "uint256"
        },
        {
          "internalType": "address",
          "name": "attestor",
          "type": "address"
        }
      ],
      "name": "resolve",
      "outputs": [
        {
          "internalType": "bool",
          "name": "",
          "type": "bool"
        }
      ],
      "stateMutability": "payable",
      "type": "function"
    },
    {
      "inputs": [
        {
          "internalType": "uint256",
          "name": "_marketId",
          "type": "uint256"
        },
        {
          "internalType": "address",
          "name": "_borrowerAddress",
          "type": "address"
        }
      ],
      "name": "revokeBorrower",
      "outputs": [],
      "stateMutability": "nonpayable",
      "type": "function"
    },
    {
      "inputs": [
        {
          "internalType": "uint256",
          "name": "_marketId",
          "type": "uint256"
        },
        {
          "internalType": "address",
          "name": "_borrowerAddress",
          "type": "address"
        },
        {
          "internalType": "uint8",
          "name": "_v",
          "type": "uint8"
        },
        {
          "internalType": "bytes32",
          "name": "_r",
          "type": "bytes32"
        },
        {
          "internalType": "bytes32",
          "name": "_s",
          "type": "bytes32"
        }
      ],
      "name": "revokeBorrower",
      "outputs": [],
      "stateMutability": "nonpayable",
      "type": "function"
    },
    {
      "inputs": [
        {
          "internalType": "uint256",
          "name": "_marketId",
          "type": "uint256"
        },
        {
          "internalType": "address",
          "name": "_lenderAddress",
          "type": "address"
        },
        {
          "internalType": "uint8",
          "name": "_v",
          "type": "uint8"
        },
        {
          "internalType": "bytes32",
          "name": "_r",
          "type": "bytes32"
        },
        {
          "internalType": "bytes32",
          "name": "_s",
          "type": "bytes32"
        }
      ],
      "name": "revokeLender",
      "outputs": [],
      "stateMutability": "nonpayable",
      "type": "function"
    },
    {
      "inputs": [
        {
          "internalType": "uint256",
          "name": "_marketId",
          "type": "uint256"
        },
        {
          "internalType": "address",
          "name": "_lenderAddress",
          "type": "address"
        }
      ],
      "name": "revokeLender",
      "outputs": [],
      "stateMutability": "nonpayable",
      "type": "function"
    },
    {
      "inputs": [
        {
          "internalType": "uint256",
          "name": "_marketId",
          "type": "uint256"
        },
        {
          "internalType": "uint32",
          "name": "_duration",
          "type": "uint32"
        }
      ],
      "name": "setBidExpirationTime",
      "outputs": [],
      "stateMutability": "nonpayable",
      "type": "function"
    },
    {
      "inputs": [
        {
          "internalType": "uint256",
          "name": "_marketId",
          "type": "uint256"
        },
        {
          "internalType": "bool",
          "name": "_required",
          "type": "bool"
        }
      ],
      "name": "setBorrowerAttestationRequired",
      "outputs": [],
      "stateMutability": "nonpayable",
      "type": "function"
    },
    {
      "inputs": [
        {
          "internalType": "uint256",
          "name": "_marketId",
          "type": "uint256"
        },
        {
          "internalType": "bool",
          "name": "_required",
          "type": "bool"
        }
      ],
      "name": "setLenderAttestationRequired",
      "outputs": [],
      "stateMutability": "nonpayable",
      "type": "function"
    },
    {
      "inputs": [
        {
          "internalType": "uint256",
          "name": "_marketId",
          "type": "uint256"
        },
        {
          "internalType": "uint16",
          "name": "_newPercent",
          "type": "uint16"
        }
      ],
      "name": "setMarketFeePercent",
      "outputs": [],
      "stateMutability": "nonpayable",
      "type": "function"
    },
    {
      "inputs": [
        {
          "internalType": "uint256",
          "name": "_marketId",
          "type": "uint256"
        },
        {
          "internalType": "address",
          "name": "_recipient",
          "type": "address"
        }
      ],
      "name": "setMarketFeeRecipient",
      "outputs": [],
      "stateMutability": "nonpayable",
      "type": "function"
    },
    {
      "inputs": [
        {
          "internalType": "uint256",
          "name": "_marketId",
          "type": "uint256"
        },
        {
          "internalType": "enum PaymentType",
          "name": "_newPaymentType",
          "type": "uint8"
        }
      ],
      "name": "setMarketPaymentType",
      "outputs": [],
      "stateMutability": "nonpayable",
      "type": "function"
    },
    {
      "inputs": [
        {
          "internalType": "uint256",
          "name": "_marketId",
          "type": "uint256"
        },
        {
          "internalType": "string",
          "name": "_uri",
          "type": "string"
        }
      ],
      "name": "setMarketURI",
      "outputs": [],
      "stateMutability": "nonpayable",
      "type": "function"
    },
    {
      "inputs": [
        {
          "internalType": "uint256",
          "name": "_marketId",
          "type": "uint256"
        },
        {
          "internalType": "uint32",
          "name": "_duration",
          "type": "uint32"
        }
      ],
      "name": "setPaymentCycleDuration",
      "outputs": [],
      "stateMutability": "nonpayable",
      "type": "function"
    },
    {
      "inputs": [
        {
          "internalType": "uint256",
          "name": "_marketId",
          "type": "uint256"
        },
        {
          "internalType": "uint32",
          "name": "_duration",
          "type": "uint32"
        }
      ],
      "name": "setPaymentDefaultDuration",
      "outputs": [],
      "stateMutability": "nonpayable",
      "type": "function"
    },
    {
      "inputs": [],
      "name": "tellerAS",
      "outputs": [
        {
          "internalType": "contract TellerAS",
          "name": "",
          "type": "address"
        }
      ],
      "stateMutability": "view",
      "type": "function"
    },
    {
      "inputs": [
        {
          "internalType": "uint256",
          "name": "_marketId",
          "type": "uint256"
        },
        {
          "internalType": "address",
          "name": "_newOwner",
          "type": "address"
        }
      ],
      "name": "transferMarketOwnership",
      "outputs": [],
      "stateMutability": "nonpayable",
      "type": "function"
    },
    {
      "inputs": [
        {
          "internalType": "uint256",
          "name": "_marketId",
          "type": "uint256"
        },
        {
          "internalType": "uint32",
          "name": "_paymentCycleDuration",
          "type": "uint32"
        },
        {
          "internalType": "uint32",
          "name": "_paymentDefaultDuration",
          "type": "uint32"
        },
        {
          "internalType": "uint32",
          "name": "_bidExpirationTime",
          "type": "uint32"
        },
        {
          "internalType": "uint16",
          "name": "_feePercent",
          "type": "uint16"
        },
        {
          "internalType": "bool",
          "name": "_borrowerAttestationRequired",
          "type": "bool"
        },
        {
          "internalType": "bool",
          "name": "_lenderAttestationRequired",
          "type": "bool"
        },
        {
          "internalType": "string",
          "name": "_metadataURI",
          "type": "string"
        }
      ],
      "name": "updateMarketSettings",
      "outputs": [],
      "stateMutability": "nonpayable",
      "type": "function"
    },
    {
      "inputs": [],
      "name": "version",
      "outputs": [
        {
          "internalType": "uint256",
          "name": "",
          "type": "uint256"
        }
      ],
      "stateMutability": "view",
      "type": "function"
    },
    {
      "stateMutability": "payable",
      "type": "receive"
    }
  ],
  "bytecode": {
    "object": "0x608060405234801561001057600080fd5b506130eb806100206000396000f3fe6080604052600436106102b25760003560e01c80637f027a1a11610175578063be99279b116100dc578063d6e794dd11610095578063ec9790821161006f578063ec979082146109ca578063ecd6ce6e146109e0578063f7c0c55514610a00578063f9fa934514610a2057600080fd5b8063d6e794dd14610943578063ddfafef61461098a578063e4050e29146109aa57600080fd5b8063be99279b1461087c578063bfacba3d1461089c578063c4d66de8146108cf578063c995cddc146108ef578063cb90cc311461090f578063ce46e0461461092f57600080fd5b806397eb575b1161012e57806397eb575b146107bc578063aa542fa5146107dc578063ae418095146107fc578063b6b6d77f1461081c578063bc4c34951461083c578063bd536e6e1461085c57600080fd5b80637f027a1a146106ad578063805deb53146106cd5780638b636632146107035780638eff9ea414610723578063947a75b41461078957806394e8e97e1461079c57600080fd5b80633ef19a9b11610219578063583b16ae116101d2578063583b16ae146105f75780636054b175146106175780636441379614610637578063679700d9146106575780637694d2ec1461066d5780637cfc18181461068d57600080fd5b80633ef19a9b1461054c5780633fa7f6881461056c5780634148f94c1461058c578063455154e5146105a1578063532f5694146105c157806354fd4d50146105e157600080fd5b80631cc672df1161026b5780631cc672df1461042d5780631db2b0d91461046d5780631ebc7da81461049a5780632f1be8f9146104ba5780633c0db788146104da5780633d369029146104fe57600080fd5b8063066e7513146102d7578063082fc54d146103135780630a2e98e41461036557806311bed5bb146103ad5780631824a46b146103eb5780631a4808d21461040057600080fd5b366102d257604051631574f9f360e01b815260040160405180910390fd5b005b600080fd5b3480156102e357600080fd5b506102f76102f2366004612618565b610a40565b6040805192151583526020830191909152015b60405180910390f35b34801561031f57600080fd5b5061035061032e366004612648565b600090815260026020526040902060060154600160401b900463ffffffff1690565b60405163ffffffff909116815260200161030a565b34801561037157600080fd5b5061039a610380366004612648565b6000908152600260208190526040909120015461ffff1690565b60405161ffff909116815260200161030a565b3480156103b957600080fd5b506103506103c8366004612648565b600090815260026020526040902060060154640100000000900463ffffffff1690565b3480156103f757600080fd5b506102d0610a80565b34801561040c57600080fd5b5061042061041b366004612648565b610af1565b60405161030a91906126a7565b34801561043957600080fd5b5061045d610448366004612648565b60009081526008602052604090205460ff1690565b604051901515815260200161030a565b34801561047957600080fd5b5061048d6104883660046126ba565b610b96565b60405161030a91906126e6565b3480156104a657600080fd5b506102d06104b5366004612618565b610bc0565b3480156104c657600080fd5b506102d06104d536600461274c565b610c63565b3480156104e657600080fd5b506104f060015481565b60405190815260200161030a565b34801561050a57600080fd5b50610534610519366004612648565b6000908152600260205260409020546001600160a01b031690565b6040516001600160a01b03909116815260200161030a565b34801561055857600080fd5b506102f7610567366004612618565b610d33565b34801561057857600080fd5b506102d0610587366004612789565b610d67565b34801561059857600080fd5b506104f0600781565b3480156105ad57600080fd5b506102d06105bc366004612618565b610d7f565b3480156105cd57600080fd5b506102d06105dc366004612825565b610d8f565b3480156105ed57600080fd5b506104f060075481565b34801561060357600080fd5b506102d0610612366004612789565b610e8c565b34801561062357600080fd5b506102d0610632366004612871565b610e9c565b34801561064357600080fd5b50610534610652366004612648565b610eb2565b34801561066357600080fd5b506104f060065481565b34801561067957600080fd5b5061048d6106883660046126ba565b610ef5565b34801561069957600080fd5b506102d06106a8366004612618565b610f14565b3480156106b957600080fd5b506102d06106c8366004612648565b610fab565b3480156106d957600080fd5b506103506106e8366004612648565b60009081526002602052604090206006015463ffffffff1690565b34801561070f57600080fd5b506102d061071e366004612618565b611017565b34801561072f57600080fd5b5061077261073e366004612648565b6000908152600260208190526040909120908101546006909101546201000090910460ff90811692600160601b9092041690565b60408051921515835290151560208301520161030a565b61045d6107973660046128c1565b611023565b3480156107a857600080fd5b506102d06107b736600461296f565b6110d1565b3480156107c857600080fd5b506102d06107d7366004612994565b61118e565b3480156107e857600080fd5b506102d06107f73660046129db565b61119b565b34801561080857600080fd5b506102d0610817366004612648565b611281565b34801561082857600080fd5b506102d0610837366004612a10565b61131a565b34801561084857600080fd5b506102d0610857366004612871565b611412565b34801561086857600080fd5b506102d061087736600461274c565b611421565b34801561088857600080fd5b506102d061089736600461296f565b6114ee565b3480156108a857600080fd5b506108bc6108b7366004612648565b6115ad565b60405161030a9796959493929190612a33565b3480156108db57600080fd5b506102d06108ea366004612a92565b6116bf565b3480156108fb57600080fd5b506102d061090a366004612648565b611a1c565b34801561091b57600080fd5b506104f061092a366004612aaf565b611a67565b34801561093b57600080fd5b50600061045d565b34801561094f57600080fd5b5061097d61095e366004612648565b6000908152600260205260409020600a0154600160a01b900460ff1690565b60405161030a9190612bba565b34801561099657600080fd5b50600954610534906001600160a01b031681565b3480156109b657600080fd5b506102d06109c5366004612994565b611a7b565b3480156109d657600080fd5b506104f060045481565b3480156109ec57600080fd5b506102d06109fb36600461274c565b611a88565b348015610a0c57600080fd5b506102d0610a1b366004612bc8565b611b3d565b348015610a2c57600080fd5b506104f0610a3b366004612c80565b611bc8565b600082815260026020526040812060068101548291610a74918591600160601b90910460ff16906009810190600701611beb565b915091505b9250929050565b6007805403610aeb5760405162461bcd60e51b815260206004820152602c60248201527f436f6e747261637420616c726561647920757067726164656420746f206c617460448201526b6573742076657273696f6e2160a01b60648201526084015b60405180910390fd5b60078055565b6000818152600260205260409020600101805460609190610b1190612cb8565b80601f0160208091040260200160405190810160405280929190818152602001828054610b3d90612cb8565b8015610b8a5780601f10610b5f57610100808354040283529160200191610b8a565b820191906000526020600020905b815481529060010190602001808311610b6d57829003601f168201915b50505050509050919050565b6000838152600260205260409020606090600301610bb5818585611cb6565b9150505b9392505050565b60008281526002602052604090205482906001600160a01b03163314610bf85760405162461bcd60e51b8152600401610ae290612cf2565b600083815260026020908152604091829020600a0180546001600160a01b0319166001600160a01b0386169081179091558251868152918201527ffc7e26c4fffcd77fc52c81b32a6a6b7838b5592ced8c14c1a46e2b4a322c568a91015b60405180910390a1505050565b60008281526002602052604090205482906001600160a01b03163314610c9b5760405162461bcd60e51b8152600401610ae290612cf2565b60008381526002602052604090206006015463ffffffff8381166401000000009092041614610d2e57600083815260026020908152604091829020600601805467ffffffff00000000191664010000000063ffffffff8716908102919091179091558251868152918201527f3e49e2efeacab7e8344acd4e7940449bf62039aa3734c34fa6d3525654be81019101610c56565b505050565b60008281526002602081905260408220908101548291610a749185916201000090910460ff16906005810190600301611beb565b610d778686866001878787611d9d565b505050505050565b610d8b82826000611ed3565b5050565b60008381526002602052604090205483906001600160a01b03163314610dc75760405162461bcd60e51b8152600401610ae290612cf2565b6000848152600260209081526040918290209151610de9926001019101612d19565b604051602081830303815290604052805190602001208383604051602001610e12929190612d8f565b6040516020818303038152906040528051906020012014610e86576000848152600260205260409020600101610e49838583612dfb565b507f6218b53065a32d32b3f52d9ad728c1b826a2aae15fc1ee92f83836debbcc1029848484604051610e7d93929190612ebb565b60405180910390a15b50505050565b610d778686866000878787611d9d565b610eab85856001868686611f46565b5050505050565b6000818152600260205260408120600a01546001600160a01b031680610eef5750506000908152600260205260409020546001600160a01b031690565b92915050565b6000838152600260205260409020606090600701610bb5818585611cb6565b60008281526002602052604090205482906001600160a01b03163314610f4c5760405162461bcd60e51b8152600401610ae290612cf2565b60008381526002602090815260409182902080546001600160a01b0319166001600160a01b0386169081179091558251868152918201527ff68f2d4b68e0d54a81a3b8e53403ddec34a1e288cf6a6f6b3621c0a47b6e36f99101610c56565b6000818152600260205260408120610fc69060030133611f5d565b90508015610d8b577f55e867ccc9ac324e2c193ce4ed25397fb890213c704685f2c9fbe5bd7507298682335b604080519283526001600160a01b039091166020830152015b60405180910390a15050565b610d8b82826001611ed3565b60008087873060405160200161103b93929190612ef1565b60408051601f198184030181529190528051602090910120905060008061106487890189612618565b915091508260055414801561108a5750806001600160a01b03168b6001600160a01b0316145b80156110af57506000828152600260205260409020546001600160a01b038681169116145b806110c257506001600160a01b03851630145b9b9a5050505050505050505050565b60008281526002602052604090205482906001600160a01b031633146111095760405162461bcd60e51b8152600401610ae290612cf2565b6000838152600260208190526040909120015462010000900460ff16151582151514610d2e57600083815260026020818152604092839020909101805462ff0000191662010000861515908102919091179091558251868152918201527f4666a8529dea37114f2ecc11706d613f7a59a7967f8467da6877820b83d405a19101610c56565b610d2e8383836001611f72565b60008281526002602052604090205482906001600160a01b031633146111d35760405162461bcd60e51b8152600401610ae290612cf2565b6000838152600260205260409020600a0154600160a01b900460ff16600181111561120057611200612b82565b82600181111561121257611212612b82565b14610d2e576000838152600260205260409020600a01805483919060ff60a01b1916600160a01b83600181111561124b5761124b612b82565b02179055507ff81d9cc918f72edfc74e6b61d4e19ef9a739e94a0e9715b108e6af62275142ef8383604051610c56929190612f17565b60008181526002602052604090205481906001600160a01b031633146112b95760405162461bcd60e51b8152600401610ae290612cf2565b60008281526008602052604090205460ff16610d8b5760008281526008602052604090819020805460ff19166001179055517f9dc30b8eda31a6a144e092e5de600955523a6a925cc15cc1d1b9b4872cfa61559061100b9084815260200190565b60008281526002602052604090205482906001600160a01b031633146113525760405162461bcd60e51b8152600401610ae290612cf2565b6127108261ffff16111561139a5760405162461bcd60e51b815260206004820152600f60248201526e1a5b9d985b1a59081c195c98d95b9d608a1b6044820152606401610ae2565b6000838152600260208190526040909120015461ffff838116911614610d2e57600083815260026020818152604092839020909101805461ffff191661ffff86169081179091558251868152918201527f9c6f3e426c05d512408d4ecf517e5155756288155088ad45a81c0e111e3d18549101610c56565b610eab85856000868686611f46565b60008281526002602052604090205482906001600160a01b031633146114595760405162461bcd60e51b8152600401610ae290612cf2565b60008381526002602052604090206006015463ffffffff838116600160401b9092041614610d2e5760008381526002602090815260409182902060060180546bffffffff00000000000000001916600160401b63ffffffff8716908102919091179091558251868152918201527ff0275a50e761f3b1635fa59ce199b1f2268b3fcb7fbdfb18c21aa3d2d78aa7b79101610c56565b60008281526002602052604090205482906001600160a01b031633146115265760405162461bcd60e51b8152600401610ae290612cf2565b600083815260026020526040902060060154600160601b900460ff16151582151514610d2e57600083815260026020908152604091829020600601805460ff60601b1916600160601b861515908102919091179091558251868152918201527fc906280af595fe94779bb9a972f24fe4e0ed7f76bebb4ee0eb9a5f30d6dd4c879101610c56565b60008181526002602081905260408220805460068201549282015460019092018054859485948594606094869485946001600160a01b039093169363ffffffff808516946401000000008104821694600160401b90910490911692909161ffff8116916201000090910460ff1690839061162690612cb8565b80601f016020809104026020016040519081016040528092919081815260200182805461165290612cb8565b801561169f5780601f106116745761010080835404028352916020019161169f565b820191906000526020600020905b81548152906001019060200180831161168257829003601f168201915b505050505092509650965096509650965096509650919395979092949650565b600054610100900460ff16158080156116df5750600054600160ff909116105b806116f95750303b1580156116f9575060005460ff166001145b61175c5760405162461bcd60e51b815260206004820152602e60248201527f496e697469616c697a61626c653a20636f6e747261637420697320616c72656160448201526d191e481a5b9a5d1a585b1a5e995960921b6064820152608401610ae2565b6000805460ff19166001179055801561177f576000805461ff0019166101001790555b600980546001600160a01b0319166001600160a01b038416908117909155604080516381fa6cd360e01b815290516381fa6cd3916004808201926020929091908290030181865afa1580156117d8573d6000803e3d6000fd5b505050506040513d601f19601f820116820180604052508101906117fc9190612f2b565b6040805163a99e7e2960e01b81526004810191909152602960448201527f2875696e74323536206d61726b657449642c2061646472657373206c656e646560648201526872416464726573732960b81b60848201523060248201526001600160a01b03919091169063a99e7e299060a4016020604051808303816000875af115801561188c573d6000803e3d6000fd5b505050506040513d601f19601f820116820180604052508101906118b09190612f48565b600155600954604080516381fa6cd360e01b815290516001600160a01b03909216916381fa6cd3916004808201926020929091908290030181865afa1580156118fd573d6000803e3d6000fd5b505050506040513d601f19601f820116820180604052508101906119219190612f2b565b6040805163a99e7e2960e01b81526004810191909152602b60448201527f2875696e74323536206d61726b657449642c206164647265737320626f72726f60648201526a776572416464726573732960a81b60848201523060248201526001600160a01b03919091169063a99e7e299060a4016020604051808303816000875af11580156119b3573d6000803e3d6000fd5b505050506040513d601f19601f820116820180604052508101906119d79190612f48565b6006558015610d8b576000805461ff0019169055604051600181527f7f26b83ff96e1f2b6a682f133852f6798a09c465da95921460cefb38474024989060200161100b565b6000818152600260205260408120611a379060070133611f5d565b90508015610d8b577f914ccbaf2f5c9c2f4b7c6be3497b6b2ceb6ce2d050aec6eb2e0e31b8f9f67f0c8233610ff2565b60006110c28b8b8b8b8b8b8b8b8b8b6120c0565b610d2e8383836000611f72565b60008281526002602052604090205482906001600160a01b03163314611ac05760405162461bcd60e51b8152600401610ae290612cf2565b60008381526002602052604090206006015463ffffffff838116911614610d2e57600083815260026020908152604091829020600601805463ffffffff191663ffffffff86169081179091558251868152918201527fa04499c227e7a6de804e5a57e4b38990792373bd8d73b6c13ab76e40600748439101610c56565b60008981526002602052604090205489906001600160a01b03163314611b755760405162461bcd60e51b8152600401610ae290612cf2565b611b808a8484610d8f565b611b8a8a8a611a88565b611b948a89610c63565b611b9e8a88611421565b611ba88a8761131a565b611bb28a856110d1565b611bbc8a866114ee565b50505050505050505050565b6000611bdd8a8a8a8a8a8a8a60008b8b6120c0565b9a9950505050505050505050565b6000808415611ca857611bfe838761222c565b8015611c8557506009546001600160a01b03878116600090815260208790526040908190205490516330cd251f60e21b8152600481019190915291169063c334947c90602401602060405180830381865afa158015611c61573d6000803e3d6000fd5b505050506040513d601f19601f82011682018060405250810190611c859190612f61565b6001600160a01b0387166000908152602086905260409020549092509050611cad565b600191505b94509492505050565b60606000611cc38561224e565b90506000611cd18486612f94565b9050818111611d94576000611ce68583612fab565b905082811115611cf35750815b611cfd8282612fbe565b67ffffffffffffffff811115611d1557611d15612d9f565b604051908082528060200260200182016040528015611d3e578160200160208202803683370190505b509350815b81811015611d9157611d558882612258565b858281518110611d6757611d67612fd1565b6001600160a01b039092166020928302919091019091015280611d8981612fe7565b915050611d43565b50505b50509392505050565b83611daa57600654611dae565b6001545b806005819055506000808989604051602001611ddd9291909182526001600160a01b0316602082015260400190565b60405160208183030381529060405290506000600260008c815260200190815260200160002060000160009054906101000a90046001600160a01b03169050600960009054906101000a90046001600160a01b03166001600160a01b031663930ed0138b6005548c600087878e8e8e6040518a63ffffffff1660e01b8152600401611e7099989796959493929190613000565b6020604051808303816000875af1158015611e8f573d6000803e3d6000fd5b505050506040513d601f19601f82011682018060405250810190611eb39190612f48565b92505050611ec389898389612264565b5050600060055550505050505050565b6000838152600260205260409020546001600160a01b0316336001600160a01b031614611f395760405162461bcd60e51b81526020600482015260146024820152732737ba103a34329036b0b935b2ba1037bbb732b960611b6044820152606401610ae2565b6000610eab848484612366565b6000611f53878787612366565b5050505050505050565b6000610bb9836001600160a01b038416612476565b80611f7f57600654611f83565b6001545b60058190556000858152600260205260409020546001600160a01b0316336001600160a01b031614611fee5760405162461bcd60e51b81526020600482015260146024820152732737ba103a34329036b0b935b2ba1037bbb732b960611b6044820152606401610ae2565b6009546005546040516000926001600160a01b0316916309a954cd9188919088908690612033908d9086906020019182526001600160a01b0316602082015260400190565b6040516020818303038152906040526040518663ffffffff1660e01b8152600401612062959493929190613061565b6020604051808303816000875af1158015612081573d6000803e3d6000fd5b505050506040513d601f19601f820116820180604052508101906120a59190612f48565b90506120b386868386612264565b5050600060055550505050565b60006001600160a01b038b166121105760405162461bcd60e51b8152602060048201526015602482015274496e76616c6964206f776e6572206164647265737360581b6044820152606401610ae2565b60046000815461211f90612fe7565b9182905550600081815260026020526040902080546001600160a01b0319166001600160a01b038e161790559050612158818484610d8f565b612162818b611a88565b61216c818a610c63565b612176818861131a565b6121808189611421565b61218a818561119b565b85156121b257600081815260026020819052604090912001805462ff00001916620100001790555b84156121db576000818152600260205260409020600601805460ff60601b1916600160601b1790555b8a6001600160a01b03167fa69fa77c6a90b171cf4e3d9a9dd6c4e56fbd1fbbdcf3925eaf600ccaa917feab8260405161221691815260200190565b60405180910390a29a9950505050505050505050565b6001600160a01b03811660009081526001830160205260408120541515610bb9565b6000610eef825490565b6000610bb98383612569565b80156122ec5760008481526002602081815260408084206001600160a01b038816855260058101835290842086905592879052526122a59060030184612593565b50604080518581526001600160a01b03851660208201527f75675690de0899b0b869d83b44b2d926ac594426b2a0286c478ecdf815cbd33e910160405180910390a1610e86565b60008481526002602081815260408084206001600160a01b038816855260098101835290842086905592879052526123279060070184612593565b50604080518581526001600160a01b03851660208201527f0c2cfc7e7a16ebee66e77fb314f4bfdb5505e33e77d41c0c60604efc70fd926b9101610e7d565b600081156123f1575060008381526002602081815260408084206001600160a01b038716855260058101835290842054938790529190526123aa9060030184611f5d565b50604080518581526001600160a01b03851660208201527f6e7c30dc58d3daa1458c79b66ca464f5f3d8a23d9e50eb14daf1cb0923bf2900910160405180910390a1610bb9565b5060008381526002602081815260408084206001600160a01b0387168552600981018352908420549387905291905261242d9060070184611f5d565b50604080518581526001600160a01b03851660208201527fe76a3e8b220b622b9fc2a655ab867687a93f195809eb3639f422e60936ff7eb4910160405180910390a19392505050565b6000818152600183016020526040812054801561255f57600061249a600183612fbe565b85549091506000906124ae90600190612fbe565b90508181146125135760008660000182815481106124ce576124ce612fd1565b90600052602060002001549050808760000184815481106124f1576124f1612fd1565b6000918252602080832090910192909255918252600188019052604090208390555b85548690806125245761252461309f565b600190038181906000526020600020016000905590558560010160008681526020019081526020016000206000905560019350505050610eef565b6000915050610eef565b600082600001828154811061258057612580612fd1565b9060005260206000200154905092915050565b6000610bb9836001600160a01b03841660006125c2838360009081526001919091016020526040902054151590565b6125f857508154600181810184556000848152602080822090930184905584548482528286019093526040902091909155610eef565b506000610eef565b6001600160a01b038116811461261557600080fd5b50565b6000806040838503121561262b57600080fd5b82359150602083013561263d81612600565b809150509250929050565b60006020828403121561265a57600080fd5b5035919050565b6000815180845260005b818110156126875760208185018101518683018201520161266b565b506000602082860101526020601f19601f83011685010191505092915050565b602081526000610bb96020830184612661565b6000806000606084860312156126cf57600080fd5b505081359360208301359350604090920135919050565b6020808252825182820181905260009190848201906040850190845b818110156127275783516001600160a01b031683529284019291840191600101612702565b50909695505050505050565b803563ffffffff8116811461274757600080fd5b919050565b6000806040838503121561275f57600080fd5b8235915061276f60208401612733565b90509250929050565b803560ff8116811461274757600080fd5b60008060008060008060c087890312156127a257600080fd5b8635955060208701356127b481612600565b9450604087013593506127c960608801612778565b92506080870135915060a087013590509295509295509295565b60008083601f8401126127f557600080fd5b50813567ffffffffffffffff81111561280d57600080fd5b602083019150836020828501011115610a7957600080fd5b60008060006040848603121561283a57600080fd5b83359250602084013567ffffffffffffffff81111561285857600080fd5b612864868287016127e3565b9497909650939450505050565b600080600080600060a0868803121561288957600080fd5b85359450602086013561289b81612600565b93506128a960408701612778565b94979396509394606081013594506080013592915050565b600080600080600080600060a0888a0312156128dc57600080fd5b87356128e781612600565b9650602088013567ffffffffffffffff8082111561290457600080fd5b6129108b838c016127e3565b909850965060408a013591508082111561292957600080fd5b506129368a828b016127e3565b90955093505060608801359150608088013561295181612600565b8091505092959891949750929550565b801515811461261557600080fd5b6000806040838503121561298257600080fd5b82359150602083013561263d81612961565b6000806000606084860312156129a957600080fd5b8335925060208401356129bb81612600565b929592945050506040919091013590565b80356002811061274757600080fd5b600080604083850312156129ee57600080fd5b8235915061276f602084016129cc565b803561ffff8116811461274757600080fd5b60008060408385031215612a2357600080fd5b8235915061276f602084016129fe565b6001600160a01b038816815263ffffffff878116602083015286811660408301528516606082015260e060808201819052600090612a7390830186612661565b61ffff9490941660a08301525090151560c09091015295945050505050565b600060208284031215612aa457600080fd5b8135610bb981612600565b6000806000806000806000806000806101208b8d031215612acf57600080fd5b8a35612ada81612600565b9950612ae860208c01612733565b9850612af660408c01612733565b9750612b0460608c01612733565b9650612b1260808c016129fe565b955060a08b0135612b2281612961565b945060c08b0135612b3281612961565b9350612b4060e08c016129cc565b92506101008b013567ffffffffffffffff811115612b5d57600080fd5b612b698d828e016127e3565b915080935050809150509295989b9194979a5092959850565b634e487b7160e01b600052602160045260246000fd5b60028110612bb657634e487b7160e01b600052602160045260246000fd5b9052565b60208101610eef8284612b98565b60008060008060008060008060006101008a8c031215612be757600080fd5b89359850612bf760208b01612733565b9750612c0560408b01612733565b9650612c1360608b01612733565b9550612c2160808b016129fe565b945060a08a0135612c3181612961565b935060c08a0135612c4181612961565b925060e08a013567ffffffffffffffff811115612c5d57600080fd5b612c698c828d016127e3565b915080935050809150509295985092959850929598565b60008060008060008060008060006101008a8c031215612c9f57600080fd5b8935612caa81612600565b9850612bf760208b01612733565b600181811c90821680612ccc57607f821691505b602082108103612cec57634e487b7160e01b600052602260045260246000fd5b50919050565b6020808252600d908201526c2737ba103a34329037bbb732b960991b604082015260600190565b6000808354612d2781612cb8565b60018281168015612d3f5760018114612d5457612d83565b60ff1984168752821515830287019450612d83565b8760005260208060002060005b85811015612d7a5781548a820152908401908201612d61565b50505082870194505b50929695505050505050565b8183823760009101908152919050565b634e487b7160e01b600052604160045260246000fd5b601f821115610d2e57600081815260208120601f850160051c81016020861015612ddc5750805b601f850160051c820191505b81811015610d7757828155600101612de8565b67ffffffffffffffff831115612e1357612e13612d9f565b612e2783612e218354612cb8565b83612db5565b6000601f841160018114612e5b5760008515612e435750838201355b600019600387901b1c1916600186901b178355610eab565b600083815260209020601f19861690835b82811015612e8c5786850135825560209485019460019092019101612e6c565b5086821015612ea95760001960f88860031b161c19848701351681555b505060018560011b0183555050505050565b83815260406020820152816040820152818360608301376000818301606090810191909152601f909201601f1916010192915050565b8284823760609190911b6bffffffffffffffffffffffff19169101908152601401919050565b82815260408101610bb96020830184612b98565b600060208284031215612f3d57600080fd5b8151610bb981612600565b600060208284031215612f5a57600080fd5b5051919050565b600060208284031215612f7357600080fd5b8151610bb981612961565b634e487b7160e01b600052601160045260246000fd5b8082028115828204841417610eef57610eef612f7e565b80820180821115610eef57610eef612f7e565b81810381811115610eef57610eef612f7e565b634e487b7160e01b600052603260045260246000fd5b600060018201612ff957612ff9612f7e565b5060010190565b600061012060018060a01b03808d1684528b60208501528a60408501528960608501528160808501526130358285018a612661565b971660a0840152505060ff9390931660c084015260e08301919091526101009091015295945050505050565b60018060a01b038616815284602082015283604082015282606082015260a06080820152600061309460a0830184612661565b979650505050505050565b634e487b7160e01b600052603160045260246000fdfea2646970667358221220d77bdc492c1e242af3f43d13b4c3c5d179c2d15f831c01c6caffb5b0db5a4d8f64736f6c63430008110033",
    "linkReferences": {}
  },
  "methodIdentifiers": {
    "CURRENT_CODE_VERSION()": "4148f94c",
    "attestBorrower(uint256,address,uint256)": "e4050e29",
    "attestBorrower(uint256,address,uint256,uint8,bytes32,bytes32)": "583b16ae",
    "attestLender(uint256,address,uint256)": "97eb575b",
    "attestLender(uint256,address,uint256,uint8,bytes32,bytes32)": "3fa7f688",
    "borrowerAttestationSchemaId()": "679700d9",
    "borrowerExitMarket(uint256)": "c995cddc",
    "closeMarket(uint256)": "ae418095",
    "createMarket(address,uint32,uint32,uint32,uint16,bool,bool,string)": "f9fa9345",
    "createMarket(address,uint32,uint32,uint32,uint16,bool,bool,uint8,string)": "cb90cc31",
    "getAllVerifiedBorrowersForMarket(uint256,uint256,uint256)": "7694d2ec",
    "getAllVerifiedLendersForMarket(uint256,uint256,uint256)": "1db2b0d9",
    "getBidExpirationTime(uint256)": "082fc54d",
    "getMarketAttestationRequirements(uint256)": "8eff9ea4",
    "getMarketData(uint256)": "bfacba3d",
    "getMarketFeeRecipient(uint256)": "64413796",
    "getMarketOwner(uint256)": "3d369029",
    "getMarketURI(uint256)": "1a4808d2",
    "getMarketplaceFee(uint256)": "0a2e98e4",
    "getPaymentCycleDuration(uint256)": "805deb53",
    "getPaymentDefaultDuration(uint256)": "11bed5bb",
    "getPaymentType(uint256)": "d6e794dd",
    "initialize(address)": "c4d66de8",
    "isMarketClosed(uint256)": "1cc672df",
    "isPayable()": "ce46e046",
    "isVerifiedBorrower(uint256,address)": "066e7513",
    "isVerifiedLender(uint256,address)": "3ef19a9b",
    "lenderAttestationSchemaId()": "3c0db788",
    "lenderExitMarket(uint256)": "7f027a1a",
    "marketCount()": "ec979082",
    "onUpgrade()": "1824a46b",
    "resolve(address,bytes,bytes,uint256,address)": "947a75b4",
    "revokeBorrower(uint256,address)": "455154e5",
    "revokeBorrower(uint256,address,uint8,bytes32,bytes32)": "bc4c3495",
    "revokeLender(uint256,address)": "8b636632",
    "revokeLender(uint256,address,uint8,bytes32,bytes32)": "6054b175",
    "setBidExpirationTime(uint256,uint32)": "bd536e6e",
    "setBorrowerAttestationRequired(uint256,bool)": "be99279b",
    "setLenderAttestationRequired(uint256,bool)": "94e8e97e",
    "setMarketFeePercent(uint256,uint16)": "b6b6d77f",
    "setMarketFeeRecipient(uint256,address)": "1ebc7da8",
    "setMarketPaymentType(uint256,uint8)": "aa542fa5",
    "setMarketURI(uint256,string)": "532f5694",
    "setPaymentCycleDuration(uint256,uint32)": "ecd6ce6e",
    "setPaymentDefaultDuration(uint256,uint32)": "2f1be8f9",
    "tellerAS()": "ddfafef6",
    "transferMarketOwnership(uint256,address)": "7cfc1818",
    "updateMarketSettings(uint256,uint32,uint32,uint32,uint16,bool,bool,string)": "f7c0c555",
    "version()": "54fd4d50"
  },
  "id": 5
}