{
  "abi": [
    {
      "inputs": [],
      "name": "NotPayable",
      "type": "error"
    },
    {
      "anonymous": false,
      "inputs": [
        {
          "indexed": false,
          "internalType": "uint256",
          "name": "marketId",
          "type": "uint256"
        },
        {
          "indexed": false,
          "internalType": "address",
          "name": "borrower",
          "type": "address"
        }
      ],
      "name": "BorrowerAttestation",
      "type": "event"
    },
    {
      "anonymous": false,
      "inputs": [
        {
          "indexed": false,
          "internalType": "uint256",
          "name": "marketId",
          "type": "uint256"
        },
        {
          "indexed": false,
          "internalType": "address",
          "name": "borrower",
          "type": "address"
        }
      ],
      "name": "BorrowerExitMarket",
      "type": "event"
    },
    {
      "anonymous": false,
      "inputs": [
        {
          "indexed": false,
          "internalType": "uint256",
          "name": "marketId",
          "type": "uint256"
        },
        {
          "indexed": false,
          "internalType": "address",
          "name": "borrower",
          "type": "address"
        }
      ],
      "name": "BorrowerRevocation",
      "type": "event"
    },
    {
      "anonymous": false,
      "inputs": [
        {
          "indexed": false,
          "internalType": "uint8",
          "name": "version",
          "type": "uint8"
        }
      ],
      "name": "Initialized",
      "type": "event"
    },
    {
      "anonymous": false,
      "inputs": [
        {
          "indexed": false,
          "internalType": "uint256",
          "name": "marketId",
          "type": "uint256"
        },
        {
          "indexed": false,
          "internalType": "address",
          "name": "lender",
          "type": "address"
        }
      ],
      "name": "LenderAttestation",
      "type": "event"
    },
    {
      "anonymous": false,
      "inputs": [
        {
          "indexed": false,
          "internalType": "uint256",
          "name": "marketId",
          "type": "uint256"
        },
        {
          "indexed": false,
          "internalType": "address",
          "name": "lender",
          "type": "address"
        }
      ],
      "name": "LenderExitMarket",
      "type": "event"
    },
    {
      "anonymous": false,
      "inputs": [
        {
          "indexed": false,
          "internalType": "uint256",
          "name": "marketId",
          "type": "uint256"
        },
        {
          "indexed": false,
          "internalType": "address",
          "name": "lender",
          "type": "address"
        }
      ],
      "name": "LenderRevocation",
      "type": "event"
    },
    {
      "anonymous": false,
      "inputs": [
        {
          "indexed": false,
          "internalType": "uint256",
          "name": "marketId",
          "type": "uint256"
        }
      ],
      "name": "MarketClosed",
      "type": "event"
    },
    {
      "anonymous": false,
      "inputs": [
        {
          "indexed": true,
          "internalType": "address",
          "name": "owner",
          "type": "address"
        },
        {
          "indexed": false,
          "internalType": "uint256",
          "name": "marketId",
          "type": "uint256"
        }
      ],
      "name": "MarketCreated",
      "type": "event"
    },
    {
      "anonymous": false,
      "inputs": [
        {
          "indexed": false,
          "internalType": "uint256",
          "name": "marketId",
          "type": "uint256"
        },
        {
          "indexed": false,
          "internalType": "uint32",
          "name": "duration",
          "type": "uint32"
        }
      ],
      "name": "SetBidExpirationTime",
      "type": "event"
    },
    {
      "anonymous": false,
      "inputs": [
        {
          "indexed": false,
          "internalType": "uint256",
          "name": "marketId",
          "type": "uint256"
        },
        {
          "indexed": false,
          "internalType": "bool",
          "name": "required",
          "type": "bool"
        }
      ],
      "name": "SetMarketBorrowerAttestation",
      "type": "event"
    },
    {
      "anonymous": false,
      "inputs": [
        {
          "indexed": false,
          "internalType": "uint256",
          "name": "marketId",
          "type": "uint256"
        },
        {
          "indexed": false,
          "internalType": "uint16",
          "name": "feePct",
          "type": "uint16"
        }
      ],
      "name": "SetMarketFee",
      "type": "event"
    },
    {
      "anonymous": false,
      "inputs": [
        {
          "indexed": false,
          "internalType": "uint256",
          "name": "marketId",
          "type": "uint256"
        },
        {
          "indexed": false,
          "internalType": "address",
          "name": "newRecipient",
          "type": "address"
        }
      ],
      "name": "SetMarketFeeRecipient",
      "type": "event"
    },
    {
      "anonymous": false,
      "inputs": [
        {
          "indexed": false,
          "internalType": "uint256",
          "name": "marketId",
          "type": "uint256"
        },
        {
          "indexed": false,
          "internalType": "bool",
          "name": "required",
          "type": "bool"
        }
      ],
      "name": "SetMarketLenderAttestation",
      "type": "event"
    },
    {
      "anonymous": false,
      "inputs": [
        {
          "indexed": false,
          "internalType": "uint256",
          "name": "marketId",
          "type": "uint256"
        },
        {
          "indexed": false,
          "internalType": "address",
          "name": "newOwner",
          "type": "address"
        }
      ],
      "name": "SetMarketOwner",
      "type": "event"
    },
    {
      "anonymous": false,
      "inputs": [
        {
          "indexed": false,
          "internalType": "uint256",
          "name": "marketId",
          "type": "uint256"
        },
        {
          "indexed": false,
          "internalType": "enum PaymentType",
          "name": "paymentType",
          "type": "uint8"
        }
      ],
      "name": "SetMarketPaymentType",
      "type": "event"
    },
    {
      "anonymous": false,
      "inputs": [
        {
          "indexed": false,
          "internalType": "uint256",
          "name": "marketId",
          "type": "uint256"
        },
        {
          "indexed": false,
          "internalType": "string",
          "name": "uri",
          "type": "string"
        }
      ],
      "name": "SetMarketURI",
      "type": "event"
    },
    {
      "anonymous": false,
      "inputs": [
        {
          "indexed": false,
          "internalType": "uint256",
          "name": "marketId",
          "type": "uint256"
        },
        {
          "indexed": false,
          "internalType": "enum PaymentCycleType",
          "name": "paymentCycleType",
          "type": "uint8"
        },
        {
          "indexed": false,
          "internalType": "uint32",
          "name": "value",
          "type": "uint32"
        }
      ],
      "name": "SetPaymentCycle",
      "type": "event"
    },
    {
      "anonymous": false,
      "inputs": [
        {
          "indexed": false,
          "internalType": "uint256",
          "name": "marketId",
          "type": "uint256"
        },
        {
          "indexed": false,
          "internalType": "uint32",
          "name": "duration",
          "type": "uint32"
        }
      ],
      "name": "SetPaymentCycleDuration",
      "type": "event"
    },
    {
      "anonymous": false,
      "inputs": [
        {
          "indexed": false,
          "internalType": "uint256",
          "name": "marketId",
          "type": "uint256"
        },
        {
          "indexed": false,
          "internalType": "uint32",
          "name": "duration",
          "type": "uint32"
        }
      ],
      "name": "SetPaymentDefaultDuration",
      "type": "event"
    },
    {
      "inputs": [],
      "name": "CURRENT_CODE_VERSION",
      "outputs": [
        {
          "internalType": "uint256",
          "name": "",
          "type": "uint256"
        }
      ],
      "stateMutability": "view",
      "type": "function"
    },
    {
      "inputs": [
        {
          "internalType": "uint256",
          "name": "_marketId",
          "type": "uint256"
        },
        {
          "internalType": "address",
          "name": "_borrowerAddress",
          "type": "address"
        },
        {
          "internalType": "uint256",
          "name": "_expirationTime",
          "type": "uint256"
        },
        {
          "internalType": "uint8",
          "name": "_v",
          "type": "uint8"
        },
        {
          "internalType": "bytes32",
          "name": "_r",
          "type": "bytes32"
        },
        {
          "internalType": "bytes32",
          "name": "_s",
          "type": "bytes32"
        }
      ],
      "name": "attestBorrower",
      "outputs": [],
      "stateMutability": "nonpayable",
      "type": "function"
    },
    {
      "inputs": [
        {
          "internalType": "uint256",
          "name": "_marketId",
          "type": "uint256"
        },
        {
          "internalType": "address",
          "name": "_borrowerAddress",
          "type": "address"
        },
        {
          "internalType": "uint256",
          "name": "_expirationTime",
          "type": "uint256"
        }
      ],
      "name": "attestBorrower",
      "outputs": [],
      "stateMutability": "nonpayable",
      "type": "function"
    },
    {
      "inputs": [
        {
          "internalType": "uint256",
          "name": "_marketId",
          "type": "uint256"
        },
        {
          "internalType": "address",
          "name": "_lenderAddress",
          "type": "address"
        },
        {
          "internalType": "uint256",
          "name": "_expirationTime",
          "type": "uint256"
        },
        {
          "internalType": "uint8",
          "name": "_v",
          "type": "uint8"
        },
        {
          "internalType": "bytes32",
          "name": "_r",
          "type": "bytes32"
        },
        {
          "internalType": "bytes32",
          "name": "_s",
          "type": "bytes32"
        }
      ],
      "name": "attestLender",
      "outputs": [],
      "stateMutability": "nonpayable",
      "type": "function"
    },
    {
      "inputs": [
        {
          "internalType": "uint256",
          "name": "_marketId",
          "type": "uint256"
        },
        {
          "internalType": "address",
          "name": "_lenderAddress",
          "type": "address"
        },
        {
          "internalType": "uint256",
          "name": "_expirationTime",
          "type": "uint256"
        }
      ],
      "name": "attestLender",
      "outputs": [],
      "stateMutability": "nonpayable",
      "type": "function"
    },
    {
      "inputs": [],
      "name": "borrowerAttestationSchemaId",
      "outputs": [
        {
          "internalType": "bytes32",
          "name": "",
          "type": "bytes32"
        }
      ],
      "stateMutability": "view",
      "type": "function"
    },
    {
      "inputs": [
        {
          "internalType": "uint256",
          "name": "_marketId",
          "type": "uint256"
        }
      ],
      "name": "borrowerExitMarket",
      "outputs": [],
      "stateMutability": "nonpayable",
      "type": "function"
    },
    {
      "inputs": [
        {
          "internalType": "uint256",
          "name": "_marketId",
          "type": "uint256"
        }
      ],
      "name": "closeMarket",
      "outputs": [],
      "stateMutability": "nonpayable",
      "type": "function"
    },
    {
      "inputs": [
        {
          "internalType": "address",
          "name": "_initialOwner",
          "type": "address"
        },
        {
          "internalType": "uint32",
          "name": "_paymentCycleDuration",
          "type": "uint32"
        },
        {
          "internalType": "uint32",
          "name": "_paymentDefaultDuration",
          "type": "uint32"
        },
        {
          "internalType": "uint32",
          "name": "_bidExpirationTime",
          "type": "uint32"
        },
        {
          "internalType": "uint16",
          "name": "_feePercent",
          "type": "uint16"
        },
        {
          "internalType": "bool",
          "name": "_requireLenderAttestation",
          "type": "bool"
        },
        {
          "internalType": "bool",
          "name": "_requireBorrowerAttestation",
          "type": "bool"
        },
        {
          "internalType": "enum PaymentType",
          "name": "_paymentType",
          "type": "uint8"
        },
        {
          "internalType": "enum PaymentCycleType",
          "name": "_paymentCycleType",
          "type": "uint8"
        },
        {
          "internalType": "string",
          "name": "_uri",
          "type": "string"
        }
      ],
      "name": "createMarket",
      "outputs": [
        {
          "internalType": "uint256",
          "name": "marketId_",
          "type": "uint256"
        }
      ],
      "stateMutability": "nonpayable",
      "type": "function"
    },
    {
      "inputs": [
        {
          "internalType": "address",
          "name": "_initialOwner",
          "type": "address"
        },
        {
          "internalType": "uint32",
          "name": "_paymentCycleDuration",
          "type": "uint32"
        },
        {
          "internalType": "uint32",
          "name": "_paymentDefaultDuration",
          "type": "uint32"
        },
        {
          "internalType": "uint32",
          "name": "_bidExpirationTime",
          "type": "uint32"
        },
        {
          "internalType": "uint16",
          "name": "_feePercent",
          "type": "uint16"
        },
        {
          "internalType": "bool",
          "name": "_requireLenderAttestation",
          "type": "bool"
        },
        {
          "internalType": "bool",
          "name": "_requireBorrowerAttestation",
          "type": "bool"
        },
        {
          "internalType": "string",
          "name": "_uri",
          "type": "string"
        }
      ],
      "name": "createMarket",
      "outputs": [
        {
          "internalType": "uint256",
          "name": "marketId_",
          "type": "uint256"
        }
      ],
      "stateMutability": "nonpayable",
      "type": "function"
    },
    {
      "inputs": [
        {
          "internalType": "uint256",
          "name": "_marketId",
          "type": "uint256"
        },
        {
          "internalType": "uint256",
          "name": "_page",
          "type": "uint256"
        },
        {
          "internalType": "uint256",
          "name": "_perPage",
          "type": "uint256"
        }
      ],
      "name": "getAllVerifiedBorrowersForMarket",
      "outputs": [
        {
          "internalType": "address[]",
          "name": "",
          "type": "address[]"
        }
      ],
      "stateMutability": "view",
      "type": "function"
    },
    {
      "inputs": [
        {
          "internalType": "uint256",
          "name": "_marketId",
          "type": "uint256"
        },
        {
          "internalType": "uint256",
          "name": "_page",
          "type": "uint256"
        },
        {
          "internalType": "uint256",
          "name": "_perPage",
          "type": "uint256"
        }
      ],
      "name": "getAllVerifiedLendersForMarket",
      "outputs": [
        {
          "internalType": "address[]",
          "name": "",
          "type": "address[]"
        }
      ],
      "stateMutability": "view",
      "type": "function"
    },
    {
      "inputs": [
        {
          "internalType": "uint256",
          "name": "marketId",
          "type": "uint256"
        }
      ],
      "name": "getBidExpirationTime",
      "outputs": [
        {
          "internalType": "uint32",
          "name": "",
          "type": "uint32"
        }
      ],
      "stateMutability": "view",
      "type": "function"
    },
    {
      "inputs": [
        {
          "internalType": "uint256",
          "name": "_marketId",
          "type": "uint256"
        }
      ],
      "name": "getMarketAttestationRequirements",
      "outputs": [
        {
          "internalType": "bool",
          "name": "lenderAttestationRequired",
          "type": "bool"
        },
        {
          "internalType": "bool",
          "name": "borrowerAttestationRequired",
          "type": "bool"
        }
      ],
      "stateMutability": "view",
      "type": "function"
    },
    {
      "inputs": [
        {
          "internalType": "uint256",
          "name": "_marketId",
          "type": "uint256"
        }
      ],
      "name": "getMarketData",
      "outputs": [
        {
          "internalType": "address",
          "name": "owner",
          "type": "address"
        },
        {
          "internalType": "uint32",
          "name": "paymentCycleDuration",
          "type": "uint32"
        },
        {
          "internalType": "uint32",
          "name": "paymentDefaultDuration",
          "type": "uint32"
        },
        {
          "internalType": "uint32",
          "name": "loanExpirationTime",
          "type": "uint32"
        },
        {
          "internalType": "string",
          "name": "metadataURI",
          "type": "string"
        },
        {
          "internalType": "uint16",
          "name": "marketplaceFeePercent",
          "type": "uint16"
        },
        {
          "internalType": "bool",
          "name": "lenderAttestationRequired",
          "type": "bool"
        }
      ],
      "stateMutability": "view",
      "type": "function"
    },
    {
      "inputs": [
        {
          "internalType": "uint256",
          "name": "_marketId",
          "type": "uint256"
        }
      ],
      "name": "getMarketFeeRecipient",
      "outputs": [
        {
          "internalType": "address",
          "name": "",
          "type": "address"
        }
      ],
      "stateMutability": "view",
      "type": "function"
    },
    {
      "inputs": [
        {
          "internalType": "uint256",
          "name": "_marketId",
          "type": "uint256"
        }
      ],
      "name": "getMarketOwner",
      "outputs": [
        {
          "internalType": "address",
          "name": "",
          "type": "address"
        }
      ],
      "stateMutability": "view",
      "type": "function"
    },
    {
      "inputs": [
        {
          "internalType": "uint256",
          "name": "_marketId",
          "type": "uint256"
        }
      ],
      "name": "getMarketURI",
      "outputs": [
        {
          "internalType": "string",
          "name": "",
          "type": "string"
        }
      ],
      "stateMutability": "view",
      "type": "function"
    },
    {
      "inputs": [
        {
          "internalType": "uint256",
          "name": "_marketId",
          "type": "uint256"
        }
      ],
      "name": "getMarketplaceFee",
      "outputs": [
        {
          "internalType": "uint16",
          "name": "fee",
          "type": "uint16"
        }
      ],
      "stateMutability": "view",
      "type": "function"
    },
    {
      "inputs": [
        {
          "internalType": "uint256",
          "name": "_marketId",
          "type": "uint256"
        }
      ],
      "name": "getPaymentCycle",
      "outputs": [
        {
          "internalType": "uint32",
          "name": "",
          "type": "uint32"
        },
        {
          "internalType": "enum PaymentCycleType",
          "name": "",
          "type": "uint8"
        }
      ],
      "stateMutability": "view",
      "type": "function"
    },
    {
      "inputs": [
        {
          "internalType": "uint256",
          "name": "_marketId",
          "type": "uint256"
        }
      ],
      "name": "getPaymentDefaultDuration",
      "outputs": [
        {
          "internalType": "uint32",
          "name": "",
          "type": "uint32"
        }
      ],
      "stateMutability": "view",
      "type": "function"
    },
    {
      "inputs": [
        {
          "internalType": "uint256",
          "name": "_marketId",
          "type": "uint256"
        }
      ],
      "name": "getPaymentType",
      "outputs": [
        {
          "internalType": "enum PaymentType",
          "name": "",
          "type": "uint8"
        }
      ],
      "stateMutability": "view",
      "type": "function"
    },
    {
      "inputs": [
        {
          "internalType": "contract TellerAS",
          "name": "_tellerAS",
          "type": "address"
        }
      ],
      "name": "initialize",
      "outputs": [],
      "stateMutability": "nonpayable",
      "type": "function"
    },
    {
      "inputs": [
        {
          "internalType": "uint256",
          "name": "_marketId",
          "type": "uint256"
        }
      ],
      "name": "isMarketClosed",
      "outputs": [
        {
          "internalType": "bool",
          "name": "",
          "type": "bool"
        }
      ],
      "stateMutability": "view",
      "type": "function"
    },
    {
      "inputs": [],
      "name": "isPayable",
      "outputs": [
        {
          "internalType": "bool",
          "name": "",
          "type": "bool"
        }
      ],
      "stateMutability": "pure",
      "type": "function"
    },
    {
      "inputs": [
        {
          "internalType": "uint256",
          "name": "_marketId",
          "type": "uint256"
        },
        {
          "internalType": "address",
          "name": "_borrowerAddress",
          "type": "address"
        }
      ],
      "name": "isVerifiedBorrower",
      "outputs": [
        {
          "internalType": "bool",
          "name": "isVerified_",
          "type": "bool"
        },
        {
          "internalType": "bytes32",
          "name": "uuid_",
          "type": "bytes32"
        }
      ],
      "stateMutability": "view",
      "type": "function"
    },
    {
      "inputs": [
        {
          "internalType": "uint256",
          "name": "_marketId",
          "type": "uint256"
        },
        {
          "internalType": "address",
          "name": "_lenderAddress",
          "type": "address"
        }
      ],
      "name": "isVerifiedLender",
      "outputs": [
        {
          "internalType": "bool",
          "name": "isVerified_",
          "type": "bool"
        },
        {
          "internalType": "bytes32",
          "name": "uuid_",
          "type": "bytes32"
        }
      ],
      "stateMutability": "view",
      "type": "function"
    },
    {
      "inputs": [],
      "name": "lenderAttestationSchemaId",
      "outputs": [
        {
          "internalType": "bytes32",
          "name": "",
          "type": "bytes32"
        }
      ],
      "stateMutability": "view",
      "type": "function"
    },
    {
      "inputs": [
        {
          "internalType": "uint256",
          "name": "_marketId",
          "type": "uint256"
        }
      ],
      "name": "lenderExitMarket",
      "outputs": [],
      "stateMutability": "nonpayable",
      "type": "function"
    },
    {
      "inputs": [],
      "name": "marketCount",
      "outputs": [
        {
          "internalType": "uint256",
          "name": "",
          "type": "uint256"
        }
      ],
      "stateMutability": "view",
      "type": "function"
    },
    {
      "inputs": [
        {
          "internalType": "address",
          "name": "recipient",
          "type": "address"
        },
        {
          "internalType": "bytes",
          "name": "schema",
          "type": "bytes"
        },
        {
          "internalType": "bytes",
          "name": "data",
          "type": "bytes"
        },
        {
          "internalType": "uint256",
          "name": "",
          "type": "uint256"
        },
        {
          "internalType": "address",
          "name": "attestor",
          "type": "address"
        }
      ],
      "name": "resolve",
      "outputs": [
        {
          "internalType": "bool",
          "name": "",
          "type": "bool"
        }
      ],
      "stateMutability": "payable",
      "type": "function"
    },
    {
      "inputs": [
        {
          "internalType": "uint256",
          "name": "_marketId",
          "type": "uint256"
        },
        {
          "internalType": "address",
          "name": "_borrowerAddress",
          "type": "address"
        }
      ],
      "name": "revokeBorrower",
      "outputs": [],
      "stateMutability": "nonpayable",
      "type": "function"
    },
    {
      "inputs": [
        {
          "internalType": "uint256",
          "name": "_marketId",
          "type": "uint256"
        },
        {
          "internalType": "address",
          "name": "_borrowerAddress",
          "type": "address"
        },
        {
          "internalType": "uint8",
          "name": "_v",
          "type": "uint8"
        },
        {
          "internalType": "bytes32",
          "name": "_r",
          "type": "bytes32"
        },
        {
          "internalType": "bytes32",
          "name": "_s",
          "type": "bytes32"
        }
      ],
      "name": "revokeBorrower",
      "outputs": [],
      "stateMutability": "nonpayable",
      "type": "function"
    },
    {
      "inputs": [
        {
          "internalType": "uint256",
          "name": "_marketId",
          "type": "uint256"
        },
        {
          "internalType": "address",
          "name": "_lenderAddress",
          "type": "address"
        },
        {
          "internalType": "uint8",
          "name": "_v",
          "type": "uint8"
        },
        {
          "internalType": "bytes32",
          "name": "_r",
          "type": "bytes32"
        },
        {
          "internalType": "bytes32",
          "name": "_s",
          "type": "bytes32"
        }
      ],
      "name": "revokeLender",
      "outputs": [],
      "stateMutability": "nonpayable",
      "type": "function"
    },
    {
      "inputs": [
        {
          "internalType": "uint256",
          "name": "_marketId",
          "type": "uint256"
        },
        {
          "internalType": "address",
          "name": "_lenderAddress",
          "type": "address"
        }
      ],
      "name": "revokeLender",
      "outputs": [],
      "stateMutability": "nonpayable",
      "type": "function"
    },
    {
      "inputs": [
        {
          "internalType": "uint256",
          "name": "_marketId",
          "type": "uint256"
        },
        {
          "internalType": "uint32",
          "name": "_duration",
          "type": "uint32"
        }
      ],
      "name": "setBidExpirationTime",
      "outputs": [],
      "stateMutability": "nonpayable",
      "type": "function"
    },
    {
      "inputs": [
        {
          "internalType": "uint256",
          "name": "_marketId",
          "type": "uint256"
        },
        {
          "internalType": "bool",
          "name": "_required",
          "type": "bool"
        }
      ],
      "name": "setBorrowerAttestationRequired",
      "outputs": [],
      "stateMutability": "nonpayable",
      "type": "function"
    },
    {
      "inputs": [
        {
          "internalType": "uint256",
          "name": "_marketId",
          "type": "uint256"
        },
        {
          "internalType": "bool",
          "name": "_required",
          "type": "bool"
        }
      ],
      "name": "setLenderAttestationRequired",
      "outputs": [],
      "stateMutability": "nonpayable",
      "type": "function"
    },
    {
      "inputs": [
        {
          "internalType": "uint256",
          "name": "_marketId",
          "type": "uint256"
        },
        {
          "internalType": "uint16",
          "name": "_newPercent",
          "type": "uint16"
        }
      ],
      "name": "setMarketFeePercent",
      "outputs": [],
      "stateMutability": "nonpayable",
      "type": "function"
    },
    {
      "inputs": [
        {
          "internalType": "uint256",
          "name": "_marketId",
          "type": "uint256"
        },
        {
          "internalType": "address",
          "name": "_recipient",
          "type": "address"
        }
      ],
      "name": "setMarketFeeRecipient",
      "outputs": [],
      "stateMutability": "nonpayable",
      "type": "function"
    },
    {
      "inputs": [
        {
          "internalType": "uint256",
          "name": "_marketId",
          "type": "uint256"
        },
        {
          "internalType": "enum PaymentType",
          "name": "_newPaymentType",
          "type": "uint8"
        }
      ],
      "name": "setMarketPaymentType",
      "outputs": [],
      "stateMutability": "nonpayable",
      "type": "function"
    },
    {
      "inputs": [
        {
          "internalType": "uint256",
          "name": "_marketId",
          "type": "uint256"
        },
        {
          "internalType": "string",
          "name": "_uri",
          "type": "string"
        }
      ],
      "name": "setMarketURI",
      "outputs": [],
      "stateMutability": "nonpayable",
      "type": "function"
    },
    {
      "inputs": [
        {
          "internalType": "uint256",
          "name": "_marketId",
          "type": "uint256"
        },
        {
          "internalType": "enum PaymentCycleType",
          "name": "_paymentCycleType",
          "type": "uint8"
        },
        {
          "internalType": "uint32",
          "name": "_duration",
          "type": "uint32"
        }
      ],
      "name": "setPaymentCycle",
      "outputs": [],
      "stateMutability": "nonpayable",
      "type": "function"
    },
    {
      "inputs": [
        {
          "internalType": "uint256",
          "name": "_marketId",
          "type": "uint256"
        },
        {
          "internalType": "uint32",
          "name": "_duration",
          "type": "uint32"
        }
      ],
      "name": "setPaymentDefaultDuration",
      "outputs": [],
      "stateMutability": "nonpayable",
      "type": "function"
    },
    {
      "inputs": [],
      "name": "tellerAS",
      "outputs": [
        {
          "internalType": "contract TellerAS",
          "name": "",
          "type": "address"
        }
      ],
      "stateMutability": "view",
      "type": "function"
    },
    {
      "inputs": [
        {
          "internalType": "uint256",
          "name": "_marketId",
          "type": "uint256"
        },
        {
          "internalType": "address",
          "name": "_newOwner",
          "type": "address"
        }
      ],
      "name": "transferMarketOwnership",
      "outputs": [],
      "stateMutability": "nonpayable",
      "type": "function"
    },
    {
      "inputs": [
        {
          "internalType": "uint256",
          "name": "_marketId",
          "type": "uint256"
        },
        {
          "internalType": "uint32",
          "name": "_paymentCycleDuration",
          "type": "uint32"
        },
        {
          "internalType": "enum PaymentType",
          "name": "_newPaymentType",
          "type": "uint8"
        },
        {
          "internalType": "enum PaymentCycleType",
          "name": "_paymentCycleType",
          "type": "uint8"
        },
        {
          "internalType": "uint32",
          "name": "_paymentDefaultDuration",
          "type": "uint32"
        },
        {
          "internalType": "uint32",
          "name": "_bidExpirationTime",
          "type": "uint32"
        },
        {
          "internalType": "uint16",
          "name": "_feePercent",
          "type": "uint16"
        },
        {
          "internalType": "bool",
          "name": "_borrowerAttestationRequired",
          "type": "bool"
        },
        {
          "internalType": "bool",
          "name": "_lenderAttestationRequired",
          "type": "bool"
        },
        {
          "internalType": "string",
          "name": "_metadataURI",
          "type": "string"
        }
      ],
      "name": "updateMarketSettings",
      "outputs": [],
      "stateMutability": "nonpayable",
      "type": "function"
    },
    {
      "inputs": [],
      "name": "version",
      "outputs": [
        {
          "internalType": "uint256",
          "name": "",
          "type": "uint256"
        }
      ],
      "stateMutability": "view",
      "type": "function"
    },
    {
      "stateMutability": "payable",
      "type": "receive"
    }
  ],
  "bytecode": {
    "object": "0x608060405234801561001057600080fd5b50613292806100206000396000f3fe6080604052600436106102975760003560e01c80637f027a1a1161015a578063bd536e6e116100c1578063d6e794dd1161007a578063d6e794dd14610956578063ddfafef61461099d578063e4050e29146109bd578063e690e84e146109dd578063ec979082146109fd578063f9fa934514610a1357600080fd5b8063bd536e6e1461088f578063be99279b146108af578063bfacba3d146108cf578063c4d66de814610902578063c995cddc14610922578063ce46e0461461094257600080fd5b806397eb575b1161011357806397eb575b14610796578063a5630f19146107b6578063aa542fa51461080f578063ae4180951461082f578063b6b6d77f1461084f578063bc4c34951461086f57600080fd5b80637f027a1a1461069d5780638b636632146106bd5780638b975cda146106dd5780638eff9ea4146106fd578063947a75b41461076357806394e8e97e1461077657600080fd5b80633ef19a9b116101fe578063583b16ae116101b7578063583b16ae146105e75780636054b175146106075780636441379614610627578063679700d9146106475780637694d2ec1461065d5780637cfc18181461067d57600080fd5b80633ef19a9b1461053c5780633fa7f6881461055c5780634148f94c1461057c578063455154e514610591578063532f5694146105b157806354fd4d50146105d157600080fd5b80631db2b0d9116102505780631db2b0d91461043d5780631ebc7da81461046a5780632f1be8f91461048a578063344e553d146104aa5780633c0db788146104d85780633d369029146104ee57600080fd5b8063066e7513146102bc578063082fc54d146102f85780630a2e98e41461034a57806311bed5bb146103925780631a4808d2146103d05780631cc672df146103fd57600080fd5b366102b757604051631574f9f360e01b815260040160405180910390fd5b005b600080fd5b3480156102c857600080fd5b506102dc6102d73660046126b3565b610a33565b6040805192151583526020830191909152015b60405180910390f35b34801561030457600080fd5b506103356103133660046126e3565b600090815260026020526040902060060154600160401b900463ffffffff1690565b60405163ffffffff90911681526020016102ef565b34801561035657600080fd5b5061037f6103653660046126e3565b6000908152600260208190526040909120015461ffff1690565b60405161ffff90911681526020016102ef565b34801561039e57600080fd5b506103356103ad3660046126e3565b600090815260026020526040902060060154640100000000900463ffffffff1690565b3480156103dc57600080fd5b506103f06103eb3660046126e3565b610a73565b6040516102ef9190612742565b34801561040957600080fd5b5061042d6104183660046126e3565b60009081526008602052604090205460ff1690565b60405190151581526020016102ef565b34801561044957600080fd5b5061045d610458366004612755565b610b18565b6040516102ef9190612781565b34801561047657600080fd5b506102b56104853660046126b3565b610b42565b34801561049657600080fd5b506102b56104a53660046127e7565b610bee565b3480156104b657600080fd5b506104ca6104c5366004612882565b610cbe565b6040519081526020016102ef565b3480156104e457600080fd5b506104ca60015481565b3480156104fa57600080fd5b506105246105093660046126e3565b6000908152600260205260409020546001600160a01b031690565b6040516001600160a01b0390911681526020016102ef565b34801561054857600080fd5b506102dc6105573660046126b3565b610ce3565b34801561056857600080fd5b506102b561057736600461297c565b610d17565b34801561058857600080fd5b506104ca600881565b34801561059d57600080fd5b506102b56105ac3660046126b3565b610d2f565b3480156105bd57600080fd5b506102b56105cc3660046129d6565b610d3f565b3480156105dd57600080fd5b506104ca60075481565b3480156105f357600080fd5b506102b561060236600461297c565b610e3c565b34801561061357600080fd5b506102b5610622366004612a22565b610e4c565b34801561063357600080fd5b506105246106423660046126e3565b610e62565b34801561065357600080fd5b506104ca60065481565b34801561066957600080fd5b5061045d610678366004612755565b610ea5565b34801561068957600080fd5b506102b56106983660046126b3565b610ec4565b3480156106a957600080fd5b506102b56106b83660046126e3565b610f5b565b3480156106c957600080fd5b506102b56106d83660046126b3565b610fc7565b3480156106e957600080fd5b506102b56106f8366004612a72565b610fd3565b34801561070957600080fd5b5061074c6107183660046126e3565b6000908152600260208190526040909120908101546006909101546201000090910460ff90811692600160601b9092041690565b6040805192151583529015156020830152016102ef565b61042d610771366004612b0f565b61102c565b34801561078257600080fd5b506102b5610791366004612baf565b6110da565b3480156107a257600080fd5b506102b56107b1366004612bd4565b611197565b3480156107c257600080fd5b506108016107d13660046126e3565b60009081526002602052604090206006810154600a9091015463ffffffff90911691600160a81b90910460ff1690565b6040516102ef929190612c40565b34801561081b57600080fd5b506102b561082a366004612c63565b6111a4565b34801561083b57600080fd5b506102b561084a3660046126e3565b61128a565b34801561085b57600080fd5b506102b561086a366004612c88565b611323565b34801561087b57600080fd5b506102b561088a366004612a22565b61141b565b34801561089b57600080fd5b506102b56108aa3660046127e7565b61142a565b3480156108bb57600080fd5b506102b56108ca366004612baf565b6114f7565b3480156108db57600080fd5b506108ef6108ea3660046126e3565b6115b6565b6040516102ef9796959493929190612cab565b34801561090e57600080fd5b506102b561091d366004612d0a565b6116c8565b34801561092e57600080fd5b506102b561093d3660046126e3565b611a25565b34801561094e57600080fd5b50600061042d565b34801561096257600080fd5b506109906109713660046126e3565b6000908152600260205260409020600a0154600160a01b900460ff1690565b6040516102ef9190612d27565b3480156109a957600080fd5b50600954610524906001600160a01b031681565b3480156109c957600080fd5b506102b56109d8366004612bd4565b611a70565b3480156109e957600080fd5b506102b56109f8366004612d3a565b611a7d565b348015610a0957600080fd5b506104ca60045481565b348015610a1f57600080fd5b506104ca610a2e366004612d78565b611c7d565b600082815260026020526040812060068101548291610a67918591600160601b90910460ff16906009810190600701611ca1565b915091505b9250929050565b6000818152600260205260409020600101805460609190610a9390612e39565b80601f0160208091040260200160405190810160405280929190818152602001828054610abf90612e39565b8015610b0c5780601f10610ae157610100808354040283529160200191610b0c565b820191906000526020600020905b815481529060010190602001808311610aef57829003601f168201915b50505050509050919050565b6000838152600260205260409020606090600301610b37818585611d6c565b9150505b9392505050565b60008281526002602052604090205482906001600160a01b03163314610b835760405162461bcd60e51b8152600401610b7a90612e73565b60405180910390fd5b600083815260026020908152604091829020600a0180546001600160a01b0319166001600160a01b0386169081179091558251868152918201527ffc7e26c4fffcd77fc52c81b32a6a6b7838b5592ced8c14c1a46e2b4a322c568a91015b60405180910390a1505050565b60008281526002602052604090205482906001600160a01b03163314610c265760405162461bcd60e51b8152600401610b7a90612e73565b60008381526002602052604090206006015463ffffffff8381166401000000009092041614610cb957600083815260026020908152604091829020600601805467ffffffff00000000191664010000000063ffffffff8716908102919091179091558251868152918201527f3e49e2efeacab7e8344acd4e7940449bf62039aa3734c34fa6d3525654be81019101610be1565b505050565b6000610cd38c8c8c8c8c8c8c8c8c8c8c611e53565b9c9b505050505050505050505050565b60008281526002602081905260408220908101548291610a679185916201000090910460ff16906005810190600301611ca1565b610d278686866001878787611f45565b505050505050565b610d3b8282600061207b565b5050565b60008381526002602052604090205483906001600160a01b03163314610d775760405162461bcd60e51b8152600401610b7a90612e73565b6000848152600260209081526040918290209151610d99926001019101612e9a565b604051602081830303815290604052805190602001208383604051602001610dc2929190612f10565b6040516020818303038152906040528051906020012014610e36576000848152600260205260409020600101610df9838583612f7c565b507f6218b53065a32d32b3f52d9ad728c1b826a2aae15fc1ee92f83836debbcc1029848484604051610e2d9392919061303c565b60405180910390a15b50505050565b610d278686866000878787611f45565b610e5b858560018686866120ee565b5050505050565b6000818152600260205260408120600a01546001600160a01b031680610e9f5750506000908152600260205260409020546001600160a01b031690565b92915050565b6000838152600260205260409020606090600701610b37818585611d6c565b60008281526002602052604090205482906001600160a01b03163314610efc5760405162461bcd60e51b8152600401610b7a90612e73565b60008381526002602090815260409182902080546001600160a01b0319166001600160a01b0386169081179091558251868152918201527ff68f2d4b68e0d54a81a3b8e53403ddec34a1e288cf6a6f6b3621c0a47b6e36f99101610be1565b6000818152600260205260408120610f769060030133612105565b90508015610d3b577f55e867ccc9ac324e2c193ce4ed25397fb890213c704685f2c9fbe5bd7507298682335b604080519283526001600160a01b039091166020830152015b60405180910390a15050565b610d3b8282600161207b565b60008b8152600260205260409020548b906001600160a01b0316331461100b5760405162461bcd60e51b8152600401610b7a90612e73565b61101e8c8c8c8c8c8c8c8c8c8c8c61211a565b505050505050505050505050565b60008087873060405160200161104493929190613072565b60408051601f198184030181529190528051602090910120905060008061106d878901896126b3565b91509150826005541480156110935750806001600160a01b03168b6001600160a01b0316145b80156110b857506000828152600260205260409020546001600160a01b038681169116145b806110cb57506001600160a01b03851630145b9b9a5050505050505050505050565b60008281526002602052604090205482906001600160a01b031633146111125760405162461bcd60e51b8152600401610b7a90612e73565b6000838152600260208190526040909120015462010000900460ff16151582151514610cb957600083815260026020818152604092839020909101805462ff0000191662010000861515908102919091179091558251868152918201527f4666a8529dea37114f2ecc11706d613f7a59a7967f8467da6877820b83d405a19101610be1565b610cb98383836001612179565b60008281526002602052604090205482906001600160a01b031633146111dc5760405162461bcd60e51b8152600401610b7a90612e73565b6000838152600260205260409020600a0154600160a01b900460ff16600181111561120957611209612c0c565b82600181111561121b5761121b612c0c565b14610cb9576000838152600260205260409020600a01805483919060ff60a01b1916600160a01b83600181111561125457611254612c0c565b02179055507ff81d9cc918f72edfc74e6b61d4e19ef9a739e94a0e9715b108e6af62275142ef8383604051610be1929190613098565b60008181526002602052604090205481906001600160a01b031633146112c25760405162461bcd60e51b8152600401610b7a90612e73565b60008281526008602052604090205460ff16610d3b5760008281526008602052604090819020805460ff19166001179055517f9dc30b8eda31a6a144e092e5de600955523a6a925cc15cc1d1b9b4872cfa615590610fbb9084815260200190565b60008281526002602052604090205482906001600160a01b0316331461135b5760405162461bcd60e51b8152600401610b7a90612e73565b6127108261ffff1611156113a35760405162461bcd60e51b815260206004820152600f60248201526e1a5b9d985b1a59081c195c98d95b9d608a1b6044820152606401610b7a565b6000838152600260208190526040909120015461ffff838116911614610cb957600083815260026020818152604092839020909101805461ffff191661ffff86169081179091558251868152918201527f9c6f3e426c05d512408d4ecf517e5155756288155088ad45a81c0e111e3d18549101610be1565b610e5b858560008686866120ee565b60008281526002602052604090205482906001600160a01b031633146114625760405162461bcd60e51b8152600401610b7a90612e73565b60008381526002602052604090206006015463ffffffff838116600160401b9092041614610cb95760008381526002602090815260409182902060060180546bffffffff00000000000000001916600160401b63ffffffff8716908102919091179091558251868152918201527ff0275a50e761f3b1635fa59ce199b1f2268b3fcb7fbdfb18c21aa3d2d78aa7b79101610be1565b60008281526002602052604090205482906001600160a01b0316331461152f5760405162461bcd60e51b8152600401610b7a90612e73565b600083815260026020526040902060060154600160601b900460ff16151582151514610cb957600083815260026020908152604091829020600601805460ff60601b1916600160601b861515908102919091179091558251868152918201527fc906280af595fe94779bb9a972f24fe4e0ed7f76bebb4ee0eb9a5f30d6dd4c879101610be1565b60008181526002602081905260408220805460068201549282015460019092018054859485948594606094869485946001600160a01b039093169363ffffffff808516946401000000008104821694600160401b90910490911692909161ffff8116916201000090910460ff1690839061162f90612e39565b80601f016020809104026020016040519081016040528092919081815260200182805461165b90612e39565b80156116a85780601f1061167d576101008083540402835291602001916116a8565b820191906000526020600020905b81548152906001019060200180831161168b57829003601f168201915b505050505092509650965096509650965096509650919395979092949650565b600054610100900460ff16158080156116e85750600054600160ff909116105b806117025750303b158015611702575060005460ff166001145b6117655760405162461bcd60e51b815260206004820152602e60248201527f496e697469616c697a61626c653a20636f6e747261637420697320616c72656160448201526d191e481a5b9a5d1a585b1a5e995960921b6064820152608401610b7a565b6000805460ff191660011790558015611788576000805461ff0019166101001790555b600980546001600160a01b0319166001600160a01b038416908117909155604080516381fa6cd360e01b815290516381fa6cd3916004808201926020929091908290030181865afa1580156117e1573d6000803e3d6000fd5b505050506040513d601f19601f8201168201806040525081019061180591906130a8565b6040805163a99e7e2960e01b81526004810191909152602960448201527f2875696e74323536206d61726b657449642c2061646472657373206c656e646560648201526872416464726573732960b81b60848201523060248201526001600160a01b03919091169063a99e7e299060a4016020604051808303816000875af1158015611895573d6000803e3d6000fd5b505050506040513d601f19601f820116820180604052508101906118b991906130c5565b600155600954604080516381fa6cd360e01b815290516001600160a01b03909216916381fa6cd3916004808201926020929091908290030181865afa158015611906573d6000803e3d6000fd5b505050506040513d601f19601f8201168201806040525081019061192a91906130a8565b6040805163a99e7e2960e01b81526004810191909152602b60448201527f2875696e74323536206d61726b657449642c206164647265737320626f72726f60648201526a776572416464726573732960a81b60848201523060248201526001600160a01b03919091169063a99e7e299060a4016020604051808303816000875af11580156119bc573d6000803e3d6000fd5b505050506040513d601f19601f820116820180604052508101906119e091906130c5565b6006558015610d3b576000805461ff0019169055604051600181527f7f26b83ff96e1f2b6a682f133852f6798a09c465da95921460cefb384740249890602001610fbb565b6000818152600260205260408120611a409060070133612105565b90508015610d3b577f914ccbaf2f5c9c2f4b7c6be3497b6b2ceb6ce2d050aec6eb2e0e31b8f9f67f0c8233610fa2565b610cb98383836000612179565b60008381526002602052604090205483906001600160a01b03163314611ab55760405162461bcd60e51b8152600401610b7a90612e73565b6000836001811115611ac957611ac9612c0c565b1480611af557506001836001811115611ae457611ae4612c0c565b148015611af5575063ffffffff8216155b611b565760405162461bcd60e51b815260206004820152602c60248201527f6d6f6e74686c79207061796d656e74206379636c65206475726174696f6e206360448201526b185b9b9bdd081899481cd95d60a21b6064820152608401610b7a565b60008481526002602052604081209080856001811115611b7857611b78612c0c565b14611b865762278d00611b88565b835b600a830154909150600160a81b900460ff166001811115611bab57611bab612c0c565b856001811115611bbd57611bbd612c0c565b141580611bd75750600682015463ffffffff828116911614155b15610d27576000868152600260205260409020600a01805486919060ff60a81b1916600160a81b836001811115611c1057611c10612c0c565b021790555060008681526002602052604090819020600601805463ffffffff191663ffffffff8416179055517fbb20033c58b125e31641bfd5e2f4bd906d684e27472fab0648527cc39cb2918c90611c6d908890889085906130de565b60405180910390a1505050505050565b6000611c938a8a8a8a8a8a8a6000808c8c611e53565b9a9950505050505050505050565b6000808415611d5e57611cb483876122c7565b8015611d3b57506009546001600160a01b03878116600090815260208790526040908190205490516330cd251f60e21b8152600481019190915291169063c334947c90602401602060405180830381865afa158015611d17573d6000803e3d6000fd5b505050506040513d601f19601f82011682018060405250810190611d3b9190613108565b6001600160a01b0387166000908152602086905260409020549092509050611d63565b600191505b94509492505050565b60606000611d79856122e9565b90506000611d87848661313b565b9050818111611e4a576000611d9c8583613152565b905082811115611da95750815b611db38282613165565b67ffffffffffffffff811115611dcb57611dcb612f20565b604051908082528060200260200182016040528015611df4578160200160208202803683370190505b509350815b81811015611e4757611e0b88826122f3565b858281518110611e1d57611e1d613178565b6001600160a01b039092166020928302919091019091015280611e3f8161318e565b915050611df9565b50505b50509392505050565b60006001600160a01b038c16611ea35760405162461bcd60e51b8152602060048201526015602482015274496e76616c6964206f776e6572206164647265737360581b6044820152606401610b7a565b600460008154611eb29061318e565b9182905550600081815260026020526040902080546001600160a01b0319166001600160a01b038f161790559050611ef3818c87878e8e8e8d8f8c8c61211a565b8b6001600160a01b03167fa69fa77c6a90b171cf4e3d9a9dd6c4e56fbd1fbbdcf3925eaf600ccaa917feab82604051611f2e91815260200190565b60405180910390a29b9a5050505050505050505050565b83611f5257600654611f56565b6001545b806005819055506000808989604051602001611f859291909182526001600160a01b0316602082015260400190565b60405160208183030381529060405290506000600260008c815260200190815260200160002060000160009054906101000a90046001600160a01b03169050600960009054906101000a90046001600160a01b03166001600160a01b031663930ed0138b6005548c600087878e8e8e6040518a63ffffffff1660e01b8152600401612018999897969594939291906131a7565b6020604051808303816000875af1158015612037573d6000803e3d6000fd5b505050506040513d601f19601f8201168201806040525081019061205b91906130c5565b9250505061206b898983896122ff565b5050600060055550505050505050565b6000838152600260205260409020546001600160a01b0316336001600160a01b0316146120e15760405162461bcd60e51b81526020600482015260146024820152732737ba103a34329036b0b935b2ba1037bbb732b960611b6044820152606401610b7a565b6000610e5b848484612401565b60006120fb878787612401565b5050505050505050565b6000610b3b836001600160a01b038416612511565b6121258b8383610d3f565b61212f8b88610bee565b6121398b8761142a565b6121438b86611323565b61214d8b846110da565b6121578b856114f7565b6121618b8a6111a4565b61216c8b898c611a7d565b5050505050505050505050565b806121865760065461218a565b6001545b60058190556000858152600260205260409020546001600160a01b0316336001600160a01b0316146121f55760405162461bcd60e51b81526020600482015260146024820152732737ba103a34329036b0b935b2ba1037bbb732b960611b6044820152606401610b7a565b6009546005546040516000926001600160a01b0316916309a954cd918891908890869061223a908d9086906020019182526001600160a01b0316602082015260400190565b6040516020818303038152906040526040518663ffffffff1660e01b8152600401612269959493929190613208565b6020604051808303816000875af1158015612288573d6000803e3d6000fd5b505050506040513d601f19601f820116820180604052508101906122ac91906130c5565b90506122ba868683866122ff565b5050600060055550505050565b6001600160a01b03811660009081526001830160205260408120541515610b3b565b6000610e9f825490565b6000610b3b8383612604565b80156123875760008481526002602081815260408084206001600160a01b03881685526005810183529084208690559287905252612340906003018461262e565b50604080518581526001600160a01b03851660208201527f75675690de0899b0b869d83b44b2d926ac594426b2a0286c478ecdf815cbd33e910160405180910390a1610e36565b60008481526002602081815260408084206001600160a01b038816855260098101835290842086905592879052526123c2906007018461262e565b50604080518581526001600160a01b03851660208201527f0c2cfc7e7a16ebee66e77fb314f4bfdb5505e33e77d41c0c60604efc70fd926b9101610e2d565b6000811561248c575060008381526002602081815260408084206001600160a01b038716855260058101835290842054938790529190526124459060030184612105565b50604080518581526001600160a01b03851660208201527f6e7c30dc58d3daa1458c79b66ca464f5f3d8a23d9e50eb14daf1cb0923bf2900910160405180910390a1610b3b565b5060008381526002602081815260408084206001600160a01b038716855260098101835290842054938790529190526124c89060070184612105565b50604080518581526001600160a01b03851660208201527fe76a3e8b220b622b9fc2a655ab867687a93f195809eb3639f422e60936ff7eb4910160405180910390a19392505050565b600081815260018301602052604081205480156125fa576000612535600183613165565b855490915060009061254990600190613165565b90508181146125ae57600086600001828154811061256957612569613178565b906000526020600020015490508087600001848154811061258c5761258c613178565b6000918252602080832090910192909255918252600188019052604090208390555b85548690806125bf576125bf613246565b600190038181906000526020600020016000905590558560010160008681526020019081526020016000206000905560019350505050610e9f565b6000915050610e9f565b600082600001828154811061261b5761261b613178565b9060005260206000200154905092915050565b6000610b3b836001600160a01b038416600061265d838360009081526001919091016020526040902054151590565b61269357508154600181810184556000848152602080822090930184905584548482528286019093526040902091909155610e9f565b506000610e9f565b6001600160a01b03811681146126b057600080fd5b50565b600080604083850312156126c657600080fd5b8235915060208301356126d88161269b565b809150509250929050565b6000602082840312156126f557600080fd5b5035919050565b6000815180845260005b8181101561272257602081850181015186830182015201612706565b506000602082860101526020601f19601f83011685010191505092915050565b602081526000610b3b60208301846126fc565b60008060006060848603121561276a57600080fd5b505081359360208301359350604090920135919050565b6020808252825182820181905260009190848201906040850190845b818110156127c25783516001600160a01b03168352928401929184019160010161279d565b50909695505050505050565b803563ffffffff811681146127e257600080fd5b919050565b600080604083850312156127fa57600080fd5b8235915061280a602084016127ce565b90509250929050565b803561ffff811681146127e257600080fd5b80151581146126b057600080fd5b600281106126b057600080fd5b60008083601f84011261285257600080fd5b50813567ffffffffffffffff81111561286a57600080fd5b602083019150836020828501011115610a6c57600080fd5b60008060008060008060008060008060006101408c8e0312156128a457600080fd5b8b356128af8161269b565b9a506128bd60208d016127ce565b99506128cb60408d016127ce565b98506128d960608d016127ce565b97506128e760808d01612813565b965060a08c01356128f781612825565b955060c08c013561290781612825565b945060e08c013561291781612833565b93506101008c013561292881612833565b92506101208c013567ffffffffffffffff81111561294557600080fd5b6129518e828f01612840565b915080935050809150509295989b509295989b9093969950565b803560ff811681146127e257600080fd5b60008060008060008060c0878903121561299557600080fd5b8635955060208701356129a78161269b565b9450604087013593506129bc6060880161296b565b92506080870135915060a087013590509295509295509295565b6000806000604084860312156129eb57600080fd5b83359250602084013567ffffffffffffffff811115612a0957600080fd5b612a1586828701612840565b9497909650939450505050565b600080600080600060a08688031215612a3a57600080fd5b853594506020860135612a4c8161269b565b9350612a5a6040870161296b565b94979396509394606081013594506080013592915050565b60008060008060008060008060008060006101408c8e031215612a9457600080fd5b8b359a50612aa460208d016127ce565b995060408c0135612ab481612833565b985060608c0135612ac481612833565b9750612ad260808d016127ce565b9650612ae060a08d016127ce565b9550612aee60c08d01612813565b945060e08c0135612afe81612825565b93506101008c013561292881612825565b600080600080600080600060a0888a031215612b2a57600080fd5b8735612b358161269b565b9650602088013567ffffffffffffffff80821115612b5257600080fd5b612b5e8b838c01612840565b909850965060408a0135915080821115612b7757600080fd5b50612b848a828b01612840565b909550935050606088013591506080880135612b9f8161269b565b8091505092959891949750929550565b60008060408385031215612bc257600080fd5b8235915060208301356126d881612825565b600080600060608486031215612be957600080fd5b833592506020840135612bfb8161269b565b929592945050506040919091013590565b634e487b7160e01b600052602160045260246000fd5b600281106126b057634e487b7160e01b600052602160045260246000fd5b63ffffffff8316815260408101612c5683612c22565b8260208301529392505050565b60008060408385031215612c7657600080fd5b8235915060208301356126d881612833565b60008060408385031215612c9b57600080fd5b8235915061280a60208401612813565b6001600160a01b038816815263ffffffff878116602083015286811660408301528516606082015260e060808201819052600090612ceb908301866126fc565b61ffff9490941660a08301525090151560c09091015295945050505050565b600060208284031215612d1c57600080fd5b8135610b3b8161269b565b60208101612d3483612c22565b91905290565b600080600060608486031215612d4f57600080fd5b833592506020840135612d6181612833565b9150612d6f604085016127ce565b90509250925092565b60008060008060008060008060006101008a8c031215612d9757600080fd5b8935612da28161269b565b9850612db060208b016127ce565b9750612dbe60408b016127ce565b9650612dcc60608b016127ce565b9550612dda60808b01612813565b945060a08a0135612dea81612825565b935060c08a0135612dfa81612825565b925060e08a013567ffffffffffffffff811115612e1657600080fd5b612e228c828d01612840565b915080935050809150509295985092959850929598565b600181811c90821680612e4d57607f821691505b602082108103612e6d57634e487b7160e01b600052602260045260246000fd5b50919050565b6020808252600d908201526c2737ba103a34329037bbb732b960991b604082015260600190565b6000808354612ea881612e39565b60018281168015612ec05760018114612ed557612f04565b60ff1984168752821515830287019450612f04565b8760005260208060002060005b85811015612efb5781548a820152908401908201612ee2565b50505082870194505b50929695505050505050565b8183823760009101908152919050565b634e487b7160e01b600052604160045260246000fd5b601f821115610cb957600081815260208120601f850160051c81016020861015612f5d5750805b601f850160051c820191505b81811015610d2757828155600101612f69565b67ffffffffffffffff831115612f9457612f94612f20565b612fa883612fa28354612e39565b83612f36565b6000601f841160018114612fdc5760008515612fc45750838201355b600019600387901b1c1916600186901b178355610e5b565b600083815260209020601f19861690835b8281101561300d5786850135825560209485019460019092019101612fed565b508682101561302a5760001960f88860031b161c19848701351681555b505060018560011b0183555050505050565b83815260406020820152816040820152818360608301376000818301606090810191909152601f909201601f1916010192915050565b8284823760609190911b6bffffffffffffffffffffffff19169101908152601401919050565b82815260408101612c5683612c22565b6000602082840312156130ba57600080fd5b8151610b3b8161269b565b6000602082840312156130d757600080fd5b5051919050565b838152606081016130ee84612c22565b83602083015263ffffffff83166040830152949350505050565b60006020828403121561311a57600080fd5b8151610b3b81612825565b634e487b7160e01b600052601160045260246000fd5b8082028115828204841417610e9f57610e9f613125565b80820180821115610e9f57610e9f613125565b81810381811115610e9f57610e9f613125565b634e487b7160e01b600052603260045260246000fd5b6000600182016131a0576131a0613125565b5060010190565b600061012060018060a01b03808d1684528b60208501528a60408501528960608501528160808501526131dc8285018a6126fc565b971660a0840152505060ff9390931660c084015260e08301919091526101009091015295945050505050565b60018060a01b038616815284602082015283604082015282606082015260a06080820152600061323b60a08301846126fc565b979650505050505050565b634e487b7160e01b600052603160045260246000fdfea2646970667358221220923c33b9fe180c267a6ddf7ce891b365a0751e5456c8eed0322a85fcce8e765c64736f6c63430008110033",
    "linkReferences": {}
  },
  "methodIdentifiers": {
    "CURRENT_CODE_VERSION()": "4148f94c",
    "attestBorrower(uint256,address,uint256)": "e4050e29",
    "attestBorrower(uint256,address,uint256,uint8,bytes32,bytes32)": "583b16ae",
    "attestLender(uint256,address,uint256)": "97eb575b",
    "attestLender(uint256,address,uint256,uint8,bytes32,bytes32)": "3fa7f688",
    "borrowerAttestationSchemaId()": "679700d9",
    "borrowerExitMarket(uint256)": "c995cddc",
    "closeMarket(uint256)": "ae418095",
    "createMarket(address,uint32,uint32,uint32,uint16,bool,bool,string)": "f9fa9345",
    "createMarket(address,uint32,uint32,uint32,uint16,bool,bool,uint8,uint8,string)": "344e553d",
    "getAllVerifiedBorrowersForMarket(uint256,uint256,uint256)": "7694d2ec",
    "getAllVerifiedLendersForMarket(uint256,uint256,uint256)": "1db2b0d9",
    "getBidExpirationTime(uint256)": "082fc54d",
    "getMarketAttestationRequirements(uint256)": "8eff9ea4",
    "getMarketData(uint256)": "bfacba3d",
    "getMarketFeeRecipient(uint256)": "64413796",
    "getMarketOwner(uint256)": "3d369029",
    "getMarketURI(uint256)": "1a4808d2",
    "getMarketplaceFee(uint256)": "0a2e98e4",
    "getPaymentCycle(uint256)": "a5630f19",
    "getPaymentDefaultDuration(uint256)": "11bed5bb",
    "getPaymentType(uint256)": "d6e794dd",
    "initialize(address)": "c4d66de8",
    "isMarketClosed(uint256)": "1cc672df",
    "isPayable()": "ce46e046",
    "isVerifiedBorrower(uint256,address)": "066e7513",
    "isVerifiedLender(uint256,address)": "3ef19a9b",
    "lenderAttestationSchemaId()": "3c0db788",
    "lenderExitMarket(uint256)": "7f027a1a",
    "marketCount()": "ec979082",
    "resolve(address,bytes,bytes,uint256,address)": "947a75b4",
    "revokeBorrower(uint256,address)": "455154e5",
    "revokeBorrower(uint256,address,uint8,bytes32,bytes32)": "bc4c3495",
    "revokeLender(uint256,address)": "8b636632",
    "revokeLender(uint256,address,uint8,bytes32,bytes32)": "6054b175",
    "setBidExpirationTime(uint256,uint32)": "bd536e6e",
    "setBorrowerAttestationRequired(uint256,bool)": "be99279b",
    "setLenderAttestationRequired(uint256,bool)": "94e8e97e",
    "setMarketFeePercent(uint256,uint16)": "b6b6d77f",
    "setMarketFeeRecipient(uint256,address)": "1ebc7da8",
    "setMarketPaymentType(uint256,uint8)": "aa542fa5",
    "setMarketURI(uint256,string)": "532f5694",
    "setPaymentCycle(uint256,uint8,uint32)": "e690e84e",
    "setPaymentDefaultDuration(uint256,uint32)": "2f1be8f9",
    "tellerAS()": "ddfafef6",
    "transferMarketOwnership(uint256,address)": "7cfc1818",
    "updateMarketSettings(uint256,uint32,uint8,uint8,uint32,uint32,uint16,bool,bool,string)": "8b975cda",
    "version()": "54fd4d50"
  },
  "id": 6
}