{
  "abi": [
    {
      "inputs": [],
      "name": "NotPayable",
      "type": "error"
    },
    {
      "anonymous": false,
      "inputs": [
        {
          "indexed": false,
          "internalType": "uint256",
          "name": "marketId",
          "type": "uint256"
        },
        {
          "indexed": false,
          "internalType": "address",
          "name": "borrower",
          "type": "address"
        }
      ],
      "name": "BorrowerAttestation",
      "type": "event"
    },
    {
      "anonymous": false,
      "inputs": [
        {
          "indexed": false,
          "internalType": "uint256",
          "name": "marketId",
          "type": "uint256"
        },
        {
          "indexed": false,
          "internalType": "address",
          "name": "borrower",
          "type": "address"
        }
      ],
      "name": "BorrowerExitMarket",
      "type": "event"
    },
    {
      "anonymous": false,
      "inputs": [
        {
          "indexed": false,
          "internalType": "uint256",
          "name": "marketId",
          "type": "uint256"
        },
        {
          "indexed": false,
          "internalType": "address",
          "name": "borrower",
          "type": "address"
        }
      ],
      "name": "BorrowerRevocation",
      "type": "event"
    },
    {
      "anonymous": false,
      "inputs": [
        {
          "indexed": false,
          "internalType": "uint8",
          "name": "version",
          "type": "uint8"
        }
      ],
      "name": "Initialized",
      "type": "event"
    },
    {
      "anonymous": false,
      "inputs": [
        {
          "indexed": false,
          "internalType": "uint256",
          "name": "marketId",
          "type": "uint256"
        },
        {
          "indexed": false,
          "internalType": "address",
          "name": "lender",
          "type": "address"
        }
      ],
      "name": "LenderAttestation",
      "type": "event"
    },
    {
      "anonymous": false,
      "inputs": [
        {
          "indexed": false,
          "internalType": "uint256",
          "name": "marketId",
          "type": "uint256"
        },
        {
          "indexed": false,
          "internalType": "address",
          "name": "lender",
          "type": "address"
        }
      ],
      "name": "LenderExitMarket",
      "type": "event"
    },
    {
      "anonymous": false,
      "inputs": [
        {
          "indexed": false,
          "internalType": "uint256",
          "name": "marketId",
          "type": "uint256"
        },
        {
          "indexed": false,
          "internalType": "address",
          "name": "lender",
          "type": "address"
        }
      ],
      "name": "LenderRevocation",
      "type": "event"
    },
    {
      "anonymous": false,
      "inputs": [
        {
          "indexed": false,
          "internalType": "uint256",
          "name": "marketId",
          "type": "uint256"
        }
      ],
      "name": "MarketClosed",
      "type": "event"
    },
    {
      "anonymous": false,
      "inputs": [
        {
          "indexed": true,
          "internalType": "address",
          "name": "owner",
          "type": "address"
        },
        {
          "indexed": false,
          "internalType": "uint256",
          "name": "marketId",
          "type": "uint256"
        }
      ],
      "name": "MarketCreated",
      "type": "event"
    },
    {
      "anonymous": false,
      "inputs": [
        {
          "indexed": false,
          "internalType": "uint256",
          "name": "marketId",
          "type": "uint256"
        },
        {
          "indexed": false,
          "internalType": "uint32",
          "name": "duration",
          "type": "uint32"
        }
      ],
      "name": "SetBidExpirationTime",
      "type": "event"
    },
    {
      "anonymous": false,
      "inputs": [
        {
          "indexed": false,
          "internalType": "uint256",
          "name": "marketId",
          "type": "uint256"
        },
        {
          "indexed": false,
          "internalType": "bool",
          "name": "required",
          "type": "bool"
        }
      ],
      "name": "SetMarketBorrowerAttestation",
      "type": "event"
    },
    {
      "anonymous": false,
      "inputs": [
        {
          "indexed": false,
          "internalType": "uint256",
          "name": "marketId",
          "type": "uint256"
        },
        {
          "indexed": false,
          "internalType": "uint16",
          "name": "feePct",
          "type": "uint16"
        }
      ],
      "name": "SetMarketFee",
      "type": "event"
    },
    {
      "anonymous": false,
      "inputs": [
        {
          "indexed": false,
          "internalType": "uint256",
          "name": "marketId",
          "type": "uint256"
        },
        {
          "indexed": false,
          "internalType": "address",
          "name": "newRecipient",
          "type": "address"
        }
      ],
      "name": "SetMarketFeeRecipient",
      "type": "event"
    },
    {
      "anonymous": false,
      "inputs": [
        {
          "indexed": false,
          "internalType": "uint256",
          "name": "marketId",
          "type": "uint256"
        },
        {
          "indexed": false,
          "internalType": "bool",
          "name": "required",
          "type": "bool"
        }
      ],
      "name": "SetMarketLenderAttestation",
      "type": "event"
    },
    {
      "anonymous": false,
      "inputs": [
        {
          "indexed": false,
          "internalType": "uint256",
          "name": "marketId",
          "type": "uint256"
        },
        {
          "indexed": false,
          "internalType": "address",
          "name": "newOwner",
          "type": "address"
        }
      ],
      "name": "SetMarketOwner",
      "type": "event"
    },
    {
      "anonymous": false,
      "inputs": [
        {
          "indexed": false,
          "internalType": "uint256",
          "name": "marketId",
          "type": "uint256"
        },
        {
          "indexed": false,
          "internalType": "enum PaymentType",
          "name": "paymentType",
          "type": "uint8"
        }
      ],
      "name": "SetMarketPaymentType",
      "type": "event"
    },
    {
      "anonymous": false,
      "inputs": [
        {
          "indexed": false,
          "internalType": "uint256",
          "name": "marketId",
          "type": "uint256"
        },
        {
          "indexed": false,
          "internalType": "string",
          "name": "uri",
          "type": "string"
        }
      ],
      "name": "SetMarketURI",
      "type": "event"
    },
    {
      "anonymous": false,
      "inputs": [
        {
          "indexed": false,
          "internalType": "uint256",
          "name": "marketId",
          "type": "uint256"
        },
        {
          "indexed": false,
          "internalType": "enum PaymentCycleType",
          "name": "paymentCycleType",
          "type": "uint8"
        },
        {
          "indexed": false,
          "internalType": "uint32",
          "name": "value",
          "type": "uint32"
        }
      ],
      "name": "SetPaymentCycle",
      "type": "event"
    },
    {
      "anonymous": false,
      "inputs": [
        {
          "indexed": false,
          "internalType": "uint256",
          "name": "marketId",
          "type": "uint256"
        },
        {
          "indexed": false,
          "internalType": "uint32",
          "name": "duration",
          "type": "uint32"
        }
      ],
      "name": "SetPaymentCycleDuration",
      "type": "event"
    },
    {
      "anonymous": false,
      "inputs": [
        {
          "indexed": false,
          "internalType": "uint256",
          "name": "marketId",
          "type": "uint256"
        },
        {
          "indexed": false,
          "internalType": "uint32",
          "name": "duration",
          "type": "uint32"
        }
      ],
      "name": "SetPaymentDefaultDuration",
      "type": "event"
    },
    {
      "inputs": [],
      "name": "CURRENT_CODE_VERSION",
      "outputs": [
        {
          "internalType": "uint256",
          "name": "",
          "type": "uint256"
        }
      ],
      "stateMutability": "view",
      "type": "function"
    },
    {
      "inputs": [
        {
          "internalType": "uint256",
          "name": "_marketId",
          "type": "uint256"
        },
        {
          "internalType": "address",
          "name": "_borrowerAddress",
          "type": "address"
        },
        {
          "internalType": "uint256",
          "name": "_expirationTime",
          "type": "uint256"
        },
        {
          "internalType": "uint8",
          "name": "_v",
          "type": "uint8"
        },
        {
          "internalType": "bytes32",
          "name": "_r",
          "type": "bytes32"
        },
        {
          "internalType": "bytes32",
          "name": "_s",
          "type": "bytes32"
        }
      ],
      "name": "attestBorrower",
      "outputs": [],
      "stateMutability": "nonpayable",
      "type": "function"
    },
    {
      "inputs": [
        {
          "internalType": "uint256",
          "name": "_marketId",
          "type": "uint256"
        },
        {
          "internalType": "address",
          "name": "_borrowerAddress",
          "type": "address"
        },
        {
          "internalType": "uint256",
          "name": "_expirationTime",
          "type": "uint256"
        }
      ],
      "name": "attestBorrower",
      "outputs": [],
      "stateMutability": "nonpayable",
      "type": "function"
    },
    {
      "inputs": [
        {
          "internalType": "uint256",
          "name": "_marketId",
          "type": "uint256"
        },
        {
          "internalType": "address",
          "name": "_lenderAddress",
          "type": "address"
        },
        {
          "internalType": "uint256",
          "name": "_expirationTime",
          "type": "uint256"
        },
        {
          "internalType": "uint8",
          "name": "_v",
          "type": "uint8"
        },
        {
          "internalType": "bytes32",
          "name": "_r",
          "type": "bytes32"
        },
        {
          "internalType": "bytes32",
          "name": "_s",
          "type": "bytes32"
        }
      ],
      "name": "attestLender",
      "outputs": [],
      "stateMutability": "nonpayable",
      "type": "function"
    },
    {
      "inputs": [
        {
          "internalType": "uint256",
          "name": "_marketId",
          "type": "uint256"
        },
        {
          "internalType": "address",
          "name": "_lenderAddress",
          "type": "address"
        },
        {
          "internalType": "uint256",
          "name": "_expirationTime",
          "type": "uint256"
        }
      ],
      "name": "attestLender",
      "outputs": [],
      "stateMutability": "nonpayable",
      "type": "function"
    },
    {
      "inputs": [],
      "name": "borrowerAttestationSchemaId",
      "outputs": [
        {
          "internalType": "bytes32",
          "name": "",
          "type": "bytes32"
        }
      ],
      "stateMutability": "view",
      "type": "function"
    },
    {
      "inputs": [
        {
          "internalType": "uint256",
          "name": "_marketId",
          "type": "uint256"
        }
      ],
      "name": "borrowerExitMarket",
      "outputs": [],
      "stateMutability": "nonpayable",
      "type": "function"
    },
    {
      "inputs": [
        {
          "internalType": "uint256",
          "name": "_marketId",
          "type": "uint256"
        }
      ],
      "name": "closeMarket",
      "outputs": [],
      "stateMutability": "nonpayable",
      "type": "function"
    },
    {
      "inputs": [
        {
          "internalType": "address",
          "name": "_initialOwner",
          "type": "address"
        },
        {
          "internalType": "uint32",
          "name": "_paymentCycleDuration",
          "type": "uint32"
        },
        {
          "internalType": "uint32",
          "name": "_paymentDefaultDuration",
          "type": "uint32"
        },
        {
          "internalType": "uint32",
          "name": "_bidExpirationTime",
          "type": "uint32"
        },
        {
          "internalType": "uint16",
          "name": "_feePercent",
          "type": "uint16"
        },
        {
          "internalType": "bool",
          "name": "_requireLenderAttestation",
          "type": "bool"
        },
        {
          "internalType": "bool",
          "name": "_requireBorrowerAttestation",
          "type": "bool"
        },
        {
          "internalType": "enum PaymentType",
          "name": "_paymentType",
          "type": "uint8"
        },
        {
          "internalType": "enum PaymentCycleType",
          "name": "_paymentCycleType",
          "type": "uint8"
        },
        {
          "internalType": "string",
          "name": "_uri",
          "type": "string"
        }
      ],
      "name": "createMarket",
      "outputs": [
        {
          "internalType": "uint256",
          "name": "marketId_",
          "type": "uint256"
        }
      ],
      "stateMutability": "nonpayable",
      "type": "function"
    },
    {
      "inputs": [
        {
          "internalType": "address",
          "name": "_initialOwner",
          "type": "address"
        },
        {
          "internalType": "uint32",
          "name": "_paymentCycleDuration",
          "type": "uint32"
        },
        {
          "internalType": "uint32",
          "name": "_paymentDefaultDuration",
          "type": "uint32"
        },
        {
          "internalType": "uint32",
          "name": "_bidExpirationTime",
          "type": "uint32"
        },
        {
          "internalType": "uint16",
          "name": "_feePercent",
          "type": "uint16"
        },
        {
          "internalType": "bool",
          "name": "_requireLenderAttestation",
          "type": "bool"
        },
        {
          "internalType": "bool",
          "name": "_requireBorrowerAttestation",
          "type": "bool"
        },
        {
          "internalType": "string",
          "name": "_uri",
          "type": "string"
        }
      ],
      "name": "createMarket",
      "outputs": [
        {
          "internalType": "uint256",
          "name": "marketId_",
          "type": "uint256"
        }
      ],
      "stateMutability": "nonpayable",
      "type": "function"
    },
    {
      "inputs": [
        {
          "internalType": "uint256",
          "name": "_marketId",
          "type": "uint256"
        },
        {
          "internalType": "uint256",
          "name": "_page",
          "type": "uint256"
        },
        {
          "internalType": "uint256",
          "name": "_perPage",
          "type": "uint256"
        }
      ],
      "name": "getAllVerifiedBorrowersForMarket",
      "outputs": [
        {
          "internalType": "address[]",
          "name": "",
          "type": "address[]"
        }
      ],
      "stateMutability": "view",
      "type": "function"
    },
    {
      "inputs": [
        {
          "internalType": "uint256",
          "name": "_marketId",
          "type": "uint256"
        },
        {
          "internalType": "uint256",
          "name": "_page",
          "type": "uint256"
        },
        {
          "internalType": "uint256",
          "name": "_perPage",
          "type": "uint256"
        }
      ],
      "name": "getAllVerifiedLendersForMarket",
      "outputs": [
        {
          "internalType": "address[]",
          "name": "",
          "type": "address[]"
        }
      ],
      "stateMutability": "view",
      "type": "function"
    },
    {
      "inputs": [
        {
          "internalType": "uint256",
          "name": "marketId",
          "type": "uint256"
        }
      ],
      "name": "getBidExpirationTime",
      "outputs": [
        {
          "internalType": "uint32",
          "name": "",
          "type": "uint32"
        }
      ],
      "stateMutability": "view",
      "type": "function"
    },
    {
      "inputs": [
        {
          "internalType": "uint256",
          "name": "_marketId",
          "type": "uint256"
        }
      ],
      "name": "getMarketAttestationRequirements",
      "outputs": [
        {
          "internalType": "bool",
          "name": "lenderAttestationRequired",
          "type": "bool"
        },
        {
          "internalType": "bool",
          "name": "borrowerAttestationRequired",
          "type": "bool"
        }
      ],
      "stateMutability": "view",
      "type": "function"
    },
    {
      "inputs": [
        {
          "internalType": "uint256",
          "name": "_marketId",
          "type": "uint256"
        }
      ],
      "name": "getMarketData",
      "outputs": [
        {
          "internalType": "address",
          "name": "owner",
          "type": "address"
        },
        {
          "internalType": "uint32",
          "name": "paymentCycleDuration",
          "type": "uint32"
        },
        {
          "internalType": "uint32",
          "name": "paymentDefaultDuration",
          "type": "uint32"
        },
        {
          "internalType": "uint32",
          "name": "loanExpirationTime",
          "type": "uint32"
        },
        {
          "internalType": "string",
          "name": "metadataURI",
          "type": "string"
        },
        {
          "internalType": "uint16",
          "name": "marketplaceFeePercent",
          "type": "uint16"
        },
        {
          "internalType": "bool",
          "name": "lenderAttestationRequired",
          "type": "bool"
        }
      ],
      "stateMutability": "view",
      "type": "function"
    },
    {
      "inputs": [
        {
          "internalType": "uint256",
          "name": "_marketId",
          "type": "uint256"
        }
      ],
      "name": "getMarketFeeRecipient",
      "outputs": [
        {
          "internalType": "address",
          "name": "",
          "type": "address"
        }
      ],
      "stateMutability": "view",
      "type": "function"
    },
    {
      "inputs": [
        {
          "internalType": "uint256",
          "name": "_marketId",
          "type": "uint256"
        }
      ],
      "name": "getMarketOwner",
      "outputs": [
        {
          "internalType": "address",
          "name": "",
          "type": "address"
        }
      ],
      "stateMutability": "view",
      "type": "function"
    },
    {
      "inputs": [
        {
          "internalType": "uint256",
          "name": "_marketId",
          "type": "uint256"
        }
      ],
      "name": "getMarketURI",
      "outputs": [
        {
          "internalType": "string",
          "name": "",
          "type": "string"
        }
      ],
      "stateMutability": "view",
      "type": "function"
    },
    {
      "inputs": [
        {
          "internalType": "uint256",
          "name": "_marketId",
          "type": "uint256"
        }
      ],
      "name": "getMarketplaceFee",
      "outputs": [
        {
          "internalType": "uint16",
          "name": "fee",
          "type": "uint16"
        }
      ],
      "stateMutability": "view",
      "type": "function"
    },
    {
      "inputs": [
        {
          "internalType": "uint256",
          "name": "_marketId",
          "type": "uint256"
        }
      ],
      "name": "getPaymentCycle",
      "outputs": [
        {
          "internalType": "uint32",
          "name": "",
          "type": "uint32"
        },
        {
          "internalType": "enum PaymentCycleType",
          "name": "",
          "type": "uint8"
        }
      ],
      "stateMutability": "view",
      "type": "function"
    },
    {
      "inputs": [
        {
          "internalType": "uint256",
          "name": "_marketId",
          "type": "uint256"
        }
      ],
      "name": "getPaymentDefaultDuration",
      "outputs": [
        {
          "internalType": "uint32",
          "name": "",
          "type": "uint32"
        }
      ],
      "stateMutability": "view",
      "type": "function"
    },
    {
      "inputs": [
        {
          "internalType": "uint256",
          "name": "_marketId",
          "type": "uint256"
        }
      ],
      "name": "getPaymentType",
      "outputs": [
        {
          "internalType": "enum PaymentType",
          "name": "",
          "type": "uint8"
        }
      ],
      "stateMutability": "view",
      "type": "function"
    },
    {
      "inputs": [
        {
          "internalType": "contract TellerAS",
          "name": "_tellerAS",
          "type": "address"
        }
      ],
      "name": "initialize",
      "outputs": [],
      "stateMutability": "nonpayable",
      "type": "function"
    },
    {
      "inputs": [
        {
          "internalType": "uint256",
          "name": "_marketId",
          "type": "uint256"
        }
      ],
      "name": "isMarketClosed",
      "outputs": [
        {
          "internalType": "bool",
          "name": "",
          "type": "bool"
        }
      ],
      "stateMutability": "view",
      "type": "function"
    },
    {
      "inputs": [],
      "name": "isPayable",
      "outputs": [
        {
          "internalType": "bool",
          "name": "",
          "type": "bool"
        }
      ],
      "stateMutability": "pure",
      "type": "function"
    },
    {
      "inputs": [
        {
          "internalType": "uint256",
          "name": "_marketId",
          "type": "uint256"
        },
        {
          "internalType": "address",
          "name": "_borrowerAddress",
          "type": "address"
        }
      ],
      "name": "isVerifiedBorrower",
      "outputs": [
        {
          "internalType": "bool",
          "name": "isVerified_",
          "type": "bool"
        },
        {
          "internalType": "bytes32",
          "name": "uuid_",
          "type": "bytes32"
        }
      ],
      "stateMutability": "view",
      "type": "function"
    },
    {
      "inputs": [
        {
          "internalType": "uint256",
          "name": "_marketId",
          "type": "uint256"
        },
        {
          "internalType": "address",
          "name": "_lenderAddress",
          "type": "address"
        }
      ],
      "name": "isVerifiedLender",
      "outputs": [
        {
          "internalType": "bool",
          "name": "isVerified_",
          "type": "bool"
        },
        {
          "internalType": "bytes32",
          "name": "uuid_",
          "type": "bytes32"
        }
      ],
      "stateMutability": "view",
      "type": "function"
    },
    {
      "inputs": [],
      "name": "lenderAttestationSchemaId",
      "outputs": [
        {
          "internalType": "bytes32",
          "name": "",
          "type": "bytes32"
        }
      ],
      "stateMutability": "view",
      "type": "function"
    },
    {
      "inputs": [
        {
          "internalType": "uint256",
          "name": "_marketId",
          "type": "uint256"
        }
      ],
      "name": "lenderExitMarket",
      "outputs": [],
      "stateMutability": "nonpayable",
      "type": "function"
    },
    {
      "inputs": [],
      "name": "marketCount",
      "outputs": [
        {
          "internalType": "uint256",
          "name": "",
          "type": "uint256"
        }
      ],
      "stateMutability": "view",
      "type": "function"
    },
    {
      "inputs": [],
      "name": "onUpgrade",
      "outputs": [],
      "stateMutability": "nonpayable",
      "type": "function"
    },
    {
      "inputs": [
        {
          "internalType": "address",
          "name": "recipient",
          "type": "address"
        },
        {
          "internalType": "bytes",
          "name": "schema",
          "type": "bytes"
        },
        {
          "internalType": "bytes",
          "name": "data",
          "type": "bytes"
        },
        {
          "internalType": "uint256",
          "name": "",
          "type": "uint256"
        },
        {
          "internalType": "address",
          "name": "attestor",
          "type": "address"
        }
      ],
      "name": "resolve",
      "outputs": [
        {
          "internalType": "bool",
          "name": "",
          "type": "bool"
        }
      ],
      "stateMutability": "payable",
      "type": "function"
    },
    {
      "inputs": [
        {
          "internalType": "uint256",
          "name": "_marketId",
          "type": "uint256"
        },
        {
          "internalType": "address",
          "name": "_borrowerAddress",
          "type": "address"
        }
      ],
      "name": "revokeBorrower",
      "outputs": [],
      "stateMutability": "nonpayable",
      "type": "function"
    },
    {
      "inputs": [
        {
          "internalType": "uint256",
          "name": "_marketId",
          "type": "uint256"
        },
        {
          "internalType": "address",
          "name": "_borrowerAddress",
          "type": "address"
        },
        {
          "internalType": "uint8",
          "name": "_v",
          "type": "uint8"
        },
        {
          "internalType": "bytes32",
          "name": "_r",
          "type": "bytes32"
        },
        {
          "internalType": "bytes32",
          "name": "_s",
          "type": "bytes32"
        }
      ],
      "name": "revokeBorrower",
      "outputs": [],
      "stateMutability": "nonpayable",
      "type": "function"
    },
    {
      "inputs": [
        {
          "internalType": "uint256",
          "name": "_marketId",
          "type": "uint256"
        },
        {
          "internalType": "address",
          "name": "_lenderAddress",
          "type": "address"
        },
        {
          "internalType": "uint8",
          "name": "_v",
          "type": "uint8"
        },
        {
          "internalType": "bytes32",
          "name": "_r",
          "type": "bytes32"
        },
        {
          "internalType": "bytes32",
          "name": "_s",
          "type": "bytes32"
        }
      ],
      "name": "revokeLender",
      "outputs": [],
      "stateMutability": "nonpayable",
      "type": "function"
    },
    {
      "inputs": [
        {
          "internalType": "uint256",
          "name": "_marketId",
          "type": "uint256"
        },
        {
          "internalType": "address",
          "name": "_lenderAddress",
          "type": "address"
        }
      ],
      "name": "revokeLender",
      "outputs": [],
      "stateMutability": "nonpayable",
      "type": "function"
    },
    {
      "inputs": [
        {
          "internalType": "uint256",
          "name": "_marketId",
          "type": "uint256"
        },
        {
          "internalType": "uint32",
          "name": "_duration",
          "type": "uint32"
        }
      ],
      "name": "setBidExpirationTime",
      "outputs": [],
      "stateMutability": "nonpayable",
      "type": "function"
    },
    {
      "inputs": [
        {
          "internalType": "uint256",
          "name": "_marketId",
          "type": "uint256"
        },
        {
          "internalType": "bool",
          "name": "_required",
          "type": "bool"
        }
      ],
      "name": "setBorrowerAttestationRequired",
      "outputs": [],
      "stateMutability": "nonpayable",
      "type": "function"
    },
    {
      "inputs": [
        {
          "internalType": "uint256",
          "name": "_marketId",
          "type": "uint256"
        },
        {
          "internalType": "bool",
          "name": "_required",
          "type": "bool"
        }
      ],
      "name": "setLenderAttestationRequired",
      "outputs": [],
      "stateMutability": "nonpayable",
      "type": "function"
    },
    {
      "inputs": [
        {
          "internalType": "uint256",
          "name": "_marketId",
          "type": "uint256"
        },
        {
          "internalType": "uint16",
          "name": "_newPercent",
          "type": "uint16"
        }
      ],
      "name": "setMarketFeePercent",
      "outputs": [],
      "stateMutability": "nonpayable",
      "type": "function"
    },
    {
      "inputs": [
        {
          "internalType": "uint256",
          "name": "_marketId",
          "type": "uint256"
        },
        {
          "internalType": "address",
          "name": "_recipient",
          "type": "address"
        }
      ],
      "name": "setMarketFeeRecipient",
      "outputs": [],
      "stateMutability": "nonpayable",
      "type": "function"
    },
    {
      "inputs": [
        {
          "internalType": "uint256",
          "name": "_marketId",
          "type": "uint256"
        },
        {
          "internalType": "enum PaymentType",
          "name": "_newPaymentType",
          "type": "uint8"
        }
      ],
      "name": "setMarketPaymentType",
      "outputs": [],
      "stateMutability": "nonpayable",
      "type": "function"
    },
    {
      "inputs": [
        {
          "internalType": "uint256",
          "name": "_marketId",
          "type": "uint256"
        },
        {
          "internalType": "string",
          "name": "_uri",
          "type": "string"
        }
      ],
      "name": "setMarketURI",
      "outputs": [],
      "stateMutability": "nonpayable",
      "type": "function"
    },
    {
      "inputs": [
        {
          "internalType": "uint256",
          "name": "_marketId",
          "type": "uint256"
        },
        {
          "internalType": "enum PaymentCycleType",
          "name": "_paymentCycleType",
          "type": "uint8"
        },
        {
          "internalType": "uint32",
          "name": "_duration",
          "type": "uint32"
        }
      ],
      "name": "setPaymentCycle",
      "outputs": [],
      "stateMutability": "nonpayable",
      "type": "function"
    },
    {
      "inputs": [
        {
          "internalType": "uint256",
          "name": "_marketId",
          "type": "uint256"
        },
        {
          "internalType": "uint32",
          "name": "_duration",
          "type": "uint32"
        }
      ],
      "name": "setPaymentDefaultDuration",
      "outputs": [],
      "stateMutability": "nonpayable",
      "type": "function"
    },
    {
      "inputs": [],
      "name": "tellerAS",
      "outputs": [
        {
          "internalType": "contract TellerAS",
          "name": "",
          "type": "address"
        }
      ],
      "stateMutability": "view",
      "type": "function"
    },
    {
      "inputs": [
        {
          "internalType": "uint256",
          "name": "_marketId",
          "type": "uint256"
        },
        {
          "internalType": "address",
          "name": "_newOwner",
          "type": "address"
        }
      ],
      "name": "transferMarketOwnership",
      "outputs": [],
      "stateMutability": "nonpayable",
      "type": "function"
    },
    {
      "inputs": [
        {
          "internalType": "uint256",
          "name": "_marketId",
          "type": "uint256"
        },
        {
          "internalType": "uint32",
          "name": "_paymentCycleDuration",
          "type": "uint32"
        },
        {
          "internalType": "enum PaymentType",
          "name": "_newPaymentType",
          "type": "uint8"
        },
        {
          "internalType": "enum PaymentCycleType",
          "name": "_paymentCycleType",
          "type": "uint8"
        },
        {
          "internalType": "uint32",
          "name": "_paymentDefaultDuration",
          "type": "uint32"
        },
        {
          "internalType": "uint32",
          "name": "_bidExpirationTime",
          "type": "uint32"
        },
        {
          "internalType": "uint16",
          "name": "_feePercent",
          "type": "uint16"
        },
        {
          "internalType": "bool",
          "name": "_borrowerAttestationRequired",
          "type": "bool"
        },
        {
          "internalType": "bool",
          "name": "_lenderAttestationRequired",
          "type": "bool"
        },
        {
          "internalType": "string",
          "name": "_metadataURI",
          "type": "string"
        }
      ],
      "name": "updateMarketSettings",
      "outputs": [],
      "stateMutability": "nonpayable",
      "type": "function"
    },
    {
      "inputs": [],
      "name": "version",
      "outputs": [
        {
          "internalType": "uint256",
          "name": "",
          "type": "uint256"
        }
      ],
      "stateMutability": "view",
      "type": "function"
    },
    {
      "stateMutability": "payable",
      "type": "receive"
    }
  ],
  "bytecode": {
    "object": "0x608060405234801561001057600080fd5b5061332a806100206000396000f3fe6080604052600436106102b25760003560e01c80637cfc181811610175578063bc4c3495116100dc578063ce46e04611610095578063e4050e291161006f578063e4050e29146109ed578063e690e84e14610a0d578063ec97908214610a2d578063f9fa934514610a4357600080fd5b8063ce46e04614610972578063d6e794dd14610986578063ddfafef6146109cd57600080fd5b8063bc4c34951461089f578063bd536e6e146108bf578063be99279b146108df578063bfacba3d146108ff578063c4d66de814610932578063c995cddc1461095257600080fd5b806394e8e97e1161012e57806394e8e97e146107a657806397eb575b146107c6578063a5630f19146107e6578063aa542fa51461083f578063ae4180951461085f578063b6b6d77f1461087f57600080fd5b80637cfc1818146106ad5780637f027a1a146106cd5780638b636632146106ed5780638b975cda1461070d5780638eff9ea41461072d578063947a75b41461079357600080fd5b80633d3690291161021957806354fd4d50116101d257806354fd4d5014610601578063583b16ae146106175780636054b175146106375780636441379614610657578063679700d9146106775780637694d2ec1461068d57600080fd5b80633d3690291461051e5780633ef19a9b1461056c5780633fa7f6881461058c5780634148f94c146105ac578063455154e5146105c1578063532f5694146105e157600080fd5b80631cc672df1161026b5780631cc672df1461042d5780631db2b0d91461046d5780631ebc7da81461049a5780632f1be8f9146104ba578063344e553d146104da5780633c0db7881461050857600080fd5b8063066e7513146102d7578063082fc54d146103135780630a2e98e41461036557806311bed5bb146103ad5780631824a46b146103eb5780631a4808d21461040057600080fd5b366102d257604051631574f9f360e01b815260040160405180910390fd5b005b600080fd5b3480156102e357600080fd5b506102f76102f236600461274b565b610a63565b6040805192151583526020830191909152015b60405180910390f35b34801561031f57600080fd5b5061035061032e36600461277b565b600090815260026020526040902060060154600160401b900463ffffffff1690565b60405163ffffffff909116815260200161030a565b34801561037157600080fd5b5061039a61038036600461277b565b6000908152600260208190526040909120015461ffff1690565b60405161ffff909116815260200161030a565b3480156103b957600080fd5b506103506103c836600461277b565b600090815260026020526040902060060154640100000000900463ffffffff1690565b3480156103f757600080fd5b506102d0610aa3565b34801561040c57600080fd5b5061042061041b36600461277b565b610b14565b60405161030a91906127da565b34801561043957600080fd5b5061045d61044836600461277b565b60009081526008602052604090205460ff1690565b604051901515815260200161030a565b34801561047957600080fd5b5061048d6104883660046127ed565b610bb9565b60405161030a9190612819565b3480156104a657600080fd5b506102d06104b536600461274b565b610be3565b3480156104c657600080fd5b506102d06104d536600461287f565b610c86565b3480156104e657600080fd5b506104fa6104f536600461291a565b610d56565b60405190815260200161030a565b34801561051457600080fd5b506104fa60015481565b34801561052a57600080fd5b5061055461053936600461277b565b6000908152600260205260409020546001600160a01b031690565b6040516001600160a01b03909116815260200161030a565b34801561057857600080fd5b506102f761058736600461274b565b610d7b565b34801561059857600080fd5b506102d06105a7366004612a14565b610daf565b3480156105b857600080fd5b506104fa600781565b3480156105cd57600080fd5b506102d06105dc36600461274b565b610dc7565b3480156105ed57600080fd5b506102d06105fc366004612a6e565b610dd7565b34801561060d57600080fd5b506104fa60075481565b34801561062357600080fd5b506102d0610632366004612a14565b610ed4565b34801561064357600080fd5b506102d0610652366004612aba565b610ee4565b34801561066357600080fd5b5061055461067236600461277b565b610efa565b34801561068357600080fd5b506104fa60065481565b34801561069957600080fd5b5061048d6106a83660046127ed565b610f3d565b3480156106b957600080fd5b506102d06106c836600461274b565b610f5c565b3480156106d957600080fd5b506102d06106e836600461277b565b610ff3565b3480156106f957600080fd5b506102d061070836600461274b565b61105f565b34801561071957600080fd5b506102d0610728366004612b0a565b61106b565b34801561073957600080fd5b5061077c61074836600461277b565b6000908152600260208190526040909120908101546006909101546201000090910460ff90811692600160601b9092041690565b60408051921515835290151560208301520161030a565b61045d6107a1366004612ba7565b6110c4565b3480156107b257600080fd5b506102d06107c1366004612c47565b611172565b3480156107d257600080fd5b506102d06107e1366004612c6c565b61122f565b3480156107f257600080fd5b5061083161080136600461277b565b60009081526002602052604090206006810154600a9091015463ffffffff90911691600160a81b90910460ff1690565b60405161030a929190612cd8565b34801561084b57600080fd5b506102d061085a366004612cfb565b61123c565b34801561086b57600080fd5b506102d061087a36600461277b565b611322565b34801561088b57600080fd5b506102d061089a366004612d20565b6113bb565b3480156108ab57600080fd5b506102d06108ba366004612aba565b6114b3565b3480156108cb57600080fd5b506102d06108da36600461287f565b6114c2565b3480156108eb57600080fd5b506102d06108fa366004612c47565b61158f565b34801561090b57600080fd5b5061091f61091a36600461277b565b61164e565b60405161030a9796959493929190612d43565b34801561093e57600080fd5b506102d061094d366004612da2565b611760565b34801561095e57600080fd5b506102d061096d36600461277b565b611abd565b34801561097e57600080fd5b50600061045d565b34801561099257600080fd5b506109c06109a136600461277b565b6000908152600260205260409020600a0154600160a01b900460ff1690565b60405161030a9190612dbf565b3480156109d957600080fd5b50600954610554906001600160a01b031681565b3480156109f957600080fd5b506102d0610a08366004612c6c565b611b08565b348015610a1957600080fd5b506102d0610a28366004612dd2565b611b15565b348015610a3957600080fd5b506104fa60045481565b348015610a4f57600080fd5b506104fa610a5e366004612e10565b611d15565b600082815260026020526040812060068101548291610a97918591600160601b90910460ff16906009810190600701611d39565b915091505b9250929050565b6007805403610b0e5760405162461bcd60e51b815260206004820152602c60248201527f436f6e747261637420616c726561647920757067726164656420746f206c617460448201526b6573742076657273696f6e2160a01b60648201526084015b60405180910390fd5b60078055565b6000818152600260205260409020600101805460609190610b3490612ed1565b80601f0160208091040260200160405190810160405280929190818152602001828054610b6090612ed1565b8015610bad5780601f10610b8257610100808354040283529160200191610bad565b820191906000526020600020905b815481529060010190602001808311610b9057829003601f168201915b50505050509050919050565b6000838152600260205260409020606090600301610bd8818585611e04565b9150505b9392505050565b60008281526002602052604090205482906001600160a01b03163314610c1b5760405162461bcd60e51b8152600401610b0590612f0b565b600083815260026020908152604091829020600a0180546001600160a01b0319166001600160a01b0386169081179091558251868152918201527ffc7e26c4fffcd77fc52c81b32a6a6b7838b5592ced8c14c1a46e2b4a322c568a91015b60405180910390a1505050565b60008281526002602052604090205482906001600160a01b03163314610cbe5760405162461bcd60e51b8152600401610b0590612f0b565b60008381526002602052604090206006015463ffffffff8381166401000000009092041614610d5157600083815260026020908152604091829020600601805467ffffffff00000000191664010000000063ffffffff8716908102919091179091558251868152918201527f3e49e2efeacab7e8344acd4e7940449bf62039aa3734c34fa6d3525654be81019101610c79565b505050565b6000610d6b8c8c8c8c8c8c8c8c8c8c8c611eeb565b9c9b505050505050505050505050565b60008281526002602081905260408220908101548291610a979185916201000090910460ff16906005810190600301611d39565b610dbf8686866001878787611fdd565b505050505050565b610dd382826000612113565b5050565b60008381526002602052604090205483906001600160a01b03163314610e0f5760405162461bcd60e51b8152600401610b0590612f0b565b6000848152600260209081526040918290209151610e31926001019101612f32565b604051602081830303815290604052805190602001208383604051602001610e5a929190612fa8565b6040516020818303038152906040528051906020012014610ece576000848152600260205260409020600101610e91838583613014565b507f6218b53065a32d32b3f52d9ad728c1b826a2aae15fc1ee92f83836debbcc1029848484604051610ec5939291906130d4565b60405180910390a15b50505050565b610dbf8686866000878787611fdd565b610ef385856001868686612186565b5050505050565b6000818152600260205260408120600a01546001600160a01b031680610f375750506000908152600260205260409020546001600160a01b031690565b92915050565b6000838152600260205260409020606090600701610bd8818585611e04565b60008281526002602052604090205482906001600160a01b03163314610f945760405162461bcd60e51b8152600401610b0590612f0b565b60008381526002602090815260409182902080546001600160a01b0319166001600160a01b0386169081179091558251868152918201527ff68f2d4b68e0d54a81a3b8e53403ddec34a1e288cf6a6f6b3621c0a47b6e36f99101610c79565b600081815260026020526040812061100e906003013361219d565b90508015610dd3577f55e867ccc9ac324e2c193ce4ed25397fb890213c704685f2c9fbe5bd7507298682335b604080519283526001600160a01b039091166020830152015b60405180910390a15050565b610dd382826001612113565b60008b8152600260205260409020548b906001600160a01b031633146110a35760405162461bcd60e51b8152600401610b0590612f0b565b6110b68c8c8c8c8c8c8c8c8c8c8c6121b2565b505050505050505050505050565b6000808787306040516020016110dc9392919061310a565b60408051601f19818403018152919052805160209091012090506000806111058789018961274b565b915091508260055414801561112b5750806001600160a01b03168b6001600160a01b0316145b801561115057506000828152600260205260409020546001600160a01b038681169116145b8061116357506001600160a01b03851630145b9b9a5050505050505050505050565b60008281526002602052604090205482906001600160a01b031633146111aa5760405162461bcd60e51b8152600401610b0590612f0b565b6000838152600260208190526040909120015462010000900460ff16151582151514610d5157600083815260026020818152604092839020909101805462ff0000191662010000861515908102919091179091558251868152918201527f4666a8529dea37114f2ecc11706d613f7a59a7967f8467da6877820b83d405a19101610c79565b610d518383836001612211565b60008281526002602052604090205482906001600160a01b031633146112745760405162461bcd60e51b8152600401610b0590612f0b565b6000838152600260205260409020600a0154600160a01b900460ff1660018111156112a1576112a1612ca4565b8260018111156112b3576112b3612ca4565b14610d51576000838152600260205260409020600a01805483919060ff60a01b1916600160a01b8360018111156112ec576112ec612ca4565b02179055507ff81d9cc918f72edfc74e6b61d4e19ef9a739e94a0e9715b108e6af62275142ef8383604051610c79929190613130565b60008181526002602052604090205481906001600160a01b0316331461135a5760405162461bcd60e51b8152600401610b0590612f0b565b60008281526008602052604090205460ff16610dd35760008281526008602052604090819020805460ff19166001179055517f9dc30b8eda31a6a144e092e5de600955523a6a925cc15cc1d1b9b4872cfa6155906110539084815260200190565b60008281526002602052604090205482906001600160a01b031633146113f35760405162461bcd60e51b8152600401610b0590612f0b565b6127108261ffff16111561143b5760405162461bcd60e51b815260206004820152600f60248201526e1a5b9d985b1a59081c195c98d95b9d608a1b6044820152606401610b05565b6000838152600260208190526040909120015461ffff838116911614610d5157600083815260026020818152604092839020909101805461ffff191661ffff86169081179091558251868152918201527f9c6f3e426c05d512408d4ecf517e5155756288155088ad45a81c0e111e3d18549101610c79565b610ef385856000868686612186565b60008281526002602052604090205482906001600160a01b031633146114fa5760405162461bcd60e51b8152600401610b0590612f0b565b60008381526002602052604090206006015463ffffffff838116600160401b9092041614610d515760008381526002602090815260409182902060060180546bffffffff00000000000000001916600160401b63ffffffff8716908102919091179091558251868152918201527ff0275a50e761f3b1635fa59ce199b1f2268b3fcb7fbdfb18c21aa3d2d78aa7b79101610c79565b60008281526002602052604090205482906001600160a01b031633146115c75760405162461bcd60e51b8152600401610b0590612f0b565b600083815260026020526040902060060154600160601b900460ff16151582151514610d5157600083815260026020908152604091829020600601805460ff60601b1916600160601b861515908102919091179091558251868152918201527fc906280af595fe94779bb9a972f24fe4e0ed7f76bebb4ee0eb9a5f30d6dd4c879101610c79565b60008181526002602081905260408220805460068201549282015460019092018054859485948594606094869485946001600160a01b039093169363ffffffff808516946401000000008104821694600160401b90910490911692909161ffff8116916201000090910460ff169083906116c790612ed1565b80601f01602080910402602001604051908101604052809291908181526020018280546116f390612ed1565b80156117405780601f1061171557610100808354040283529160200191611740565b820191906000526020600020905b81548152906001019060200180831161172357829003601f168201915b505050505092509650965096509650965096509650919395979092949650565b600054610100900460ff16158080156117805750600054600160ff909116105b8061179a5750303b15801561179a575060005460ff166001145b6117fd5760405162461bcd60e51b815260206004820152602e60248201527f496e697469616c697a61626c653a20636f6e747261637420697320616c72656160448201526d191e481a5b9a5d1a585b1a5e995960921b6064820152608401610b05565b6000805460ff191660011790558015611820576000805461ff0019166101001790555b600980546001600160a01b0319166001600160a01b038416908117909155604080516381fa6cd360e01b815290516381fa6cd3916004808201926020929091908290030181865afa158015611879573d6000803e3d6000fd5b505050506040513d601f19601f8201168201806040525081019061189d9190613140565b6040805163a99e7e2960e01b81526004810191909152602960448201527f2875696e74323536206d61726b657449642c2061646472657373206c656e646560648201526872416464726573732960b81b60848201523060248201526001600160a01b03919091169063a99e7e299060a4016020604051808303816000875af115801561192d573d6000803e3d6000fd5b505050506040513d601f19601f82011682018060405250810190611951919061315d565b600155600954604080516381fa6cd360e01b815290516001600160a01b03909216916381fa6cd3916004808201926020929091908290030181865afa15801561199e573d6000803e3d6000fd5b505050506040513d601f19601f820116820180604052508101906119c29190613140565b6040805163a99e7e2960e01b81526004810191909152602b60448201527f2875696e74323536206d61726b657449642c206164647265737320626f72726f60648201526a776572416464726573732960a81b60848201523060248201526001600160a01b03919091169063a99e7e299060a4016020604051808303816000875af1158015611a54573d6000803e3d6000fd5b505050506040513d601f19601f82011682018060405250810190611a78919061315d565b6006558015610dd3576000805461ff0019169055604051600181527f7f26b83ff96e1f2b6a682f133852f6798a09c465da95921460cefb384740249890602001611053565b6000818152600260205260408120611ad8906007013361219d565b90508015610dd3577f914ccbaf2f5c9c2f4b7c6be3497b6b2ceb6ce2d050aec6eb2e0e31b8f9f67f0c823361103a565b610d518383836000612211565b60008381526002602052604090205483906001600160a01b03163314611b4d5760405162461bcd60e51b8152600401610b0590612f0b565b6000836001811115611b6157611b61612ca4565b1480611b8d57506001836001811115611b7c57611b7c612ca4565b148015611b8d575063ffffffff8216155b611bee5760405162461bcd60e51b815260206004820152602c60248201527f6d6f6e74686c79207061796d656e74206379636c65206475726174696f6e206360448201526b185b9b9bdd081899481cd95d60a21b6064820152608401610b05565b60008481526002602052604081209080856001811115611c1057611c10612ca4565b14611c1e5762278d00611c20565b835b600a830154909150600160a81b900460ff166001811115611c4357611c43612ca4565b856001811115611c5557611c55612ca4565b141580611c6f5750600682015463ffffffff828116911614155b15610dbf576000868152600260205260409020600a01805486919060ff60a81b1916600160a81b836001811115611ca857611ca8612ca4565b021790555060008681526002602052604090819020600601805463ffffffff191663ffffffff8416179055517fbb20033c58b125e31641bfd5e2f4bd906d684e27472fab0648527cc39cb2918c90611d0590889088908590613176565b60405180910390a1505050505050565b6000611d2b8a8a8a8a8a8a8a6000808c8c611eeb565b9a9950505050505050505050565b6000808415611df657611d4c838761235f565b8015611dd357506009546001600160a01b03878116600090815260208790526040908190205490516330cd251f60e21b8152600481019190915291169063c334947c90602401602060405180830381865afa158015611daf573d6000803e3d6000fd5b505050506040513d601f19601f82011682018060405250810190611dd391906131a0565b6001600160a01b0387166000908152602086905260409020549092509050611dfb565b600191505b94509492505050565b60606000611e1185612381565b90506000611e1f84866131d3565b9050818111611ee2576000611e3485836131ea565b905082811115611e415750815b611e4b82826131fd565b67ffffffffffffffff811115611e6357611e63612fb8565b604051908082528060200260200182016040528015611e8c578160200160208202803683370190505b509350815b81811015611edf57611ea3888261238b565b858281518110611eb557611eb5613210565b6001600160a01b039092166020928302919091019091015280611ed781613226565b915050611e91565b50505b50509392505050565b60006001600160a01b038c16611f3b5760405162461bcd60e51b8152602060048201526015602482015274496e76616c6964206f776e6572206164647265737360581b6044820152606401610b05565b600460008154611f4a90613226565b9182905550600081815260026020526040902080546001600160a01b0319166001600160a01b038f161790559050611f8b818c87878e8e8e8d8f8c8c6121b2565b8b6001600160a01b03167fa69fa77c6a90b171cf4e3d9a9dd6c4e56fbd1fbbdcf3925eaf600ccaa917feab82604051611fc691815260200190565b60405180910390a29b9a5050505050505050505050565b83611fea57600654611fee565b6001545b80600581905550600080898960405160200161201d9291909182526001600160a01b0316602082015260400190565b60405160208183030381529060405290506000600260008c815260200190815260200160002060000160009054906101000a90046001600160a01b03169050600960009054906101000a90046001600160a01b03166001600160a01b031663930ed0138b6005548c600087878e8e8e6040518a63ffffffff1660e01b81526004016120b09998979695949392919061323f565b6020604051808303816000875af11580156120cf573d6000803e3d6000fd5b505050506040513d601f19601f820116820180604052508101906120f3919061315d565b9250505061210389898389612397565b5050600060055550505050505050565b6000838152600260205260409020546001600160a01b0316336001600160a01b0316146121795760405162461bcd60e51b81526020600482015260146024820152732737ba103a34329036b0b935b2ba1037bbb732b960611b6044820152606401610b05565b6000610ef3848484612499565b6000612193878787612499565b5050505050505050565b6000610bdc836001600160a01b0384166125a9565b6121bd8b8383610dd7565b6121c78b88610c86565b6121d18b876114c2565b6121db8b866113bb565b6121e58b84611172565b6121ef8b8561158f565b6121f98b8a61123c565b6122048b898c611b15565b5050505050505050505050565b8061221e57600654612222565b6001545b60058190556000858152600260205260409020546001600160a01b0316336001600160a01b03161461228d5760405162461bcd60e51b81526020600482015260146024820152732737ba103a34329036b0b935b2ba1037bbb732b960611b6044820152606401610b05565b6009546005546040516000926001600160a01b0316916309a954cd91889190889086906122d2908d9086906020019182526001600160a01b0316602082015260400190565b6040516020818303038152906040526040518663ffffffff1660e01b81526004016123019594939291906132a0565b6020604051808303816000875af1158015612320573d6000803e3d6000fd5b505050506040513d601f19601f82011682018060405250810190612344919061315d565b905061235286868386612397565b5050600060055550505050565b6001600160a01b03811660009081526001830160205260408120541515610bdc565b6000610f37825490565b6000610bdc838361269c565b801561241f5760008481526002602081815260408084206001600160a01b038816855260058101835290842086905592879052526123d890600301846126c6565b50604080518581526001600160a01b03851660208201527f75675690de0899b0b869d83b44b2d926ac594426b2a0286c478ecdf815cbd33e910160405180910390a1610ece565b60008481526002602081815260408084206001600160a01b0388168552600981018352908420869055928790525261245a90600701846126c6565b50604080518581526001600160a01b03851660208201527f0c2cfc7e7a16ebee66e77fb314f4bfdb5505e33e77d41c0c60604efc70fd926b9101610ec5565b60008115612524575060008381526002602081815260408084206001600160a01b038716855260058101835290842054938790529190526124dd906003018461219d565b50604080518581526001600160a01b03851660208201527f6e7c30dc58d3daa1458c79b66ca464f5f3d8a23d9e50eb14daf1cb0923bf2900910160405180910390a1610bdc565b5060008381526002602081815260408084206001600160a01b03871685526009810183529084205493879052919052612560906007018461219d565b50604080518581526001600160a01b03851660208201527fe76a3e8b220b622b9fc2a655ab867687a93f195809eb3639f422e60936ff7eb4910160405180910390a19392505050565b600081815260018301602052604081205480156126925760006125cd6001836131fd565b85549091506000906125e1906001906131fd565b905081811461264657600086600001828154811061260157612601613210565b906000526020600020015490508087600001848154811061262457612624613210565b6000918252602080832090910192909255918252600188019052604090208390555b8554869080612657576126576132de565b600190038181906000526020600020016000905590558560010160008681526020019081526020016000206000905560019350505050610f37565b6000915050610f37565b60008260000182815481106126b3576126b3613210565b9060005260206000200154905092915050565b6000610bdc836001600160a01b03841660006126f5838360009081526001919091016020526040902054151590565b61272b57508154600181810184556000848152602080822090930184905584548482528286019093526040902091909155610f37565b506000610f37565b6001600160a01b038116811461274857600080fd5b50565b6000806040838503121561275e57600080fd5b82359150602083013561277081612733565b809150509250929050565b60006020828403121561278d57600080fd5b5035919050565b6000815180845260005b818110156127ba5760208185018101518683018201520161279e565b506000602082860101526020601f19601f83011685010191505092915050565b602081526000610bdc6020830184612794565b60008060006060848603121561280257600080fd5b505081359360208301359350604090920135919050565b6020808252825182820181905260009190848201906040850190845b8181101561285a5783516001600160a01b031683529284019291840191600101612835565b50909695505050505050565b803563ffffffff8116811461287a57600080fd5b919050565b6000806040838503121561289257600080fd5b823591506128a260208401612866565b90509250929050565b803561ffff8116811461287a57600080fd5b801515811461274857600080fd5b6002811061274857600080fd5b60008083601f8401126128ea57600080fd5b50813567ffffffffffffffff81111561290257600080fd5b602083019150836020828501011115610a9c57600080fd5b60008060008060008060008060008060006101408c8e03121561293c57600080fd5b8b3561294781612733565b9a5061295560208d01612866565b995061296360408d01612866565b985061297160608d01612866565b975061297f60808d016128ab565b965060a08c013561298f816128bd565b955060c08c013561299f816128bd565b945060e08c01356129af816128cb565b93506101008c01356129c0816128cb565b92506101208c013567ffffffffffffffff8111156129dd57600080fd5b6129e98e828f016128d8565b915080935050809150509295989b509295989b9093969950565b803560ff8116811461287a57600080fd5b60008060008060008060c08789031215612a2d57600080fd5b863595506020870135612a3f81612733565b945060408701359350612a5460608801612a03565b92506080870135915060a087013590509295509295509295565b600080600060408486031215612a8357600080fd5b83359250602084013567ffffffffffffffff811115612aa157600080fd5b612aad868287016128d8565b9497909650939450505050565b600080600080600060a08688031215612ad257600080fd5b853594506020860135612ae481612733565b9350612af260408701612a03565b94979396509394606081013594506080013592915050565b60008060008060008060008060008060006101408c8e031215612b2c57600080fd5b8b359a50612b3c60208d01612866565b995060408c0135612b4c816128cb565b985060608c0135612b5c816128cb565b9750612b6a60808d01612866565b9650612b7860a08d01612866565b9550612b8660c08d016128ab565b945060e08c0135612b96816128bd565b93506101008c01356129c0816128bd565b600080600080600080600060a0888a031215612bc257600080fd5b8735612bcd81612733565b9650602088013567ffffffffffffffff80821115612bea57600080fd5b612bf68b838c016128d8565b909850965060408a0135915080821115612c0f57600080fd5b50612c1c8a828b016128d8565b909550935050606088013591506080880135612c3781612733565b8091505092959891949750929550565b60008060408385031215612c5a57600080fd5b823591506020830135612770816128bd565b600080600060608486031215612c8157600080fd5b833592506020840135612c9381612733565b929592945050506040919091013590565b634e487b7160e01b600052602160045260246000fd5b6002811061274857634e487b7160e01b600052602160045260246000fd5b63ffffffff8316815260408101612cee83612cba565b8260208301529392505050565b60008060408385031215612d0e57600080fd5b823591506020830135612770816128cb565b60008060408385031215612d3357600080fd5b823591506128a2602084016128ab565b6001600160a01b038816815263ffffffff878116602083015286811660408301528516606082015260e060808201819052600090612d8390830186612794565b61ffff9490941660a08301525090151560c09091015295945050505050565b600060208284031215612db457600080fd5b8135610bdc81612733565b60208101612dcc83612cba565b91905290565b600080600060608486031215612de757600080fd5b833592506020840135612df9816128cb565b9150612e0760408501612866565b90509250925092565b60008060008060008060008060006101008a8c031215612e2f57600080fd5b8935612e3a81612733565b9850612e4860208b01612866565b9750612e5660408b01612866565b9650612e6460608b01612866565b9550612e7260808b016128ab565b945060a08a0135612e82816128bd565b935060c08a0135612e92816128bd565b925060e08a013567ffffffffffffffff811115612eae57600080fd5b612eba8c828d016128d8565b915080935050809150509295985092959850929598565b600181811c90821680612ee557607f821691505b602082108103612f0557634e487b7160e01b600052602260045260246000fd5b50919050565b6020808252600d908201526c2737ba103a34329037bbb732b960991b604082015260600190565b6000808354612f4081612ed1565b60018281168015612f585760018114612f6d57612f9c565b60ff1984168752821515830287019450612f9c565b8760005260208060002060005b85811015612f935781548a820152908401908201612f7a565b50505082870194505b50929695505050505050565b8183823760009101908152919050565b634e487b7160e01b600052604160045260246000fd5b601f821115610d5157600081815260208120601f850160051c81016020861015612ff55750805b601f850160051c820191505b81811015610dbf57828155600101613001565b67ffffffffffffffff83111561302c5761302c612fb8565b6130408361303a8354612ed1565b83612fce565b6000601f841160018114613074576000851561305c5750838201355b600019600387901b1c1916600186901b178355610ef3565b600083815260209020601f19861690835b828110156130a55786850135825560209485019460019092019101613085565b50868210156130c25760001960f88860031b161c19848701351681555b505060018560011b0183555050505050565b83815260406020820152816040820152818360608301376000818301606090810191909152601f909201601f1916010192915050565b8284823760609190911b6bffffffffffffffffffffffff19169101908152601401919050565b82815260408101612cee83612cba565b60006020828403121561315257600080fd5b8151610bdc81612733565b60006020828403121561316f57600080fd5b5051919050565b8381526060810161318684612cba565b83602083015263ffffffff83166040830152949350505050565b6000602082840312156131b257600080fd5b8151610bdc816128bd565b634e487b7160e01b600052601160045260246000fd5b8082028115828204841417610f3757610f376131bd565b80820180821115610f3757610f376131bd565b81810381811115610f3757610f376131bd565b634e487b7160e01b600052603260045260246000fd5b600060018201613238576132386131bd565b5060010190565b600061012060018060a01b03808d1684528b60208501528a60408501528960608501528160808501526132748285018a612794565b971660a0840152505060ff9390931660c084015260e08301919091526101009091015295945050505050565b60018060a01b038616815284602082015283604082015282606082015260a0608082015260006132d360a0830184612794565b979650505050505050565b634e487b7160e01b600052603160045260246000fdfea264697066735822122012e7d2a122d103116dab1fea0eed08120dae4b906072219a46c29847f2ef4abb64736f6c63430008110033",
    "linkReferences": {}
  },
  "methodIdentifiers": {
    "CURRENT_CODE_VERSION()": "4148f94c",
    "attestBorrower(uint256,address,uint256)": "e4050e29",
    "attestBorrower(uint256,address,uint256,uint8,bytes32,bytes32)": "583b16ae",
    "attestLender(uint256,address,uint256)": "97eb575b",
    "attestLender(uint256,address,uint256,uint8,bytes32,bytes32)": "3fa7f688",
    "borrowerAttestationSchemaId()": "679700d9",
    "borrowerExitMarket(uint256)": "c995cddc",
    "closeMarket(uint256)": "ae418095",
    "createMarket(address,uint32,uint32,uint32,uint16,bool,bool,string)": "f9fa9345",
    "createMarket(address,uint32,uint32,uint32,uint16,bool,bool,uint8,uint8,string)": "344e553d",
    "getAllVerifiedBorrowersForMarket(uint256,uint256,uint256)": "7694d2ec",
    "getAllVerifiedLendersForMarket(uint256,uint256,uint256)": "1db2b0d9",
    "getBidExpirationTime(uint256)": "082fc54d",
    "getMarketAttestationRequirements(uint256)": "8eff9ea4",
    "getMarketData(uint256)": "bfacba3d",
    "getMarketFeeRecipient(uint256)": "64413796",
    "getMarketOwner(uint256)": "3d369029",
    "getMarketURI(uint256)": "1a4808d2",
    "getMarketplaceFee(uint256)": "0a2e98e4",
    "getPaymentCycle(uint256)": "a5630f19",
    "getPaymentDefaultDuration(uint256)": "11bed5bb",
    "getPaymentType(uint256)": "d6e794dd",
    "initialize(address)": "c4d66de8",
    "isMarketClosed(uint256)": "1cc672df",
    "isPayable()": "ce46e046",
    "isVerifiedBorrower(uint256,address)": "066e7513",
    "isVerifiedLender(uint256,address)": "3ef19a9b",
    "lenderAttestationSchemaId()": "3c0db788",
    "lenderExitMarket(uint256)": "7f027a1a",
    "marketCount()": "ec979082",
    "onUpgrade()": "1824a46b",
    "resolve(address,bytes,bytes,uint256,address)": "947a75b4",
    "revokeBorrower(uint256,address)": "455154e5",
    "revokeBorrower(uint256,address,uint8,bytes32,bytes32)": "bc4c3495",
    "revokeLender(uint256,address)": "8b636632",
    "revokeLender(uint256,address,uint8,bytes32,bytes32)": "6054b175",
    "setBidExpirationTime(uint256,uint32)": "bd536e6e",
    "setBorrowerAttestationRequired(uint256,bool)": "be99279b",
    "setLenderAttestationRequired(uint256,bool)": "94e8e97e",
    "setMarketFeePercent(uint256,uint16)": "b6b6d77f",
    "setMarketFeeRecipient(uint256,address)": "1ebc7da8",
    "setMarketPaymentType(uint256,uint8)": "aa542fa5",
    "setMarketURI(uint256,string)": "532f5694",
    "setPaymentCycle(uint256,uint8,uint32)": "e690e84e",
    "setPaymentDefaultDuration(uint256,uint32)": "2f1be8f9",
    "tellerAS()": "ddfafef6",
    "transferMarketOwnership(uint256,address)": "7cfc1818",
    "updateMarketSettings(uint256,uint32,uint8,uint8,uint32,uint32,uint16,bool,bool,string)": "8b975cda",
    "version()": "54fd4d50"
  },
  "id": 6
}