{
  "address": "0xb6b6f8f2DF59Ee047AD1649D781BA5bAD6aA9B90",
  "abi": [
    {
      "inputs": [
        {
          "internalType": "address",
          "name": "_commitmentManager",
          "type": "address"
        }
      ],
      "stateMutability": "nonpayable",
      "type": "constructor"
    },
    {
      "anonymous": false,
      "inputs": [
        {
          "indexed": false,
          "internalType": "uint256",
          "name": "commitmentId",
          "type": "uint256"
        }
      ],
      "name": "UpdatedAllowList",
      "type": "event"
    },
    {
      "inputs": [
        {
          "internalType": "uint256",
          "name": "_commitmentId",
          "type": "uint256"
        },
        {
          "internalType": "address",
          "name": "_account",
          "type": "address"
        }
      ],
      "name": "addressIsAllowed",
      "outputs": [
        {
          "internalType": "bool",
          "name": "",
          "type": "bool"
        }
      ],
      "stateMutability": "nonpayable",
      "type": "function"
    },
    {
      "inputs": [],
      "name": "commitmentManager",
      "outputs": [
        {
          "internalType": "address",
          "name": "",
          "type": "address"
        }
      ],
      "stateMutability": "view",
      "type": "function"
    },
    {
      "inputs": [
        {
          "internalType": "uint256",
          "name": "_commitmentId",
          "type": "uint256"
        }
      ],
      "name": "getAllowedAddresses",
      "outputs": [
        {
          "internalType": "address[]",
          "name": "borrowers_",
          "type": "address[]"
        }
      ],
      "stateMutability": "view",
      "type": "function"
    },
    {
      "inputs": [
        {
          "internalType": "uint256",
          "name": "_commitmentId",
          "type": "uint256"
        },
        {
          "internalType": "address[]",
          "name": "_addressList",
          "type": "address[]"
        }
      ],
      "name": "setAllowlist",
      "outputs": [],
      "stateMutability": "nonpayable",
      "type": "function"
    }
  ],
  "transactionHash": "0x9a557dbf82bdb3f97bd69a99d8bc874498d362bff31a56af48e77040c756ec43",
  "args": [
    "0xEb73653c0a3B6BFb65b4DfE3cbc73A961919C8B6"
  ],
  "numDeployments": 1,
  "solcInputHash": "e0730cda169a6d13b8fda0f782338556",
  "bytecode": "0x60a060405234801561001057600080fd5b5060405161069538038061069583398101604081905261002f91610040565b6001600160a01b0316608052610070565b60006020828403121561005257600080fd5b81516001600160a01b038116811461006957600080fd5b9392505050565b6080516106046100916000396000818160b3015261010501526106046000f3fe608060405234801561001057600080fd5b506004361061004c5760003560e01c80638a38539f14610051578063b0b5316d14610066578063ded7f4ae1461008e578063e3fcf037146100ae575b600080fd5b61006461005f36600461042b565b6100ed565b005b6100796100743660046104bf565b61022b565b60405190151581526020015b60405180910390f35b6100a161009c3660046104ef565b61024c565b6040516100859190610508565b6100d57f000000000000000000000000000000000000000000000000000000000000000081565b6040516001600160a01b039091168152602001610085565b60405163144408ad60e11b81526004810184905283907f00000000000000000000000000000000000000000000000000000000000000006001600160a01b031690632888115a90602401602060405180830381600087803b15801561015157600080fd5b505af1158015610165573d6000803e3d6000fd5b505050506040513d601f19601f820116820180604052508101906101899190610555565b6001600160a01b0316336001600160a01b0316146101fb5760405162461bcd60e51b815260206004820152602560248201527f4d75737420626520746865206c656e646572206f662074686520636f6d6d697460448201526436b2b73a1760d91b606482015260840160405180910390fd5b600084815260208190526040812090818161021682826103f1565b50505050610225848484610266565b50505050565b600082815260208190526040812061024390836102fb565b90505b92915050565b60008181526020819052604090206060906102469061031d565b60005b818110156102c2576102af83838381811061028657610286610572565b905060200201602081019061029b9190610588565b600086815260208190526040902090610331565b50806102ba816105a5565b915050610269565b506040518381527f5096b93f393221659700def65554097cdcc366b69bfe7685c47edf3e49b4bbc69060200160405180910390a1505050565b6001600160a01b03811660009081526001830160205260408120541515610243565b6060600061032a83610346565b9392505050565b6000610243836001600160a01b0384166103a2565b60608160000180548060200260200160405190810160405280929190818152602001828054801561039657602002820191906000526020600020905b815481526020019060010190808311610382575b50505050509050919050565b60008181526001830160205260408120546103e957508154600181810184556000848152602080822090930184905584548482528286019093526040902091909155610246565b506000610246565b508054600082559060005260206000209081019061040f9190610412565b50565b5b808211156104275760008155600101610413565b5090565b60008060006040848603121561044057600080fd5b83359250602084013567ffffffffffffffff8082111561045f57600080fd5b818601915086601f83011261047357600080fd5b81358181111561048257600080fd5b8760208260051b850101111561049757600080fd5b6020830194508093505050509250925092565b6001600160a01b038116811461040f57600080fd5b600080604083850312156104d257600080fd5b8235915060208301356104e4816104aa565b809150509250929050565b60006020828403121561050157600080fd5b5035919050565b6020808252825182820181905260009190848201906040850190845b818110156105495783516001600160a01b031683529284019291840191600101610524565b50909695505050505050565b60006020828403121561056757600080fd5b815161032a816104aa565b634e487b7160e01b600052603260045260246000fd5b60006020828403121561059a57600080fd5b813561032a816104aa565b60006000198214156105c757634e487b7160e01b600052601160045260246000fd5b506001019056fea264697066735822122094333801a10f3550ed6062a7c60b03372cabe8da7735f86fa7dd3ed3b884e13364736f6c63430008090033",
  "devdoc": {
    "kind": "dev",
    "methods": {},
    "version": 1
  },
  "userdoc": {
    "kind": "user",
    "methods": {},
    "version": 1
  },
  "storageLayout": {
    "storage": [
      {
        "astId": 23141,
        "contract": "contracts/allowlist/EnumerableSetAllowlist.sol:EnumerableSetAllowlist",
        "label": "allowList",
        "offset": 0,
        "slot": "0",
        "type": "t_mapping(t_uint256,t_struct(AddressSet)4547_storage)"
      }
    ],
    "types": {
      "t_array(t_bytes32)dyn_storage": {
        "base": "t_bytes32",
        "encoding": "dynamic_array",
        "label": "bytes32[]",
        "numberOfBytes": "32"
      },
      "t_bytes32": {
        "encoding": "inplace",
        "label": "bytes32",
        "numberOfBytes": "32"
      },
      "t_mapping(t_bytes32,t_uint256)": {
        "encoding": "mapping",
        "key": "t_bytes32",
        "label": "mapping(bytes32 => uint256)",
        "numberOfBytes": "32",
        "value": "t_uint256"
      },
      "t_mapping(t_uint256,t_struct(AddressSet)4547_storage)": {
        "encoding": "mapping",
        "key": "t_uint256",
        "label": "mapping(uint256 => struct EnumerableSetUpgradeable.AddressSet)",
        "numberOfBytes": "32",
        "value": "t_struct(AddressSet)4547_storage"
      },
      "t_struct(AddressSet)4547_storage": {
        "encoding": "inplace",
        "label": "struct EnumerableSetUpgradeable.AddressSet",
        "members": [
          {
            "astId": 4546,
            "contract": "contracts/allowlist/EnumerableSetAllowlist.sol:EnumerableSetAllowlist",
            "label": "_inner",
            "offset": 0,
            "slot": "0",
            "type": "t_struct(Set)4232_storage"
          }
        ],
        "numberOfBytes": "64"
      },
      "t_struct(Set)4232_storage": {
        "encoding": "inplace",
        "label": "struct EnumerableSetUpgradeable.Set",
        "members": [
          {
            "astId": 4227,
            "contract": "contracts/allowlist/EnumerableSetAllowlist.sol:EnumerableSetAllowlist",
            "label": "_values",
            "offset": 0,
            "slot": "0",
            "type": "t_array(t_bytes32)dyn_storage"
          },
          {
            "astId": 4231,
            "contract": "contracts/allowlist/EnumerableSetAllowlist.sol:EnumerableSetAllowlist",
            "label": "_indexes",
            "offset": 0,
            "slot": "1",
            "type": "t_mapping(t_bytes32,t_uint256)"
          }
        ],
        "numberOfBytes": "64"
      },
      "t_uint256": {
        "encoding": "inplace",
        "label": "uint256",
        "numberOfBytes": "32"
      }
    }
  }
}