{
  "address": "0xbC706F216B0E65329DaF7c43359E98eE197a3a58",
  "abi": [
    {
      "inputs": [],
      "name": "NotPayable",
      "type": "error"
    },
    {
      "anonymous": false,
      "inputs": [
        {
          "indexed": false,
          "internalType": "uint256",
          "name": "marketId",
          "type": "uint256"
        },
        {
          "indexed": false,
          "internalType": "address",
          "name": "borrower",
          "type": "address"
        }
      ],
      "name": "BorrowerAttestation",
      "type": "event"
    },
    {
      "anonymous": false,
      "inputs": [
        {
          "indexed": false,
          "internalType": "uint256",
          "name": "marketId",
          "type": "uint256"
        },
        {
          "indexed": false,
          "internalType": "address",
          "name": "borrower",
          "type": "address"
        }
      ],
      "name": "BorrowerExitMarket",
      "type": "event"
    },
    {
      "anonymous": false,
      "inputs": [
        {
          "indexed": false,
          "internalType": "uint256",
          "name": "marketId",
          "type": "uint256"
        },
        {
          "indexed": false,
          "internalType": "address",
          "name": "borrower",
          "type": "address"
        }
      ],
      "name": "BorrowerRevocation",
      "type": "event"
    },
    {
      "anonymous": false,
      "inputs": [
        {
          "indexed": false,
          "internalType": "uint8",
          "name": "version",
          "type": "uint8"
        }
      ],
      "name": "Initialized",
      "type": "event"
    },
    {
      "anonymous": false,
      "inputs": [
        {
          "indexed": false,
          "internalType": "uint256",
          "name": "marketId",
          "type": "uint256"
        },
        {
          "indexed": false,
          "internalType": "address",
          "name": "lender",
          "type": "address"
        }
      ],
      "name": "LenderAttestation",
      "type": "event"
    },
    {
      "anonymous": false,
      "inputs": [
        {
          "indexed": false,
          "internalType": "uint256",
          "name": "marketId",
          "type": "uint256"
        },
        {
          "indexed": false,
          "internalType": "address",
          "name": "lender",
          "type": "address"
        }
      ],
      "name": "LenderExitMarket",
      "type": "event"
    },
    {
      "anonymous": false,
      "inputs": [
        {
          "indexed": false,
          "internalType": "uint256",
          "name": "marketId",
          "type": "uint256"
        },
        {
          "indexed": false,
          "internalType": "address",
          "name": "lender",
          "type": "address"
        }
      ],
      "name": "LenderRevocation",
      "type": "event"
    },
    {
      "anonymous": false,
      "inputs": [
        {
          "indexed": false,
          "internalType": "uint256",
          "name": "marketId",
          "type": "uint256"
        }
      ],
      "name": "MarketClosed",
      "type": "event"
    },
    {
      "anonymous": false,
      "inputs": [
        {
          "indexed": true,
          "internalType": "address",
          "name": "owner",
          "type": "address"
        },
        {
          "indexed": false,
          "internalType": "uint256",
          "name": "marketId",
          "type": "uint256"
        }
      ],
      "name": "MarketCreated",
      "type": "event"
    },
    {
      "anonymous": false,
      "inputs": [
        {
          "indexed": false,
          "internalType": "uint256",
          "name": "marketId",
          "type": "uint256"
        },
        {
          "indexed": false,
          "internalType": "uint32",
          "name": "duration",
          "type": "uint32"
        }
      ],
      "name": "SetBidExpirationTime",
      "type": "event"
    },
    {
      "anonymous": false,
      "inputs": [
        {
          "indexed": false,
          "internalType": "uint256",
          "name": "marketId",
          "type": "uint256"
        },
        {
          "indexed": false,
          "internalType": "bool",
          "name": "required",
          "type": "bool"
        }
      ],
      "name": "SetMarketBorrowerAttestation",
      "type": "event"
    },
    {
      "anonymous": false,
      "inputs": [
        {
          "indexed": false,
          "internalType": "uint256",
          "name": "marketId",
          "type": "uint256"
        },
        {
          "indexed": false,
          "internalType": "uint16",
          "name": "feePct",
          "type": "uint16"
        }
      ],
      "name": "SetMarketFee",
      "type": "event"
    },
    {
      "anonymous": false,
      "inputs": [
        {
          "indexed": false,
          "internalType": "uint256",
          "name": "marketId",
          "type": "uint256"
        },
        {
          "indexed": false,
          "internalType": "address",
          "name": "newRecipient",
          "type": "address"
        }
      ],
      "name": "SetMarketFeeRecipient",
      "type": "event"
    },
    {
      "anonymous": false,
      "inputs": [
        {
          "indexed": false,
          "internalType": "uint256",
          "name": "marketId",
          "type": "uint256"
        },
        {
          "indexed": false,
          "internalType": "bool",
          "name": "required",
          "type": "bool"
        }
      ],
      "name": "SetMarketLenderAttestation",
      "type": "event"
    },
    {
      "anonymous": false,
      "inputs": [
        {
          "indexed": false,
          "internalType": "uint256",
          "name": "marketId",
          "type": "uint256"
        },
        {
          "indexed": false,
          "internalType": "address",
          "name": "newOwner",
          "type": "address"
        }
      ],
      "name": "SetMarketOwner",
      "type": "event"
    },
    {
      "anonymous": false,
      "inputs": [
        {
          "indexed": false,
          "internalType": "uint256",
          "name": "marketId",
          "type": "uint256"
        },
        {
          "indexed": false,
          "internalType": "enum PaymentType",
          "name": "paymentType",
          "type": "uint8"
        }
      ],
      "name": "SetMarketPaymentType",
      "type": "event"
    },
    {
      "anonymous": false,
      "inputs": [
        {
          "indexed": false,
          "internalType": "uint256",
          "name": "marketId",
          "type": "uint256"
        },
        {
          "indexed": false,
          "internalType": "string",
          "name": "uri",
          "type": "string"
        }
      ],
      "name": "SetMarketURI",
      "type": "event"
    },
    {
      "anonymous": false,
      "inputs": [
        {
          "indexed": false,
          "internalType": "uint256",
          "name": "marketId",
          "type": "uint256"
        },
        {
          "indexed": false,
          "internalType": "enum PaymentCycleType",
          "name": "paymentCycleType",
          "type": "uint8"
        },
        {
          "indexed": false,
          "internalType": "uint32",
          "name": "value",
          "type": "uint32"
        }
      ],
      "name": "SetPaymentCycle",
      "type": "event"
    },
    {
      "anonymous": false,
      "inputs": [
        {
          "indexed": false,
          "internalType": "uint256",
          "name": "marketId",
          "type": "uint256"
        },
        {
          "indexed": false,
          "internalType": "uint32",
          "name": "duration",
          "type": "uint32"
        }
      ],
      "name": "SetPaymentCycleDuration",
      "type": "event"
    },
    {
      "anonymous": false,
      "inputs": [
        {
          "indexed": false,
          "internalType": "uint256",
          "name": "marketId",
          "type": "uint256"
        },
        {
          "indexed": false,
          "internalType": "uint32",
          "name": "duration",
          "type": "uint32"
        }
      ],
      "name": "SetPaymentDefaultDuration",
      "type": "event"
    },
    {
      "inputs": [],
      "name": "CURRENT_CODE_VERSION",
      "outputs": [
        {
          "internalType": "uint256",
          "name": "",
          "type": "uint256"
        }
      ],
      "stateMutability": "view",
      "type": "function"
    },
    {
      "inputs": [
        {
          "internalType": "uint256",
          "name": "_marketId",
          "type": "uint256"
        },
        {
          "internalType": "address",
          "name": "_borrowerAddress",
          "type": "address"
        },
        {
          "internalType": "uint256",
          "name": "_expirationTime",
          "type": "uint256"
        },
        {
          "internalType": "uint8",
          "name": "_v",
          "type": "uint8"
        },
        {
          "internalType": "bytes32",
          "name": "_r",
          "type": "bytes32"
        },
        {
          "internalType": "bytes32",
          "name": "_s",
          "type": "bytes32"
        }
      ],
      "name": "attestBorrower",
      "outputs": [],
      "stateMutability": "nonpayable",
      "type": "function"
    },
    {
      "inputs": [
        {
          "internalType": "uint256",
          "name": "_marketId",
          "type": "uint256"
        },
        {
          "internalType": "address",
          "name": "_borrowerAddress",
          "type": "address"
        },
        {
          "internalType": "uint256",
          "name": "_expirationTime",
          "type": "uint256"
        }
      ],
      "name": "attestBorrower",
      "outputs": [],
      "stateMutability": "nonpayable",
      "type": "function"
    },
    {
      "inputs": [
        {
          "internalType": "uint256",
          "name": "_marketId",
          "type": "uint256"
        },
        {
          "internalType": "address",
          "name": "_lenderAddress",
          "type": "address"
        },
        {
          "internalType": "uint256",
          "name": "_expirationTime",
          "type": "uint256"
        },
        {
          "internalType": "uint8",
          "name": "_v",
          "type": "uint8"
        },
        {
          "internalType": "bytes32",
          "name": "_r",
          "type": "bytes32"
        },
        {
          "internalType": "bytes32",
          "name": "_s",
          "type": "bytes32"
        }
      ],
      "name": "attestLender",
      "outputs": [],
      "stateMutability": "nonpayable",
      "type": "function"
    },
    {
      "inputs": [
        {
          "internalType": "uint256",
          "name": "_marketId",
          "type": "uint256"
        },
        {
          "internalType": "address",
          "name": "_lenderAddress",
          "type": "address"
        },
        {
          "internalType": "uint256",
          "name": "_expirationTime",
          "type": "uint256"
        }
      ],
      "name": "attestLender",
      "outputs": [],
      "stateMutability": "nonpayable",
      "type": "function"
    },
    {
      "inputs": [],
      "name": "borrowerAttestationSchemaId",
      "outputs": [
        {
          "internalType": "bytes32",
          "name": "",
          "type": "bytes32"
        }
      ],
      "stateMutability": "view",
      "type": "function"
    },
    {
      "inputs": [
        {
          "internalType": "uint256",
          "name": "_marketId",
          "type": "uint256"
        }
      ],
      "name": "borrowerExitMarket",
      "outputs": [],
      "stateMutability": "nonpayable",
      "type": "function"
    },
    {
      "inputs": [
        {
          "internalType": "uint256",
          "name": "_marketId",
          "type": "uint256"
        }
      ],
      "name": "closeMarket",
      "outputs": [],
      "stateMutability": "nonpayable",
      "type": "function"
    },
    {
      "inputs": [
        {
          "internalType": "address",
          "name": "_initialOwner",
          "type": "address"
        },
        {
          "internalType": "uint32",
          "name": "_paymentCycleDuration",
          "type": "uint32"
        },
        {
          "internalType": "uint32",
          "name": "_paymentDefaultDuration",
          "type": "uint32"
        },
        {
          "internalType": "uint32",
          "name": "_bidExpirationTime",
          "type": "uint32"
        },
        {
          "internalType": "uint16",
          "name": "_feePercent",
          "type": "uint16"
        },
        {
          "internalType": "bool",
          "name": "_requireLenderAttestation",
          "type": "bool"
        },
        {
          "internalType": "bool",
          "name": "_requireBorrowerAttestation",
          "type": "bool"
        },
        {
          "internalType": "enum PaymentType",
          "name": "_paymentType",
          "type": "uint8"
        },
        {
          "internalType": "enum PaymentCycleType",
          "name": "_paymentCycleType",
          "type": "uint8"
        },
        {
          "internalType": "string",
          "name": "_uri",
          "type": "string"
        }
      ],
      "name": "createMarket",
      "outputs": [
        {
          "internalType": "uint256",
          "name": "marketId_",
          "type": "uint256"
        }
      ],
      "stateMutability": "nonpayable",
      "type": "function"
    },
    {
      "inputs": [
        {
          "internalType": "address",
          "name": "_initialOwner",
          "type": "address"
        },
        {
          "internalType": "uint32",
          "name": "_paymentCycleDuration",
          "type": "uint32"
        },
        {
          "internalType": "uint32",
          "name": "_paymentDefaultDuration",
          "type": "uint32"
        },
        {
          "internalType": "uint32",
          "name": "_bidExpirationTime",
          "type": "uint32"
        },
        {
          "internalType": "uint16",
          "name": "_feePercent",
          "type": "uint16"
        },
        {
          "internalType": "bool",
          "name": "_requireLenderAttestation",
          "type": "bool"
        },
        {
          "internalType": "bool",
          "name": "_requireBorrowerAttestation",
          "type": "bool"
        },
        {
          "internalType": "string",
          "name": "_uri",
          "type": "string"
        }
      ],
      "name": "createMarket",
      "outputs": [
        {
          "internalType": "uint256",
          "name": "marketId_",
          "type": "uint256"
        }
      ],
      "stateMutability": "nonpayable",
      "type": "function"
    },
    {
      "inputs": [
        {
          "internalType": "uint256",
          "name": "_marketId",
          "type": "uint256"
        },
        {
          "internalType": "uint256",
          "name": "_page",
          "type": "uint256"
        },
        {
          "internalType": "uint256",
          "name": "_perPage",
          "type": "uint256"
        }
      ],
      "name": "getAllVerifiedBorrowersForMarket",
      "outputs": [
        {
          "internalType": "address[]",
          "name": "",
          "type": "address[]"
        }
      ],
      "stateMutability": "view",
      "type": "function"
    },
    {
      "inputs": [
        {
          "internalType": "uint256",
          "name": "_marketId",
          "type": "uint256"
        },
        {
          "internalType": "uint256",
          "name": "_page",
          "type": "uint256"
        },
        {
          "internalType": "uint256",
          "name": "_perPage",
          "type": "uint256"
        }
      ],
      "name": "getAllVerifiedLendersForMarket",
      "outputs": [
        {
          "internalType": "address[]",
          "name": "",
          "type": "address[]"
        }
      ],
      "stateMutability": "view",
      "type": "function"
    },
    {
      "inputs": [
        {
          "internalType": "uint256",
          "name": "marketId",
          "type": "uint256"
        }
      ],
      "name": "getBidExpirationTime",
      "outputs": [
        {
          "internalType": "uint32",
          "name": "",
          "type": "uint32"
        }
      ],
      "stateMutability": "view",
      "type": "function"
    },
    {
      "inputs": [
        {
          "internalType": "uint256",
          "name": "_marketId",
          "type": "uint256"
        }
      ],
      "name": "getMarketAttestationRequirements",
      "outputs": [
        {
          "internalType": "bool",
          "name": "lenderAttestationRequired",
          "type": "bool"
        },
        {
          "internalType": "bool",
          "name": "borrowerAttestationRequired",
          "type": "bool"
        }
      ],
      "stateMutability": "view",
      "type": "function"
    },
    {
      "inputs": [
        {
          "internalType": "uint256",
          "name": "_marketId",
          "type": "uint256"
        }
      ],
      "name": "getMarketData",
      "outputs": [
        {
          "internalType": "address",
          "name": "owner",
          "type": "address"
        },
        {
          "internalType": "uint32",
          "name": "paymentCycleDuration",
          "type": "uint32"
        },
        {
          "internalType": "uint32",
          "name": "paymentDefaultDuration",
          "type": "uint32"
        },
        {
          "internalType": "uint32",
          "name": "loanExpirationTime",
          "type": "uint32"
        },
        {
          "internalType": "string",
          "name": "metadataURI",
          "type": "string"
        },
        {
          "internalType": "uint16",
          "name": "marketplaceFeePercent",
          "type": "uint16"
        },
        {
          "internalType": "bool",
          "name": "lenderAttestationRequired",
          "type": "bool"
        }
      ],
      "stateMutability": "view",
      "type": "function"
    },
    {
      "inputs": [
        {
          "internalType": "uint256",
          "name": "_marketId",
          "type": "uint256"
        }
      ],
      "name": "getMarketFeeRecipient",
      "outputs": [
        {
          "internalType": "address",
          "name": "",
          "type": "address"
        }
      ],
      "stateMutability": "view",
      "type": "function"
    },
    {
      "inputs": [
        {
          "internalType": "uint256",
          "name": "_marketId",
          "type": "uint256"
        }
      ],
      "name": "getMarketOwner",
      "outputs": [
        {
          "internalType": "address",
          "name": "",
          "type": "address"
        }
      ],
      "stateMutability": "view",
      "type": "function"
    },
    {
      "inputs": [
        {
          "internalType": "uint256",
          "name": "_marketId",
          "type": "uint256"
        }
      ],
      "name": "getMarketURI",
      "outputs": [
        {
          "internalType": "string",
          "name": "",
          "type": "string"
        }
      ],
      "stateMutability": "view",
      "type": "function"
    },
    {
      "inputs": [
        {
          "internalType": "uint256",
          "name": "_marketId",
          "type": "uint256"
        }
      ],
      "name": "getMarketplaceFee",
      "outputs": [
        {
          "internalType": "uint16",
          "name": "fee",
          "type": "uint16"
        }
      ],
      "stateMutability": "view",
      "type": "function"
    },
    {
      "inputs": [
        {
          "internalType": "uint256",
          "name": "_marketId",
          "type": "uint256"
        }
      ],
      "name": "getPaymentCycle",
      "outputs": [
        {
          "internalType": "uint32",
          "name": "",
          "type": "uint32"
        },
        {
          "internalType": "enum PaymentCycleType",
          "name": "",
          "type": "uint8"
        }
      ],
      "stateMutability": "view",
      "type": "function"
    },
    {
      "inputs": [
        {
          "internalType": "uint256",
          "name": "_marketId",
          "type": "uint256"
        }
      ],
      "name": "getPaymentDefaultDuration",
      "outputs": [
        {
          "internalType": "uint32",
          "name": "",
          "type": "uint32"
        }
      ],
      "stateMutability": "view",
      "type": "function"
    },
    {
      "inputs": [
        {
          "internalType": "uint256",
          "name": "_marketId",
          "type": "uint256"
        }
      ],
      "name": "getPaymentType",
      "outputs": [
        {
          "internalType": "enum PaymentType",
          "name": "",
          "type": "uint8"
        }
      ],
      "stateMutability": "view",
      "type": "function"
    },
    {
      "inputs": [
        {
          "internalType": "contract TellerAS",
          "name": "_tellerAS",
          "type": "address"
        }
      ],
      "name": "initialize",
      "outputs": [],
      "stateMutability": "nonpayable",
      "type": "function"
    },
    {
      "inputs": [
        {
          "internalType": "uint256",
          "name": "_marketId",
          "type": "uint256"
        }
      ],
      "name": "isMarketClosed",
      "outputs": [
        {
          "internalType": "bool",
          "name": "",
          "type": "bool"
        }
      ],
      "stateMutability": "view",
      "type": "function"
    },
    {
      "inputs": [],
      "name": "isPayable",
      "outputs": [
        {
          "internalType": "bool",
          "name": "",
          "type": "bool"
        }
      ],
      "stateMutability": "pure",
      "type": "function"
    },
    {
      "inputs": [
        {
          "internalType": "uint256",
          "name": "_marketId",
          "type": "uint256"
        },
        {
          "internalType": "address",
          "name": "_borrowerAddress",
          "type": "address"
        }
      ],
      "name": "isVerifiedBorrower",
      "outputs": [
        {
          "internalType": "bool",
          "name": "isVerified_",
          "type": "bool"
        },
        {
          "internalType": "bytes32",
          "name": "uuid_",
          "type": "bytes32"
        }
      ],
      "stateMutability": "view",
      "type": "function"
    },
    {
      "inputs": [
        {
          "internalType": "uint256",
          "name": "_marketId",
          "type": "uint256"
        },
        {
          "internalType": "address",
          "name": "_lenderAddress",
          "type": "address"
        }
      ],
      "name": "isVerifiedLender",
      "outputs": [
        {
          "internalType": "bool",
          "name": "isVerified_",
          "type": "bool"
        },
        {
          "internalType": "bytes32",
          "name": "uuid_",
          "type": "bytes32"
        }
      ],
      "stateMutability": "view",
      "type": "function"
    },
    {
      "inputs": [],
      "name": "lenderAttestationSchemaId",
      "outputs": [
        {
          "internalType": "bytes32",
          "name": "",
          "type": "bytes32"
        }
      ],
      "stateMutability": "view",
      "type": "function"
    },
    {
      "inputs": [
        {
          "internalType": "uint256",
          "name": "_marketId",
          "type": "uint256"
        }
      ],
      "name": "lenderExitMarket",
      "outputs": [],
      "stateMutability": "nonpayable",
      "type": "function"
    },
    {
      "inputs": [],
      "name": "marketCount",
      "outputs": [
        {
          "internalType": "uint256",
          "name": "",
          "type": "uint256"
        }
      ],
      "stateMutability": "view",
      "type": "function"
    },
    {
      "inputs": [
        {
          "internalType": "address",
          "name": "recipient",
          "type": "address"
        },
        {
          "internalType": "bytes",
          "name": "schema",
          "type": "bytes"
        },
        {
          "internalType": "bytes",
          "name": "data",
          "type": "bytes"
        },
        {
          "internalType": "uint256",
          "name": "",
          "type": "uint256"
        },
        {
          "internalType": "address",
          "name": "attestor",
          "type": "address"
        }
      ],
      "name": "resolve",
      "outputs": [
        {
          "internalType": "bool",
          "name": "",
          "type": "bool"
        }
      ],
      "stateMutability": "payable",
      "type": "function"
    },
    {
      "inputs": [
        {
          "internalType": "uint256",
          "name": "_marketId",
          "type": "uint256"
        },
        {
          "internalType": "address",
          "name": "_borrowerAddress",
          "type": "address"
        }
      ],
      "name": "revokeBorrower",
      "outputs": [],
      "stateMutability": "nonpayable",
      "type": "function"
    },
    {
      "inputs": [
        {
          "internalType": "uint256",
          "name": "_marketId",
          "type": "uint256"
        },
        {
          "internalType": "address",
          "name": "_borrowerAddress",
          "type": "address"
        },
        {
          "internalType": "uint8",
          "name": "_v",
          "type": "uint8"
        },
        {
          "internalType": "bytes32",
          "name": "_r",
          "type": "bytes32"
        },
        {
          "internalType": "bytes32",
          "name": "_s",
          "type": "bytes32"
        }
      ],
      "name": "revokeBorrower",
      "outputs": [],
      "stateMutability": "nonpayable",
      "type": "function"
    },
    {
      "inputs": [
        {
          "internalType": "uint256",
          "name": "_marketId",
          "type": "uint256"
        },
        {
          "internalType": "address",
          "name": "_lenderAddress",
          "type": "address"
        },
        {
          "internalType": "uint8",
          "name": "_v",
          "type": "uint8"
        },
        {
          "internalType": "bytes32",
          "name": "_r",
          "type": "bytes32"
        },
        {
          "internalType": "bytes32",
          "name": "_s",
          "type": "bytes32"
        }
      ],
      "name": "revokeLender",
      "outputs": [],
      "stateMutability": "nonpayable",
      "type": "function"
    },
    {
      "inputs": [
        {
          "internalType": "uint256",
          "name": "_marketId",
          "type": "uint256"
        },
        {
          "internalType": "address",
          "name": "_lenderAddress",
          "type": "address"
        }
      ],
      "name": "revokeLender",
      "outputs": [],
      "stateMutability": "nonpayable",
      "type": "function"
    },
    {
      "inputs": [
        {
          "internalType": "uint256",
          "name": "_marketId",
          "type": "uint256"
        },
        {
          "internalType": "uint32",
          "name": "_duration",
          "type": "uint32"
        }
      ],
      "name": "setBidExpirationTime",
      "outputs": [],
      "stateMutability": "nonpayable",
      "type": "function"
    },
    {
      "inputs": [
        {
          "internalType": "uint256",
          "name": "_marketId",
          "type": "uint256"
        },
        {
          "internalType": "bool",
          "name": "_required",
          "type": "bool"
        }
      ],
      "name": "setBorrowerAttestationRequired",
      "outputs": [],
      "stateMutability": "nonpayable",
      "type": "function"
    },
    {
      "inputs": [
        {
          "internalType": "uint256",
          "name": "_marketId",
          "type": "uint256"
        },
        {
          "internalType": "bool",
          "name": "_required",
          "type": "bool"
        }
      ],
      "name": "setLenderAttestationRequired",
      "outputs": [],
      "stateMutability": "nonpayable",
      "type": "function"
    },
    {
      "inputs": [
        {
          "internalType": "uint256",
          "name": "_marketId",
          "type": "uint256"
        },
        {
          "internalType": "uint16",
          "name": "_newPercent",
          "type": "uint16"
        }
      ],
      "name": "setMarketFeePercent",
      "outputs": [],
      "stateMutability": "nonpayable",
      "type": "function"
    },
    {
      "inputs": [
        {
          "internalType": "uint256",
          "name": "_marketId",
          "type": "uint256"
        },
        {
          "internalType": "address",
          "name": "_recipient",
          "type": "address"
        }
      ],
      "name": "setMarketFeeRecipient",
      "outputs": [],
      "stateMutability": "nonpayable",
      "type": "function"
    },
    {
      "inputs": [
        {
          "internalType": "uint256",
          "name": "_marketId",
          "type": "uint256"
        },
        {
          "internalType": "enum PaymentType",
          "name": "_newPaymentType",
          "type": "uint8"
        }
      ],
      "name": "setMarketPaymentType",
      "outputs": [],
      "stateMutability": "nonpayable",
      "type": "function"
    },
    {
      "inputs": [
        {
          "internalType": "uint256",
          "name": "_marketId",
          "type": "uint256"
        },
        {
          "internalType": "string",
          "name": "_uri",
          "type": "string"
        }
      ],
      "name": "setMarketURI",
      "outputs": [],
      "stateMutability": "nonpayable",
      "type": "function"
    },
    {
      "inputs": [
        {
          "internalType": "uint256",
          "name": "_marketId",
          "type": "uint256"
        },
        {
          "internalType": "enum PaymentCycleType",
          "name": "_paymentCycleType",
          "type": "uint8"
        },
        {
          "internalType": "uint32",
          "name": "_duration",
          "type": "uint32"
        }
      ],
      "name": "setPaymentCycle",
      "outputs": [],
      "stateMutability": "nonpayable",
      "type": "function"
    },
    {
      "inputs": [
        {
          "internalType": "uint256",
          "name": "_marketId",
          "type": "uint256"
        },
        {
          "internalType": "uint32",
          "name": "_duration",
          "type": "uint32"
        }
      ],
      "name": "setPaymentDefaultDuration",
      "outputs": [],
      "stateMutability": "nonpayable",
      "type": "function"
    },
    {
      "inputs": [],
      "name": "tellerAS",
      "outputs": [
        {
          "internalType": "contract TellerAS",
          "name": "",
          "type": "address"
        }
      ],
      "stateMutability": "view",
      "type": "function"
    },
    {
      "inputs": [
        {
          "internalType": "uint256",
          "name": "_marketId",
          "type": "uint256"
        },
        {
          "internalType": "address",
          "name": "_newOwner",
          "type": "address"
        }
      ],
      "name": "transferMarketOwnership",
      "outputs": [],
      "stateMutability": "nonpayable",
      "type": "function"
    },
    {
      "inputs": [
        {
          "internalType": "uint256",
          "name": "_marketId",
          "type": "uint256"
        },
        {
          "internalType": "uint32",
          "name": "_paymentCycleDuration",
          "type": "uint32"
        },
        {
          "internalType": "enum PaymentType",
          "name": "_newPaymentType",
          "type": "uint8"
        },
        {
          "internalType": "enum PaymentCycleType",
          "name": "_paymentCycleType",
          "type": "uint8"
        },
        {
          "internalType": "uint32",
          "name": "_paymentDefaultDuration",
          "type": "uint32"
        },
        {
          "internalType": "uint32",
          "name": "_bidExpirationTime",
          "type": "uint32"
        },
        {
          "internalType": "uint16",
          "name": "_feePercent",
          "type": "uint16"
        },
        {
          "internalType": "bool",
          "name": "_borrowerAttestationRequired",
          "type": "bool"
        },
        {
          "internalType": "bool",
          "name": "_lenderAttestationRequired",
          "type": "bool"
        },
        {
          "internalType": "string",
          "name": "_metadataURI",
          "type": "string"
        }
      ],
      "name": "updateMarketSettings",
      "outputs": [],
      "stateMutability": "nonpayable",
      "type": "function"
    },
    {
      "inputs": [],
      "name": "version",
      "outputs": [
        {
          "internalType": "uint256",
          "name": "",
          "type": "uint256"
        }
      ],
      "stateMutability": "view",
      "type": "function"
    },
    {
      "stateMutability": "payable",
      "type": "receive"
    }
  ],
  "transactionHash": "0xb3da038a038a3a109dd0d227661e00127f20afca71a2450e721af05d884c5d35",
  "args": [],
  "numDeployments": 2,
  "solcInputHash": "976bca259bf89d14d50591c72cf76420",
  "bytecode": "0x608060405234801561001057600080fd5b506132cf806100206000396000f3fe6080604052600436106102975760003560e01c80637f027a1a1161015a578063bd536e6e116100c1578063d6e794dd1161007a578063d6e794dd14610956578063ddfafef61461099d578063e4050e29146109bd578063e690e84e146109dd578063ec979082146109fd578063f9fa934514610a1357600080fd5b8063bd536e6e1461088f578063be99279b146108af578063bfacba3d146108cf578063c4d66de814610902578063c995cddc14610922578063ce46e0461461094257600080fd5b806397eb575b1161011357806397eb575b14610796578063a5630f19146107b6578063aa542fa51461080f578063ae4180951461082f578063b6b6d77f1461084f578063bc4c34951461086f57600080fd5b80637f027a1a1461069d5780638b636632146106bd5780638b975cda146106dd5780638eff9ea4146106fd578063947a75b41461076357806394e8e97e1461077657600080fd5b80633ef19a9b116101fe578063583b16ae116101b7578063583b16ae146105e75780636054b175146106075780636441379614610627578063679700d9146106475780637694d2ec1461065d5780637cfc18181461067d57600080fd5b80633ef19a9b1461053c5780633fa7f6881461055c5780634148f94c1461057c578063455154e514610591578063532f5694146105b157806354fd4d50146105d157600080fd5b80631db2b0d9116102505780631db2b0d91461043d5780631ebc7da81461046a5780632f1be8f91461048a578063344e553d146104aa5780633c0db788146104d85780633d369029146104ee57600080fd5b8063066e7513146102bc578063082fc54d146102f85780630a2e98e41461034a57806311bed5bb146103925780631a4808d2146103d05780631cc672df146103fd57600080fd5b366102b757604051631574f9f360e01b815260040160405180910390fd5b005b600080fd5b3480156102c857600080fd5b506102dc6102d73660046127b5565b610a33565b6040805192151583526020830191909152015b60405180910390f35b34801561030457600080fd5b506103356103133660046127e5565b600090815260026020526040902060060154600160401b900463ffffffff1690565b60405163ffffffff90911681526020016102ef565b34801561035657600080fd5b5061037f6103653660046127e5565b6000908152600260208190526040909120015461ffff1690565b60405161ffff90911681526020016102ef565b34801561039e57600080fd5b506103356103ad3660046127e5565b600090815260026020526040902060060154640100000000900463ffffffff1690565b3480156103dc57600080fd5b506103f06103eb3660046127e5565b610a73565b6040516102ef919061284b565b34801561040957600080fd5b5061042d6104183660046127e5565b60009081526008602052604090205460ff1690565b60405190151581526020016102ef565b34801561044957600080fd5b5061045d61045836600461285e565b610b18565b6040516102ef919061288a565b34801561047657600080fd5b506102b56104853660046127b5565b610b42565b34801561049657600080fd5b506102b56104a53660046128f0565b610bee565b3480156104b657600080fd5b506104ca6104c536600461298b565b610cbe565b6040519081526020016102ef565b3480156104e457600080fd5b506104ca60015481565b3480156104fa57600080fd5b506105246105093660046127e5565b6000908152600260205260409020546001600160a01b031690565b6040516001600160a01b0390911681526020016102ef565b34801561054857600080fd5b506102dc6105573660046127b5565b610ce3565b34801561056857600080fd5b506102b5610577366004612a85565b610d17565b34801561058857600080fd5b506104ca600881565b34801561059d57600080fd5b506102b56105ac3660046127b5565b610d2f565b3480156105bd57600080fd5b506102b56105cc366004612adf565b610d3f565b3480156105dd57600080fd5b506104ca60075481565b3480156105f357600080fd5b506102b5610602366004612a85565b610e3c565b34801561061357600080fd5b506102b5610622366004612b2b565b610e4c565b34801561063357600080fd5b506105246106423660046127e5565b610e62565b34801561065357600080fd5b506104ca60065481565b34801561066957600080fd5b5061045d61067836600461285e565b610ea5565b34801561068957600080fd5b506102b56106983660046127b5565b610ec4565b3480156106a957600080fd5b506102b56106b83660046127e5565b610f5b565b3480156106c957600080fd5b506102b56106d83660046127b5565b610fc7565b3480156106e957600080fd5b506102b56106f8366004612b7b565b610fd3565b34801561070957600080fd5b5061074c6107183660046127e5565b6000908152600260208190526040909120908101546006909101546201000090910460ff90811692600160601b9092041690565b6040805192151583529015156020830152016102ef565b61042d610771366004612c18565b61102c565b34801561078257600080fd5b506102b5610791366004612cb8565b6110da565b3480156107a257600080fd5b506102b56107b1366004612cdd565b611197565b3480156107c257600080fd5b506108016107d13660046127e5565b60009081526002602052604090206006810154600a9091015463ffffffff90911691600160a81b90910460ff1690565b6040516102ef929190612d49565b34801561081b57600080fd5b506102b561082a366004612d6c565b6111a4565b34801561083b57600080fd5b506102b561084a3660046127e5565b61128a565b34801561085b57600080fd5b506102b561086a366004612d91565b611323565b34801561087b57600080fd5b506102b561088a366004612b2b565b61141b565b34801561089b57600080fd5b506102b56108aa3660046128f0565b61142a565b3480156108bb57600080fd5b506102b56108ca366004612cb8565b6114f7565b3480156108db57600080fd5b506108ef6108ea3660046127e5565b6115b6565b6040516102ef9796959493929190612db4565b34801561090e57600080fd5b506102b561091d366004612e13565b6116c8565b34801561092e57600080fd5b506102b561093d3660046127e5565b611a61565b34801561094e57600080fd5b50600061042d565b34801561096257600080fd5b506109906109713660046127e5565b6000908152600260205260409020600a0154600160a01b900460ff1690565b6040516102ef9190612e30565b3480156109a957600080fd5b50600954610524906001600160a01b031681565b3480156109c957600080fd5b506102b56109d8366004612cdd565b611aac565b3480156109e957600080fd5b506102b56109f8366004612e43565b611ab9565b348015610a0957600080fd5b506104ca60045481565b348015610a1f57600080fd5b506104ca610a2e366004612e81565b611cb9565b600082815260026020526040812060068101548291610a67918591600160601b90910460ff16906009810190600701611cdd565b915091505b9250929050565b6000818152600260205260409020600101805460609190610a9390612f42565b80601f0160208091040260200160405190810160405280929190818152602001828054610abf90612f42565b8015610b0c5780601f10610ae157610100808354040283529160200191610b0c565b820191906000526020600020905b815481529060010190602001808311610aef57829003601f168201915b50505050509050919050565b6000838152600260205260409020606090600301610b37818585611db7565b9150505b9392505050565b60008281526002602052604090205482906001600160a01b03163314610b835760405162461bcd60e51b8152600401610b7a90612f7d565b60405180910390fd5b600083815260026020908152604091829020600a0180546001600160a01b0319166001600160a01b0386169081179091558251868152918201527ffc7e26c4fffcd77fc52c81b32a6a6b7838b5592ced8c14c1a46e2b4a322c568a91015b60405180910390a1505050565b60008281526002602052604090205482906001600160a01b03163314610c265760405162461bcd60e51b8152600401610b7a90612f7d565b60008381526002602052604090206006015463ffffffff8381166401000000009092041614610cb957600083815260026020908152604091829020600601805467ffffffff00000000191664010000000063ffffffff8716908102919091179091558251868152918201527f3e49e2efeacab7e8344acd4e7940449bf62039aa3734c34fa6d3525654be81019101610be1565b505050565b6000610cd38c8c8c8c8c8c8c8c8c8c8c611e9e565b9c9b505050505050505050505050565b60008281526002602081905260408220908101548291610a679185916201000090910460ff16906005810190600301611cdd565b610d278686866001878787611f90565b505050505050565b610d3b828260006120d5565b5050565b60008381526002602052604090205483906001600160a01b03163314610d775760405162461bcd60e51b8152600401610b7a90612f7d565b6000848152600260209081526040918290209151610d99926001019101612fa4565b604051602081830303815290604052805190602001208383604051602001610dc2929190613040565b6040516020818303038152906040528051906020012014610e36576000848152600260205260409020610df9906001018484612704565b507f6218b53065a32d32b3f52d9ad728c1b826a2aae15fc1ee92f83836debbcc1029848484604051610e2d93929190613050565b60405180910390a15b50505050565b610d278686866000878787611f90565b610e5b85856001868686612148565b5050505050565b6000818152600260205260408120600a01546001600160a01b031680610e9f5750506000908152600260205260409020546001600160a01b031690565b92915050565b6000838152600260205260409020606090600701610b37818585611db7565b60008281526002602052604090205482906001600160a01b03163314610efc5760405162461bcd60e51b8152600401610b7a90612f7d565b60008381526002602090815260409182902080546001600160a01b0319166001600160a01b0386169081179091558251868152918201527ff68f2d4b68e0d54a81a3b8e53403ddec34a1e288cf6a6f6b3621c0a47b6e36f99101610be1565b6000818152600260205260408120610f76906003013361215f565b90508015610d3b577f55e867ccc9ac324e2c193ce4ed25397fb890213c704685f2c9fbe5bd7507298682335b604080519283526001600160a01b039091166020830152015b60405180910390a15050565b610d3b828260016120d5565b60008b8152600260205260409020548b906001600160a01b0316331461100b5760405162461bcd60e51b8152600401610b7a90612f7d565b61101e8c8c8c8c8c8c8c8c8c8c8c612174565b505050505050505050505050565b60008087873060405160200161104493929190613086565b60408051601f198184030181529190528051602090910120905060008061106d878901896127b5565b91509150826005541480156110935750806001600160a01b03168b6001600160a01b0316145b80156110b857506000828152600260205260409020546001600160a01b038681169116145b806110cb57506001600160a01b03851630145b9b9a5050505050505050505050565b60008281526002602052604090205482906001600160a01b031633146111125760405162461bcd60e51b8152600401610b7a90612f7d565b6000838152600260208190526040909120015462010000900460ff16151582151514610cb957600083815260026020818152604092839020909101805462ff0000191662010000861515908102919091179091558251868152918201527f4666a8529dea37114f2ecc11706d613f7a59a7967f8467da6877820b83d405a19101610be1565b610cb983838360016121d3565b60008281526002602052604090205482906001600160a01b031633146111dc5760405162461bcd60e51b8152600401610b7a90612f7d565b6000838152600260205260409020600a0154600160a01b900460ff16600181111561120957611209612d15565b82600181111561121b5761121b612d15565b14610cb9576000838152600260205260409020600a01805483919060ff60a01b1916600160a01b83600181111561125457611254612d15565b02179055507ff81d9cc918f72edfc74e6b61d4e19ef9a739e94a0e9715b108e6af62275142ef8383604051610be19291906130ac565b60008181526002602052604090205481906001600160a01b031633146112c25760405162461bcd60e51b8152600401610b7a90612f7d565b60008281526008602052604090205460ff16610d3b5760008281526008602052604090819020805460ff19166001179055517f9dc30b8eda31a6a144e092e5de600955523a6a925cc15cc1d1b9b4872cfa615590610fbb9084815260200190565b60008281526002602052604090205482906001600160a01b0316331461135b5760405162461bcd60e51b8152600401610b7a90612f7d565b6127108261ffff1611156113a35760405162461bcd60e51b815260206004820152600f60248201526e1a5b9d985b1a59081c195c98d95b9d608a1b6044820152606401610b7a565b6000838152600260208190526040909120015461ffff838116911614610cb957600083815260026020818152604092839020909101805461ffff191661ffff86169081179091558251868152918201527f9c6f3e426c05d512408d4ecf517e5155756288155088ad45a81c0e111e3d18549101610be1565b610e5b85856000868686612148565b60008281526002602052604090205482906001600160a01b031633146114625760405162461bcd60e51b8152600401610b7a90612f7d565b60008381526002602052604090206006015463ffffffff838116600160401b9092041614610cb95760008381526002602090815260409182902060060180546bffffffff00000000000000001916600160401b63ffffffff8716908102919091179091558251868152918201527ff0275a50e761f3b1635fa59ce199b1f2268b3fcb7fbdfb18c21aa3d2d78aa7b79101610be1565b60008281526002602052604090205482906001600160a01b0316331461152f5760405162461bcd60e51b8152600401610b7a90612f7d565b600083815260026020526040902060060154600160601b900460ff16151582151514610cb957600083815260026020908152604091829020600601805460ff60601b1916600160601b861515908102919091179091558251868152918201527fc906280af595fe94779bb9a972f24fe4e0ed7f76bebb4ee0eb9a5f30d6dd4c879101610be1565b60008181526002602081905260408220805460068201549282015460019092018054859485948594606094869485946001600160a01b039093169363ffffffff808516946401000000008104821694600160401b90910490911692909161ffff8116916201000090910460ff1690839061162f90612f42565b80601f016020809104026020016040519081016040528092919081815260200182805461165b90612f42565b80156116a85780601f1061167d576101008083540402835291602001916116a8565b820191906000526020600020905b81548152906001019060200180831161168b57829003601f168201915b505050505092509650965096509650965096509650919395979092949650565b600054610100900460ff16158080156116e85750600054600160ff909116105b806117025750303b158015611702575060005460ff166001145b6117655760405162461bcd60e51b815260206004820152602e60248201527f496e697469616c697a61626c653a20636f6e747261637420697320616c72656160448201526d191e481a5b9a5d1a585b1a5e995960921b6064820152608401610b7a565b6000805460ff191660011790558015611788576000805461ff0019166101001790555b600980546001600160a01b0319166001600160a01b038416908117909155604080516381fa6cd360e01b815290516381fa6cd391600480820192602092909190829003018186803b1580156117dc57600080fd5b505afa1580156117f0573d6000803e3d6000fd5b505050506040513d601f19601f8201168201806040525081019061181491906130bc565b6040805163a99e7e2960e01b81526004810191909152602960448201527f2875696e74323536206d61726b657449642c2061646472657373206c656e646560648201526872416464726573732960b81b60848201523060248201526001600160a01b03919091169063a99e7e299060a401602060405180830381600087803b15801561189f57600080fd5b505af11580156118b3573d6000803e3d6000fd5b505050506040513d601f19601f820116820180604052508101906118d791906130d9565b600155600954604080516381fa6cd360e01b815290516001600160a01b03909216916381fa6cd391600480820192602092909190829003018186803b15801561191f57600080fd5b505afa158015611933573d6000803e3d6000fd5b505050506040513d601f19601f8201168201806040525081019061195791906130bc565b6040805163a99e7e2960e01b81526004810191909152602b60448201527f2875696e74323536206d61726b657449642c206164647265737320626f72726f60648201526a776572416464726573732960a81b60848201523060248201526001600160a01b03919091169063a99e7e299060a401602060405180830381600087803b1580156119e457600080fd5b505af11580156119f8573d6000803e3d6000fd5b505050506040513d601f19601f82011682018060405250810190611a1c91906130d9565b6006558015610d3b576000805461ff0019169055604051600181527f7f26b83ff96e1f2b6a682f133852f6798a09c465da95921460cefb384740249890602001610fbb565b6000818152600260205260408120611a7c906007013361215f565b90508015610d3b577f914ccbaf2f5c9c2f4b7c6be3497b6b2ceb6ce2d050aec6eb2e0e31b8f9f67f0c8233610fa2565b610cb983838360006121d3565b60008381526002602052604090205483906001600160a01b03163314611af15760405162461bcd60e51b8152600401610b7a90612f7d565b6000836001811115611b0557611b05612d15565b1480611b3157506001836001811115611b2057611b20612d15565b148015611b31575063ffffffff8216155b611b925760405162461bcd60e51b815260206004820152602c60248201527f6d6f6e74686c79207061796d656e74206379636c65206475726174696f6e206360448201526b185b9b9bdd081899481cd95d60a21b6064820152608401610b7a565b60008481526002602052604081209080856001811115611bb457611bb4612d15565b14611bc25762278d00611bc4565b835b600a830154909150600160a81b900460ff166001811115611be757611be7612d15565b856001811115611bf957611bf9612d15565b141580611c135750600682015463ffffffff828116911614155b15610d27576000868152600260205260409020600a01805486919060ff60a81b1916600160a81b836001811115611c4c57611c4c612d15565b021790555060008681526002602052604090819020600601805463ffffffff191663ffffffff8416179055517fbb20033c58b125e31641bfd5e2f4bd906d684e27472fab0648527cc39cb2918c90611ca9908890889085906130f2565b60405180910390a1505050505050565b6000611ccf8a8a8a8a8a8a8a6000808c8c611e9e565b9a9950505050505050505050565b6000808415611da957611cf08387612330565b8015611d8657506009546001600160a01b03878116600090815260208790526040908190205490516330cd251f60e21b8152600481019190915291169063c334947c9060240160206040518083038186803b158015611d4e57600080fd5b505afa158015611d62573d6000803e3d6000fd5b505050506040513d601f19601f82011682018060405250810190611d86919061311c565b6001600160a01b0387166000908152602086905260409020549092509050611dae565b600191505b94509492505050565b60606000611dc485612352565b90506000611dd2848661314f565b9050818111611e95576000611de7858361316e565b905082811115611df45750815b611dfe8282613186565b67ffffffffffffffff811115611e1657611e1661319d565b604051908082528060200260200182016040528015611e3f578160200160208202803683370190505b509350815b81811015611e9257611e56888261235c565b858281518110611e6857611e686131b3565b6001600160a01b039092166020928302919091019091015280611e8a816131c9565b915050611e44565b50505b50509392505050565b60006001600160a01b038c16611eee5760405162461bcd60e51b8152602060048201526015602482015274496e76616c6964206f776e6572206164647265737360581b6044820152606401610b7a565b600460008154611efd906131c9565b9182905550600081815260026020526040902080546001600160a01b0319166001600160a01b038f161790559050611f3e818c87878e8e8e8d8f8c8c612174565b8b6001600160a01b03167fa69fa77c6a90b171cf4e3d9a9dd6c4e56fbd1fbbdcf3925eaf600ccaa917feab82604051611f7991815260200190565b60405180910390a29b9a5050505050505050505050565b83611f9d57600654611fa1565b6001545b806005819055506000808989604051602001611fd09291909182526001600160a01b0316602082015260400190565b60405160208183030381529060405290506000600260008c815260200190815260200160002060000160009054906101000a90046001600160a01b03169050600960009054906101000a90046001600160a01b03166001600160a01b031663930ed0138b6005548c600087878e8e8e6040518a63ffffffff1660e01b8152600401612063999897969594939291906131e4565b602060405180830381600087803b15801561207d57600080fd5b505af1158015612091573d6000803e3d6000fd5b505050506040513d601f19601f820116820180604052508101906120b591906130d9565b925050506120c589898389612368565b5050600060055550505050505050565b6000838152600260205260409020546001600160a01b0316336001600160a01b03161461213b5760405162461bcd60e51b81526020600482015260146024820152732737ba103a34329036b0b935b2ba1037bbb732b960611b6044820152606401610b7a565b6000610e5b84848461246a565b600061215587878761246a565b5050505050505050565b6000610b3b836001600160a01b03841661257a565b61217f8b8383610d3f565b6121898b88610bee565b6121938b8761142a565b61219d8b86611323565b6121a78b846110da565b6121b18b856114f7565b6121bb8b8a6111a4565b6121c68b898c611ab9565b5050505050505050505050565b806121e0576006546121e4565b6001545b60058190556000858152600260205260409020546001600160a01b0316336001600160a01b03161461224f5760405162461bcd60e51b81526020600482015260146024820152732737ba103a34329036b0b935b2ba1037bbb732b960611b6044820152606401610b7a565b6009546005546040516000926001600160a01b0316916309a954cd9188919088908690612294908d9086906020019182526001600160a01b0316602082015260400190565b6040516020818303038152906040526040518663ffffffff1660e01b81526004016122c3959493929190613245565b602060405180830381600087803b1580156122dd57600080fd5b505af11580156122f1573d6000803e3d6000fd5b505050506040513d601f19601f8201168201806040525081019061231591906130d9565b905061232386868386612368565b5050600060055550505050565b6001600160a01b03811660009081526001830160205260408120541515610b3b565b6000610e9f825490565b6000610b3b838361266d565b80156123f05760008481526002602081815260408084206001600160a01b038816855260058101835290842086905592879052526123a99060030184612697565b50604080518581526001600160a01b03851660208201527f75675690de0899b0b869d83b44b2d926ac594426b2a0286c478ecdf815cbd33e910160405180910390a1610e36565b60008481526002602081815260408084206001600160a01b0388168552600981018352908420869055928790525261242b9060070184612697565b50604080518581526001600160a01b03851660208201527f0c2cfc7e7a16ebee66e77fb314f4bfdb5505e33e77d41c0c60604efc70fd926b9101610e2d565b600081156124f5575060008381526002602081815260408084206001600160a01b038716855260058101835290842054938790529190526124ae906003018461215f565b50604080518581526001600160a01b03851660208201527f6e7c30dc58d3daa1458c79b66ca464f5f3d8a23d9e50eb14daf1cb0923bf2900910160405180910390a1610b3b565b5060008381526002602081815260408084206001600160a01b03871685526009810183529084205493879052919052612531906007018461215f565b50604080518581526001600160a01b03851660208201527fe76a3e8b220b622b9fc2a655ab867687a93f195809eb3639f422e60936ff7eb4910160405180910390a19392505050565b6000818152600183016020526040812054801561266357600061259e600183613186565b85549091506000906125b290600190613186565b90508181146126175760008660000182815481106125d2576125d26131b3565b90600052602060002001549050808760000184815481106125f5576125f56131b3565b6000918252602080832090910192909255918252600188019052604090208390555b855486908061262857612628613283565b600190038181906000526020600020016000905590558560010160008681526020019081526020016000206000905560019350505050610e9f565b6000915050610e9f565b6000826000018281548110612684576126846131b3565b9060005260206000200154905092915050565b6000610b3b836001600160a01b03841660006126c6838360009081526001919091016020526040902054151590565b6126fc57508154600181810184556000848152602080822090930184905584548482528286019093526040902091909155610e9f565b506000610e9f565b82805461271090612f42565b90600052602060002090601f0160209004810192826127325760008555612778565b82601f1061274b5782800160ff19823516178555612778565b82800160010185558215612778579182015b8281111561277857823582559160200191906001019061275d565b50612784929150612788565b5090565b5b808211156127845760008155600101612789565b6001600160a01b03811681146127b257600080fd5b50565b600080604083850312156127c857600080fd5b8235915060208301356127da8161279d565b809150509250929050565b6000602082840312156127f757600080fd5b5035919050565b6000815180845260005b8181101561282457602081850181015186830182015201612808565b81811115612836576000602083870101525b50601f01601f19169290920160200192915050565b602081526000610b3b60208301846127fe565b60008060006060848603121561287357600080fd5b505081359360208301359350604090920135919050565b6020808252825182820181905260009190848201906040850190845b818110156128cb5783516001600160a01b0316835292840192918401916001016128a6565b50909695505050505050565b803563ffffffff811681146128eb57600080fd5b919050565b6000806040838503121561290357600080fd5b82359150612913602084016128d7565b90509250929050565b803561ffff811681146128eb57600080fd5b80151581146127b257600080fd5b600281106127b257600080fd5b60008083601f84011261295b57600080fd5b50813567ffffffffffffffff81111561297357600080fd5b602083019150836020828501011115610a6c57600080fd5b60008060008060008060008060008060006101408c8e0312156129ad57600080fd5b8b356129b88161279d565b9a506129c660208d016128d7565b99506129d460408d016128d7565b98506129e260608d016128d7565b97506129f060808d0161291c565b965060a08c0135612a008161292e565b955060c08c0135612a108161292e565b945060e08c0135612a208161293c565b93506101008c0135612a318161293c565b92506101208c013567ffffffffffffffff811115612a4e57600080fd5b612a5a8e828f01612949565b915080935050809150509295989b509295989b9093969950565b803560ff811681146128eb57600080fd5b60008060008060008060c08789031215612a9e57600080fd5b863595506020870135612ab08161279d565b945060408701359350612ac560608801612a74565b92506080870135915060a087013590509295509295509295565b600080600060408486031215612af457600080fd5b83359250602084013567ffffffffffffffff811115612b1257600080fd5b612b1e86828701612949565b9497909650939450505050565b600080600080600060a08688031215612b4357600080fd5b853594506020860135612b558161279d565b9350612b6360408701612a74565b94979396509394606081013594506080013592915050565b60008060008060008060008060008060006101408c8e031215612b9d57600080fd5b8b359a50612bad60208d016128d7565b995060408c0135612bbd8161293c565b985060608c0135612bcd8161293c565b9750612bdb60808d016128d7565b9650612be960a08d016128d7565b9550612bf760c08d0161291c565b945060e08c0135612c078161292e565b93506101008c0135612a318161292e565b600080600080600080600060a0888a031215612c3357600080fd5b8735612c3e8161279d565b9650602088013567ffffffffffffffff80821115612c5b57600080fd5b612c678b838c01612949565b909850965060408a0135915080821115612c8057600080fd5b50612c8d8a828b01612949565b909550935050606088013591506080880135612ca88161279d565b8091505092959891949750929550565b60008060408385031215612ccb57600080fd5b8235915060208301356127da8161292e565b600080600060608486031215612cf257600080fd5b833592506020840135612d048161279d565b929592945050506040919091013590565b634e487b7160e01b600052602160045260246000fd5b600281106127b257634e487b7160e01b600052602160045260246000fd5b63ffffffff8316815260408101612d5f83612d2b565b8260208301529392505050565b60008060408385031215612d7f57600080fd5b8235915060208301356127da8161293c565b60008060408385031215612da457600080fd5b823591506129136020840161291c565b6001600160a01b038816815263ffffffff878116602083015286811660408301528516606082015260e060808201819052600090612df4908301866127fe565b61ffff9490941660a08301525090151560c09091015295945050505050565b600060208284031215612e2557600080fd5b8135610b3b8161279d565b60208101612e3d83612d2b565b91905290565b600080600060608486031215612e5857600080fd5b833592506020840135612e6a8161293c565b9150612e78604085016128d7565b90509250925092565b60008060008060008060008060006101008a8c031215612ea057600080fd5b8935612eab8161279d565b9850612eb960208b016128d7565b9750612ec760408b016128d7565b9650612ed560608b016128d7565b9550612ee360808b0161291c565b945060a08a0135612ef38161292e565b935060c08a0135612f038161292e565b925060e08a013567ffffffffffffffff811115612f1f57600080fd5b612f2b8c828d01612949565b915080935050809150509295985092959850929598565b600181811c90821680612f5657607f821691505b60208210811415612f7757634e487b7160e01b600052602260045260246000fd5b50919050565b6020808252600d908201526c2737ba103a34329037bbb732b960991b604082015260600190565b600080835481600182811c915080831680612fc057607f831692505b6020808410821415612fe057634e487b7160e01b86526022600452602486fd5b818015612ff4576001811461300557613032565b60ff19861689528489019650613032565b60008a81526020902060005b8681101561302a5781548b820152908501908301613011565b505084890196505b509498975050505050505050565b8183823760009101908152919050565b83815260406020820152816040820152818360608301376000818301606090810191909152601f909201601f1916010192915050565b8284823760609190911b6bffffffffffffffffffffffff19169101908152601401919050565b82815260408101612d5f83612d2b565b6000602082840312156130ce57600080fd5b8151610b3b8161279d565b6000602082840312156130eb57600080fd5b5051919050565b8381526060810161310284612d2b565b83602083015263ffffffff83166040830152949350505050565b60006020828403121561312e57600080fd5b8151610b3b8161292e565b634e487b7160e01b600052601160045260246000fd5b600081600019048311821515161561316957613169613139565b500290565b6000821982111561318157613181613139565b500190565b60008282101561319857613198613139565b500390565b634e487b7160e01b600052604160045260246000fd5b634e487b7160e01b600052603260045260246000fd5b60006000198214156131dd576131dd613139565b5060010190565b600061012060018060a01b03808d1684528b60208501528a60408501528960608501528160808501526132198285018a6127fe565b971660a0840152505060ff9390931660c084015260e08301919091526101009091015295945050505050565b60018060a01b038616815284602082015283604082015282606082015260a06080820152600061327860a08301846127fe565b979650505050505050565b634e487b7160e01b600052603160045260246000fdfea2646970667358221220411d7354c9de04260f65046876835a5dcd340ba2f2d99e737e5e544f5f25acff64736f6c63430008090033",
  "devdoc": {
    "kind": "dev",
    "methods": {
      "attestBorrower(uint256,address,uint256)": {
        "details": "See {_attestStakeholder}."
      },
      "attestBorrower(uint256,address,uint256,uint8,bytes32,bytes32)": {
        "details": "See {_attestStakeholderViaDelegation}."
      },
      "attestLender(uint256,address,uint256)": {
        "details": "See {_attestStakeholder}."
      },
      "attestLender(uint256,address,uint256,uint8,bytes32,bytes32)": {
        "details": "See {_attestStakeholderViaDelegation}."
      },
      "borrowerExitMarket(uint256)": {
        "params": {
          "_marketId": "The market ID to leave."
        }
      },
      "closeMarket(uint256)": {
        "params": {
          "_marketId": "The market ID for the market to close."
        }
      },
      "createMarket(address,uint32,uint32,uint32,uint16,bool,bool,string)": {
        "details": "Uses the default EMI payment type.",
        "params": {
          "_bidExpirationTime": "Length of time in seconds before pending bids expire.",
          "_initialOwner": "Address who will initially own the market.",
          "_paymentCycleDuration": "Length of time in seconds before a bid's next payment is required to be made.",
          "_paymentDefaultDuration": "Length of time in seconds before a loan is considered in default for non-payment.",
          "_requireBorrowerAttestation": "Boolean that indicates if borrowers require attestation to join market.",
          "_requireLenderAttestation": "Boolean that indicates if lenders require attestation to join market.",
          "_uri": "URI string to get metadata details about the market."
        },
        "returns": {
          "marketId_": "The market ID of the newly created market."
        }
      },
      "createMarket(address,uint32,uint32,uint32,uint16,bool,bool,uint8,uint8,string)": {
        "params": {
          "_bidExpirationTime": "Length of time in seconds before pending bids expire.",
          "_initialOwner": "Address who will initially own the market.",
          "_paymentCycleDuration": "Length of time in seconds before a bid's next payment is required to be made.",
          "_paymentCycleType": "The payment cycle type for loans in the market - Seconds or Monthly",
          "_paymentDefaultDuration": "Length of time in seconds before a loan is considered in default for non-payment.",
          "_paymentType": "The payment type for loans in the market.",
          "_requireBorrowerAttestation": "Boolean that indicates if borrowers require attestation to join market.",
          "_requireLenderAttestation": "Boolean that indicates if lenders require attestation to join market.",
          "_uri": "URI string to get metadata details about the market."
        },
        "returns": {
          "marketId_": "The market ID of the newly created market."
        }
      },
      "getAllVerifiedBorrowersForMarket(uint256,uint256,uint256)": {
        "params": {
          "_marketId": "The ID of the market.",
          "_page": "Page index to start from.",
          "_perPage": "Number of items in a page to return."
        },
        "returns": {
          "_0": "Array of addresses that have been added to a market."
        }
      },
      "getAllVerifiedLendersForMarket(uint256,uint256,uint256)": {
        "params": {
          "_marketId": "The ID of a market.",
          "_page": "Page index to start from.",
          "_perPage": "Number of items in a page to return."
        },
        "returns": {
          "_0": "Array of addresses that have been added to a market."
        }
      },
      "getMarketAttestationRequirements(uint256)": {
        "params": {
          "_marketId": "The ID of the market."
        }
      },
      "getMarketData(uint256)": {
        "params": {
          "_marketId": "The ID of a market."
        }
      },
      "getMarketFeeRecipient(uint256)": {
        "params": {
          "_marketId": "The ID of a market."
        },
        "returns": {
          "_0": "The address of a market's fee recipient."
        }
      },
      "getMarketOwner(uint256)": {
        "params": {
          "_marketId": "The ID of a market."
        },
        "returns": {
          "_0": "The address of a market's owner."
        }
      },
      "getMarketURI(uint256)": {
        "params": {
          "_marketId": "The ID of a market."
        },
        "returns": {
          "_0": "URI of a market's metadata."
        }
      },
      "getMarketplaceFee(uint256)": {
        "params": {
          "_marketId": "The ID of a market."
        },
        "returns": {
          "fee": "in basis points"
        }
      },
      "getPaymentCycle(uint256)": {
        "params": {
          "_marketId": "The ID of a market."
        },
        "returns": {
          "_0": "Duration of a loan until it is delinquent.",
          "_1": "The type of payment cycle for loans in the market."
        }
      },
      "getPaymentDefaultDuration(uint256)": {
        "params": {
          "_marketId": "The ID of a market."
        },
        "returns": {
          "_0": "Duration of a loan repayment interval until it is default."
        }
      },
      "getPaymentType(uint256)": {
        "params": {
          "_marketId": "the ID of the market."
        },
        "returns": {
          "_0": "The type of payment for loans in the market."
        }
      },
      "isMarketClosed(uint256)": {
        "params": {
          "_marketId": "The market ID for the market to check."
        }
      },
      "isPayable()": {
        "details": "Returns whether the resolver supports ETH transfers"
      },
      "isVerifiedBorrower(uint256,address)": {
        "params": {
          "_borrowerAddress": "Address of the borrower to check.",
          "_marketId": "The ID of a market."
        },
        "returns": {
          "isVerified_": "Boolean indicating if a borrower has been added to a market.",
          "uuid_": "Bytes32 representing the UUID of the borrower."
        }
      },
      "isVerifiedLender(uint256,address)": {
        "params": {
          "_lenderAddress": "Address to check.",
          "_marketId": "The ID of a market."
        },
        "returns": {
          "isVerified_": "Boolean indicating if a lender has been added to a market.",
          "uuid_": "Bytes32 representing the UUID of the lender."
        }
      },
      "lenderExitMarket(uint256)": {
        "params": {
          "_marketId": "The market ID to leave."
        }
      },
      "resolve(address,bytes,bytes,uint256,address)": {
        "details": "This function must only be called by the `attestLender` function above.",
        "params": {
          "": "@param attestor Market owner's address who signed the attestation.",
          "data": "Data the must include the market ID and lender's address",
          "recipient": "Lender's address who is being attested.",
          "schema": "The schema used for the attestation."
        },
        "returns": {
          "_0": "Boolean indicating the attestation was successful."
        }
      },
      "revokeBorrower(uint256,address)": {
        "details": "See {_revokeStakeholder}."
      },
      "revokeBorrower(uint256,address,uint8,bytes32,bytes32)": {
        "details": "See {_revokeStakeholderViaDelegation}."
      },
      "revokeLender(uint256,address)": {
        "details": "See {_revokeStakeholder}."
      },
      "revokeLender(uint256,address,uint8,bytes32,bytes32)": {
        "details": "See {_revokeStakeholderViaDelegation}."
      },
      "setBorrowerAttestationRequired(uint256,bool)": {
        "params": {
          "_marketId": "The ID of a market.",
          "_required": "Boolean indicating if the market requires whitelist. Requirements: - The caller must be the current owner."
        }
      },
      "setLenderAttestationRequired(uint256,bool)": {
        "params": {
          "_marketId": "The ID of a market.",
          "_required": "Boolean indicating if the market requires whitelist. Requirements: - The caller must be the current owner."
        }
      },
      "setMarketFeePercent(uint256,uint16)": {
        "params": {
          "_marketId": "The ID of a market.",
          "_newPercent": "The percentage fee in basis points. Requirements: - The caller must be the current owner."
        }
      },
      "setMarketFeeRecipient(uint256,address)": {
        "params": {
          "_marketId": "The ID of a market.",
          "_recipient": "Address of the new fee recipient. Requirements: - The caller must be the current owner."
        }
      },
      "setMarketPaymentType(uint256,uint8)": {
        "params": {
          "_marketId": "The ID of the market.",
          "_newPaymentType": "The payment type for the market."
        }
      },
      "setMarketURI(uint256,string)": {
        "params": {
          "_marketId": "The ID of a market.",
          "_uri": "A URI that points to a market's metadata. Requirements: - The caller must be the current owner."
        }
      },
      "setPaymentCycle(uint256,uint8,uint32)": {
        "params": {
          "_duration": "Delinquency duration for new loans",
          "_marketId": "The ID of a market.",
          "_paymentCycleType": "Cycle type (seconds or monthly)"
        }
      },
      "setPaymentDefaultDuration(uint256,uint32)": {
        "params": {
          "_duration": "Default duration for new loans",
          "_marketId": "The ID of a market."
        }
      },
      "transferMarketOwnership(uint256,address)": {
        "params": {
          "_marketId": "The ID of a market.",
          "_newOwner": "Address of the new market owner. Requirements: - The caller must be the current owner."
        }
      },
      "updateMarketSettings(uint256,uint32,uint8,uint8,uint32,uint32,uint16,bool,bool,string)": {
        "params": {
          "_bidExpirationTime": "Duration of time before a bid is considered out of date",
          "_marketId": "The ID of a market.",
          "_metadataURI": "A URI that points to a market's metadata. Requirements: - The caller must be the current owner.",
          "_newPaymentType": "The payment type for the market.",
          "_paymentCycleDuration": "Delinquency duration for new loans",
          "_paymentCycleType": "The payment cycle type for loans in the market - Seconds or Monthly",
          "_paymentDefaultDuration": "Default duration for new loans"
        }
      }
    },
    "version": 1
  },
  "userdoc": {
    "kind": "user",
    "methods": {
      "CURRENT_CODE_VERSION()": {
        "notice": "Constant Variables *"
      },
      "attestBorrower(uint256,address,uint256)": {
        "notice": "Adds a borrower to a market."
      },
      "attestBorrower(uint256,address,uint256,uint8,bytes32,bytes32)": {
        "notice": "Adds a borrower to a market via delegated attestation."
      },
      "attestLender(uint256,address,uint256)": {
        "notice": "Adds a lender to a market."
      },
      "attestLender(uint256,address,uint256,uint8,bytes32,bytes32)": {
        "notice": "Adds a lender to a market via delegated attestation."
      },
      "borrowerExitMarket(uint256)": {
        "notice": "Allows a borrower to voluntarily leave a market."
      },
      "closeMarket(uint256)": {
        "notice": "Closes a market so new bids cannot be added."
      },
      "createMarket(address,uint32,uint32,uint32,uint16,bool,bool,string)": {
        "notice": "Creates a new market."
      },
      "createMarket(address,uint32,uint32,uint32,uint16,bool,bool,uint8,uint8,string)": {
        "notice": "Creates a new market."
      },
      "getAllVerifiedBorrowersForMarket(uint256,uint256,uint256)": {
        "notice": "Gets addresses of all attested borrowers."
      },
      "getAllVerifiedLendersForMarket(uint256,uint256,uint256)": {
        "notice": "Gets addresses of all attested lenders."
      },
      "getMarketAttestationRequirements(uint256)": {
        "notice": "Gets the attestation requirements for a given market."
      },
      "getMarketData(uint256)": {
        "notice": "Gets the data associated with a market."
      },
      "getMarketFeeRecipient(uint256)": {
        "notice": "Gets the fee recipient of a market."
      },
      "getMarketOwner(uint256)": {
        "notice": "Gets the address of a market's owner."
      },
      "getMarketURI(uint256)": {
        "notice": "Gets the metadata URI of a market."
      },
      "getMarketplaceFee(uint256)": {
        "notice": "Gets the marketplace fee in basis points"
      },
      "getPaymentCycle(uint256)": {
        "notice": "Gets the loan delinquent duration of a market."
      },
      "getPaymentDefaultDuration(uint256)": {
        "notice": "Gets the loan default duration of a market."
      },
      "getPaymentType(uint256)": {
        "notice": "Get the payment type of a market."
      },
      "isMarketClosed(uint256)": {
        "notice": "Returns the status of a market being open or closed for new bids."
      },
      "isVerifiedBorrower(uint256,address)": {
        "notice": "Checks if a borrower has been attested and added to a market."
      },
      "isVerifiedLender(uint256,address)": {
        "notice": "Checks if a lender has been attested and added to a market."
      },
      "lenderExitMarket(uint256)": {
        "notice": "Allows a lender to voluntarily leave a market."
      },
      "resolve(address,bytes,bytes,uint256,address)": {
        "notice": "Verifies an attestation is valid."
      },
      "revokeBorrower(uint256,address)": {
        "notice": "Removes a borrower from an market."
      },
      "revokeBorrower(uint256,address,uint8,bytes32,bytes32)": {
        "notice": "Removes a borrower from a market via delegated revocation."
      },
      "revokeLender(uint256,address)": {
        "notice": "Removes a lender from an market."
      },
      "revokeLender(uint256,address,uint8,bytes32,bytes32)": {
        "notice": "Removes a borrower from a market via delegated revocation."
      },
      "setBorrowerAttestationRequired(uint256,bool)": {
        "notice": "Enable/disables market whitelist for borrowers."
      },
      "setLenderAttestationRequired(uint256,bool)": {
        "notice": "Enable/disables market whitelist for lenders."
      },
      "setMarketFeePercent(uint256,uint16)": {
        "notice": "Sets the fee for the market."
      },
      "setMarketFeeRecipient(uint256,address)": {
        "notice": "Sets the fee recipient address for a market."
      },
      "setMarketPaymentType(uint256,uint8)": {
        "notice": "Set the payment type for the market."
      },
      "setMarketURI(uint256,string)": {
        "notice": "Sets the metadata URI for a market."
      },
      "setPaymentCycle(uint256,uint8,uint32)": {
        "notice": "Sets the duration of new loans for this market before they turn delinquent.Changing this value does not change the terms of existing loans for this market."
      },
      "setPaymentDefaultDuration(uint256,uint32)": {
        "notice": "Sets the duration of new loans for this market before they turn defaulted.Changing this value does not change the terms of existing loans for this market."
      },
      "transferMarketOwnership(uint256,address)": {
        "notice": "Transfers ownership of a marketplace."
      },
      "updateMarketSettings(uint256,uint32,uint8,uint8,uint32,uint32,uint16,bool,bool,string)": {
        "notice": "Updates multiple market settings for a given market."
      }
    },
    "version": 1
  },
  "storageLayout": {
    "storage": [
      {
        "astId": 7401,
        "contract": "contracts/MarketRegistry.sol:MarketRegistry",
        "label": "_initialized",
        "offset": 0,
        "slot": "0",
        "type": "t_uint8"
      },
      {
        "astId": 7404,
        "contract": "contracts/MarketRegistry.sol:MarketRegistry",
        "label": "_initializing",
        "offset": 1,
        "slot": "0",
        "type": "t_bool"
      },
      {
        "astId": 18129,
        "contract": "contracts/MarketRegistry.sol:MarketRegistry",
        "label": "lenderAttestationSchemaId",
        "offset": 0,
        "slot": "1",
        "type": "t_bytes32"
      },
      {
        "astId": 18134,
        "contract": "contracts/MarketRegistry.sol:MarketRegistry",
        "label": "markets",
        "offset": 0,
        "slot": "2",
        "type": "t_mapping(t_uint256,t_struct(Marketplace)18127_storage)"
      },
      {
        "astId": 18138,
        "contract": "contracts/MarketRegistry.sol:MarketRegistry",
        "label": "__uriToId",
        "offset": 0,
        "slot": "3",
        "type": "t_mapping(t_bytes32,t_uint256)"
      },
      {
        "astId": 18140,
        "contract": "contracts/MarketRegistry.sol:MarketRegistry",
        "label": "marketCount",
        "offset": 0,
        "slot": "4",
        "type": "t_uint256"
      },
      {
        "astId": 18142,
        "contract": "contracts/MarketRegistry.sol:MarketRegistry",
        "label": "_attestingSchemaId",
        "offset": 0,
        "slot": "5",
        "type": "t_bytes32"
      },
      {
        "astId": 18144,
        "contract": "contracts/MarketRegistry.sol:MarketRegistry",
        "label": "borrowerAttestationSchemaId",
        "offset": 0,
        "slot": "6",
        "type": "t_bytes32"
      },
      {
        "astId": 18146,
        "contract": "contracts/MarketRegistry.sol:MarketRegistry",
        "label": "version",
        "offset": 0,
        "slot": "7",
        "type": "t_uint256"
      },
      {
        "astId": 18150,
        "contract": "contracts/MarketRegistry.sol:MarketRegistry",
        "label": "marketIsClosed",
        "offset": 0,
        "slot": "8",
        "type": "t_mapping(t_uint256,t_bool)"
      },
      {
        "astId": 18153,
        "contract": "contracts/MarketRegistry.sol:MarketRegistry",
        "label": "tellerAS",
        "offset": 0,
        "slot": "9",
        "type": "t_contract(TellerAS)16603"
      }
    ],
    "types": {
      "t_address": {
        "encoding": "inplace",
        "label": "address",
        "numberOfBytes": "20"
      },
      "t_array(t_bytes32)dyn_storage": {
        "base": "t_bytes32",
        "encoding": "dynamic_array",
        "label": "bytes32[]",
        "numberOfBytes": "32"
      },
      "t_bool": {
        "encoding": "inplace",
        "label": "bool",
        "numberOfBytes": "1"
      },
      "t_bytes32": {
        "encoding": "inplace",
        "label": "bytes32",
        "numberOfBytes": "32"
      },
      "t_contract(TellerAS)16603": {
        "encoding": "inplace",
        "label": "contract TellerAS",
        "numberOfBytes": "20"
      },
      "t_enum(PaymentCycleType)27363": {
        "encoding": "inplace",
        "label": "enum PaymentCycleType",
        "numberOfBytes": "1"
      },
      "t_enum(PaymentType)27360": {
        "encoding": "inplace",
        "label": "enum PaymentType",
        "numberOfBytes": "1"
      },
      "t_mapping(t_address,t_bytes32)": {
        "encoding": "mapping",
        "key": "t_address",
        "label": "mapping(address => bytes32)",
        "numberOfBytes": "32",
        "value": "t_bytes32"
      },
      "t_mapping(t_bytes32,t_uint256)": {
        "encoding": "mapping",
        "key": "t_bytes32",
        "label": "mapping(bytes32 => uint256)",
        "numberOfBytes": "32",
        "value": "t_uint256"
      },
      "t_mapping(t_uint256,t_bool)": {
        "encoding": "mapping",
        "key": "t_uint256",
        "label": "mapping(uint256 => bool)",
        "numberOfBytes": "32",
        "value": "t_bool"
      },
      "t_mapping(t_uint256,t_struct(Marketplace)18127_storage)": {
        "encoding": "mapping",
        "key": "t_uint256",
        "label": "mapping(uint256 => struct MarketRegistry.Marketplace)",
        "numberOfBytes": "32",
        "value": "t_struct(Marketplace)18127_storage"
      },
      "t_string_storage": {
        "encoding": "bytes",
        "label": "string",
        "numberOfBytes": "32"
      },
      "t_struct(AddressSet)14293_storage": {
        "encoding": "inplace",
        "label": "struct EnumerableSet.AddressSet",
        "members": [
          {
            "astId": 14292,
            "contract": "contracts/MarketRegistry.sol:MarketRegistry",
            "label": "_inner",
            "offset": 0,
            "slot": "0",
            "type": "t_struct(Set)13978_storage"
          }
        ],
        "numberOfBytes": "64"
      },
      "t_struct(Marketplace)18127_storage": {
        "encoding": "inplace",
        "label": "struct MarketRegistry.Marketplace",
        "members": [
          {
            "astId": 18090,
            "contract": "contracts/MarketRegistry.sol:MarketRegistry",
            "label": "owner",
            "offset": 0,
            "slot": "0",
            "type": "t_address"
          },
          {
            "astId": 18092,
            "contract": "contracts/MarketRegistry.sol:MarketRegistry",
            "label": "metadataURI",
            "offset": 0,
            "slot": "1",
            "type": "t_string_storage"
          },
          {
            "astId": 18094,
            "contract": "contracts/MarketRegistry.sol:MarketRegistry",
            "label": "marketplaceFeePercent",
            "offset": 0,
            "slot": "2",
            "type": "t_uint16"
          },
          {
            "astId": 18096,
            "contract": "contracts/MarketRegistry.sol:MarketRegistry",
            "label": "lenderAttestationRequired",
            "offset": 2,
            "slot": "2",
            "type": "t_bool"
          },
          {
            "astId": 18099,
            "contract": "contracts/MarketRegistry.sol:MarketRegistry",
            "label": "verifiedLendersForMarket",
            "offset": 0,
            "slot": "3",
            "type": "t_struct(AddressSet)14293_storage"
          },
          {
            "astId": 18103,
            "contract": "contracts/MarketRegistry.sol:MarketRegistry",
            "label": "lenderAttestationIds",
            "offset": 0,
            "slot": "5",
            "type": "t_mapping(t_address,t_bytes32)"
          },
          {
            "astId": 18105,
            "contract": "contracts/MarketRegistry.sol:MarketRegistry",
            "label": "paymentCycleDuration",
            "offset": 0,
            "slot": "6",
            "type": "t_uint32"
          },
          {
            "astId": 18107,
            "contract": "contracts/MarketRegistry.sol:MarketRegistry",
            "label": "paymentDefaultDuration",
            "offset": 4,
            "slot": "6",
            "type": "t_uint32"
          },
          {
            "astId": 18109,
            "contract": "contracts/MarketRegistry.sol:MarketRegistry",
            "label": "bidExpirationTime",
            "offset": 8,
            "slot": "6",
            "type": "t_uint32"
          },
          {
            "astId": 18111,
            "contract": "contracts/MarketRegistry.sol:MarketRegistry",
            "label": "borrowerAttestationRequired",
            "offset": 12,
            "slot": "6",
            "type": "t_bool"
          },
          {
            "astId": 18114,
            "contract": "contracts/MarketRegistry.sol:MarketRegistry",
            "label": "verifiedBorrowersForMarket",
            "offset": 0,
            "slot": "7",
            "type": "t_struct(AddressSet)14293_storage"
          },
          {
            "astId": 18118,
            "contract": "contracts/MarketRegistry.sol:MarketRegistry",
            "label": "borrowerAttestationIds",
            "offset": 0,
            "slot": "9",
            "type": "t_mapping(t_address,t_bytes32)"
          },
          {
            "astId": 18120,
            "contract": "contracts/MarketRegistry.sol:MarketRegistry",
            "label": "feeRecipient",
            "offset": 0,
            "slot": "10",
            "type": "t_address"
          },
          {
            "astId": 18123,
            "contract": "contracts/MarketRegistry.sol:MarketRegistry",
            "label": "paymentType",
            "offset": 20,
            "slot": "10",
            "type": "t_enum(PaymentType)27360"
          },
          {
            "astId": 18126,
            "contract": "contracts/MarketRegistry.sol:MarketRegistry",
            "label": "paymentCycleType",
            "offset": 21,
            "slot": "10",
            "type": "t_enum(PaymentCycleType)27363"
          }
        ],
        "numberOfBytes": "352"
      },
      "t_struct(Set)13978_storage": {
        "encoding": "inplace",
        "label": "struct EnumerableSet.Set",
        "members": [
          {
            "astId": 13973,
            "contract": "contracts/MarketRegistry.sol:MarketRegistry",
            "label": "_values",
            "offset": 0,
            "slot": "0",
            "type": "t_array(t_bytes32)dyn_storage"
          },
          {
            "astId": 13977,
            "contract": "contracts/MarketRegistry.sol:MarketRegistry",
            "label": "_indexes",
            "offset": 0,
            "slot": "1",
            "type": "t_mapping(t_bytes32,t_uint256)"
          }
        ],
        "numberOfBytes": "64"
      },
      "t_uint16": {
        "encoding": "inplace",
        "label": "uint16",
        "numberOfBytes": "2"
      },
      "t_uint256": {
        "encoding": "inplace",
        "label": "uint256",
        "numberOfBytes": "32"
      },
      "t_uint32": {
        "encoding": "inplace",
        "label": "uint32",
        "numberOfBytes": "4"
      },
      "t_uint8": {
        "encoding": "inplace",
        "label": "uint8",
        "numberOfBytes": "1"
      }
    }
  }
}