{
  "address": "0xB95ab1668e84644B54256b4f207Faf3F43e7482e",
  "abi": [
    {
      "inputs": [],
      "stateMutability": "nonpayable",
      "type": "constructor"
    },
    {
      "anonymous": false,
      "inputs": [
        {
          "indexed": false,
          "internalType": "uint256",
          "name": "commitmentId",
          "type": "uint256"
        }
      ],
      "name": "UpdatedAllowList",
      "type": "event"
    },
    {
      "inputs": [
        {
          "internalType": "uint256",
          "name": "",
          "type": "uint256"
        },
        {
          "internalType": "address",
          "name": "",
          "type": "address"
        }
      ],
      "name": "addressIsAllowed",
      "outputs": [
        {
          "internalType": "bool",
          "name": "",
          "type": "bool"
        }
      ],
      "stateMutability": "nonpayable",
      "type": "function"
    }
  ],
  "transactionHash": "0x62df76df4181f5e1b80abfad9769e0493c145b7b5f12596f77c30bd791ba8f87",
  "args": [],
  "numDeployments": 1,
  "solcInputHash": "e0730cda169a6d13b8fda0f782338556",
  "bytecode": "0x608060405234801561001057600080fd5b5060c48061001f6000396000f3fe6080604052348015600f57600080fd5b506004361060285760003560e01c8063b0b5316d14602d575b600080fd5b604060383660046054565b600192915050565b604051901515815260200160405180910390f35b60008060408385031215606657600080fd5b8235915060208301356001600160a01b0381168114608357600080fd5b80915050925092905056fea264697066735822122029fbf2e43a4514252fecd104dee724239be7e1a56ed24d1599279241e265c86b64736f6c63430008090033",
  "devdoc": {
    "kind": "dev",
    "methods": {},
    "version": 1
  },
  "userdoc": {
    "kind": "user",
    "methods": {},
    "version": 1
  },
  "storageLayout": {
    "storage": [],
    "types": null
  }
}