{
  "address": "0x7B2B06392a2487e55b00458a26683b7b006D6FB9",
  "abi": [
    {
      "inputs": [
        {
          "internalType": "address",
          "name": "_protocolAddress",
          "type": "address"
        }
      ],
      "stateMutability": "nonpayable",
      "type": "constructor"
    },
    {
      "anonymous": false,
      "inputs": [
        {
          "indexed": true,
          "internalType": "uint256",
          "name": "bidId",
          "type": "uint256"
        },
        {
          "indexed": true,
          "internalType": "address",
          "name": "msgsender",
          "type": "address"
        }
      ],
      "name": "AutoPaidLoanMinimum",
      "type": "event"
    },
    {
      "anonymous": false,
      "inputs": [
        {
          "indexed": true,
          "internalType": "uint256",
          "name": "bidId",
          "type": "uint256"
        },
        {
          "indexed": false,
          "internalType": "bool",
          "name": "enabled",
          "type": "bool"
        }
      ],
      "name": "AutoPayEnabled",
      "type": "event"
    },
    {
      "anonymous": false,
      "inputs": [
        {
          "indexed": false,
          "internalType": "uint16",
          "name": "newFee",
          "type": "uint16"
        },
        {
          "indexed": false,
          "internalType": "uint16",
          "name": "oldFee",
          "type": "uint16"
        }
      ],
      "name": "AutopayFeeSet",
      "type": "event"
    },
    {
      "anonymous": false,
      "inputs": [
        {
          "indexed": true,
          "internalType": "address",
          "name": "previousOwner",
          "type": "address"
        },
        {
          "indexed": true,
          "internalType": "address",
          "name": "newOwner",
          "type": "address"
        }
      ],
      "name": "OwnershipTransferred",
      "type": "event"
    },
    {
      "inputs": [
        {
          "internalType": "uint256",
          "name": "_bidId",
          "type": "uint256"
        }
      ],
      "name": "autoPayLoanMinimum",
      "outputs": [],
      "stateMutability": "nonpayable",
      "type": "function"
    },
    {
      "inputs": [],
      "name": "getAutopayFee",
      "outputs": [
        {
          "internalType": "uint16",
          "name": "",
          "type": "uint16"
        }
      ],
      "stateMutability": "view",
      "type": "function"
    },
    {
      "inputs": [
        {
          "internalType": "uint256",
          "name": "_bidId",
          "type": "uint256"
        }
      ],
      "name": "getEstimatedMinimumPayment",
      "outputs": [
        {
          "internalType": "uint256",
          "name": "_amount",
          "type": "uint256"
        }
      ],
      "stateMutability": "nonpayable",
      "type": "function"
    },
    {
      "inputs": [
        {
          "internalType": "uint16",
          "name": "_fee",
          "type": "uint16"
        },
        {
          "internalType": "address",
          "name": "_owner",
          "type": "address"
        }
      ],
      "name": "initialize",
      "outputs": [],
      "stateMutability": "nonpayable",
      "type": "function"
    },
    {
      "inputs": [
        {
          "internalType": "uint256",
          "name": "",
          "type": "uint256"
        }
      ],
      "name": "loanAutoPayEnabled",
      "outputs": [
        {
          "internalType": "bool",
          "name": "",
          "type": "bool"
        }
      ],
      "stateMutability": "view",
      "type": "function"
    },
    {
      "inputs": [],
      "name": "owner",
      "outputs": [
        {
          "internalType": "address",
          "name": "",
          "type": "address"
        }
      ],
      "stateMutability": "view",
      "type": "function"
    },
    {
      "inputs": [],
      "name": "renounceOwnership",
      "outputs": [],
      "stateMutability": "nonpayable",
      "type": "function"
    },
    {
      "inputs": [
        {
          "internalType": "uint256",
          "name": "_bidId",
          "type": "uint256"
        },
        {
          "internalType": "bool",
          "name": "_autoPayEnabled",
          "type": "bool"
        }
      ],
      "name": "setAutoPayEnabled",
      "outputs": [],
      "stateMutability": "nonpayable",
      "type": "function"
    },
    {
      "inputs": [
        {
          "internalType": "uint16",
          "name": "_newFee",
          "type": "uint16"
        }
      ],
      "name": "setAutopayFee",
      "outputs": [],
      "stateMutability": "nonpayable",
      "type": "function"
    },
    {
      "inputs": [],
      "name": "tellerV2",
      "outputs": [
        {
          "internalType": "contract ITellerV2",
          "name": "",
          "type": "address"
        }
      ],
      "stateMutability": "view",
      "type": "function"
    },
    {
      "inputs": [
        {
          "internalType": "address",
          "name": "newOwner",
          "type": "address"
        }
      ],
      "name": "transferOwnership",
      "outputs": [],
      "stateMutability": "nonpayable",
      "type": "function"
    }
  ],
  "transactionHash": "0x663871b5a18a9dce7c35d4c8cdf14e3c505cb7b88ce592db5c132b6c8632fa31",
  "args": [
    "0x1D0eBC060f2897dAc14E482De600cea7896c0A3E"
  ],
  "numDeployments": 1,
  "solcInputHash": "97df8dc790f1fa6927557fbe500f59b2",
  "bytecode": "0x60a060405234801561001057600080fd5b5060405161112538038061112583398101604081905261002f91610040565b6001600160a01b0316608052610070565b60006020828403121561005257600080fd5b81516001600160a01b038116811461006957600080fd5b9392505050565b6080516110706100b560003960008181610156015281816101e8015281816103b30152818161045901528181610549015281816105f201526106e301526110706000f3fe608060405234801561001057600080fd5b50600436106100a95760003560e01c80638e648fbb116100715780638e648fbb1461013b578063941675db14610151578063a90f4b9b14610178578063b0b69ed414610199578063e0dbcde5146101ac578063f2fde38b146101bf57600080fd5b806310a34194146100ae5780631a1a4257146100c35780632fa7b9fd146100fb578063715018a61461010e5780638da5cb5b14610116575b600080fd5b6100c16100bc366004610cbb565b6101d2565b005b6100e66100d1366004610ceb565b60656020526000908152604090205460ff1681565b60405190151581526020015b60405180910390f35b6100c1610109366004610ceb565b610330565b6100c161068a565b6033546001600160a01b03165b6040516001600160a01b0390911681526020016100f2565b60665460405161ffff90911681526020016100f2565b6101237f000000000000000000000000000000000000000000000000000000000000000081565b61018b610186366004610ceb565b6106c0565b6040519081526020016100f2565b6100c16101a7366004610d1b565b610776565b6100c16101ba366004610d4b565b6107ac565b6100c16101cd366004610d77565b610879565b604051633ef0a2f760e01b8152600481018390527f00000000000000000000000000000000000000000000000000000000000000006001600160a01b031690633ef0a2f79060240160206040518083038186803b15801561023257600080fd5b505afa158015610246573d6000803e3d6000fd5b505050506040513d601f19601f8201168201806040525081019061026a9190610d94565b6001600160a01b0316336001600160a01b0316146102d95760405162461bcd60e51b815260206004820152602160248201527f4f6e6c792074686520626f72726f7765722063616e20736574206175746f70616044820152607960f81b60648201526084015b60405180910390fd5b600082815260656020908152604091829020805460ff1916841515908117909155915191825283917fd5509862e358cd409ee88c54179adfea59890ed720d2e0b2b4bfec845cb7e23e910160405180910390a25050565b60008181526065602052604090205460ff1661039a5760405162461bcd60e51b8152602060048201526024808201527f4175746f706179206973206e6f7420656e61626c656420666f722074686174206044820152633637b0b760e11b60648201526084016102d0565b604051631457303360e01b8152600481018290526000907f00000000000000000000000000000000000000000000000000000000000000006001600160a01b03169063145730339060240160206040518083038186803b1580156103fd57600080fd5b505afa158015610411573d6000803e3d6000fd5b505050506040513d601f19601f820116820180604052508101906104359190610d94565b604051633ef0a2f760e01b8152600481018490529091506000906001600160a01b037f00000000000000000000000000000000000000000000000000000000000000001690633ef0a2f79060240160206040518083038186803b15801561049b57600080fd5b505afa1580156104af573d6000803e3d6000fd5b505050506040513d601f19601f820116820180604052508101906104d39190610d94565b905060006104e0846106c0565b905060006104fb6104f460665461ffff1690565b8390610911565b905061051e833061050c8486610dc7565b6001600160a01b03881692919061092c565b6105326001600160a01b038516338361099d565b60405163095ea7b360e01b81526001600160a01b037f0000000000000000000000000000000000000000000000000000000000000000811660048301526024820184905285169063095ea7b390604401602060405180830381600087803b15801561059c57600080fd5b505af11580156105b0573d6000803e3d6000fd5b505050506040513d601f19601f820116820180604052508101906105d49190610ddf565b50604051638a700b5360e01b815260048101869052602481018390527f00000000000000000000000000000000000000000000000000000000000000006001600160a01b031690638a700b5390604401600060405180830381600087803b15801561063e57600080fd5b505af1158015610652573d6000803e3d6000fd5b50506040513392508791507f19795cc98ca16b7ef5c8da6b881e6d974b70b5ac32e61432bae368f9511229aa90600090a35050505050565b6033546001600160a01b031633146106b45760405162461bcd60e51b81526004016102d090610dfc565b6106be60006109cd565b565b60405163d974cc5760e01b81526004810182905260009081906001600160a01b037f0000000000000000000000000000000000000000000000000000000000000000169063d974cc5790602401604080518083038186803b15801561072457600080fd5b505afa158015610738573d6000803e3d6000fd5b505050506040513d601f19601f8201168201806040525081019061075c9190610e31565b6020810151815191925061076f91610dc7565b9392505050565b6033546001600160a01b031633146107a05760405162461bcd60e51b81526004016102d090610dfc565b6107a981610a1f565b50565b600054610100900460ff166107c75760005460ff16156107cb565b303b155b61082e5760405162461bcd60e51b815260206004820152602e60248201527f496e697469616c697a61626c653a20636f6e747261637420697320616c72656160448201526d191e481a5b9a5d1a585b1a5e995960921b60648201526084016102d0565b600054610100900460ff16158015610850576000805461ffff19166101011790555b610859826109cd565b61086283610a1f565b8015610874576000805461ff00191690555b505050565b6033546001600160a01b031633146108a35760405162461bcd60e51b81526004016102d090610dfc565b6001600160a01b0381166109085760405162461bcd60e51b815260206004820152602660248201527f4f776e61626c653a206e6577206f776e657220697320746865207a65726f206160448201526564647265737360d01b60648201526084016102d0565b6107a9816109cd565b6000610923838361ffff166002610a88565b90505b92915050565b6040516001600160a01b03808516602483015283166044820152606481018290526109979085906323b872dd60e01b906084015b60408051601f198184030181529190526020810180516001600160e01b03166001600160e01b031990931692909217909152610aaf565b50505050565b6040516001600160a01b03831660248201526044810182905261087490849063a9059cbb60e01b90606401610960565b603380546001600160a01b038381166001600160a01b0319831681179093556040519116919082907f8be0079c531659141344cd1fd0a4f28419497f9722a3daafe3b4186f6b6457e090600090a35050565b60665461ffff82811691161415610a335750565b6066805461ffff83811661ffff198316811790935560408051938452911660208301819052917f9ea45a732f370dc854e5140c35197eab50d654de8b22b87766b50cc29c7c9cb3910160405180910390a15050565b6000610a9382610b81565b610a9d8486610e8e565b610aa79190610ead565b949350505050565b6000610b04826040518060400160405280602081526020017f5361666545524332303a206c6f772d6c6576656c2063616c6c206661696c6564815250856001600160a01b0316610b999092919063ffffffff16565b8051909150156108745780806020019051810190610b229190610ddf565b6108745760405162461bcd60e51b815260206004820152602a60248201527f5361666545524332303a204552433230206f7065726174696f6e20646964206e6044820152691bdd081cdd58d8d9595960b21b60648201526084016102d0565b6000610b8e82600a610fb3565b610926906064610e8e565b6060610aa78484600085856001600160a01b0385163b610bfb5760405162461bcd60e51b815260206004820152601d60248201527f416464726573733a2063616c6c20746f206e6f6e2d636f6e747261637400000060448201526064016102d0565b600080866001600160a01b03168587604051610c179190610feb565b60006040518083038185875af1925050503d8060008114610c54576040519150601f19603f3d011682016040523d82523d6000602084013e610c59565b606091505b5091509150610c69828286610c74565b979650505050505050565b60608315610c8357508161076f565b825115610c935782518084602001fd5b8160405162461bcd60e51b81526004016102d09190611007565b80151581146107a957600080fd5b60008060408385031215610cce57600080fd5b823591506020830135610ce081610cad565b809150509250929050565b600060208284031215610cfd57600080fd5b5035919050565b803561ffff81168114610d1657600080fd5b919050565b600060208284031215610d2d57600080fd5b61092382610d04565b6001600160a01b03811681146107a957600080fd5b60008060408385031215610d5e57600080fd5b610d6783610d04565b91506020830135610ce081610d36565b600060208284031215610d8957600080fd5b813561076f81610d36565b600060208284031215610da657600080fd5b815161076f81610d36565b634e487b7160e01b600052601160045260246000fd5b60008219821115610dda57610dda610db1565b500190565b600060208284031215610df157600080fd5b815161076f81610cad565b6020808252818101527f4f776e61626c653a2063616c6c6572206973206e6f7420746865206f776e6572604082015260600190565b600060408284031215610e4357600080fd5b6040516040810181811067ffffffffffffffff82111715610e7457634e487b7160e01b600052604160045260246000fd5b604052825181526020928301519281019290925250919050565b6000816000190483118215151615610ea857610ea8610db1565b500290565b600082610eca57634e487b7160e01b600052601260045260246000fd5b500490565b600181815b80851115610f0a578160001904821115610ef057610ef0610db1565b80851615610efd57918102915b93841c9390800290610ed4565b509250929050565b600082610f2157506001610926565b81610f2e57506000610926565b8160018114610f445760028114610f4e57610f6a565b6001915050610926565b60ff841115610f5f57610f5f610db1565b50506001821b610926565b5060208310610133831016604e8410600b8410161715610f8d575081810a610926565b610f978383610ecf565b8060001904821115610fab57610fab610db1565b029392505050565b60006109238383610f12565b60005b83811015610fda578181015183820152602001610fc2565b838111156109975750506000910152565b60008251610ffd818460208701610fbf565b9190910192915050565b6020815260008251806020840152611026816040850160208701610fbf565b601f01601f1916919091016040019291505056fea264697066735822122099bc70203ed753ec53f461a8906fd99b347419e1b87817dcb87789dc63a4e7b364736f6c63430008090033",
  "devdoc": {
    "details": "Helper contract to autopay loans",
    "events": {
      "AutoPaidLoanMinimum(uint256,address)": {
        "params": {
          "bidId": "The id of the bid/loan which was repaid.",
          "msgsender": "The account that called the method"
        }
      },
      "AutoPayEnabled(uint256,bool)": {
        "params": {
          "bidId": "The id of the bid/loan.",
          "enabled": "Whether the autopayments are enabled or disabled"
        }
      },
      "AutopayFeeSet(uint16,uint16)": {
        "params": {
          "newFee": "The new autopay fee set.",
          "oldFee": "The previously set autopay fee."
        }
      }
    },
    "kind": "dev",
    "methods": {
      "autoPayLoanMinimum(uint256)": {
        "params": {
          "_bidId": "The id of the bid to repay."
        }
      },
      "initialize(uint16,address)": {
        "params": {
          "_fee": "The fee collected for automatic payment processing.",
          "_owner": "The address of the ownership to be transferred to."
        }
      },
      "owner()": {
        "details": "Returns the address of the current owner."
      },
      "renounceOwnership()": {
        "details": "Leaves the contract without owner. It will not be possible to call `onlyOwner` functions anymore. Can only be called by the current owner. NOTE: Renouncing ownership will leave the contract without an owner, thereby removing any functionality that is only available to the owner."
      },
      "setAutoPayEnabled(uint256,bool)": {
        "params": {
          "_autoPayEnabled": "boolean for allowing autopay on a loan",
          "_bidId": "The id of the bid to cancel."
        }
      },
      "setAutopayFee(uint16)": {
        "params": {
          "_newFee": "The new autopay fee to set."
        }
      },
      "transferOwnership(address)": {
        "details": "Transfers ownership of the contract to a new account (`newOwner`). Can only be called by the current owner."
      }
    },
    "version": 1
  },
  "userdoc": {
    "events": {
      "AutoPaidLoanMinimum(uint256,address)": {
        "notice": "This event is emitted when a loan is autopaid."
      },
      "AutoPayEnabled(uint256,bool)": {
        "notice": "This event is emitted when loan autopayments are enabled or disabled."
      },
      "AutopayFeeSet(uint16,uint16)": {
        "notice": "This event is emitted when the autopay fee has been updated."
      }
    },
    "kind": "user",
    "methods": {
      "autoPayLoanMinimum(uint256)": {
        "notice": "Function for a minimum autopayment to be performed on a loan"
      },
      "getAutopayFee()": {
        "notice": "Returns the current autopay fee."
      },
      "initialize(uint16,address)": {
        "notice": "Initialized the proxy."
      },
      "setAutoPayEnabled(uint256,bool)": {
        "notice": "Function for a borrower to enable or disable autopayments"
      },
      "setAutopayFee(uint16)": {
        "notice": "Let the owner of the contract set a new autopay fee."
      }
    },
    "version": 1
  },
  "storageLayout": {
    "storage": [
      {
        "astId": 1617,
        "contract": "contracts/TellerV2Autopay.sol:TellerV2Autopay",
        "label": "_initialized",
        "offset": 0,
        "slot": "0",
        "type": "t_bool"
      },
      {
        "astId": 1620,
        "contract": "contracts/TellerV2Autopay.sol:TellerV2Autopay",
        "label": "_initializing",
        "offset": 1,
        "slot": "0",
        "type": "t_bool"
      },
      {
        "astId": 2157,
        "contract": "contracts/TellerV2Autopay.sol:TellerV2Autopay",
        "label": "__gap",
        "offset": 0,
        "slot": "1",
        "type": "t_array(t_uint256)50_storage"
      },
      {
        "astId": 1309,
        "contract": "contracts/TellerV2Autopay.sol:TellerV2Autopay",
        "label": "_owner",
        "offset": 0,
        "slot": "51",
        "type": "t_address"
      },
      {
        "astId": 1421,
        "contract": "contracts/TellerV2Autopay.sol:TellerV2Autopay",
        "label": "__gap",
        "offset": 0,
        "slot": "52",
        "type": "t_array(t_uint256)49_storage"
      },
      {
        "astId": 14019,
        "contract": "contracts/TellerV2Autopay.sol:TellerV2Autopay",
        "label": "loanAutoPayEnabled",
        "offset": 0,
        "slot": "101",
        "type": "t_mapping(t_uint256,t_bool)"
      },
      {
        "astId": 14021,
        "contract": "contracts/TellerV2Autopay.sol:TellerV2Autopay",
        "label": "_autopayFee",
        "offset": 0,
        "slot": "102",
        "type": "t_uint16"
      }
    ],
    "types": {
      "t_address": {
        "encoding": "inplace",
        "label": "address",
        "numberOfBytes": "20"
      },
      "t_array(t_uint256)49_storage": {
        "base": "t_uint256",
        "encoding": "inplace",
        "label": "uint256[49]",
        "numberOfBytes": "1568"
      },
      "t_array(t_uint256)50_storage": {
        "base": "t_uint256",
        "encoding": "inplace",
        "label": "uint256[50]",
        "numberOfBytes": "1600"
      },
      "t_bool": {
        "encoding": "inplace",
        "label": "bool",
        "numberOfBytes": "1"
      },
      "t_mapping(t_uint256,t_bool)": {
        "encoding": "mapping",
        "key": "t_uint256",
        "label": "mapping(uint256 => bool)",
        "numberOfBytes": "32",
        "value": "t_bool"
      },
      "t_uint16": {
        "encoding": "inplace",
        "label": "uint16",
        "numberOfBytes": "2"
      },
      "t_uint256": {
        "encoding": "inplace",
        "label": "uint256",
        "numberOfBytes": "32"
      }
    }
  }
}