{
  "address": "0x2551A099129ad9b0b1FEc16f34D9CB73c237be8b",
  "abi": [
    {
      "inputs": [
        {
          "internalType": "address",
          "name": "trustedForwarder",
          "type": "address"
        }
      ],
      "stateMutability": "nonpayable",
      "type": "constructor"
    },
    {
      "inputs": [
        {
          "internalType": "uint256",
          "name": "bidId",
          "type": "uint256"
        },
        {
          "internalType": "string",
          "name": "action",
          "type": "string"
        },
        {
          "internalType": "string",
          "name": "message",
          "type": "string"
        }
      ],
      "name": "ActionNotAllowed",
      "type": "error"
    },
    {
      "inputs": [
        {
          "internalType": "uint256",
          "name": "bidId",
          "type": "uint256"
        },
        {
          "internalType": "uint256",
          "name": "payment",
          "type": "uint256"
        },
        {
          "internalType": "uint256",
          "name": "minimumOwed",
          "type": "uint256"
        }
      ],
      "name": "PaymentNotMinimum",
      "type": "error"
    },
    {
      "anonymous": false,
      "inputs": [
        {
          "indexed": true,
          "internalType": "uint256",
          "name": "bidId",
          "type": "uint256"
        },
        {
          "indexed": true,
          "internalType": "address",
          "name": "lender",
          "type": "address"
        }
      ],
      "name": "AcceptedBid",
      "type": "event"
    },
    {
      "anonymous": false,
      "inputs": [
        {
          "indexed": true,
          "internalType": "uint256",
          "name": "bidId",
          "type": "uint256"
        }
      ],
      "name": "CancelledBid",
      "type": "event"
    },
    {
      "anonymous": false,
      "inputs": [
        {
          "indexed": true,
          "internalType": "uint256",
          "name": "bidId",
          "type": "uint256"
        },
        {
          "indexed": true,
          "internalType": "string",
          "name": "feeType",
          "type": "string"
        },
        {
          "indexed": true,
          "internalType": "uint256",
          "name": "amount",
          "type": "uint256"
        }
      ],
      "name": "FeePaid",
      "type": "event"
    },
    {
      "anonymous": false,
      "inputs": [
        {
          "indexed": false,
          "internalType": "uint8",
          "name": "version",
          "type": "uint8"
        }
      ],
      "name": "Initialized",
      "type": "event"
    },
    {
      "anonymous": false,
      "inputs": [
        {
          "indexed": true,
          "internalType": "uint256",
          "name": "bidId",
          "type": "uint256"
        },
        {
          "indexed": true,
          "internalType": "address",
          "name": "liquidator",
          "type": "address"
        }
      ],
      "name": "LoanLiquidated",
      "type": "event"
    },
    {
      "anonymous": false,
      "inputs": [
        {
          "indexed": true,
          "internalType": "uint256",
          "name": "bidId",
          "type": "uint256"
        }
      ],
      "name": "LoanRepaid",
      "type": "event"
    },
    {
      "anonymous": false,
      "inputs": [
        {
          "indexed": true,
          "internalType": "uint256",
          "name": "bidId",
          "type": "uint256"
        }
      ],
      "name": "LoanRepayment",
      "type": "event"
    },
    {
      "anonymous": false,
      "inputs": [
        {
          "indexed": true,
          "internalType": "uint256",
          "name": "marketId",
          "type": "uint256"
        },
        {
          "indexed": true,
          "internalType": "address",
          "name": "forwarder",
          "type": "address"
        },
        {
          "indexed": false,
          "internalType": "address",
          "name": "sender",
          "type": "address"
        }
      ],
      "name": "MarketForwarderApproved",
      "type": "event"
    },
    {
      "anonymous": false,
      "inputs": [
        {
          "indexed": true,
          "internalType": "uint256",
          "name": "bidId",
          "type": "uint256"
        }
      ],
      "name": "MarketOwnerCancelledBid",
      "type": "event"
    },
    {
      "anonymous": false,
      "inputs": [
        {
          "indexed": true,
          "internalType": "address",
          "name": "previousOwner",
          "type": "address"
        },
        {
          "indexed": true,
          "internalType": "address",
          "name": "newOwner",
          "type": "address"
        }
      ],
      "name": "OwnershipTransferred",
      "type": "event"
    },
    {
      "anonymous": false,
      "inputs": [
        {
          "indexed": false,
          "internalType": "address",
          "name": "account",
          "type": "address"
        }
      ],
      "name": "Paused",
      "type": "event"
    },
    {
      "anonymous": false,
      "inputs": [
        {
          "indexed": false,
          "internalType": "uint16",
          "name": "newFee",
          "type": "uint16"
        },
        {
          "indexed": false,
          "internalType": "uint16",
          "name": "oldFee",
          "type": "uint16"
        }
      ],
      "name": "ProtocolFeeSet",
      "type": "event"
    },
    {
      "anonymous": false,
      "inputs": [
        {
          "indexed": true,
          "internalType": "uint256",
          "name": "bidId",
          "type": "uint256"
        },
        {
          "indexed": true,
          "internalType": "address",
          "name": "borrower",
          "type": "address"
        },
        {
          "indexed": false,
          "internalType": "address",
          "name": "receiver",
          "type": "address"
        },
        {
          "indexed": true,
          "internalType": "bytes32",
          "name": "metadataURI",
          "type": "bytes32"
        }
      ],
      "name": "SubmittedBid",
      "type": "event"
    },
    {
      "anonymous": false,
      "inputs": [
        {
          "indexed": true,
          "internalType": "uint256",
          "name": "marketId",
          "type": "uint256"
        },
        {
          "indexed": false,
          "internalType": "address",
          "name": "forwarder",
          "type": "address"
        },
        {
          "indexed": false,
          "internalType": "address",
          "name": "sender",
          "type": "address"
        }
      ],
      "name": "TrustedMarketForwarderSet",
      "type": "event"
    },
    {
      "anonymous": false,
      "inputs": [
        {
          "indexed": false,
          "internalType": "address",
          "name": "account",
          "type": "address"
        }
      ],
      "name": "Unpaused",
      "type": "event"
    },
    {
      "inputs": [],
      "name": "CURRENT_CODE_VERSION",
      "outputs": [
        {
          "internalType": "uint8",
          "name": "",
          "type": "uint8"
        }
      ],
      "stateMutability": "view",
      "type": "function"
    },
    {
      "inputs": [],
      "name": "LIQUIDATION_DELAY",
      "outputs": [
        {
          "internalType": "uint32",
          "name": "",
          "type": "uint32"
        }
      ],
      "stateMutability": "view",
      "type": "function"
    },
    {
      "inputs": [
        {
          "internalType": "address",
          "name": "",
          "type": "address"
        }
      ],
      "name": "__lenderVolumeFilled",
      "outputs": [
        {
          "internalType": "uint256",
          "name": "",
          "type": "uint256"
        }
      ],
      "stateMutability": "view",
      "type": "function"
    },
    {
      "inputs": [],
      "name": "__totalVolumeFilled",
      "outputs": [
        {
          "internalType": "uint256",
          "name": "",
          "type": "uint256"
        }
      ],
      "stateMutability": "view",
      "type": "function"
    },
    {
      "inputs": [
        {
          "internalType": "uint256",
          "name": "_marketId",
          "type": "uint256"
        },
        {
          "internalType": "address",
          "name": "_forwarder",
          "type": "address"
        }
      ],
      "name": "approveMarketForwarder",
      "outputs": [],
      "stateMutability": "nonpayable",
      "type": "function"
    },
    {
      "inputs": [
        {
          "internalType": "uint256",
          "name": "",
          "type": "uint256"
        }
      ],
      "name": "bidDefaultDuration",
      "outputs": [
        {
          "internalType": "uint32",
          "name": "",
          "type": "uint32"
        }
      ],
      "stateMutability": "view",
      "type": "function"
    },
    {
      "inputs": [
        {
          "internalType": "uint256",
          "name": "",
          "type": "uint256"
        }
      ],
      "name": "bidExpirationTime",
      "outputs": [
        {
          "internalType": "uint32",
          "name": "",
          "type": "uint32"
        }
      ],
      "stateMutability": "view",
      "type": "function"
    },
    {
      "inputs": [],
      "name": "bidId",
      "outputs": [
        {
          "internalType": "uint256",
          "name": "",
          "type": "uint256"
        }
      ],
      "stateMutability": "view",
      "type": "function"
    },
    {
      "inputs": [
        {
          "internalType": "uint256",
          "name": "",
          "type": "uint256"
        }
      ],
      "name": "bidPaymentCycleType",
      "outputs": [
        {
          "internalType": "enum PaymentCycleType",
          "name": "",
          "type": "uint8"
        }
      ],
      "stateMutability": "view",
      "type": "function"
    },
    {
      "inputs": [
        {
          "internalType": "uint256",
          "name": "",
          "type": "uint256"
        }
      ],
      "name": "bids",
      "outputs": [
        {
          "internalType": "address",
          "name": "borrower",
          "type": "address"
        },
        {
          "internalType": "address",
          "name": "receiver",
          "type": "address"
        },
        {
          "internalType": "address",
          "name": "lender",
          "type": "address"
        },
        {
          "internalType": "uint256",
          "name": "marketplaceId",
          "type": "uint256"
        },
        {
          "internalType": "bytes32",
          "name": "_metadataURI",
          "type": "bytes32"
        },
        {
          "components": [
            {
              "internalType": "contract ERC20",
              "name": "lendingToken",
              "type": "address"
            },
            {
              "internalType": "uint256",
              "name": "principal",
              "type": "uint256"
            },
            {
              "components": [
                {
                  "internalType": "uint256",
                  "name": "principal",
                  "type": "uint256"
                },
                {
                  "internalType": "uint256",
                  "name": "interest",
                  "type": "uint256"
                }
              ],
              "internalType": "struct Payment",
              "name": "totalRepaid",
              "type": "tuple"
            },
            {
              "internalType": "uint32",
              "name": "timestamp",
              "type": "uint32"
            },
            {
              "internalType": "uint32",
              "name": "acceptedTimestamp",
              "type": "uint32"
            },
            {
              "internalType": "uint32",
              "name": "lastRepaidTimestamp",
              "type": "uint32"
            },
            {
              "internalType": "uint32",
              "name": "loanDuration",
              "type": "uint32"
            }
          ],
          "internalType": "struct LoanDetails",
          "name": "loanDetails",
          "type": "tuple"
        },
        {
          "components": [
            {
              "internalType": "uint256",
              "name": "paymentCycleAmount",
              "type": "uint256"
            },
            {
              "internalType": "uint32",
              "name": "paymentCycle",
              "type": "uint32"
            },
            {
              "internalType": "uint16",
              "name": "APR",
              "type": "uint16"
            }
          ],
          "internalType": "struct Terms",
          "name": "terms",
          "type": "tuple"
        },
        {
          "internalType": "enum BidState",
          "name": "state",
          "type": "uint8"
        },
        {
          "internalType": "enum PaymentType",
          "name": "paymentType",
          "type": "uint8"
        }
      ],
      "stateMutability": "view",
      "type": "function"
    },
    {
      "inputs": [
        {
          "internalType": "address",
          "name": "",
          "type": "address"
        },
        {
          "internalType": "uint256",
          "name": "",
          "type": "uint256"
        }
      ],
      "name": "borrowerBids",
      "outputs": [
        {
          "internalType": "uint256",
          "name": "",
          "type": "uint256"
        }
      ],
      "stateMutability": "view",
      "type": "function"
    },
    {
      "inputs": [
        {
          "internalType": "uint256",
          "name": "_bidId",
          "type": "uint256"
        },
        {
          "internalType": "uint256",
          "name": "_timestamp",
          "type": "uint256"
        }
      ],
      "name": "calculateAmountDue",
      "outputs": [
        {
          "components": [
            {
              "internalType": "uint256",
              "name": "principal",
              "type": "uint256"
            },
            {
              "internalType": "uint256",
              "name": "interest",
              "type": "uint256"
            }
          ],
          "internalType": "struct Payment",
          "name": "due",
          "type": "tuple"
        }
      ],
      "stateMutability": "view",
      "type": "function"
    },
    {
      "inputs": [
        {
          "internalType": "uint256",
          "name": "_bidId",
          "type": "uint256"
        }
      ],
      "name": "calculateAmountDue",
      "outputs": [
        {
          "components": [
            {
              "internalType": "uint256",
              "name": "principal",
              "type": "uint256"
            },
            {
              "internalType": "uint256",
              "name": "interest",
              "type": "uint256"
            }
          ],
          "internalType": "struct Payment",
          "name": "due",
          "type": "tuple"
        }
      ],
      "stateMutability": "view",
      "type": "function"
    },
    {
      "inputs": [
        {
          "internalType": "uint256",
          "name": "_bidId",
          "type": "uint256"
        },
        {
          "internalType": "uint256",
          "name": "_timestamp",
          "type": "uint256"
        }
      ],
      "name": "calculateAmountOwed",
      "outputs": [
        {
          "components": [
            {
              "internalType": "uint256",
              "name": "principal",
              "type": "uint256"
            },
            {
              "internalType": "uint256",
              "name": "interest",
              "type": "uint256"
            }
          ],
          "internalType": "struct Payment",
          "name": "owed",
          "type": "tuple"
        }
      ],
      "stateMutability": "view",
      "type": "function"
    },
    {
      "inputs": [
        {
          "internalType": "uint256",
          "name": "_bidId",
          "type": "uint256"
        }
      ],
      "name": "calculateAmountOwed",
      "outputs": [
        {
          "components": [
            {
              "internalType": "uint256",
              "name": "principal",
              "type": "uint256"
            },
            {
              "internalType": "uint256",
              "name": "interest",
              "type": "uint256"
            }
          ],
          "internalType": "struct Payment",
          "name": "owed",
          "type": "tuple"
        }
      ],
      "stateMutability": "view",
      "type": "function"
    },
    {
      "inputs": [
        {
          "internalType": "uint256",
          "name": "_bidId",
          "type": "uint256"
        }
      ],
      "name": "calculateNextDueDate",
      "outputs": [
        {
          "internalType": "uint32",
          "name": "dueDate_",
          "type": "uint32"
        }
      ],
      "stateMutability": "view",
      "type": "function"
    },
    {
      "inputs": [
        {
          "internalType": "uint256",
          "name": "_bidId",
          "type": "uint256"
        }
      ],
      "name": "cancelBid",
      "outputs": [],
      "stateMutability": "nonpayable",
      "type": "function"
    },
    {
      "inputs": [
        {
          "internalType": "uint256",
          "name": "_bidId",
          "type": "uint256"
        }
      ],
      "name": "claimLoanNFT",
      "outputs": [],
      "stateMutability": "nonpayable",
      "type": "function"
    },
    {
      "inputs": [],
      "name": "collateralManager",
      "outputs": [
        {
          "internalType": "contract ICollateralManager",
          "name": "",
          "type": "address"
        }
      ],
      "stateMutability": "view",
      "type": "function"
    },
    {
      "inputs": [
        {
          "internalType": "uint256",
          "name": "_bidId",
          "type": "uint256"
        }
      ],
      "name": "getBidState",
      "outputs": [
        {
          "internalType": "enum BidState",
          "name": "",
          "type": "uint8"
        }
      ],
      "stateMutability": "view",
      "type": "function"
    },
    {
      "inputs": [
        {
          "internalType": "address",
          "name": "_borrower",
          "type": "address"
        }
      ],
      "name": "getBorrowerActiveLoanIds",
      "outputs": [
        {
          "internalType": "uint256[]",
          "name": "",
          "type": "uint256[]"
        }
      ],
      "stateMutability": "view",
      "type": "function"
    },
    {
      "inputs": [
        {
          "internalType": "address",
          "name": "_borrower",
          "type": "address"
        }
      ],
      "name": "getBorrowerLoanIds",
      "outputs": [
        {
          "internalType": "uint256[]",
          "name": "",
          "type": "uint256[]"
        }
      ],
      "stateMutability": "view",
      "type": "function"
    },
    {
      "inputs": [
        {
          "internalType": "uint256",
          "name": "_bidId",
          "type": "uint256"
        }
      ],
      "name": "getLoanBorrower",
      "outputs": [
        {
          "internalType": "address",
          "name": "borrower_",
          "type": "address"
        }
      ],
      "stateMutability": "view",
      "type": "function"
    },
    {
      "inputs": [
        {
          "internalType": "uint256",
          "name": "_bidId",
          "type": "uint256"
        }
      ],
      "name": "getLoanLender",
      "outputs": [
        {
          "internalType": "address",
          "name": "lender_",
          "type": "address"
        }
      ],
      "stateMutability": "view",
      "type": "function"
    },
    {
      "inputs": [
        {
          "internalType": "uint256",
          "name": "_bidId",
          "type": "uint256"
        }
      ],
      "name": "getLoanLendingToken",
      "outputs": [
        {
          "internalType": "address",
          "name": "token_",
          "type": "address"
        }
      ],
      "stateMutability": "view",
      "type": "function"
    },
    {
      "inputs": [
        {
          "internalType": "uint256",
          "name": "_bidId",
          "type": "uint256"
        }
      ],
      "name": "getLoanMarketId",
      "outputs": [
        {
          "internalType": "uint256",
          "name": "_marketId",
          "type": "uint256"
        }
      ],
      "stateMutability": "view",
      "type": "function"
    },
    {
      "inputs": [
        {
          "internalType": "uint256",
          "name": "_bidId",
          "type": "uint256"
        }
      ],
      "name": "getLoanSummary",
      "outputs": [
        {
          "internalType": "address",
          "name": "borrower",
          "type": "address"
        },
        {
          "internalType": "address",
          "name": "lender",
          "type": "address"
        },
        {
          "internalType": "uint256",
          "name": "marketId",
          "type": "uint256"
        },
        {
          "internalType": "address",
          "name": "principalTokenAddress",
          "type": "address"
        },
        {
          "internalType": "uint256",
          "name": "principalAmount",
          "type": "uint256"
        },
        {
          "internalType": "uint32",
          "name": "acceptedTimestamp",
          "type": "uint32"
        },
        {
          "internalType": "enum BidState",
          "name": "bidState",
          "type": "uint8"
        }
      ],
      "stateMutability": "view",
      "type": "function"
    },
    {
      "inputs": [
        {
          "internalType": "uint256",
          "name": "_bidId",
          "type": "uint256"
        }
      ],
      "name": "getMetadataURI",
      "outputs": [
        {
          "internalType": "string",
          "name": "metadataURI_",
          "type": "string"
        }
      ],
      "stateMutability": "view",
      "type": "function"
    },
    {
      "inputs": [
        {
          "internalType": "uint256",
          "name": "_marketId",
          "type": "uint256"
        },
        {
          "internalType": "address",
          "name": "_forwarder",
          "type": "address"
        },
        {
          "internalType": "address",
          "name": "_account",
          "type": "address"
        }
      ],
      "name": "hasApprovedMarketForwarder",
      "outputs": [
        {
          "internalType": "bool",
          "name": "",
          "type": "bool"
        }
      ],
      "stateMutability": "view",
      "type": "function"
    },
    {
      "inputs": [
        {
          "internalType": "uint16",
          "name": "_protocolFee",
          "type": "uint16"
        },
        {
          "internalType": "address",
          "name": "_marketRegistry",
          "type": "address"
        },
        {
          "internalType": "address",
          "name": "_reputationManager",
          "type": "address"
        },
        {
          "internalType": "address",
          "name": "_lenderCommitmentForwarder",
          "type": "address"
        },
        {
          "internalType": "address",
          "name": "_collateralManager",
          "type": "address"
        },
        {
          "internalType": "address",
          "name": "_lenderManager",
          "type": "address"
        }
      ],
      "name": "initialize",
      "outputs": [],
      "stateMutability": "nonpayable",
      "type": "function"
    },
    {
      "inputs": [
        {
          "internalType": "uint256",
          "name": "_bidId",
          "type": "uint256"
        }
      ],
      "name": "isLoanDefaulted",
      "outputs": [
        {
          "internalType": "bool",
          "name": "",
          "type": "bool"
        }
      ],
      "stateMutability": "view",
      "type": "function"
    },
    {
      "inputs": [
        {
          "internalType": "uint256",
          "name": "_bidId",
          "type": "uint256"
        }
      ],
      "name": "isLoanExpired",
      "outputs": [
        {
          "internalType": "bool",
          "name": "",
          "type": "bool"
        }
      ],
      "stateMutability": "view",
      "type": "function"
    },
    {
      "inputs": [
        {
          "internalType": "uint256",
          "name": "_bidId",
          "type": "uint256"
        }
      ],
      "name": "isLoanLiquidateable",
      "outputs": [
        {
          "internalType": "bool",
          "name": "",
          "type": "bool"
        }
      ],
      "stateMutability": "view",
      "type": "function"
    },
    {
      "inputs": [
        {
          "internalType": "uint256",
          "name": "_bidId",
          "type": "uint256"
        }
      ],
      "name": "isPaymentLate",
      "outputs": [
        {
          "internalType": "bool",
          "name": "",
          "type": "bool"
        }
      ],
      "stateMutability": "view",
      "type": "function"
    },
    {
      "inputs": [
        {
          "internalType": "address",
          "name": "forwarder",
          "type": "address"
        }
      ],
      "name": "isTrustedForwarder",
      "outputs": [
        {
          "internalType": "bool",
          "name": "",
          "type": "bool"
        }
      ],
      "stateMutability": "view",
      "type": "function"
    },
    {
      "inputs": [
        {
          "internalType": "uint256",
          "name": "_marketId",
          "type": "uint256"
        },
        {
          "internalType": "address",
          "name": "_trustedMarketForwarder",
          "type": "address"
        }
      ],
      "name": "isTrustedMarketForwarder",
      "outputs": [
        {
          "internalType": "bool",
          "name": "",
          "type": "bool"
        }
      ],
      "stateMutability": "view",
      "type": "function"
    },
    {
      "inputs": [
        {
          "internalType": "uint256",
          "name": "_bidId",
          "type": "uint256"
        }
      ],
      "name": "lastRepaidTimestamp",
      "outputs": [
        {
          "internalType": "uint32",
          "name": "",
          "type": "uint32"
        }
      ],
      "stateMutability": "view",
      "type": "function"
    },
    {
      "inputs": [
        {
          "internalType": "uint256",
          "name": "_bidId",
          "type": "uint256"
        }
      ],
      "name": "lenderAcceptBid",
      "outputs": [
        {
          "internalType": "uint256",
          "name": "amountToProtocol",
          "type": "uint256"
        },
        {
          "internalType": "uint256",
          "name": "amountToMarketplace",
          "type": "uint256"
        },
        {
          "internalType": "uint256",
          "name": "amountToBorrower",
          "type": "uint256"
        }
      ],
      "stateMutability": "nonpayable",
      "type": "function"
    },
    {
      "inputs": [],
      "name": "lenderCommitmentForwarder",
      "outputs": [
        {
          "internalType": "address",
          "name": "",
          "type": "address"
        }
      ],
      "stateMutability": "view",
      "type": "function"
    },
    {
      "inputs": [],
      "name": "lenderManager",
      "outputs": [
        {
          "internalType": "contract ILenderManager",
          "name": "",
          "type": "address"
        }
      ],
      "stateMutability": "view",
      "type": "function"
    },
    {
      "inputs": [
        {
          "internalType": "address",
          "name": "",
          "type": "address"
        },
        {
          "internalType": "address",
          "name": "",
          "type": "address"
        }
      ],
      "name": "lenderVolumeFilled",
      "outputs": [
        {
          "internalType": "uint256",
          "name": "",
          "type": "uint256"
        }
      ],
      "stateMutability": "view",
      "type": "function"
    },
    {
      "inputs": [
        {
          "internalType": "uint256",
          "name": "_bidId",
          "type": "uint256"
        }
      ],
      "name": "liquidateLoanFull",
      "outputs": [],
      "stateMutability": "nonpayable",
      "type": "function"
    },
    {
      "inputs": [
        {
          "internalType": "uint256",
          "name": "_bidId",
          "type": "uint256"
        }
      ],
      "name": "marketOwnerCancelBid",
      "outputs": [],
      "stateMutability": "nonpayable",
      "type": "function"
    },
    {
      "inputs": [],
      "name": "marketRegistry",
      "outputs": [
        {
          "internalType": "contract IMarketRegistry",
          "name": "",
          "type": "address"
        }
      ],
      "stateMutability": "view",
      "type": "function"
    },
    {
      "inputs": [],
      "name": "owner",
      "outputs": [
        {
          "internalType": "address",
          "name": "",
          "type": "address"
        }
      ],
      "stateMutability": "view",
      "type": "function"
    },
    {
      "inputs": [],
      "name": "pauseProtocol",
      "outputs": [],
      "stateMutability": "nonpayable",
      "type": "function"
    },
    {
      "inputs": [],
      "name": "paused",
      "outputs": [
        {
          "internalType": "bool",
          "name": "",
          "type": "bool"
        }
      ],
      "stateMutability": "view",
      "type": "function"
    },
    {
      "inputs": [],
      "name": "protocolFee",
      "outputs": [
        {
          "internalType": "uint16",
          "name": "",
          "type": "uint16"
        }
      ],
      "stateMutability": "view",
      "type": "function"
    },
    {
      "inputs": [],
      "name": "renounceOwnership",
      "outputs": [],
      "stateMutability": "nonpayable",
      "type": "function"
    },
    {
      "inputs": [
        {
          "internalType": "uint256",
          "name": "_bidId",
          "type": "uint256"
        },
        {
          "internalType": "uint256",
          "name": "_amount",
          "type": "uint256"
        }
      ],
      "name": "repayLoan",
      "outputs": [],
      "stateMutability": "nonpayable",
      "type": "function"
    },
    {
      "inputs": [
        {
          "internalType": "uint256",
          "name": "_bidId",
          "type": "uint256"
        }
      ],
      "name": "repayLoanFull",
      "outputs": [],
      "stateMutability": "nonpayable",
      "type": "function"
    },
    {
      "inputs": [
        {
          "internalType": "uint256",
          "name": "_bidId",
          "type": "uint256"
        }
      ],
      "name": "repayLoanMinimum",
      "outputs": [],
      "stateMutability": "nonpayable",
      "type": "function"
    },
    {
      "inputs": [],
      "name": "reputationManager",
      "outputs": [
        {
          "internalType": "contract IReputationManager",
          "name": "",
          "type": "address"
        }
      ],
      "stateMutability": "view",
      "type": "function"
    },
    {
      "inputs": [
        {
          "internalType": "address",
          "name": "_lenderManager",
          "type": "address"
        }
      ],
      "name": "setLenderManager",
      "outputs": [],
      "stateMutability": "nonpayable",
      "type": "function"
    },
    {
      "inputs": [
        {
          "internalType": "uint16",
          "name": "newFee",
          "type": "uint16"
        }
      ],
      "name": "setProtocolFee",
      "outputs": [],
      "stateMutability": "nonpayable",
      "type": "function"
    },
    {
      "inputs": [
        {
          "internalType": "address",
          "name": "_reputationManager",
          "type": "address"
        }
      ],
      "name": "setReputationManager",
      "outputs": [],
      "stateMutability": "nonpayable",
      "type": "function"
    },
    {
      "inputs": [
        {
          "internalType": "uint256",
          "name": "_marketId",
          "type": "uint256"
        },
        {
          "internalType": "address",
          "name": "_forwarder",
          "type": "address"
        }
      ],
      "name": "setTrustedMarketForwarder",
      "outputs": [],
      "stateMutability": "nonpayable",
      "type": "function"
    },
    {
      "inputs": [
        {
          "internalType": "address",
          "name": "_lendingToken",
          "type": "address"
        },
        {
          "internalType": "uint256",
          "name": "_marketplaceId",
          "type": "uint256"
        },
        {
          "internalType": "uint256",
          "name": "_principal",
          "type": "uint256"
        },
        {
          "internalType": "uint32",
          "name": "_duration",
          "type": "uint32"
        },
        {
          "internalType": "uint16",
          "name": "_APR",
          "type": "uint16"
        },
        {
          "internalType": "string",
          "name": "_metadataURI",
          "type": "string"
        },
        {
          "internalType": "address",
          "name": "_receiver",
          "type": "address"
        }
      ],
      "name": "submitBid",
      "outputs": [
        {
          "internalType": "uint256",
          "name": "bidId_",
          "type": "uint256"
        }
      ],
      "stateMutability": "nonpayable",
      "type": "function"
    },
    {
      "inputs": [
        {
          "internalType": "address",
          "name": "_lendingToken",
          "type": "address"
        },
        {
          "internalType": "uint256",
          "name": "_marketplaceId",
          "type": "uint256"
        },
        {
          "internalType": "uint256",
          "name": "_principal",
          "type": "uint256"
        },
        {
          "internalType": "uint32",
          "name": "_duration",
          "type": "uint32"
        },
        {
          "internalType": "uint16",
          "name": "_APR",
          "type": "uint16"
        },
        {
          "internalType": "string",
          "name": "_metadataURI",
          "type": "string"
        },
        {
          "internalType": "address",
          "name": "_receiver",
          "type": "address"
        },
        {
          "components": [
            {
              "internalType": "enum CollateralType",
              "name": "_collateralType",
              "type": "uint8"
            },
            {
              "internalType": "uint256",
              "name": "_amount",
              "type": "uint256"
            },
            {
              "internalType": "uint256",
              "name": "_tokenId",
              "type": "uint256"
            },
            {
              "internalType": "address",
              "name": "_collateralAddress",
              "type": "address"
            }
          ],
          "internalType": "struct Collateral[]",
          "name": "_collateralInfo",
          "type": "tuple[]"
        }
      ],
      "name": "submitBid",
      "outputs": [
        {
          "internalType": "uint256",
          "name": "bidId_",
          "type": "uint256"
        }
      ],
      "stateMutability": "nonpayable",
      "type": "function"
    },
    {
      "inputs": [
        {
          "internalType": "address",
          "name": "",
          "type": "address"
        }
      ],
      "name": "totalVolumeFilled",
      "outputs": [
        {
          "internalType": "uint256",
          "name": "",
          "type": "uint256"
        }
      ],
      "stateMutability": "view",
      "type": "function"
    },
    {
      "inputs": [
        {
          "internalType": "address",
          "name": "newOwner",
          "type": "address"
        }
      ],
      "name": "transferOwnership",
      "outputs": [],
      "stateMutability": "nonpayable",
      "type": "function"
    },
    {
      "inputs": [],
      "name": "unpauseProtocol",
      "outputs": [],
      "stateMutability": "nonpayable",
      "type": "function"
    },
    {
      "inputs": [
        {
          "internalType": "uint256",
          "name": "",
          "type": "uint256"
        }
      ],
      "name": "uris",
      "outputs": [
        {
          "internalType": "string",
          "name": "",
          "type": "string"
        }
      ],
      "stateMutability": "view",
      "type": "function"
    },
    {
      "inputs": [],
      "name": "version",
      "outputs": [
        {
          "internalType": "uint256",
          "name": "",
          "type": "uint256"
        }
      ],
      "stateMutability": "view",
      "type": "function"
    }
  ],
  "transactionHash": "0x1741467199d63d35f0d171dddba99025f9bdd17ac83a96d94680db2edc68ff13",
  "args": [
    "0xF39674F4d3878A732Cb4c70b377C013AffB89C1F"
  ],
  "numDeployments": 3,
  "solcInputHash": "704ec39527d925eea3260ddc4e8d1e8a",
  "bytecode": "0x60a060405260006097553480156200001657600080fd5b5060405162005bc638038062005bc683398101604081905262000039916200004b565b6001600160a01b03166080526200007d565b6000602082840312156200005e57600080fd5b81516001600160a01b03811681146200007657600080fd5b9392505050565b608051615b26620000a06000396000818161080701526141020152615b266000f3fe608060405234801561001057600080fd5b50600436106103d05760003560e01c80636b868afb116101ff578063b0e21e8a1161011a578063dbf62489116100ad578063e8cbab091161007c578063e8cbab0914610b1d578063ecb96fe614610b30578063f2fde38b14610b43578063f93b6be514610b5657600080fd5b8063dbf6248914610a73578063e0d3d58d14610a7b578063e41c22f214610af7578063e4467f3514610b0a57600080fd5b8063bf77ffae116100e9578063bf77ffae14610a07578063d4eda4cf14610a3a578063d87569cc14610a4d578063d974cc5714610a6057600080fd5b8063b0e21e8a146109c2578063ba6d5b15146109d8578063ba971206146109eb578063bde644fb146109f457600080fd5b80638da5cb5b11610192578063a10905ea11610161578063a10905ea1461095b578063a51e2bad1461096e578063a8cb5d6814610981578063ab65ee95146109af57600080fd5b80638da5cb5b14610904578063930fbae1146109155780639703ef35146109355780639a11e3391461094857600080fd5b80637bbd53d7116101ce5780637bbd53d7146108c25780638288da8a146108d55780638a700b53146108e85780638ac47319146108fb57600080fd5b80636b868afb146108815780636c6ca79c14610894578063706a43c3146108a7578063715018a6146108ba57600080fd5b806323be345c116102ef5780634423c5f111610282578063572b6c0511610251578063572b6c05146107f75780635c975abb146108375780636aedfe68146108485780636b76c0851461085b57600080fd5b80634423c5f1146106ac5780634a06f6ea146107c857806354fd4d50146107db57806356a837f4146107e457600080fd5b80633819bcdc116102be5780633819bcdc146106335780633ef0a2f71461064657806340910c701461066f5780634148f94c1461069257600080fd5b806323be345c146105bd5780632519dc79146105d05780632e9332d4146105f0578063367358911461060357600080fd5b80631420a266116103675780631c960764116103365780631c9607641461057a5780631d123633146105845780631fff59d914610597578063206c54c7146105aa57600080fd5b80631420a266146104fb578063145730331461051057806318520f051461055457806319b353de1461056757600080fd5b80631042b85f116103a35780631042b85f1461046d578063106182231461048d5780631253c546146104a0578063127caa88146104c057600080fd5b8063054de0ff146103d557806306f33a92146103fe578063089487b51461041f578063093f56171461044a575b600080fd5b6103e86103e3366004614da6565b610b5e565b6040516103f59190614dc3565b60405180910390f35b61041161040c366004614e72565b610b88565b6040519081526020016103f5565b61041161042d366004614f14565b60a360209081526000928352604080842090915290825290205481565b61045d610458366004614f4d565b610baf565b60405190151581526020016103f5565b61048061047b366004614f66565b610c04565b6040516103f59190614f88565b61045d61049b366004614f4d565b610c9d565b6104b36104ae366004614f4d565b610d33565b6040516103f59190614ff7565b6104e66104ce366004614f4d565b60a26020526000908152604090205463ffffffff1681565b60405163ffffffff90911681526020016103f5565b61050e61050936600461500a565b610dcd565b005b61053c61051e366004614f4d565b6000908152609860205260409020600501546001600160a01b031690565b6040516001600160a01b0390911681526020016103f5565b61050e610562366004614f4d565b610f29565b61045d61057536600461502f565b6110b3565b6104e66201518081565b6103e8610592366004614da6565b6110f2565b61045d6105a5366004614f4d565b61115e565b61050e6105b8366004614f4d565b61116d565b60aa5461053c906001600160a01b031681565b6104116105de366004614da6565b60a46020526000908152604090205481565b61050e6105fe36600461500a565b6112de565b610626610611366004614f4d565b60ac6020526000908152604090205460ff1681565b6040516103f59190615097565b6104116106413660046150aa565b6113c1565b61053c610654366004614f4d565b6000908152609860205260409020546001600160a01b031690565b61041161067d366004614f4d565b60009081526098602052604090206003015490565b61069a600981565b60405160ff90911681526020016103f5565b6107b36106ba366004614f4d565b60986020908152600091825260409182902080546001820154600283015460038401546004850154875160e08101895260058701546001600160a01b0390811682526006880154828a01528951808b018b52600789015481526008890154818b0152828b0152600988015463ffffffff808216606080860191909152600160201b80840483166080870152600160401b8404831660a0870152600160601b909304821660c08601528c519081018d52600a8b01548152600b8b01549182169b81019b909b520461ffff1699890199909952600c909601549488169793841696939092169490939192909160ff8082169161010090041689565b6040516103f5999897969594939291906150f3565b60ab5461053c906001600160a01b031681565b61041160a55481565b61050e6107f2366004614da6565b6113f2565b61045d610805366004614da6565b7f00000000000000000000000000000000000000000000000000000000000000006001600160a01b0390811691161490565b60655462010000900460ff1661045d565b610480610856366004614f66565b61141c565b6104e6610869366004614f4d565b60a16020526000908152604090205463ffffffff1681565b609f5461053c906001600160a01b031681565b6104806108a2366004614f4d565b6114b5565b6104e66108b5366004614f4d565b611535565b61050e611746565b6104116108d03660046151ec565b61175a565b61050e6108e3366004614f4d565b611875565b61050e6108f6366004614f66565b611a60565b61041160975481565b6033546001600160a01b031661053c565b610411610923366004614da6565b609a6020526000908152604090205481565b61050e610943366004614f4d565b611b7c565b61050e610956366004614f4d565b611c31565b61053c610969366004614f4d565b611cf7565b6104e661097c366004614f4d565b611da1565b61099461098f366004614f4d565b611db8565b604080519384526020840192909252908201526060016103f5565b61050e6109bd3660046152ec565b612449565b60655460405161ffff90911681526020016103f5565b60a95461053c906001600160a01b031681565b610411609b5481565b6104b3610a02366004614f4d565b612721565b610a2d610a15366004614f4d565b6000908152609860205260409020600c015460ff1690565b6040516103f5919061536e565b61050e610a48366004614f4d565b612830565b61045d610a5b36600461500a565b6128fb565b610480610a6e366004614f4d565b612935565b61050e6129b5565b610ae4610a89366004614f4d565b6000908152609860205260409020805460028201546003830154600584015460068501546009860154600c909601546001600160a01b0395861697948616969395909216939092600160201b900463ffffffff169160ff1690565b6040516103f5979695949392919061537c565b61050e610b05366004614da6565b6129cd565b61050e610b183660046153c3565b612a76565b61045d610b2b366004614f4d565b612ae0565b609e5461053c906001600160a01b031681565b61050e610b51366004614da6565b612aed565b61050e612b63565b6001600160a01b038116600090815260a060205260409020606090610b8290612b7b565b92915050565b6000610b92612b88565b610ba28989898989898989612bd4565b9998505050505050505050565b600060036000838152609860205260409020600c015460ff166005811115610bd957610bd9615071565b14610be657506000919050565b610bef82611535565b63ffffffff164263ffffffff16119050919050565b604080518082019091526000808252602082015260008381526098602052604090206003600c82015460ff166005811115610c4157610c41615071565b141580610c5f57506009810154600160201b900463ffffffff168311155b15610c6a5750610b82565b600084815260ac60205260408120548190610c8b908490879060ff16613242565b91865250602085015250505092915050565b60008181526098602052604081206001600c82015460ff166005811115610cc657610cc6615071565b14610cd45750600092915050565b600083815260a2602052604090205463ffffffff16610cf65750600092915050565b600083815260a260205260409020546009820154610d1d9163ffffffff90811691166153f6565b63ffffffff164263ffffffff1611915050919050565b60a66020526000908152604090208054610d4c9061541e565b80601f0160208091040260200160405190810160405280929190818152602001828054610d789061541e565b8015610dc55780601f10610d9a57610100808354040283529160200191610dc5565b820191906000526020600020905b815481529060010190602001808311610da857829003601f168201915b505050505081565b610dd5613270565b609e54604051633d36902960e01b8152600481018590526001600160a01b039283169290911690633d3690299060240160206040518083038186803b158015610e1d57600080fd5b505afa158015610e31573d6000803e3d6000fd5b505050506040513d601f19601f82011682018060405250810190610e559190615459565b6001600160a01b031614610eb05760405162461bcd60e51b815260206004820152601f60248201527f43616c6c6572206d75737420626520746865206d61726b6574206f776e65720060448201526064015b60405180910390fd5b600082815260a76020526040902080546001600160a01b0319166001600160a01b038316179055817fa593acf9edc343669c7fc50d2caa3911326adef438361f0fa911be85c9e296a482610f02613270565b604080516001600160a01b0393841681529290911660208301520160405180910390a25050565b60408051808201909152600c81526b18db185a5b531bd85b93919560a21b6020820152819060036000838152609860205260409020600c015460ff166005811115610f7657610f76615071565b14610f985781816040516347bc33cb60e11b8152600401610ea7929190615476565b610fa0612b88565b60008381526098602052604081206003810154909190610fbf9061327f565b60028301549091506001600160a01b038083169116146110215760405162461bcd60e51b815260206004820152601960248201527f6f6e6c79206c656e6465722063616e20636c61696d204e4654000000000000006044820152606401610ea7565b60ab5460405163096c998360e41b8152600481018790526001600160a01b038381166024830152909116906396c9983090604401600060405180830381600087803b15801561106f57600080fd5b505af1158015611083573d6000803e3d6000fd5b505060ab54600290940180546001600160a01b0319166001600160a01b0390951694909417909355505050505050565b60006110bf84846128fb565b80156110e857506001600160a01b038316600090815260a8602052604090206110e8908361332a565b90505b9392505050565b6001600160a01b03811660009081526099602090815260409182902080548351818402810184019094528084526060939283018282801561115257602002820191906000526020600020905b81548152602001906001019080831161113e575b50505050509050919050565b6000610b82826201518061334c565b609e5460008281526098602052604090819020600301549051633d36902960e01b81526001600160a01b0390921691633d369029916111b29160040190815260200190565b60206040518083038186803b1580156111ca57600080fd5b505afa1580156111de573d6000803e3d6000fd5b505050506040513d601f19601f820116820180604052508101906112029190615459565b6001600160a01b0316611213613270565b6001600160a01b0316146112a7576040516347bc33cb60e11b8152600481018290526060602482015260146064820152731b585c9ad95d13dddb995c90d85b98d95b109a5960621b608482015260a06044820152602160a48201527f4f6e6c7920746865206d61726b6574206f776e65722063616e2063616e63656c60c4820152602160f81b60e482015261010401610ea7565b6112b0816133e8565b60405181907ff3f271d754f5264e0d143bf9be577d6eba153b0d833bd3a127d7b1a280bb13f190600090a250565b6112e882826128fb565b6113445760405162461bcd60e51b815260206004820152602760248201527f466f72776172646572206d757374206265207472757374656420627920746865604482015266081b585c9ad95d60ca1b6064820152608401610ea7565b61136d61134f613270565b6001600160a01b038316600090815260a8602052604090209061349c565b50806001600160a01b0316827f65d6b5305e8c0e58e88454a1aeecae0f55975222338b25abd0997b4d305056a16113a2613270565b6040516001600160a01b03909116815260200160405180910390a35050565b609960205281600052604060002081815481106113dd57600080fd5b90600052602060002001600091509150505481565b6113fa6134b1565b609f80546001600160a01b0319166001600160a01b0392909216919091179055565b604080518082018252600080825260208083018290528582526098905291909120600c81015460039060ff16600581111561145957611459615071565b14158061147757506009810154600160201b900463ffffffff168311155b156114825750610b82565b600084815260ac602052604081205481906114a3908490879060ff16613242565b90865260208601525050505092915050565b604080518082019091526000808252602082015260036000838152609860205260409020600c015460ff1660058111156114f1576114f1615071565b146114fb57919050565b600082815260986020908152604080832060ac909252822054829161152491429060ff16613242565b918552506020840152509092915050565b6000818152609860205260408120600c81015460039060ff16600581111561155f5761155f615071565b1461156a5750919050565b600061157584611da1565b90506001600085815260ac602052604090205460ff16600181111561159c5761159c615071565b141561163c5760098201546000906115c59063ffffffff600160201b909104811690841661352a565b60098401549091506115e390600160201b900463ffffffff166135b1565b6115f28363ffffffff166135b1565b111561160a576116036002826154c5565b9050611618565b6116156001826154c5565b90505b600983015461163490600160201b900463ffffffff16826135cb565b9350506116fc565b600084815260ac602052604081205460ff16600181111561165f5761165f615071565b14156116fc57600b82015460098301546116899163ffffffff90811691600160201b9004166153f6565b60098301549093506000906116ab90600160201b900463ffffffff16836154dd565b905063ffffffff8116156116fa57600b8301546000906116d49063ffffffff808516911661369d565b600b8501549091506116ec9063ffffffff1682615502565b6116f690866153f6565b9450505b505b60098201546000906117249063ffffffff600160601b8204811691600160201b9004166153f6565b90508063ffffffff168463ffffffff16111561173e578093505b505050919050565b61174e6134b1565b61175860006136d4565b565b6000611764612b88565b6117748b8b8b8b8b8b8b8b612bd4565b60aa54604051631532dc4560e01b81529192506000916001600160a01b0390911690631532dc45906117ae9085908890889060040161553b565b602060405180830381600087803b1580156117c857600080fd5b505af11580156117dc573d6000803e3d6000fd5b505050506040513d601f19601f8201168201806040525081019061180091906155dc565b90506001811515146118665760405162461bcd60e51b815260206004820152602960248201527f436f6c6c61746572616c2062616c616e636520636f756c64206e6f74206265206044820152681d985b1a59185d195960ba1b6064820152608401610ea7565b509a9950505050505050505050565b60408051808201909152600d81526c3634b8bab4b230ba32a637b0b760991b6020820152819060036000838152609860205260409020600c015460ff1660058111156118c3576118c3615071565b146118e55781816040516347bc33cb60e11b8152600401610ea7929190615476565b6118ee8361115e565b61193a5760405162461bcd60e51b815260206004820152601b60248201527f4c6f616e206d757374206265206c697175696461746561626c652e00000000006044820152606401610ea7565b600083815260986020908152604080832060ac9092528220549091908190611968908490429060ff16613242565b925050915061199986604051806040016040528085815260200184815250838561199291906154c5565b6000613726565b600c8301805460ff1916600517905560038301546000906119b99061327f565b60aa5460405163f0472c4960e01b8152600481018a90526001600160a01b03808416602483015292935091169063f0472c4990604401600060405180830381600087803b158015611a0957600080fd5b505af1158015611a1d573d6000803e3d6000fd5b50506040516001600160a01b03841692508991507f73de9acc561f27528ab0a3b5dd63fefb4e59f95575891299a6f862a78779817690600090a350505050505050565b6040805180820190915260098152683932b830bca637b0b760b91b6020820152829060036000838152609860205260409020600c015460ff166005811115611aaa57611aaa615071565b14611acc5781816040516347bc33cb60e11b8152600401610ea7929190615476565b600084815260986020908152604080832060ac90925282205482918291611af89190429060ff16613242565b919450925090506000611b0b82846154c5565b905080871015611b3e5760405162dd9d0f60e61b8152600481018990526024810188905260448101829052606401610ea7565b611b72886040518060400160405280858b611b5991906155f7565b8152602001859052611b6b85886154c5565b6001613726565b5050505050505050565b600081815260986020526040902080546003909101546001600160a01b0390911690611ba79061327f565b6001600160a01b031614611c25576040516347bc33cb60e11b81526004810182905260606024820152600960648201526818d85b98d95b109a5960ba1b608482015260a06044820152601e60a48201527f4f6e6c792074686520626964206f776e65722063616e2063616e63656c21000060c482015260e401610ea7565b611c2e816133e8565b50565b6040805180820190915260098152683932b830bca637b0b760b91b6020820152819060036000838152609860205260409020600c015460ff166005811115611c7b57611c7b615071565b14611c9d5781816040516347bc33cb60e11b8152600401610ea7929190615476565b600083815260986020908152604080832060ac9092528220548291611cc691429060ff16613242565b9250509150611cf0856040518060400160405280858152602001848152508385611b6b91906154c5565b5050505050565b60008181526098602052604090206002015460ab546001600160a01b039182169116811415611d9c5760ab546040516331a9108f60e11b8152600481018490526001600160a01b0390911690636352211e9060240160206040518083038186803b158015611d6457600080fd5b505afa158015611d78573d6000803e3d6000fd5b505050506040513d601f19601f82011682018060405250810190610b829190615459565b919050565b6000818152609860205260408120610b8290613a0d565b6000806000836040518060400160405280600f81526020016e1b195b99195c9058d8d95c1d109a59608a1b81525060016005811115611df957611df9615071565b6000838152609860205260409020600c015460ff166005811115611e1f57611e1f615071565b14611e415781816040516347bc33cb60e11b8152600401610ea792919061560e565b611e49612b88565b60008681526098602052604081206003810154909190611e689061327f565b609e546003840154604051633ef19a9b60e01b815260048101919091526001600160a01b03808416602483015292935060009290911690633ef19a9b90604401604080518083038186803b158015611ebf57600080fd5b505afa158015611ed3573d6000803e3d6000fd5b505050506040513d601f19601f82011682018060405250810190611ef7919061565b565b50905080611f3d5760405162461bcd60e51b81526020600482015260136024820152722737ba103b32b934b334b2b2103632b73232b960691b6044820152606401610ea7565b609e546003840154604051631cc672df60e01b81526001600160a01b0390921691631cc672df91611f749160040190815260200190565b60206040518083038186803b158015611f8c57600080fd5b505afa158015611fa0573d6000803e3d6000fd5b505050506040513d601f19601f82011682018060405250810190611fc491906155dc565b156120045760405162461bcd60e51b815260206004820152601060248201526f13585c9ad95d081a5cc818db1bdcd95960821b6044820152606401610ea7565b61200d89610c9d565b1561204c5760405162461bcd60e51b815260206004820152600f60248201526e109a59081a185cc8195e1c1a5c9959608a1b6044820152606401610ea7565b6009830180546bffffffffffffffff000000001916600160201b4263ffffffff1690810263ffffffff60401b191691909117600160401b91909102179055600c830180546003919060ff191660018302179055506002830180546001600160a01b0319166001600160a01b038481169190911790915560aa546040516346f0b08b60e11b8152600481018c9052911690638de1611690602401600060405180830381600087803b1580156120ff57600080fd5b505af1158015612113573d6000803e3d6000fd5b5050505061213261212760655461ffff1690565b600685015490613a53565b609e54600385015460405163028ba63960e21b8152929a506121c0926001600160a01b0390921691630a2e98e4916121709160040190815260200190565b60206040518083038186803b15801561218857600080fd5b505afa15801561219c573d6000803e3d6000fd5b505050506040513d601f19601f820116820180604052508101906121279190615687565b9650868884600501600101546121d691906155f7565b6121e091906155f7565b955061220e826121f86033546001600160a01b031690565b60058601546001600160a01b031691908b613a65565b609e5460038401546040516332209bcb60e11b81526122b19285926001600160a01b039091169163644137969161224b9160040190815260200190565b60206040518083038186803b15801561226357600080fd5b505afa158015612277573d6000803e3d6000fd5b505050506040513d601f19601f8201168201806040525081019061229b9190615459565b60058601546001600160a01b031691908a613a65565b600183015460058401546122d4916001600160a01b039182169185911689613a65565b600683015460058401546001600160a01b03908116600090815260a360209081526040808320938716835292905290812080549091906123159084906154c5565b9091555050600683015460058401546001600160a01b0316600090815260a460205260408120805490919061234b9084906154c5565b909155505082546001600160a01b0316600090815260a060205260409020612373908a613ac5565b506040516001600160a01b038316908a907fde9d3bfa8771df6761c0afac2375c88c70a3aa30478e1bd15363294033b470ed90600090a3604051671c1c9bdd1bd8dbdb60c21b81528890600801604051908190038120908b907f476a21a61ac4a7da250e040733aa10facd2eeee584b2c009d178c3de3d8a12dc90600090a46040516a6d61726b6574706c61636560a81b81528790600b01604051908190038120908b907f476a21a61ac4a7da250e040733aa10facd2eeee584b2c009d178c3de3d8a12dc90600090a450505050509193909250565b600054610100900460ff16158080156124695750600054600160ff909116105b806124835750303b158015612483575060005460ff166001145b61249f5760405162461bcd60e51b8152600401610ea7906156a4565b6000805460ff1916600117905580156124c2576000805461ff0019166101001790555b6124cb87613ad1565b6124d3613b09565b6001600160a01b0384163b61253f5760405162461bcd60e51b815260206004820152602c60248201527f4c656e646572436f6d6d69746d656e74466f72776172646572206d757374206260448201526b1948184818dbdb9d1c9858dd60a21b6064820152608401610ea7565b60a980546001600160a01b0319166001600160a01b038681169190911790915586163b6125b85760405162461bcd60e51b815260206004820152602160248201527f4d61726b65745265676973747279206d757374206265206120636f6e747261636044820152601d60fa1b6064820152608401610ea7565b609e80546001600160a01b0319166001600160a01b038881169190911790915585163b6126335760405162461bcd60e51b8152602060048201526024808201527f52657075746174696f6e4d616e61676572206d757374206265206120636f6e746044820152631c9858dd60e21b6064820152608401610ea7565b609f80546001600160a01b0319166001600160a01b038781169190911790915583163b6126ae5760405162461bcd60e51b8152602060048201526024808201527f436f6c6c61746572616c4d616e61676572206d757374206265206120636f6e746044820152631c9858dd60e21b6064820152608401610ea7565b60aa80546001600160a01b0319166001600160a01b0385161790556126d282613b38565b8015612718576000805461ff0019169055604051600181527f7f26b83ff96e1f2b6a682f133852f6798a09c465da95921460cefb38474024989060200160405180910390a15b50505050505050565b600081815260a66020526040902080546060919061273e9061541e565b80601f016020809104026020016040519081016040528092919081815260200182805461276a9061541e565b80156127b75780601f1061278c576101008083540402835291602001916127b7565b820191906000526020600020905b81548152906001019060200180831161279a57829003601f168201915b50505050509050806040516020016127cf91906156f2565b604051602081830303815290604052805190602001207fc5d2460186f7233c927e7db2dcc703c0e500b653ca82273b7bfad8045d85a47060001b1415611d9c57600082815260986020908152604090912060040154906110eb908290613bd8565b6040805180820190915260098152683932b830bca637b0b760b91b6020820152819060036000838152609860205260409020600c015460ff16600581111561287a5761287a615071565b1461289c5781816040516347bc33cb60e11b8152600401610ea7929190615476565b600083815260986020908152604080832060ac909252822054829182916128c89190429060ff16613242565b9250925092506128f3866040518060400160405280858152602001848152508386611b6b91906154c5565b505050505050565b600082815260a760205260408120546001600160a01b03838116911614806110eb57505060a9546001600160a01b03908116911614919050565b604080518082019091526000808252602082015260036000838152609860205260409020600c015460ff16600581111561297157612971615071565b1461297b57919050565b600082815260986020908152604080832060ac90925282205482916129a491429060ff16613242565b908552602085015250919392505050565b6129bd6134b1565b6129c5612b88565b611758613d74565b600054600890610100900460ff161580156129ef575060005460ff8083169116105b612a0b5760405162461bcd60e51b8152600401610ea7906156a4565b6000805461ffff191660ff831617610100179055612a276134b1565b612a3082613b38565b6000805461ff001916905560405160ff821681527f7f26b83ff96e1f2b6a682f133852f6798a09c465da95921460cefb3847402498906020015b60405180910390a15050565b612a7e6134b1565b60655461ffff82811691161415612a925750565b6065805461ffff83811661ffff198316811790935560408051938452911660208301819052917f4810ece076cee6c6042808956f3f65dad1bc72b75181341d7bed810d39deda0f9101612a6a565b6000610b8282600061334c565b612af56134b1565b6001600160a01b038116612b5a5760405162461bcd60e51b815260206004820152602660248201527f4f776e61626c653a206e6577206f776e657220697320746865207a65726f206160448201526564647265737360d01b6064820152608401610ea7565b611c2e816136d4565b612b6b6134b1565b612b73613dd3565b611758613e22565b606060006110eb83613e5f565b60655462010000900460ff16156117585760405162461bcd60e51b815260206004820152601060248201526f14185d5cd8589b194e881c185d5cd95960821b6044820152606401610ea7565b600080612be08961327f565b609e5460405163066e751360e01b8152600481018c90526001600160a01b0380841660248301529293506000929091169063066e751390604401604080518083038186803b158015612c3157600080fd5b505afa158015612c45573d6000803e3d6000fd5b505050506040513d601f19601f82011682018060405250810190612c69919061565b565b50905080612cb15760405162461bcd60e51b81526020600482015260156024820152742737ba103b32b934b334b2b2103137b93937bbb2b960591b6044820152606401610ea7565b609e54604051631cc672df60e01b8152600481018c90526001600160a01b0390911690631cc672df9060240160206040518083038186803b158015612cf557600080fd5b505afa158015612d09573d6000803e3d6000fd5b505050506040513d601f19601f82011682018060405250810190612d2d91906155dc565b15612d6d5760405162461bcd60e51b815260206004820152601060248201526f13585c9ad95d081a5cc818db1bdcd95960821b6044820152606401610ea7565b609754600081815260986020526040902080546001600160a01b0319166001600160a01b03858116919091178255919450908516612db55780546001600160a01b0316612db7565b845b6001820180546001600160a01b03199081166001600160a01b0393841617909155600383018d90556005830180549091168e8316179055600682018b90556009820180546fffffffff0000000000000000ffffffff1916600160601b63ffffffff8d81169190910263ffffffff1916919091174291909116179055609e5460405163a5630f1960e01b8152600481018e905291169063a5630f1990602401604080518083038186803b158015612e6c57600080fd5b505afa158015612e80573d6000803e3d6000fd5b505050506040513d601f19601f82011682018060405250810190612ea4919061571b565b609754600090815260ac602052604081208054600b86019291849160ff191660018381811115612ed657612ed6615071565b021790555081546101009190910a63ffffffff8181021990921694909116029290921790915550600b8101805465ffff000000001916600160201b61ffff8b1602179055609e546040516311bed5bb60e01b8152600481018d90526001600160a01b03909116906311bed5bb9060240160206040518083038186803b158015612f5e57600080fd5b505afa158015612f72573d6000803e3d6000fd5b505050506040513d601f19601f82011682018060405250810190612f96919061574a565b609754600090815260a1602052604090819020805463ffffffff191663ffffffff9390931692909217909155609e54905163082fc54d60e01b8152600481018d90526001600160a01b039091169063082fc54d9060240160206040518083038186803b15801561300557600080fd5b505afa158015613019573d6000803e3d6000fd5b505050506040513d601f19601f8201168201806040525081019061303d919061574a565b609754600090815260a2602052604090819020805463ffffffff191663ffffffff9390931692909217909155609e54905163d6e794dd60e01b8152600481018d90526001600160a01b039091169063d6e794dd9060240160206040518083038186803b1580156130ac57600080fd5b505afa1580156130c0573d6000803e3d6000fd5b505050506040513d601f19601f820116820180604052508101906130e49190615767565b600c8201805461ff00191661010083600181111561310457613104615071565b0217905550600c810154609754600090815260ac6020526040902054600b8301546131469260ff61010090910481169216908d908d9063ffffffff168d613eb9565b600a820155609754600090815260a660205260409020613167908888614cf8565b50600c8101805460ff1916600117905560405161318a9088908890602001615784565b60408051808303601f19018152908290528051602091820120835460975460018601546001600160a01b0390811686529294929091169290917ff887b1f393f43fb94c5d50483df4bd410ffbf286128c5f24ff56c580ac7f731c910160405180910390a480546001600160a01b0316600090815260996020908152604082206097805482546001810184559285529284209091019190915580549161322e83615794565b919050555050505098975050505050505050565b60008060006132618661325488613a0d565b63ffffffff168787613f57565b92509250925093509350939050565b600061327a6140fe565b905090565b600061328d82610a5b613270565b156133225760131936013560601c6132ca8160a860006132ab613270565b6001600160a01b0316815260208101919091526040016000209061332a565b610b825760405162461bcd60e51b8152602060048201526024808201527f53656e646572206d75737420617070726f7665206d61726b657420666f727761604482015263393232b960e11b6064820152608401610ea7565b610b82613270565b6001600160a01b038116600090815260018301602052604081205415156110eb565b60008281526098602052604081206003600c82015460ff16600581111561337557613375615071565b14613384576000915050610b82565b600084815260a1602052604090205463ffffffff166133a7576000915050610b82565b600084815260a1602052604090205463ffffffff166133c585611da1565b6133cf85426154dd565b6133d991906154dd565b63ffffffff1611949350505050565b60408051808201909152600981526818d85b98d95b109a5960ba1b6020820152819060016000838152609860205260409020600c015460ff16600581111561343257613432615071565b146134545781816040516347bc33cb60e11b8152600401610ea792919061560e565b600083815260986020526040808220600c01805460ff191660021790555184917fa0633b09ac3029a6746aa27d4db1407f5f287a10c41a6b2ad2859f4da9b2680b91a2505050565b60006110eb836001600160a01b038416614143565b6134b9613270565b6001600160a01b03166134d46033546001600160a01b031690565b6001600160a01b0316146117585760405162461bcd60e51b815260206004820181905260248201527f4f776e61626c653a2063616c6c6572206973206e6f7420746865206f776e65726044820152606401610ea7565b60008183111561353957600080fd5b60008061355161354c62015180876157c5565b614192565b50909250905060008061356a61354c62015180886157c5565b5090925090508261357c85600c6157d9565b8261358885600c6157d9565b61359291906154c5565b61359c91906155f7565b6135a691906155f7565b979650505050505050565b60006135c361354c62015180846157c5565b949350505050565b60008080806135e061354c62015180886157c5565b919450925090506135f185836154c5565b9150600c6136006001846155f7565b61360a91906157c5565b61361490846154c5565b9250600c6136236001846155f7565b61362d91906157f8565b6136389060016154c5565b915060006136468484614306565b905080821115613654578091505b61366162015180886157f8565b6201518061367086868661438c565b61367a91906157d9565b61368491906154c5565b94508685101561369357600080fd5b5050505092915050565b600082156136cb57816136b16001856155f7565b6136bb91906157c5565b6136c69060016154c5565b6110eb565b50600092915050565b603380546001600160a01b038381166001600160a01b0319831681179093556040519116919082907f8be0079c531659141344cd1fd0a4f28419497f9722a3daafe3b4186f6b6457e090600090a35050565b6000848152609860209081526040822090850151855191929161374991906154c5565b609f54835460405163c7312e4760e01b81526001600160a01b039182166004820152602481018a905292935060009291169063c7312e4790604401602060405180830381600087803b15801561379e57600080fd5b505af11580156137b2573d6000803e3d6000fd5b505050506040513d601f19601f820116820180604052508101906137d6919061580c565b90508482106138aa57600c8301805460ff1916600417905582546001600160a01b0316600090815260a06020526040902085925061381490886144c9565b50831561387a5760aa54604051632e1a7d4d60e01b8152600481018990526001600160a01b0390911690632e1a7d4d90602401600060405180830381600087803b15801561386157600080fd5b505af1158015613875573d6000803e3d6000fd5b505050505b60405187907f9a7851747cd7ffb3fe0a32caf3da48b31f27cebe131267051640f8b72fc4718690600090a26138d6565b60405187907f68ca97895fe2d09eab47e752271728ade667e72dda27e68c20eaa191a9c2187d90600090a25b60006138e188611cf7565b90506139096138f3856003015461327f565b60058601546001600160a01b0316908386613a65565b865160078501805460009061391f9084906154c5565b9091555050602087015160088501805460009061393d9084906154c5565b909155505060098401805463ffffffff60401b1916600160401b4263ffffffff1602179055600082600281111561397657613976615071565b14611b7257609f54845460405163c7312e4760e01b81526001600160a01b039182166004820152602481018b905291169063c7312e4790604401602060405180830381600087803b1580156139ca57600080fd5b505af11580156139de573d6000803e3d6000fd5b505050506040513d601f19601f82011682018060405250810190613a02919061580c565b505050505050505050565b6009810154600090600160401b900463ffffffff1615613a3e576009820154600160401b900463ffffffff16610b82565b5060090154600160201b900463ffffffff1690565b60006110eb838361ffff1660026144d5565b604080516001600160a01b0385811660248301528416604482015260648082018490528251808303909101815260849091019091526020810180516001600160e01b03166323b872dd60e01b179052613abf9085906144f4565b50505050565b60006110eb8383614143565b600054610100900460ff16613af85760405162461bcd60e51b8152600401610ea790615829565b613b006145cb565b611c2e816145fa565b600054610100900460ff16613b305760405162461bcd60e51b8152600401610ea790615829565b61175861462a565b600054610100900460ff16613b5f5760405162461bcd60e51b8152600401610ea790615829565b6001600160a01b0381163b613bb65760405162461bcd60e51b815260206004820181905260248201527f4c656e6465724d616e61676572206d757374206265206120636f6e74726163746044820152606401610ea7565b60ab80546001600160a01b0319166001600160a01b0392909216919091179055565b60606000613be78360026157d9565b613bf29060026154c5565b67ffffffffffffffff811115613c0a57613c0a615874565b6040519080825280601f01601f191660200182016040528015613c34576020820181803683370190505b509050600360fc1b81600081518110613c4f57613c4f61588a565b60200101906001600160f81b031916908160001a905350600f60fb1b81600181518110613c7e57613c7e61588a565b60200101906001600160f81b031916908160001a9053506000613ca28460026157d9565b613cad9060016154c5565b90505b6001811115613d25576f181899199a1a9b1b9c1cb0b131b232b360811b85600f1660108110613ce157613ce161588a565b1a60f81b828281518110613cf757613cf761588a565b60200101906001600160f81b031916908160001a90535060049490941c93613d1e816158a0565b9050613cb0565b5083156110eb5760405162461bcd60e51b815260206004820181905260248201527f537472696e67733a20686578206c656e67746820696e73756666696369656e746044820152606401610ea7565b613d7c612b88565b6065805462ff00001916620100001790557f62e78cea01bee320cd4e420270b5ea74000d11b0c9f74754ebdbfc544b05a258613db6613270565b6040516001600160a01b03909116815260200160405180910390a1565b60655462010000900460ff166117585760405162461bcd60e51b815260206004820152601460248201527314185d5cd8589b194e881b9bdd081c185d5cd95960621b6044820152606401610ea7565b613e2a613dd3565b6065805462ff0000191690557f5db9ee0a495bf2e6ff9c91a7834c1ba4fdd244a5e8aa4e537bd38aeae4b073aa613db6613270565b606081600001805480602002602001604051908101604052809291908181526020018280548015611152576020028201919060005260206000209081548152602001906001019080831161113e5750505050509050919050565b6000806001876001811115613ed057613ed0615071565b14613edf576301e13380613ee5565b6301da9c005b63ffffffff1690506001886001811115613f0157613f01615071565b1415613f3c57613f34613f2163ffffffff808716908490600a9061465f16565b600a613f2d8987613a53565b91906144d5565b915050613f4d565b613f498686868685614682565b9150505b9695505050505050565b6007840154600685015460009182918291613f71916155f7565b925060006001856001811115613f8957613f89615071565b14613f98576301e13380613f9e565b6301da9c005b63ffffffff1690506000613fd089600a0160010160049054906101000a900461ffff1686613a5390919063ffffffff16565b90506000613fde89896155f7565b905082613feb82846157d9565b613ff591906157c5565b60098b015490945060009061401790600160201b900463ffffffff168a6158b7565b60098c01546140339190600160601b900463ffffffff166158b7565b600b8c015490915060009063ffffffff1682128061405e5750600a8c015461405b878a6154c5565b11155b90506001600c8d0154610100900460ff16600181111561408057614080615071565b1415614095578015614090578796505b6140ef565b6000816140a657600a8d01546140b0565b6140b0878a6154c5565b600b8e015490915060009063ffffffff166140cb86846157d9565b6140d591906157c5565b90506140ea6140e489836155f7565b8b6147b3565b985050505b50505050509450945094915050565b60007f00000000000000000000000000000000000000000000000000000000000000006001600160a01b031633141561413e575060131936013560601c90565b503390565b600081815260018301602052604081205461418a57508154600181810184556000848152602080822090930184905584548482528286019093526040902091909155610b82565b506000610b82565b60008080838162253d8c6141a98362010bd96158f6565b6141b391906158f6565b9050600062023ab16141c6836004615937565b6141d091906159bc565b905060046141e18262023ab1615937565b6141ec9060036158f6565b6141f691906159bc565b61420090836158b7565b9150600062164b096142138460016158f6565b61421f90610fa0615937565b61422991906159bc565b90506004614239826105b5615937565b61424391906159bc565b61424d90846158b7565b61425890601f6158f6565b9250600061098f61426a856050615937565b61427491906159bc565b9050600060506142868361098f615937565b61429091906159bc565b61429a90866158b7565b90506142a7600b836159bc565b94506142b485600c615937565b6142bf8360026158f6565b6142c991906158b7565b915084836142d86031876158b7565b6142e3906064615937565b6142ed91906158f6565b6142f791906158f6565b9a919950975095505050505050565b600081600114806143175750816003145b806143225750816005145b8061432d5750816007145b806143385750816008145b80614343575081600a145b8061434e575081600c145b1561435b5750601f610b82565b8160021461436b5750601e610b82565b614374836147c9565b61437f57601c614382565b601d5b60ff169392505050565b60006107b284101561439d57600080fd5b838383600062253d8c60046064600c6143b7600e886158b7565b6143c191906159bc565b6143cd886113246158f6565b6143d791906158f6565b6143e191906159bc565b6143ec906003615937565b6143f691906159bc565b600c80614404600e886158b7565b61440e91906159bc565b61441990600c615937565b6144246002886158b7565b61442e91906158b7565b61443a9061016f615937565b61444491906159bc565b6004600c614453600e896158b7565b61445d91906159bc565b614469896112c06158f6565b61447391906158f6565b61447f906105b5615937565b61448991906159bc565b614495617d4b876158b7565b61449f91906158f6565b6144a991906158f6565b6144b391906158b7565b6144bd91906158b7565b98975050505050505050565b60006110eb8383614805565b60006144e0826148f8565b6144ea84866157d9565b6110e891906157c5565b6000614549826040518060400160405280602081526020017f5361666545524332303a206c6f772d6c6576656c2063616c6c206661696c6564815250856001600160a01b03166149109092919063ffffffff16565b8051909150156145c6578080602001905181019061456791906155dc565b6145c65760405162461bcd60e51b815260206004820152602a60248201527f5361666545524332303a204552433230206f7065726174696f6e20646964206e6044820152691bdd081cdd58d8d9595960b21b6064820152608401610ea7565b505050565b600054610100900460ff166145f25760405162461bcd60e51b8152600401610ea790615829565b61175861491f565b600054610100900460ff166146215760405162461bcd60e51b8152600401610ea790615829565b611c2e81612a76565b600054610100900460ff166146515760405162461bcd60e51b8152600401610ea790615829565b6065805462ff000019169055565b60008261466e575060006110eb565b82614678836148f8565b6144ea90866157d9565b60008363ffffffff168563ffffffff1610156146ec5760405162461bcd60e51b815260206004820152602360248201527f504d543a206379636c65206475726174696f6e203c206c6f616e20647572617460448201526234b7b760e91b6064820152608401610ea7565b61ffff83166147155761470e868563ffffffff168763ffffffff166001614956565b90506147aa565b600061472d8663ffffffff168663ffffffff1661369d565b9050670de0b6b3a7640000600061475d8561475763ffffffff8a166147518a6149a7565b906149cb565b906149ff565b905060006147758461476f84866154c5565b90614a2f565b90506000614787826147518d866149cb565b9050600061479585846155f7565b90506147a182826149ff565b96505050505050505b95945050505050565b60008183106147c257816110eb565b5090919050565b60006147d66004836157f8565b1580156147ec57506147e96064836157f8565b15155b80610b8257506147fe610190836157f8565b1592915050565b600081815260018301602052604081205480156148ee5760006148296001836155f7565b855490915060009061483d906001906155f7565b90508181146148a257600086600001828154811061485d5761485d61588a565b90600052602060002001549050808760000184815481106148805761488061588a565b6000918252602080832090910192909255918252600188019052604090208390555b85548690806148b3576148b36159ea565b600190038181906000526020600020016000905590558560010160008681526020019081526020016000206000905560019350505050610b82565b6000915050610b82565b600061490582600a615ae4565b610b829060646157d9565b60606110e88484600085614a47565b600054610100900460ff166149465760405162461bcd60e51b8152600401610ea790615829565b611758614951613270565b6136d4565b600080614964868686614b17565b9050600183600281111561497a5761497a615071565b148015614997575060008480614992576149926157af565b868809115b156147aa57613f4d6001826154c5565b6000610b826127106149c561ffff8516670de0b6b3a7640000614bc7565b90614bd3565b60006110eb670de0b6b3a76400006149c56149e68686614bc7565b6149f96002670de0b6b3a76400006157c5565b90614bdf565b600080614a0d6002846157c5565b90506135c3836149c5614a2887670de0b6b3a7640000614bc7565b8490614bdf565b60006110eb8383670de0b6b3a76400006149cb614beb565b606082471015614aa85760405162461bcd60e51b815260206004820152602660248201527f416464726573733a20696e73756666696369656e742062616c616e636520666f6044820152651c8818d85b1b60d21b6064820152608401610ea7565b600080866001600160a01b03168587604051614ac491906156f2565b60006040518083038185875af1925050503d8060008114614b01576040519150601f19603f3d011682016040523d82523d6000602084013e614b06565b606091505b50915091506135a687838387614c5d565b600080806000198587098587029250828110838203039150508060001415614b5257838281614b4857614b486157af565b04925050506110eb565b808411614b5e57600080fd5b60008486880960026001871981018816978890046003810283188082028403028082028403028082028403028082028403028082028403029081029092039091026000889003889004909101858311909403939093029303949094049190911702949350505050565b60006110eb82846157d9565b60006110eb82846157c5565b60006110eb82846154c5565b6000614bf86002856157f8565b614c025782614c04565b845b9050614c116002856157c5565b93505b83156135c357614c2885868463ffffffff16565b9450614c356002856157f8565b15614c4b57614c4881868463ffffffff16565b90505b614c566002856157c5565b9350614c14565b60608315614cc9578251614cc2576001600160a01b0385163b614cc25760405162461bcd60e51b815260206004820152601d60248201527f416464726573733a2063616c6c20746f206e6f6e2d636f6e74726163740000006044820152606401610ea7565b50816135c3565b6135c38383815115614cde5781518083602001fd5b8060405162461bcd60e51b8152600401610ea79190614ff7565b828054614d049061541e565b90600052602060002090601f016020900481019282614d265760008555614d6c565b82601f10614d3f5782800160ff19823516178555614d6c565b82800160010185558215614d6c579182015b82811115614d6c578235825591602001919060010190614d51565b50614d78929150614d7c565b5090565b5b80821115614d785760008155600101614d7d565b6001600160a01b0381168114611c2e57600080fd5b600060208284031215614db857600080fd5b81356110eb81614d91565b6020808252825182820181905260009190848201906040850190845b81811015614dfb57835183529284019291840191600101614ddf565b50909695505050505050565b63ffffffff81168114611c2e57600080fd5b61ffff81168114611c2e57600080fd5b60008083601f840112614e3b57600080fd5b50813567ffffffffffffffff811115614e5357600080fd5b602083019150836020828501011115614e6b57600080fd5b9250929050565b60008060008060008060008060e0898b031215614e8e57600080fd5b8835614e9981614d91565b975060208901359650604089013595506060890135614eb781614e07565b94506080890135614ec781614e19565b935060a089013567ffffffffffffffff811115614ee357600080fd5b614eef8b828c01614e29565b90945092505060c0890135614f0381614d91565b809150509295985092959890939650565b60008060408385031215614f2757600080fd5b8235614f3281614d91565b91506020830135614f4281614d91565b809150509250929050565b600060208284031215614f5f57600080fd5b5035919050565b60008060408385031215614f7957600080fd5b50508035926020909101359150565b815181526020808301519082015260408101610b82565b60005b83811015614fba578181015183820152602001614fa2565b83811115613abf5750506000910152565b60008151808452614fe3816020860160208601614f9f565b601f01601f19169290920160200192915050565b6020815260006110eb6020830184614fcb565b6000806040838503121561501d57600080fd5b823591506020830135614f4281614d91565b60008060006060848603121561504457600080fd5b83359250602084013561505681614d91565b9150604084013561506681614d91565b809150509250925092565b634e487b7160e01b600052602160045260246000fd5b60028110611c2e57611c2e615071565b602081016150a483615087565b91905290565b600080604083850312156150bd57600080fd5b82356150c881614d91565b946020939093013593505050565b600681106150e6576150e6615071565b9052565b6150e681615087565b60006102408201905060018060a01b03808c168352808b166020840152808a1660408401528860608401528760808401528087511660a084015250602086015160c0830152604086015161515460e084018280518252602090810151910152565b50606086015163ffffffff9081166101208401526080870151811661014084015260a08701511661016083015260c086015161519961018084018263ffffffff169052565b5084516101a0830152602085015163ffffffff166101c0830152604085015161ffff166101e08301526151d06102008301856150d6565b6151de6102208301846150ea565b9a9950505050505050505050565b6000806000806000806000806000806101008b8d03121561520c57600080fd5b8a3561521781614d91565b995060208b0135985060408b0135975060608b013561523581614e07565b965060808b013561524581614e19565b955060a08b013567ffffffffffffffff8082111561526257600080fd5b61526e8e838f01614e29565b909750955060c08d0135915061528382614d91565b90935060e08c0135908082111561529957600080fd5b818d0191508d601f8301126152ad57600080fd5b8135818111156152bc57600080fd5b8e60208260071b85010111156152d157600080fd5b6020830194508093505050509295989b9194979a5092959850565b60008060008060008060c0878903121561530557600080fd5b863561531081614e19565b9550602087013561532081614d91565b9450604087013561533081614d91565b9350606087013561534081614d91565b9250608087013561535081614d91565b915060a087013561536081614d91565b809150509295509295509295565b60208101610b8282846150d6565b6001600160a01b038881168252878116602083015260408201879052851660608201526080810184905263ffffffff831660a082015260e081016144bd60c08301846150d6565b6000602082840312156153d557600080fd5b81356110eb81614e19565b634e487b7160e01b600052601160045260246000fd5b600063ffffffff808316818516808303821115615415576154156153e0565b01949350505050565b600181811c9082168061543257607f821691505b6020821081141561545357634e487b7160e01b600052602260045260246000fd5b50919050565b60006020828403121561546b57600080fd5b81516110eb81614d91565b82815260606020820152600061548f6060830184614fcb565b8281036040938401526015815274131bd85b881b5d5cdd081899481858d8d95c1d1959605a1b6020820152919091019392505050565b600082198211156154d8576154d86153e0565b500190565b600063ffffffff838116908316818110156154fa576154fa6153e0565b039392505050565b600063ffffffff80831681851681830481118215151615615525576155256153e0565b02949350505050565b60038110611c2e57600080fd5b838152604060208083018290528282018490526000919060609081850187855b888110156155bd57813561556e8161552e565b6003811061557e5761557e615071565b8352818401358484015285820135868401528482013561559d81614d91565b6001600160a01b031683860152608092830192919091019060010161555b565b50909998505050505050505050565b80518015158114611d9c57600080fd5b6000602082840312156155ee57600080fd5b6110eb826155cc565b600082821015615609576156096153e0565b500390565b8281526060602082015260006156276060830184614fcb565b8281036040938401526013815272426964206d7573742062652070656e64696e6760681b6020820152919091019392505050565b6000806040838503121561566e57600080fd5b615677836155cc565b9150602083015190509250929050565b60006020828403121561569957600080fd5b81516110eb81614e19565b6020808252602e908201527f496e697469616c697a61626c653a20636f6e747261637420697320616c72656160408201526d191e481a5b9a5d1a585b1a5e995960921b606082015260800190565b60008251615704818460208701614f9f565b9190910192915050565b60028110611c2e57600080fd5b6000806040838503121561572e57600080fd5b825161573981614e07565b6020840151909250614f428161570e565b60006020828403121561575c57600080fd5b81516110eb81614e07565b60006020828403121561577957600080fd5b81516110eb8161570e565b8183823760009101908152919050565b60006000198214156157a8576157a86153e0565b5060010190565b634e487b7160e01b600052601260045260246000fd5b6000826157d4576157d46157af565b500490565b60008160001904831182151516156157f3576157f36153e0565b500290565b600082615807576158076157af565b500690565b60006020828403121561581e57600080fd5b81516110eb8161552e565b6020808252602b908201527f496e697469616c697a61626c653a20636f6e7472616374206973206e6f74206960408201526a6e697469616c697a696e6760a81b606082015260800190565b634e487b7160e01b600052604160045260246000fd5b634e487b7160e01b600052603260045260246000fd5b6000816158af576158af6153e0565b506000190190565b60008083128015600160ff1b8501841216156158d5576158d56153e0565b6001600160ff1b03840183138116156158f0576158f06153e0565b50500390565b600080821280156001600160ff1b0384900385131615615918576159186153e0565b600160ff1b8390038412811615615931576159316153e0565b50500190565b60006001600160ff1b038184138284138082168684048611161561595d5761595d6153e0565b600160ff1b600087128281168783058912161561597c5761597c6153e0565b60008712925087820587128484161615615998576159986153e0565b878505871281841616156159ae576159ae6153e0565b505050929093029392505050565b6000826159cb576159cb6157af565b600160ff1b8214600019841416156159e5576159e56153e0565b500590565b634e487b7160e01b600052603160045260246000fd5b600181815b80851115615a3b578160001904821115615a2157615a216153e0565b80851615615a2e57918102915b93841c9390800290615a05565b509250929050565b600082615a5257506001610b82565b81615a5f57506000610b82565b8160018114615a755760028114615a7f57615a9b565b6001915050610b82565b60ff841115615a9057615a906153e0565b50506001821b610b82565b5060208310610133831016604e8410600b8410161715615abe575081810a610b82565b615ac88383615a00565b8060001904821115615adc57615adc6153e0565b029392505050565b60006110eb8383615a4356fea2646970667358221220601d7ad2dd26562b57f361d813bcf96b18591a58e63db1b5a719ee8be9c1d1d064736f6c63430008090033",
  "devdoc": {
    "errors": {
      "ActionNotAllowed(uint256,string,string)": [
        {
          "params": {
            "action": "The action string (i.e: 'repayLoan', 'cancelBid', 'etc)",
            "bidId": "The id of the bid.",
            "message": "The message string to return to the user explaining why the tx was reverted"
          }
        }
      ],
      "PaymentNotMinimum(uint256,uint256,uint256)": [
        {
          "params": {
            "bidId": "The id of the bid the borrower is attempting to repay.",
            "minimumOwed": "The minimum owed value",
            "payment": "The payment made by the borrower"
          }
        }
      ]
    },
    "events": {
      "AcceptedBid(uint256,address)": {
        "params": {
          "bidId": "The id of the bid accepted.",
          "lender": "The address of the accepted bid lender."
        }
      },
      "CancelledBid(uint256)": {
        "params": {
          "bidId": "The id of the cancelled bid."
        }
      },
      "FeePaid(uint256,string,uint256)": {
        "params": {
          "amount": "The amount of the fee being paid.",
          "bidId": "The id of the bid.",
          "feeType": "The name of the fee being paid."
        }
      },
      "LoanLiquidated(uint256,address)": {
        "params": {
          "bidId": "The id of the bid/loan which was repaid."
        }
      },
      "LoanRepaid(uint256)": {
        "params": {
          "bidId": "The id of the bid/loan which was repaid."
        }
      },
      "LoanRepayment(uint256)": {
        "params": {
          "bidId": "The id of the bid/loan to which the payment was made."
        }
      },
      "MarketOwnerCancelledBid(uint256)": {
        "params": {
          "bidId": "The id of the bid funded. Note: The `CancelledBid` event will also be emitted."
        }
      },
      "SubmittedBid(uint256,address,address,bytes32)": {
        "params": {
          "bidId": "The id of the bid submitted.",
          "borrower": "The address of the bid borrower.",
          "metadataURI": "URI for additional bid information as part of loan bid."
        }
      }
    },
    "kind": "dev",
    "methods": {
      "approveMarketForwarder(uint256,address)": {
        "params": {
          "_forwarder": "A forwarder contract address.",
          "_marketId": "An ID for a lending market."
        }
      },
      "calculateAmountDue(uint256)": {
        "params": {
          "_bidId": "The id of the loan bid to get the payment amount for."
        }
      },
      "calculateAmountDue(uint256,uint256)": {
        "params": {
          "_bidId": "The id of the loan bid to get the payment amount for.",
          "_timestamp": "The timestamp at which to get the due payment at."
        }
      },
      "calculateAmountOwed(uint256)": {
        "params": {
          "_bidId": "The id of the loan bid to calculate the owed amount for."
        }
      },
      "calculateAmountOwed(uint256,uint256)": {
        "params": {
          "_bidId": "The id of the loan bid to calculate the owed amount for.",
          "_timestamp": "The timestamp at which to calculate the loan owed amount at."
        }
      },
      "calculateNextDueDate(uint256)": {
        "params": {
          "_bidId": "The id of the loan bid."
        }
      },
      "cancelBid(uint256)": {
        "params": {
          "_bidId": "The id of the bid to cancel."
        }
      },
      "getLoanBorrower(uint256)": {
        "params": {
          "_bidId": "The id of the bid/loan to get the borrower for."
        },
        "returns": {
          "borrower_": "The address of the borrower associated with the bid."
        }
      },
      "getLoanLender(uint256)": {
        "params": {
          "_bidId": "The id of the bid/loan to get the lender for."
        },
        "returns": {
          "lender_": "The address of the lender associated with the bid."
        }
      },
      "getMetadataURI(uint256)": {
        "params": {
          "_bidId": "The id of the bid to return the metadataURI for"
        },
        "returns": {
          "metadataURI_": "The metadataURI for the bid, as a string."
        }
      },
      "hasApprovedMarketForwarder(uint256,address,address)": {
        "params": {
          "_account": "The address to verify set an approval.",
          "_forwarder": "A forwarder contract address.",
          "_marketId": "An ID for a lending market."
        },
        "returns": {
          "_0": "A boolean indicating if an approval was set."
        }
      },
      "initialize(uint16,address,address,address,address,address)": {
        "params": {
          "_collateralManager": "The address of the collateral manager contracts.",
          "_lenderCommitmentForwarder": "The address of the lender commitment forwarder contract.",
          "_lenderManager": "The address of the lender manager contract for loans on the protocol.",
          "_marketRegistry": "The address of the market registry contract for the protocol.",
          "_protocolFee": "The fee collected by the protocol for loan processing.",
          "_reputationManager": "The address of the reputation manager contract."
        }
      },
      "isLoanDefaulted(uint256)": {
        "params": {
          "_bidId": "The id of the loan bid to check for."
        },
        "returns": {
          "_0": "bool True if the loan is defaulted."
        }
      },
      "isLoanExpired(uint256)": {
        "params": {
          "_bidId": "The id of the loan bid to check for."
        }
      },
      "isLoanLiquidateable(uint256)": {
        "params": {
          "_bidId": "The id of the loan bid to check for."
        },
        "returns": {
          "_0": "bool True if the loan is liquidateable."
        }
      },
      "isPaymentLate(uint256)": {
        "params": {
          "_bidId": "The id of the loan bid to check for."
        }
      },
      "isTrustedMarketForwarder(uint256,address)": {
        "params": {
          "_marketId": "An ID for a lending market.",
          "_trustedMarketForwarder": "An address to check if is a trusted forwarder in the given market."
        },
        "returns": {
          "_0": "A boolean indicating the forwarder address is trusted in a market."
        }
      },
      "lastRepaidTimestamp(uint256)": {
        "params": {
          "_bidId": "The id of the loan bid to get the timestamp for."
        }
      },
      "lenderAcceptBid(uint256)": {
        "params": {
          "_bidId": "The id of the loan bid to accept."
        }
      },
      "liquidateLoanFull(uint256)": {
        "params": {
          "_bidId": "The id of the loan to make the payment towards."
        }
      },
      "marketOwnerCancelBid(uint256)": {
        "params": {
          "_bidId": "The id of the bid to cancel."
        }
      },
      "owner()": {
        "details": "Returns the address of the current owner."
      },
      "paused()": {
        "details": "Returns true if the contract is paused, and false otherwise."
      },
      "renounceOwnership()": {
        "details": "Leaves the contract without owner. It will not be possible to call `onlyOwner` functions anymore. Can only be called by the current owner. NOTE: Renouncing ownership will leave the contract without an owner, thereby removing any functionality that is only available to the owner."
      },
      "repayLoan(uint256,uint256)": {
        "params": {
          "_amount": "The amount of the payment.",
          "_bidId": "The id of the loan to make the payment towards."
        }
      },
      "repayLoanFull(uint256)": {
        "params": {
          "_bidId": "The id of the loan to make the payment towards."
        }
      },
      "repayLoanMinimum(uint256)": {
        "params": {
          "_bidId": "The id of the loan to make the payment towards."
        }
      },
      "setProtocolFee(uint16)": {
        "params": {
          "newFee": "The new protocol fee to be set."
        }
      },
      "setReputationManager(address)": {
        "params": {
          "_reputationManager": "The new contract address."
        }
      },
      "setTrustedMarketForwarder(uint256,address)": {
        "params": {
          "_forwarder": "A forwarder contract address.",
          "_marketId": "An ID for a lending market."
        }
      },
      "submitBid(address,uint256,uint256,uint32,uint16,string,address)": {
        "params": {
          "_APR": "The proposed interest rate for the loan bid.",
          "_duration": "The recurrent length of time before which a payment is due.",
          "_lendingToken": "The lending token asset requested to be borrowed.",
          "_marketplaceId": "The unique id of the marketplace for the bid.",
          "_metadataURI": "The URI for additional borrower loan information as part of loan bid.",
          "_principal": "The principal amount of the loan bid.",
          "_receiver": "The address where the loan amount will be sent to."
        }
      },
      "submitBid(address,uint256,uint256,uint32,uint16,string,address,(uint8,uint256,uint256,address)[])": {
        "params": {
          "_APR": "The proposed interest rate for the loan bid.",
          "_collateralInfo": "Additional information about the collateral asset.",
          "_duration": "The recurrent length of time before which a payment is due.",
          "_lendingToken": "The lending token asset requested to be borrowed.",
          "_marketplaceId": "The unique id of the marketplace for the bid.",
          "_metadataURI": "The URI for additional borrower loan information as part of loan bid.",
          "_principal": "The principal amount of the loan bid.",
          "_receiver": "The address where the loan amount will be sent to."
        }
      },
      "transferOwnership(address)": {
        "details": "Transfers ownership of the contract to a new account (`newOwner`). Can only be called by the current owner."
      }
    },
    "version": 1
  },
  "userdoc": {
    "errors": {
      "ActionNotAllowed(uint256,string,string)": [
        {
          "notice": "This error is reverted when the action isn't allowed"
        }
      ],
      "PaymentNotMinimum(uint256,uint256,uint256)": [
        {
          "notice": "This error is reverted when repayment amount is less than the required minimum"
        }
      ]
    },
    "events": {
      "AcceptedBid(uint256,address)": {
        "notice": "This event is emitted when a bid has been accepted by a lender."
      },
      "CancelledBid(uint256)": {
        "notice": "This event is emitted when a previously submitted bid has been cancelled."
      },
      "FeePaid(uint256,string,uint256)": {
        "notice": "This event is emitted when a fee has been paid related to a bid."
      },
      "LoanLiquidated(uint256,address)": {
        "notice": "This event is emitted when a loan has been fully repaid."
      },
      "LoanRepaid(uint256)": {
        "notice": "This event is emitted when a loan has been fully repaid."
      },
      "LoanRepayment(uint256)": {
        "notice": "This event is emitted when a payment is made towards an active loan."
      },
      "MarketOwnerCancelledBid(uint256)": {
        "notice": "This event is emitted when market owner has cancelled a pending bid in their market."
      },
      "ProtocolFeeSet(uint16,uint16)": {
        "notice": "This event is emitted when the protocol fee has been updated."
      },
      "SubmittedBid(uint256,address,address,bytes32)": {
        "notice": "This event is emitted when a new bid is submitted."
      }
    },
    "kind": "user",
    "methods": {
      "CURRENT_CODE_VERSION()": {
        "notice": "Constant Variables *"
      },
      "approveMarketForwarder(uint256,address)": {
        "notice": "Approves a forwarder contract to use their address as a sender for a specific market.The forwarder given must be trusted by the market given."
      },
      "bidId()": {
        "notice": "Storage Variables "
      },
      "calculateAmountDue(uint256)": {
        "notice": "Calculates the minimum payment amount due for a loan."
      },
      "calculateAmountDue(uint256,uint256)": {
        "notice": "Calculates the minimum payment amount due for a loan at a specific timestamp."
      },
      "calculateAmountOwed(uint256)": {
        "notice": "Calculates the total amount owed for a bid."
      },
      "calculateAmountOwed(uint256,uint256)": {
        "notice": "Calculates the total amount owed for a loan bid at a specific timestamp."
      },
      "calculateNextDueDate(uint256)": {
        "notice": "Returns the next due date for a loan payment."
      },
      "cancelBid(uint256)": {
        "notice": "Function for a borrower to cancel their pending bid."
      },
      "constructor": {
        "notice": "Constructor *"
      },
      "getLoanBorrower(uint256)": {
        "notice": "Returns the borrower address for a given bid."
      },
      "getLoanLender(uint256)": {
        "notice": "Returns the lender address for a given bid. If the stored lender address is the `LenderManager` NFT address, return the `ownerOf` for the bid ID."
      },
      "getMetadataURI(uint256)": {
        "notice": "Gets the metadataURI for a bidId."
      },
      "hasApprovedMarketForwarder(uint256,address,address)": {
        "notice": "Checks if an account has approved a forwarder for a market."
      },
      "initialize(uint16,address,address,address,address,address)": {
        "notice": "Initializes the proxy."
      },
      "isLoanDefaulted(uint256)": {
        "notice": "Checks to see if a borrower is delinquent."
      },
      "isLoanExpired(uint256)": {
        "notice": "Checks to see if a pending loan has expired so it is no longer able to be accepted."
      },
      "isLoanLiquidateable(uint256)": {
        "notice": "Checks to see if a loan was delinquent for longer than liquidation delay."
      },
      "isPaymentLate(uint256)": {
        "notice": "Checks to see if a borrower is delinquent."
      },
      "isTrustedMarketForwarder(uint256,address)": {
        "notice": "Checks if an address is a trusted forwarder contract for a given market."
      },
      "lastRepaidTimestamp(uint256)": {
        "notice": "Returns the last repaid timestamp for a loan."
      },
      "lenderAcceptBid(uint256)": {
        "notice": "Function for a lender to accept a proposed loan bid."
      },
      "liquidateLoanFull(uint256)": {
        "notice": "Function for users to liquidate a defaulted loan."
      },
      "marketOwnerCancelBid(uint256)": {
        "notice": "Function for a market owner to cancel a bid in the market."
      },
      "pauseProtocol()": {
        "notice": "Lets the DAO/owner of the protocol implement an emergency stop mechanism."
      },
      "protocolFee()": {
        "notice": "Returns the current protocol fee."
      },
      "repayLoan(uint256,uint256)": {
        "notice": "Function for users to make a payment towards an active loan."
      },
      "repayLoanFull(uint256)": {
        "notice": "Function for users to repay an active loan in full."
      },
      "repayLoanMinimum(uint256)": {
        "notice": "Function for users to make the minimum amount due for an active loan."
      },
      "setProtocolFee(uint16)": {
        "notice": "Lets the DAO/owner of the protocol to set a new protocol fee."
      },
      "setReputationManager(address)": {
        "notice": "Lets the DAO/owner of the protocol to set a new reputation manager contract."
      },
      "setTrustedMarketForwarder(uint256,address)": {
        "notice": "Sets a trusted forwarder for a lending market.The caller must owner the market given. See {MarketRegistry}"
      },
      "submitBid(address,uint256,uint256,uint32,uint16,string,address)": {
        "notice": "Function for a borrower to create a bid for a loan without Collateral."
      },
      "submitBid(address,uint256,uint256,uint32,uint16,string,address,(uint8,uint256,uint256,address)[])": {
        "notice": "Function for a borrower to create a bid for a loan with Collateral."
      },
      "unpauseProtocol()": {
        "notice": "Lets the DAO/owner of the protocol undo a previously implemented emergency stop."
      }
    },
    "version": 1
  },
  "storageLayout": {
    "storage": [
      {
        "astId": 138,
        "contract": "contracts/TellerV2.sol:TellerV2",
        "label": "_initialized",
        "offset": 0,
        "slot": "0",
        "type": "t_uint8"
      },
      {
        "astId": 141,
        "contract": "contracts/TellerV2.sol:TellerV2",
        "label": "_initializing",
        "offset": 1,
        "slot": "0",
        "type": "t_bool"
      },
      {
        "astId": 2108,
        "contract": "contracts/TellerV2.sol:TellerV2",
        "label": "__gap",
        "offset": 0,
        "slot": "1",
        "type": "t_array(t_uint256)50_storage"
      },
      {
        "astId": 10,
        "contract": "contracts/TellerV2.sol:TellerV2",
        "label": "_owner",
        "offset": 0,
        "slot": "51",
        "type": "t_address"
      },
      {
        "astId": 130,
        "contract": "contracts/TellerV2.sol:TellerV2",
        "label": "__gap",
        "offset": 0,
        "slot": "52",
        "type": "t_array(t_uint256)49_storage"
      },
      {
        "astId": 15099,
        "contract": "contracts/TellerV2.sol:TellerV2",
        "label": "_protocolFee",
        "offset": 0,
        "slot": "101",
        "type": "t_uint16"
      },
      {
        "astId": 321,
        "contract": "contracts/TellerV2.sol:TellerV2",
        "label": "_paused",
        "offset": 2,
        "slot": "101",
        "type": "t_bool"
      },
      {
        "astId": 426,
        "contract": "contracts/TellerV2.sol:TellerV2",
        "label": "__gap",
        "offset": 0,
        "slot": "102",
        "type": "t_array(t_uint256)49_storage"
      },
      {
        "astId": 18675,
        "contract": "contracts/TellerV2.sol:TellerV2",
        "label": "bidId",
        "offset": 0,
        "slot": "151",
        "type": "t_uint256"
      },
      {
        "astId": 18680,
        "contract": "contracts/TellerV2.sol:TellerV2",
        "label": "bids",
        "offset": 0,
        "slot": "152",
        "type": "t_mapping(t_uint256,t_struct(Bid)18647_storage)"
      },
      {
        "astId": 18685,
        "contract": "contracts/TellerV2.sol:TellerV2",
        "label": "borrowerBids",
        "offset": 0,
        "slot": "153",
        "type": "t_mapping(t_address,t_array(t_uint256)dyn_storage)"
      },
      {
        "astId": 18689,
        "contract": "contracts/TellerV2.sol:TellerV2",
        "label": "__lenderVolumeFilled",
        "offset": 0,
        "slot": "154",
        "type": "t_mapping(t_address,t_uint256)"
      },
      {
        "astId": 18691,
        "contract": "contracts/TellerV2.sol:TellerV2",
        "label": "__totalVolumeFilled",
        "offset": 0,
        "slot": "155",
        "type": "t_uint256"
      },
      {
        "astId": 18694,
        "contract": "contracts/TellerV2.sol:TellerV2",
        "label": "__lendingTokensSet",
        "offset": 0,
        "slot": "156",
        "type": "t_struct(AddressSet)8906_storage"
      },
      {
        "astId": 18697,
        "contract": "contracts/TellerV2.sol:TellerV2",
        "label": "marketRegistry",
        "offset": 0,
        "slot": "158",
        "type": "t_contract(IMarketRegistry)19485"
      },
      {
        "astId": 18700,
        "contract": "contracts/TellerV2.sol:TellerV2",
        "label": "reputationManager",
        "offset": 0,
        "slot": "159",
        "type": "t_contract(IReputationManager)19544"
      },
      {
        "astId": 18705,
        "contract": "contracts/TellerV2.sol:TellerV2",
        "label": "_borrowerBidsActive",
        "offset": 0,
        "slot": "160",
        "type": "t_mapping(t_address,t_struct(UintSet)9063_storage)"
      },
      {
        "astId": 18709,
        "contract": "contracts/TellerV2.sol:TellerV2",
        "label": "bidDefaultDuration",
        "offset": 0,
        "slot": "161",
        "type": "t_mapping(t_uint256,t_uint32)"
      },
      {
        "astId": 18713,
        "contract": "contracts/TellerV2.sol:TellerV2",
        "label": "bidExpirationTime",
        "offset": 0,
        "slot": "162",
        "type": "t_mapping(t_uint256,t_uint32)"
      },
      {
        "astId": 18719,
        "contract": "contracts/TellerV2.sol:TellerV2",
        "label": "lenderVolumeFilled",
        "offset": 0,
        "slot": "163",
        "type": "t_mapping(t_address,t_mapping(t_address,t_uint256))"
      },
      {
        "astId": 18723,
        "contract": "contracts/TellerV2.sol:TellerV2",
        "label": "totalVolumeFilled",
        "offset": 0,
        "slot": "164",
        "type": "t_mapping(t_address,t_uint256)"
      },
      {
        "astId": 18725,
        "contract": "contracts/TellerV2.sol:TellerV2",
        "label": "version",
        "offset": 0,
        "slot": "165",
        "type": "t_uint256"
      },
      {
        "astId": 18729,
        "contract": "contracts/TellerV2.sol:TellerV2",
        "label": "uris",
        "offset": 0,
        "slot": "166",
        "type": "t_mapping(t_uint256,t_string_storage)"
      },
      {
        "astId": 18736,
        "contract": "contracts/TellerV2.sol:TellerV2",
        "label": "_trustedMarketForwarders",
        "offset": 0,
        "slot": "167",
        "type": "t_mapping(t_uint256,t_address)"
      },
      {
        "astId": 18741,
        "contract": "contracts/TellerV2.sol:TellerV2",
        "label": "_approvedForwarderSenders",
        "offset": 0,
        "slot": "168",
        "type": "t_mapping(t_address,t_struct(AddressSet)8906_storage)"
      },
      {
        "astId": 18746,
        "contract": "contracts/TellerV2.sol:TellerV2",
        "label": "lenderCommitmentForwarder",
        "offset": 0,
        "slot": "169",
        "type": "t_address"
      },
      {
        "astId": 18752,
        "contract": "contracts/TellerV2.sol:TellerV2",
        "label": "collateralManager",
        "offset": 0,
        "slot": "170",
        "type": "t_contract(ICollateralManager)18950"
      },
      {
        "astId": 18758,
        "contract": "contracts/TellerV2.sol:TellerV2",
        "label": "lenderManager",
        "offset": 0,
        "slot": "171",
        "type": "t_contract(ILenderManager)19264"
      },
      {
        "astId": 18763,
        "contract": "contracts/TellerV2.sol:TellerV2",
        "label": "bidPaymentCycleType",
        "offset": 0,
        "slot": "172",
        "type": "t_mapping(t_uint256,t_enum(PaymentCycleType)21562)"
      }
    ],
    "types": {
      "t_address": {
        "encoding": "inplace",
        "label": "address",
        "numberOfBytes": "20"
      },
      "t_array(t_bytes32)dyn_storage": {
        "base": "t_bytes32",
        "encoding": "dynamic_array",
        "label": "bytes32[]",
        "numberOfBytes": "32"
      },
      "t_array(t_uint256)49_storage": {
        "base": "t_uint256",
        "encoding": "inplace",
        "label": "uint256[49]",
        "numberOfBytes": "1568"
      },
      "t_array(t_uint256)50_storage": {
        "base": "t_uint256",
        "encoding": "inplace",
        "label": "uint256[50]",
        "numberOfBytes": "1600"
      },
      "t_array(t_uint256)dyn_storage": {
        "base": "t_uint256",
        "encoding": "dynamic_array",
        "label": "uint256[]",
        "numberOfBytes": "32"
      },
      "t_bool": {
        "encoding": "inplace",
        "label": "bool",
        "numberOfBytes": "1"
      },
      "t_bytes32": {
        "encoding": "inplace",
        "label": "bytes32",
        "numberOfBytes": "32"
      },
      "t_contract(ERC20)5030": {
        "encoding": "inplace",
        "label": "contract ERC20",
        "numberOfBytes": "20"
      },
      "t_contract(ICollateralManager)18950": {
        "encoding": "inplace",
        "label": "contract ICollateralManager",
        "numberOfBytes": "20"
      },
      "t_contract(ILenderManager)19264": {
        "encoding": "inplace",
        "label": "contract ILenderManager",
        "numberOfBytes": "20"
      },
      "t_contract(IMarketRegistry)19485": {
        "encoding": "inplace",
        "label": "contract IMarketRegistry",
        "numberOfBytes": "20"
      },
      "t_contract(IReputationManager)19544": {
        "encoding": "inplace",
        "label": "contract IReputationManager",
        "numberOfBytes": "20"
      },
      "t_enum(BidState)18619": {
        "encoding": "inplace",
        "label": "enum BidState",
        "numberOfBytes": "1"
      },
      "t_enum(PaymentCycleType)21562": {
        "encoding": "inplace",
        "label": "enum PaymentCycleType",
        "numberOfBytes": "1"
      },
      "t_enum(PaymentType)21559": {
        "encoding": "inplace",
        "label": "enum PaymentType",
        "numberOfBytes": "1"
      },
      "t_mapping(t_address,t_array(t_uint256)dyn_storage)": {
        "encoding": "mapping",
        "key": "t_address",
        "label": "mapping(address => uint256[])",
        "numberOfBytes": "32",
        "value": "t_array(t_uint256)dyn_storage"
      },
      "t_mapping(t_address,t_mapping(t_address,t_uint256))": {
        "encoding": "mapping",
        "key": "t_address",
        "label": "mapping(address => mapping(address => uint256))",
        "numberOfBytes": "32",
        "value": "t_mapping(t_address,t_uint256)"
      },
      "t_mapping(t_address,t_struct(AddressSet)8906_storage)": {
        "encoding": "mapping",
        "key": "t_address",
        "label": "mapping(address => struct EnumerableSet.AddressSet)",
        "numberOfBytes": "32",
        "value": "t_struct(AddressSet)8906_storage"
      },
      "t_mapping(t_address,t_struct(UintSet)9063_storage)": {
        "encoding": "mapping",
        "key": "t_address",
        "label": "mapping(address => struct EnumerableSet.UintSet)",
        "numberOfBytes": "32",
        "value": "t_struct(UintSet)9063_storage"
      },
      "t_mapping(t_address,t_uint256)": {
        "encoding": "mapping",
        "key": "t_address",
        "label": "mapping(address => uint256)",
        "numberOfBytes": "32",
        "value": "t_uint256"
      },
      "t_mapping(t_bytes32,t_uint256)": {
        "encoding": "mapping",
        "key": "t_bytes32",
        "label": "mapping(bytes32 => uint256)",
        "numberOfBytes": "32",
        "value": "t_uint256"
      },
      "t_mapping(t_uint256,t_address)": {
        "encoding": "mapping",
        "key": "t_uint256",
        "label": "mapping(uint256 => address)",
        "numberOfBytes": "32",
        "value": "t_address"
      },
      "t_mapping(t_uint256,t_enum(PaymentCycleType)21562)": {
        "encoding": "mapping",
        "key": "t_uint256",
        "label": "mapping(uint256 => enum PaymentCycleType)",
        "numberOfBytes": "32",
        "value": "t_enum(PaymentCycleType)21562"
      },
      "t_mapping(t_uint256,t_string_storage)": {
        "encoding": "mapping",
        "key": "t_uint256",
        "label": "mapping(uint256 => string)",
        "numberOfBytes": "32",
        "value": "t_string_storage"
      },
      "t_mapping(t_uint256,t_struct(Bid)18647_storage)": {
        "encoding": "mapping",
        "key": "t_uint256",
        "label": "mapping(uint256 => struct Bid)",
        "numberOfBytes": "32",
        "value": "t_struct(Bid)18647_storage"
      },
      "t_mapping(t_uint256,t_uint32)": {
        "encoding": "mapping",
        "key": "t_uint256",
        "label": "mapping(uint256 => uint32)",
        "numberOfBytes": "32",
        "value": "t_uint32"
      },
      "t_string_storage": {
        "encoding": "bytes",
        "label": "string",
        "numberOfBytes": "32"
      },
      "t_struct(AddressSet)8906_storage": {
        "encoding": "inplace",
        "label": "struct EnumerableSet.AddressSet",
        "members": [
          {
            "astId": 8905,
            "contract": "contracts/TellerV2.sol:TellerV2",
            "label": "_inner",
            "offset": 0,
            "slot": "0",
            "type": "t_struct(Set)8591_storage"
          }
        ],
        "numberOfBytes": "64"
      },
      "t_struct(Bid)18647_storage": {
        "encoding": "inplace",
        "label": "struct Bid",
        "members": [
          {
            "astId": 18626,
            "contract": "contracts/TellerV2.sol:TellerV2",
            "label": "borrower",
            "offset": 0,
            "slot": "0",
            "type": "t_address"
          },
          {
            "astId": 18628,
            "contract": "contracts/TellerV2.sol:TellerV2",
            "label": "receiver",
            "offset": 0,
            "slot": "1",
            "type": "t_address"
          },
          {
            "astId": 18630,
            "contract": "contracts/TellerV2.sol:TellerV2",
            "label": "lender",
            "offset": 0,
            "slot": "2",
            "type": "t_address"
          },
          {
            "astId": 18632,
            "contract": "contracts/TellerV2.sol:TellerV2",
            "label": "marketplaceId",
            "offset": 0,
            "slot": "3",
            "type": "t_uint256"
          },
          {
            "astId": 18634,
            "contract": "contracts/TellerV2.sol:TellerV2",
            "label": "_metadataURI",
            "offset": 0,
            "slot": "4",
            "type": "t_bytes32"
          },
          {
            "astId": 18637,
            "contract": "contracts/TellerV2.sol:TellerV2",
            "label": "loanDetails",
            "offset": 0,
            "slot": "5",
            "type": "t_struct(LoanDetails)18664_storage"
          },
          {
            "astId": 18640,
            "contract": "contracts/TellerV2.sol:TellerV2",
            "label": "terms",
            "offset": 0,
            "slot": "10",
            "type": "t_struct(Terms)18671_storage"
          },
          {
            "astId": 18643,
            "contract": "contracts/TellerV2.sol:TellerV2",
            "label": "state",
            "offset": 0,
            "slot": "12",
            "type": "t_enum(BidState)18619"
          },
          {
            "astId": 18646,
            "contract": "contracts/TellerV2.sol:TellerV2",
            "label": "paymentType",
            "offset": 1,
            "slot": "12",
            "type": "t_enum(PaymentType)21559"
          }
        ],
        "numberOfBytes": "416"
      },
      "t_struct(LoanDetails)18664_storage": {
        "encoding": "inplace",
        "label": "struct LoanDetails",
        "members": [
          {
            "astId": 18650,
            "contract": "contracts/TellerV2.sol:TellerV2",
            "label": "lendingToken",
            "offset": 0,
            "slot": "0",
            "type": "t_contract(ERC20)5030"
          },
          {
            "astId": 18652,
            "contract": "contracts/TellerV2.sol:TellerV2",
            "label": "principal",
            "offset": 0,
            "slot": "1",
            "type": "t_uint256"
          },
          {
            "astId": 18655,
            "contract": "contracts/TellerV2.sol:TellerV2",
            "label": "totalRepaid",
            "offset": 0,
            "slot": "2",
            "type": "t_struct(Payment)18624_storage"
          },
          {
            "astId": 18657,
            "contract": "contracts/TellerV2.sol:TellerV2",
            "label": "timestamp",
            "offset": 0,
            "slot": "4",
            "type": "t_uint32"
          },
          {
            "astId": 18659,
            "contract": "contracts/TellerV2.sol:TellerV2",
            "label": "acceptedTimestamp",
            "offset": 4,
            "slot": "4",
            "type": "t_uint32"
          },
          {
            "astId": 18661,
            "contract": "contracts/TellerV2.sol:TellerV2",
            "label": "lastRepaidTimestamp",
            "offset": 8,
            "slot": "4",
            "type": "t_uint32"
          },
          {
            "astId": 18663,
            "contract": "contracts/TellerV2.sol:TellerV2",
            "label": "loanDuration",
            "offset": 12,
            "slot": "4",
            "type": "t_uint32"
          }
        ],
        "numberOfBytes": "160"
      },
      "t_struct(Payment)18624_storage": {
        "encoding": "inplace",
        "label": "struct Payment",
        "members": [
          {
            "astId": 18621,
            "contract": "contracts/TellerV2.sol:TellerV2",
            "label": "principal",
            "offset": 0,
            "slot": "0",
            "type": "t_uint256"
          },
          {
            "astId": 18623,
            "contract": "contracts/TellerV2.sol:TellerV2",
            "label": "interest",
            "offset": 0,
            "slot": "1",
            "type": "t_uint256"
          }
        ],
        "numberOfBytes": "64"
      },
      "t_struct(Set)8591_storage": {
        "encoding": "inplace",
        "label": "struct EnumerableSet.Set",
        "members": [
          {
            "astId": 8586,
            "contract": "contracts/TellerV2.sol:TellerV2",
            "label": "_values",
            "offset": 0,
            "slot": "0",
            "type": "t_array(t_bytes32)dyn_storage"
          },
          {
            "astId": 8590,
            "contract": "contracts/TellerV2.sol:TellerV2",
            "label": "_indexes",
            "offset": 0,
            "slot": "1",
            "type": "t_mapping(t_bytes32,t_uint256)"
          }
        ],
        "numberOfBytes": "64"
      },
      "t_struct(Terms)18671_storage": {
        "encoding": "inplace",
        "label": "struct Terms",
        "members": [
          {
            "astId": 18666,
            "contract": "contracts/TellerV2.sol:TellerV2",
            "label": "paymentCycleAmount",
            "offset": 0,
            "slot": "0",
            "type": "t_uint256"
          },
          {
            "astId": 18668,
            "contract": "contracts/TellerV2.sol:TellerV2",
            "label": "paymentCycle",
            "offset": 0,
            "slot": "1",
            "type": "t_uint32"
          },
          {
            "astId": 18670,
            "contract": "contracts/TellerV2.sol:TellerV2",
            "label": "APR",
            "offset": 4,
            "slot": "1",
            "type": "t_uint16"
          }
        ],
        "numberOfBytes": "64"
      },
      "t_struct(UintSet)9063_storage": {
        "encoding": "inplace",
        "label": "struct EnumerableSet.UintSet",
        "members": [
          {
            "astId": 9062,
            "contract": "contracts/TellerV2.sol:TellerV2",
            "label": "_inner",
            "offset": 0,
            "slot": "0",
            "type": "t_struct(Set)8591_storage"
          }
        ],
        "numberOfBytes": "64"
      },
      "t_uint16": {
        "encoding": "inplace",
        "label": "uint16",
        "numberOfBytes": "2"
      },
      "t_uint256": {
        "encoding": "inplace",
        "label": "uint256",
        "numberOfBytes": "32"
      },
      "t_uint32": {
        "encoding": "inplace",
        "label": "uint32",
        "numberOfBytes": "4"
      },
      "t_uint8": {
        "encoding": "inplace",
        "label": "uint8",
        "numberOfBytes": "1"
      }
    }
  }
}