{
  "address": "0xd6C3196E29ba5a267CA242E4C2B16cb65361c1f2",
  "abi": [
    {
      "inputs": [
        {
          "internalType": "address",
          "name": "trustedForwarder",
          "type": "address"
        }
      ],
      "stateMutability": "nonpayable",
      "type": "constructor"
    },
    {
      "inputs": [
        {
          "internalType": "uint256",
          "name": "bidId",
          "type": "uint256"
        },
        {
          "internalType": "string",
          "name": "action",
          "type": "string"
        },
        {
          "internalType": "string",
          "name": "message",
          "type": "string"
        }
      ],
      "name": "ActionNotAllowed",
      "type": "error"
    },
    {
      "inputs": [
        {
          "internalType": "uint256",
          "name": "bidId",
          "type": "uint256"
        },
        {
          "internalType": "uint256",
          "name": "payment",
          "type": "uint256"
        },
        {
          "internalType": "uint256",
          "name": "minimumOwed",
          "type": "uint256"
        }
      ],
      "name": "PaymentNotMinimum",
      "type": "error"
    },
    {
      "anonymous": false,
      "inputs": [
        {
          "indexed": true,
          "internalType": "uint256",
          "name": "bidId",
          "type": "uint256"
        },
        {
          "indexed": true,
          "internalType": "address",
          "name": "lender",
          "type": "address"
        }
      ],
      "name": "AcceptedBid",
      "type": "event"
    },
    {
      "anonymous": false,
      "inputs": [
        {
          "indexed": true,
          "internalType": "uint256",
          "name": "bidId",
          "type": "uint256"
        }
      ],
      "name": "CancelledBid",
      "type": "event"
    },
    {
      "anonymous": false,
      "inputs": [
        {
          "indexed": true,
          "internalType": "uint256",
          "name": "bidId",
          "type": "uint256"
        },
        {
          "indexed": true,
          "internalType": "string",
          "name": "feeType",
          "type": "string"
        },
        {
          "indexed": true,
          "internalType": "uint256",
          "name": "amount",
          "type": "uint256"
        }
      ],
      "name": "FeePaid",
      "type": "event"
    },
    {
      "anonymous": false,
      "inputs": [
        {
          "indexed": false,
          "internalType": "uint8",
          "name": "version",
          "type": "uint8"
        }
      ],
      "name": "Initialized",
      "type": "event"
    },
    {
      "anonymous": false,
      "inputs": [
        {
          "indexed": true,
          "internalType": "uint256",
          "name": "bidId",
          "type": "uint256"
        },
        {
          "indexed": true,
          "internalType": "address",
          "name": "liquidator",
          "type": "address"
        }
      ],
      "name": "LoanLiquidated",
      "type": "event"
    },
    {
      "anonymous": false,
      "inputs": [
        {
          "indexed": true,
          "internalType": "uint256",
          "name": "bidId",
          "type": "uint256"
        }
      ],
      "name": "LoanRepaid",
      "type": "event"
    },
    {
      "anonymous": false,
      "inputs": [
        {
          "indexed": true,
          "internalType": "uint256",
          "name": "bidId",
          "type": "uint256"
        }
      ],
      "name": "LoanRepayment",
      "type": "event"
    },
    {
      "anonymous": false,
      "inputs": [
        {
          "indexed": true,
          "internalType": "uint256",
          "name": "marketId",
          "type": "uint256"
        },
        {
          "indexed": true,
          "internalType": "address",
          "name": "forwarder",
          "type": "address"
        },
        {
          "indexed": false,
          "internalType": "address",
          "name": "sender",
          "type": "address"
        }
      ],
      "name": "MarketForwarderApproved",
      "type": "event"
    },
    {
      "anonymous": false,
      "inputs": [
        {
          "indexed": true,
          "internalType": "uint256",
          "name": "bidId",
          "type": "uint256"
        }
      ],
      "name": "MarketOwnerCancelledBid",
      "type": "event"
    },
    {
      "anonymous": false,
      "inputs": [
        {
          "indexed": true,
          "internalType": "address",
          "name": "previousOwner",
          "type": "address"
        },
        {
          "indexed": true,
          "internalType": "address",
          "name": "newOwner",
          "type": "address"
        }
      ],
      "name": "OwnershipTransferred",
      "type": "event"
    },
    {
      "anonymous": false,
      "inputs": [
        {
          "indexed": false,
          "internalType": "address",
          "name": "account",
          "type": "address"
        }
      ],
      "name": "Paused",
      "type": "event"
    },
    {
      "anonymous": false,
      "inputs": [
        {
          "indexed": false,
          "internalType": "uint16",
          "name": "newFee",
          "type": "uint16"
        },
        {
          "indexed": false,
          "internalType": "uint16",
          "name": "oldFee",
          "type": "uint16"
        }
      ],
      "name": "ProtocolFeeSet",
      "type": "event"
    },
    {
      "anonymous": false,
      "inputs": [
        {
          "indexed": true,
          "internalType": "uint256",
          "name": "bidId",
          "type": "uint256"
        },
        {
          "indexed": true,
          "internalType": "address",
          "name": "borrower",
          "type": "address"
        },
        {
          "indexed": false,
          "internalType": "address",
          "name": "receiver",
          "type": "address"
        },
        {
          "indexed": true,
          "internalType": "bytes32",
          "name": "metadataURI",
          "type": "bytes32"
        }
      ],
      "name": "SubmittedBid",
      "type": "event"
    },
    {
      "anonymous": false,
      "inputs": [
        {
          "indexed": true,
          "internalType": "uint256",
          "name": "marketId",
          "type": "uint256"
        },
        {
          "indexed": false,
          "internalType": "address",
          "name": "forwarder",
          "type": "address"
        },
        {
          "indexed": false,
          "internalType": "address",
          "name": "sender",
          "type": "address"
        }
      ],
      "name": "TrustedMarketForwarderSet",
      "type": "event"
    },
    {
      "anonymous": false,
      "inputs": [
        {
          "indexed": false,
          "internalType": "address",
          "name": "account",
          "type": "address"
        }
      ],
      "name": "Unpaused",
      "type": "event"
    },
    {
      "inputs": [],
      "name": "CURRENT_CODE_VERSION",
      "outputs": [
        {
          "internalType": "uint8",
          "name": "",
          "type": "uint8"
        }
      ],
      "stateMutability": "view",
      "type": "function"
    },
    {
      "inputs": [
        {
          "internalType": "address",
          "name": "",
          "type": "address"
        }
      ],
      "name": "_lenderVolumeFilled",
      "outputs": [
        {
          "internalType": "uint256",
          "name": "",
          "type": "uint256"
        }
      ],
      "stateMutability": "view",
      "type": "function"
    },
    {
      "inputs": [],
      "name": "_totalVolumeFilled",
      "outputs": [
        {
          "internalType": "uint256",
          "name": "",
          "type": "uint256"
        }
      ],
      "stateMutability": "view",
      "type": "function"
    },
    {
      "inputs": [
        {
          "internalType": "address",
          "name": "_lendingToken",
          "type": "address"
        }
      ],
      "name": "addLendingToken",
      "outputs": [],
      "stateMutability": "nonpayable",
      "type": "function"
    },
    {
      "inputs": [
        {
          "internalType": "uint256",
          "name": "_marketId",
          "type": "uint256"
        },
        {
          "internalType": "address",
          "name": "_forwarder",
          "type": "address"
        }
      ],
      "name": "approveMarketForwarder",
      "outputs": [],
      "stateMutability": "nonpayable",
      "type": "function"
    },
    {
      "inputs": [
        {
          "internalType": "uint256",
          "name": "",
          "type": "uint256"
        }
      ],
      "name": "bidDefaultDuration",
      "outputs": [
        {
          "internalType": "uint32",
          "name": "",
          "type": "uint32"
        }
      ],
      "stateMutability": "view",
      "type": "function"
    },
    {
      "inputs": [
        {
          "internalType": "uint256",
          "name": "",
          "type": "uint256"
        }
      ],
      "name": "bidExpirationTime",
      "outputs": [
        {
          "internalType": "uint32",
          "name": "",
          "type": "uint32"
        }
      ],
      "stateMutability": "view",
      "type": "function"
    },
    {
      "inputs": [],
      "name": "bidId",
      "outputs": [
        {
          "internalType": "uint256",
          "name": "",
          "type": "uint256"
        }
      ],
      "stateMutability": "view",
      "type": "function"
    },
    {
      "inputs": [
        {
          "internalType": "uint256",
          "name": "",
          "type": "uint256"
        }
      ],
      "name": "bidPaymentCycleType",
      "outputs": [
        {
          "internalType": "enum PaymentCycleType",
          "name": "",
          "type": "uint8"
        }
      ],
      "stateMutability": "view",
      "type": "function"
    },
    {
      "inputs": [
        {
          "internalType": "uint256",
          "name": "",
          "type": "uint256"
        }
      ],
      "name": "bids",
      "outputs": [
        {
          "internalType": "address",
          "name": "borrower",
          "type": "address"
        },
        {
          "internalType": "address",
          "name": "receiver",
          "type": "address"
        },
        {
          "internalType": "address",
          "name": "lender",
          "type": "address"
        },
        {
          "internalType": "uint256",
          "name": "marketplaceId",
          "type": "uint256"
        },
        {
          "internalType": "bytes32",
          "name": "_metadataURI",
          "type": "bytes32"
        },
        {
          "components": [
            {
              "internalType": "contract ERC20",
              "name": "lendingToken",
              "type": "address"
            },
            {
              "internalType": "uint256",
              "name": "principal",
              "type": "uint256"
            },
            {
              "components": [
                {
                  "internalType": "uint256",
                  "name": "principal",
                  "type": "uint256"
                },
                {
                  "internalType": "uint256",
                  "name": "interest",
                  "type": "uint256"
                }
              ],
              "internalType": "struct Payment",
              "name": "totalRepaid",
              "type": "tuple"
            },
            {
              "internalType": "uint32",
              "name": "timestamp",
              "type": "uint32"
            },
            {
              "internalType": "uint32",
              "name": "acceptedTimestamp",
              "type": "uint32"
            },
            {
              "internalType": "uint32",
              "name": "lastRepaidTimestamp",
              "type": "uint32"
            },
            {
              "internalType": "uint32",
              "name": "loanDuration",
              "type": "uint32"
            }
          ],
          "internalType": "struct LoanDetails",
          "name": "loanDetails",
          "type": "tuple"
        },
        {
          "components": [
            {
              "internalType": "uint256",
              "name": "paymentCycleAmount",
              "type": "uint256"
            },
            {
              "internalType": "uint32",
              "name": "paymentCycle",
              "type": "uint32"
            },
            {
              "internalType": "uint16",
              "name": "APR",
              "type": "uint16"
            }
          ],
          "internalType": "struct Terms",
          "name": "terms",
          "type": "tuple"
        },
        {
          "internalType": "enum BidState",
          "name": "state",
          "type": "uint8"
        },
        {
          "internalType": "enum PaymentType",
          "name": "paymentType",
          "type": "uint8"
        }
      ],
      "stateMutability": "view",
      "type": "function"
    },
    {
      "inputs": [
        {
          "internalType": "address",
          "name": "",
          "type": "address"
        },
        {
          "internalType": "uint256",
          "name": "",
          "type": "uint256"
        }
      ],
      "name": "borrowerBids",
      "outputs": [
        {
          "internalType": "uint256",
          "name": "",
          "type": "uint256"
        }
      ],
      "stateMutability": "view",
      "type": "function"
    },
    {
      "inputs": [
        {
          "internalType": "uint256",
          "name": "_bidId",
          "type": "uint256"
        },
        {
          "internalType": "uint256",
          "name": "_timestamp",
          "type": "uint256"
        }
      ],
      "name": "calculateAmountDue",
      "outputs": [
        {
          "components": [
            {
              "internalType": "uint256",
              "name": "principal",
              "type": "uint256"
            },
            {
              "internalType": "uint256",
              "name": "interest",
              "type": "uint256"
            }
          ],
          "internalType": "struct Payment",
          "name": "due",
          "type": "tuple"
        }
      ],
      "stateMutability": "view",
      "type": "function"
    },
    {
      "inputs": [
        {
          "internalType": "uint256",
          "name": "_bidId",
          "type": "uint256"
        }
      ],
      "name": "calculateAmountDue",
      "outputs": [
        {
          "components": [
            {
              "internalType": "uint256",
              "name": "principal",
              "type": "uint256"
            },
            {
              "internalType": "uint256",
              "name": "interest",
              "type": "uint256"
            }
          ],
          "internalType": "struct Payment",
          "name": "due",
          "type": "tuple"
        }
      ],
      "stateMutability": "view",
      "type": "function"
    },
    {
      "inputs": [
        {
          "internalType": "uint256",
          "name": "_bidId",
          "type": "uint256"
        },
        {
          "internalType": "uint256",
          "name": "_timestamp",
          "type": "uint256"
        }
      ],
      "name": "calculateAmountOwed",
      "outputs": [
        {
          "components": [
            {
              "internalType": "uint256",
              "name": "principal",
              "type": "uint256"
            },
            {
              "internalType": "uint256",
              "name": "interest",
              "type": "uint256"
            }
          ],
          "internalType": "struct Payment",
          "name": "owed",
          "type": "tuple"
        }
      ],
      "stateMutability": "view",
      "type": "function"
    },
    {
      "inputs": [
        {
          "internalType": "uint256",
          "name": "_bidId",
          "type": "uint256"
        }
      ],
      "name": "calculateAmountOwed",
      "outputs": [
        {
          "components": [
            {
              "internalType": "uint256",
              "name": "principal",
              "type": "uint256"
            },
            {
              "internalType": "uint256",
              "name": "interest",
              "type": "uint256"
            }
          ],
          "internalType": "struct Payment",
          "name": "owed",
          "type": "tuple"
        }
      ],
      "stateMutability": "view",
      "type": "function"
    },
    {
      "inputs": [
        {
          "internalType": "uint256",
          "name": "_bidId",
          "type": "uint256"
        }
      ],
      "name": "calculateNextDueDate",
      "outputs": [
        {
          "internalType": "uint32",
          "name": "dueDate_",
          "type": "uint32"
        }
      ],
      "stateMutability": "view",
      "type": "function"
    },
    {
      "inputs": [
        {
          "internalType": "uint256",
          "name": "_bidId",
          "type": "uint256"
        }
      ],
      "name": "cancelBid",
      "outputs": [],
      "stateMutability": "nonpayable",
      "type": "function"
    },
    {
      "inputs": [
        {
          "internalType": "uint256",
          "name": "_bidId",
          "type": "uint256"
        }
      ],
      "name": "claimLoanNFT",
      "outputs": [],
      "stateMutability": "nonpayable",
      "type": "function"
    },
    {
      "inputs": [],
      "name": "collateralManager",
      "outputs": [
        {
          "internalType": "contract ICollateralManager",
          "name": "",
          "type": "address"
        }
      ],
      "stateMutability": "view",
      "type": "function"
    },
    {
      "inputs": [
        {
          "internalType": "uint256",
          "name": "_bidId",
          "type": "uint256"
        }
      ],
      "name": "getBidState",
      "outputs": [
        {
          "internalType": "enum BidState",
          "name": "",
          "type": "uint8"
        }
      ],
      "stateMutability": "view",
      "type": "function"
    },
    {
      "inputs": [
        {
          "internalType": "address",
          "name": "_borrower",
          "type": "address"
        }
      ],
      "name": "getBorrowerActiveLoanIds",
      "outputs": [
        {
          "internalType": "uint256[]",
          "name": "",
          "type": "uint256[]"
        }
      ],
      "stateMutability": "view",
      "type": "function"
    },
    {
      "inputs": [
        {
          "internalType": "address",
          "name": "_borrower",
          "type": "address"
        }
      ],
      "name": "getBorrowerLoanIds",
      "outputs": [
        {
          "internalType": "uint256[]",
          "name": "",
          "type": "uint256[]"
        }
      ],
      "stateMutability": "view",
      "type": "function"
    },
    {
      "inputs": [],
      "name": "getLendingTokens",
      "outputs": [
        {
          "internalType": "address[]",
          "name": "",
          "type": "address[]"
        }
      ],
      "stateMutability": "view",
      "type": "function"
    },
    {
      "inputs": [
        {
          "internalType": "uint256",
          "name": "_bidId",
          "type": "uint256"
        }
      ],
      "name": "getLoanBorrower",
      "outputs": [
        {
          "internalType": "address",
          "name": "borrower_",
          "type": "address"
        }
      ],
      "stateMutability": "view",
      "type": "function"
    },
    {
      "inputs": [
        {
          "internalType": "uint256",
          "name": "_bidId",
          "type": "uint256"
        }
      ],
      "name": "getLoanLender",
      "outputs": [
        {
          "internalType": "address",
          "name": "lender_",
          "type": "address"
        }
      ],
      "stateMutability": "view",
      "type": "function"
    },
    {
      "inputs": [
        {
          "internalType": "uint256",
          "name": "_bidId",
          "type": "uint256"
        }
      ],
      "name": "getLoanLendingToken",
      "outputs": [
        {
          "internalType": "address",
          "name": "token_",
          "type": "address"
        }
      ],
      "stateMutability": "view",
      "type": "function"
    },
    {
      "inputs": [
        {
          "internalType": "uint256",
          "name": "_bidId",
          "type": "uint256"
        }
      ],
      "name": "getLoanMarketId",
      "outputs": [
        {
          "internalType": "uint256",
          "name": "_marketId",
          "type": "uint256"
        }
      ],
      "stateMutability": "view",
      "type": "function"
    },
    {
      "inputs": [
        {
          "internalType": "uint256",
          "name": "_bidId",
          "type": "uint256"
        }
      ],
      "name": "getMetadataURI",
      "outputs": [
        {
          "internalType": "string",
          "name": "metadataURI_",
          "type": "string"
        }
      ],
      "stateMutability": "view",
      "type": "function"
    },
    {
      "inputs": [
        {
          "internalType": "uint256",
          "name": "_marketId",
          "type": "uint256"
        },
        {
          "internalType": "address",
          "name": "_forwarder",
          "type": "address"
        },
        {
          "internalType": "address",
          "name": "_account",
          "type": "address"
        }
      ],
      "name": "hasApprovedMarketForwarder",
      "outputs": [
        {
          "internalType": "bool",
          "name": "",
          "type": "bool"
        }
      ],
      "stateMutability": "view",
      "type": "function"
    },
    {
      "inputs": [
        {
          "internalType": "uint16",
          "name": "_protocolFee",
          "type": "uint16"
        },
        {
          "internalType": "address",
          "name": "_marketRegistry",
          "type": "address"
        },
        {
          "internalType": "address",
          "name": "_reputationManager",
          "type": "address"
        },
        {
          "internalType": "address",
          "name": "_lenderCommitmentForwarder",
          "type": "address"
        },
        {
          "internalType": "address[]",
          "name": "_lendingTokens",
          "type": "address[]"
        },
        {
          "internalType": "address",
          "name": "_collateralManager",
          "type": "address"
        },
        {
          "internalType": "address",
          "name": "_lenderManager",
          "type": "address"
        }
      ],
      "name": "initialize",
      "outputs": [],
      "stateMutability": "nonpayable",
      "type": "function"
    },
    {
      "inputs": [
        {
          "internalType": "uint256",
          "name": "_bidId",
          "type": "uint256"
        }
      ],
      "name": "isLoanDefaulted",
      "outputs": [
        {
          "internalType": "bool",
          "name": "",
          "type": "bool"
        }
      ],
      "stateMutability": "view",
      "type": "function"
    },
    {
      "inputs": [
        {
          "internalType": "uint256",
          "name": "_bidId",
          "type": "uint256"
        }
      ],
      "name": "isLoanExpired",
      "outputs": [
        {
          "internalType": "bool",
          "name": "",
          "type": "bool"
        }
      ],
      "stateMutability": "view",
      "type": "function"
    },
    {
      "inputs": [
        {
          "internalType": "uint256",
          "name": "_bidId",
          "type": "uint256"
        }
      ],
      "name": "isPaymentLate",
      "outputs": [
        {
          "internalType": "bool",
          "name": "",
          "type": "bool"
        }
      ],
      "stateMutability": "view",
      "type": "function"
    },
    {
      "inputs": [
        {
          "internalType": "address",
          "name": "forwarder",
          "type": "address"
        }
      ],
      "name": "isTrustedForwarder",
      "outputs": [
        {
          "internalType": "bool",
          "name": "",
          "type": "bool"
        }
      ],
      "stateMutability": "view",
      "type": "function"
    },
    {
      "inputs": [
        {
          "internalType": "uint256",
          "name": "_marketId",
          "type": "uint256"
        },
        {
          "internalType": "address",
          "name": "_trustedMarketForwarder",
          "type": "address"
        }
      ],
      "name": "isTrustedMarketForwarder",
      "outputs": [
        {
          "internalType": "bool",
          "name": "",
          "type": "bool"
        }
      ],
      "stateMutability": "view",
      "type": "function"
    },
    {
      "inputs": [
        {
          "internalType": "uint256",
          "name": "_bidId",
          "type": "uint256"
        }
      ],
      "name": "lastRepaidTimestamp",
      "outputs": [
        {
          "internalType": "uint32",
          "name": "",
          "type": "uint32"
        }
      ],
      "stateMutability": "view",
      "type": "function"
    },
    {
      "inputs": [
        {
          "internalType": "uint256",
          "name": "_bidId",
          "type": "uint256"
        }
      ],
      "name": "lenderAcceptBid",
      "outputs": [
        {
          "internalType": "uint256",
          "name": "amountToProtocol",
          "type": "uint256"
        },
        {
          "internalType": "uint256",
          "name": "amountToMarketplace",
          "type": "uint256"
        },
        {
          "internalType": "uint256",
          "name": "amountToBorrower",
          "type": "uint256"
        }
      ],
      "stateMutability": "nonpayable",
      "type": "function"
    },
    {
      "inputs": [],
      "name": "lenderCommitmentForwarder",
      "outputs": [
        {
          "internalType": "address",
          "name": "",
          "type": "address"
        }
      ],
      "stateMutability": "view",
      "type": "function"
    },
    {
      "inputs": [],
      "name": "lenderManager",
      "outputs": [
        {
          "internalType": "contract ILenderManager",
          "name": "",
          "type": "address"
        }
      ],
      "stateMutability": "view",
      "type": "function"
    },
    {
      "inputs": [
        {
          "internalType": "address",
          "name": "",
          "type": "address"
        },
        {
          "internalType": "address",
          "name": "",
          "type": "address"
        }
      ],
      "name": "lenderVolumeFilled",
      "outputs": [
        {
          "internalType": "uint256",
          "name": "",
          "type": "uint256"
        }
      ],
      "stateMutability": "view",
      "type": "function"
    },
    {
      "inputs": [
        {
          "internalType": "uint256",
          "name": "_bidId",
          "type": "uint256"
        }
      ],
      "name": "liquidateLoanFull",
      "outputs": [],
      "stateMutability": "nonpayable",
      "type": "function"
    },
    {
      "inputs": [
        {
          "internalType": "uint256",
          "name": "_bidId",
          "type": "uint256"
        }
      ],
      "name": "marketOwnerCancelBid",
      "outputs": [],
      "stateMutability": "nonpayable",
      "type": "function"
    },
    {
      "inputs": [],
      "name": "marketRegistry",
      "outputs": [
        {
          "internalType": "contract IMarketRegistry",
          "name": "",
          "type": "address"
        }
      ],
      "stateMutability": "view",
      "type": "function"
    },
    {
      "inputs": [],
      "name": "owner",
      "outputs": [
        {
          "internalType": "address",
          "name": "",
          "type": "address"
        }
      ],
      "stateMutability": "view",
      "type": "function"
    },
    {
      "inputs": [],
      "name": "pauseProtocol",
      "outputs": [],
      "stateMutability": "nonpayable",
      "type": "function"
    },
    {
      "inputs": [],
      "name": "paused",
      "outputs": [
        {
          "internalType": "bool",
          "name": "",
          "type": "bool"
        }
      ],
      "stateMutability": "view",
      "type": "function"
    },
    {
      "inputs": [],
      "name": "protocolFee",
      "outputs": [
        {
          "internalType": "uint16",
          "name": "",
          "type": "uint16"
        }
      ],
      "stateMutability": "view",
      "type": "function"
    },
    {
      "inputs": [
        {
          "internalType": "address",
          "name": "_lendingToken",
          "type": "address"
        }
      ],
      "name": "removeLendingToken",
      "outputs": [],
      "stateMutability": "nonpayable",
      "type": "function"
    },
    {
      "inputs": [],
      "name": "renounceOwnership",
      "outputs": [],
      "stateMutability": "nonpayable",
      "type": "function"
    },
    {
      "inputs": [
        {
          "internalType": "uint256",
          "name": "_bidId",
          "type": "uint256"
        },
        {
          "internalType": "uint256",
          "name": "_amount",
          "type": "uint256"
        }
      ],
      "name": "repayLoan",
      "outputs": [],
      "stateMutability": "nonpayable",
      "type": "function"
    },
    {
      "inputs": [
        {
          "internalType": "uint256",
          "name": "_bidId",
          "type": "uint256"
        }
      ],
      "name": "repayLoanFull",
      "outputs": [],
      "stateMutability": "nonpayable",
      "type": "function"
    },
    {
      "inputs": [
        {
          "internalType": "uint256",
          "name": "_bidId",
          "type": "uint256"
        }
      ],
      "name": "repayLoanMinimum",
      "outputs": [],
      "stateMutability": "nonpayable",
      "type": "function"
    },
    {
      "inputs": [],
      "name": "reputationManager",
      "outputs": [
        {
          "internalType": "contract IReputationManager",
          "name": "",
          "type": "address"
        }
      ],
      "stateMutability": "view",
      "type": "function"
    },
    {
      "inputs": [
        {
          "internalType": "address",
          "name": "_lenderManager",
          "type": "address"
        }
      ],
      "name": "setLenderManager",
      "outputs": [],
      "stateMutability": "nonpayable",
      "type": "function"
    },
    {
      "inputs": [
        {
          "internalType": "uint16",
          "name": "newFee",
          "type": "uint16"
        }
      ],
      "name": "setProtocolFee",
      "outputs": [],
      "stateMutability": "nonpayable",
      "type": "function"
    },
    {
      "inputs": [
        {
          "internalType": "address",
          "name": "_reputationManager",
          "type": "address"
        }
      ],
      "name": "setReputationManager",
      "outputs": [],
      "stateMutability": "nonpayable",
      "type": "function"
    },
    {
      "inputs": [
        {
          "internalType": "uint256",
          "name": "_marketId",
          "type": "uint256"
        },
        {
          "internalType": "address",
          "name": "_forwarder",
          "type": "address"
        }
      ],
      "name": "setTrustedMarketForwarder",
      "outputs": [],
      "stateMutability": "nonpayable",
      "type": "function"
    },
    {
      "inputs": [
        {
          "internalType": "address",
          "name": "_lendingToken",
          "type": "address"
        },
        {
          "internalType": "uint256",
          "name": "_marketplaceId",
          "type": "uint256"
        },
        {
          "internalType": "uint256",
          "name": "_principal",
          "type": "uint256"
        },
        {
          "internalType": "uint32",
          "name": "_duration",
          "type": "uint32"
        },
        {
          "internalType": "uint16",
          "name": "_APR",
          "type": "uint16"
        },
        {
          "internalType": "string",
          "name": "_metadataURI",
          "type": "string"
        },
        {
          "internalType": "address",
          "name": "_receiver",
          "type": "address"
        }
      ],
      "name": "submitBid",
      "outputs": [
        {
          "internalType": "uint256",
          "name": "bidId_",
          "type": "uint256"
        }
      ],
      "stateMutability": "nonpayable",
      "type": "function"
    },
    {
      "inputs": [
        {
          "internalType": "address",
          "name": "_lendingToken",
          "type": "address"
        },
        {
          "internalType": "uint256",
          "name": "_marketplaceId",
          "type": "uint256"
        },
        {
          "internalType": "uint256",
          "name": "_principal",
          "type": "uint256"
        },
        {
          "internalType": "uint32",
          "name": "_duration",
          "type": "uint32"
        },
        {
          "internalType": "uint16",
          "name": "_APR",
          "type": "uint16"
        },
        {
          "internalType": "string",
          "name": "_metadataURI",
          "type": "string"
        },
        {
          "internalType": "address",
          "name": "_receiver",
          "type": "address"
        },
        {
          "components": [
            {
              "internalType": "enum CollateralType",
              "name": "_collateralType",
              "type": "uint8"
            },
            {
              "internalType": "uint256",
              "name": "_amount",
              "type": "uint256"
            },
            {
              "internalType": "uint256",
              "name": "_tokenId",
              "type": "uint256"
            },
            {
              "internalType": "address",
              "name": "_collateralAddress",
              "type": "address"
            }
          ],
          "internalType": "struct Collateral[]",
          "name": "_collateralInfo",
          "type": "tuple[]"
        }
      ],
      "name": "submitBid",
      "outputs": [
        {
          "internalType": "uint256",
          "name": "bidId_",
          "type": "uint256"
        }
      ],
      "stateMutability": "nonpayable",
      "type": "function"
    },
    {
      "inputs": [
        {
          "internalType": "address",
          "name": "",
          "type": "address"
        }
      ],
      "name": "totalVolumeFilled",
      "outputs": [
        {
          "internalType": "uint256",
          "name": "",
          "type": "uint256"
        }
      ],
      "stateMutability": "view",
      "type": "function"
    },
    {
      "inputs": [
        {
          "internalType": "address",
          "name": "newOwner",
          "type": "address"
        }
      ],
      "name": "transferOwnership",
      "outputs": [],
      "stateMutability": "nonpayable",
      "type": "function"
    },
    {
      "inputs": [],
      "name": "unpauseProtocol",
      "outputs": [],
      "stateMutability": "nonpayable",
      "type": "function"
    },
    {
      "inputs": [
        {
          "internalType": "uint256",
          "name": "",
          "type": "uint256"
        }
      ],
      "name": "uris",
      "outputs": [
        {
          "internalType": "string",
          "name": "",
          "type": "string"
        }
      ],
      "stateMutability": "view",
      "type": "function"
    },
    {
      "inputs": [],
      "name": "version",
      "outputs": [
        {
          "internalType": "uint256",
          "name": "",
          "type": "uint256"
        }
      ],
      "stateMutability": "view",
      "type": "function"
    }
  ],
  "transactionHash": "0xc5b1539f6fa627824fd892c1d3a49fa05384c4d136ccdd89abb536dc81d93a21",
  "args": [
    "0xF39674F4d3878A732Cb4c70b377C013AffB89C1F"
  ],
  "numDeployments": 1,
  "solcInputHash": "060a0e06ef3f72cfc1caa979d18de7ca",
  "bytecode": "0x60a060405260006097553480156200001657600080fd5b5060405162005da938038062005da983398101604081905262000039916200004b565b6001600160a01b03166080526200007d565b6000602082840312156200005e57600080fd5b81516001600160a01b03811681146200007657600080fd5b9392505050565b608051615d09620000a06000396000818161080801526142850152615d096000f3fe608060405234801561001057600080fd5b50600436106103d05760003560e01c80636b868afb116101ff578063b5d34fcd1161011a578063d974cc57116100ad578063e8cbab091161007c578063e8cbab0914610abf578063ecb96fe614610ad2578063f2fde38b14610ae5578063f93b6be514610af857600080fd5b8063d974cc5714610a7e578063dbf6248914610a91578063e41c22f214610a99578063e4467f3514610aac57600080fd5b8063bf77ffae116100e9578063bf77ffae14610a12578063d4eda4cf14610a45578063d76ac91f14610a58578063d87569cc14610a6b57600080fd5b8063b5d34fcd146109b9578063b97e8141146109d9578063ba6d5b15146109ec578063bde644fb146109ff57600080fd5b80638da5cb5b11610192578063a51e2bad11610161578063a51e2bad1461094f578063a75021ba14610962578063a8cb5d6814610975578063b0e21e8a146109a357600080fd5b80638da5cb5b146109055780639703ef35146109165780639a11e33914610929578063a10905ea1461093c57600080fd5b80637bbd53d7116101ce5780637bbd53d7146108c35780638288da8a146108d65780638a700b53146108e95780638ac47319146108fc57600080fd5b80636b868afb146108825780636c6ca79c14610895578063706a43c3146108a8578063715018a6146108bb57600080fd5b806323be345c116102ef5780634423c5f111610282578063572b6c0511610251578063572b6c05146107f85780635c975abb146108385780636aedfe68146108495780636b76c0851461085c57600080fd5b80634423c5f1146106ad5780634a06f6ea146107c957806354fd4d50146107dc57806356a837f4146107e557600080fd5b80633819bcdc116102be5780633819bcdc146106345780633ef0a2f71461064757806340910c70146106705780634148f94c1461069357600080fd5b806323be345c146105be5780632519dc79146105d15780632e9332d4146105f1578063367358911461060457600080fd5b80631289b3961161036757806319b353de1161033657806319b353de146105705780631d12363314610583578063206c54c714610596578063235d5a7b146105a957600080fd5b80631289b396146104fb5780631420a26614610504578063145730331461051957806318520f051461055d57600080fd5b80631042b85f116103a35780631042b85f1461046d578063106182231461048d5780631253c546146104a0578063127caa88146104c057600080fd5b8063054de0ff146103d557806306f33a92146103fe578063089487b51461041f578063093f56171461044a575b600080fd5b6103e86103e3366004614f30565b610b00565b6040516103f59190614f4d565b60405180910390f35b61041161040c366004614ffc565b610b2a565b6040519081526020016103f5565b61041161042d36600461509e565b60a360209081526000928352604080842090915290825290205481565b61045d6104583660046150d7565b610b51565b60405190151581526020016103f5565b61048061047b3660046150f0565b610ba6565b6040516103f59190615112565b61045d61049b3660046150d7565b610c3f565b6104b36104ae3660046150d7565b610cd5565b6040516103f59190615181565b6104e66104ce3660046150d7565b60a26020526000908152604090205463ffffffff1681565b60405163ffffffff90911681526020016103f5565b610411609b5481565b610517610512366004615194565b610d6f565b005b6105456105273660046150d7565b6000908152609860205260409020600501546001600160a01b031690565b6040516001600160a01b0390911681526020016103f5565b61051761056b3660046150d7565b610ecb565b61045d61057e3660046151b9565b611055565b6103e8610591366004614f30565b611094565b6105176105a43660046150d7565b611100565b6105b1611271565b6040516103f591906151fb565b60aa54610545906001600160a01b031681565b6104116105df366004614f30565b60a46020526000908152604090205481565b6105176105ff366004615194565b611282565b6106276106123660046150d7565b60ac6020526000908152604090205460ff1681565b6040516103f59190615262565b610411610642366004615275565b611365565b6105456106553660046150d7565b6000908152609860205260409020546001600160a01b031690565b61041161067e3660046150d7565b60009081526098602052604090206003015490565b61069b600981565b60405160ff90911681526020016103f5565b6107b46106bb3660046150d7565b60986020908152600091825260409182902080546001820154600283015460038401546004850154875160e08101895260058701546001600160a01b0390811682526006880154828a01528951808b018b52600789015481526008890154818b0152828b0152600988015463ffffffff808216606080860191909152600160201b80840483166080870152600160401b8404831660a0870152600160601b909304821660c08601528c519081018d52600a8b01548152600b8b01549182169b81019b909b520461ffff1699890199909952600c909601549488169793841696939092169490939192909160ff8082169161010090041689565b6040516103f5999897969594939291906152be565b60ab54610545906001600160a01b031681565b61041160a55481565b6105176107f3366004614f30565b611396565b61045d610806366004614f30565b7f00000000000000000000000000000000000000000000000000000000000000006001600160a01b0390811691161490565b60655462010000900460ff1661045d565b6104806108573660046150f0565b6113c0565b6104e661086a3660046150d7565b60a16020526000908152604090205463ffffffff1681565b609f54610545906001600160a01b031681565b6104806108a33660046150d7565b611459565b6104e66108b63660046150d7565b6114d9565b6105176116ea565b6104116108d13660046153b7565b6116fe565b6105176108e43660046150d7565b611819565b6105176108f73660046150f0565b611a04565b61041160975481565b6033546001600160a01b0316610545565b6105176109243660046150d7565b611b20565b6105176109373660046150d7565b611bd5565b61054561094a3660046150d7565b611c9b565b6104e661095d3660046150d7565b611d45565b610517610970366004614f30565b611d5c565b6109886109833660046150d7565b611d73565b604080519384526020840192909252908201526060016103f5565b60655460405161ffff90911681526020016103f5565b6104116109c7366004614f30565b609a6020526000908152604090205481565b6105176109e73660046154b7565b612404565b60a954610545906001600160a01b031681565b6104b3610a0d3660046150d7565b6127f8565b610a38610a203660046150d7565b6000908152609860205260409020600c015460ff1690565b6040516103f59190615598565b610517610a533660046150d7565b612907565b610517610a66366004614f30565b6129d2565b61045d610a79366004615194565b612a3c565b610480610a8c3660046150d7565b612a76565b610517612af6565b610517610aa7366004614f30565b612b0e565b610517610aba3660046155a6565b612bb7565b61045d610acd3660046150d7565b612c21565b609e54610545906001600160a01b031681565b610517610af3366004614f30565b612cb0565b610517612d26565b6001600160a01b038116600090815260a060205260409020606090610b2490612d3e565b92915050565b6000610b34612d4b565b610b448989898989898989612d97565b9998505050505050505050565b600060036000838152609860205260409020600c015460ff166005811115610b7b57610b7b61523c565b14610b8857506000919050565b610b91826114d9565b63ffffffff164263ffffffff16119050919050565b604080518082019091526000808252602082015260008381526098602052604090206003600c82015460ff166005811115610be357610be361523c565b141580610c0157506009810154600160201b900463ffffffff168311155b15610c0c5750610b24565b600084815260ac60205260408120548190610c2d908490879060ff1661345c565b91865250602085015250505092915050565b60008181526098602052604081206001600c82015460ff166005811115610c6857610c6861523c565b14610c765750600092915050565b600083815260a2602052604090205463ffffffff16610c985750600092915050565b600083815260a260205260409020546009820154610cbf9163ffffffff90811691166155d9565b63ffffffff164263ffffffff1611915050919050565b60a66020526000908152604090208054610cee90615601565b80601f0160208091040260200160405190810160405280929190818152602001828054610d1a90615601565b8015610d675780601f10610d3c57610100808354040283529160200191610d67565b820191906000526020600020905b815481529060010190602001808311610d4a57829003601f168201915b505050505081565b610d7761348a565b609e54604051633d36902960e01b8152600481018590526001600160a01b039283169290911690633d3690299060240160206040518083038186803b158015610dbf57600080fd5b505afa158015610dd3573d6000803e3d6000fd5b505050506040513d601f19601f82011682018060405250810190610df7919061563c565b6001600160a01b031614610e525760405162461bcd60e51b815260206004820152601f60248201527f43616c6c6572206d75737420626520746865206d61726b6574206f776e65720060448201526064015b60405180910390fd5b600082815260a76020526040902080546001600160a01b0319166001600160a01b038316179055817fa593acf9edc343669c7fc50d2caa3911326adef438361f0fa911be85c9e296a482610ea461348a565b604080516001600160a01b0393841681529290911660208301520160405180910390a25050565b60408051808201909152600c81526b18db185a5b531bd85b93919560a21b6020820152819060036000838152609860205260409020600c015460ff166005811115610f1857610f1861523c565b14610f3a5781816040516347bc33cb60e11b8152600401610e49929190615659565b610f42612d4b565b60008381526098602052604081206003810154909190610f6190613494565b60028301549091506001600160a01b03808316911614610fc35760405162461bcd60e51b815260206004820152601960248201527f6f6e6c79206c656e6465722063616e20636c61696d204e4654000000000000006044820152606401610e49565b60ab5460405163096c998360e41b8152600481018790526001600160a01b038381166024830152909116906396c9983090604401600060405180830381600087803b15801561101157600080fd5b505af1158015611025573d6000803e3d6000fd5b505060ab54600290940180546001600160a01b0319166001600160a01b0390951694909417909355505050505050565b60006110618484612a3c565b801561108a57506001600160a01b038316600090815260a86020526040902061108a908361353f565b90505b9392505050565b6001600160a01b0381166000908152609960209081526040918290208054835181840281018401909452808452606093928301828280156110f457602002820191906000526020600020905b8154815260200190600101908083116110e0575b50505050509050919050565b609e5460008281526098602052604090819020600301549051633d36902960e01b81526001600160a01b0390921691633d369029916111459160040190815260200190565b60206040518083038186803b15801561115d57600080fd5b505afa158015611171573d6000803e3d6000fd5b505050506040513d601f19601f82011682018060405250810190611195919061563c565b6001600160a01b03166111a661348a565b6001600160a01b03161461123a576040516347bc33cb60e11b8152600481018290526060602482015260146064820152731b585c9ad95d13dddb995c90d85b98d95b109a5960621b608482015260a06044820152602160a48201527f4f6e6c7920746865206d61726b6574206f776e65722063616e2063616e63656c60c4820152602160f81b60e482015261010401610e49565b61124381613561565b60405181907ff3f271d754f5264e0d143bf9be577d6eba153b0d833bd3a127d7b1a280bb13f190600090a250565b606061127d609c612d3e565b905090565b61128c8282612a3c565b6112e85760405162461bcd60e51b815260206004820152602760248201527f466f72776172646572206d757374206265207472757374656420627920746865604482015266081b585c9ad95d60ca1b6064820152608401610e49565b6113116112f361348a565b6001600160a01b038316600090815260a86020526040902090613615565b50806001600160a01b0316827f65d6b5305e8c0e58e88454a1aeecae0f55975222338b25abd0997b4d305056a161134661348a565b6040516001600160a01b03909116815260200160405180910390a35050565b6099602052816000526040600020818154811061138157600080fd5b90600052602060002001600091509150505481565b61139e61362a565b609f80546001600160a01b0319166001600160a01b0392909216919091179055565b604080518082018252600080825260208083018290528582526098905291909120600c81015460039060ff1660058111156113fd576113fd61523c565b14158061141b57506009810154600160201b900463ffffffff168311155b156114265750610b24565b600084815260ac60205260408120548190611447908490879060ff1661345c565b90865260208601525050505092915050565b604080518082019091526000808252602082015260036000838152609860205260409020600c015460ff1660058111156114955761149561523c565b1461149f57919050565b600082815260986020908152604080832060ac90925282205482916114c891429060ff1661345c565b918552506020840152509092915050565b6000818152609860205260408120600c81015460039060ff1660058111156115035761150361523c565b1461150e5750919050565b600061151984611d45565b90506001600085815260ac602052604090205460ff1660018111156115405761154061523c565b14156115e05760098201546000906115699063ffffffff600160201b90910481169084166136a3565b600984015490915061158790600160201b900463ffffffff1661372a565b6115968363ffffffff1661372a565b11156115ae576115a76002826156a8565b90506115bc565b6115b96001826156a8565b90505b60098301546115d890600160201b900463ffffffff1682613744565b9350506116a0565b600084815260ac602052604081205460ff1660018111156116035761160361523c565b14156116a057600b820154600983015461162d9163ffffffff90811691600160201b9004166155d9565b600983015490935060009061164f90600160201b900463ffffffff16836156c0565b905063ffffffff81161561169e57600b8301546000906116789063ffffffff8085169116613816565b600b8501549091506116909063ffffffff16826156e5565b61169a90866155d9565b9450505b505b60098201546000906116c89063ffffffff600160601b8204811691600160201b9004166155d9565b90508063ffffffff168463ffffffff1611156116e2578093505b505050919050565b6116f261362a565b6116fc600061384d565b565b6000611708612d4b565b6117188b8b8b8b8b8b8b8b612d97565b60aa54604051631532dc4560e01b81529192506000916001600160a01b0390911690631532dc45906117529085908890889060040161571e565b602060405180830381600087803b15801561176c57600080fd5b505af1158015611780573d6000803e3d6000fd5b505050506040513d601f19601f820116820180604052508101906117a491906157bf565b905060018115151461180a5760405162461bcd60e51b815260206004820152602960248201527f436f6c6c61746572616c2062616c616e636520636f756c64206e6f74206265206044820152681d985b1a59185d195960ba1b6064820152608401610e49565b509a9950505050505050505050565b60408051808201909152600d81526c3634b8bab4b230ba32a637b0b760991b6020820152819060036000838152609860205260409020600c015460ff1660058111156118675761186761523c565b146118895781816040516347bc33cb60e11b8152600401610e49929190615659565b61189283612c21565b6118de5760405162461bcd60e51b815260206004820152601760248201527f4c6f616e206d7573742062652064656661756c7465642e0000000000000000006044820152606401610e49565b600083815260986020908152604080832060ac909252822054909190819061190c908490429060ff1661345c565b925050915061193d86604051806040016040528085815260200184815250838561193691906156a8565b600061389f565b600c8301805460ff19166005179055600383015460009061195d90613494565b60aa5460405163f0472c4960e01b8152600481018a90526001600160a01b03808416602483015292935091169063f0472c4990604401600060405180830381600087803b1580156119ad57600080fd5b505af11580156119c1573d6000803e3d6000fd5b50506040516001600160a01b03841692508991507f73de9acc561f27528ab0a3b5dd63fefb4e59f95575891299a6f862a78779817690600090a350505050505050565b6040805180820190915260098152683932b830bca637b0b760b91b6020820152829060036000838152609860205260409020600c015460ff166005811115611a4e57611a4e61523c565b14611a705781816040516347bc33cb60e11b8152600401610e49929190615659565b600084815260986020908152604080832060ac90925282205482918291611a9c9190429060ff1661345c565b919450925090506000611aaf82846156a8565b905080871015611ae25760405162dd9d0f60e61b8152600481018990526024810188905260448101829052606401610e49565b611b16886040518060400160405280858b611afd91906157da565b8152602001859052611b0f85886156a8565b600161389f565b5050505050505050565b600081815260986020526040902080546003909101546001600160a01b0390911690611b4b90613494565b6001600160a01b031614611bc9576040516347bc33cb60e11b81526004810182905260606024820152600960648201526818d85b98d95b109a5960ba1b608482015260a06044820152601e60a48201527f4f6e6c792074686520626964206f776e65722063616e2063616e63656c21000060c482015260e401610e49565b611bd281613561565b50565b6040805180820190915260098152683932b830bca637b0b760b91b6020820152819060036000838152609860205260409020600c015460ff166005811115611c1f57611c1f61523c565b14611c415781816040516347bc33cb60e11b8152600401610e49929190615659565b600083815260986020908152604080832060ac9092528220548291611c6a91429060ff1661345c565b9250509150611c94856040518060400160405280858152602001848152508385611b0f91906156a8565b5050505050565b60008181526098602052604090206002015460ab546001600160a01b039182169116811415611d405760ab546040516331a9108f60e11b8152600481018490526001600160a01b0390911690636352211e9060240160206040518083038186803b158015611d0857600080fd5b505afa158015611d1c573d6000803e3d6000fd5b505050506040513d601f19601f82011682018060405250810190610b24919061563c565b919050565b6000818152609860205260408120610b2490613b7b565b611d6461362a565b611d6f609c82613bc1565b5050565b6000806000836040518060400160405280600f81526020016e1b195b99195c9058d8d95c1d109a59608a1b81525060016005811115611db457611db461523c565b6000838152609860205260409020600c015460ff166005811115611dda57611dda61523c565b14611dfc5781816040516347bc33cb60e11b8152600401610e499291906157f1565b611e04612d4b565b60008681526098602052604081206003810154909190611e2390613494565b609e546003840154604051633ef19a9b60e01b815260048101919091526001600160a01b03808416602483015292935060009290911690633ef19a9b90604401604080518083038186803b158015611e7a57600080fd5b505afa158015611e8e573d6000803e3d6000fd5b505050506040513d601f19601f82011682018060405250810190611eb2919061583e565b50905080611ef85760405162461bcd60e51b81526020600482015260136024820152722737ba103b32b934b334b2b2103632b73232b960691b6044820152606401610e49565b609e546003840154604051631cc672df60e01b81526001600160a01b0390921691631cc672df91611f2f9160040190815260200190565b60206040518083038186803b158015611f4757600080fd5b505afa158015611f5b573d6000803e3d6000fd5b505050506040513d601f19601f82011682018060405250810190611f7f91906157bf565b15611fbf5760405162461bcd60e51b815260206004820152601060248201526f13585c9ad95d081a5cc818db1bdcd95960821b6044820152606401610e49565b611fc889610c3f565b156120075760405162461bcd60e51b815260206004820152600f60248201526e109a59081a185cc8195e1c1a5c9959608a1b6044820152606401610e49565b6009830180546bffffffffffffffff000000001916600160201b4263ffffffff1690810263ffffffff60401b191691909117600160401b91909102179055600c830180546003919060ff191660018302179055506002830180546001600160a01b0319166001600160a01b038481169190911790915560aa546040516346f0b08b60e11b8152600481018c9052911690638de1611690602401600060405180830381600087803b1580156120ba57600080fd5b505af11580156120ce573d6000803e3d6000fd5b505050506120ed6120e260655461ffff1690565b600685015490613bd6565b609e54600385015460405163028ba63960e21b8152929a5061217b926001600160a01b0390921691630a2e98e49161212b9160040190815260200190565b60206040518083038186803b15801561214357600080fd5b505afa158015612157573d6000803e3d6000fd5b505050506040513d601f19601f820116820180604052508101906120e2919061586a565b96508688846005016001015461219191906157da565b61219b91906157da565b95506121c9826121b36033546001600160a01b031690565b60058601546001600160a01b031691908b613be8565b609e5460038401546040516332209bcb60e11b815261226c9285926001600160a01b03909116916364413796916122069160040190815260200190565b60206040518083038186803b15801561221e57600080fd5b505afa158015612232573d6000803e3d6000fd5b505050506040513d601f19601f82011682018060405250810190612256919061563c565b60058601546001600160a01b031691908a613be8565b6001830154600584015461228f916001600160a01b039182169185911689613be8565b600683015460058401546001600160a01b03908116600090815260a360209081526040808320938716835292905290812080549091906122d09084906156a8565b9091555050600683015460058401546001600160a01b0316600090815260a46020526040812080549091906123069084906156a8565b909155505082546001600160a01b0316600090815260a06020526040902061232e908a613c48565b506040516001600160a01b038316908a907fde9d3bfa8771df6761c0afac2375c88c70a3aa30478e1bd15363294033b470ed90600090a3604051671c1c9bdd1bd8dbdb60c21b81528890600801604051908190038120908b907f476a21a61ac4a7da250e040733aa10facd2eeee584b2c009d178c3de3d8a12dc90600090a46040516a6d61726b6574706c61636560a81b81528790600b01604051908190038120908b907f476a21a61ac4a7da250e040733aa10facd2eeee584b2c009d178c3de3d8a12dc90600090a450505050509193909250565b600054610100900460ff16158080156124245750600054600160ff909116105b8061243e5750303b15801561243e575060005460ff166001145b61245a5760405162461bcd60e51b8152600401610e4990615887565b6000805460ff19166001179055801561247d576000805461ff0019166101001790555b61248689613c54565b61248e613c8c565b6001600160a01b0386163b6124fa5760405162461bcd60e51b815260206004820152602c60248201527f4c656e646572436f6d6d69746d656e74466f72776172646572206d757374206260448201526b1948184818dbdb9d1c9858dd60a21b6064820152608401610e49565b60a980546001600160a01b0319166001600160a01b038881169190911790915588163b6125735760405162461bcd60e51b815260206004820152602160248201527f4d61726b65745265676973747279206d757374206265206120636f6e747261636044820152601d60fa1b6064820152608401610e49565b609e80546001600160a01b0319166001600160a01b038a81169190911790915587163b6125ee5760405162461bcd60e51b8152602060048201526024808201527f52657075746174696f6e4d616e61676572206d757374206265206120636f6e746044820152631c9858dd60e21b6064820152608401610e49565b609f80546001600160a01b0319166001600160a01b038981169190911790915583163b6126695760405162461bcd60e51b8152602060048201526024808201527f436f6c6c61746572616c4d616e61676572206d757374206265206120636f6e746044820152631c9858dd60e21b6064820152608401610e49565b60aa80546001600160a01b0319166001600160a01b03851617905561268d82613cbb565b836126da5760405162461bcd60e51b815260206004820152601b60248201527f4e6f206c656e64696e6720746f6b656e732073706563696669656400000000006044820152606401610e49565b60005b848110156127a65761271e8686838181106126fa576126fa6158d5565b905060200201602081019061270f9190614f30565b6001600160a01b03163b151590565b61276a5760405162461bcd60e51b815260206004820152601a60248201527f6c656e64696e6720746f6b656e206e6f7420636f6e74726163740000000000006044820152606401610e49565b61279486868381811061277f5761277f6158d5565b9050602002016020810190610a669190614f30565b8061279e816158eb565b9150506126dd565b5080156127ed576000805461ff0019169055604051600181527f7f26b83ff96e1f2b6a682f133852f6798a09c465da95921460cefb38474024989060200160405180910390a15b505050505050505050565b600081815260a66020526040902080546060919061281590615601565b80601f016020809104026020016040519081016040528092919081815260200182805461284190615601565b801561288e5780601f106128635761010080835404028352916020019161288e565b820191906000526020600020905b81548152906001019060200180831161287157829003601f168201915b50505050509050806040516020016128a69190615906565b604051602081830303815290604052805190602001207fc5d2460186f7233c927e7db2dcc703c0e500b653ca82273b7bfad8045d85a47060001b1415611d40576000828152609860209081526040909120600401549061108d908290613d5b565b6040805180820190915260098152683932b830bca637b0b760b91b6020820152819060036000838152609860205260409020600c015460ff1660058111156129515761295161523c565b146129735781816040516347bc33cb60e11b8152600401610e49929190615659565b600083815260986020908152604080832060ac9092528220548291829161299f9190429060ff1661345c565b9250925092506129ca866040518060400160405280858152602001848152508386611b0f91906156a8565b505050505050565b6129da61362a565b6001600160a01b0381163b612a315760405162461bcd60e51b815260206004820152601f60248201527f496e636f7272656374206c656e64696e6720746f6b656e2061646472657373006044820152606401610e49565b611d6f609c82613615565b600082815260a760205260408120546001600160a01b038381169116148061108d57505060a9546001600160a01b03908116911614919050565b604080518082019091526000808252602082015260036000838152609860205260409020600c015460ff166005811115612ab257612ab261523c565b14612abc57919050565b600082815260986020908152604080832060ac9092528220548291612ae591429060ff1661345c565b908552602085015250919392505050565b612afe61362a565b612b06612d4b565b6116fc613ef7565b600054600890610100900460ff16158015612b30575060005460ff8083169116105b612b4c5760405162461bcd60e51b8152600401610e4990615887565b6000805461ffff191660ff831617610100179055612b6861362a565b612b7182613cbb565b6000805461ff001916905560405160ff821681527f7f26b83ff96e1f2b6a682f133852f6798a09c465da95921460cefb3847402498906020015b60405180910390a15050565b612bbf61362a565b60655461ffff82811691161415612bd35750565b6065805461ffff83811661ffff198316811790935560408051938452911660208301819052917f4810ece076cee6c6042808956f3f65dad1bc72b75181341d7bed810d39deda0f9101612bab565b60008181526098602052604081206003600c82015460ff166005811115612c4a57612c4a61523c565b14612c585750600092915050565b600083815260a1602052604090205463ffffffff16612c7a5750600092915050565b600083815260a1602052604090205463ffffffff16612c9884611d45565b612ca290426156c0565b63ffffffff16119392505050565b612cb861362a565b6001600160a01b038116612d1d5760405162461bcd60e51b815260206004820152602660248201527f4f776e61626c653a206e6577206f776e657220697320746865207a65726f206160448201526564647265737360d01b6064820152608401610e49565b611bd28161384d565b612d2e61362a565b612d36613f56565b6116fc613fa5565b6060600061108d83613fe2565b60655462010000900460ff16156116fc5760405162461bcd60e51b815260206004820152601060248201526f14185d5cd8589b194e881c185d5cd95960821b6044820152606401610e49565b600080612da389613494565b609e5460405163066e751360e01b8152600481018c90526001600160a01b0380841660248301529293506000929091169063066e751390604401604080518083038186803b158015612df457600080fd5b505afa158015612e08573d6000803e3d6000fd5b505050506040513d601f19601f82011682018060405250810190612e2c919061583e565b50905080612e745760405162461bcd60e51b81526020600482015260156024820152742737ba103b32b934b334b2b2103137b93937bbb2b960591b6044820152606401610e49565b609e54604051631cc672df60e01b8152600481018c90526001600160a01b0390911690631cc672df9060240160206040518083038186803b158015612eb857600080fd5b505afa158015612ecc573d6000803e3d6000fd5b505050506040513d601f19601f82011682018060405250810190612ef091906157bf565b15612f305760405162461bcd60e51b815260206004820152601060248201526f13585c9ad95d081a5cc818db1bdcd95960821b6044820152606401610e49565b612f3b609c8c61353f565b612f875760405162461bcd60e51b815260206004820152601c60248201527f4c656e64696e6720746f6b656e206e6f7420617574686f72697a6564000000006044820152606401610e49565b609754600081815260986020526040902080546001600160a01b0319166001600160a01b03858116919091178255919450908516612fcf5780546001600160a01b0316612fd1565b845b6001820180546001600160a01b03199081166001600160a01b0393841617909155600383018d90556005830180549091168e8316179055600682018b90556009820180546fffffffff0000000000000000ffffffff1916600160601b63ffffffff8d81169190910263ffffffff1916919091174291909116179055609e5460405163a5630f1960e01b8152600481018e905291169063a5630f1990602401604080518083038186803b15801561308657600080fd5b505afa15801561309a573d6000803e3d6000fd5b505050506040513d601f19601f820116820180604052508101906130be919061592f565b609754600090815260ac602052604081208054600b86019291849160ff1916600183818111156130f0576130f061523c565b021790555081546101009190910a63ffffffff8181021990921694909116029290921790915550600b8101805465ffff000000001916600160201b61ffff8b1602179055609e546040516311bed5bb60e01b8152600481018d90526001600160a01b03909116906311bed5bb9060240160206040518083038186803b15801561317857600080fd5b505afa15801561318c573d6000803e3d6000fd5b505050506040513d601f19601f820116820180604052508101906131b0919061595e565b609754600090815260a1602052604090819020805463ffffffff191663ffffffff9390931692909217909155609e54905163082fc54d60e01b8152600481018d90526001600160a01b039091169063082fc54d9060240160206040518083038186803b15801561321f57600080fd5b505afa158015613233573d6000803e3d6000fd5b505050506040513d601f19601f82011682018060405250810190613257919061595e565b609754600090815260a2602052604090819020805463ffffffff191663ffffffff9390931692909217909155609e54905163d6e794dd60e01b8152600481018d90526001600160a01b039091169063d6e794dd9060240160206040518083038186803b1580156132c657600080fd5b505afa1580156132da573d6000803e3d6000fd5b505050506040513d601f19601f820116820180604052508101906132fe919061597b565b600c8201805461ff00191661010083600181111561331e5761331e61523c565b0217905550600c810154609754600090815260ac6020526040902054600b8301546133609260ff61010090910481169216908d908d9063ffffffff168d61403c565b600a820155609754600090815260a660205260409020613381908888614e77565b50600c8101805460ff191660011790556040516133a49088908890602001615998565b60408051808303601f19018152908290528051602091820120835460975460018601546001600160a01b0390811686529294929091169290917ff887b1f393f43fb94c5d50483df4bd410ffbf286128c5f24ff56c580ac7f731c910160405180910390a480546001600160a01b03166000908152609960209081526040822060978054825460018101845592855292842090910191909155805491613448836158eb565b919050555050505098975050505050505050565b600080600061347b8661346e88613b7b565b63ffffffff1687876140da565b92509250925093509350939050565b600061127d614281565b60006134a282610a7961348a565b156135375760131936013560601c6134df8160a860006134c061348a565b6001600160a01b0316815260208101919091526040016000209061353f565b610b245760405162461bcd60e51b8152602060048201526024808201527f53656e646572206d75737420617070726f7665206d61726b657420666f727761604482015263393232b960e11b6064820152608401610e49565b610b2461348a565b6001600160a01b0381166000908152600183016020526040812054151561108d565b60408051808201909152600981526818d85b98d95b109a5960ba1b6020820152819060016000838152609860205260409020600c015460ff1660058111156135ab576135ab61523c565b146135cd5781816040516347bc33cb60e11b8152600401610e499291906157f1565b600083815260986020526040808220600c01805460ff191660021790555184917fa0633b09ac3029a6746aa27d4db1407f5f287a10c41a6b2ad2859f4da9b2680b91a2505050565b600061108d836001600160a01b0384166142c6565b61363261348a565b6001600160a01b031661364d6033546001600160a01b031690565b6001600160a01b0316146116fc5760405162461bcd60e51b815260206004820181905260248201527f4f776e61626c653a2063616c6c6572206973206e6f7420746865206f776e65726044820152606401610e49565b6000818311156136b257600080fd5b6000806136ca6136c562015180876159be565b614315565b5090925090506000806136e36136c562015180886159be565b509092509050826136f585600c6159d2565b8261370185600c6159d2565b61370b91906156a8565b61371591906157da565b61371f91906157da565b979650505050505050565b600061373c6136c562015180846159be565b949350505050565b60008080806137596136c562015180886159be565b9194509250905061376a85836156a8565b9150600c6137796001846157da565b61378391906159be565b61378d90846156a8565b9250600c61379c6001846157da565b6137a691906159f1565b6137b19060016156a8565b915060006137bf8484614489565b9050808211156137cd578091505b6137da62015180886159f1565b620151806137e986868661450f565b6137f391906159d2565b6137fd91906156a8565b94508685101561380c57600080fd5b5050505092915050565b60008215613844578161382a6001856157da565b61383491906159be565b61383f9060016156a8565b61108d565b50600092915050565b603380546001600160a01b038381166001600160a01b0319831681179093556040519116919082907f8be0079c531659141344cd1fd0a4f28419497f9722a3daafe3b4186f6b6457e090600090a35050565b600084815260986020908152604082209085015185519192916138c291906156a8565b609f54835460405163c7312e4760e01b81526001600160a01b039182166004820152602481018a905292935060009291169063c7312e4790604401602060405180830381600087803b15801561391757600080fd5b505af115801561392b573d6000803e3d6000fd5b505050506040513d601f19601f8201168201806040525081019061394f9190615a05565b9050848210613a2357600c8301805460ff1916600417905582546001600160a01b0316600090815260a06020526040902085925061398d908861464c565b5083156139f35760aa54604051632e1a7d4d60e01b8152600481018990526001600160a01b0390911690632e1a7d4d90602401600060405180830381600087803b1580156139da57600080fd5b505af11580156139ee573d6000803e3d6000fd5b505050505b60405187907f9a7851747cd7ffb3fe0a32caf3da48b31f27cebe131267051640f8b72fc4718690600090a2613a4f565b60405187907f68ca97895fe2d09eab47e752271728ade667e72dda27e68c20eaa191a9c2187d90600090a25b6000613a5a88611c9b565b9050613a82613a6c8560030154613494565b60058601546001600160a01b0316908386613be8565b8651600785018054600090613a989084906156a8565b90915550506020870151600885018054600090613ab69084906156a8565b909155505060098401805463ffffffff60401b1916600160401b4263ffffffff16021790556000826002811115613aef57613aef61523c565b14611b1657609f54845460405163c7312e4760e01b81526001600160a01b039182166004820152602481018b905291169063c7312e4790604401602060405180830381600087803b158015613b4357600080fd5b505af1158015613b57573d6000803e3d6000fd5b505050506040513d601f19601f820116820180604052508101906127ed9190615a05565b6009810154600090600160401b900463ffffffff1615613bac576009820154600160401b900463ffffffff16610b24565b5060090154600160201b900463ffffffff1690565b600061108d836001600160a01b038416614654565b600061108d838361ffff166002614747565b604080516001600160a01b0385811660248301528416604482015260648082018490528251808303909101815260849091019091526020810180516001600160e01b03166323b872dd60e01b179052613c42908590614766565b50505050565b600061108d83836142c6565b600054610100900460ff16613c7b5760405162461bcd60e51b8152600401610e4990615a22565b613c8361483d565b611bd28161486c565b600054610100900460ff16613cb35760405162461bcd60e51b8152600401610e4990615a22565b6116fc61489c565b600054610100900460ff16613ce25760405162461bcd60e51b8152600401610e4990615a22565b6001600160a01b0381163b613d395760405162461bcd60e51b815260206004820181905260248201527f4c656e6465724d616e61676572206d757374206265206120636f6e74726163746044820152606401610e49565b60ab80546001600160a01b0319166001600160a01b0392909216919091179055565b60606000613d6a8360026159d2565b613d759060026156a8565b67ffffffffffffffff811115613d8d57613d8d615a6d565b6040519080825280601f01601f191660200182016040528015613db7576020820181803683370190505b509050600360fc1b81600081518110613dd257613dd26158d5565b60200101906001600160f81b031916908160001a905350600f60fb1b81600181518110613e0157613e016158d5565b60200101906001600160f81b031916908160001a9053506000613e258460026159d2565b613e309060016156a8565b90505b6001811115613ea8576f181899199a1a9b1b9c1cb0b131b232b360811b85600f1660108110613e6457613e646158d5565b1a60f81b828281518110613e7a57613e7a6158d5565b60200101906001600160f81b031916908160001a90535060049490941c93613ea181615a83565b9050613e33565b50831561108d5760405162461bcd60e51b815260206004820181905260248201527f537472696e67733a20686578206c656e67746820696e73756666696369656e746044820152606401610e49565b613eff612d4b565b6065805462ff00001916620100001790557f62e78cea01bee320cd4e420270b5ea74000d11b0c9f74754ebdbfc544b05a258613f3961348a565b6040516001600160a01b03909116815260200160405180910390a1565b60655462010000900460ff166116fc5760405162461bcd60e51b815260206004820152601460248201527314185d5cd8589b194e881b9bdd081c185d5cd95960621b6044820152606401610e49565b613fad613f56565b6065805462ff0000191690557f5db9ee0a495bf2e6ff9c91a7834c1ba4fdd244a5e8aa4e537bd38aeae4b073aa613f3961348a565b6060816000018054806020026020016040519081016040528092919081815260200182805480156110f457602002820191906000526020600020908154815260200190600101908083116110e05750505050509050919050565b60008060018760018111156140535761405361523c565b14614062576301e13380614068565b6301da9c005b63ffffffff16905060018860018111156140845761408461523c565b14156140bf576140b76140a463ffffffff808716908490600a906148d116565b600a6140b08987613bd6565b9190614747565b9150506140d0565b6140cc86868686856148f4565b9150505b9695505050505050565b60078401546006850154600091829182916140f4916157da565b92506000600185600181111561410c5761410c61523c565b1461411b576301e13380614121565b6301da9c005b63ffffffff169050600061415389600a0160010160049054906101000a900461ffff1686613bd690919063ffffffff16565b9050600061416189896157da565b90508261416e82846159d2565b61417891906159be565b60098b015490945060009061419a90600160201b900463ffffffff168a615a9a565b60098c01546141b69190600160601b900463ffffffff16615a9a565b600b8c015490915060009063ffffffff168212806141e15750600a8c01546141de878a6156a8565b11155b90506001600c8d0154610100900460ff1660018111156142035761420361523c565b1415614218578015614213578796505b614272565b60008161422957600a8d0154614233565b614233878a6156a8565b600b8e015490915060009063ffffffff1661424e86846159d2565b61425891906159be565b905061426d61426789836157da565b8b614a25565b985050505b50505050509450945094915050565b60007f00000000000000000000000000000000000000000000000000000000000000006001600160a01b03163314156142c1575060131936013560601c90565b503390565b600081815260018301602052604081205461430d57508154600181810184556000848152602080822090930184905584548482528286019093526040902091909155610b24565b506000610b24565b60008080838162253d8c61432c8362010bd9615ad9565b6143369190615ad9565b9050600062023ab1614349836004615b1a565b6143539190615b9f565b905060046143648262023ab1615b1a565b61436f906003615ad9565b6143799190615b9f565b6143839083615a9a565b9150600062164b09614396846001615ad9565b6143a290610fa0615b1a565b6143ac9190615b9f565b905060046143bc826105b5615b1a565b6143c69190615b9f565b6143d09084615a9a565b6143db90601f615ad9565b9250600061098f6143ed856050615b1a565b6143f79190615b9f565b9050600060506144098361098f615b1a565b6144139190615b9f565b61441d9086615a9a565b905061442a600b83615b9f565b945061443785600c615b1a565b614442836002615ad9565b61444c9190615a9a565b9150848361445b603187615a9a565b614466906064615b1a565b6144709190615ad9565b61447a9190615ad9565b9a919950975095505050505050565b6000816001148061449a5750816003145b806144a55750816005145b806144b05750816007145b806144bb5750816008145b806144c6575081600a145b806144d1575081600c145b156144de5750601f610b24565b816002146144ee5750601e610b24565b6144f783614a3b565b61450257601c614505565b601d5b60ff169392505050565b60006107b284101561452057600080fd5b838383600062253d8c60046064600c61453a600e88615a9a565b6145449190615b9f565b61455088611324615ad9565b61455a9190615ad9565b6145649190615b9f565b61456f906003615b1a565b6145799190615b9f565b600c80614587600e88615a9a565b6145919190615b9f565b61459c90600c615b1a565b6145a7600288615a9a565b6145b19190615a9a565b6145bd9061016f615b1a565b6145c79190615b9f565b6004600c6145d6600e89615a9a565b6145e09190615b9f565b6145ec896112c0615ad9565b6145f69190615ad9565b614602906105b5615b1a565b61460c9190615b9f565b614618617d4b87615a9a565b6146229190615ad9565b61462c9190615ad9565b6146369190615a9a565b6146409190615a9a565b98975050505050505050565b600061108d83835b6000818152600183016020526040812054801561473d5760006146786001836157da565b855490915060009061468c906001906157da565b90508181146146f15760008660000182815481106146ac576146ac6158d5565b90600052602060002001549050808760000184815481106146cf576146cf6158d5565b6000918252602080832090910192909255918252600188019052604090208390555b855486908061470257614702615bcd565b600190038181906000526020600020016000905590558560010160008681526020019081526020016000206000905560019350505050610b24565b6000915050610b24565b600061475282614a77565b61475c84866159d2565b61108a91906159be565b60006147bb826040518060400160405280602081526020017f5361666545524332303a206c6f772d6c6576656c2063616c6c206661696c6564815250856001600160a01b0316614a8f9092919063ffffffff16565b80519091501561483857808060200190518101906147d991906157bf565b6148385760405162461bcd60e51b815260206004820152602a60248201527f5361666545524332303a204552433230206f7065726174696f6e20646964206e6044820152691bdd081cdd58d8d9595960b21b6064820152608401610e49565b505050565b600054610100900460ff166148645760405162461bcd60e51b8152600401610e4990615a22565b6116fc614a9e565b600054610100900460ff166148935760405162461bcd60e51b8152600401610e4990615a22565b611bd281612bb7565b600054610100900460ff166148c35760405162461bcd60e51b8152600401610e4990615a22565b6065805462ff000019169055565b6000826148e05750600061108d565b826148ea83614a77565b61475c90866159d2565b60008363ffffffff168563ffffffff16101561495e5760405162461bcd60e51b815260206004820152602360248201527f504d543a206379636c65206475726174696f6e203c206c6f616e20647572617460448201526234b7b760e91b6064820152608401610e49565b61ffff831661498757614980868563ffffffff168763ffffffff166001614ad5565b9050614a1c565b600061499f8663ffffffff168663ffffffff16613816565b9050670de0b6b3a764000060006149cf856149c963ffffffff8a166149c38a614b26565b90614b4a565b90614b7e565b905060006149e7846149e184866156a8565b90614bae565b905060006149f9826149c38d86614b4a565b90506000614a0785846157da565b9050614a138282614b7e565b96505050505050505b95945050505050565b6000818310614a34578161108d565b5090919050565b6000614a486004836159f1565b158015614a5e5750614a5b6064836159f1565b15155b80610b245750614a70610190836159f1565b1592915050565b6000614a8482600a615cc7565b610b249060646159d2565b606061108a8484600085614bc6565b600054610100900460ff16614ac55760405162461bcd60e51b8152600401610e4990615a22565b6116fc614ad061348a565b61384d565b600080614ae3868686614c96565b90506001836002811115614af957614af961523c565b148015614b16575060008480614b1157614b116159a8565b868809115b15614a1c576140d06001826156a8565b6000610b24612710614b4461ffff8516670de0b6b3a7640000614d46565b90614d52565b600061108d670de0b6b3a7640000614b44614b658686614d46565b614b786002670de0b6b3a76400006159be565b90614d5e565b600080614b8c6002846159be565b905061373c83614b44614ba787670de0b6b3a7640000614d46565b8490614d5e565b600061108d8383670de0b6b3a7640000614b4a614d6a565b606082471015614c275760405162461bcd60e51b815260206004820152602660248201527f416464726573733a20696e73756666696369656e742062616c616e636520666f6044820152651c8818d85b1b60d21b6064820152608401610e49565b600080866001600160a01b03168587604051614c439190615906565b60006040518083038185875af1925050503d8060008114614c80576040519150601f19603f3d011682016040523d82523d6000602084013e614c85565b606091505b509150915061371f87838387614ddc565b600080806000198587098587029250828110838203039150508060001415614cd157838281614cc757614cc76159a8565b049250505061108d565b808411614cdd57600080fd5b60008486880960026001871981018816978890046003810283188082028403028082028403028082028403028082028403028082028403029081029092039091026000889003889004909101858311909403939093029303949094049190911702949350505050565b600061108d82846159d2565b600061108d82846159be565b600061108d82846156a8565b6000614d776002856159f1565b614d815782614d83565b845b9050614d906002856159be565b93505b831561373c57614da785868463ffffffff16565b9450614db46002856159f1565b15614dca57614dc781868463ffffffff16565b90505b614dd56002856159be565b9350614d93565b60608315614e48578251614e41576001600160a01b0385163b614e415760405162461bcd60e51b815260206004820152601d60248201527f416464726573733a2063616c6c20746f206e6f6e2d636f6e74726163740000006044820152606401610e49565b508161373c565b61373c8383815115614e5d5781518083602001fd5b8060405162461bcd60e51b8152600401610e499190615181565b828054614e8390615601565b90600052602060002090601f016020900481019282614ea55760008555614eeb565b82601f10614ebe5782800160ff19823516178555614eeb565b82800160010185558215614eeb579182015b82811115614eeb578235825591602001919060010190614ed0565b50614ef7929150614efb565b5090565b5b80821115614ef75760008155600101614efc565b6001600160a01b0381168114611bd257600080fd5b8035611d4081614f10565b600060208284031215614f4257600080fd5b813561108d81614f10565b6020808252825182820181905260009190848201906040850190845b81811015614f8557835183529284019291840191600101614f69565b50909695505050505050565b63ffffffff81168114611bd257600080fd5b61ffff81168114611bd257600080fd5b60008083601f840112614fc557600080fd5b50813567ffffffffffffffff811115614fdd57600080fd5b602083019150836020828501011115614ff557600080fd5b9250929050565b60008060008060008060008060e0898b03121561501857600080fd5b883561502381614f10565b97506020890135965060408901359550606089013561504181614f91565b9450608089013561505181614fa3565b935060a089013567ffffffffffffffff81111561506d57600080fd5b6150798b828c01614fb3565b90945092505060c089013561508d81614f10565b809150509295985092959890939650565b600080604083850312156150b157600080fd5b82356150bc81614f10565b915060208301356150cc81614f10565b809150509250929050565b6000602082840312156150e957600080fd5b5035919050565b6000806040838503121561510357600080fd5b50508035926020909101359150565b815181526020808301519082015260408101610b24565b60005b8381101561514457818101518382015260200161512c565b83811115613c425750506000910152565b6000815180845261516d816020860160208601615129565b601f01601f19169290920160200192915050565b60208152600061108d6020830184615155565b600080604083850312156151a757600080fd5b8235915060208301356150cc81614f10565b6000806000606084860312156151ce57600080fd5b8335925060208401356151e081614f10565b915060408401356151f081614f10565b809150509250925092565b6020808252825182820181905260009190848201906040850190845b81811015614f855783516001600160a01b031683529284019291840191600101615217565b634e487b7160e01b600052602160045260246000fd5b60028110611bd257611bd261523c565b6020810161526f83615252565b91905290565b6000806040838503121561528857600080fd5b823561529381614f10565b946020939093013593505050565b600681106152b1576152b161523c565b9052565b6152b181615252565b60006102408201905060018060a01b03808c168352808b166020840152808a1660408401528860608401528760808401528087511660a084015250602086015160c0830152604086015161531f60e084018280518252602090810151910152565b50606086015163ffffffff9081166101208401526080870151811661014084015260a08701511661016083015260c086015161536461018084018263ffffffff169052565b5084516101a0830152602085015163ffffffff166101c0830152604085015161ffff166101e083015261539b6102008301856152a1565b6153a96102208301846152b5565b9a9950505050505050505050565b6000806000806000806000806000806101008b8d0312156153d757600080fd5b8a356153e281614f10565b995060208b0135985060408b0135975060608b013561540081614f91565b965060808b013561541081614fa3565b955060a08b013567ffffffffffffffff8082111561542d57600080fd5b6154398e838f01614fb3565b909750955060c08d0135915061544e82614f10565b90935060e08c0135908082111561546457600080fd5b818d0191508d601f83011261547857600080fd5b81358181111561548757600080fd5b8e60208260071b850101111561549c57600080fd5b6020830194508093505050509295989b9194979a5092959850565b60008060008060008060008060e0898b0312156154d357600080fd5b88356154de81614fa3565b975060208901356154ee81614f10565b965060408901356154fe81614f10565b9550606089013561550e81614f10565b9450608089013567ffffffffffffffff8082111561552b57600080fd5b818b0191508b601f83011261553f57600080fd5b81358181111561554e57600080fd5b8c60208260051b850101111561556357600080fd5b60208301965080955050505061557b60a08a01614f25565b915061558960c08a01614f25565b90509295985092959890939650565b60208101610b2482846152a1565b6000602082840312156155b857600080fd5b813561108d81614fa3565b634e487b7160e01b600052601160045260246000fd5b600063ffffffff8083168185168083038211156155f8576155f86155c3565b01949350505050565b600181811c9082168061561557607f821691505b6020821081141561563657634e487b7160e01b600052602260045260246000fd5b50919050565b60006020828403121561564e57600080fd5b815161108d81614f10565b8281526060602082015260006156726060830184615155565b8281036040938401526015815274131bd85b881b5d5cdd081899481858d8d95c1d1959605a1b6020820152919091019392505050565b600082198211156156bb576156bb6155c3565b500190565b600063ffffffff838116908316818110156156dd576156dd6155c3565b039392505050565b600063ffffffff80831681851681830481118215151615615708576157086155c3565b02949350505050565b60038110611bd257600080fd5b838152604060208083018290528282018490526000919060609081850187855b888110156157a057813561575181615711565b600381106157615761576161523c565b8352818401358484015285820135868401528482013561578081614f10565b6001600160a01b031683860152608092830192919091019060010161573e565b50909998505050505050505050565b80518015158114611d4057600080fd5b6000602082840312156157d157600080fd5b61108d826157af565b6000828210156157ec576157ec6155c3565b500390565b82815260606020820152600061580a6060830184615155565b8281036040938401526013815272426964206d7573742062652070656e64696e6760681b6020820152919091019392505050565b6000806040838503121561585157600080fd5b61585a836157af565b9150602083015190509250929050565b60006020828403121561587c57600080fd5b815161108d81614fa3565b6020808252602e908201527f496e697469616c697a61626c653a20636f6e747261637420697320616c72656160408201526d191e481a5b9a5d1a585b1a5e995960921b606082015260800190565b634e487b7160e01b600052603260045260246000fd5b60006000198214156158ff576158ff6155c3565b5060010190565b60008251615918818460208701615129565b9190910192915050565b60028110611bd257600080fd5b6000806040838503121561594257600080fd5b825161594d81614f91565b60208401519092506150cc81615922565b60006020828403121561597057600080fd5b815161108d81614f91565b60006020828403121561598d57600080fd5b815161108d81615922565b8183823760009101908152919050565b634e487b7160e01b600052601260045260246000fd5b6000826159cd576159cd6159a8565b500490565b60008160001904831182151516156159ec576159ec6155c3565b500290565b600082615a0057615a006159a8565b500690565b600060208284031215615a1757600080fd5b815161108d81615711565b6020808252602b908201527f496e697469616c697a61626c653a20636f6e7472616374206973206e6f74206960408201526a6e697469616c697a696e6760a81b606082015260800190565b634e487b7160e01b600052604160045260246000fd5b600081615a9257615a926155c3565b506000190190565b60008083128015600160ff1b850184121615615ab857615ab86155c3565b6001600160ff1b0384018313811615615ad357615ad36155c3565b50500390565b600080821280156001600160ff1b0384900385131615615afb57615afb6155c3565b600160ff1b8390038412811615615b1457615b146155c3565b50500190565b60006001600160ff1b0381841382841380821686840486111615615b4057615b406155c3565b600160ff1b6000871282811687830589121615615b5f57615b5f6155c3565b60008712925087820587128484161615615b7b57615b7b6155c3565b87850587128184161615615b9157615b916155c3565b505050929093029392505050565b600082615bae57615bae6159a8565b600160ff1b821460001984141615615bc857615bc86155c3565b500590565b634e487b7160e01b600052603160045260246000fd5b600181815b80851115615c1e578160001904821115615c0457615c046155c3565b80851615615c1157918102915b93841c9390800290615be8565b509250929050565b600082615c3557506001610b24565b81615c4257506000610b24565b8160018114615c585760028114615c6257615c7e565b6001915050610b24565b60ff841115615c7357615c736155c3565b50506001821b610b24565b5060208310610133831016604e8410600b8410161715615ca1575081810a610b24565b615cab8383615be3565b8060001904821115615cbf57615cbf6155c3565b029392505050565b600061108d8383615c2656fea264697066735822122036be151ffb8311d007235e858458cfdc3cc1d212fe387fa4b48110dd4d97268864736f6c63430008090033",
  "devdoc": {
    "errors": {
      "ActionNotAllowed(uint256,string,string)": [
        {
          "params": {
            "action": "The action string (i.e: 'repayLoan', 'cancelBid', 'etc)",
            "bidId": "The id of the bid.",
            "message": "The message string to return to the user explaining why the tx was reverted"
          }
        }
      ],
      "PaymentNotMinimum(uint256,uint256,uint256)": [
        {
          "params": {
            "bidId": "The id of the bid the borrower is attempting to repay.",
            "minimumOwed": "The minimum owed value",
            "payment": "The payment made by the borrower"
          }
        }
      ]
    },
    "events": {
      "AcceptedBid(uint256,address)": {
        "params": {
          "bidId": "The id of the bid accepted.",
          "lender": "The address of the accepted bid lender."
        }
      },
      "CancelledBid(uint256)": {
        "params": {
          "bidId": "The id of the cancelled bid."
        }
      },
      "FeePaid(uint256,string,uint256)": {
        "params": {
          "amount": "The amount of the fee being paid.",
          "bidId": "The id of the bid.",
          "feeType": "The name of the fee being paid."
        }
      },
      "LoanLiquidated(uint256,address)": {
        "params": {
          "bidId": "The id of the bid/loan which was repaid."
        }
      },
      "LoanRepaid(uint256)": {
        "params": {
          "bidId": "The id of the bid/loan which was repaid."
        }
      },
      "LoanRepayment(uint256)": {
        "params": {
          "bidId": "The id of the bid/loan to which the payment was made."
        }
      },
      "MarketOwnerCancelledBid(uint256)": {
        "params": {
          "bidId": "The id of the bid funded. Note: The `CancelledBid` event will also be emitted."
        }
      },
      "SubmittedBid(uint256,address,address,bytes32)": {
        "params": {
          "bidId": "The id of the bid submitted.",
          "borrower": "The address of the bid borrower.",
          "metadataURI": "URI for additional bid information as part of loan bid."
        }
      }
    },
    "kind": "dev",
    "methods": {
      "addLendingToken(address)": {
        "params": {
          "_lendingToken": "The contract address of the lending token."
        }
      },
      "approveMarketForwarder(uint256,address)": {
        "params": {
          "_forwarder": "A forwarder contract address.",
          "_marketId": "An ID for a lending market."
        }
      },
      "calculateAmountDue(uint256)": {
        "params": {
          "_bidId": "The id of the loan bid to get the payment amount for."
        }
      },
      "calculateAmountDue(uint256,uint256)": {
        "params": {
          "_bidId": "The id of the loan bid to get the payment amount for.",
          "_timestamp": "The timestamp at which to get the due payment at."
        }
      },
      "calculateAmountOwed(uint256)": {
        "params": {
          "_bidId": "The id of the loan bid to calculate the owed amount for."
        }
      },
      "calculateAmountOwed(uint256,uint256)": {
        "params": {
          "_bidId": "The id of the loan bid to calculate the owed amount for.",
          "_timestamp": "The timestamp at which to calculate the loan owed amount at."
        }
      },
      "calculateNextDueDate(uint256)": {
        "params": {
          "_bidId": "The id of the loan bid."
        }
      },
      "cancelBid(uint256)": {
        "params": {
          "_bidId": "The id of the bid to cancel."
        }
      },
      "getLoanBorrower(uint256)": {
        "params": {
          "_bidId": "The id of the bid/loan to get the borrower for."
        },
        "returns": {
          "borrower_": "The address of the borrower associated with the bid."
        }
      },
      "getLoanLender(uint256)": {
        "params": {
          "_bidId": "The id of the bid/loan to get the lender for."
        },
        "returns": {
          "lender_": "The address of the lender associated with the bid."
        }
      },
      "getMetadataURI(uint256)": {
        "params": {
          "_bidId": "The id of the bid to return the metadataURI for"
        },
        "returns": {
          "metadataURI_": "The metadataURI for the bid, as a string."
        }
      },
      "hasApprovedMarketForwarder(uint256,address,address)": {
        "params": {
          "_account": "The address to verify set an approval.",
          "_forwarder": "A forwarder contract address.",
          "_marketId": "An ID for a lending market."
        },
        "returns": {
          "_0": "A boolean indicating if an approval was set."
        }
      },
      "initialize(uint16,address,address,address,address[],address,address)": {
        "params": {
          "_collateralManager": "The address of the collateral manager contracts.",
          "_lenderCommitmentForwarder": "The address of the lender commitment forwarder contract.",
          "_lenderManager": "The address of the lender manager contract for loans on the protocol.",
          "_lendingTokens": "The list of tokens allowed as lending assets on the protocol.",
          "_marketRegistry": "The address of the market registry contract for the protocol.",
          "_protocolFee": "The fee collected by the protocol for loan processing.",
          "_reputationManager": "The address of the reputation manager contract."
        }
      },
      "isLoanDefaulted(uint256)": {
        "params": {
          "_bidId": "The id of the loan bid to check for."
        }
      },
      "isLoanExpired(uint256)": {
        "params": {
          "_bidId": "The id of the loan bid to check for."
        }
      },
      "isPaymentLate(uint256)": {
        "params": {
          "_bidId": "The id of the loan bid to check for."
        }
      },
      "isTrustedMarketForwarder(uint256,address)": {
        "params": {
          "_marketId": "An ID for a lending market.",
          "_trustedMarketForwarder": "An address to check if is a trusted forwarder in the given market."
        },
        "returns": {
          "_0": "A boolean indicating the forwarder address is trusted in a market."
        }
      },
      "lastRepaidTimestamp(uint256)": {
        "params": {
          "_bidId": "The id of the loan bid to get the timestamp for."
        }
      },
      "lenderAcceptBid(uint256)": {
        "params": {
          "_bidId": "The id of the loan bid to accept."
        }
      },
      "liquidateLoanFull(uint256)": {
        "params": {
          "_bidId": "The id of the loan to make the payment towards."
        }
      },
      "marketOwnerCancelBid(uint256)": {
        "params": {
          "_bidId": "The id of the bid to cancel."
        }
      },
      "owner()": {
        "details": "Returns the address of the current owner."
      },
      "paused()": {
        "details": "Returns true if the contract is paused, and false otherwise."
      },
      "removeLendingToken(address)": {
        "params": {
          "_lendingToken": "The contract address of the lending token."
        }
      },
      "renounceOwnership()": {
        "details": "Leaves the contract without owner. It will not be possible to call `onlyOwner` functions anymore. Can only be called by the current owner. NOTE: Renouncing ownership will leave the contract without an owner, thereby removing any functionality that is only available to the owner."
      },
      "repayLoan(uint256,uint256)": {
        "params": {
          "_amount": "The amount of the payment.",
          "_bidId": "The id of the loan to make the payment towards."
        }
      },
      "repayLoanFull(uint256)": {
        "params": {
          "_bidId": "The id of the loan to make the payment towards."
        }
      },
      "repayLoanMinimum(uint256)": {
        "params": {
          "_bidId": "The id of the loan to make the payment towards."
        }
      },
      "setProtocolFee(uint16)": {
        "params": {
          "newFee": "The new protocol fee to be set."
        }
      },
      "setReputationManager(address)": {
        "params": {
          "_reputationManager": "The new contract address."
        }
      },
      "setTrustedMarketForwarder(uint256,address)": {
        "params": {
          "_forwarder": "A forwarder contract address.",
          "_marketId": "An ID for a lending market."
        }
      },
      "submitBid(address,uint256,uint256,uint32,uint16,string,address)": {
        "params": {
          "_APR": "The proposed interest rate for the loan bid.",
          "_duration": "The recurrent length of time before which a payment is due.",
          "_lendingToken": "The lending token asset requested to be borrowed.",
          "_marketplaceId": "The unique id of the marketplace for the bid.",
          "_metadataURI": "The URI for additional borrower loan information as part of loan bid.",
          "_principal": "The principal amount of the loan bid.",
          "_receiver": "The address where the loan amount will be sent to."
        }
      },
      "submitBid(address,uint256,uint256,uint32,uint16,string,address,(uint8,uint256,uint256,address)[])": {
        "params": {
          "_APR": "The proposed interest rate for the loan bid.",
          "_collateralInfo": "Additional information about the collateral asset.",
          "_duration": "The recurrent length of time before which a payment is due.",
          "_lendingToken": "The lending token asset requested to be borrowed.",
          "_marketplaceId": "The unique id of the marketplace for the bid.",
          "_metadataURI": "The URI for additional borrower loan information as part of loan bid.",
          "_principal": "The principal amount of the loan bid.",
          "_receiver": "The address where the loan amount will be sent to."
        }
      },
      "transferOwnership(address)": {
        "details": "Transfers ownership of the contract to a new account (`newOwner`). Can only be called by the current owner."
      }
    },
    "version": 1
  },
  "userdoc": {
    "errors": {
      "ActionNotAllowed(uint256,string,string)": [
        {
          "notice": "This error is reverted when the action isn't allowed"
        }
      ],
      "PaymentNotMinimum(uint256,uint256,uint256)": [
        {
          "notice": "This error is reverted when repayment amount is less than the required minimum"
        }
      ]
    },
    "events": {
      "AcceptedBid(uint256,address)": {
        "notice": "This event is emitted when a bid has been accepted by a lender."
      },
      "CancelledBid(uint256)": {
        "notice": "This event is emitted when a previously submitted bid has been cancelled."
      },
      "FeePaid(uint256,string,uint256)": {
        "notice": "This event is emitted when a fee has been paid related to a bid."
      },
      "LoanLiquidated(uint256,address)": {
        "notice": "This event is emitted when a loan has been fully repaid."
      },
      "LoanRepaid(uint256)": {
        "notice": "This event is emitted when a loan has been fully repaid."
      },
      "LoanRepayment(uint256)": {
        "notice": "This event is emitted when a payment is made towards an active loan."
      },
      "MarketOwnerCancelledBid(uint256)": {
        "notice": "This event is emitted when market owner has cancelled a pending bid in their market."
      },
      "ProtocolFeeSet(uint16,uint16)": {
        "notice": "This event is emitted when the protocol fee has been updated."
      },
      "SubmittedBid(uint256,address,address,bytes32)": {
        "notice": "This event is emitted when a new bid is submitted."
      }
    },
    "kind": "user",
    "methods": {
      "CURRENT_CODE_VERSION()": {
        "notice": "Constant Variables *"
      },
      "addLendingToken(address)": {
        "notice": "Lets the DAO/owner of the protocol add an authorized lending token."
      },
      "approveMarketForwarder(uint256,address)": {
        "notice": "Approves a forwarder contract to use their address as a sender for a specific market.The forwarder given must be trusted by the market given."
      },
      "bidId()": {
        "notice": "Storage Variables "
      },
      "calculateAmountDue(uint256)": {
        "notice": "Calculates the minimum payment amount due for a loan."
      },
      "calculateAmountDue(uint256,uint256)": {
        "notice": "Calculates the minimum payment amount due for a loan at a specific timestamp."
      },
      "calculateAmountOwed(uint256)": {
        "notice": "Calculates the total amount owed for a bid."
      },
      "calculateAmountOwed(uint256,uint256)": {
        "notice": "Calculates the total amount owed for a loan bid at a specific timestamp."
      },
      "calculateNextDueDate(uint256)": {
        "notice": "Returns the next due date for a loan payment."
      },
      "cancelBid(uint256)": {
        "notice": "Function for a borrower to cancel their pending bid."
      },
      "constructor": {
        "notice": "Constructor *"
      },
      "getLendingTokens()": {
        "notice": "Returns the list of authorized tokens on the protocol."
      },
      "getLoanBorrower(uint256)": {
        "notice": "Returns the borrower address for a given bid."
      },
      "getLoanLender(uint256)": {
        "notice": "Returns the lender address for a given bid. If the stored lender address is the `LenderManager` NFT address, return the `ownerOf` for the bid ID."
      },
      "getMetadataURI(uint256)": {
        "notice": "Gets the metadataURI for a bidId."
      },
      "hasApprovedMarketForwarder(uint256,address,address)": {
        "notice": "Checks if an account has approved a forwarder for a market."
      },
      "initialize(uint16,address,address,address,address[],address,address)": {
        "notice": "Initializes the proxy."
      },
      "isLoanDefaulted(uint256)": {
        "notice": "Checks to see if a borrower is delinquent."
      },
      "isLoanExpired(uint256)": {
        "notice": "Checks to see if a pending loan has expired so it is no longer able to be accepted."
      },
      "isPaymentLate(uint256)": {
        "notice": "Checks to see if a borrower is delinquent."
      },
      "isTrustedMarketForwarder(uint256,address)": {
        "notice": "Checks if an address is a trusted forwarder contract for a given market."
      },
      "lastRepaidTimestamp(uint256)": {
        "notice": "Returns the last repaid timestamp for a loan."
      },
      "lenderAcceptBid(uint256)": {
        "notice": "Function for a lender to accept a proposed loan bid."
      },
      "liquidateLoanFull(uint256)": {
        "notice": "Function for users to liquidate a defaulted loan."
      },
      "marketOwnerCancelBid(uint256)": {
        "notice": "Function for a market owner to cancel a bid in the market."
      },
      "pauseProtocol()": {
        "notice": "Lets the DAO/owner of the protocol implement an emergency stop mechanism."
      },
      "protocolFee()": {
        "notice": "Returns the current protocol fee."
      },
      "removeLendingToken(address)": {
        "notice": "Lets the DAO/owner of the protocol remove an authorized lending token."
      },
      "repayLoan(uint256,uint256)": {
        "notice": "Function for users to make a payment towards an active loan."
      },
      "repayLoanFull(uint256)": {
        "notice": "Function for users to repay an active loan in full."
      },
      "repayLoanMinimum(uint256)": {
        "notice": "Function for users to make the minimum amount due for an active loan."
      },
      "setProtocolFee(uint16)": {
        "notice": "Lets the DAO/owner of the protocol to set a new protocol fee."
      },
      "setReputationManager(address)": {
        "notice": "Lets the DAO/owner of the protocol to set a new reputation manager contract."
      },
      "setTrustedMarketForwarder(uint256,address)": {
        "notice": "Sets a trusted forwarder for a lending market.The caller must owner the market given. See {MarketRegistry}"
      },
      "submitBid(address,uint256,uint256,uint32,uint16,string,address)": {
        "notice": "Function for a borrower to create a bid for a loan without Collateral."
      },
      "submitBid(address,uint256,uint256,uint32,uint16,string,address,(uint8,uint256,uint256,address)[])": {
        "notice": "Function for a borrower to create a bid for a loan with Collateral."
      },
      "unpauseProtocol()": {
        "notice": "Lets the DAO/owner of the protocol undo a previously implemented emergency stop."
      }
    },
    "version": 1
  },
  "storageLayout": {
    "storage": [
      {
        "astId": 1625,
        "contract": "contracts/TellerV2.sol:TellerV2",
        "label": "_initialized",
        "offset": 0,
        "slot": "0",
        "type": "t_uint8"
      },
      {
        "astId": 1628,
        "contract": "contracts/TellerV2.sol:TellerV2",
        "label": "_initializing",
        "offset": 1,
        "slot": "0",
        "type": "t_bool"
      },
      {
        "astId": 3912,
        "contract": "contracts/TellerV2.sol:TellerV2",
        "label": "__gap",
        "offset": 0,
        "slot": "1",
        "type": "t_array(t_uint256)50_storage"
      },
      {
        "astId": 1309,
        "contract": "contracts/TellerV2.sol:TellerV2",
        "label": "_owner",
        "offset": 0,
        "slot": "51",
        "type": "t_address"
      },
      {
        "astId": 1429,
        "contract": "contracts/TellerV2.sol:TellerV2",
        "label": "__gap",
        "offset": 0,
        "slot": "52",
        "type": "t_array(t_uint256)49_storage"
      },
      {
        "astId": 17149,
        "contract": "contracts/TellerV2.sol:TellerV2",
        "label": "_protocolFee",
        "offset": 0,
        "slot": "101",
        "type": "t_uint16"
      },
      {
        "astId": 1808,
        "contract": "contracts/TellerV2.sol:TellerV2",
        "label": "_paused",
        "offset": 2,
        "slot": "101",
        "type": "t_bool"
      },
      {
        "astId": 1913,
        "contract": "contracts/TellerV2.sol:TellerV2",
        "label": "__gap",
        "offset": 0,
        "slot": "102",
        "type": "t_array(t_uint256)49_storage"
      },
      {
        "astId": 20716,
        "contract": "contracts/TellerV2.sol:TellerV2",
        "label": "bidId",
        "offset": 0,
        "slot": "151",
        "type": "t_uint256"
      },
      {
        "astId": 20721,
        "contract": "contracts/TellerV2.sol:TellerV2",
        "label": "bids",
        "offset": 0,
        "slot": "152",
        "type": "t_mapping(t_uint256,t_struct(Bid)20688_storage)"
      },
      {
        "astId": 20726,
        "contract": "contracts/TellerV2.sol:TellerV2",
        "label": "borrowerBids",
        "offset": 0,
        "slot": "153",
        "type": "t_mapping(t_address,t_array(t_uint256)dyn_storage)"
      },
      {
        "astId": 20730,
        "contract": "contracts/TellerV2.sol:TellerV2",
        "label": "_lenderVolumeFilled",
        "offset": 0,
        "slot": "154",
        "type": "t_mapping(t_address,t_uint256)"
      },
      {
        "astId": 20732,
        "contract": "contracts/TellerV2.sol:TellerV2",
        "label": "_totalVolumeFilled",
        "offset": 0,
        "slot": "155",
        "type": "t_uint256"
      },
      {
        "astId": 20735,
        "contract": "contracts/TellerV2.sol:TellerV2",
        "label": "lendingTokensSet",
        "offset": 0,
        "slot": "156",
        "type": "t_struct(AddressSet)11693_storage"
      },
      {
        "astId": 20738,
        "contract": "contracts/TellerV2.sol:TellerV2",
        "label": "marketRegistry",
        "offset": 0,
        "slot": "158",
        "type": "t_contract(IMarketRegistry)21913"
      },
      {
        "astId": 20741,
        "contract": "contracts/TellerV2.sol:TellerV2",
        "label": "reputationManager",
        "offset": 0,
        "slot": "159",
        "type": "t_contract(IReputationManager)21972"
      },
      {
        "astId": 20746,
        "contract": "contracts/TellerV2.sol:TellerV2",
        "label": "_borrowerBidsActive",
        "offset": 0,
        "slot": "160",
        "type": "t_mapping(t_address,t_struct(UintSet)11850_storage)"
      },
      {
        "astId": 20750,
        "contract": "contracts/TellerV2.sol:TellerV2",
        "label": "bidDefaultDuration",
        "offset": 0,
        "slot": "161",
        "type": "t_mapping(t_uint256,t_uint32)"
      },
      {
        "astId": 20754,
        "contract": "contracts/TellerV2.sol:TellerV2",
        "label": "bidExpirationTime",
        "offset": 0,
        "slot": "162",
        "type": "t_mapping(t_uint256,t_uint32)"
      },
      {
        "astId": 20760,
        "contract": "contracts/TellerV2.sol:TellerV2",
        "label": "lenderVolumeFilled",
        "offset": 0,
        "slot": "163",
        "type": "t_mapping(t_address,t_mapping(t_address,t_uint256))"
      },
      {
        "astId": 20764,
        "contract": "contracts/TellerV2.sol:TellerV2",
        "label": "totalVolumeFilled",
        "offset": 0,
        "slot": "164",
        "type": "t_mapping(t_address,t_uint256)"
      },
      {
        "astId": 20766,
        "contract": "contracts/TellerV2.sol:TellerV2",
        "label": "version",
        "offset": 0,
        "slot": "165",
        "type": "t_uint256"
      },
      {
        "astId": 20770,
        "contract": "contracts/TellerV2.sol:TellerV2",
        "label": "uris",
        "offset": 0,
        "slot": "166",
        "type": "t_mapping(t_uint256,t_string_storage)"
      },
      {
        "astId": 20777,
        "contract": "contracts/TellerV2.sol:TellerV2",
        "label": "_trustedMarketForwarders",
        "offset": 0,
        "slot": "167",
        "type": "t_mapping(t_uint256,t_address)"
      },
      {
        "astId": 20782,
        "contract": "contracts/TellerV2.sol:TellerV2",
        "label": "_approvedForwarderSenders",
        "offset": 0,
        "slot": "168",
        "type": "t_mapping(t_address,t_struct(AddressSet)11693_storage)"
      },
      {
        "astId": 20787,
        "contract": "contracts/TellerV2.sol:TellerV2",
        "label": "lenderCommitmentForwarder",
        "offset": 0,
        "slot": "169",
        "type": "t_address"
      },
      {
        "astId": 20793,
        "contract": "contracts/TellerV2.sol:TellerV2",
        "label": "collateralManager",
        "offset": 0,
        "slot": "170",
        "type": "t_contract(ICollateralManager)21449"
      },
      {
        "astId": 20799,
        "contract": "contracts/TellerV2.sol:TellerV2",
        "label": "lenderManager",
        "offset": 0,
        "slot": "171",
        "type": "t_contract(ILenderManager)21763"
      },
      {
        "astId": 20804,
        "contract": "contracts/TellerV2.sol:TellerV2",
        "label": "bidPaymentCycleType",
        "offset": 0,
        "slot": "172",
        "type": "t_mapping(t_uint256,t_enum(PaymentCycleType)24011)"
      }
    ],
    "types": {
      "t_address": {
        "encoding": "inplace",
        "label": "address",
        "numberOfBytes": "20"
      },
      "t_array(t_bytes32)dyn_storage": {
        "base": "t_bytes32",
        "encoding": "dynamic_array",
        "label": "bytes32[]",
        "numberOfBytes": "32"
      },
      "t_array(t_uint256)49_storage": {
        "base": "t_uint256",
        "encoding": "inplace",
        "label": "uint256[49]",
        "numberOfBytes": "1568"
      },
      "t_array(t_uint256)50_storage": {
        "base": "t_uint256",
        "encoding": "inplace",
        "label": "uint256[50]",
        "numberOfBytes": "1600"
      },
      "t_array(t_uint256)dyn_storage": {
        "base": "t_uint256",
        "encoding": "dynamic_array",
        "label": "uint256[]",
        "numberOfBytes": "32"
      },
      "t_bool": {
        "encoding": "inplace",
        "label": "bool",
        "numberOfBytes": "1"
      },
      "t_bytes32": {
        "encoding": "inplace",
        "label": "bytes32",
        "numberOfBytes": "32"
      },
      "t_contract(ERC20)7533": {
        "encoding": "inplace",
        "label": "contract ERC20",
        "numberOfBytes": "20"
      },
      "t_contract(ICollateralManager)21449": {
        "encoding": "inplace",
        "label": "contract ICollateralManager",
        "numberOfBytes": "20"
      },
      "t_contract(ILenderManager)21763": {
        "encoding": "inplace",
        "label": "contract ILenderManager",
        "numberOfBytes": "20"
      },
      "t_contract(IMarketRegistry)21913": {
        "encoding": "inplace",
        "label": "contract IMarketRegistry",
        "numberOfBytes": "20"
      },
      "t_contract(IReputationManager)21972": {
        "encoding": "inplace",
        "label": "contract IReputationManager",
        "numberOfBytes": "20"
      },
      "t_enum(BidState)20660": {
        "encoding": "inplace",
        "label": "enum BidState",
        "numberOfBytes": "1"
      },
      "t_enum(PaymentCycleType)24011": {
        "encoding": "inplace",
        "label": "enum PaymentCycleType",
        "numberOfBytes": "1"
      },
      "t_enum(PaymentType)24008": {
        "encoding": "inplace",
        "label": "enum PaymentType",
        "numberOfBytes": "1"
      },
      "t_mapping(t_address,t_array(t_uint256)dyn_storage)": {
        "encoding": "mapping",
        "key": "t_address",
        "label": "mapping(address => uint256[])",
        "numberOfBytes": "32",
        "value": "t_array(t_uint256)dyn_storage"
      },
      "t_mapping(t_address,t_mapping(t_address,t_uint256))": {
        "encoding": "mapping",
        "key": "t_address",
        "label": "mapping(address => mapping(address => uint256))",
        "numberOfBytes": "32",
        "value": "t_mapping(t_address,t_uint256)"
      },
      "t_mapping(t_address,t_struct(AddressSet)11693_storage)": {
        "encoding": "mapping",
        "key": "t_address",
        "label": "mapping(address => struct EnumerableSet.AddressSet)",
        "numberOfBytes": "32",
        "value": "t_struct(AddressSet)11693_storage"
      },
      "t_mapping(t_address,t_struct(UintSet)11850_storage)": {
        "encoding": "mapping",
        "key": "t_address",
        "label": "mapping(address => struct EnumerableSet.UintSet)",
        "numberOfBytes": "32",
        "value": "t_struct(UintSet)11850_storage"
      },
      "t_mapping(t_address,t_uint256)": {
        "encoding": "mapping",
        "key": "t_address",
        "label": "mapping(address => uint256)",
        "numberOfBytes": "32",
        "value": "t_uint256"
      },
      "t_mapping(t_bytes32,t_uint256)": {
        "encoding": "mapping",
        "key": "t_bytes32",
        "label": "mapping(bytes32 => uint256)",
        "numberOfBytes": "32",
        "value": "t_uint256"
      },
      "t_mapping(t_uint256,t_address)": {
        "encoding": "mapping",
        "key": "t_uint256",
        "label": "mapping(uint256 => address)",
        "numberOfBytes": "32",
        "value": "t_address"
      },
      "t_mapping(t_uint256,t_enum(PaymentCycleType)24011)": {
        "encoding": "mapping",
        "key": "t_uint256",
        "label": "mapping(uint256 => enum PaymentCycleType)",
        "numberOfBytes": "32",
        "value": "t_enum(PaymentCycleType)24011"
      },
      "t_mapping(t_uint256,t_string_storage)": {
        "encoding": "mapping",
        "key": "t_uint256",
        "label": "mapping(uint256 => string)",
        "numberOfBytes": "32",
        "value": "t_string_storage"
      },
      "t_mapping(t_uint256,t_struct(Bid)20688_storage)": {
        "encoding": "mapping",
        "key": "t_uint256",
        "label": "mapping(uint256 => struct Bid)",
        "numberOfBytes": "32",
        "value": "t_struct(Bid)20688_storage"
      },
      "t_mapping(t_uint256,t_uint32)": {
        "encoding": "mapping",
        "key": "t_uint256",
        "label": "mapping(uint256 => uint32)",
        "numberOfBytes": "32",
        "value": "t_uint32"
      },
      "t_string_storage": {
        "encoding": "bytes",
        "label": "string",
        "numberOfBytes": "32"
      },
      "t_struct(AddressSet)11693_storage": {
        "encoding": "inplace",
        "label": "struct EnumerableSet.AddressSet",
        "members": [
          {
            "astId": 11692,
            "contract": "contracts/TellerV2.sol:TellerV2",
            "label": "_inner",
            "offset": 0,
            "slot": "0",
            "type": "t_struct(Set)11378_storage"
          }
        ],
        "numberOfBytes": "64"
      },
      "t_struct(Bid)20688_storage": {
        "encoding": "inplace",
        "label": "struct Bid",
        "members": [
          {
            "astId": 20667,
            "contract": "contracts/TellerV2.sol:TellerV2",
            "label": "borrower",
            "offset": 0,
            "slot": "0",
            "type": "t_address"
          },
          {
            "astId": 20669,
            "contract": "contracts/TellerV2.sol:TellerV2",
            "label": "receiver",
            "offset": 0,
            "slot": "1",
            "type": "t_address"
          },
          {
            "astId": 20671,
            "contract": "contracts/TellerV2.sol:TellerV2",
            "label": "lender",
            "offset": 0,
            "slot": "2",
            "type": "t_address"
          },
          {
            "astId": 20673,
            "contract": "contracts/TellerV2.sol:TellerV2",
            "label": "marketplaceId",
            "offset": 0,
            "slot": "3",
            "type": "t_uint256"
          },
          {
            "astId": 20675,
            "contract": "contracts/TellerV2.sol:TellerV2",
            "label": "_metadataURI",
            "offset": 0,
            "slot": "4",
            "type": "t_bytes32"
          },
          {
            "astId": 20678,
            "contract": "contracts/TellerV2.sol:TellerV2",
            "label": "loanDetails",
            "offset": 0,
            "slot": "5",
            "type": "t_struct(LoanDetails)20705_storage"
          },
          {
            "astId": 20681,
            "contract": "contracts/TellerV2.sol:TellerV2",
            "label": "terms",
            "offset": 0,
            "slot": "10",
            "type": "t_struct(Terms)20712_storage"
          },
          {
            "astId": 20684,
            "contract": "contracts/TellerV2.sol:TellerV2",
            "label": "state",
            "offset": 0,
            "slot": "12",
            "type": "t_enum(BidState)20660"
          },
          {
            "astId": 20687,
            "contract": "contracts/TellerV2.sol:TellerV2",
            "label": "paymentType",
            "offset": 1,
            "slot": "12",
            "type": "t_enum(PaymentType)24008"
          }
        ],
        "numberOfBytes": "416"
      },
      "t_struct(LoanDetails)20705_storage": {
        "encoding": "inplace",
        "label": "struct LoanDetails",
        "members": [
          {
            "astId": 20691,
            "contract": "contracts/TellerV2.sol:TellerV2",
            "label": "lendingToken",
            "offset": 0,
            "slot": "0",
            "type": "t_contract(ERC20)7533"
          },
          {
            "astId": 20693,
            "contract": "contracts/TellerV2.sol:TellerV2",
            "label": "principal",
            "offset": 0,
            "slot": "1",
            "type": "t_uint256"
          },
          {
            "astId": 20696,
            "contract": "contracts/TellerV2.sol:TellerV2",
            "label": "totalRepaid",
            "offset": 0,
            "slot": "2",
            "type": "t_struct(Payment)20665_storage"
          },
          {
            "astId": 20698,
            "contract": "contracts/TellerV2.sol:TellerV2",
            "label": "timestamp",
            "offset": 0,
            "slot": "4",
            "type": "t_uint32"
          },
          {
            "astId": 20700,
            "contract": "contracts/TellerV2.sol:TellerV2",
            "label": "acceptedTimestamp",
            "offset": 4,
            "slot": "4",
            "type": "t_uint32"
          },
          {
            "astId": 20702,
            "contract": "contracts/TellerV2.sol:TellerV2",
            "label": "lastRepaidTimestamp",
            "offset": 8,
            "slot": "4",
            "type": "t_uint32"
          },
          {
            "astId": 20704,
            "contract": "contracts/TellerV2.sol:TellerV2",
            "label": "loanDuration",
            "offset": 12,
            "slot": "4",
            "type": "t_uint32"
          }
        ],
        "numberOfBytes": "160"
      },
      "t_struct(Payment)20665_storage": {
        "encoding": "inplace",
        "label": "struct Payment",
        "members": [
          {
            "astId": 20662,
            "contract": "contracts/TellerV2.sol:TellerV2",
            "label": "principal",
            "offset": 0,
            "slot": "0",
            "type": "t_uint256"
          },
          {
            "astId": 20664,
            "contract": "contracts/TellerV2.sol:TellerV2",
            "label": "interest",
            "offset": 0,
            "slot": "1",
            "type": "t_uint256"
          }
        ],
        "numberOfBytes": "64"
      },
      "t_struct(Set)11378_storage": {
        "encoding": "inplace",
        "label": "struct EnumerableSet.Set",
        "members": [
          {
            "astId": 11373,
            "contract": "contracts/TellerV2.sol:TellerV2",
            "label": "_values",
            "offset": 0,
            "slot": "0",
            "type": "t_array(t_bytes32)dyn_storage"
          },
          {
            "astId": 11377,
            "contract": "contracts/TellerV2.sol:TellerV2",
            "label": "_indexes",
            "offset": 0,
            "slot": "1",
            "type": "t_mapping(t_bytes32,t_uint256)"
          }
        ],
        "numberOfBytes": "64"
      },
      "t_struct(Terms)20712_storage": {
        "encoding": "inplace",
        "label": "struct Terms",
        "members": [
          {
            "astId": 20707,
            "contract": "contracts/TellerV2.sol:TellerV2",
            "label": "paymentCycleAmount",
            "offset": 0,
            "slot": "0",
            "type": "t_uint256"
          },
          {
            "astId": 20709,
            "contract": "contracts/TellerV2.sol:TellerV2",
            "label": "paymentCycle",
            "offset": 0,
            "slot": "1",
            "type": "t_uint32"
          },
          {
            "astId": 20711,
            "contract": "contracts/TellerV2.sol:TellerV2",
            "label": "APR",
            "offset": 4,
            "slot": "1",
            "type": "t_uint16"
          }
        ],
        "numberOfBytes": "64"
      },
      "t_struct(UintSet)11850_storage": {
        "encoding": "inplace",
        "label": "struct EnumerableSet.UintSet",
        "members": [
          {
            "astId": 11849,
            "contract": "contracts/TellerV2.sol:TellerV2",
            "label": "_inner",
            "offset": 0,
            "slot": "0",
            "type": "t_struct(Set)11378_storage"
          }
        ],
        "numberOfBytes": "64"
      },
      "t_uint16": {
        "encoding": "inplace",
        "label": "uint16",
        "numberOfBytes": "2"
      },
      "t_uint256": {
        "encoding": "inplace",
        "label": "uint256",
        "numberOfBytes": "32"
      },
      "t_uint32": {
        "encoding": "inplace",
        "label": "uint32",
        "numberOfBytes": "4"
      },
      "t_uint8": {
        "encoding": "inplace",
        "label": "uint8",
        "numberOfBytes": "1"
      }
    }
  }
}