{
  "address": "0x429B0d95647596706f00A87DbD8043FF298Fb21B",
  "abi": [
    {
      "inputs": [
        {
          "internalType": "address",
          "name": "trustedForwarder",
          "type": "address"
        }
      ],
      "stateMutability": "nonpayable",
      "type": "constructor"
    },
    {
      "inputs": [
        {
          "internalType": "uint256",
          "name": "bidId",
          "type": "uint256"
        },
        {
          "internalType": "string",
          "name": "action",
          "type": "string"
        },
        {
          "internalType": "string",
          "name": "message",
          "type": "string"
        }
      ],
      "name": "ActionNotAllowed",
      "type": "error"
    },
    {
      "inputs": [
        {
          "internalType": "uint256",
          "name": "bidId",
          "type": "uint256"
        },
        {
          "internalType": "uint256",
          "name": "payment",
          "type": "uint256"
        },
        {
          "internalType": "uint256",
          "name": "minimumOwed",
          "type": "uint256"
        }
      ],
      "name": "PaymentNotMinimum",
      "type": "error"
    },
    {
      "anonymous": false,
      "inputs": [
        {
          "indexed": true,
          "internalType": "uint256",
          "name": "bidId",
          "type": "uint256"
        },
        {
          "indexed": true,
          "internalType": "address",
          "name": "lender",
          "type": "address"
        }
      ],
      "name": "AcceptedBid",
      "type": "event"
    },
    {
      "anonymous": false,
      "inputs": [
        {
          "indexed": true,
          "internalType": "uint256",
          "name": "bidId",
          "type": "uint256"
        }
      ],
      "name": "CancelledBid",
      "type": "event"
    },
    {
      "anonymous": false,
      "inputs": [
        {
          "indexed": true,
          "internalType": "uint256",
          "name": "bidId",
          "type": "uint256"
        },
        {
          "indexed": true,
          "internalType": "string",
          "name": "feeType",
          "type": "string"
        },
        {
          "indexed": true,
          "internalType": "uint256",
          "name": "amount",
          "type": "uint256"
        }
      ],
      "name": "FeePaid",
      "type": "event"
    },
    {
      "anonymous": false,
      "inputs": [
        {
          "indexed": false,
          "internalType": "uint8",
          "name": "version",
          "type": "uint8"
        }
      ],
      "name": "Initialized",
      "type": "event"
    },
    {
      "anonymous": false,
      "inputs": [
        {
          "indexed": true,
          "internalType": "uint256",
          "name": "bidId",
          "type": "uint256"
        },
        {
          "indexed": true,
          "internalType": "address",
          "name": "liquidator",
          "type": "address"
        }
      ],
      "name": "LoanLiquidated",
      "type": "event"
    },
    {
      "anonymous": false,
      "inputs": [
        {
          "indexed": true,
          "internalType": "uint256",
          "name": "bidId",
          "type": "uint256"
        }
      ],
      "name": "LoanRepaid",
      "type": "event"
    },
    {
      "anonymous": false,
      "inputs": [
        {
          "indexed": true,
          "internalType": "uint256",
          "name": "bidId",
          "type": "uint256"
        }
      ],
      "name": "LoanRepayment",
      "type": "event"
    },
    {
      "anonymous": false,
      "inputs": [
        {
          "indexed": true,
          "internalType": "uint256",
          "name": "marketId",
          "type": "uint256"
        },
        {
          "indexed": true,
          "internalType": "address",
          "name": "forwarder",
          "type": "address"
        },
        {
          "indexed": false,
          "internalType": "address",
          "name": "sender",
          "type": "address"
        }
      ],
      "name": "MarketForwarderApproved",
      "type": "event"
    },
    {
      "anonymous": false,
      "inputs": [
        {
          "indexed": true,
          "internalType": "uint256",
          "name": "bidId",
          "type": "uint256"
        }
      ],
      "name": "MarketOwnerCancelledBid",
      "type": "event"
    },
    {
      "anonymous": false,
      "inputs": [
        {
          "indexed": true,
          "internalType": "address",
          "name": "previousOwner",
          "type": "address"
        },
        {
          "indexed": true,
          "internalType": "address",
          "name": "newOwner",
          "type": "address"
        }
      ],
      "name": "OwnershipTransferred",
      "type": "event"
    },
    {
      "anonymous": false,
      "inputs": [
        {
          "indexed": false,
          "internalType": "address",
          "name": "account",
          "type": "address"
        }
      ],
      "name": "Paused",
      "type": "event"
    },
    {
      "anonymous": false,
      "inputs": [
        {
          "indexed": false,
          "internalType": "uint16",
          "name": "newFee",
          "type": "uint16"
        },
        {
          "indexed": false,
          "internalType": "uint16",
          "name": "oldFee",
          "type": "uint16"
        }
      ],
      "name": "ProtocolFeeSet",
      "type": "event"
    },
    {
      "anonymous": false,
      "inputs": [
        {
          "indexed": true,
          "internalType": "uint256",
          "name": "bidId",
          "type": "uint256"
        },
        {
          "indexed": true,
          "internalType": "address",
          "name": "borrower",
          "type": "address"
        },
        {
          "indexed": false,
          "internalType": "address",
          "name": "receiver",
          "type": "address"
        },
        {
          "indexed": true,
          "internalType": "bytes32",
          "name": "metadataURI",
          "type": "bytes32"
        }
      ],
      "name": "SubmittedBid",
      "type": "event"
    },
    {
      "anonymous": false,
      "inputs": [
        {
          "indexed": true,
          "internalType": "uint256",
          "name": "marketId",
          "type": "uint256"
        },
        {
          "indexed": false,
          "internalType": "address",
          "name": "forwarder",
          "type": "address"
        },
        {
          "indexed": false,
          "internalType": "address",
          "name": "sender",
          "type": "address"
        }
      ],
      "name": "TrustedMarketForwarderSet",
      "type": "event"
    },
    {
      "anonymous": false,
      "inputs": [
        {
          "indexed": false,
          "internalType": "address",
          "name": "account",
          "type": "address"
        }
      ],
      "name": "Unpaused",
      "type": "event"
    },
    {
      "inputs": [],
      "name": "CURRENT_CODE_VERSION",
      "outputs": [
        {
          "internalType": "uint8",
          "name": "",
          "type": "uint8"
        }
      ],
      "stateMutability": "view",
      "type": "function"
    },
    {
      "inputs": [
        {
          "internalType": "address",
          "name": "",
          "type": "address"
        }
      ],
      "name": "_lenderVolumeFilled",
      "outputs": [
        {
          "internalType": "uint256",
          "name": "",
          "type": "uint256"
        }
      ],
      "stateMutability": "view",
      "type": "function"
    },
    {
      "inputs": [],
      "name": "_totalVolumeFilled",
      "outputs": [
        {
          "internalType": "uint256",
          "name": "",
          "type": "uint256"
        }
      ],
      "stateMutability": "view",
      "type": "function"
    },
    {
      "inputs": [
        {
          "internalType": "address",
          "name": "_lendingToken",
          "type": "address"
        }
      ],
      "name": "addLendingToken",
      "outputs": [],
      "stateMutability": "nonpayable",
      "type": "function"
    },
    {
      "inputs": [
        {
          "internalType": "uint256",
          "name": "_marketId",
          "type": "uint256"
        },
        {
          "internalType": "address",
          "name": "_forwarder",
          "type": "address"
        }
      ],
      "name": "approveMarketForwarder",
      "outputs": [],
      "stateMutability": "nonpayable",
      "type": "function"
    },
    {
      "inputs": [
        {
          "internalType": "uint256",
          "name": "",
          "type": "uint256"
        }
      ],
      "name": "bidDefaultDuration",
      "outputs": [
        {
          "internalType": "uint32",
          "name": "",
          "type": "uint32"
        }
      ],
      "stateMutability": "view",
      "type": "function"
    },
    {
      "inputs": [
        {
          "internalType": "uint256",
          "name": "",
          "type": "uint256"
        }
      ],
      "name": "bidExpirationTime",
      "outputs": [
        {
          "internalType": "uint32",
          "name": "",
          "type": "uint32"
        }
      ],
      "stateMutability": "view",
      "type": "function"
    },
    {
      "inputs": [],
      "name": "bidId",
      "outputs": [
        {
          "internalType": "uint256",
          "name": "",
          "type": "uint256"
        }
      ],
      "stateMutability": "view",
      "type": "function"
    },
    {
      "inputs": [
        {
          "internalType": "uint256",
          "name": "",
          "type": "uint256"
        }
      ],
      "name": "bids",
      "outputs": [
        {
          "internalType": "address",
          "name": "borrower",
          "type": "address"
        },
        {
          "internalType": "address",
          "name": "receiver",
          "type": "address"
        },
        {
          "internalType": "address",
          "name": "lender",
          "type": "address"
        },
        {
          "internalType": "uint256",
          "name": "marketplaceId",
          "type": "uint256"
        },
        {
          "internalType": "bytes32",
          "name": "_metadataURI",
          "type": "bytes32"
        },
        {
          "components": [
            {
              "internalType": "contract ERC20",
              "name": "lendingToken",
              "type": "address"
            },
            {
              "internalType": "uint256",
              "name": "principal",
              "type": "uint256"
            },
            {
              "components": [
                {
                  "internalType": "uint256",
                  "name": "principal",
                  "type": "uint256"
                },
                {
                  "internalType": "uint256",
                  "name": "interest",
                  "type": "uint256"
                }
              ],
              "internalType": "struct Payment",
              "name": "totalRepaid",
              "type": "tuple"
            },
            {
              "internalType": "uint32",
              "name": "timestamp",
              "type": "uint32"
            },
            {
              "internalType": "uint32",
              "name": "acceptedTimestamp",
              "type": "uint32"
            },
            {
              "internalType": "uint32",
              "name": "lastRepaidTimestamp",
              "type": "uint32"
            },
            {
              "internalType": "uint32",
              "name": "loanDuration",
              "type": "uint32"
            }
          ],
          "internalType": "struct LoanDetails",
          "name": "loanDetails",
          "type": "tuple"
        },
        {
          "components": [
            {
              "internalType": "uint256",
              "name": "paymentCycleAmount",
              "type": "uint256"
            },
            {
              "internalType": "uint32",
              "name": "paymentCycle",
              "type": "uint32"
            },
            {
              "internalType": "uint16",
              "name": "APR",
              "type": "uint16"
            }
          ],
          "internalType": "struct Terms",
          "name": "terms",
          "type": "tuple"
        },
        {
          "internalType": "enum BidState",
          "name": "state",
          "type": "uint8"
        },
        {
          "internalType": "enum PaymentType",
          "name": "paymentType",
          "type": "uint8"
        }
      ],
      "stateMutability": "view",
      "type": "function"
    },
    {
      "inputs": [
        {
          "internalType": "address",
          "name": "",
          "type": "address"
        },
        {
          "internalType": "uint256",
          "name": "",
          "type": "uint256"
        }
      ],
      "name": "borrowerBids",
      "outputs": [
        {
          "internalType": "uint256",
          "name": "",
          "type": "uint256"
        }
      ],
      "stateMutability": "view",
      "type": "function"
    },
    {
      "inputs": [
        {
          "internalType": "uint256",
          "name": "_bidId",
          "type": "uint256"
        },
        {
          "internalType": "uint256",
          "name": "_timestamp",
          "type": "uint256"
        }
      ],
      "name": "calculateAmountDue",
      "outputs": [
        {
          "components": [
            {
              "internalType": "uint256",
              "name": "principal",
              "type": "uint256"
            },
            {
              "internalType": "uint256",
              "name": "interest",
              "type": "uint256"
            }
          ],
          "internalType": "struct Payment",
          "name": "due",
          "type": "tuple"
        }
      ],
      "stateMutability": "view",
      "type": "function"
    },
    {
      "inputs": [
        {
          "internalType": "uint256",
          "name": "_bidId",
          "type": "uint256"
        }
      ],
      "name": "calculateAmountDue",
      "outputs": [
        {
          "components": [
            {
              "internalType": "uint256",
              "name": "principal",
              "type": "uint256"
            },
            {
              "internalType": "uint256",
              "name": "interest",
              "type": "uint256"
            }
          ],
          "internalType": "struct Payment",
          "name": "due",
          "type": "tuple"
        }
      ],
      "stateMutability": "view",
      "type": "function"
    },
    {
      "inputs": [
        {
          "internalType": "uint256",
          "name": "_bidId",
          "type": "uint256"
        },
        {
          "internalType": "uint256",
          "name": "_timestamp",
          "type": "uint256"
        }
      ],
      "name": "calculateAmountOwed",
      "outputs": [
        {
          "components": [
            {
              "internalType": "uint256",
              "name": "principal",
              "type": "uint256"
            },
            {
              "internalType": "uint256",
              "name": "interest",
              "type": "uint256"
            }
          ],
          "internalType": "struct Payment",
          "name": "owed",
          "type": "tuple"
        }
      ],
      "stateMutability": "view",
      "type": "function"
    },
    {
      "inputs": [
        {
          "internalType": "uint256",
          "name": "_bidId",
          "type": "uint256"
        }
      ],
      "name": "calculateAmountOwed",
      "outputs": [
        {
          "components": [
            {
              "internalType": "uint256",
              "name": "principal",
              "type": "uint256"
            },
            {
              "internalType": "uint256",
              "name": "interest",
              "type": "uint256"
            }
          ],
          "internalType": "struct Payment",
          "name": "owed",
          "type": "tuple"
        }
      ],
      "stateMutability": "view",
      "type": "function"
    },
    {
      "inputs": [
        {
          "internalType": "uint256",
          "name": "_bidId",
          "type": "uint256"
        }
      ],
      "name": "calculateNextDueDate",
      "outputs": [
        {
          "internalType": "uint32",
          "name": "dueDate_",
          "type": "uint32"
        }
      ],
      "stateMutability": "view",
      "type": "function"
    },
    {
      "inputs": [
        {
          "internalType": "uint256",
          "name": "_bidId",
          "type": "uint256"
        }
      ],
      "name": "cancelBid",
      "outputs": [],
      "stateMutability": "nonpayable",
      "type": "function"
    },
    {
      "inputs": [],
      "name": "collateralManager",
      "outputs": [
        {
          "internalType": "contract ICollateralManager",
          "name": "",
          "type": "address"
        }
      ],
      "stateMutability": "view",
      "type": "function"
    },
    {
      "inputs": [
        {
          "internalType": "uint256",
          "name": "_bidId",
          "type": "uint256"
        }
      ],
      "name": "getBidState",
      "outputs": [
        {
          "internalType": "enum BidState",
          "name": "",
          "type": "uint8"
        }
      ],
      "stateMutability": "view",
      "type": "function"
    },
    {
      "inputs": [
        {
          "internalType": "address",
          "name": "_borrower",
          "type": "address"
        }
      ],
      "name": "getBorrowerActiveLoanIds",
      "outputs": [
        {
          "internalType": "uint256[]",
          "name": "",
          "type": "uint256[]"
        }
      ],
      "stateMutability": "view",
      "type": "function"
    },
    {
      "inputs": [
        {
          "internalType": "address",
          "name": "_borrower",
          "type": "address"
        }
      ],
      "name": "getBorrowerLoanIds",
      "outputs": [
        {
          "internalType": "uint256[]",
          "name": "",
          "type": "uint256[]"
        }
      ],
      "stateMutability": "view",
      "type": "function"
    },
    {
      "inputs": [],
      "name": "getLendingTokens",
      "outputs": [
        {
          "internalType": "address[]",
          "name": "",
          "type": "address[]"
        }
      ],
      "stateMutability": "view",
      "type": "function"
    },
    {
      "inputs": [
        {
          "internalType": "uint256",
          "name": "_bidId",
          "type": "uint256"
        }
      ],
      "name": "getLoanBorrower",
      "outputs": [
        {
          "internalType": "address",
          "name": "borrower_",
          "type": "address"
        }
      ],
      "stateMutability": "view",
      "type": "function"
    },
    {
      "inputs": [
        {
          "internalType": "uint256",
          "name": "_bidId",
          "type": "uint256"
        }
      ],
      "name": "getLoanLender",
      "outputs": [
        {
          "internalType": "address",
          "name": "lender_",
          "type": "address"
        }
      ],
      "stateMutability": "view",
      "type": "function"
    },
    {
      "inputs": [
        {
          "internalType": "uint256",
          "name": "_bidId",
          "type": "uint256"
        }
      ],
      "name": "getLoanLendingToken",
      "outputs": [
        {
          "internalType": "address",
          "name": "token_",
          "type": "address"
        }
      ],
      "stateMutability": "view",
      "type": "function"
    },
    {
      "inputs": [
        {
          "internalType": "uint256",
          "name": "_bidId",
          "type": "uint256"
        }
      ],
      "name": "getMetadataURI",
      "outputs": [
        {
          "internalType": "string",
          "name": "metadataURI_",
          "type": "string"
        }
      ],
      "stateMutability": "view",
      "type": "function"
    },
    {
      "inputs": [
        {
          "internalType": "uint256",
          "name": "_marketId",
          "type": "uint256"
        },
        {
          "internalType": "address",
          "name": "_forwarder",
          "type": "address"
        },
        {
          "internalType": "address",
          "name": "_account",
          "type": "address"
        }
      ],
      "name": "hasApprovedMarketForwarder",
      "outputs": [
        {
          "internalType": "bool",
          "name": "",
          "type": "bool"
        }
      ],
      "stateMutability": "view",
      "type": "function"
    },
    {
      "inputs": [
        {
          "internalType": "uint16",
          "name": "_protocolFee",
          "type": "uint16"
        },
        {
          "internalType": "address",
          "name": "_marketRegistry",
          "type": "address"
        },
        {
          "internalType": "address",
          "name": "_reputationManager",
          "type": "address"
        },
        {
          "internalType": "address",
          "name": "_lenderCommitmentForwarder",
          "type": "address"
        },
        {
          "internalType": "address[]",
          "name": "_lendingTokens",
          "type": "address[]"
        },
        {
          "internalType": "address",
          "name": "_collateralManagerAddress",
          "type": "address"
        }
      ],
      "name": "initialize",
      "outputs": [],
      "stateMutability": "nonpayable",
      "type": "function"
    },
    {
      "inputs": [
        {
          "internalType": "uint256",
          "name": "_bidId",
          "type": "uint256"
        }
      ],
      "name": "isLoanDefaulted",
      "outputs": [
        {
          "internalType": "bool",
          "name": "",
          "type": "bool"
        }
      ],
      "stateMutability": "view",
      "type": "function"
    },
    {
      "inputs": [
        {
          "internalType": "uint256",
          "name": "_bidId",
          "type": "uint256"
        }
      ],
      "name": "isLoanExpired",
      "outputs": [
        {
          "internalType": "bool",
          "name": "",
          "type": "bool"
        }
      ],
      "stateMutability": "view",
      "type": "function"
    },
    {
      "inputs": [
        {
          "internalType": "uint256",
          "name": "_bidId",
          "type": "uint256"
        }
      ],
      "name": "isPaymentLate",
      "outputs": [
        {
          "internalType": "bool",
          "name": "",
          "type": "bool"
        }
      ],
      "stateMutability": "view",
      "type": "function"
    },
    {
      "inputs": [
        {
          "internalType": "address",
          "name": "forwarder",
          "type": "address"
        }
      ],
      "name": "isTrustedForwarder",
      "outputs": [
        {
          "internalType": "bool",
          "name": "",
          "type": "bool"
        }
      ],
      "stateMutability": "view",
      "type": "function"
    },
    {
      "inputs": [
        {
          "internalType": "uint256",
          "name": "_marketId",
          "type": "uint256"
        },
        {
          "internalType": "address",
          "name": "_trustedMarketForwarder",
          "type": "address"
        }
      ],
      "name": "isTrustedMarketForwarder",
      "outputs": [
        {
          "internalType": "bool",
          "name": "",
          "type": "bool"
        }
      ],
      "stateMutability": "view",
      "type": "function"
    },
    {
      "inputs": [
        {
          "internalType": "uint256",
          "name": "_bidId",
          "type": "uint256"
        }
      ],
      "name": "lastRepaidTimestamp",
      "outputs": [
        {
          "internalType": "uint32",
          "name": "",
          "type": "uint32"
        }
      ],
      "stateMutability": "view",
      "type": "function"
    },
    {
      "inputs": [
        {
          "internalType": "uint256",
          "name": "_bidId",
          "type": "uint256"
        }
      ],
      "name": "lenderAcceptBid",
      "outputs": [
        {
          "internalType": "uint256",
          "name": "amountToProtocol",
          "type": "uint256"
        },
        {
          "internalType": "uint256",
          "name": "amountToMarketplace",
          "type": "uint256"
        },
        {
          "internalType": "uint256",
          "name": "amountToBorrower",
          "type": "uint256"
        }
      ],
      "stateMutability": "nonpayable",
      "type": "function"
    },
    {
      "inputs": [],
      "name": "lenderCommitmentForwarder",
      "outputs": [
        {
          "internalType": "address",
          "name": "",
          "type": "address"
        }
      ],
      "stateMutability": "view",
      "type": "function"
    },
    {
      "inputs": [
        {
          "internalType": "address",
          "name": "",
          "type": "address"
        },
        {
          "internalType": "address",
          "name": "",
          "type": "address"
        }
      ],
      "name": "lenderVolumeFilled",
      "outputs": [
        {
          "internalType": "uint256",
          "name": "",
          "type": "uint256"
        }
      ],
      "stateMutability": "view",
      "type": "function"
    },
    {
      "inputs": [
        {
          "internalType": "uint256",
          "name": "_bidId",
          "type": "uint256"
        }
      ],
      "name": "liquidateLoanFull",
      "outputs": [],
      "stateMutability": "nonpayable",
      "type": "function"
    },
    {
      "inputs": [
        {
          "internalType": "uint256",
          "name": "_bidId",
          "type": "uint256"
        }
      ],
      "name": "marketOwnerCancelBid",
      "outputs": [],
      "stateMutability": "nonpayable",
      "type": "function"
    },
    {
      "inputs": [],
      "name": "marketRegistry",
      "outputs": [
        {
          "internalType": "contract IMarketRegistry",
          "name": "",
          "type": "address"
        }
      ],
      "stateMutability": "view",
      "type": "function"
    },
    {
      "inputs": [],
      "name": "owner",
      "outputs": [
        {
          "internalType": "address",
          "name": "",
          "type": "address"
        }
      ],
      "stateMutability": "view",
      "type": "function"
    },
    {
      "inputs": [],
      "name": "pauseProtocol",
      "outputs": [],
      "stateMutability": "nonpayable",
      "type": "function"
    },
    {
      "inputs": [],
      "name": "paused",
      "outputs": [
        {
          "internalType": "bool",
          "name": "",
          "type": "bool"
        }
      ],
      "stateMutability": "view",
      "type": "function"
    },
    {
      "inputs": [],
      "name": "protocolFee",
      "outputs": [
        {
          "internalType": "uint16",
          "name": "",
          "type": "uint16"
        }
      ],
      "stateMutability": "view",
      "type": "function"
    },
    {
      "inputs": [
        {
          "internalType": "address",
          "name": "_lendingToken",
          "type": "address"
        }
      ],
      "name": "removeLendingToken",
      "outputs": [],
      "stateMutability": "nonpayable",
      "type": "function"
    },
    {
      "inputs": [],
      "name": "renounceOwnership",
      "outputs": [],
      "stateMutability": "nonpayable",
      "type": "function"
    },
    {
      "inputs": [
        {
          "internalType": "uint256",
          "name": "_bidId",
          "type": "uint256"
        },
        {
          "internalType": "uint256",
          "name": "_amount",
          "type": "uint256"
        }
      ],
      "name": "repayLoan",
      "outputs": [],
      "stateMutability": "nonpayable",
      "type": "function"
    },
    {
      "inputs": [
        {
          "internalType": "uint256",
          "name": "_bidId",
          "type": "uint256"
        }
      ],
      "name": "repayLoanFull",
      "outputs": [],
      "stateMutability": "nonpayable",
      "type": "function"
    },
    {
      "inputs": [
        {
          "internalType": "uint256",
          "name": "_bidId",
          "type": "uint256"
        }
      ],
      "name": "repayLoanMinimum",
      "outputs": [],
      "stateMutability": "nonpayable",
      "type": "function"
    },
    {
      "inputs": [],
      "name": "reputationManager",
      "outputs": [
        {
          "internalType": "contract IReputationManager",
          "name": "",
          "type": "address"
        }
      ],
      "stateMutability": "view",
      "type": "function"
    },
    {
      "inputs": [
        {
          "internalType": "address",
          "name": "_collateralManager",
          "type": "address"
        }
      ],
      "name": "setCollateralManager",
      "outputs": [],
      "stateMutability": "nonpayable",
      "type": "function"
    },
    {
      "inputs": [
        {
          "internalType": "uint16",
          "name": "newFee",
          "type": "uint16"
        }
      ],
      "name": "setProtocolFee",
      "outputs": [],
      "stateMutability": "nonpayable",
      "type": "function"
    },
    {
      "inputs": [
        {
          "internalType": "address",
          "name": "_reputationManager",
          "type": "address"
        }
      ],
      "name": "setReputationManager",
      "outputs": [],
      "stateMutability": "nonpayable",
      "type": "function"
    },
    {
      "inputs": [
        {
          "internalType": "uint256",
          "name": "_marketId",
          "type": "uint256"
        },
        {
          "internalType": "address",
          "name": "_forwarder",
          "type": "address"
        }
      ],
      "name": "setTrustedMarketForwarder",
      "outputs": [],
      "stateMutability": "nonpayable",
      "type": "function"
    },
    {
      "inputs": [
        {
          "internalType": "address",
          "name": "_lendingToken",
          "type": "address"
        },
        {
          "internalType": "uint256",
          "name": "_marketplaceId",
          "type": "uint256"
        },
        {
          "internalType": "uint256",
          "name": "_principal",
          "type": "uint256"
        },
        {
          "internalType": "uint32",
          "name": "_duration",
          "type": "uint32"
        },
        {
          "internalType": "uint16",
          "name": "_APR",
          "type": "uint16"
        },
        {
          "internalType": "string",
          "name": "_metadataURI",
          "type": "string"
        },
        {
          "internalType": "address",
          "name": "_receiver",
          "type": "address"
        }
      ],
      "name": "submitBid",
      "outputs": [
        {
          "internalType": "uint256",
          "name": "bidId_",
          "type": "uint256"
        }
      ],
      "stateMutability": "nonpayable",
      "type": "function"
    },
    {
      "inputs": [
        {
          "internalType": "address",
          "name": "_lendingToken",
          "type": "address"
        },
        {
          "internalType": "uint256",
          "name": "_marketplaceId",
          "type": "uint256"
        },
        {
          "internalType": "uint256",
          "name": "_principal",
          "type": "uint256"
        },
        {
          "internalType": "uint32",
          "name": "_duration",
          "type": "uint32"
        },
        {
          "internalType": "uint16",
          "name": "_APR",
          "type": "uint16"
        },
        {
          "internalType": "string",
          "name": "_metadataURI",
          "type": "string"
        },
        {
          "internalType": "address",
          "name": "_receiver",
          "type": "address"
        },
        {
          "components": [
            {
              "internalType": "enum CollateralType",
              "name": "_collateralType",
              "type": "uint8"
            },
            {
              "internalType": "uint256",
              "name": "_amount",
              "type": "uint256"
            },
            {
              "internalType": "uint256",
              "name": "_tokenId",
              "type": "uint256"
            },
            {
              "internalType": "address",
              "name": "_collateralAddress",
              "type": "address"
            }
          ],
          "internalType": "struct Collateral[]",
          "name": "_collateralInfo",
          "type": "tuple[]"
        }
      ],
      "name": "submitBid",
      "outputs": [
        {
          "internalType": "uint256",
          "name": "bidId_",
          "type": "uint256"
        }
      ],
      "stateMutability": "nonpayable",
      "type": "function"
    },
    {
      "inputs": [
        {
          "internalType": "address",
          "name": "",
          "type": "address"
        }
      ],
      "name": "totalVolumeFilled",
      "outputs": [
        {
          "internalType": "uint256",
          "name": "",
          "type": "uint256"
        }
      ],
      "stateMutability": "view",
      "type": "function"
    },
    {
      "inputs": [
        {
          "internalType": "address",
          "name": "newOwner",
          "type": "address"
        }
      ],
      "name": "transferOwnership",
      "outputs": [],
      "stateMutability": "nonpayable",
      "type": "function"
    },
    {
      "inputs": [],
      "name": "unpauseProtocol",
      "outputs": [],
      "stateMutability": "nonpayable",
      "type": "function"
    },
    {
      "inputs": [
        {
          "internalType": "uint256",
          "name": "",
          "type": "uint256"
        }
      ],
      "name": "uris",
      "outputs": [
        {
          "internalType": "string",
          "name": "",
          "type": "string"
        }
      ],
      "stateMutability": "view",
      "type": "function"
    },
    {
      "inputs": [],
      "name": "version",
      "outputs": [
        {
          "internalType": "uint256",
          "name": "",
          "type": "uint256"
        }
      ],
      "stateMutability": "view",
      "type": "function"
    }
  ],
  "transactionHash": "0x9f9721ef9d2e2fd8894b2f8e14e00693528e30ab7a871b7b9a5e0b903c0c86f6",
  "args": [
    "0x98f6D1464f2471a402E9Ae8dEFaEBB242ACcD854"
  ],
  "numDeployments": 6,
  "solcInputHash": "1eb1affba385b48f22811c93706b6dec",
  "bytecode": "0x60a060405260006097553480156200001657600080fd5b5060405162004fb838038062004fb883398101604081905262000039916200004b565b6001600160a01b03166080526200007d565b6000602082840312156200005e57600080fd5b81516001600160a01b03811681146200007657600080fd5b9392505050565b608051614f18620000a0600039600081816107630152613ab40152614f186000f3fe608060405234801561001057600080fd5b50600436106103a45760003560e01c8063706a43c3116101e9578063b0e21e8a1161010f578063d87569cc116100ad578063e8cbab091161007c578063e8cbab0914610a33578063ecb96fe614610a46578063f2fde38b14610a59578063f93b6be514610a6c57600080fd5b8063d87569cc146109f2578063d974cc5714610a05578063dbf6248914610a18578063e4467f3514610a2057600080fd5b8063bde644fb116100e9578063bde644fb14610986578063bf77ffae14610999578063d4eda4cf146109cc578063d76ac91f146109df57600080fd5b8063b0e21e8a1461093d578063b5d34fcd14610953578063ba6d5b151461097357600080fd5b80638ac4731911610187578063a10905ea11610156578063a10905ea146108bd578063a51e2bad146108e9578063a75021ba146108fc578063a8cb5d681461090f57600080fd5b80638ac473191461087d5780638da5cb5b146108865780639703ef35146108975780639a11e339146108aa57600080fd5b80638288da8a116101c35780638288da8a14610831578063837c0bf614610844578063842a05d4146108575780638a700b531461086a57600080fd5b8063706a43c314610803578063715018a6146108165780637bbd53d71461081e57600080fd5b806323be345c116102ce57806354fd4d501161026c5780636aedfe681161023b5780636aedfe68146107a45780636b76c085146107b75780636b868afb146107dd5780636c6ca79c146107f057600080fd5b806354fd4d501461073757806356a837f414610740578063572b6c05146107535780635c975abb1461079357600080fd5b80633819bcdc116102a85780633819bcdc146105c55780633ef0a2f7146105d85780634148f94c146106015780634423c5f11461061b57600080fd5b806323be345c1461057f5780632519dc79146105925780632e9332d4146105b257600080fd5b8063127caa881161034657806319b353de1161031557806319b353de146105315780631d12363314610544578063206c54c714610557578063235d5a7b1461056a57600080fd5b8063127caa88146104945780631289b396146104cf5780631420a266146104d857806314573033146104ed57600080fd5b8063093f561711610382578063093f56171461041e5780631042b85f1461044157806310618223146104615780631253c5461461047457600080fd5b8063054de0ff146103a957806306f33a92146103d2578063089487b5146103f3575b600080fd5b6103bc6103b7366004614274565b610a74565b6040516103c99190614291565b60405180910390f35b6103e56103e0366004614340565b610a9e565b6040519081526020016103c9565b6103e56104013660046143e2565b60a360209081526000928352604080842090915290825290205481565b61043161042c36600461441b565b610ac5565b60405190151581526020016103c9565b61045461044f366004614434565b610b1a565b6040516103c99190614456565b61043161046f36600461441b565b610b9f565b61048761048236600461441b565b610c35565b6040516103c991906144c5565b6104ba6104a236600461441b565b60a26020526000908152604090205463ffffffff1681565b60405163ffffffff90911681526020016103c9565b6103e5609b5481565b6104eb6104e63660046144d8565b610ccf565b005b6105196104fb36600461441b565b6000908152609860205260409020600501546001600160a01b031690565b6040516001600160a01b0390911681526020016103c9565b61043161053f3660046144fd565b610e2d565b6103bc610552366004614274565b610e6c565b6104eb61056536600461441b565b610ed8565b61057261104b565b6040516103c9919061453f565b60aa54610519906001600160a01b031681565b6103e56105a0366004614274565b60a46020526000908152604090205481565b6104eb6105c03660046144d8565b61105c565b6103e56105d3366004614580565b61113f565b6105196105e636600461441b565b6000908152609860205260409020546001600160a01b031690565b610609600781565b60405160ff90911681526020016103c9565b61072261062936600461441b565b60986020908152600091825260409182902080546001820154600283015460038401546004850154875160e08101895260058701546001600160a01b0390811682526006880154828a01528951808b018b52600789015481526008890154818b0152828b0152600988015463ffffffff808216606080860191909152600160201b80840483166080870152600160401b8404831660a0870152600160601b909304821660c08601528c519081018d52600a8b01548152600b8b01549182169b81019b909b520461ffff1699890199909952600c909601549488169793841696939092169490939192909160ff8082169161010090041689565b6040516103c9999897969594939291906145e6565b6103e560a55481565b6104eb61074e366004614274565b611170565b610431610761366004614274565b7f00000000000000000000000000000000000000000000000000000000000000006001600160a01b0390811691161490565b60655462010000900460ff16610431565b6104546107b2366004614434565b61119a565b6104ba6107c536600461441b565b60a16020526000908152604090205463ffffffff1681565b609f54610519906001600160a01b031681565b6104546107fe36600461441b565b61121f565b6104ba61081136600461441b565b611290565b6104eb6113d2565b6103e561082c3660046146df565b6113e6565b6104eb61083f36600461441b565b611501565b6104eb6108523660046147df565b6116d6565b6104eb610865366004614274565b611910565b6104eb610878366004614434565b6119b9565b6103e560975481565b6033546001600160a01b0316610519565b6104eb6108a536600461441b565b611ab4565b6104eb6108b836600461441b565b611b69565b6105196108cb36600461441b565b6000908152609860205260409020600201546001600160a01b031690565b6104ba6108f736600461441b565b611c20565b6104eb61090a366004614274565b611c37565b61092261091d36600461441b565b611c4e565b604080519384526020840192909252908201526060016103c9565b60655460405161ffff90911681526020016103c9565b6103e5610961366004614274565b609a6020526000908152604090205481565b60a954610519906001600160a01b031681565b61048761099436600461441b565b612308565b6109bf6109a736600461441b565b6000908152609860205260409020600c015460ff1690565b6040516103c991906148b0565b6104eb6109da36600461441b565b612420565b6104eb6109ed366004614274565b6124db565b610431610a003660046144d8565b612545565b610454610a1336600461441b565b61257f565b6104eb6125f0565b6104eb610a2e3660046148be565b612608565b610431610a4136600461441b565b612672565b609e54610519906001600160a01b031681565b6104eb610a67366004614274565b612701565b6104eb612777565b6001600160a01b038116600090815260a060205260409020606090610a989061278f565b92915050565b6000610aa861279c565b610ab889898989898989896127e8565b9998505050505050505050565b600060036000838152609860205260409020600c015460ff166005811115610aef57610aef6145ac565b14610afc57506000919050565b610b0582611290565b63ffffffff164263ffffffff16119050919050565b604080518082019091526000808252602082015260008381526098602052604090206003600c82015460ff166005811115610b5757610b576145ac565b141580610b7557506009810154600160201b900463ffffffff168311155b15610b805750610a98565b600080610b8d8386612e58565b91865250602085015250505092915050565b60008181526098602052604081206001600c82015460ff166005811115610bc857610bc86145ac565b14610bd65750600092915050565b600083815260a2602052604090205463ffffffff16610bf85750600092915050565b600083815260a260205260409020546009820154610c1f9163ffffffff90811691166148f1565b63ffffffff164263ffffffff1611915050919050565b60a66020526000908152604090208054610c4e90614919565b80601f0160208091040260200160405190810160405280929190818152602001828054610c7a90614919565b8015610cc75780601f10610c9c57610100808354040283529160200191610cc7565b820191906000526020600020905b815481529060010190602001808311610caa57829003601f168201915b505050505081565b610cd7612ed7565b609e54604051633d36902960e01b8152600481018590526001600160a01b039283169290911690633d36902990602401602060405180830381600087803b158015610d2157600080fd5b505af1158015610d35573d6000803e3d6000fd5b505050506040513d601f19601f82011682018060405250810190610d599190614954565b6001600160a01b031614610db45760405162461bcd60e51b815260206004820152601f60248201527f43616c6c6572206d75737420626520746865206d61726b6574206f776e65720060448201526064015b60405180910390fd5b600082815260a76020526040902080546001600160a01b0319166001600160a01b038316179055817fa593acf9edc343669c7fc50d2caa3911326adef438361f0fa911be85c9e296a482610e06612ed7565b604080516001600160a01b0393841681529290911660208301520160405180910390a25050565b6000610e398484612545565b8015610e6257506001600160a01b038316600090815260a860205260409020610e629083612ee1565b90505b9392505050565b6001600160a01b038116600090815260996020908152604091829020805483518184028101840190945280845260609392830182828015610ecc57602002820191906000526020600020905b815481526020019060010190808311610eb8575b50505050509050919050565b609e5460008281526098602052604090819020600301549051633d36902960e01b81526001600160a01b0390921691633d36902991610f1d9160040190815260200190565b602060405180830381600087803b158015610f3757600080fd5b505af1158015610f4b573d6000803e3d6000fd5b505050506040513d601f19601f82011682018060405250810190610f6f9190614954565b6001600160a01b0316610f80612ed7565b6001600160a01b031614611014576040516347bc33cb60e11b8152600481018290526060602482015260146064820152731b585c9ad95d13dddb995c90d85b98d95b109a5960621b608482015260a06044820152602160a48201527f4f6e6c7920746865206d61726b6574206f776e65722063616e2063616e63656c60c4820152602160f81b60e482015261010401610dab565b61101d81612f03565b60405181907ff3f271d754f5264e0d143bf9be577d6eba153b0d833bd3a127d7b1a280bb13f190600090a250565b6060611057609c61278f565b905090565b6110668282612545565b6110c25760405162461bcd60e51b815260206004820152602760248201527f466f72776172646572206d757374206265207472757374656420627920746865604482015266081b585c9ad95d60ca1b6064820152608401610dab565b6110eb6110cd612ed7565b6001600160a01b038316600090815260a86020526040902090612fb7565b50806001600160a01b0316827f65d6b5305e8c0e58e88454a1aeecae0f55975222338b25abd0997b4d305056a1611120612ed7565b6040516001600160a01b03909116815260200160405180910390a35050565b6099602052816000526040600020818154811061115b57600080fd5b90600052602060002001600091509150505481565b611178612fcc565b609f80546001600160a01b0319166001600160a01b0392909216919091179055565b604080518082018252600080825260208083018290528582526098905291909120600c81015460039060ff1660058111156111d7576111d76145ac565b1415806111f557506009810154600160201b900463ffffffff168311155b156112005750610a98565b60008061120d8386612e58565b90865260208601525050505092915050565b604080518082019091526000808252602082015260036000838152609860205260409020600c015460ff16600581111561125b5761125b6145ac565b1461126557919050565b6000828152609860205260408120819061127f9042612e58565b918552506020840152509092915050565b6000818152609860205260408120600c81015460039060ff1660058111156112ba576112ba6145ac565b146112c55750919050565b600b81015460098201546112e99163ffffffff90811691600160201b9004166148f1565b6009820154909250600090600160201b900463ffffffff1661130a85611c20565b6113149190614971565b905063ffffffff81161561136b57600b82015460009061133a9063ffffffff16836149ac565b6113459060016148f1565b600b84015490915061135d9063ffffffff16826149cf565b61136790856148f1565b9350505b60098201546113909063ffffffff600160601b8204811691600160201b9004166148f1565b63ffffffff168363ffffffff1611156113cb5760098201546113c89063ffffffff600160601b8204811691600160201b9004166148f1565b92505b5050919050565b6113da612fcc565b6113e46000613045565b565b60006113f061279c565b6114008b8b8b8b8b8b8b8b6127e8565b60aa54604051631532dc4560e01b81529192506000916001600160a01b0390911690631532dc459061143a90859088908890600401614a08565b602060405180830381600087803b15801561145457600080fd5b505af1158015611468573d6000803e3d6000fd5b505050506040513d601f19601f8201168201806040525081019061148c9190614aa9565b90506001811515146114f25760405162461bcd60e51b815260206004820152602960248201527f436f6c6c61746572616c2062616c616e636520636f756c64206e6f74206265206044820152681d985b1a59185d195960ba1b6064820152608401610dab565b509a9950505050505050505050565b60408051808201909152600d81526c3634b8bab4b230ba32a637b0b760991b6020820152819060036000838152609860205260409020600c015460ff16600581111561154f5761154f6145ac565b146115715781816040516347bc33cb60e11b8152600401610dab929190614ac4565b61157a83612672565b6115c65760405162461bcd60e51b815260206004820152601760248201527f4c6f616e206d7573742062652064656661756c7465642e0000000000000000006044820152606401610dab565b600083815260986020526040812090806115e08342612e58565b925050915061160f86604051806040016040528085815260200184815250838561160a9190614b13565b613097565b600c8301805460ff19166005179055600383015460009061162f90613370565b60aa5460405163f0472c4960e01b8152600481018a90526001600160a01b03808416602483015292935091169063f0472c4990604401600060405180830381600087803b15801561167f57600080fd5b505af1158015611693573d6000803e3d6000fd5b50506040516001600160a01b03841692508991507f73de9acc561f27528ab0a3b5dd63fefb4e59f95575891299a6f862a78779817690600090a350505050505050565b600054610100900460ff16158080156116f65750600054600160ff909116105b806117105750303b158015611710575060005460ff166001145b61172c5760405162461bcd60e51b8152600401610dab90614b2b565b6000805460ff19166001179055801561174f576000805461ff0019166101001790555b6117588861341b565b611760613453565b60a980546001600160a01b038088166001600160a01b031992831617909255609e80548a8416908316179055609f8054928916929091169190911790556117a682613482565b826117f35760405162461bcd60e51b815260206004820152601b60248201527f4e6f206c656e64696e6720746f6b656e732073706563696669656400000000006044820152606401610dab565b60005b838110156118bf5761183785858381811061181357611813614b79565b90506020020160208101906118289190614274565b6001600160a01b03163b151590565b6118835760405162461bcd60e51b815260206004820152601a60248201527f6c656e64696e6720746f6b656e206e6f7420636f6e74726163740000000000006044820152606401610dab565b6118ad85858381811061189857611898614b79565b90506020020160208101906109ed9190614274565b806118b781614b8f565b9150506117f6565b508015611906576000805461ff0019169055604051600181527f7f26b83ff96e1f2b6a682f133852f6798a09c465da95921460cefb38474024989060200160405180910390a15b5050505050505050565b600054600790610100900460ff16158015611932575060005460ff8083169116105b61194e5760405162461bcd60e51b8152600401610dab90614b2b565b6000805461ffff191660ff83161761010017905561196a612fcc565b61197382613482565b6000805461ff001916905560405160ff821681527f7f26b83ff96e1f2b6a682f133852f6798a09c465da95921460cefb3847402498906020015b60405180910390a15050565b6040805180820190915260098152683932b830bca637b0b760b91b6020820152829060036000838152609860205260409020600c015460ff166005811115611a0357611a036145ac565b14611a255781816040516347bc33cb60e11b8152600401610dab929190614ac4565b600084815260986020526040812081908190611a419042612e58565b919450925090506000611a548284614b13565b905080871015611a875760405162dd9d0f60e61b8152600481018990526024810188905260448101829052606401610dab565b611906886040518060400160405280858b611aa29190614baa565b815260200185905261160a8588614b13565b600081815260986020526040902080546003909101546001600160a01b0390911690611adf90613370565b6001600160a01b031614611b5d576040516347bc33cb60e11b81526004810182905260606024820152600960648201526818d85b98d95b109a5960ba1b608482015260a06044820152601e60a48201527f4f6e6c792074686520626964206f776e65722063616e2063616e63656c21000060c482015260e401610dab565b611b6681612f03565b50565b6040805180820190915260098152683932b830bca637b0b760b91b6020820152819060036000838152609860205260409020600c015460ff166005811115611bb357611bb36145ac565b14611bd55781816040516347bc33cb60e11b8152600401610dab929190614ac4565b60008381526098602052604081208190611bef9042612e58565b9250509150611c1985604051806040016040528085815260200184815250838561160a9190614b13565b5050505050565b6000818152609860205260408120610a9890613589565b611c3f612fcc565b611c4a609c826135cf565b5050565b6000806000836040518060400160405280600f81526020016e1b195b99195c9058d8d95c1d109a59608a1b81525060016005811115611c8f57611c8f6145ac565b6000838152609860205260409020600c015460ff166005811115611cb557611cb56145ac565b14611cd75781816040516347bc33cb60e11b8152600401610dab929190614bc1565b611cdf61279c565b60008681526098602052604081206003810154909190611cfe90613370565b609e546003840154604051633ef19a9b60e01b815260048101919091526001600160a01b03808416602483015292935060009290911690633ef19a9b906044016040805180830381600087803b158015611d5757600080fd5b505af1158015611d6b573d6000803e3d6000fd5b505050506040513d601f19601f82011682018060405250810190611d8f9190614c0e565b50905080611dd55760405162461bcd60e51b81526020600482015260136024820152722737ba103b32b934b334b2b2103632b73232b960691b6044820152606401610dab565b609e546003840154604051631cc672df60e01b81526001600160a01b0390921691631cc672df91611e0c9160040190815260200190565b602060405180830381600087803b158015611e2657600080fd5b505af1158015611e3a573d6000803e3d6000fd5b505050506040513d601f19601f82011682018060405250810190611e5e9190614aa9565b15611e9e5760405162461bcd60e51b815260206004820152601060248201526f13585c9ad95d081a5cc818db1bdcd95960821b6044820152606401610dab565b611ea789610b9f565b15611ee65760405162461bcd60e51b815260206004820152600f60248201526e109a59081a185cc8195e1c1a5c9959608a1b6044820152606401610dab565b6009830180546bffffffffffffffff000000001916600160201b4263ffffffff1690810263ffffffff60401b191691909117600160401b91909102179055600c830180546003919060ff191660018302179055506002830180546001600160a01b0319166001600160a01b038481169190911790915560aa546040516346f0b08b60e11b8152600481018c9052911690638de1611690602401600060405180830381600087803b158015611f9957600080fd5b505af1158015611fad573d6000803e3d6000fd5b50505050611fcc611fc160655461ffff1690565b6006850154906135e4565b609e54600385015460405163028ba63960e21b8152929a5061205c926001600160a01b0390921691630a2e98e49161200a9160040190815260200190565b602060405180830381600087803b15801561202457600080fd5b505af1158015612038573d6000803e3d6000fd5b505050506040513d601f19601f82011682018060405250810190611fc19190614c3a565b9650868884600501600101546120729190614baa565b61207c9190614baa565b60028401549096506120b9906001600160a01b03166120a36033546001600160a01b031690565b60058601546001600160a01b031691908b6135f6565b6002830154609e5460038501546040516332209bcb60e11b8152600481019190915261215e926001600160a01b03908116921690636441379690602401602060405180830381600087803b15801561211057600080fd5b505af1158015612124573d6000803e3d6000fd5b505050506040513d601f19601f820116820180604052508101906121489190614954565b60058601546001600160a01b031691908a6135f6565b600283015460018401546005850154612188926001600160a01b03918216929082169116896135f6565b600683015460058401546001600160a01b03908116600090815260a3602090815260408083206002890154909416835292905290812080549091906121ce908490614b13565b9091555050600683015460058401546001600160a01b0316600090815260a4602052604081208054909190612204908490614b13565b909155505082546001600160a01b0316600090815260a06020526040902061222c908a613656565b5060028301546040516001600160a01b03909116908a907fde9d3bfa8771df6761c0afac2375c88c70a3aa30478e1bd15363294033b470ed90600090a3604051671c1c9bdd1bd8dbdb60c21b81528890600801604051908190038120908b907f476a21a61ac4a7da250e040733aa10facd2eeee584b2c009d178c3de3d8a12dc90600090a46040516a6d61726b6574706c61636560a81b81528790600b01604051908190038120908b907f476a21a61ac4a7da250e040733aa10facd2eeee584b2c009d178c3de3d8a12dc90600090a450505050509193909250565b600081815260a66020526040902080546060919061232590614919565b80601f016020809104026020016040519081016040528092919081815260200182805461235190614919565b801561239e5780601f106123735761010080835404028352916020019161239e565b820191906000526020600020905b81548152906001019060200180831161238157829003601f168201915b50505050509050806040516020016123b69190614c57565b604051602081830303815290604052805190602001207fc5d2460186f7233c927e7db2dcc703c0e500b653ca82273b7bfad8045d85a47060001b141561241b5760008281526098602090815260409091206004015490612417908290613662565b9150505b919050565b6040805180820190915260098152683932b830bca637b0b760b91b6020820152819060036000838152609860205260409020600c015460ff16600581111561246a5761246a6145ac565b1461248c5781816040516347bc33cb60e11b8152600401610dab929190614ac4565b6000838152609860205260408120819081906124a89042612e58565b9250925092506124d386604051806040016040528085815260200184815250838661160a9190614b13565b505050505050565b6124e3612fcc565b6001600160a01b0381163b61253a5760405162461bcd60e51b815260206004820152601f60248201527f496e636f7272656374206c656e64696e6720746f6b656e2061646472657373006044820152606401610dab565b611c4a609c82612fb7565b600082815260a760205260408120546001600160a01b0383811691161480610e6557505060a9546001600160a01b03908116911614919050565b604080518082019091526000808252602082015260036000838152609860205260409020600c015460ff1660058111156125bb576125bb6145ac565b146125c557919050565b600082815260986020526040812081906125df9042612e58565b908552602085015250919392505050565b6125f8612fcc565b61260061279c565b6113e46137fe565b612610612fcc565b60655461ffff828116911614156126245750565b6065805461ffff83811661ffff198316811790935560408051938452911660208301819052917f4810ece076cee6c6042808956f3f65dad1bc72b75181341d7bed810d39deda0f91016119ad565b60008181526098602052604081206003600c82015460ff16600581111561269b5761269b6145ac565b146126a95750600092915050565b600083815260a1602052604090205463ffffffff166126cb5750600092915050565b600083815260a1602052604090205463ffffffff166126e984611c20565b6126f39042614971565b63ffffffff16119392505050565b612709612fcc565b6001600160a01b03811661276e5760405162461bcd60e51b815260206004820152602660248201527f4f776e61626c653a206e6577206f776e657220697320746865207a65726f206160448201526564647265737360d01b6064820152608401610dab565b611b6681613045565b61277f612fcc565b61278761385d565b6113e46138ac565b60606000610e65836138e9565b60655462010000900460ff16156113e45760405162461bcd60e51b815260206004820152601060248201526f14185d5cd8589b194e881c185d5cd95960821b6044820152606401610dab565b6000806127f489613370565b609e5460405163066e751360e01b8152600481018c90526001600160a01b0380841660248301529293506000929091169063066e7513906044016040805180830381600087803b15801561284757600080fd5b505af115801561285b573d6000803e3d6000fd5b505050506040513d601f19601f8201168201806040525081019061287f9190614c0e565b509050806128c75760405162461bcd60e51b81526020600482015260156024820152742737ba103b32b934b334b2b2103137b93937bbb2b960591b6044820152606401610dab565b609e54604051631cc672df60e01b8152600481018c90526001600160a01b0390911690631cc672df90602401602060405180830381600087803b15801561290d57600080fd5b505af1158015612921573d6000803e3d6000fd5b505050506040513d601f19601f820116820180604052508101906129459190614aa9565b156129855760405162461bcd60e51b815260206004820152601060248201526f13585c9ad95d081a5cc818db1bdcd95960821b6044820152606401610dab565b612990609c8c612ee1565b6129dc5760405162461bcd60e51b815260206004820152601c60248201527f4c656e64696e6720746f6b656e206e6f7420617574686f72697a6564000000006044820152606401610dab565b609754600081815260986020526040902080546001600160a01b0319166001600160a01b03858116919091178255919450908516612a245780546001600160a01b0316612a26565b845b6001820180546001600160a01b03199081166001600160a01b0393841617909155600383018d90556005830180549091168e8316179055600682018b90556009820180546fffffffff0000000000000000ffffffff1916600160601b63ffffffff8d81169190910263ffffffff1916919091174291909116179055609e5460405163805deb5360e01b8152600481018e905291169063805deb5390602401602060405180830381600087803b158015612ade57600080fd5b505af1158015612af2573d6000803e3d6000fd5b505050506040513d601f19601f82011682018060405250810190612b169190614c73565b600b8201805463ffffffff9290921665ffffffffffff1990921691909117600160201b61ffff8b1602179055609e546040516311bed5bb60e01b8152600481018d90526001600160a01b03909116906311bed5bb90602401602060405180830381600087803b158015612b8857600080fd5b505af1158015612b9c573d6000803e3d6000fd5b505050506040513d601f19601f82011682018060405250810190612bc09190614c73565b609754600090815260a1602052604090819020805463ffffffff191663ffffffff9390931692909217909155609e54905163082fc54d60e01b8152600481018d90526001600160a01b039091169063082fc54d90602401602060405180830381600087803b158015612c3157600080fd5b505af1158015612c45573d6000803e3d6000fd5b505050506040513d601f19601f82011682018060405250810190612c699190614c73565b609754600090815260a2602052604090819020805463ffffffff191663ffffffff9390931692909217909155609e54905163d6e794dd60e01b8152600481018d90526001600160a01b039091169063d6e794dd9060240160206040518083038186803b158015612cd857600080fd5b505afa158015612cec573d6000803e3d6000fd5b505050506040513d601f19601f82011682018060405250810190612d109190614c90565b600c8201805461ff001916610100836001811115612d3057612d306145ac565b0217905550600c810154600b820154612d5c91610100900460ff16908c908c9063ffffffff168c613943565b600a820155609754600090815260a660205260409020612d7d9088886141bb565b50600c8101805460ff19166001179055604051612da09088908890602001614cb1565b60408051808303601f19018152908290528051602091820120835460975460018601546001600160a01b0390811686529294929091169290917ff887b1f393f43fb94c5d50483df4bd410ffbf286128c5f24ff56c580ac7f731c910160405180910390a480546001600160a01b03166000908152609960209081526040822060978054825460018101845592855292842090910191909155805491612e4483614b8f565b919050555050505098975050505050505050565b60068201546007830154600b840154600a85015460009384938493612eca9361ffff600160201b8304169163ffffffff16612e928b613589565b60098c0154600c8d015463ffffffff928316928d92600160201b8104821692600160601b90910490911690610100900460ff166139af565b9250925092509250925092565b6000611057613ab0565b6001600160a01b03811660009081526001830160205260408120541515610e65565b60408051808201909152600981526818d85b98d95b109a5960ba1b6020820152819060016000838152609860205260409020600c015460ff166005811115612f4d57612f4d6145ac565b14612f6f5781816040516347bc33cb60e11b8152600401610dab929190614bc1565b600083815260986020526040808220600c01805460ff191660021790555184917fa0633b09ac3029a6746aa27d4db1407f5f287a10c41a6b2ad2859f4da9b2680b91a2505050565b6000610e65836001600160a01b038416613af5565b612fd4612ed7565b6001600160a01b0316612fef6033546001600160a01b031690565b6001600160a01b0316146113e45760405162461bcd60e51b815260206004820181905260248201527f4f776e61626c653a2063616c6c6572206973206e6f7420746865206f776e65726044820152606401610dab565b603380546001600160a01b038381166001600160a01b0319831681179093556040519116919082907f8be0079c531659141344cd1fd0a4f28419497f9722a3daafe3b4186f6b6457e090600090a35050565b600083815260986020908152604082209084015184519192916130ba9190614b13565b609f54835460405163c7312e4760e01b81526001600160a01b0391821660048201526024810189905292935060009291169063c7312e4790604401602060405180830381600087803b15801561310f57600080fd5b505af1158015613123573d6000803e3d6000fd5b505050506040513d601f19601f820116820180604052508101906131479190614cc1565b905083821061321457600c8301805460ff1916600417905582546001600160a01b0316600090815260a0602052604090208492506131859087613b44565b5060aa54604051632e1a7d4d60e01b8152600481018890526001600160a01b0390911690632e1a7d4d90602401600060405180830381600087803b1580156131cc57600080fd5b505af11580156131e0573d6000803e3d6000fd5b50506040518892507f9a7851747cd7ffb3fe0a32caf3da48b31f27cebe131267051640f8b72fc471869150600090a2613240565b60405186907f68ca97895fe2d09eab47e752271728ade667e72dda27e68c20eaa191a9c2187d90600090a25b61326e6132508460030154613370565b600285015460058601546001600160a01b03908116929116856135f6565b8451600784018054600090613284908490614b13565b909155505060208501516008840180546000906132a2908490614b13565b909155505060098301805463ffffffff60401b1916600160401b4263ffffffff160217905560008160028111156132db576132db6145ac565b146124d357609f54835460405163c7312e4760e01b81526001600160a01b0391821660048201526024810189905291169063c7312e4790604401602060405180830381600087803b15801561332f57600080fd5b505af1158015613343573d6000803e3d6000fd5b505050506040513d601f19601f820116820180604052508101906133679190614cc1565b50505050505050565b600061337e82610a00612ed7565b156134135760131936013560601c6133bb8160a8600061339c612ed7565b6001600160a01b03168152602081019190915260400160002090612ee1565b610a985760405162461bcd60e51b8152602060048201526024808201527f53656e646572206d75737420617070726f7665206d61726b657420666f727761604482015263393232b960e11b6064820152608401610dab565b610a98612ed7565b600054610100900460ff166134425760405162461bcd60e51b8152600401610dab90614cde565b61344a613b50565b611b6681613b7f565b600054610100900460ff1661347a5760405162461bcd60e51b8152600401610dab90614cde565b6113e4613baf565b600054610100900460ff166134a95760405162461bcd60e51b8152600401610dab90614cde565b60aa546001600160a01b0316156135025760405162461bcd60e51b815260206004820152601e60248201527f436f6c6c61746572616c204d616e6167657220616c72656164792073657400006044820152606401610dab565b6001600160a01b0381163b6135675760405162461bcd60e51b815260206004820152602560248201527f436f6c6c61746572616c204d616e61676572206d757374206265206120636f6e6044820152641d1c9858dd60da1b6064820152608401610dab565b60aa80546001600160a01b0319166001600160a01b0392909216919091179055565b6009810154600090600160401b900463ffffffff16156135ba576009820154600160401b900463ffffffff16610a98565b5060090154600160201b900463ffffffff1690565b6000610e65836001600160a01b038416613be4565b6000610e65838361ffff166002613cd7565b604080516001600160a01b0385811660248301528416604482015260648082018490528251808303909101815260849091019091526020810180516001600160e01b03166323b872dd60e01b179052613650908590613cf6565b50505050565b6000610e658383613af5565b60606000613671836002614d29565b61367c906002614b13565b67ffffffffffffffff81111561369457613694614d48565b6040519080825280601f01601f1916602001820160405280156136be576020820181803683370190505b509050600360fc1b816000815181106136d9576136d9614b79565b60200101906001600160f81b031916908160001a905350600f60fb1b8160018151811061370857613708614b79565b60200101906001600160f81b031916908160001a905350600061372c846002614d29565b613737906001614b13565b90505b60018111156137af576f181899199a1a9b1b9c1cb0b131b232b360811b85600f166010811061376b5761376b614b79565b1a60f81b82828151811061378157613781614b79565b60200101906001600160f81b031916908160001a90535060049490941c936137a881614d5e565b905061373a565b508315610e655760405162461bcd60e51b815260206004820181905260248201527f537472696e67733a20686578206c656e67746820696e73756666696369656e746044820152606401610dab565b61380661279c565b6065805462ff00001916620100001790557f62e78cea01bee320cd4e420270b5ea74000d11b0c9f74754ebdbfc544b05a258613840612ed7565b6040516001600160a01b03909116815260200160405180910390a1565b60655462010000900460ff166113e45760405162461bcd60e51b815260206004820152601460248201527314185d5cd8589b194e881b9bdd081c185d5cd95960621b6044820152606401610dab565b6138b461385d565b6065805462ff0000191690557f5db9ee0a495bf2e6ff9c91a7834c1ba4fdd244a5e8aa4e537bd38aeae4b073aa613840612ed7565b606081600001805480602002602001604051908101604052809291908181526020018280548015610ecc5760200282019190600052602060002090815481526020019060010190808311610eb85750505050509050919050565b60006001866001811115613959576139596145ac565b14156139975761399061397d63ffffffff808616906301e1338090600a90613dcd16565b600a61398988866135e4565b9190613cd7565b90506139a6565b6139a385858585613df0565b90505b95945050505050565b600080806139bd8c8e614baa565b925060006139cb848d6135e4565b905060006139d98a8a614baa565b90506301e133806139ea8284614d29565b6139f49190614d75565b92506000613a02898b614d89565b613a0c9089614d89565b905060008c821280613a2757508d613a248689614b13565b11155b90506001886001811115613a3d57613a3d6145ac565b1415613a52578015613a4d578695505b613a9c565b600081613a5f578e613a69565b613a698689614b13565b905060008e613a788684614d29565b613a829190614d75565b9050613a97613a918883614baa565b8a613ea7565b975050505b505050509a509a509a975050505050505050565b60007f00000000000000000000000000000000000000000000000000000000000000006001600160a01b0316331415613af0575060131936013560601c90565b503390565b6000818152600183016020526040812054613b3c57508154600181810184556000848152602080822090930184905584548482528286019093526040902091909155610a98565b506000610a98565b6000610e658383613be4565b600054610100900460ff16613b775760405162461bcd60e51b8152600401610dab90614cde565b6113e4613ebd565b600054610100900460ff16613ba65760405162461bcd60e51b8152600401610dab90614cde565b611b6681612608565b600054610100900460ff16613bd65760405162461bcd60e51b8152600401610dab90614cde565b6065805462ff000019169055565b60008181526001830160205260408120548015613ccd576000613c08600183614baa565b8554909150600090613c1c90600190614baa565b9050818114613c81576000866000018281548110613c3c57613c3c614b79565b9060005260206000200154905080876000018481548110613c5f57613c5f614b79565b6000918252602080832090910192909255918252600188019052604090208390555b8554869080613c9257613c92614dc8565b600190038181906000526020600020016000905590558560010160008681526020019081526020016000206000905560019350505050610a98565b6000915050610a98565b6000613ce282613ef4565b613cec8486614d29565b610e629190614d75565b6000613d4b826040518060400160405280602081526020017f5361666545524332303a206c6f772d6c6576656c2063616c6c206661696c6564815250856001600160a01b0316613f0c9092919063ffffffff16565b805190915015613dc85780806020019051810190613d699190614aa9565b613dc85760405162461bcd60e51b815260206004820152602a60248201527f5361666545524332303a204552433230206f7065726174696f6e20646964206e6044820152691bdd081cdd58d8d9595960b21b6064820152608401610dab565b505050565b600082613ddc57506000610e65565b82613de683613ef4565b613cec9086614d29565b600080613dfd84866149ac565b63ffffffff16905061ffff8316613e2057613e188187614d75565b915050613e9f565b670de0b6b3a76400006000613e526301e13380613e4c63ffffffff8916613e4689613f1b565b90613f3f565b90613f73565b90506000613e6a84613e648486614b13565b90613fa3565b90506000613e7c82613e468c86613f3f565b90506000613e8a8584614baa565b9050613e968282613f73565b96505050505050505b949350505050565b6000818310613eb65781610e65565b5090919050565b600054610100900460ff16613ee45760405162461bcd60e51b8152600401610dab90614cde565b6113e4613eef612ed7565b613045565b6000613f0182600a614ec2565b610a98906064614d29565b6060610e628484600085613fbb565b6000610a98612710613f3961ffff8516670de0b6b3a76400006140ec565b906140f8565b6000610e65670de0b6b3a7640000613f39613f5a86866140ec565b613f6d6002670de0b6b3a7640000614d75565b90614104565b600080613f81600284614d75565b9050613e9f83613f39613f9c87670de0b6b3a76400006140ec565b8490614104565b6000610e658383670de0b6b3a7640000613f3f614110565b60608247101561401c5760405162461bcd60e51b815260206004820152602660248201527f416464726573733a20696e73756666696369656e742062616c616e636520666f6044820152651c8818d85b1b60d21b6064820152608401610dab565b6001600160a01b0385163b6140735760405162461bcd60e51b815260206004820152601d60248201527f416464726573733a2063616c6c20746f206e6f6e2d636f6e74726163740000006044820152606401610dab565b600080866001600160a01b0316858760405161408f9190614c57565b60006040518083038185875af1925050503d80600081146140cc576040519150601f19603f3d011682016040523d82523d6000602084013e6140d1565b606091505b50915091506140e1828286614182565b979650505050505050565b6000610e658284614d29565b6000610e658284614d75565b6000610e658284614b13565b600061411d600285614ece565b6141275782614129565b845b9050614136600285614d75565b93505b8315613e9f5761414d85868463ffffffff16565b945061415a600285614ece565b156141705761416d81868463ffffffff16565b90505b61417b600285614d75565b9350614139565b60608315614191575081610e65565b8251156141a15782518084602001fd5b8160405162461bcd60e51b8152600401610dab91906144c5565b8280546141c790614919565b90600052602060002090601f0160209004810192826141e9576000855561422f565b82601f106142025782800160ff1982351617855561422f565b8280016001018555821561422f579182015b8281111561422f578235825591602001919060010190614214565b5061423b92915061423f565b5090565b5b8082111561423b5760008155600101614240565b6001600160a01b0381168114611b6657600080fd5b803561241b81614254565b60006020828403121561428657600080fd5b8135610e6581614254565b6020808252825182820181905260009190848201906040850190845b818110156142c9578351835292840192918401916001016142ad565b50909695505050505050565b63ffffffff81168114611b6657600080fd5b61ffff81168114611b6657600080fd5b60008083601f84011261430957600080fd5b50813567ffffffffffffffff81111561432157600080fd5b60208301915083602082850101111561433957600080fd5b9250929050565b60008060008060008060008060e0898b03121561435c57600080fd5b883561436781614254565b975060208901359650604089013595506060890135614385816142d5565b94506080890135614395816142e7565b935060a089013567ffffffffffffffff8111156143b157600080fd5b6143bd8b828c016142f7565b90945092505060c08901356143d181614254565b809150509295985092959890939650565b600080604083850312156143f557600080fd5b823561440081614254565b9150602083013561441081614254565b809150509250929050565b60006020828403121561442d57600080fd5b5035919050565b6000806040838503121561444757600080fd5b50508035926020909101359150565b815181526020808301519082015260408101610a98565b60005b83811015614488578181015183820152602001614470565b838111156136505750506000910152565b600081518084526144b181602086016020860161446d565b601f01601f19169290920160200192915050565b602081526000610e656020830184614499565b600080604083850312156144eb57600080fd5b82359150602083013561441081614254565b60008060006060848603121561451257600080fd5b83359250602084013561452481614254565b9150604084013561453481614254565b809150509250925092565b6020808252825182820181905260009190848201906040850190845b818110156142c95783516001600160a01b03168352928401929184019160010161455b565b6000806040838503121561459357600080fd5b823561459e81614254565b946020939093013593505050565b634e487b7160e01b600052602160045260246000fd5b600681106145d2576145d26145ac565b9052565b600281106145d2576145d26145ac565b60006102408201905060018060a01b03808c168352808b166020840152808a1660408401528860608401528760808401528087511660a084015250602086015160c0830152604086015161464760e084018280518252602090810151910152565b50606086015163ffffffff9081166101208401526080870151811661014084015260a08701511661016083015260c086015161468c61018084018263ffffffff169052565b5084516101a0830152602085015163ffffffff166101c0830152604085015161ffff166101e08301526146c36102008301856145c2565b6146d16102208301846145d6565b9a9950505050505050505050565b6000806000806000806000806000806101008b8d0312156146ff57600080fd5b8a3561470a81614254565b995060208b0135985060408b0135975060608b0135614728816142d5565b965060808b0135614738816142e7565b955060a08b013567ffffffffffffffff8082111561475557600080fd5b6147618e838f016142f7565b909750955060c08d0135915061477682614254565b90935060e08c0135908082111561478c57600080fd5b818d0191508d601f8301126147a057600080fd5b8135818111156147af57600080fd5b8e60208260071b85010111156147c457600080fd5b6020830194508093505050509295989b9194979a5092959850565b600080600080600080600060c0888a0312156147fa57600080fd5b8735614805816142e7565b9650602088013561481581614254565b9550604088013561482581614254565b9450606088013561483581614254565b9350608088013567ffffffffffffffff8082111561485257600080fd5b818a0191508a601f83011261486657600080fd5b81358181111561487557600080fd5b8b60208260051b850101111561488a57600080fd5b6020830195508094505050506148a260a08901614269565b905092959891949750929550565b60208101610a9882846145c2565b6000602082840312156148d057600080fd5b8135610e65816142e7565b634e487b7160e01b600052601160045260246000fd5b600063ffffffff808316818516808303821115614910576149106148db565b01949350505050565b600181811c9082168061492d57607f821691505b6020821081141561494e57634e487b7160e01b600052602260045260246000fd5b50919050565b60006020828403121561496657600080fd5b8151610e6581614254565b600063ffffffff8381169083168181101561498e5761498e6148db565b039392505050565b634e487b7160e01b600052601260045260246000fd5b600063ffffffff808416806149c3576149c3614996565b92169190910492915050565b600063ffffffff808316818516818304811182151516156149f2576149f26148db565b02949350505050565b60038110611b6657600080fd5b838152604060208083018290528282018490526000919060609081850187855b88811015614a8a578135614a3b816149fb565b60038110614a4b57614a4b6145ac565b83528184013584840152858201358684015284820135614a6a81614254565b6001600160a01b0316838601526080928301929190910190600101614a28565b50909998505050505050505050565b8051801515811461241b57600080fd5b600060208284031215614abb57600080fd5b610e6582614a99565b828152606060208201526000614add6060830184614499565b8281036040938401526015815274131bd85b881b5d5cdd081899481858d8d95c1d1959605a1b6020820152919091019392505050565b60008219821115614b2657614b266148db565b500190565b6020808252602e908201527f496e697469616c697a61626c653a20636f6e747261637420697320616c72656160408201526d191e481a5b9a5d1a585b1a5e995960921b606082015260800190565b634e487b7160e01b600052603260045260246000fd5b6000600019821415614ba357614ba36148db565b5060010190565b600082821015614bbc57614bbc6148db565b500390565b828152606060208201526000614bda6060830184614499565b8281036040938401526013815272426964206d7573742062652070656e64696e6760681b6020820152919091019392505050565b60008060408385031215614c2157600080fd5b614c2a83614a99565b9150602083015190509250929050565b600060208284031215614c4c57600080fd5b8151610e65816142e7565b60008251614c6981846020870161446d565b9190910192915050565b600060208284031215614c8557600080fd5b8151610e65816142d5565b600060208284031215614ca257600080fd5b815160028110610e6557600080fd5b8183823760009101908152919050565b600060208284031215614cd357600080fd5b8151610e65816149fb565b6020808252602b908201527f496e697469616c697a61626c653a20636f6e7472616374206973206e6f74206960408201526a6e697469616c697a696e6760a81b606082015260800190565b6000816000190483118215151615614d4357614d436148db565b500290565b634e487b7160e01b600052604160045260246000fd5b600081614d6d57614d6d6148db565b506000190190565b600082614d8457614d84614996565b500490565b60008083128015600160ff1b850184121615614da757614da76148db565b6001600160ff1b0384018313811615614dc257614dc26148db565b50500390565b634e487b7160e01b600052603160045260246000fd5b600181815b80851115614e19578160001904821115614dff57614dff6148db565b80851615614e0c57918102915b93841c9390800290614de3565b509250929050565b600082614e3057506001610a98565b81614e3d57506000610a98565b8160018114614e535760028114614e5d57614e79565b6001915050610a98565b60ff841115614e6e57614e6e6148db565b50506001821b610a98565b5060208310610133831016604e8410600b8410161715614e9c575081810a610a98565b614ea68383614dde565b8060001904821115614eba57614eba6148db565b029392505050565b6000610e658383614e21565b600082614edd57614edd614996565b50069056fea264697066735822122034e3c87705f782dafaf54cf16b68fbfb1cf5b2d9b4d35f1e590e09d75a716ce964736f6c63430008090033",
  "devdoc": {
    "errors": {
      "ActionNotAllowed(uint256,string,string)": [
        {
          "params": {
            "action": "The action string (i.e: 'repayLoan', 'cancelBid', 'etc)",
            "bidId": "The id of the bid.",
            "message": "The message string to return to the user explaining why the tx was reverted"
          }
        }
      ],
      "PaymentNotMinimum(uint256,uint256,uint256)": [
        {
          "params": {
            "bidId": "The id of the bid the borrower is attempting to repay.",
            "minimumOwed": "The minimum owed value",
            "payment": "The payment made by the borrower"
          }
        }
      ]
    },
    "events": {
      "AcceptedBid(uint256,address)": {
        "params": {
          "bidId": "The id of the bid accepted.",
          "lender": "The address of the accepted bid lender."
        }
      },
      "CancelledBid(uint256)": {
        "params": {
          "bidId": "The id of the cancelled bid."
        }
      },
      "FeePaid(uint256,string,uint256)": {
        "params": {
          "amount": "The amount of the fee being paid.",
          "bidId": "The id of the bid.",
          "feeType": "The name of the fee being paid."
        }
      },
      "LoanLiquidated(uint256,address)": {
        "params": {
          "bidId": "The id of the bid/loan which was repaid."
        }
      },
      "LoanRepaid(uint256)": {
        "params": {
          "bidId": "The id of the bid/loan which was repaid."
        }
      },
      "LoanRepayment(uint256)": {
        "params": {
          "bidId": "The id of the bid/loan to which the payment was made."
        }
      },
      "MarketOwnerCancelledBid(uint256)": {
        "params": {
          "bidId": "The id of the bid funded. Note: The `CancelledBid` event will also be emitted."
        }
      },
      "SubmittedBid(uint256,address,address,bytes32)": {
        "params": {
          "bidId": "The id of the bid submitted.",
          "borrower": "The address of the bid borrower.",
          "metadataURI": "URI for additional bid information as part of loan bid."
        }
      }
    },
    "kind": "dev",
    "methods": {
      "addLendingToken(address)": {
        "params": {
          "_lendingToken": "The contract address of the lending token."
        }
      },
      "approveMarketForwarder(uint256,address)": {
        "params": {
          "_forwarder": "A forwarder contract address.",
          "_marketId": "An ID for a lending market."
        }
      },
      "calculateAmountDue(uint256)": {
        "params": {
          "_bidId": "The id of the loan bid to get the payment amount for."
        }
      },
      "calculateAmountDue(uint256,uint256)": {
        "params": {
          "_bidId": "The id of the loan bid to get the payment amount for.",
          "_timestamp": "The timestamp at which to get the due payment at."
        }
      },
      "calculateAmountOwed(uint256)": {
        "params": {
          "_bidId": "The id of the loan bid to calculate the owed amount for."
        }
      },
      "calculateAmountOwed(uint256,uint256)": {
        "params": {
          "_bidId": "The id of the loan bid to calculate the owed amount for.",
          "_timestamp": "The timestamp at which to calculate the loan owed amount at."
        }
      },
      "calculateNextDueDate(uint256)": {
        "params": {
          "_bidId": "The id of the loan bid."
        }
      },
      "cancelBid(uint256)": {
        "params": {
          "_bidId": "The id of the bid to cancel."
        }
      },
      "getLoanBorrower(uint256)": {
        "params": {
          "_bidId": "The id of the bid/loan to get the borrower for."
        },
        "returns": {
          "borrower_": "The address of the borrower associated with the bid."
        }
      },
      "getLoanLender(uint256)": {
        "params": {
          "_bidId": "The id of the bid/loan to get the lender for."
        },
        "returns": {
          "lender_": "The address of the lender associated with the bid."
        }
      },
      "getMetadataURI(uint256)": {
        "params": {
          "_bidId": "The id of the bid to return the metadataURI for"
        },
        "returns": {
          "metadataURI_": "The metadataURI for the bid, as a string."
        }
      },
      "hasApprovedMarketForwarder(uint256,address,address)": {
        "params": {
          "_account": "The address to verify set an approval.",
          "_forwarder": "A forwarder contract address.",
          "_marketId": "An ID for a lending market."
        },
        "returns": {
          "_0": "A boolean indicating if an approval was set."
        }
      },
      "initialize(uint16,address,address,address,address[],address)": {
        "params": {
          "_collateralManagerAddress": "The address of the collateral manager contracts.",
          "_lendingTokens": "The list of tokens allowed as lending assets on the protocol.",
          "_protocolFee": "The fee collected by the protocol for loan processing."
        }
      },
      "isLoanDefaulted(uint256)": {
        "params": {
          "_bidId": "The id of the loan bid to check for."
        }
      },
      "isLoanExpired(uint256)": {
        "params": {
          "_bidId": "The id of the loan bid to check for."
        }
      },
      "isPaymentLate(uint256)": {
        "params": {
          "_bidId": "The id of the loan bid to check for."
        }
      },
      "isTrustedMarketForwarder(uint256,address)": {
        "params": {
          "_marketId": "An ID for a lending market.",
          "_trustedMarketForwarder": "An address to check if is a trusted forwarder in the given market."
        },
        "returns": {
          "_0": "A boolean indicating the forwarder address is trusted in a market."
        }
      },
      "lastRepaidTimestamp(uint256)": {
        "params": {
          "_bidId": "The id of the loan bid to get the timestamp for."
        }
      },
      "lenderAcceptBid(uint256)": {
        "params": {
          "_bidId": "The id of the loan bid to accept."
        }
      },
      "liquidateLoanFull(uint256)": {
        "params": {
          "_bidId": "The id of the loan to make the payment towards."
        }
      },
      "marketOwnerCancelBid(uint256)": {
        "params": {
          "_bidId": "The id of the bid to cancel."
        }
      },
      "owner()": {
        "details": "Returns the address of the current owner."
      },
      "paused()": {
        "details": "Returns true if the contract is paused, and false otherwise."
      },
      "removeLendingToken(address)": {
        "params": {
          "_lendingToken": "The contract address of the lending token."
        }
      },
      "renounceOwnership()": {
        "details": "Leaves the contract without owner. It will not be possible to call `onlyOwner` functions anymore. Can only be called by the current owner. NOTE: Renouncing ownership will leave the contract without an owner, thereby removing any functionality that is only available to the owner."
      },
      "repayLoan(uint256,uint256)": {
        "params": {
          "_amount": "The amount of the payment.",
          "_bidId": "The id of the loan to make the payment towards."
        }
      },
      "repayLoanFull(uint256)": {
        "params": {
          "_bidId": "The id of the loan to make the payment towards."
        }
      },
      "repayLoanMinimum(uint256)": {
        "params": {
          "_bidId": "The id of the loan to make the payment towards."
        }
      },
      "setProtocolFee(uint16)": {
        "params": {
          "newFee": "The new protocol fee to be set."
        }
      },
      "setReputationManager(address)": {
        "params": {
          "_reputationManager": "The new contract address."
        }
      },
      "setTrustedMarketForwarder(uint256,address)": {
        "params": {
          "_forwarder": "A forwarder contract address.",
          "_marketId": "An ID for a lending market."
        }
      },
      "submitBid(address,uint256,uint256,uint32,uint16,string,address)": {
        "params": {
          "_APR": "The proposed interest rate for the loan bid.",
          "_duration": "The recurrent length of time before which a payment is due.",
          "_lendingToken": "The lending token asset requested to be borrowed.",
          "_marketplaceId": "The unique id of the marketplace for the bid.",
          "_metadataURI": "The URI for additional borrower loan information as part of loan bid.",
          "_principal": "The principal amount of the loan bid.",
          "_receiver": "The address where the loan amount will be sent to."
        }
      },
      "submitBid(address,uint256,uint256,uint32,uint16,string,address,(uint8,uint256,uint256,address)[])": {
        "params": {
          "_APR": "The proposed interest rate for the loan bid.",
          "_collateralInfo": "Additional information about the collateral asset.",
          "_duration": "The recurrent length of time before which a payment is due.",
          "_lendingToken": "The lending token asset requested to be borrowed.",
          "_marketplaceId": "The unique id of the marketplace for the bid.",
          "_metadataURI": "The URI for additional borrower loan information as part of loan bid.",
          "_principal": "The principal amount of the loan bid.",
          "_receiver": "The address where the loan amount will be sent to."
        }
      },
      "transferOwnership(address)": {
        "details": "Transfers ownership of the contract to a new account (`newOwner`). Can only be called by the current owner."
      }
    },
    "version": 1
  },
  "userdoc": {
    "errors": {
      "ActionNotAllowed(uint256,string,string)": [
        {
          "notice": "This error is reverted when the action isn't allowed"
        }
      ],
      "PaymentNotMinimum(uint256,uint256,uint256)": [
        {
          "notice": "This error is reverted when repayment amount is less than the required minimum"
        }
      ]
    },
    "events": {
      "AcceptedBid(uint256,address)": {
        "notice": "This event is emitted when a bid has been accepted by a lender."
      },
      "CancelledBid(uint256)": {
        "notice": "This event is emitted when a previously submitted bid has been cancelled."
      },
      "FeePaid(uint256,string,uint256)": {
        "notice": "This event is emitted when a fee has been paid related to a bid."
      },
      "LoanLiquidated(uint256,address)": {
        "notice": "This event is emitted when a loan has been fully repaid."
      },
      "LoanRepaid(uint256)": {
        "notice": "This event is emitted when a loan has been fully repaid."
      },
      "LoanRepayment(uint256)": {
        "notice": "This event is emitted when a payment is made towards an active loan."
      },
      "MarketOwnerCancelledBid(uint256)": {
        "notice": "This event is emitted when market owner has cancelled a pending bid in their market."
      },
      "ProtocolFeeSet(uint16,uint16)": {
        "notice": "This event is emitted when the protocol fee has been updated."
      },
      "SubmittedBid(uint256,address,address,bytes32)": {
        "notice": "This event is emitted when a new bid is submitted."
      }
    },
    "kind": "user",
    "methods": {
      "CURRENT_CODE_VERSION()": {
        "notice": "Constant Variables *"
      },
      "addLendingToken(address)": {
        "notice": "Lets the DAO/owner of the protocol add an authorized lending token."
      },
      "approveMarketForwarder(uint256,address)": {
        "notice": "Approves a forwarder contract to use their address as a sender for a specific market.The forwarder given must be trusted by the market given."
      },
      "bidId()": {
        "notice": "Storage Variables "
      },
      "calculateAmountDue(uint256)": {
        "notice": "Calculates the minimum payment amount due for a loan."
      },
      "calculateAmountDue(uint256,uint256)": {
        "notice": "Calculates the minimum payment amount due for a loan at a specific timestamp."
      },
      "calculateAmountOwed(uint256)": {
        "notice": "Calculates the total amount owed for a bid."
      },
      "calculateAmountOwed(uint256,uint256)": {
        "notice": "Calculates the total amount owed for a loan bid at a specific timestamp."
      },
      "calculateNextDueDate(uint256)": {
        "notice": "Returns the next due date for a loan payment."
      },
      "cancelBid(uint256)": {
        "notice": "Function for a borrower to cancel their pending bid."
      },
      "constructor": {
        "notice": "Constructor *"
      },
      "getLendingTokens()": {
        "notice": "Returns the list of authorized tokens on the protocol."
      },
      "getLoanBorrower(uint256)": {
        "notice": "Returns the borrower address for a given bid."
      },
      "getLoanLender(uint256)": {
        "notice": "Returns the lender address for a given bid."
      },
      "getMetadataURI(uint256)": {
        "notice": "Gets the metadataURI for a bidId."
      },
      "hasApprovedMarketForwarder(uint256,address,address)": {
        "notice": "Checks if an account has approved a forwarder for a market."
      },
      "initialize(uint16,address,address,address,address[],address)": {
        "notice": "Initializes the proxy."
      },
      "isLoanDefaulted(uint256)": {
        "notice": "Checks to see if a borrower is delinquent."
      },
      "isLoanExpired(uint256)": {
        "notice": "Checks to see if a pending loan has expired so it is no longer able to be accepted."
      },
      "isPaymentLate(uint256)": {
        "notice": "Checks to see if a borrower is delinquent."
      },
      "isTrustedMarketForwarder(uint256,address)": {
        "notice": "Checks if an address is a trusted forwarder contract for a given market."
      },
      "lastRepaidTimestamp(uint256)": {
        "notice": "Returns the last repaid timestamp for a loan."
      },
      "lenderAcceptBid(uint256)": {
        "notice": "Function for a lender to accept a proposed loan bid."
      },
      "liquidateLoanFull(uint256)": {
        "notice": "Function for users to liquidate a defaulted loan."
      },
      "marketOwnerCancelBid(uint256)": {
        "notice": "Function for a market owner to cancel a bid in the market."
      },
      "pauseProtocol()": {
        "notice": "Lets the DAO/owner of the protocol implement an emergency stop mechanism."
      },
      "protocolFee()": {
        "notice": "Returns the current protocol fee."
      },
      "removeLendingToken(address)": {
        "notice": "Lets the DAO/owner of the protocol remove an authorized lending token."
      },
      "repayLoan(uint256,uint256)": {
        "notice": "Function for users to make a payment towards an active loan."
      },
      "repayLoanFull(uint256)": {
        "notice": "Function for users to repay an active loan in full."
      },
      "repayLoanMinimum(uint256)": {
        "notice": "Function for users to make the minimum amount due for an active loan."
      },
      "setProtocolFee(uint16)": {
        "notice": "Lets the DAO/owner of the protocol to set a new protocol fee."
      },
      "setReputationManager(address)": {
        "notice": "Lets the DAO/owner of the protocol to set a new reputation manager contract."
      },
      "setTrustedMarketForwarder(uint256,address)": {
        "notice": "Sets a trusted forwarder for a lending market.The caller must owner the market given. See {MarketRegistry}"
      },
      "submitBid(address,uint256,uint256,uint32,uint16,string,address)": {
        "notice": "Function for a borrower to create a bid for a loan without Collateral."
      },
      "submitBid(address,uint256,uint256,uint32,uint16,string,address,(uint8,uint256,uint256,address)[])": {
        "notice": "Function for a borrower to create a bid for a loan with Collateral."
      },
      "unpauseProtocol()": {
        "notice": "Lets the DAO/owner of the protocol undo a previously implemented emergency stop."
      }
    },
    "version": 1
  },
  "storageLayout": {
    "storage": [
      {
        "astId": 1625,
        "contract": "contracts/TellerV2.sol:TellerV2",
        "label": "_initialized",
        "offset": 0,
        "slot": "0",
        "type": "t_uint8"
      },
      {
        "astId": 1628,
        "contract": "contracts/TellerV2.sol:TellerV2",
        "label": "_initializing",
        "offset": 1,
        "slot": "0",
        "type": "t_bool"
      },
      {
        "astId": 2831,
        "contract": "contracts/TellerV2.sol:TellerV2",
        "label": "__gap",
        "offset": 0,
        "slot": "1",
        "type": "t_array(t_uint256)50_storage"
      },
      {
        "astId": 1309,
        "contract": "contracts/TellerV2.sol:TellerV2",
        "label": "_owner",
        "offset": 0,
        "slot": "51",
        "type": "t_address"
      },
      {
        "astId": 1429,
        "contract": "contracts/TellerV2.sol:TellerV2",
        "label": "__gap",
        "offset": 0,
        "slot": "52",
        "type": "t_array(t_uint256)49_storage"
      },
      {
        "astId": 17071,
        "contract": "contracts/TellerV2.sol:TellerV2",
        "label": "_protocolFee",
        "offset": 0,
        "slot": "101",
        "type": "t_uint16"
      },
      {
        "astId": 1790,
        "contract": "contracts/TellerV2.sol:TellerV2",
        "label": "_paused",
        "offset": 2,
        "slot": "101",
        "type": "t_bool"
      },
      {
        "astId": 1895,
        "contract": "contracts/TellerV2.sol:TellerV2",
        "label": "__gap",
        "offset": 0,
        "slot": "102",
        "type": "t_array(t_uint256)49_storage"
      },
      {
        "astId": 20553,
        "contract": "contracts/TellerV2.sol:TellerV2",
        "label": "bidId",
        "offset": 0,
        "slot": "151",
        "type": "t_uint256"
      },
      {
        "astId": 20558,
        "contract": "contracts/TellerV2.sol:TellerV2",
        "label": "bids",
        "offset": 0,
        "slot": "152",
        "type": "t_mapping(t_uint256,t_struct(Bid)20525_storage)"
      },
      {
        "astId": 20563,
        "contract": "contracts/TellerV2.sol:TellerV2",
        "label": "borrowerBids",
        "offset": 0,
        "slot": "153",
        "type": "t_mapping(t_address,t_array(t_uint256)dyn_storage)"
      },
      {
        "astId": 20567,
        "contract": "contracts/TellerV2.sol:TellerV2",
        "label": "_lenderVolumeFilled",
        "offset": 0,
        "slot": "154",
        "type": "t_mapping(t_address,t_uint256)"
      },
      {
        "astId": 20569,
        "contract": "contracts/TellerV2.sol:TellerV2",
        "label": "_totalVolumeFilled",
        "offset": 0,
        "slot": "155",
        "type": "t_uint256"
      },
      {
        "astId": 20572,
        "contract": "contracts/TellerV2.sol:TellerV2",
        "label": "lendingTokensSet",
        "offset": 0,
        "slot": "156",
        "type": "t_struct(AddressSet)12082_storage"
      },
      {
        "astId": 20575,
        "contract": "contracts/TellerV2.sol:TellerV2",
        "label": "marketRegistry",
        "offset": 0,
        "slot": "158",
        "type": "t_contract(IMarketRegistry)21724"
      },
      {
        "astId": 20578,
        "contract": "contracts/TellerV2.sol:TellerV2",
        "label": "reputationManager",
        "offset": 0,
        "slot": "159",
        "type": "t_contract(IReputationManager)21783"
      },
      {
        "astId": 20583,
        "contract": "contracts/TellerV2.sol:TellerV2",
        "label": "_borrowerBidsActive",
        "offset": 0,
        "slot": "160",
        "type": "t_mapping(t_address,t_struct(UintSet)12239_storage)"
      },
      {
        "astId": 20587,
        "contract": "contracts/TellerV2.sol:TellerV2",
        "label": "bidDefaultDuration",
        "offset": 0,
        "slot": "161",
        "type": "t_mapping(t_uint256,t_uint32)"
      },
      {
        "astId": 20591,
        "contract": "contracts/TellerV2.sol:TellerV2",
        "label": "bidExpirationTime",
        "offset": 0,
        "slot": "162",
        "type": "t_mapping(t_uint256,t_uint32)"
      },
      {
        "astId": 20597,
        "contract": "contracts/TellerV2.sol:TellerV2",
        "label": "lenderVolumeFilled",
        "offset": 0,
        "slot": "163",
        "type": "t_mapping(t_address,t_mapping(t_address,t_uint256))"
      },
      {
        "astId": 20601,
        "contract": "contracts/TellerV2.sol:TellerV2",
        "label": "totalVolumeFilled",
        "offset": 0,
        "slot": "164",
        "type": "t_mapping(t_address,t_uint256)"
      },
      {
        "astId": 20603,
        "contract": "contracts/TellerV2.sol:TellerV2",
        "label": "version",
        "offset": 0,
        "slot": "165",
        "type": "t_uint256"
      },
      {
        "astId": 20607,
        "contract": "contracts/TellerV2.sol:TellerV2",
        "label": "uris",
        "offset": 0,
        "slot": "166",
        "type": "t_mapping(t_uint256,t_string_storage)"
      },
      {
        "astId": 20614,
        "contract": "contracts/TellerV2.sol:TellerV2",
        "label": "_trustedMarketForwarders",
        "offset": 0,
        "slot": "167",
        "type": "t_mapping(t_uint256,t_address)"
      },
      {
        "astId": 20619,
        "contract": "contracts/TellerV2.sol:TellerV2",
        "label": "_approvedForwarderSenders",
        "offset": 0,
        "slot": "168",
        "type": "t_mapping(t_address,t_struct(AddressSet)12082_storage)"
      },
      {
        "astId": 20624,
        "contract": "contracts/TellerV2.sol:TellerV2",
        "label": "lenderCommitmentForwarder",
        "offset": 0,
        "slot": "169",
        "type": "t_address"
      },
      {
        "astId": 20630,
        "contract": "contracts/TellerV2.sol:TellerV2",
        "label": "collateralManager",
        "offset": 0,
        "slot": "170",
        "type": "t_contract(ICollateralManager)21281"
      }
    ],
    "types": {
      "t_address": {
        "encoding": "inplace",
        "label": "address",
        "numberOfBytes": "20"
      },
      "t_array(t_bytes32)dyn_storage": {
        "base": "t_bytes32",
        "encoding": "dynamic_array",
        "label": "bytes32[]",
        "numberOfBytes": "32"
      },
      "t_array(t_uint256)49_storage": {
        "base": "t_uint256",
        "encoding": "inplace",
        "label": "uint256[49]",
        "numberOfBytes": "1568"
      },
      "t_array(t_uint256)50_storage": {
        "base": "t_uint256",
        "encoding": "inplace",
        "label": "uint256[50]",
        "numberOfBytes": "1600"
      },
      "t_array(t_uint256)dyn_storage": {
        "base": "t_uint256",
        "encoding": "dynamic_array",
        "label": "uint256[]",
        "numberOfBytes": "32"
      },
      "t_bool": {
        "encoding": "inplace",
        "label": "bool",
        "numberOfBytes": "1"
      },
      "t_bytes32": {
        "encoding": "inplace",
        "label": "bytes32",
        "numberOfBytes": "32"
      },
      "t_contract(ERC20)6317": {
        "encoding": "inplace",
        "label": "contract ERC20",
        "numberOfBytes": "20"
      },
      "t_contract(ICollateralManager)21281": {
        "encoding": "inplace",
        "label": "contract ICollateralManager",
        "numberOfBytes": "20"
      },
      "t_contract(IMarketRegistry)21724": {
        "encoding": "inplace",
        "label": "contract IMarketRegistry",
        "numberOfBytes": "20"
      },
      "t_contract(IReputationManager)21783": {
        "encoding": "inplace",
        "label": "contract IReputationManager",
        "numberOfBytes": "20"
      },
      "t_enum(BidState)20497": {
        "encoding": "inplace",
        "label": "enum BidState",
        "numberOfBytes": "1"
      },
      "t_enum(PaymentType)22590": {
        "encoding": "inplace",
        "label": "enum PaymentType",
        "numberOfBytes": "1"
      },
      "t_mapping(t_address,t_array(t_uint256)dyn_storage)": {
        "encoding": "mapping",
        "key": "t_address",
        "label": "mapping(address => uint256[])",
        "numberOfBytes": "32",
        "value": "t_array(t_uint256)dyn_storage"
      },
      "t_mapping(t_address,t_mapping(t_address,t_uint256))": {
        "encoding": "mapping",
        "key": "t_address",
        "label": "mapping(address => mapping(address => uint256))",
        "numberOfBytes": "32",
        "value": "t_mapping(t_address,t_uint256)"
      },
      "t_mapping(t_address,t_struct(AddressSet)12082_storage)": {
        "encoding": "mapping",
        "key": "t_address",
        "label": "mapping(address => struct EnumerableSet.AddressSet)",
        "numberOfBytes": "32",
        "value": "t_struct(AddressSet)12082_storage"
      },
      "t_mapping(t_address,t_struct(UintSet)12239_storage)": {
        "encoding": "mapping",
        "key": "t_address",
        "label": "mapping(address => struct EnumerableSet.UintSet)",
        "numberOfBytes": "32",
        "value": "t_struct(UintSet)12239_storage"
      },
      "t_mapping(t_address,t_uint256)": {
        "encoding": "mapping",
        "key": "t_address",
        "label": "mapping(address => uint256)",
        "numberOfBytes": "32",
        "value": "t_uint256"
      },
      "t_mapping(t_bytes32,t_uint256)": {
        "encoding": "mapping",
        "key": "t_bytes32",
        "label": "mapping(bytes32 => uint256)",
        "numberOfBytes": "32",
        "value": "t_uint256"
      },
      "t_mapping(t_uint256,t_address)": {
        "encoding": "mapping",
        "key": "t_uint256",
        "label": "mapping(uint256 => address)",
        "numberOfBytes": "32",
        "value": "t_address"
      },
      "t_mapping(t_uint256,t_string_storage)": {
        "encoding": "mapping",
        "key": "t_uint256",
        "label": "mapping(uint256 => string)",
        "numberOfBytes": "32",
        "value": "t_string_storage"
      },
      "t_mapping(t_uint256,t_struct(Bid)20525_storage)": {
        "encoding": "mapping",
        "key": "t_uint256",
        "label": "mapping(uint256 => struct Bid)",
        "numberOfBytes": "32",
        "value": "t_struct(Bid)20525_storage"
      },
      "t_mapping(t_uint256,t_uint32)": {
        "encoding": "mapping",
        "key": "t_uint256",
        "label": "mapping(uint256 => uint32)",
        "numberOfBytes": "32",
        "value": "t_uint32"
      },
      "t_string_storage": {
        "encoding": "bytes",
        "label": "string",
        "numberOfBytes": "32"
      },
      "t_struct(AddressSet)12082_storage": {
        "encoding": "inplace",
        "label": "struct EnumerableSet.AddressSet",
        "members": [
          {
            "astId": 12081,
            "contract": "contracts/TellerV2.sol:TellerV2",
            "label": "_inner",
            "offset": 0,
            "slot": "0",
            "type": "t_struct(Set)11781_storage"
          }
        ],
        "numberOfBytes": "64"
      },
      "t_struct(Bid)20525_storage": {
        "encoding": "inplace",
        "label": "struct Bid",
        "members": [
          {
            "astId": 20504,
            "contract": "contracts/TellerV2.sol:TellerV2",
            "label": "borrower",
            "offset": 0,
            "slot": "0",
            "type": "t_address"
          },
          {
            "astId": 20506,
            "contract": "contracts/TellerV2.sol:TellerV2",
            "label": "receiver",
            "offset": 0,
            "slot": "1",
            "type": "t_address"
          },
          {
            "astId": 20508,
            "contract": "contracts/TellerV2.sol:TellerV2",
            "label": "lender",
            "offset": 0,
            "slot": "2",
            "type": "t_address"
          },
          {
            "astId": 20510,
            "contract": "contracts/TellerV2.sol:TellerV2",
            "label": "marketplaceId",
            "offset": 0,
            "slot": "3",
            "type": "t_uint256"
          },
          {
            "astId": 20512,
            "contract": "contracts/TellerV2.sol:TellerV2",
            "label": "_metadataURI",
            "offset": 0,
            "slot": "4",
            "type": "t_bytes32"
          },
          {
            "astId": 20515,
            "contract": "contracts/TellerV2.sol:TellerV2",
            "label": "loanDetails",
            "offset": 0,
            "slot": "5",
            "type": "t_struct(LoanDetails)20542_storage"
          },
          {
            "astId": 20518,
            "contract": "contracts/TellerV2.sol:TellerV2",
            "label": "terms",
            "offset": 0,
            "slot": "10",
            "type": "t_struct(Terms)20549_storage"
          },
          {
            "astId": 20521,
            "contract": "contracts/TellerV2.sol:TellerV2",
            "label": "state",
            "offset": 0,
            "slot": "12",
            "type": "t_enum(BidState)20497"
          },
          {
            "astId": 20524,
            "contract": "contracts/TellerV2.sol:TellerV2",
            "label": "paymentType",
            "offset": 1,
            "slot": "12",
            "type": "t_enum(PaymentType)22590"
          }
        ],
        "numberOfBytes": "416"
      },
      "t_struct(LoanDetails)20542_storage": {
        "encoding": "inplace",
        "label": "struct LoanDetails",
        "members": [
          {
            "astId": 20528,
            "contract": "contracts/TellerV2.sol:TellerV2",
            "label": "lendingToken",
            "offset": 0,
            "slot": "0",
            "type": "t_contract(ERC20)6317"
          },
          {
            "astId": 20530,
            "contract": "contracts/TellerV2.sol:TellerV2",
            "label": "principal",
            "offset": 0,
            "slot": "1",
            "type": "t_uint256"
          },
          {
            "astId": 20533,
            "contract": "contracts/TellerV2.sol:TellerV2",
            "label": "totalRepaid",
            "offset": 0,
            "slot": "2",
            "type": "t_struct(Payment)20502_storage"
          },
          {
            "astId": 20535,
            "contract": "contracts/TellerV2.sol:TellerV2",
            "label": "timestamp",
            "offset": 0,
            "slot": "4",
            "type": "t_uint32"
          },
          {
            "astId": 20537,
            "contract": "contracts/TellerV2.sol:TellerV2",
            "label": "acceptedTimestamp",
            "offset": 4,
            "slot": "4",
            "type": "t_uint32"
          },
          {
            "astId": 20539,
            "contract": "contracts/TellerV2.sol:TellerV2",
            "label": "lastRepaidTimestamp",
            "offset": 8,
            "slot": "4",
            "type": "t_uint32"
          },
          {
            "astId": 20541,
            "contract": "contracts/TellerV2.sol:TellerV2",
            "label": "loanDuration",
            "offset": 12,
            "slot": "4",
            "type": "t_uint32"
          }
        ],
        "numberOfBytes": "160"
      },
      "t_struct(Payment)20502_storage": {
        "encoding": "inplace",
        "label": "struct Payment",
        "members": [
          {
            "astId": 20499,
            "contract": "contracts/TellerV2.sol:TellerV2",
            "label": "principal",
            "offset": 0,
            "slot": "0",
            "type": "t_uint256"
          },
          {
            "astId": 20501,
            "contract": "contracts/TellerV2.sol:TellerV2",
            "label": "interest",
            "offset": 0,
            "slot": "1",
            "type": "t_uint256"
          }
        ],
        "numberOfBytes": "64"
      },
      "t_struct(Set)11781_storage": {
        "encoding": "inplace",
        "label": "struct EnumerableSet.Set",
        "members": [
          {
            "astId": 11776,
            "contract": "contracts/TellerV2.sol:TellerV2",
            "label": "_values",
            "offset": 0,
            "slot": "0",
            "type": "t_array(t_bytes32)dyn_storage"
          },
          {
            "astId": 11780,
            "contract": "contracts/TellerV2.sol:TellerV2",
            "label": "_indexes",
            "offset": 0,
            "slot": "1",
            "type": "t_mapping(t_bytes32,t_uint256)"
          }
        ],
        "numberOfBytes": "64"
      },
      "t_struct(Terms)20549_storage": {
        "encoding": "inplace",
        "label": "struct Terms",
        "members": [
          {
            "astId": 20544,
            "contract": "contracts/TellerV2.sol:TellerV2",
            "label": "paymentCycleAmount",
            "offset": 0,
            "slot": "0",
            "type": "t_uint256"
          },
          {
            "astId": 20546,
            "contract": "contracts/TellerV2.sol:TellerV2",
            "label": "paymentCycle",
            "offset": 0,
            "slot": "1",
            "type": "t_uint32"
          },
          {
            "astId": 20548,
            "contract": "contracts/TellerV2.sol:TellerV2",
            "label": "APR",
            "offset": 4,
            "slot": "1",
            "type": "t_uint16"
          }
        ],
        "numberOfBytes": "64"
      },
      "t_struct(UintSet)12239_storage": {
        "encoding": "inplace",
        "label": "struct EnumerableSet.UintSet",
        "members": [
          {
            "astId": 12238,
            "contract": "contracts/TellerV2.sol:TellerV2",
            "label": "_inner",
            "offset": 0,
            "slot": "0",
            "type": "t_struct(Set)11781_storage"
          }
        ],
        "numberOfBytes": "64"
      },
      "t_uint16": {
        "encoding": "inplace",
        "label": "uint16",
        "numberOfBytes": "2"
      },
      "t_uint256": {
        "encoding": "inplace",
        "label": "uint256",
        "numberOfBytes": "32"
      },
      "t_uint32": {
        "encoding": "inplace",
        "label": "uint32",
        "numberOfBytes": "4"
      },
      "t_uint8": {
        "encoding": "inplace",
        "label": "uint8",
        "numberOfBytes": "1"
      }
    }
  }
}