{
  "abi": [
    {
      "inputs": [
        {
          "internalType": "contract IMarketRegistry",
          "name": "_marketRegistry",
          "type": "address"
        }
      ],
      "stateMutability": "nonpayable",
      "type": "constructor"
    },
    {
      "anonymous": false,
      "inputs": [
        {
          "indexed": true,
          "internalType": "address",
          "name": "owner",
          "type": "address"
        },
        {
          "indexed": true,
          "internalType": "address",
          "name": "approved",
          "type": "address"
        },
        {
          "indexed": true,
          "internalType": "uint256",
          "name": "tokenId",
          "type": "uint256"
        }
      ],
      "name": "Approval",
      "type": "event"
    },
    {
      "anonymous": false,
      "inputs": [
        {
          "indexed": true,
          "internalType": "address",
          "name": "owner",
          "type": "address"
        },
        {
          "indexed": true,
          "internalType": "address",
          "name": "operator",
          "type": "address"
        },
        {
          "indexed": false,
          "internalType": "bool",
          "name": "approved",
          "type": "bool"
        }
      ],
      "name": "ApprovalForAll",
      "type": "event"
    },
    {
      "anonymous": false,
      "inputs": [
        {
          "indexed": false,
          "internalType": "uint8",
          "name": "version",
          "type": "uint8"
        }
      ],
      "name": "Initialized",
      "type": "event"
    },
    {
      "anonymous": false,
      "inputs": [
        {
          "indexed": true,
          "internalType": "address",
          "name": "previousOwner",
          "type": "address"
        },
        {
          "indexed": true,
          "internalType": "address",
          "name": "newOwner",
          "type": "address"
        }
      ],
      "name": "OwnershipTransferred",
      "type": "event"
    },
    {
      "anonymous": false,
      "inputs": [
        {
          "indexed": true,
          "internalType": "address",
          "name": "from",
          "type": "address"
        },
        {
          "indexed": true,
          "internalType": "address",
          "name": "to",
          "type": "address"
        },
        {
          "indexed": true,
          "internalType": "uint256",
          "name": "tokenId",
          "type": "uint256"
        }
      ],
      "name": "Transfer",
      "type": "event"
    },
    {
      "inputs": [
        {
          "internalType": "address",
          "name": "to",
          "type": "address"
        },
        {
          "internalType": "uint256",
          "name": "tokenId",
          "type": "uint256"
        }
      ],
      "name": "approve",
      "outputs": [],
      "stateMutability": "nonpayable",
      "type": "function"
    },
    {
      "inputs": [
        {
          "internalType": "address",
          "name": "owner",
          "type": "address"
        }
      ],
      "name": "balanceOf",
      "outputs": [
        {
          "internalType": "uint256",
          "name": "",
          "type": "uint256"
        }
      ],
      "stateMutability": "view",
      "type": "function"
    },
    {
      "inputs": [
        {
          "internalType": "uint256",
          "name": "tokenId",
          "type": "uint256"
        }
      ],
      "name": "getApproved",
      "outputs": [
        {
          "internalType": "address",
          "name": "",
          "type": "address"
        }
      ],
      "stateMutability": "view",
      "type": "function"
    },
    {
      "inputs": [],
      "name": "initialize",
      "outputs": [],
      "stateMutability": "nonpayable",
      "type": "function"
    },
    {
      "inputs": [
        {
          "internalType": "address",
          "name": "owner",
          "type": "address"
        },
        {
          "internalType": "address",
          "name": "operator",
          "type": "address"
        }
      ],
      "name": "isApprovedForAll",
      "outputs": [
        {
          "internalType": "bool",
          "name": "",
          "type": "bool"
        }
      ],
      "stateMutability": "view",
      "type": "function"
    },
    {
      "inputs": [],
      "name": "marketRegistry",
      "outputs": [
        {
          "internalType": "contract IMarketRegistry",
          "name": "",
          "type": "address"
        }
      ],
      "stateMutability": "view",
      "type": "function"
    },
    {
      "inputs": [],
      "name": "name",
      "outputs": [
        {
          "internalType": "string",
          "name": "",
          "type": "string"
        }
      ],
      "stateMutability": "view",
      "type": "function"
    },
    {
      "inputs": [],
      "name": "owner",
      "outputs": [
        {
          "internalType": "address",
          "name": "",
          "type": "address"
        }
      ],
      "stateMutability": "view",
      "type": "function"
    },
    {
      "inputs": [
        {
          "internalType": "uint256",
          "name": "tokenId",
          "type": "uint256"
        }
      ],
      "name": "ownerOf",
      "outputs": [
        {
          "internalType": "address",
          "name": "",
          "type": "address"
        }
      ],
      "stateMutability": "view",
      "type": "function"
    },
    {
      "inputs": [
        {
          "internalType": "uint256",
          "name": "_bidId",
          "type": "uint256"
        },
        {
          "internalType": "address",
          "name": "_newLender",
          "type": "address"
        }
      ],
      "name": "registerLoan",
      "outputs": [],
      "stateMutability": "nonpayable",
      "type": "function"
    },
    {
      "inputs": [],
      "name": "renounceOwnership",
      "outputs": [],
      "stateMutability": "nonpayable",
      "type": "function"
    },
    {
      "inputs": [
        {
          "internalType": "address",
          "name": "from",
          "type": "address"
        },
        {
          "internalType": "address",
          "name": "to",
          "type": "address"
        },
        {
          "internalType": "uint256",
          "name": "tokenId",
          "type": "uint256"
        }
      ],
      "name": "safeTransferFrom",
      "outputs": [],
      "stateMutability": "nonpayable",
      "type": "function"
    },
    {
      "inputs": [
        {
          "internalType": "address",
          "name": "from",
          "type": "address"
        },
        {
          "internalType": "address",
          "name": "to",
          "type": "address"
        },
        {
          "internalType": "uint256",
          "name": "tokenId",
          "type": "uint256"
        },
        {
          "internalType": "bytes",
          "name": "data",
          "type": "bytes"
        }
      ],
      "name": "safeTransferFrom",
      "outputs": [],
      "stateMutability": "nonpayable",
      "type": "function"
    },
    {
      "inputs": [
        {
          "internalType": "address",
          "name": "operator",
          "type": "address"
        },
        {
          "internalType": "bool",
          "name": "approved",
          "type": "bool"
        }
      ],
      "name": "setApprovalForAll",
      "outputs": [],
      "stateMutability": "nonpayable",
      "type": "function"
    },
    {
      "inputs": [
        {
          "internalType": "bytes4",
          "name": "interfaceId",
          "type": "bytes4"
        }
      ],
      "name": "supportsInterface",
      "outputs": [
        {
          "internalType": "bool",
          "name": "",
          "type": "bool"
        }
      ],
      "stateMutability": "view",
      "type": "function"
    },
    {
      "inputs": [],
      "name": "symbol",
      "outputs": [
        {
          "internalType": "string",
          "name": "",
          "type": "string"
        }
      ],
      "stateMutability": "view",
      "type": "function"
    },
    {
      "inputs": [
        {
          "internalType": "uint256",
          "name": "tokenId",
          "type": "uint256"
        }
      ],
      "name": "tokenURI",
      "outputs": [
        {
          "internalType": "string",
          "name": "",
          "type": "string"
        }
      ],
      "stateMutability": "view",
      "type": "function"
    },
    {
      "inputs": [
        {
          "internalType": "address",
          "name": "from",
          "type": "address"
        },
        {
          "internalType": "address",
          "name": "to",
          "type": "address"
        },
        {
          "internalType": "uint256",
          "name": "tokenId",
          "type": "uint256"
        }
      ],
      "name": "transferFrom",
      "outputs": [],
      "stateMutability": "nonpayable",
      "type": "function"
    },
    {
      "inputs": [
        {
          "internalType": "address",
          "name": "newOwner",
          "type": "address"
        }
      ],
      "name": "transferOwnership",
      "outputs": [],
      "stateMutability": "nonpayable",
      "type": "function"
    }
  ],
  "bytecode": {
    "object": "0x60a060405234801561001057600080fd5b50604051611ace380380611ace83398101604081905261002f91610040565b6001600160a01b0316608052610070565b60006020828403121561005257600080fd5b81516001600160a01b038116811461006957600080fd5b9392505050565b608051611a3c610092600039600081816102b3015261127f0152611a3c6000f3fe608060405234801561001057600080fd5b50600436106101215760003560e01c80638129fc1c116100ad578063b88d4fde11610071578063b88d4fde1461024c578063c87b56dd1461025f578063e985e9c514610272578063ecb96fe6146102ae578063f2fde38b146102d557600080fd5b80638129fc1c146102055780638da5cb5b1461020d57806395d89b411461021e57806396c9983014610226578063a22cb4651461023957600080fd5b806323b872dd116100f457806323b872dd146101a357806342842e0e146101b65780636352211e146101c957806370a08231146101dc578063715018a6146101fd57600080fd5b806301ffc9a71461012657806306fdde031461014e578063081812fc14610163578063095ea7b31461018e575b600080fd5b6101396101343660046113fc565b6102e8565b60405190151581526020015b60405180910390f35b61015661033a565b6040516101459190611469565b61017661017136600461147c565b6103cc565b6040516001600160a01b039091168152602001610145565b6101a161019c3660046114b1565b6103f3565b005b6101a16101b13660046114db565b61050d565b6101a16101c43660046114db565b61053e565b6101766101d736600461147c565b610559565b6101ef6101ea366004611517565b6105b9565b604051908152602001610145565b6101a161063f565b6101a1610653565b6033546001600160a01b0316610176565b610156610764565b6101a1610234366004611532565b610773565b6101a161024736600461156c565b610789565b6101a161025a3660046115b9565b610794565b61015661026d36600461147c565b6107cc565b610139610280366004611695565b6001600160a01b039182166000908152609c6020908152604080832093909416825291909152205460ff1690565b6101767f000000000000000000000000000000000000000000000000000000000000000081565b6101a16102e3366004611517565b610840565b60006001600160e01b031982166380ac58cd60e01b148061031957506001600160e01b03198216635b5e139f60e01b145b8061033457506301ffc9a760e01b6001600160e01b03198316145b92915050565b606060978054610349906116bf565b80601f0160208091040260200160405190810160405280929190818152602001828054610375906116bf565b80156103c25780601f10610397576101008083540402835291602001916103c2565b820191906000526020600020905b8154815290600101906020018083116103a557829003601f168201915b5050505050905090565b60006103d7826108b6565b506000908152609b60205260409020546001600160a01b031690565b60006103fe82610559565b9050806001600160a01b0316836001600160a01b0316036104705760405162461bcd60e51b815260206004820152602160248201527f4552433732313a20617070726f76616c20746f2063757272656e74206f776e656044820152603960f91b60648201526084015b60405180910390fd5b336001600160a01b038216148061048c575061048c8133610280565b6104fe5760405162461bcd60e51b815260206004820152603d60248201527f4552433732313a20617070726f76652063616c6c6572206973206e6f7420746f60448201527f6b656e206f776e6572206f7220617070726f76656420666f7220616c6c0000006064820152608401610467565b6105088383610915565b505050565b6105173382610983565b6105335760405162461bcd60e51b8152600401610467906116f9565b610508838383610a02565b61050883838360405180602001604052806000815250610794565b6000818152609960205260408120546001600160a01b0316806103345760405162461bcd60e51b8152602060048201526018602482015277115490cdcc8c4e881a5b9d985b1a59081d1bdad95b88125160421b6044820152606401610467565b60006001600160a01b0382166106235760405162461bcd60e51b815260206004820152602960248201527f4552433732313a2061646472657373207a65726f206973206e6f7420612076616044820152683634b21037bbb732b960b91b6064820152608401610467565b506001600160a01b03166000908152609a602052604090205490565b610647610b73565b6106516000610bcd565b565b600054610100900460ff16158080156106735750600054600160ff909116105b8061068d5750303b15801561068d575060005460ff166001145b6106f05760405162461bcd60e51b815260206004820152602e60248201527f496e697469616c697a61626c653a20636f6e747261637420697320616c72656160448201526d191e481a5b9a5d1a585b1a5e995960921b6064820152608401610467565b6000805460ff191660011790558015610713576000805461ff0019166101001790555b61071b610c1f565b8015610761576000805461ff0019169055604051600181527f7f26b83ff96e1f2b6a682f133852f6798a09c465da95921460cefb38474024989060200160405180910390a15b50565b606060988054610349906116bf565b61077b610b73565b6107858183610c95565b5050565b610785338383610e2e565b61079e3383610983565b6107ba5760405162461bcd60e51b8152600401610467906116f9565b6107c684848484610efc565b50505050565b60606107d7826108b6565b60006107ee60408051602081019091526000815290565b9050600081511161080e5760405180602001604052806000815250610839565b8061081884610f2f565b604051602001610829929190611746565b6040516020818303038152906040525b9392505050565b610848610b73565b6001600160a01b0381166108ad5760405162461bcd60e51b815260206004820152602660248201527f4f776e61626c653a206e6577206f776e657220697320746865207a65726f206160448201526564647265737360d01b6064820152608401610467565b61076181610bcd565b6000818152609960205260409020546001600160a01b03166107615760405162461bcd60e51b8152602060048201526018602482015277115490cdcc8c4e881a5b9d985b1a59081d1bdad95b88125160421b6044820152606401610467565b6000818152609b6020526040902080546001600160a01b0319166001600160a01b038416908117909155819061094a82610559565b6001600160a01b03167f8c5be1e5ebec7d5bd14f71427d1e84f3dd0314c0f7b2291e5b200ac8c7c3b92560405160405180910390a45050565b60008061098f83610559565b9050806001600160a01b0316846001600160a01b031614806109d657506001600160a01b038082166000908152609c602090815260408083209388168352929052205460ff165b806109fa5750836001600160a01b03166109ef846103cc565b6001600160a01b0316145b949350505050565b826001600160a01b0316610a1582610559565b6001600160a01b031614610a3b5760405162461bcd60e51b815260040161046790611775565b6001600160a01b038216610a9d5760405162461bcd60e51b8152602060048201526024808201527f4552433732313a207472616e7366657220746f20746865207a65726f206164646044820152637265737360e01b6064820152608401610467565b610aaa8383836001610fc2565b826001600160a01b0316610abd82610559565b6001600160a01b031614610ae35760405162461bcd60e51b815260040161046790611775565b6000818152609b6020908152604080832080546001600160a01b03199081169091556001600160a01b03878116808652609a8552838620805460001901905590871680865283862080546001019055868652609990945282852080549092168417909155905184937fddf252ad1be2c89b69c2b068fc378daa952ba7f163c4a11628f55a4df523b3ef91a4505050565b6033546001600160a01b031633146106515760405162461bcd60e51b815260206004820181905260248201527f4f776e61626c653a2063616c6c6572206973206e6f7420746865206f776e65726044820152606401610467565b603380546001600160a01b038381166001600160a01b0319831681179093556040519116919082907f8be0079c531659141344cd1fd0a4f28419497f9722a3daafe3b4186f6b6457e090600090a35050565b600054610100900460ff16610c465760405162461bcd60e51b8152600401610467906117ba565b610c4e611011565b6106516040518060400160405280600a8152602001692a32b63632b92637b0b760b11b815250604051806040016040528060038152602001622a262760e91b815250611040565b6001600160a01b038216610ceb5760405162461bcd60e51b815260206004820181905260248201527f4552433732313a206d696e7420746f20746865207a65726f20616464726573736044820152606401610467565b6000818152609960205260409020546001600160a01b031615610d505760405162461bcd60e51b815260206004820152601c60248201527f4552433732313a20746f6b656e20616c7265616479206d696e746564000000006044820152606401610467565b610d5e600083836001610fc2565b6000818152609960205260409020546001600160a01b031615610dc35760405162461bcd60e51b815260206004820152601c60248201527f4552433732313a20746f6b656e20616c7265616479206d696e746564000000006044820152606401610467565b6001600160a01b0382166000818152609a6020908152604080832080546001019055848352609990915280822080546001600160a01b0319168417905551839291907fddf252ad1be2c89b69c2b068fc378daa952ba7f163c4a11628f55a4df523b3ef908290a45050565b816001600160a01b0316836001600160a01b031603610e8f5760405162461bcd60e51b815260206004820152601960248201527f4552433732313a20617070726f766520746f2063616c6c6572000000000000006044820152606401610467565b6001600160a01b038381166000818152609c6020908152604080832094871680845294825291829020805460ff191686151590811790915591519182527f17307eab39ab6107e8899845ad3d59bd9653f200f220920489ca2b5937696c31910160405180910390a3505050565b610f07848484610a02565b610f1384848484611071565b6107c65760405162461bcd60e51b815260040161046790611805565b60606000610f3c83611172565b600101905060008167ffffffffffffffff811115610f5c57610f5c6115a3565b6040519080825280601f01601f191660200182016040528015610f86576020820181803683370190505b5090508181016020015b600019016f181899199a1a9b1b9c1cb0b131b232b360811b600a86061a8153600a8504945084610f9057509392505050565b610fcc838361124a565b6107c65760405162461bcd60e51b8152602060048201526016602482015275139bdd08185c1c1c9bdd995908189e481b585c9ad95d60521b6044820152606401610467565b600054610100900460ff166110385760405162461bcd60e51b8152600401610467906117ba565b6106516112f4565b600054610100900460ff166110675760405162461bcd60e51b8152600401610467906117ba565b6107858282611324565b60006001600160a01b0384163b1561116757604051630a85bd0160e11b81526001600160a01b0385169063150b7a02906110b5903390899088908890600401611857565b6020604051808303816000875af19250505080156110f0575060408051601f3d908101601f191682019092526110ed91810190611894565b60015b61114d573d80801561111e576040519150601f19603f3d011682016040523d82523d6000602084013e611123565b606091505b5080516000036111455760405162461bcd60e51b815260040161046790611805565b805181602001fd5b6001600160e01b031916630a85bd0160e11b1490506109fa565b506001949350505050565b60008072184f03e93ff9f4daa797ed6e38ed64bf6a1f0160401b83106111b15772184f03e93ff9f4daa797ed6e38ed64bf6a1f0160401b830492506040015b6d04ee2d6d415b85acef810000000083106111dd576d04ee2d6d415b85acef8100000000830492506020015b662386f26fc1000083106111fb57662386f26fc10000830492506010015b6305f5e1008310611213576305f5e100830492506008015b612710831061122757612710830492506004015b60648310611239576064830492506002015b600a83106103345760010192915050565b60008061125683611364565b604051633ef19a9b60e01b8152600481018290526001600160a01b0386811660248301529192507f000000000000000000000000000000000000000000000000000000000000000090911690633ef19a9b906044016040805180830381865afa1580156112c7573d6000803e3d6000fd5b505050506040513d601f19601f820116820180604052508101906112eb91906118b1565b50949350505050565b600054610100900460ff1661131b5760405162461bcd60e51b8152600401610467906117ba565b61065133610bcd565b600054610100900460ff1661134b5760405162461bcd60e51b8152600401610467906117ba565b6097611357838261192d565b506098610508828261192d565b60006113786033546001600160a01b031690565b6001600160a01b03166340910c70836040518263ffffffff1660e01b81526004016113a591815260200190565b602060405180830381865afa1580156113c2573d6000803e3d6000fd5b505050506040513d601f19601f8201168201806040525081019061033491906119ed565b6001600160e01b03198116811461076157600080fd5b60006020828403121561140e57600080fd5b8135610839816113e6565b60005b8381101561143457818101518382015260200161141c565b50506000910152565b60008151808452611455816020860160208601611419565b601f01601f19169290920160200192915050565b602081526000610839602083018461143d565b60006020828403121561148e57600080fd5b5035919050565b80356001600160a01b03811681146114ac57600080fd5b919050565b600080604083850312156114c457600080fd5b6114cd83611495565b946020939093013593505050565b6000806000606084860312156114f057600080fd5b6114f984611495565b925061150760208501611495565b9150604084013590509250925092565b60006020828403121561152957600080fd5b61083982611495565b6000806040838503121561154557600080fd5b8235915061155560208401611495565b90509250929050565b801515811461076157600080fd5b6000806040838503121561157f57600080fd5b61158883611495565b915060208301356115988161155e565b809150509250929050565b634e487b7160e01b600052604160045260246000fd5b600080600080608085870312156115cf57600080fd5b6115d885611495565b93506115e660208601611495565b925060408501359150606085013567ffffffffffffffff8082111561160a57600080fd5b818701915087601f83011261161e57600080fd5b813581811115611630576116306115a3565b604051601f8201601f19908116603f01168101908382118183101715611658576116586115a3565b816040528281528a602084870101111561167157600080fd5b82602086016020830137600060208483010152809550505050505092959194509250565b600080604083850312156116a857600080fd5b6116b183611495565b915061155560208401611495565b600181811c908216806116d357607f821691505b6020821081036116f357634e487b7160e01b600052602260045260246000fd5b50919050565b6020808252602d908201527f4552433732313a2063616c6c6572206973206e6f7420746f6b656e206f776e6560408201526c1c881bdc88185c1c1c9bdd9959609a1b606082015260800190565b60008351611758818460208801611419565b83519083019061176c818360208801611419565b01949350505050565b60208082526025908201527f4552433732313a207472616e736665722066726f6d20696e636f72726563742060408201526437bbb732b960d91b606082015260800190565b6020808252602b908201527f496e697469616c697a61626c653a20636f6e7472616374206973206e6f74206960408201526a6e697469616c697a696e6760a81b606082015260800190565b60208082526032908201527f4552433732313a207472616e7366657220746f206e6f6e20455243373231526560408201527131b2b4bb32b91034b6b83632b6b2b73a32b960711b606082015260800190565b6001600160a01b038581168252841660208201526040810183905260806060820181905260009061188a9083018461143d565b9695505050505050565b6000602082840312156118a657600080fd5b8151610839816113e6565b600080604083850312156118c457600080fd5b82516118cf8161155e565b6020939093015192949293505050565b601f82111561050857600081815260208120601f850160051c810160208610156119065750805b601f850160051c820191505b8181101561192557828155600101611912565b505050505050565b815167ffffffffffffffff811115611947576119476115a3565b61195b8161195584546116bf565b846118df565b602080601f83116001811461199057600084156119785750858301515b600019600386901b1c1916600185901b178555611925565b600085815260208120601f198616915b828110156119bf578886015182559484019460019091019084016119a0565b50858210156119dd5787850151600019600388901b60f8161c191681555b5050505050600190811b01905550565b6000602082840312156119ff57600080fd5b505191905056fea2646970667358221220f130f2a4a1a5c031757c675ca965e3c85c7f8ee9ee0beef1fe74b6145e4c895664736f6c63430008110033",
    "linkReferences": {}
  },
  "methodIdentifiers": {
    "approve(address,uint256)": "095ea7b3",
    "balanceOf(address)": "70a08231",
    "getApproved(uint256)": "081812fc",
    "initialize()": "8129fc1c",
    "isApprovedForAll(address,address)": "e985e9c5",
    "marketRegistry()": "ecb96fe6",
    "name()": "06fdde03",
    "owner()": "8da5cb5b",
    "ownerOf(uint256)": "6352211e",
    "registerLoan(uint256,address)": "96c99830",
    "renounceOwnership()": "715018a6",
    "safeTransferFrom(address,address,uint256)": "42842e0e",
    "safeTransferFrom(address,address,uint256,bytes)": "b88d4fde",
    "setApprovalForAll(address,bool)": "a22cb465",
    "supportsInterface(bytes4)": "01ffc9a7",
    "symbol()": "95d89b41",
    "tokenURI(uint256)": "c87b56dd",
    "transferFrom(address,address,uint256)": "23b872dd",
    "transferOwnership(address)": "f2fde38b"
  },
  "id": 5
}