{
  "abi": [
    {
      "inputs": [
        {
          "internalType": "address",
          "name": "_tellerV2",
          "type": "address"
        },
        {
          "internalType": "contract LenderCommitmentForwarder",
          "name": "_commitmentForwarder",
          "type": "address"
        }
      ],
      "stateMutability": "nonpayable",
      "type": "constructor"
    },
    {
      "inputs": [
        {
          "internalType": "uint256",
          "name": "commitmentId",
          "type": "uint256"
        },
        {
          "internalType": "uint256",
          "name": "principal",
          "type": "uint256"
        },
        {
          "internalType": "uint256",
          "name": "collateralAmount",
          "type": "uint256"
        },
        {
          "internalType": "uint256",
          "name": "collateralTokenId",
          "type": "uint256"
        },
        {
          "internalType": "address",
          "name": "collateralTokenAddress",
          "type": "address"
        },
        {
          "internalType": "uint16",
          "name": "interestRate",
          "type": "uint16"
        },
        {
          "internalType": "uint32",
          "name": "loanDuration",
          "type": "uint32"
        }
      ],
      "name": "_acceptCommitment",
      "outputs": [
        {
          "internalType": "uint256",
          "name": "",
          "type": "uint256"
        }
      ],
      "stateMutability": "nonpayable",
      "type": "function"
    },
    {
      "inputs": [
        {
          "components": [
            {
              "internalType": "uint256",
              "name": "maxPrincipal",
              "type": "uint256"
            },
            {
              "internalType": "uint32",
              "name": "expiration",
              "type": "uint32"
            },
            {
              "internalType": "uint32",
              "name": "maxDuration",
              "type": "uint32"
            },
            {
              "internalType": "uint16",
              "name": "minInterestRate",
              "type": "uint16"
            },
            {
              "internalType": "address",
              "name": "collateralTokenAddress",
              "type": "address"
            },
            {
              "internalType": "uint256",
              "name": "collateralTokenId",
              "type": "uint256"
            },
            {
              "internalType": "uint256",
              "name": "maxPrincipalPerCollateralAmount",
              "type": "uint256"
            },
            {
              "internalType": "enum LenderCommitmentForwarder.CommitmentCollateralType",
              "name": "collateralTokenType",
              "type": "uint8"
            },
            {
              "internalType": "address",
              "name": "lender",
              "type": "address"
            },
            {
              "internalType": "uint256",
              "name": "marketId",
              "type": "uint256"
            },
            {
              "internalType": "address",
              "name": "principalTokenAddress",
              "type": "address"
            }
          ],
          "internalType": "struct LenderCommitmentForwarder.Commitment",
          "name": "_commitment",
          "type": "tuple"
        },
        {
          "internalType": "address[]",
          "name": "borrowerAddressList",
          "type": "address[]"
        }
      ],
      "name": "_createCommitment",
      "outputs": [
        {
          "internalType": "uint256",
          "name": "",
          "type": "uint256"
        }
      ],
      "stateMutability": "nonpayable",
      "type": "function"
    },
    {
      "inputs": [
        {
          "internalType": "uint256",
          "name": "_commitmentId",
          "type": "uint256"
        }
      ],
      "name": "_deleteCommitment",
      "outputs": [],
      "stateMutability": "nonpayable",
      "type": "function"
    },
    {
      "inputs": [
        {
          "internalType": "uint256",
          "name": "commitmentId",
          "type": "uint256"
        },
        {
          "components": [
            {
              "internalType": "uint256",
              "name": "maxPrincipal",
              "type": "uint256"
            },
            {
              "internalType": "uint32",
              "name": "expiration",
              "type": "uint32"
            },
            {
              "internalType": "uint32",
              "name": "maxDuration",
              "type": "uint32"
            },
            {
              "internalType": "uint16",
              "name": "minInterestRate",
              "type": "uint16"
            },
            {
              "internalType": "address",
              "name": "collateralTokenAddress",
              "type": "address"
            },
            {
              "internalType": "uint256",
              "name": "collateralTokenId",
              "type": "uint256"
            },
            {
              "internalType": "uint256",
              "name": "maxPrincipalPerCollateralAmount",
              "type": "uint256"
            },
            {
              "internalType": "enum LenderCommitmentForwarder.CommitmentCollateralType",
              "name": "collateralTokenType",
              "type": "uint8"
            },
            {
              "internalType": "address",
              "name": "lender",
              "type": "address"
            },
            {
              "internalType": "uint256",
              "name": "marketId",
              "type": "uint256"
            },
            {
              "internalType": "address",
              "name": "principalTokenAddress",
              "type": "address"
            }
          ],
          "internalType": "struct LenderCommitmentForwarder.Commitment",
          "name": "_commitment",
          "type": "tuple"
        }
      ],
      "name": "_updateCommitment",
      "outputs": [],
      "stateMutability": "nonpayable",
      "type": "function"
    },
    {
      "inputs": [
        {
          "internalType": "uint256",
          "name": "commitmentId",
          "type": "uint256"
        },
        {
          "internalType": "address[]",
          "name": "borrowerAddressList",
          "type": "address[]"
        }
      ],
      "name": "_updateCommitmentBorrowers",
      "outputs": [],
      "stateMutability": "nonpayable",
      "type": "function"
    },
    {
      "inputs": [
        {
          "internalType": "uint256",
          "name": "_bidId",
          "type": "uint256"
        }
      ],
      "name": "acceptBid",
      "outputs": [],
      "stateMutability": "nonpayable",
      "type": "function"
    },
    {
      "inputs": [
        {
          "internalType": "address",
          "name": "_assetContractAddress",
          "type": "address"
        },
        {
          "internalType": "address",
          "name": "_spender",
          "type": "address"
        },
        {
          "internalType": "uint256",
          "name": "_amount",
          "type": "uint256"
        }
      ],
      "name": "addAllowance",
      "outputs": [],
      "stateMutability": "nonpayable",
      "type": "function"
    },
    {
      "inputs": [
        {
          "internalType": "uint256",
          "name": "_marketId",
          "type": "uint256"
        },
        {
          "internalType": "address",
          "name": "_forwarder",
          "type": "address"
        }
      ],
      "name": "approveMarketForwarder",
      "outputs": [],
      "stateMutability": "nonpayable",
      "type": "function"
    },
    {
      "inputs": [],
      "name": "commitmentForwarder",
      "outputs": [
        {
          "internalType": "contract LenderCommitmentForwarder",
          "name": "",
          "type": "address"
        }
      ],
      "stateMutability": "view",
      "type": "function"
    },
    {
      "inputs": [
        {
          "internalType": "address",
          "name": "marketRegistry",
          "type": "address"
        },
        {
          "internalType": "uint32",
          "name": "_paymentCycleDuration",
          "type": "uint32"
        },
        {
          "internalType": "uint32",
          "name": "_paymentDefaultDuration",
          "type": "uint32"
        },
        {
          "internalType": "uint32",
          "name": "_bidExpirationTime",
          "type": "uint32"
        },
        {
          "internalType": "uint16",
          "name": "_feePercent",
          "type": "uint16"
        },
        {
          "internalType": "bool",
          "name": "_requireLenderAttestation",
          "type": "bool"
        },
        {
          "internalType": "bool",
          "name": "_requireBorrowerAttestation",
          "type": "bool"
        },
        {
          "internalType": "enum PaymentType",
          "name": "_paymentType",
          "type": "uint8"
        },
        {
          "internalType": "enum PaymentCycleType",
          "name": "_paymentCycleType",
          "type": "uint8"
        },
        {
          "internalType": "string",
          "name": "_uri",
          "type": "string"
        }
      ],
      "name": "createMarket",
      "outputs": [
        {
          "internalType": "uint256",
          "name": "",
          "type": "uint256"
        }
      ],
      "stateMutability": "nonpayable",
      "type": "function"
    },
    {
      "inputs": [
        {
          "internalType": "uint256",
          "name": "_bidId",
          "type": "uint256"
        }
      ],
      "name": "repayLoanFull",
      "outputs": [],
      "stateMutability": "nonpayable",
      "type": "function"
    },
    {
      "inputs": [
        {
          "internalType": "uint256",
          "name": "_marketId",
          "type": "uint256"
        },
        {
          "internalType": "address",
          "name": "_forwarder",
          "type": "address"
        }
      ],
      "name": "setTrustedMarketForwarder",
      "outputs": [],
      "stateMutability": "nonpayable",
      "type": "function"
    },
    {
      "inputs": [
        {
          "internalType": "address",
          "name": "_lendingToken",
          "type": "address"
        },
        {
          "internalType": "uint256",
          "name": "_marketplaceId",
          "type": "uint256"
        },
        {
          "internalType": "uint256",
          "name": "_principal",
          "type": "uint256"
        },
        {
          "internalType": "uint32",
          "name": "_duration",
          "type": "uint32"
        },
        {
          "internalType": "uint16",
          "name": "_APR",
          "type": "uint16"
        },
        {
          "internalType": "string",
          "name": "_metadataURI",
          "type": "string"
        },
        {
          "internalType": "address",
          "name": "_receiver",
          "type": "address"
        }
      ],
      "name": "submitBid",
      "outputs": [
        {
          "internalType": "uint256",
          "name": "",
          "type": "uint256"
        }
      ],
      "stateMutability": "nonpayable",
      "type": "function"
    },
    {
      "inputs": [
        {
          "internalType": "address",
          "name": "_lendingToken",
          "type": "address"
        },
        {
          "internalType": "uint256",
          "name": "_marketplaceId",
          "type": "uint256"
        },
        {
          "internalType": "uint256",
          "name": "_principal",
          "type": "uint256"
        },
        {
          "internalType": "uint32",
          "name": "_duration",
          "type": "uint32"
        },
        {
          "internalType": "uint16",
          "name": "_APR",
          "type": "uint16"
        },
        {
          "internalType": "string",
          "name": "_metadataURI",
          "type": "string"
        },
        {
          "internalType": "address",
          "name": "_receiver",
          "type": "address"
        },
        {
          "components": [
            {
              "internalType": "enum CollateralType",
              "name": "_collateralType",
              "type": "uint8"
            },
            {
              "internalType": "uint256",
              "name": "_amount",
              "type": "uint256"
            },
            {
              "internalType": "uint256",
              "name": "_tokenId",
              "type": "uint256"
            },
            {
              "internalType": "address",
              "name": "_collateralAddress",
              "type": "address"
            }
          ],
          "internalType": "struct Collateral[]",
          "name": "_collateralInfo",
          "type": "tuple[]"
        }
      ],
      "name": "submitCollateralBid",
      "outputs": [
        {
          "internalType": "uint256",
          "name": "",
          "type": "uint256"
        }
      ],
      "stateMutability": "nonpayable",
      "type": "function"
    },
    {
      "inputs": [],
      "name": "tellerV2",
      "outputs": [
        {
          "internalType": "address",
          "name": "",
          "type": "address"
        }
      ],
      "stateMutability": "view",
      "type": "function"
    },
    {
      "stateMutability": "payable",
      "type": "receive"
    }
  ],
  "bytecode": {
    "object": "0x60c060405234801561001057600080fd5b5060405161147838038061147883398101604081905261002f9161005e565b6001600160a01b039182166080521660a052610098565b6001600160a01b038116811461005b57600080fd5b50565b6000806040838503121561007157600080fd5b825161007c81610046565b602084015190925061008d81610046565b809150509250929050565b60805160a05161136e61010a600039600081816101bf0152818161042e015281816104c3015281816105e70152818161066d01526108680152600081816102eb015281816103470152818161056f015281816106eb0152818161078c0152818161092c01526109db015261136e6000f3fe6080604052600436106100ec5760003560e01c80632b1fd58a1161008a5780635fd72d16116100595780635fd72d16146102995780637cf13b53146102b9578063941675db146102d95780639a11e3391461030d57600080fd5b80632b1fd58a146102195780632e9332d414610239578063344e553d1461025957806340b578d31461027957600080fd5b80631420a266116100c65780631420a2661461016b5780631e69a79c1461018d578063201ee11e146101ad5780632b1cf2cf146101f957600080fd5b806306f33a92146100f85780630d51d53c1461012b57806310d18eff1461014b57600080fd5b366100f357005b600080fd5b34801561010457600080fd5b50610118610113366004610a9d565b61032d565b6040519081526020015b60405180910390f35b34801561013757600080fd5b50610118610146366004610b36565b6103da565b34801561015757600080fd5b50610118610166366004610bfe565b6104a9565b34801561017757600080fd5b5061018b610186366004610c54565b610549565b005b34801561019957600080fd5b5061018b6101a8366004610c80565b6105d0565b3480156101b957600080fd5b506101e17f000000000000000000000000000000000000000000000000000000000000000081565b6040516001600160a01b039091168152602001610122565b34801561020557600080fd5b5061018b610214366004610cb3565b610657565b34801561022557600080fd5b5061018b610234366004610cb3565b6106d5565b34801561024557600080fd5b5061018b610254366004610c54565b610766565b34801561026557600080fd5b50610118610274366004610cea565b6107bb565b34801561028557600080fd5b5061018b610294366004610dd1565b610851565b3480156102a557600080fd5b5061018b6102b4366004610df6565b61089f565b3480156102c557600080fd5b506101186102d4366004610e32565b610912565b3480156102e557600080fd5b506101e17f000000000000000000000000000000000000000000000000000000000000000081565b34801561031957600080fd5b5061018b610328366004610cb3565b6109c5565b6040516303799d4960e11b81526000906001600160a01b037f000000000000000000000000000000000000000000000000000000000000000016906306f33a929061038a908c908c908c908c908c908c908c908c90600401610f54565b6020604051808303816000875af11580156103a9573d6000803e3d6000fd5b505050506040513d601f19601f820116820180604052508101906103cd9190610fb1565b9998505050505050505050565b604051630592113d60e41b8152600481018890526024810187905260448101869052606481018590526001600160a01b03848116608483015261ffff841660a483015263ffffffff831660c48301526000917f00000000000000000000000000000000000000000000000000000000000000009091169063592113d09060e4016020604051808303816000875af1158015610479573d6000803e3d6000fd5b505050506040513d601f19601f8201168201806040525081019061049d9190610fb1565b98975050505050505050565b60405163c1abfa1160e01b81526000906001600160a01b037f0000000000000000000000000000000000000000000000000000000000000000169063c1abfa11906104fc90879087908790600401611122565b6020604051808303816000875af115801561051b573d6000803e3d6000fd5b505050506040513d601f19601f8201168201806040525081019061053f9190610fb1565b90505b9392505050565b604051630a10513360e11b8152600481018390526001600160a01b0382811660248301527f00000000000000000000000000000000000000000000000000000000000000001690631420a266906044015b600060405180830381600087803b1580156105b457600080fd5b505af11580156105c8573d6000803e3d6000fd5b505050505050565b604051635ec77a8160e01b81526001600160a01b037f00000000000000000000000000000000000000000000000000000000000000001690635ec77a81906106209086908690869060040161114f565b600060405180830381600087803b15801561063a57600080fd5b505af115801561064e573d6000803e3d6000fd5b50505050505050565b6040516302fed02f60e61b8152600481018290527f00000000000000000000000000000000000000000000000000000000000000006001600160a01b03169063bfb40bc0906024015b600060405180830381600087803b1580156106ba57600080fd5b505af11580156106ce573d6000803e3d6000fd5b5050505050565b6040516315196bad60e31b8152600481018290527f00000000000000000000000000000000000000000000000000000000000000006001600160a01b03169063a8cb5d68906024016060604051808303816000875af115801561073c573d6000803e3d6000fd5b505050506040513d601f19601f820116820180604052508101906107609190611172565b50505050565b604051630ba4ccb560e21b8152600481018390526001600160a01b0382811660248301527f00000000000000000000000000000000000000000000000000000000000000001690632e9332d49060440161059a565b60405163344e553d60e01b81526000906001600160a01b038d169063344e553d906107fe9030908f908f908f908f908f908f908f908f908f908f906004016111b0565b6020604051808303816000875af115801561081d573d6000803e3d6000fd5b505050506040513d601f19601f820116820180604052508101906108419190610fb1565b9c9b505050505050505050505050565b60405163050268b960e21b81526001600160a01b037f00000000000000000000000000000000000000000000000000000000000000001690631409a2e49061059a908590859060040161123c565b60405163095ea7b360e01b81526001600160a01b0383811660048301526024820183905284169063095ea7b3906044016020604051808303816000875af11580156108ee573d6000803e3d6000fd5b505050506040513d601f19601f820116820180604052508101906107609190611251565b604051637bbd53d760e01b81526000906001600160a01b037f00000000000000000000000000000000000000000000000000000000000000001690637bbd53d790610973908e908e908e908e908e908e908e908e908e908e9060040161126e565b6020604051808303816000875af1158015610992573d6000803e3d6000fd5b505050506040513d601f19601f820116820180604052508101906109b69190610fb1565b9b9a5050505050505050505050565b604051639a11e33960e01b8152600481018290527f00000000000000000000000000000000000000000000000000000000000000006001600160a01b031690639a11e339906024016106a0565b80356001600160a01b0381168114610a2957600080fd5b919050565b803563ffffffff81168114610a2957600080fd5b803561ffff81168114610a2957600080fd5b60008083601f840112610a6657600080fd5b50813567ffffffffffffffff811115610a7e57600080fd5b602083019150836020828501011115610a9657600080fd5b9250929050565b60008060008060008060008060e0898b031215610ab957600080fd5b610ac289610a12565b97506020890135965060408901359550610ade60608a01610a2e565b9450610aec60808a01610a42565b935060a089013567ffffffffffffffff811115610b0857600080fd5b610b148b828c01610a54565b9094509250610b27905060c08a01610a12565b90509295985092959890939650565b600080600080600080600060e0888a031215610b5157600080fd5b87359650602088013595506040880135945060608801359350610b7660808901610a12565b9250610b8460a08901610a42565b9150610b9260c08901610a2e565b905092959891949750929550565b60006101608284031215610bb357600080fd5b50919050565b60008083601f840112610bcb57600080fd5b50813567ffffffffffffffff811115610be357600080fd5b6020830191508360208260051b8501011115610a9657600080fd5b60008060006101808486031215610c1457600080fd5b610c1e8585610ba0565b925061016084013567ffffffffffffffff811115610c3b57600080fd5b610c4786828701610bb9565b9497909650939450505050565b60008060408385031215610c6757600080fd5b82359150610c7760208401610a12565b90509250929050565b600080600060408486031215610c9557600080fd5b83359250602084013567ffffffffffffffff811115610c3b57600080fd5b600060208284031215610cc557600080fd5b5035919050565b8015158114610cda57600080fd5b50565b60028110610cda57600080fd5b60008060008060008060008060008060006101408c8e031215610d0c57600080fd5b610d158c610a12565b9a50610d2360208d01610a2e565b9950610d3160408d01610a2e565b9850610d3f60608d01610a2e565b9750610d4d60808d01610a42565b965060a08c0135610d5d81610ccc565b955060c08c0135610d6d81610ccc565b945060e08c0135610d7d81610cdd565b93506101008c0135610d8e81610cdd565b92506101208c013567ffffffffffffffff811115610dab57600080fd5b610db78e828f01610a54565b915080935050809150509295989b509295989b9093969950565b6000806101808385031215610de557600080fd5b82359150610c778460208501610ba0565b600080600060608486031215610e0b57600080fd5b610e1484610a12565b9250610e2260208501610a12565b9150604084013590509250925092565b6000806000806000806000806000806101008b8d031215610e5257600080fd5b610e5b8b610a12565b995060208b0135985060408b01359750610e7760608c01610a2e565b9650610e8560808c01610a42565b955060a08b013567ffffffffffffffff80821115610ea257600080fd5b610eae8e838f01610a54565b9097509550859150610ec260c08e01610a12565b945060e08d0135915080821115610ed857600080fd5b818d0191508d601f830112610eec57600080fd5b813581811115610efb57600080fd5b8e60208260071b8501011115610f1057600080fd5b6020830194508093505050509295989b9194979a5092959850565b81835281816020850137506000828201602090810191909152601f909101601f19169091010190565b600060018060a01b03808b16835289602084015288604084015263ffffffff8816606084015261ffff8716608084015260e060a0840152610f9960e084018688610f2b565b915080841660c0840152509998505050505050505050565b600060208284031215610fc357600080fd5b5051919050565b803560068110610a2957600080fd5b634e487b7160e01b600052602160045260246000fd5b60068110610fff57610fff610fd9565b9052565b8035825261101360208201610a2e565b63ffffffff16602083015261102a60408201610a2e565b63ffffffff16604083015261104160608201610a42565b61ffff16606083015261105660808201610a12565b6001600160a01b03811660808401525060a081013560a083015260c081013560c083015261108660e08201610fca565b61109360e0840182610fef565b506101006110a2818301610a12565b6001600160a01b03169083015261012081810135908301526101406110c8818301610a12565b6001600160a01b03811684830152610760565b8183526000602080850194508260005b85811015611117576001600160a01b0361110483610a12565b16875295820195908201906001016110eb565b509495945050505050565b60006101806111318387611003565b8061016084015261114581840185876110db565b9695505050505050565b8381526040602082015260006111696040830184866110db565b95945050505050565b60008060006060848603121561118757600080fd5b8351925060208401519150604084015190509250925092565b60028110610cda57610cda610fd9565b6001600160a01b038c16815263ffffffff8b811660208301528a811660408301528916606082015261ffff8816608082015286151560a082015285151560c08201526000610140611200876111a0565b8660e084015261120f866111a0565b856101008401528061012084015261122a8184018587610f2b565b9e9d5050505050505050505050505050565b82815261018081016105426020830184611003565b60006020828403121561126357600080fd5b815161054281610ccc565b600061010060018060a01b03808e16845260208d8186015260408d81870152606063ffffffff8e1681880152608061ffff8e16818901528560a08901526112b88689018d8f610f2b565b8b861660c08a015288810360e08a01528981528a965084016000805b8b81101561131d578835600381106112ea578283fd5b83528887013587840152858901358684015287611308868b01610a12565b168386015297830197918301916001016112d4565b5050809750505050505050509b9a505050505050505050505056fea26469706673582212207a5ad93669de3a22ca27c0226c099dbc6f8b2328d9f5b84089afcadf686f9d0e64736f6c63430008110033",
    "linkReferences": {}
  },
  "methodIdentifiers": {
    "_acceptCommitment(uint256,uint256,uint256,uint256,address,uint16,uint32)": "0d51d53c",
    "_createCommitment((uint256,uint32,uint32,uint16,address,uint256,uint256,uint8,address,uint256,address),address[])": "10d18eff",
    "_deleteCommitment(uint256)": "2b1cf2cf",
    "_updateCommitment(uint256,(uint256,uint32,uint32,uint16,address,uint256,uint256,uint8,address,uint256,address))": "40b578d3",
    "_updateCommitmentBorrowers(uint256,address[])": "1e69a79c",
    "acceptBid(uint256)": "2b1fd58a",
    "addAllowance(address,address,uint256)": "5fd72d16",
    "approveMarketForwarder(uint256,address)": "2e9332d4",
    "commitmentForwarder()": "201ee11e",
    "createMarket(address,uint32,uint32,uint32,uint16,bool,bool,uint8,uint8,string)": "344e553d",
    "repayLoanFull(uint256)": "9a11e339",
    "setTrustedMarketForwarder(uint256,address)": "1420a266",
    "submitBid(address,uint256,uint256,uint32,uint16,string,address)": "06f33a92",
    "submitCollateralBid(address,uint256,uint256,uint32,uint16,string,address,(uint8,uint256,uint256,address)[])": "7cf13b53",
    "tellerV2()": "941675db"
  },
  "id": 98
}