{
  "abi": [
    {
      "inputs": [
        {
          "internalType": "address",
          "name": "_tellerV2",
          "type": "address"
        },
        {
          "internalType": "contract LenderCommitmentForwarder",
          "name": "_commitmentForwarder",
          "type": "address"
        }
      ],
      "stateMutability": "nonpayable",
      "type": "constructor"
    },
    {
      "inputs": [
        {
          "internalType": "uint256",
          "name": "commitmentId",
          "type": "uint256"
        },
        {
          "internalType": "uint256",
          "name": "principal",
          "type": "uint256"
        },
        {
          "internalType": "uint256",
          "name": "collateralAmount",
          "type": "uint256"
        },
        {
          "internalType": "uint256",
          "name": "collateralTokenId",
          "type": "uint256"
        }
      ],
      "name": "_acceptCommitment",
      "outputs": [
        {
          "internalType": "uint256",
          "name": "",
          "type": "uint256"
        }
      ],
      "stateMutability": "nonpayable",
      "type": "function"
    },
    {
      "inputs": [
        {
          "components": [
            {
              "internalType": "uint256",
              "name": "maxPrincipal",
              "type": "uint256"
            },
            {
              "internalType": "uint32",
              "name": "expiration",
              "type": "uint32"
            },
            {
              "internalType": "uint32",
              "name": "maxDuration",
              "type": "uint32"
            },
            {
              "internalType": "uint16",
              "name": "minInterestRate",
              "type": "uint16"
            },
            {
              "internalType": "address",
              "name": "collateralTokenAddress",
              "type": "address"
            },
            {
              "internalType": "uint256",
              "name": "collateralTokenId",
              "type": "uint256"
            },
            {
              "internalType": "uint256",
              "name": "maxPrincipalPerCollateralAmount",
              "type": "uint256"
            },
            {
              "internalType": "enum LenderCommitmentForwarder.CommitmentCollateralType",
              "name": "collateralTokenType",
              "type": "uint8"
            },
            {
              "internalType": "address",
              "name": "lender",
              "type": "address"
            },
            {
              "internalType": "uint256",
              "name": "marketId",
              "type": "uint256"
            },
            {
              "internalType": "address",
              "name": "principalTokenAddress",
              "type": "address"
            }
          ],
          "internalType": "struct LenderCommitmentForwarder.Commitment",
          "name": "_commitment",
          "type": "tuple"
        },
        {
          "internalType": "address[]",
          "name": "borrowerAddressList",
          "type": "address[]"
        }
      ],
      "name": "_createCommitment",
      "outputs": [
        {
          "internalType": "uint256",
          "name": "",
          "type": "uint256"
        }
      ],
      "stateMutability": "nonpayable",
      "type": "function"
    },
    {
      "inputs": [
        {
          "internalType": "uint256",
          "name": "_commitmentId",
          "type": "uint256"
        }
      ],
      "name": "_deleteCommitment",
      "outputs": [],
      "stateMutability": "nonpayable",
      "type": "function"
    },
    {
      "inputs": [
        {
          "internalType": "uint256",
          "name": "commitmentId",
          "type": "uint256"
        },
        {
          "components": [
            {
              "internalType": "uint256",
              "name": "maxPrincipal",
              "type": "uint256"
            },
            {
              "internalType": "uint32",
              "name": "expiration",
              "type": "uint32"
            },
            {
              "internalType": "uint32",
              "name": "maxDuration",
              "type": "uint32"
            },
            {
              "internalType": "uint16",
              "name": "minInterestRate",
              "type": "uint16"
            },
            {
              "internalType": "address",
              "name": "collateralTokenAddress",
              "type": "address"
            },
            {
              "internalType": "uint256",
              "name": "collateralTokenId",
              "type": "uint256"
            },
            {
              "internalType": "uint256",
              "name": "maxPrincipalPerCollateralAmount",
              "type": "uint256"
            },
            {
              "internalType": "enum LenderCommitmentForwarder.CommitmentCollateralType",
              "name": "collateralTokenType",
              "type": "uint8"
            },
            {
              "internalType": "address",
              "name": "lender",
              "type": "address"
            },
            {
              "internalType": "uint256",
              "name": "marketId",
              "type": "uint256"
            },
            {
              "internalType": "address",
              "name": "principalTokenAddress",
              "type": "address"
            }
          ],
          "internalType": "struct LenderCommitmentForwarder.Commitment",
          "name": "_commitment",
          "type": "tuple"
        },
        {
          "internalType": "address[]",
          "name": "borrowerAddressList",
          "type": "address[]"
        }
      ],
      "name": "_updateCommitment",
      "outputs": [],
      "stateMutability": "nonpayable",
      "type": "function"
    },
    {
      "inputs": [
        {
          "internalType": "uint256",
          "name": "_bidId",
          "type": "uint256"
        }
      ],
      "name": "acceptBid",
      "outputs": [],
      "stateMutability": "nonpayable",
      "type": "function"
    },
    {
      "inputs": [
        {
          "internalType": "address",
          "name": "_assetContractAddress",
          "type": "address"
        },
        {
          "internalType": "address",
          "name": "_spender",
          "type": "address"
        },
        {
          "internalType": "uint256",
          "name": "_amount",
          "type": "uint256"
        }
      ],
      "name": "addAllowance",
      "outputs": [],
      "stateMutability": "nonpayable",
      "type": "function"
    },
    {
      "inputs": [
        {
          "internalType": "uint256",
          "name": "_marketId",
          "type": "uint256"
        },
        {
          "internalType": "address",
          "name": "_forwarder",
          "type": "address"
        }
      ],
      "name": "approveMarketForwarder",
      "outputs": [],
      "stateMutability": "nonpayable",
      "type": "function"
    },
    {
      "inputs": [],
      "name": "commitmentForwarder",
      "outputs": [
        {
          "internalType": "contract LenderCommitmentForwarder",
          "name": "",
          "type": "address"
        }
      ],
      "stateMutability": "view",
      "type": "function"
    },
    {
      "inputs": [
        {
          "internalType": "address",
          "name": "marketRegistry",
          "type": "address"
        },
        {
          "internalType": "uint32",
          "name": "_paymentCycleDuration",
          "type": "uint32"
        },
        {
          "internalType": "uint32",
          "name": "_paymentDefaultDuration",
          "type": "uint32"
        },
        {
          "internalType": "uint32",
          "name": "_bidExpirationTime",
          "type": "uint32"
        },
        {
          "internalType": "uint16",
          "name": "_feePercent",
          "type": "uint16"
        },
        {
          "internalType": "bool",
          "name": "_requireLenderAttestation",
          "type": "bool"
        },
        {
          "internalType": "bool",
          "name": "_requireBorrowerAttestation",
          "type": "bool"
        },
        {
          "internalType": "enum PaymentType",
          "name": "_paymentType",
          "type": "uint8"
        },
        {
          "internalType": "enum PaymentCycleType",
          "name": "_paymentCycleType",
          "type": "uint8"
        },
        {
          "internalType": "string",
          "name": "_uri",
          "type": "string"
        }
      ],
      "name": "createMarket",
      "outputs": [
        {
          "internalType": "uint256",
          "name": "",
          "type": "uint256"
        }
      ],
      "stateMutability": "nonpayable",
      "type": "function"
    },
    {
      "inputs": [
        {
          "internalType": "uint256",
          "name": "_bidId",
          "type": "uint256"
        }
      ],
      "name": "repayLoanFull",
      "outputs": [],
      "stateMutability": "nonpayable",
      "type": "function"
    },
    {
      "inputs": [
        {
          "internalType": "uint256",
          "name": "_marketId",
          "type": "uint256"
        },
        {
          "internalType": "address",
          "name": "_forwarder",
          "type": "address"
        }
      ],
      "name": "setTrustedMarketForwarder",
      "outputs": [],
      "stateMutability": "nonpayable",
      "type": "function"
    },
    {
      "inputs": [
        {
          "internalType": "address",
          "name": "_lendingToken",
          "type": "address"
        },
        {
          "internalType": "uint256",
          "name": "_marketplaceId",
          "type": "uint256"
        },
        {
          "internalType": "uint256",
          "name": "_principal",
          "type": "uint256"
        },
        {
          "internalType": "uint32",
          "name": "_duration",
          "type": "uint32"
        },
        {
          "internalType": "uint16",
          "name": "_APR",
          "type": "uint16"
        },
        {
          "internalType": "string",
          "name": "_metadataURI",
          "type": "string"
        },
        {
          "internalType": "address",
          "name": "_receiver",
          "type": "address"
        }
      ],
      "name": "submitBid",
      "outputs": [
        {
          "internalType": "uint256",
          "name": "",
          "type": "uint256"
        }
      ],
      "stateMutability": "nonpayable",
      "type": "function"
    },
    {
      "inputs": [
        {
          "internalType": "address",
          "name": "_lendingToken",
          "type": "address"
        },
        {
          "internalType": "uint256",
          "name": "_marketplaceId",
          "type": "uint256"
        },
        {
          "internalType": "uint256",
          "name": "_principal",
          "type": "uint256"
        },
        {
          "internalType": "uint32",
          "name": "_duration",
          "type": "uint32"
        },
        {
          "internalType": "uint16",
          "name": "_APR",
          "type": "uint16"
        },
        {
          "internalType": "string",
          "name": "_metadataURI",
          "type": "string"
        },
        {
          "internalType": "address",
          "name": "_receiver",
          "type": "address"
        },
        {
          "components": [
            {
              "internalType": "enum CollateralType",
              "name": "_collateralType",
              "type": "uint8"
            },
            {
              "internalType": "uint256",
              "name": "_amount",
              "type": "uint256"
            },
            {
              "internalType": "uint256",
              "name": "_tokenId",
              "type": "uint256"
            },
            {
              "internalType": "address",
              "name": "_collateralAddress",
              "type": "address"
            }
          ],
          "internalType": "struct Collateral[]",
          "name": "_collateralInfo",
          "type": "tuple[]"
        }
      ],
      "name": "submitCollateralBid",
      "outputs": [
        {
          "internalType": "uint256",
          "name": "",
          "type": "uint256"
        }
      ],
      "stateMutability": "nonpayable",
      "type": "function"
    },
    {
      "inputs": [],
      "name": "tellerV2",
      "outputs": [
        {
          "internalType": "address",
          "name": "",
          "type": "address"
        }
      ],
      "stateMutability": "view",
      "type": "function"
    },
    {
      "stateMutability": "payable",
      "type": "receive"
    }
  ],
  "bytecode": {
    "object": "0x60c060405234801561001057600080fd5b506040516113a63803806113a683398101604081905261002f9161005e565b6001600160a01b039182166080521660a052610098565b6001600160a01b038116811461005b57600080fd5b50565b6000806040838503121561007157600080fd5b825161007c81610046565b602084015190925061008d81610046565b809150509250929050565b60805160a0516112a361010360003960008181610174015281816103c9015281816104ea0152818161082201526109040152600081816102a00152818161031c0152818161047301528181610568015281816106090152818161075b01526108b601526112a36000f3fe6080604052600436106100e15760003560e01c8063344e553d1161007f5780638b76a7f5116100595780638b76a7f51461026e578063941675db1461028e5780639a11e339146102c2578063ea27b345146102e257600080fd5b8063344e553d1461020e5780635fd72d161461022e5780637cf13b531461024e57600080fd5b8063201ee11e116100bb578063201ee11e146101625780632b1cf2cf146101ae5780632b1fd58a146101ce5780632e9332d4146101ee57600080fd5b806306f33a92146100ed57806310d18eff146101205780631420a2661461014057600080fd5b366100e857005b600080fd5b3480156100f957600080fd5b5061010d610108366004610a02565b610302565b6040519081526020015b60405180910390f35b34801561012c57600080fd5b5061010d61013b366004610af9565b6103af565b34801561014c57600080fd5b5061016061015b366004610b4f565b61044d565b005b34801561016e57600080fd5b506101967f000000000000000000000000000000000000000000000000000000000000000081565b6040516001600160a01b039091168152602001610117565b3480156101ba57600080fd5b506101606101c9366004610b7b565b6104d4565b3480156101da57600080fd5b506101606101e9366004610b7b565b610552565b3480156101fa57600080fd5b50610160610209366004610b4f565b6105e3565b34801561021a57600080fd5b5061010d610229366004610bb2565b610638565b34801561023a57600080fd5b50610160610249366004610c99565b6106ce565b34801561025a57600080fd5b5061010d610269366004610cd5565b610741565b34801561027a57600080fd5b5061010d610289366004610dce565b6107f4565b34801561029a57600080fd5b506101967f000000000000000000000000000000000000000000000000000000000000000081565b3480156102ce57600080fd5b506101606102dd366004610b7b565b6108a0565b3480156102ee57600080fd5b506101606102fd366004610e00565b6108ed565b6040516303799d4960e11b81526000906001600160a01b037f000000000000000000000000000000000000000000000000000000000000000016906306f33a929061035f908c908c908c908c908c908c908c908c90600401610e86565b6020604051808303816000875af115801561037e573d6000803e3d6000fd5b505050506040513d601f19601f820116820180604052508101906103a29190610ee3565b9998505050505050505050565b60405163c1abfa1160e01b81526000906001600160a01b037f0000000000000000000000000000000000000000000000000000000000000000169063c1abfa119061040290879087908790600401611054565b6020604051808303816000875af1158015610421573d6000803e3d6000fd5b505050506040513d601f19601f820116820180604052508101906104459190610ee3565b949350505050565b604051630a10513360e11b8152600481018390526001600160a01b0382811660248301527f00000000000000000000000000000000000000000000000000000000000000001690631420a266906044015b600060405180830381600087803b1580156104b857600080fd5b505af11580156104cc573d6000803e3d6000fd5b505050505050565b6040516302fed02f60e61b8152600481018290527f00000000000000000000000000000000000000000000000000000000000000006001600160a01b03169063bfb40bc0906024015b600060405180830381600087803b15801561053757600080fd5b505af115801561054b573d6000803e3d6000fd5b5050505050565b6040516315196bad60e31b8152600481018290527f00000000000000000000000000000000000000000000000000000000000000006001600160a01b03169063a8cb5d68906024016060604051808303816000875af11580156105b9573d6000803e3d6000fd5b505050506040513d601f19601f820116820180604052508101906105dd9190611081565b50505050565b604051630ba4ccb560e21b8152600481018390526001600160a01b0382811660248301527f00000000000000000000000000000000000000000000000000000000000000001690632e9332d49060440161049e565b60405163344e553d60e01b81526000906001600160a01b038d169063344e553d9061067b9030908f908f908f908f908f908f908f908f908f908f906004016110bf565b6020604051808303816000875af115801561069a573d6000803e3d6000fd5b505050506040513d601f19601f820116820180604052508101906106be9190610ee3565b9c9b505050505050505050505050565b60405163095ea7b360e01b81526001600160a01b0383811660048301526024820183905284169063095ea7b3906044016020604051808303816000875af115801561071d573d6000803e3d6000fd5b505050506040513d601f19601f820116820180604052508101906105dd919061114b565b604051637bbd53d760e01b81526000906001600160a01b037f00000000000000000000000000000000000000000000000000000000000000001690637bbd53d7906107a2908e908e908e908e908e908e908e908e908e908e9060040161116f565b6020604051808303816000875af11580156107c1573d6000803e3d6000fd5b505050506040513d601f19601f820116820180604052508101906107e59190610ee3565b9b9a5050505050505050505050565b6040516312c2950d60e11b8152600481018590526024810184905260448101839052606481018290526000907f00000000000000000000000000000000000000000000000000000000000000006001600160a01b0316906325852a1a906084016020604051808303816000875af1158015610873573d6000803e3d6000fd5b505050506040513d601f19601f820116820180604052508101906108979190610ee3565b95945050505050565b604051639a11e33960e01b8152600481018290527f00000000000000000000000000000000000000000000000000000000000000006001600160a01b031690639a11e3399060240161051d565b6040516302386b1360e31b81526001600160a01b037f000000000000000000000000000000000000000000000000000000000000000016906311c358989061093f908790879087908790600401611239565b600060405180830381600087803b15801561095957600080fd5b505af115801561096d573d6000803e3d6000fd5b5050505050505050565b80356001600160a01b038116811461098e57600080fd5b919050565b803563ffffffff8116811461098e57600080fd5b803561ffff8116811461098e57600080fd5b60008083601f8401126109cb57600080fd5b50813567ffffffffffffffff8111156109e357600080fd5b6020830191508360208285010111156109fb57600080fd5b9250929050565b60008060008060008060008060e0898b031215610a1e57600080fd5b610a2789610977565b97506020890135965060408901359550610a4360608a01610993565b9450610a5160808a016109a7565b935060a089013567ffffffffffffffff811115610a6d57600080fd5b610a798b828c016109b9565b9094509250610a8c905060c08a01610977565b90509295985092959890939650565b60006101608284031215610aae57600080fd5b50919050565b60008083601f840112610ac657600080fd5b50813567ffffffffffffffff811115610ade57600080fd5b6020830191508360208260051b85010111156109fb57600080fd5b60008060006101808486031215610b0f57600080fd5b610b198585610a9b565b925061016084013567ffffffffffffffff811115610b3657600080fd5b610b4286828701610ab4565b9497909650939450505050565b60008060408385031215610b6257600080fd5b82359150610b7260208401610977565b90509250929050565b600060208284031215610b8d57600080fd5b5035919050565b8015158114610ba257600080fd5b50565b60028110610ba257600080fd5b60008060008060008060008060008060006101408c8e031215610bd457600080fd5b610bdd8c610977565b9a50610beb60208d01610993565b9950610bf960408d01610993565b9850610c0760608d01610993565b9750610c1560808d016109a7565b965060a08c0135610c2581610b94565b955060c08c0135610c3581610b94565b945060e08c0135610c4581610ba5565b93506101008c0135610c5681610ba5565b92506101208c013567ffffffffffffffff811115610c7357600080fd5b610c7f8e828f016109b9565b915080935050809150509295989b509295989b9093969950565b600080600060608486031215610cae57600080fd5b610cb784610977565b9250610cc560208501610977565b9150604084013590509250925092565b6000806000806000806000806000806101008b8d031215610cf557600080fd5b610cfe8b610977565b995060208b0135985060408b01359750610d1a60608c01610993565b9650610d2860808c016109a7565b955060a08b013567ffffffffffffffff80821115610d4557600080fd5b610d518e838f016109b9565b9097509550859150610d6560c08e01610977565b945060e08d0135915080821115610d7b57600080fd5b818d0191508d601f830112610d8f57600080fd5b813581811115610d9e57600080fd5b8e60208260071b8501011115610db357600080fd5b6020830194508093505050509295989b9194979a5092959850565b60008060008060808587031215610de457600080fd5b5050823594602084013594506040840135936060013592509050565b6000806000806101a08587031215610e1757600080fd5b84359350610e288660208701610a9b565b925061018085013567ffffffffffffffff811115610e4557600080fd5b610e5187828801610ab4565b95989497509550505050565b81835281816020850137506000828201602090810191909152601f909101601f19169091010190565b600060018060a01b03808b16835289602084015288604084015263ffffffff8816606084015261ffff8716608084015260e060a0840152610ecb60e084018688610e5d565b915080841660c0840152509998505050505050505050565b600060208284031215610ef557600080fd5b5051919050565b80356006811061098e57600080fd5b634e487b7160e01b600052602160045260246000fd5b60068110610f3157610f31610f0b565b9052565b80358252610f4560208201610993565b63ffffffff166020830152610f5c60408201610993565b63ffffffff166040830152610f73606082016109a7565b61ffff166060830152610f8860808201610977565b6001600160a01b03811660808401525060a081013560a083015260c081013560c0830152610fb860e08201610efc565b610fc560e0840182610f21565b50610100610fd4818301610977565b6001600160a01b0316908301526101208181013590830152610140610ffa818301610977565b6001600160a01b038116848301526105dd565b8183526000602080850194508260005b85811015611049576001600160a01b0361103683610977565b168752958201959082019060010161101d565b509495945050505050565b60006101806110638387610f35565b80610160840152611077818401858761100d565b9695505050505050565b60008060006060848603121561109657600080fd5b8351925060208401519150604084015190509250925092565b60028110610ba257610ba2610f0b565b6001600160a01b038c16815263ffffffff8b811660208301528a811660408301528916606082015261ffff8816608082015286151560a082015285151560c0820152600061014061110f876110af565b8660e084015261111e866110af565b85610100840152806101208401526111398184018587610e5d565b9e9d5050505050505050505050505050565b60006020828403121561115d57600080fd5b815161116881610b94565b9392505050565b600061010060018060a01b03808e16845260208d8186015260408d81870152606063ffffffff8e1681880152608061ffff8e16818901528560a08901526111b98689018d8f610e5d565b8b861660c08a015288810360e08a01528981528a965084016000805b8b81101561121e578835600381106111eb578283fd5b83528887013587840152858901358684015287611209868b01610977565b168386015297830197918301916001016111d5565b5050809750505050505050509b9a5050505050505050505050565b60006101a086835261124e6020840187610f35565b80610180840152611262818401858761100d565b97965050505050505056fea2646970667358221220746b9b4b490d5d79608a5d4e936e8dab39f45994000e7527d9bfe4dac8f398e564736f6c63430008110033",
    "linkReferences": {}
  },
  "methodIdentifiers": {
    "_acceptCommitment(uint256,uint256,uint256,uint256)": "8b76a7f5",
    "_createCommitment((uint256,uint32,uint32,uint16,address,uint256,uint256,uint8,address,uint256,address),address[])": "10d18eff",
    "_deleteCommitment(uint256)": "2b1cf2cf",
    "_updateCommitment(uint256,(uint256,uint32,uint32,uint16,address,uint256,uint256,uint8,address,uint256,address),address[])": "ea27b345",
    "acceptBid(uint256)": "2b1fd58a",
    "addAllowance(address,address,uint256)": "5fd72d16",
    "approveMarketForwarder(uint256,address)": "2e9332d4",
    "commitmentForwarder()": "201ee11e",
    "createMarket(address,uint32,uint32,uint32,uint16,bool,bool,uint8,uint8,string)": "344e553d",
    "repayLoanFull(uint256)": "9a11e339",
    "setTrustedMarketForwarder(uint256,address)": "1420a266",
    "submitBid(address,uint256,uint256,uint32,uint16,string,address)": "06f33a92",
    "submitCollateralBid(address,uint256,uint256,uint32,uint16,string,address,(uint8,uint256,uint256,address)[])": "7cf13b53",
    "tellerV2()": "941675db"
  },
  "id": 98
}