{
  "abi": [
    {
      "inputs": [
        {
          "internalType": "address",
          "name": "_marketOwner",
          "type": "address"
        }
      ],
      "stateMutability": "nonpayable",
      "type": "constructor"
    },
    {
      "inputs": [
        {
          "internalType": "uint256",
          "name": "",
          "type": "uint256"
        }
      ],
      "name": "getMarketOwner",
      "outputs": [
        {
          "internalType": "address",
          "name": "",
          "type": "address"
        }
      ],
      "stateMutability": "view",
      "type": "function"
    },
    {
      "inputs": [
        {
          "internalType": "address",
          "name": "_marketOwner",
          "type": "address"
        }
      ],
      "name": "setMarketOwner",
      "outputs": [],
      "stateMutability": "nonpayable",
      "type": "function"
    }
  ],
  "bytecode": {
    "object": "0x608060405234801561001057600080fd5b506040516101ac3803806101ac83398101604081905261002f91610054565b600080546001600160a01b0319166001600160a01b0392909216919091179055610084565b60006020828403121561006657600080fd5b81516001600160a01b038116811461007d57600080fd5b9392505050565b610119806100936000396000f3fe6080604052348015600f57600080fd5b506004361060325760003560e01c80633d3690291460375780636cdaa42114606e575b600080fd5b60526042366004609d565b506000546001600160a01b031690565b6040516001600160a01b03909116815260200160405180910390f35b609b607936600460b5565b600080546001600160a01b0319166001600160a01b0392909216919091179055565b005b60006020828403121560ae57600080fd5b5035919050565b60006020828403121560c657600080fd5b81356001600160a01b038116811460dc57600080fd5b939250505056fea2646970667358221220fabe238b1a4af4d88d42182df6293a154c433932b7148da75e76aff7eb256ee264736f6c63430008110033",
    "linkReferences": {}
  },
  "methodIdentifiers": {
    "getMarketOwner(uint256)": "3d369029",
    "setMarketOwner(address)": "6cdaa421"
  },
  "id": 21
}