{
  "address": "0xf2086e3F92C1FE9037bD74E9491831683FC57441",
  "abi": [
    {
      "inputs": [
        {
          "internalType": "contract IMarketRegistry",
          "name": "_marketRegistry",
          "type": "address"
        }
      ],
      "stateMutability": "nonpayable",
      "type": "constructor"
    },
    {
      "anonymous": false,
      "inputs": [
        {
          "indexed": true,
          "internalType": "address",
          "name": "owner",
          "type": "address"
        },
        {
          "indexed": true,
          "internalType": "address",
          "name": "approved",
          "type": "address"
        },
        {
          "indexed": true,
          "internalType": "uint256",
          "name": "tokenId",
          "type": "uint256"
        }
      ],
      "name": "Approval",
      "type": "event"
    },
    {
      "anonymous": false,
      "inputs": [
        {
          "indexed": true,
          "internalType": "address",
          "name": "owner",
          "type": "address"
        },
        {
          "indexed": true,
          "internalType": "address",
          "name": "operator",
          "type": "address"
        },
        {
          "indexed": false,
          "internalType": "bool",
          "name": "approved",
          "type": "bool"
        }
      ],
      "name": "ApprovalForAll",
      "type": "event"
    },
    {
      "anonymous": false,
      "inputs": [
        {
          "indexed": false,
          "internalType": "uint8",
          "name": "version",
          "type": "uint8"
        }
      ],
      "name": "Initialized",
      "type": "event"
    },
    {
      "anonymous": false,
      "inputs": [
        {
          "indexed": true,
          "internalType": "address",
          "name": "previousOwner",
          "type": "address"
        },
        {
          "indexed": true,
          "internalType": "address",
          "name": "newOwner",
          "type": "address"
        }
      ],
      "name": "OwnershipTransferred",
      "type": "event"
    },
    {
      "anonymous": false,
      "inputs": [
        {
          "indexed": true,
          "internalType": "address",
          "name": "from",
          "type": "address"
        },
        {
          "indexed": true,
          "internalType": "address",
          "name": "to",
          "type": "address"
        },
        {
          "indexed": true,
          "internalType": "uint256",
          "name": "tokenId",
          "type": "uint256"
        }
      ],
      "name": "Transfer",
      "type": "event"
    },
    {
      "inputs": [
        {
          "internalType": "address",
          "name": "to",
          "type": "address"
        },
        {
          "internalType": "uint256",
          "name": "tokenId",
          "type": "uint256"
        }
      ],
      "name": "approve",
      "outputs": [],
      "stateMutability": "nonpayable",
      "type": "function"
    },
    {
      "inputs": [
        {
          "internalType": "address",
          "name": "owner",
          "type": "address"
        }
      ],
      "name": "balanceOf",
      "outputs": [
        {
          "internalType": "uint256",
          "name": "",
          "type": "uint256"
        }
      ],
      "stateMutability": "view",
      "type": "function"
    },
    {
      "inputs": [
        {
          "internalType": "uint256",
          "name": "tokenId",
          "type": "uint256"
        }
      ],
      "name": "getApproved",
      "outputs": [
        {
          "internalType": "address",
          "name": "",
          "type": "address"
        }
      ],
      "stateMutability": "view",
      "type": "function"
    },
    {
      "inputs": [],
      "name": "initialize",
      "outputs": [],
      "stateMutability": "nonpayable",
      "type": "function"
    },
    {
      "inputs": [
        {
          "internalType": "address",
          "name": "owner",
          "type": "address"
        },
        {
          "internalType": "address",
          "name": "operator",
          "type": "address"
        }
      ],
      "name": "isApprovedForAll",
      "outputs": [
        {
          "internalType": "bool",
          "name": "",
          "type": "bool"
        }
      ],
      "stateMutability": "view",
      "type": "function"
    },
    {
      "inputs": [],
      "name": "marketRegistry",
      "outputs": [
        {
          "internalType": "contract IMarketRegistry",
          "name": "",
          "type": "address"
        }
      ],
      "stateMutability": "view",
      "type": "function"
    },
    {
      "inputs": [],
      "name": "name",
      "outputs": [
        {
          "internalType": "string",
          "name": "",
          "type": "string"
        }
      ],
      "stateMutability": "view",
      "type": "function"
    },
    {
      "inputs": [],
      "name": "owner",
      "outputs": [
        {
          "internalType": "address",
          "name": "",
          "type": "address"
        }
      ],
      "stateMutability": "view",
      "type": "function"
    },
    {
      "inputs": [
        {
          "internalType": "uint256",
          "name": "tokenId",
          "type": "uint256"
        }
      ],
      "name": "ownerOf",
      "outputs": [
        {
          "internalType": "address",
          "name": "",
          "type": "address"
        }
      ],
      "stateMutability": "view",
      "type": "function"
    },
    {
      "inputs": [
        {
          "internalType": "uint256",
          "name": "_bidId",
          "type": "uint256"
        },
        {
          "internalType": "address",
          "name": "_newLender",
          "type": "address"
        }
      ],
      "name": "registerLoan",
      "outputs": [],
      "stateMutability": "nonpayable",
      "type": "function"
    },
    {
      "inputs": [],
      "name": "renounceOwnership",
      "outputs": [],
      "stateMutability": "nonpayable",
      "type": "function"
    },
    {
      "inputs": [
        {
          "internalType": "address",
          "name": "from",
          "type": "address"
        },
        {
          "internalType": "address",
          "name": "to",
          "type": "address"
        },
        {
          "internalType": "uint256",
          "name": "tokenId",
          "type": "uint256"
        }
      ],
      "name": "safeTransferFrom",
      "outputs": [],
      "stateMutability": "nonpayable",
      "type": "function"
    },
    {
      "inputs": [
        {
          "internalType": "address",
          "name": "from",
          "type": "address"
        },
        {
          "internalType": "address",
          "name": "to",
          "type": "address"
        },
        {
          "internalType": "uint256",
          "name": "tokenId",
          "type": "uint256"
        },
        {
          "internalType": "bytes",
          "name": "data",
          "type": "bytes"
        }
      ],
      "name": "safeTransferFrom",
      "outputs": [],
      "stateMutability": "nonpayable",
      "type": "function"
    },
    {
      "inputs": [
        {
          "internalType": "address",
          "name": "operator",
          "type": "address"
        },
        {
          "internalType": "bool",
          "name": "approved",
          "type": "bool"
        }
      ],
      "name": "setApprovalForAll",
      "outputs": [],
      "stateMutability": "nonpayable",
      "type": "function"
    },
    {
      "inputs": [
        {
          "internalType": "bytes4",
          "name": "interfaceId",
          "type": "bytes4"
        }
      ],
      "name": "supportsInterface",
      "outputs": [
        {
          "internalType": "bool",
          "name": "",
          "type": "bool"
        }
      ],
      "stateMutability": "view",
      "type": "function"
    },
    {
      "inputs": [],
      "name": "symbol",
      "outputs": [
        {
          "internalType": "string",
          "name": "",
          "type": "string"
        }
      ],
      "stateMutability": "view",
      "type": "function"
    },
    {
      "inputs": [
        {
          "internalType": "uint256",
          "name": "tokenId",
          "type": "uint256"
        }
      ],
      "name": "tokenURI",
      "outputs": [
        {
          "internalType": "string",
          "name": "",
          "type": "string"
        }
      ],
      "stateMutability": "view",
      "type": "function"
    },
    {
      "inputs": [
        {
          "internalType": "address",
          "name": "from",
          "type": "address"
        },
        {
          "internalType": "address",
          "name": "to",
          "type": "address"
        },
        {
          "internalType": "uint256",
          "name": "tokenId",
          "type": "uint256"
        }
      ],
      "name": "transferFrom",
      "outputs": [],
      "stateMutability": "nonpayable",
      "type": "function"
    },
    {
      "inputs": [
        {
          "internalType": "address",
          "name": "newOwner",
          "type": "address"
        }
      ],
      "name": "transferOwnership",
      "outputs": [],
      "stateMutability": "nonpayable",
      "type": "function"
    }
  ],
  "transactionHash": "0x0c7dc6656f60aad98a74980ce5b37a3f8b5bcce2700a1bf7a343e7ebca9c6648",
  "args": [
    "0xeF0f89baC623eD7C875bC2F23b5403DcF90ba8Bd"
  ],
  "numDeployments": 1,
  "solcInputHash": "dcb038258b7c483bd4ee5a8439b2afef",
  "bytecode": "0x60a060405234801561001057600080fd5b50604051611aa6380380611aa683398101604081905261002f91610040565b6001600160a01b0316608052610070565b60006020828403121561005257600080fd5b81516001600160a01b038116811461006957600080fd5b9392505050565b608051611a14610092600039600081816102b301526112970152611a146000f3fe608060405234801561001057600080fd5b50600436106101215760003560e01c80638129fc1c116100ad578063b88d4fde11610071578063b88d4fde1461024c578063c87b56dd1461025f578063e985e9c514610272578063ecb96fe6146102ae578063f2fde38b146102d557600080fd5b80638129fc1c146102055780638da5cb5b1461020d57806395d89b411461021e57806396c9983014610226578063a22cb4651461023957600080fd5b806323b872dd116100f457806323b872dd146101a357806342842e0e146101b65780636352211e146101c957806370a08231146101dc578063715018a6146101fd57600080fd5b806301ffc9a71461012657806306fdde031461014e578063081812fc14610163578063095ea7b31461018e575b600080fd5b6101396101343660046114d9565b6102e8565b60405190151581526020015b60405180910390f35b61015661033a565b604051610145919061154e565b610176610171366004611561565b6103cc565b6040516001600160a01b039091168152602001610145565b6101a161019c366004611596565b6103f3565b005b6101a16101b13660046115c0565b61050e565b6101a16101c43660046115c0565b61053f565b6101766101d7366004611561565b61055a565b6101ef6101ea3660046115fc565b6105ba565b604051908152602001610145565b6101a1610640565b6101a1610654565b6033546001600160a01b0316610176565b610156610765565b6101a1610234366004611617565b610774565b6101a1610247366004611651565b61078a565b6101a161025a36600461169e565b610795565b61015661026d366004611561565b6107cd565b61013961028036600461177a565b6001600160a01b039182166000908152609c6020908152604080832093909416825291909152205460ff1690565b6101767f000000000000000000000000000000000000000000000000000000000000000081565b6101a16102e33660046115fc565b610841565b60006001600160e01b031982166380ac58cd60e01b148061031957506001600160e01b03198216635b5e139f60e01b145b8061033457506301ffc9a760e01b6001600160e01b03198316145b92915050565b606060978054610349906117a4565b80601f0160208091040260200160405190810160405280929190818152602001828054610375906117a4565b80156103c25780601f10610397576101008083540402835291602001916103c2565b820191906000526020600020905b8154815290600101906020018083116103a557829003601f168201915b5050505050905090565b60006103d7826108b7565b506000908152609b60205260409020546001600160a01b031690565b60006103fe8261055a565b9050806001600160a01b0316836001600160a01b031614156104715760405162461bcd60e51b815260206004820152602160248201527f4552433732313a20617070726f76616c20746f2063757272656e74206f776e656044820152603960f91b60648201526084015b60405180910390fd5b336001600160a01b038216148061048d575061048d8133610280565b6104ff5760405162461bcd60e51b815260206004820152603d60248201527f4552433732313a20617070726f76652063616c6c6572206973206e6f7420746f60448201527f6b656e206f776e6572206f7220617070726f76656420666f7220616c6c0000006064820152608401610468565b6105098383610916565b505050565b6105183382610984565b6105345760405162461bcd60e51b8152600401610468906117df565b610509838383610a03565b61050983838360405180602001604052806000815250610795565b6000818152609960205260408120546001600160a01b0316806103345760405162461bcd60e51b8152602060048201526018602482015277115490cdcc8c4e881a5b9d985b1a59081d1bdad95b88125160421b6044820152606401610468565b60006001600160a01b0382166106245760405162461bcd60e51b815260206004820152602960248201527f4552433732313a2061646472657373207a65726f206973206e6f7420612076616044820152683634b21037bbb732b960b91b6064820152608401610468565b506001600160a01b03166000908152609a602052604090205490565b610648610b74565b6106526000610bce565b565b600054610100900460ff16158080156106745750600054600160ff909116105b8061068e5750303b15801561068e575060005460ff166001145b6106f15760405162461bcd60e51b815260206004820152602e60248201527f496e697469616c697a61626c653a20636f6e747261637420697320616c72656160448201526d191e481a5b9a5d1a585b1a5e995960921b6064820152608401610468565b6000805460ff191660011790558015610714576000805461ff0019166101001790555b61071c610c20565b8015610762576000805461ff0019169055604051600181527f7f26b83ff96e1f2b6a682f133852f6798a09c465da95921460cefb38474024989060200160405180910390a15b50565b606060988054610349906117a4565b61077c610b74565b6107868183610c96565b5050565b610786338383610e2f565b61079f3383610984565b6107bb5760405162461bcd60e51b8152600401610468906117df565b6107c784848484610efe565b50505050565b60606107d8826108b7565b60006107ef60408051602081019091526000815290565b9050600081511161080f576040518060200160405280600081525061083a565b8061081984610f31565b60405160200161082a92919061182c565b6040516020818303038152906040525b9392505050565b610849610b74565b6001600160a01b0381166108ae5760405162461bcd60e51b815260206004820152602660248201527f4f776e61626c653a206e6577206f776e657220697320746865207a65726f206160448201526564647265737360d01b6064820152608401610468565b61076281610bce565b6000818152609960205260409020546001600160a01b03166107625760405162461bcd60e51b8152602060048201526018602482015277115490cdcc8c4e881a5b9d985b1a59081d1bdad95b88125160421b6044820152606401610468565b6000818152609b6020526040902080546001600160a01b0319166001600160a01b038416908117909155819061094b8261055a565b6001600160a01b03167f8c5be1e5ebec7d5bd14f71427d1e84f3dd0314c0f7b2291e5b200ac8c7c3b92560405160405180910390a45050565b6000806109908361055a565b9050806001600160a01b0316846001600160a01b031614806109d757506001600160a01b038082166000908152609c602090815260408083209388168352929052205460ff165b806109fb5750836001600160a01b03166109f0846103cc565b6001600160a01b0316145b949350505050565b826001600160a01b0316610a168261055a565b6001600160a01b031614610a3c5760405162461bcd60e51b81526004016104689061185b565b6001600160a01b038216610a9e5760405162461bcd60e51b8152602060048201526024808201527f4552433732313a207472616e7366657220746f20746865207a65726f206164646044820152637265737360e01b6064820152608401610468565b610aab8383836001610fce565b826001600160a01b0316610abe8261055a565b6001600160a01b031614610ae45760405162461bcd60e51b81526004016104689061185b565b6000818152609b6020908152604080832080546001600160a01b03199081169091556001600160a01b03878116808652609a8552838620805460001901905590871680865283862080546001019055868652609990945282852080549092168417909155905184937fddf252ad1be2c89b69c2b068fc378daa952ba7f163c4a11628f55a4df523b3ef91a4505050565b6033546001600160a01b031633146106525760405162461bcd60e51b815260206004820181905260248201527f4f776e61626c653a2063616c6c6572206973206e6f7420746865206f776e65726044820152606401610468565b603380546001600160a01b038381166001600160a01b0319831681179093556040519116919082907f8be0079c531659141344cd1fd0a4f28419497f9722a3daafe3b4186f6b6457e090600090a35050565b600054610100900460ff16610c475760405162461bcd60e51b8152600401610468906118a0565b610c4f61101d565b6106526040518060400160405280600a8152602001692a32b63632b92637b0b760b11b815250604051806040016040528060038152602001622a262760e91b81525061104c565b6001600160a01b038216610cec5760405162461bcd60e51b815260206004820181905260248201527f4552433732313a206d696e7420746f20746865207a65726f20616464726573736044820152606401610468565b6000818152609960205260409020546001600160a01b031615610d515760405162461bcd60e51b815260206004820152601c60248201527f4552433732313a20746f6b656e20616c7265616479206d696e746564000000006044820152606401610468565b610d5f600083836001610fce565b6000818152609960205260409020546001600160a01b031615610dc45760405162461bcd60e51b815260206004820152601c60248201527f4552433732313a20746f6b656e20616c7265616479206d696e746564000000006044820152606401610468565b6001600160a01b0382166000818152609a6020908152604080832080546001019055848352609990915280822080546001600160a01b0319168417905551839291907fddf252ad1be2c89b69c2b068fc378daa952ba7f163c4a11628f55a4df523b3ef908290a45050565b816001600160a01b0316836001600160a01b03161415610e915760405162461bcd60e51b815260206004820152601960248201527f4552433732313a20617070726f766520746f2063616c6c6572000000000000006044820152606401610468565b6001600160a01b038381166000818152609c6020908152604080832094871680845294825291829020805460ff191686151590811790915591519182527f17307eab39ab6107e8899845ad3d59bd9653f200f220920489ca2b5937696c31910160405180910390a3505050565b610f09848484610a03565b610f158484848461107d565b6107c75760405162461bcd60e51b8152600401610468906118eb565b60606000610f3e8361118a565b600101905060008167ffffffffffffffff811115610f5e57610f5e611688565b6040519080825280601f01601f191660200182016040528015610f88576020820181803683370190505b5090508181016020015b600019016f181899199a1a9b1b9c1cb0b131b232b360811b600a86061a8153600a8504945084610fc157610fc6565b610f92565b509392505050565b610fd88383611262565b6107c75760405162461bcd60e51b8152602060048201526016602482015275139bdd08185c1c1c9bdd995908189e481b585c9ad95d60521b6044820152606401610468565b600054610100900460ff166110445760405162461bcd60e51b8152600401610468906118a0565b61065261131b565b600054610100900460ff166110735760405162461bcd60e51b8152600401610468906118a0565b610786828261134b565b60006001600160a01b0384163b1561117f57604051630a85bd0160e11b81526001600160a01b0385169063150b7a02906110c190339089908890889060040161193d565b602060405180830381600087803b1580156110db57600080fd5b505af192505050801561110b575060408051601f3d908101601f191682019092526111089181019061197a565b60015b611165573d808015611139576040519150601f19603f3d011682016040523d82523d6000602084013e61113e565b606091505b50805161115d5760405162461bcd60e51b8152600401610468906118eb565b805181602001fd5b6001600160e01b031916630a85bd0160e11b1490506109fb565b506001949350505050565b60008072184f03e93ff9f4daa797ed6e38ed64bf6a1f0160401b83106111c95772184f03e93ff9f4daa797ed6e38ed64bf6a1f0160401b830492506040015b6d04ee2d6d415b85acef810000000083106111f5576d04ee2d6d415b85acef8100000000830492506020015b662386f26fc10000831061121357662386f26fc10000830492506010015b6305f5e100831061122b576305f5e100830492506008015b612710831061123f57612710830492506004015b60648310611251576064830492506002015b600a83106103345760010192915050565b60008061126e83611399565b604051633ef19a9b60e01b8152600481018290526001600160a01b0386811660248301529192507f000000000000000000000000000000000000000000000000000000000000000090911690633ef19a9b90604401604080518083038186803b1580156112da57600080fd5b505afa1580156112ee573d6000803e3d6000fd5b505050506040513d601f19601f820116820180604052508101906113129190611997565b50949350505050565b600054610100900460ff166113425760405162461bcd60e51b8152600401610468906118a0565b61065233610bce565b600054610100900460ff166113725760405162461bcd60e51b8152600401610468906118a0565b815161138590609790602085019061142a565b50805161050990609890602084019061142a565b60006113ad6033546001600160a01b031690565b6001600160a01b03166340910c70836040518263ffffffff1660e01b81526004016113da91815260200190565b60206040518083038186803b1580156113f257600080fd5b505afa158015611406573d6000803e3d6000fd5b505050506040513d601f19601f8201168201806040525081019061033491906119c5565b828054611436906117a4565b90600052602060002090601f016020900481019282611458576000855561149e565b82601f1061147157805160ff191683800117855561149e565b8280016001018555821561149e579182015b8281111561149e578251825591602001919060010190611483565b506114aa9291506114ae565b5090565b5b808211156114aa57600081556001016114af565b6001600160e01b03198116811461076257600080fd5b6000602082840312156114eb57600080fd5b813561083a816114c3565b60005b838110156115115781810151838201526020016114f9565b838111156107c75750506000910152565b6000815180845261153a8160208601602086016114f6565b601f01601f19169290920160200192915050565b60208152600061083a6020830184611522565b60006020828403121561157357600080fd5b5035919050565b80356001600160a01b038116811461159157600080fd5b919050565b600080604083850312156115a957600080fd5b6115b28361157a565b946020939093013593505050565b6000806000606084860312156115d557600080fd5b6115de8461157a565b92506115ec6020850161157a565b9150604084013590509250925092565b60006020828403121561160e57600080fd5b61083a8261157a565b6000806040838503121561162a57600080fd5b8235915061163a6020840161157a565b90509250929050565b801515811461076257600080fd5b6000806040838503121561166457600080fd5b61166d8361157a565b9150602083013561167d81611643565b809150509250929050565b634e487b7160e01b600052604160045260246000fd5b600080600080608085870312156116b457600080fd5b6116bd8561157a565b93506116cb6020860161157a565b925060408501359150606085013567ffffffffffffffff808211156116ef57600080fd5b818701915087601f83011261170357600080fd5b81358181111561171557611715611688565b604051601f8201601f19908116603f0116810190838211818310171561173d5761173d611688565b816040528281528a602084870101111561175657600080fd5b82602086016020830137600060208483010152809550505050505092959194509250565b6000806040838503121561178d57600080fd5b6117968361157a565b915061163a6020840161157a565b600181811c908216806117b857607f821691505b602082108114156117d957634e487b7160e01b600052602260045260246000fd5b50919050565b6020808252602d908201527f4552433732313a2063616c6c6572206973206e6f7420746f6b656e206f776e6560408201526c1c881bdc88185c1c1c9bdd9959609a1b606082015260800190565b6000835161183e8184602088016114f6565b8351908301906118528183602088016114f6565b01949350505050565b60208082526025908201527f4552433732313a207472616e736665722066726f6d20696e636f72726563742060408201526437bbb732b960d91b606082015260800190565b6020808252602b908201527f496e697469616c697a61626c653a20636f6e7472616374206973206e6f74206960408201526a6e697469616c697a696e6760a81b606082015260800190565b60208082526032908201527f4552433732313a207472616e7366657220746f206e6f6e20455243373231526560408201527131b2b4bb32b91034b6b83632b6b2b73a32b960711b606082015260800190565b6001600160a01b038581168252841660208201526040810183905260806060820181905260009061197090830184611522565b9695505050505050565b60006020828403121561198c57600080fd5b815161083a816114c3565b600080604083850312156119aa57600080fd5b82516119b581611643565b6020939093015192949293505050565b6000602082840312156119d757600080fd5b505191905056fea264697066735822122081492d617fe232f4b830115f4a5a4964f28b2a1128d2a6d4fe009d9ceacde1d564736f6c63430008090033",
  "devdoc": {
    "kind": "dev",
    "methods": {
      "approve(address,uint256)": {
        "details": "See {IERC721-approve}."
      },
      "balanceOf(address)": {
        "details": "See {IERC721-balanceOf}."
      },
      "getApproved(uint256)": {
        "details": "See {IERC721-getApproved}."
      },
      "isApprovedForAll(address,address)": {
        "details": "See {IERC721-isApprovedForAll}."
      },
      "name()": {
        "details": "See {IERC721Metadata-name}."
      },
      "owner()": {
        "details": "Returns the address of the current owner."
      },
      "ownerOf(uint256)": {
        "details": "See {IERC721-ownerOf}."
      },
      "registerLoan(uint256,address)": {
        "params": {
          "_bidId": "The id for the loan to set.",
          "_newLender": "The address of the new active lender."
        }
      },
      "renounceOwnership()": {
        "details": "Leaves the contract without owner. It will not be possible to call `onlyOwner` functions anymore. Can only be called by the current owner. NOTE: Renouncing ownership will leave the contract without an owner, thereby removing any functionality that is only available to the owner."
      },
      "safeTransferFrom(address,address,uint256)": {
        "details": "See {IERC721-safeTransferFrom}."
      },
      "safeTransferFrom(address,address,uint256,bytes)": {
        "details": "See {IERC721-safeTransferFrom}."
      },
      "setApprovalForAll(address,bool)": {
        "details": "See {IERC721-setApprovalForAll}."
      },
      "supportsInterface(bytes4)": {
        "details": "See {IERC165-supportsInterface}."
      },
      "symbol()": {
        "details": "See {IERC721Metadata-symbol}."
      },
      "tokenURI(uint256)": {
        "details": "See {IERC721Metadata-tokenURI}."
      },
      "transferFrom(address,address,uint256)": {
        "details": "See {IERC721-transferFrom}."
      },
      "transferOwnership(address)": {
        "details": "Transfers ownership of the contract to a new account (`newOwner`). Can only be called by the current owner."
      }
    },
    "version": 1
  },
  "userdoc": {
    "kind": "user",
    "methods": {
      "registerLoan(uint256,address)": {
        "notice": "Registers a new active lender for a loan, minting the nft"
      }
    },
    "version": 1
  },
  "storageLayout": {
    "storage": [
      {
        "astId": 1625,
        "contract": "contracts/LenderManager.sol:LenderManager",
        "label": "_initialized",
        "offset": 0,
        "slot": "0",
        "type": "t_uint8"
      },
      {
        "astId": 1628,
        "contract": "contracts/LenderManager.sol:LenderManager",
        "label": "_initializing",
        "offset": 1,
        "slot": "0",
        "type": "t_bool"
      },
      {
        "astId": 3912,
        "contract": "contracts/LenderManager.sol:LenderManager",
        "label": "__gap",
        "offset": 0,
        "slot": "1",
        "type": "t_array(t_uint256)50_storage"
      },
      {
        "astId": 1309,
        "contract": "contracts/LenderManager.sol:LenderManager",
        "label": "_owner",
        "offset": 0,
        "slot": "51",
        "type": "t_address"
      },
      {
        "astId": 1429,
        "contract": "contracts/LenderManager.sol:LenderManager",
        "label": "__gap",
        "offset": 0,
        "slot": "52",
        "type": "t_array(t_uint256)49_storage"
      },
      {
        "astId": 4642,
        "contract": "contracts/LenderManager.sol:LenderManager",
        "label": "__gap",
        "offset": 0,
        "slot": "101",
        "type": "t_array(t_uint256)50_storage"
      },
      {
        "astId": 2485,
        "contract": "contracts/LenderManager.sol:LenderManager",
        "label": "_name",
        "offset": 0,
        "slot": "151",
        "type": "t_string_storage"
      },
      {
        "astId": 2487,
        "contract": "contracts/LenderManager.sol:LenderManager",
        "label": "_symbol",
        "offset": 0,
        "slot": "152",
        "type": "t_string_storage"
      },
      {
        "astId": 2491,
        "contract": "contracts/LenderManager.sol:LenderManager",
        "label": "_owners",
        "offset": 0,
        "slot": "153",
        "type": "t_mapping(t_uint256,t_address)"
      },
      {
        "astId": 2495,
        "contract": "contracts/LenderManager.sol:LenderManager",
        "label": "_balances",
        "offset": 0,
        "slot": "154",
        "type": "t_mapping(t_address,t_uint256)"
      },
      {
        "astId": 2499,
        "contract": "contracts/LenderManager.sol:LenderManager",
        "label": "_tokenApprovals",
        "offset": 0,
        "slot": "155",
        "type": "t_mapping(t_uint256,t_address)"
      },
      {
        "astId": 2505,
        "contract": "contracts/LenderManager.sol:LenderManager",
        "label": "_operatorApprovals",
        "offset": 0,
        "slot": "156",
        "type": "t_mapping(t_address,t_mapping(t_address,t_bool))"
      },
      {
        "astId": 3425,
        "contract": "contracts/LenderManager.sol:LenderManager",
        "label": "__gap",
        "offset": 0,
        "slot": "157",
        "type": "t_array(t_uint256)44_storage"
      }
    ],
    "types": {
      "t_address": {
        "encoding": "inplace",
        "label": "address",
        "numberOfBytes": "20"
      },
      "t_array(t_uint256)44_storage": {
        "base": "t_uint256",
        "encoding": "inplace",
        "label": "uint256[44]",
        "numberOfBytes": "1408"
      },
      "t_array(t_uint256)49_storage": {
        "base": "t_uint256",
        "encoding": "inplace",
        "label": "uint256[49]",
        "numberOfBytes": "1568"
      },
      "t_array(t_uint256)50_storage": {
        "base": "t_uint256",
        "encoding": "inplace",
        "label": "uint256[50]",
        "numberOfBytes": "1600"
      },
      "t_bool": {
        "encoding": "inplace",
        "label": "bool",
        "numberOfBytes": "1"
      },
      "t_mapping(t_address,t_bool)": {
        "encoding": "mapping",
        "key": "t_address",
        "label": "mapping(address => bool)",
        "numberOfBytes": "32",
        "value": "t_bool"
      },
      "t_mapping(t_address,t_mapping(t_address,t_bool))": {
        "encoding": "mapping",
        "key": "t_address",
        "label": "mapping(address => mapping(address => bool))",
        "numberOfBytes": "32",
        "value": "t_mapping(t_address,t_bool)"
      },
      "t_mapping(t_address,t_uint256)": {
        "encoding": "mapping",
        "key": "t_address",
        "label": "mapping(address => uint256)",
        "numberOfBytes": "32",
        "value": "t_uint256"
      },
      "t_mapping(t_uint256,t_address)": {
        "encoding": "mapping",
        "key": "t_uint256",
        "label": "mapping(uint256 => address)",
        "numberOfBytes": "32",
        "value": "t_address"
      },
      "t_string_storage": {
        "encoding": "bytes",
        "label": "string",
        "numberOfBytes": "32"
      },
      "t_uint256": {
        "encoding": "inplace",
        "label": "uint256",
        "numberOfBytes": "32"
      },
      "t_uint8": {
        "encoding": "inplace",
        "label": "uint8",
        "numberOfBytes": "1"
      }
    }
  }
}