{
  "address": "0x00212A2deF4015CFA5F0c882829CD5Fafc70f3fd",
  "abi": [
    {
      "inputs": [
        {
          "internalType": "address",
          "name": "_protocolAddress",
          "type": "address"
        },
        {
          "internalType": "address",
          "name": "_marketRegistry",
          "type": "address"
        }
      ],
      "stateMutability": "nonpayable",
      "type": "constructor"
    },
    {
      "inputs": [
        {
          "internalType": "uint256",
          "name": "required",
          "type": "uint256"
        },
        {
          "internalType": "uint256",
          "name": "actual",
          "type": "uint256"
        }
      ],
      "name": "InsufficientBorrowerCollateral",
      "type": "error"
    },
    {
      "inputs": [
        {
          "internalType": "uint256",
          "name": "allocated",
          "type": "uint256"
        },
        {
          "internalType": "uint256",
          "name": "requested",
          "type": "uint256"
        }
      ],
      "name": "InsufficientCommitmentAllocation",
      "type": "error"
    },
    {
      "anonymous": false,
      "inputs": [
        {
          "indexed": true,
          "internalType": "uint256",
          "name": "commitmentId",
          "type": "uint256"
        },
        {
          "indexed": false,
          "internalType": "address",
          "name": "lender",
          "type": "address"
        },
        {
          "indexed": false,
          "internalType": "uint256",
          "name": "marketId",
          "type": "uint256"
        },
        {
          "indexed": false,
          "internalType": "address",
          "name": "lendingToken",
          "type": "address"
        },
        {
          "indexed": false,
          "internalType": "uint256",
          "name": "tokenAmount",
          "type": "uint256"
        }
      ],
      "name": "CreatedCommitment",
      "type": "event"
    },
    {
      "anonymous": false,
      "inputs": [
        {
          "indexed": true,
          "internalType": "uint256",
          "name": "commitmentId",
          "type": "uint256"
        }
      ],
      "name": "DeletedCommitment",
      "type": "event"
    },
    {
      "anonymous": false,
      "inputs": [
        {
          "indexed": true,
          "internalType": "uint256",
          "name": "commitmentId",
          "type": "uint256"
        },
        {
          "indexed": false,
          "internalType": "address",
          "name": "borrower",
          "type": "address"
        },
        {
          "indexed": false,
          "internalType": "uint256",
          "name": "tokenAmount",
          "type": "uint256"
        },
        {
          "indexed": false,
          "internalType": "uint256",
          "name": "bidId",
          "type": "uint256"
        }
      ],
      "name": "ExercisedCommitment",
      "type": "event"
    },
    {
      "anonymous": false,
      "inputs": [
        {
          "indexed": false,
          "internalType": "uint8",
          "name": "version",
          "type": "uint8"
        }
      ],
      "name": "Initialized",
      "type": "event"
    },
    {
      "anonymous": false,
      "inputs": [
        {
          "indexed": true,
          "internalType": "uint256",
          "name": "commitmentId",
          "type": "uint256"
        },
        {
          "indexed": false,
          "internalType": "address",
          "name": "lender",
          "type": "address"
        },
        {
          "indexed": false,
          "internalType": "uint256",
          "name": "marketId",
          "type": "uint256"
        },
        {
          "indexed": false,
          "internalType": "address",
          "name": "lendingToken",
          "type": "address"
        },
        {
          "indexed": false,
          "internalType": "uint256",
          "name": "tokenAmount",
          "type": "uint256"
        }
      ],
      "name": "UpdatedCommitment",
      "type": "event"
    },
    {
      "anonymous": false,
      "inputs": [
        {
          "indexed": true,
          "internalType": "uint256",
          "name": "commitmentId",
          "type": "uint256"
        }
      ],
      "name": "UpdatedCommitmentBorrowers",
      "type": "event"
    },
    {
      "inputs": [],
      "name": "_marketRegistry",
      "outputs": [
        {
          "internalType": "address",
          "name": "",
          "type": "address"
        }
      ],
      "stateMutability": "view",
      "type": "function"
    },
    {
      "inputs": [],
      "name": "_tellerV2",
      "outputs": [
        {
          "internalType": "address",
          "name": "",
          "type": "address"
        }
      ],
      "stateMutability": "view",
      "type": "function"
    },
    {
      "inputs": [
        {
          "internalType": "uint256",
          "name": "_commitmentId",
          "type": "uint256"
        },
        {
          "internalType": "uint256",
          "name": "_principalAmount",
          "type": "uint256"
        },
        {
          "internalType": "uint256",
          "name": "_collateralAmount",
          "type": "uint256"
        },
        {
          "internalType": "uint256",
          "name": "_collateralTokenId",
          "type": "uint256"
        },
        {
          "internalType": "address",
          "name": "_collateralTokenAddress",
          "type": "address"
        },
        {
          "internalType": "uint16",
          "name": "_interestRate",
          "type": "uint16"
        },
        {
          "internalType": "uint32",
          "name": "_loanDuration",
          "type": "uint32"
        }
      ],
      "name": "acceptCommitment",
      "outputs": [
        {
          "internalType": "uint256",
          "name": "bidId",
          "type": "uint256"
        }
      ],
      "stateMutability": "nonpayable",
      "type": "function"
    },
    {
      "inputs": [
        {
          "internalType": "uint256",
          "name": "",
          "type": "uint256"
        }
      ],
      "name": "commitments",
      "outputs": [
        {
          "internalType": "uint256",
          "name": "maxPrincipal",
          "type": "uint256"
        },
        {
          "internalType": "uint32",
          "name": "expiration",
          "type": "uint32"
        },
        {
          "internalType": "uint32",
          "name": "maxDuration",
          "type": "uint32"
        },
        {
          "internalType": "uint16",
          "name": "minInterestRate",
          "type": "uint16"
        },
        {
          "internalType": "address",
          "name": "collateralTokenAddress",
          "type": "address"
        },
        {
          "internalType": "uint256",
          "name": "collateralTokenId",
          "type": "uint256"
        },
        {
          "internalType": "uint256",
          "name": "maxPrincipalPerCollateralAmount",
          "type": "uint256"
        },
        {
          "internalType": "enum LenderCommitmentForwarder.CommitmentCollateralType",
          "name": "collateralTokenType",
          "type": "uint8"
        },
        {
          "internalType": "address",
          "name": "lender",
          "type": "address"
        },
        {
          "internalType": "uint256",
          "name": "marketId",
          "type": "uint256"
        },
        {
          "internalType": "address",
          "name": "principalTokenAddress",
          "type": "address"
        }
      ],
      "stateMutability": "view",
      "type": "function"
    },
    {
      "inputs": [
        {
          "components": [
            {
              "internalType": "uint256",
              "name": "maxPrincipal",
              "type": "uint256"
            },
            {
              "internalType": "uint32",
              "name": "expiration",
              "type": "uint32"
            },
            {
              "internalType": "uint32",
              "name": "maxDuration",
              "type": "uint32"
            },
            {
              "internalType": "uint16",
              "name": "minInterestRate",
              "type": "uint16"
            },
            {
              "internalType": "address",
              "name": "collateralTokenAddress",
              "type": "address"
            },
            {
              "internalType": "uint256",
              "name": "collateralTokenId",
              "type": "uint256"
            },
            {
              "internalType": "uint256",
              "name": "maxPrincipalPerCollateralAmount",
              "type": "uint256"
            },
            {
              "internalType": "enum LenderCommitmentForwarder.CommitmentCollateralType",
              "name": "collateralTokenType",
              "type": "uint8"
            },
            {
              "internalType": "address",
              "name": "lender",
              "type": "address"
            },
            {
              "internalType": "uint256",
              "name": "marketId",
              "type": "uint256"
            },
            {
              "internalType": "address",
              "name": "principalTokenAddress",
              "type": "address"
            }
          ],
          "internalType": "struct LenderCommitmentForwarder.Commitment",
          "name": "_commitment",
          "type": "tuple"
        },
        {
          "internalType": "address[]",
          "name": "_borrowerAddressList",
          "type": "address[]"
        }
      ],
      "name": "createCommitment",
      "outputs": [
        {
          "internalType": "uint256",
          "name": "commitmentId_",
          "type": "uint256"
        }
      ],
      "stateMutability": "nonpayable",
      "type": "function"
    },
    {
      "inputs": [
        {
          "internalType": "uint256",
          "name": "_commitmentId",
          "type": "uint256"
        }
      ],
      "name": "deleteCommitment",
      "outputs": [],
      "stateMutability": "nonpayable",
      "type": "function"
    },
    {
      "inputs": [
        {
          "internalType": "uint256",
          "name": "_commitmentId",
          "type": "uint256"
        }
      ],
      "name": "getCommitmentBorrowers",
      "outputs": [
        {
          "internalType": "address[]",
          "name": "borrowers_",
          "type": "address[]"
        }
      ],
      "stateMutability": "view",
      "type": "function"
    },
    {
      "inputs": [],
      "name": "getMarketRegistry",
      "outputs": [
        {
          "internalType": "address",
          "name": "",
          "type": "address"
        }
      ],
      "stateMutability": "view",
      "type": "function"
    },
    {
      "inputs": [
        {
          "internalType": "uint256",
          "name": "_principalAmount",
          "type": "uint256"
        },
        {
          "internalType": "uint256",
          "name": "_maxPrincipalPerCollateralAmount",
          "type": "uint256"
        },
        {
          "internalType": "enum LenderCommitmentForwarder.CommitmentCollateralType",
          "name": "_collateralTokenType",
          "type": "uint8"
        },
        {
          "internalType": "address",
          "name": "_collateralTokenAddress",
          "type": "address"
        },
        {
          "internalType": "address",
          "name": "_principalTokenAddress",
          "type": "address"
        }
      ],
      "name": "getRequiredCollateral",
      "outputs": [
        {
          "internalType": "uint256",
          "name": "",
          "type": "uint256"
        }
      ],
      "stateMutability": "view",
      "type": "function"
    },
    {
      "inputs": [],
      "name": "getTellerV2",
      "outputs": [
        {
          "internalType": "address",
          "name": "",
          "type": "address"
        }
      ],
      "stateMutability": "view",
      "type": "function"
    },
    {
      "inputs": [
        {
          "internalType": "uint256",
          "name": "marketId",
          "type": "uint256"
        }
      ],
      "name": "getTellerV2MarketOwner",
      "outputs": [
        {
          "internalType": "address",
          "name": "",
          "type": "address"
        }
      ],
      "stateMutability": "nonpayable",
      "type": "function"
    },
    {
      "inputs": [
        {
          "internalType": "uint256",
          "name": "_commitmentId",
          "type": "uint256"
        },
        {
          "components": [
            {
              "internalType": "uint256",
              "name": "maxPrincipal",
              "type": "uint256"
            },
            {
              "internalType": "uint32",
              "name": "expiration",
              "type": "uint32"
            },
            {
              "internalType": "uint32",
              "name": "maxDuration",
              "type": "uint32"
            },
            {
              "internalType": "uint16",
              "name": "minInterestRate",
              "type": "uint16"
            },
            {
              "internalType": "address",
              "name": "collateralTokenAddress",
              "type": "address"
            },
            {
              "internalType": "uint256",
              "name": "collateralTokenId",
              "type": "uint256"
            },
            {
              "internalType": "uint256",
              "name": "maxPrincipalPerCollateralAmount",
              "type": "uint256"
            },
            {
              "internalType": "enum LenderCommitmentForwarder.CommitmentCollateralType",
              "name": "collateralTokenType",
              "type": "uint8"
            },
            {
              "internalType": "address",
              "name": "lender",
              "type": "address"
            },
            {
              "internalType": "uint256",
              "name": "marketId",
              "type": "uint256"
            },
            {
              "internalType": "address",
              "name": "principalTokenAddress",
              "type": "address"
            }
          ],
          "internalType": "struct LenderCommitmentForwarder.Commitment",
          "name": "_commitment",
          "type": "tuple"
        }
      ],
      "name": "updateCommitment",
      "outputs": [],
      "stateMutability": "nonpayable",
      "type": "function"
    },
    {
      "inputs": [
        {
          "internalType": "uint256",
          "name": "_commitmentId",
          "type": "uint256"
        },
        {
          "internalType": "address[]",
          "name": "_borrowerAddressList",
          "type": "address[]"
        }
      ],
      "name": "updateCommitmentBorrowers",
      "outputs": [],
      "stateMutability": "nonpayable",
      "type": "function"
    }
  ],
  "transactionHash": "0x371d9c75ca7cd5fbcdc0c912082c9be8d6ed7b2c2f1f84fc34884d4457d1297c",
  "args": [
    "0xD3D79A066F2cD471841C047D372F218252Dbf8Ed",
    "0xeF0f89baC623eD7C875bC2F23b5403DcF90ba8Bd"
  ],
  "numDeployments": 2,
  "solcInputHash": "dcb038258b7c483bd4ee5a8439b2afef",
  "bytecode": "0x60c06040523480156200001157600080fd5b50604051620021d8380380620021d8833981016040819052620000349162000069565b6001600160a01b039182166080521660a052620000a1565b80516001600160a01b03811681146200006457600080fd5b919050565b600080604083850312156200007d57600080fd5b62000088836200004c565b915062000098602084016200004c565b90509250929050565b60805160a0516120f5620000e36000396000818161024a015281816102c001526104fd01526000818161027001528181610299015261143a01526120f56000f3fe608060405234801561001057600080fd5b50600436106100cf5760003560e01c80637d458e7b1161008c578063c66b8ed211610066578063c66b8ed214610248578063dc003d5a1461026e578063eafef46e14610294578063fd7b2d91146102bb57600080fd5b80637d458e7b14610202578063bfb40bc014610222578063c1abfa111461023557600080fd5b80631409a2e4146100d45780631dcaa70d146100e957806349ce899714610119578063592113d0146101bb5780635ec77a81146101dc5780637479208b146101ef575b600080fd5b6100e76100e23660046117d9565b6102e2565b005b6100fc6100f7366004611807565b6104dc565b6040516001600160a01b0390911681526020015b60405180910390f35b6101a4610127366004611807565b6065602052600090815260409020805460018201546002830154600384015460048501546005860154600690960154949563ffffffff8086169664010000000087049091169561ffff600160401b820416956001600160a01b03600160501b9092048216959094909360ff8216936101009092048316929091168b565b6040516101109b9a99989796959493929190611836565b6101ce6101c9366004611909565b61057d565b604051908152602001610110565b6100e76101ea3660046119c7565b610a06565b6101ce6101fd366004611a20565b610a77565b610215610210366004611807565b610bcd565b6040516101109190611a7f565b6100e7610230366004611807565b610be7565b6101ce610243366004611acc565b610ccd565b7f00000000000000000000000000000000000000000000000000000000000000006100fc565b7f00000000000000000000000000000000000000000000000000000000000000006100fc565b6100fc7f000000000000000000000000000000000000000000000000000000000000000081565b6100fc7f000000000000000000000000000000000000000000000000000000000000000081565b60008281526065602052604090206004015482906001600160a01b0361010090910416331461032c5760405162461bcd60e51b815260040161032390611b09565b60405180910390fd5b6000838152606560205260409020600601546001600160a01b031661035961016084016101408501611b40565b6001600160a01b0316146103c25760405162461bcd60e51b815260206004820152602a60248201527f5072696e636970616c20746f6b656e20616464726573732063616e6e6f74206260448201526932903ab83230ba32b21760b11b6064820152608401610323565b600083815260656020526040902060050154610120830135146104275760405162461bcd60e51b815260206004820152601c60248201527f4d61726b65742049642063616e6e6f7420626520757064617465642e000000006044820152606401610323565b600083815260656020526040902082906104418282611bb4565b5050600083815260656020526040902061045a90610e0f565b827f3639fd8e82fc21d99ff6df2a4a03995fa53f752fddd525d8a9aadccefa788aa061048e61012085016101008601611b40565b6101208501356104a661016087016101408801611b40565b604080516001600160a01b03948516815260208101939093529216818301528535606082015290519081900360800190a2505050565b604051633d36902960e01b8152600481018290526000906001600160a01b037f00000000000000000000000000000000000000000000000000000000000000001690633d3690299060240160206040518083038186803b15801561053f57600080fd5b505afa158015610553573d6000803e3d6000fd5b505050506040513d601f19601f820116820180604052508101906105779190611d3a565b92915050565b6000878152606560205260408120339061059681610e0f565b60018101546001600160a01b03878116600160501b90920416146105fc5760405162461bcd60e51b815260206004820152601c60248201527f4d69736d61746368696e6720636f6c6c61746572616c20746f6b656e000000006044820152606401610323565b600181015461ffff600160401b909104811690861610156106575760405162461bcd60e51b8152602060048201526015602482015274496e76616c696420696e746572657374207261746560581b6044820152606401610323565b600181015463ffffffff640100000000909104811690851611156106bd5760405162461bcd60e51b815260206004820152601960248201527f496e76616c6964206c6f616e206d6178206475726174696f6e000000000000006044820152606401610323565b60008a81526067602052604090206106d490610fbd565b15806106f3575060008a81526067602052604090206106f39083610fc7565b61073f5760405162461bcd60e51b815260206004820181905260248201527f756e617574686f72697a656420636f6d6d69746d656e7420626f72726f7765726044820152606401610323565b805489111561076e5780546040516375d44cf160e11b81526004810191909152602481018a9052604401610323565b60038101546004820154600183015460068401546000936107ac938e93919260ff909116916001600160a01b03600160501b90910481169116610a77565b9050808910156107d95760405163b744c71960e01b815260048101829052602481018a9052604401610323565b6002600483015460ff1660058111156107f4576107f4611820565b1480610817575060048083015460ff16600581111561081557610815611820565b145b1561088457886001146108845760405162461bcd60e51b815260206004820152602f60248201527f696e76616c696420636f6d6d69746d656e7420636f6c6c61746572616c20616d60448201526e6f756e7420666f722045524337323160881b6064820152608401610323565b6002600483015460ff16600581111561089f5761089f611820565b14806108c357506003600483015460ff1660058111156108c1576108c1611820565b145b1561092957878260020154146109295760405162461bcd60e51b815260206004820152602560248201527f696e76616c696420636f6d6d69746d656e7420636f6c6c61746572616c20746f6044820152641ad95b925960da1b6064820152608401610323565b61097e8383600501548460060160009054906101000a90046001600160a01b03168d86600101600a9054906101000a90046001600160a01b03168e8e8960040160009054906101000a900460ff168d8f610fec565b93506109a1848360040160019054906101000a90046001600160a01b0316611116565b506109ac8b8b611178565b604080516001600160a01b0385168152602081018c90529081018590528b907f7839c0e772fbc0df2f1be83221fb8cd10f50be73dac060cbb277ee5c856219309060600160405180910390a2505050979650505050505050565b60008381526065602052604090206004015483906001600160a01b03610100909104163314610a475760405162461bcd60e51b815260040161032390611b09565b6000848152606760205260408120908181610a62828261178e565b50505050610a7184848461119f565b50505050565b600080846005811115610a8c57610a8c611820565b1415610a9a57506000610bc4565b600080836001600160a01b031663313ce5676040518163ffffffff1660e01b815260040160206040518083038186803b158015610ad657600080fd5b505afa158015610aea573d6000803e3d6000fd5b505050506040513d601f19601f82011682018060405250810190610b0e9190611d57565b90506001866005811115610b2457610b24611820565b1415610b9e57846001600160a01b031663313ce5676040518163ffffffff1660e01b815260040160206040518083038186803b158015610b6357600080fd5b505afa158015610b77573d6000803e3d6000fd5b505050506040513d601f19601f82011682018060405250810190610b9b9190611d57565b91505b610bbf88610bac8385611d90565b610bb790600a611e99565b89600161122c565b925050505b95945050505050565b60008181526067602052604090206060906105779061128b565b60008181526065602052604090206004015481906001600160a01b03610100909104163314610c285760405162461bcd60e51b815260040161032390611b09565b60008281526065602090815260408083208381556001810180546001600160f01b031916905560028101849055600381018490556004810180546001600160a81b03191690556005810184905560060180546001600160a01b031916905560679091528120908181610c9a828261178e565b50506040518492507fd278ecade1e148fd8320435541f72d6a02dff654c1577ae2cadecba16e8ef2149150600090a25050565b6066805460009182610cde83611ea8565b90915550905033610cf761012086016101008701611b40565b6001600160a01b031614610d4d5760405162461bcd60e51b815260206004820152601f60248201527f756e617574686f72697a656420636f6d6d69746d656e742063726561746f72006044820152606401610323565b60008181526065602052604090208490610d678282611bb4565b50506000818152606560205260409020610d8090610e0f565b610d8b81848461119f565b807f16b531d6c0bbff6da27b922e61fc528bb3ae5b435f9e56fb87e399afb6ae520a610dbf61012087016101008801611b40565b610120870135610dd761016089016101408a01611b40565b604080516001600160a01b03948516815260208101939093529216818301528735606082015290519081900360800190a29392505050565b600181015463ffffffff428116911611610e605760405162461bcd60e51b8152602060048201526012602482015271195e1c1a5c99590818dbdb5b5a5d1b595b9d60721b6044820152606401610323565b8054610eb85760405162461bcd60e51b815260206004820152602160248201527f636f6d6d69746d656e74207072696e636970616c20616c6c6f636174696f6e206044820152600360fc1b6064820152608401610323565b6000600482015460ff166005811115610ed357610ed3611820565b14610fba576000816003015411610f2c5760405162461bcd60e51b815260206004820152601d60248201527f636f6d6d69746d656e7420636f6c6c61746572616c20726174696f20300000006044820152606401610323565b6001600482015460ff166005811115610f4757610f47611820565b1415610fba57600281015415610fba5760405162461bcd60e51b815260206004820152603260248201527f636f6d6d69746d656e7420636f6c6c61746572616c20746f6b656e206964206d6044820152710757374206265203020666f722045524332360741b6064820152608401610323565b50565b6000610577825490565b6001600160a01b038116600090815260018301602052604081205415155b9392505050565b6040805160e081018252606060a08201819052600060c083018190528c83526001600160a01b038c1660208401529282018a905263ffffffff85168183015261ffff841660808301528286600581111561104857611048611820565b146110fa5760408051600180825281830190925290816020015b60408051608081018252600080825260208083018290529282018190526060820152825260001990920191018161106257905050905060405180608001604052806110ac88611298565b60028111156110bd576110bd611820565b81526020018981526020018881526020018a6001600160a01b0316815250816000815181106110ee576110ee611ec3565b60200260200101819052505b61110582828f611380565b9d9c50505050505050505050505050565b600061116e63a8cb5d6860e01b8460405160240161113691815260200190565b60408051601f198184030181529190526020810180516001600160e01b03166001600160e01b03199093169290921790915283611408565b5060019392505050565b60008281526065602052604081208054839290611196908490611ed9565b90915550505050565b60005b818110156111fb576111e88383838181106111bf576111bf611ec3565b90506020020160208101906111d49190611b40565b600086815260676020526040902090611460565b50806111f381611ea8565b9150506111a2565b5060405183907f04224de4972d2a55e811df57692f065a266ea975d06938d50b3cb33b498b161790600090a2505050565b60008061123a868686611475565b9050600183600281111561125057611250611820565b14801561126d57506000848061126857611268611ef0565b868809115b156112805761127d600182611f06565b90505b90505b949350505050565b60606000610fe583611525565b600060018260058111156112ae576112ae611820565b14156112bc57506000919050565b60028260058111156112d0576112d0611820565b14806112ed575060048260058111156112eb576112eb611820565b145b156112fa57506001919050565b600382600581111561130e5761130e611820565b148061132b5750600582600581111561132957611329611820565b145b1561133857506002919050565b60405162461bcd60e51b815260206004820152601760248201527f556e6b6e6f776e20436f6c6c61746572616c20547970650000000000000000006044820152606401610323565b600060606113f2856020015186600001518760400151886060015189608001518a60a001518b60c001518b6040516024016113c2989796959493929190611f76565b60408051601f198184030181529190526020810180516001600160e01b0316637bbd53d760e01b17905284611408565b905080806020019051810190610bc49190612040565b6060610fe58383604051602001611420929190612059565b60408051601f198184030181529190526001600160a01b037f00000000000000000000000000000000000000000000000000000000000000001690611581565b6000610fe5836001600160a01b0384166115c5565b6000808060001985870985870292508281108382030391505080600014156114b0578382816114a6576114a6611ef0565b0492505050610fe5565b8084116114bc57600080fd5b60008486880960026001871981018816978890046003810283188082028403028082028403028082028403028082028403028082028403029081029092039091026000889003889004909101858311909403939093029303949094049190911702949350505050565b60608160000180548060200260200160405190810160405280929190818152602001828054801561157557602002820191906000526020600020905b815481526020019060010190808311611561575b50505050509050919050565b6060610fe5838360006040518060400160405280601e81526020017f416464726573733a206c6f772d6c6576656c2063616c6c206661696c65640000815250611614565b600081815260018301602052604081205461160c57508154600181810184556000848152602080822090930184905584548482528286019093526040902091909155610577565b506000610577565b6060824710156116755760405162461bcd60e51b815260206004820152602660248201527f416464726573733a20696e73756666696369656e742062616c616e636520666f6044820152651c8818d85b1b60d21b6064820152608401610323565b600080866001600160a01b031685876040516116919190612090565b60006040518083038185875af1925050503d80600081146116ce576040519150601f19603f3d011682016040523d82523d6000602084013e6116d3565b606091505b50915091506116e4878383876116ef565b979650505050505050565b6060831561175b578251611754576001600160a01b0385163b6117545760405162461bcd60e51b815260206004820152601d60248201527f416464726573733a2063616c6c20746f206e6f6e2d636f6e74726163740000006044820152606401610323565b5081611283565b61128383838151156117705781518083602001fd5b8060405162461bcd60e51b815260040161032391906120ac565b5050565b5080546000825590600052602060002090810190610fba91905b808211156117bc57600081556001016117a8565b5090565b600061016082840312156117d357600080fd5b50919050565b60008061018083850312156117ed57600080fd5b823591506117fe84602085016117c0565b90509250929050565b60006020828403121561181957600080fd5b5035919050565b634e487b7160e01b600052602160045260246000fd5b8b815263ffffffff8b811660208301528a16604082015261ffff891660608201526001600160a01b038816608082015260a0810187905260c0810186905261016081016006861061188957611889611820565b8560e08301526118a56101008301866001600160a01b03169052565b836101208301526118c26101408301846001600160a01b03169052565b9c9b505050505050505050505050565b6001600160a01b0381168114610fba57600080fd5b61ffff81168114610fba57600080fd5b63ffffffff81168114610fba57600080fd5b600080600080600080600060e0888a03121561192457600080fd5b87359650602088013595506040880135945060608801359350608088013561194b816118d2565b925060a088013561195b816118e7565b915060c088013561196b816118f7565b8091505092959891949750929550565b60008083601f84011261198d57600080fd5b50813567ffffffffffffffff8111156119a557600080fd5b6020830191508360208260051b85010111156119c057600080fd5b9250929050565b6000806000604084860312156119dc57600080fd5b83359250602084013567ffffffffffffffff8111156119fa57600080fd5b611a068682870161197b565b9497909650939450505050565b60068110610fba57600080fd5b600080600080600060a08688031215611a3857600080fd5b85359450602086013593506040860135611a5181611a13565b92506060860135611a61816118d2565b91506080860135611a71816118d2565b809150509295509295909350565b6020808252825182820181905260009190848201906040850190845b81811015611ac05783516001600160a01b031683529284019291840191600101611a9b565b50909695505050505050565b60008060006101808486031215611ae257600080fd5b611aec85856117c0565b925061016084013567ffffffffffffffff8111156119fa57600080fd5b6020808252601e908201527f756e617574686f72697a656420636f6d6d69746d656e74206c656e6465720000604082015260600190565b600060208284031215611b5257600080fd5b8135610fe5816118d2565b60008135610577816118f7565b60008135610577816118e7565b60008135610577816118d2565b6000813561057781611a13565b60068210611ba157611ba1611820565b60ff1981541660ff831681178255505050565b8135815560018101611be2611bcb60208501611b5d565b825463ffffffff191663ffffffff91909116178255565b611c13611bf160408501611b5d565b825467ffffffff00000000191660209190911b67ffffffff0000000016178255565b611c48611c2260608501611b6a565b825469ffff0000000000000000191660409190911b69ffff000000000000000016178255565b611c96611c5760808501611b77565b8280547fffff0000000000000000000000000000000000000000ffffffffffffffffffff1660509290921b600160501b600160f01b0316919091179055565b5060a0820135600282015560c0820135600382015560048101611cc4611cbe60e08501611b84565b82611b91565b611cfa611cd46101008501611b77565b828054610100600160a81b03191660089290921b610100600160a81b0316919091179055565b50610120820135600582015561178a611d166101408401611b77565b6006830180546001600160a01b0319166001600160a01b0392909216919091179055565b600060208284031215611d4c57600080fd5b8151610fe5816118d2565b600060208284031215611d6957600080fd5b815160ff81168114610fe557600080fd5b634e487b7160e01b600052601160045260246000fd5b600060ff821660ff84168060ff03821115611dad57611dad611d7a565b019392505050565b600181815b80851115611df0578160001904821115611dd657611dd6611d7a565b80851615611de357918102915b93841c9390800290611dba565b509250929050565b600082611e0757506001610577565b81611e1457506000610577565b8160018114611e2a5760028114611e3457611e50565b6001915050610577565b60ff841115611e4557611e45611d7a565b50506001821b610577565b5060208310610133831016604e8410600b8410161715611e73575081810a610577565b611e7d8383611db5565b8060001904821115611e9157611e91611d7a565b029392505050565b6000610fe560ff841683611df8565b6000600019821415611ebc57611ebc611d7a565b5060010190565b634e487b7160e01b600052603260045260246000fd5b600082821015611eeb57611eeb611d7a565b500390565b634e487b7160e01b600052601260045260246000fd5b60008219821115611f1957611f19611d7a565b500190565b60005b83811015611f39578181015183820152602001611f21565b83811115610a715750506000910152565b60008151808452611f62816020860160208601611f1e565b601f01601f19169290920160200192915050565b600061010060018060a01b03808c16845260208b8186015260408b81870152606063ffffffff8c1681880152608061ffff8c16818901528560a0890152611fbf8689018c611f4a565b8a861660c08a015288810360e08a01528951808252858b0197509085019060005b81811015612027578851805160038110611ffc57611ffc611820565b8452808801518885015286810151878501528501518816858401529786019791830191600101611fe0565b5050809750505050505050509998505050505050505050565b60006020828403121561205257600080fd5b5051919050565b6000835161206b818460208801611f1e565b60609390931b6bffffffffffffffffffffffff19169190920190815260140192915050565b600082516120a2818460208701611f1e565b9190910192915050565b602081526000610fe56020830184611f4a56fea2646970667358221220a9e5069554f96c6a57ba44265d59a41b3c306970bd183876c9b957d70904aa1c64736f6c63430008090033",
  "devdoc": {
    "events": {
      "CreatedCommitment(uint256,address,uint256,address,uint256)": {
        "params": {
          "lender": "The address of the lender.",
          "lendingToken": "The address of the asset being committed.",
          "marketId": "The Id of the market the commitment applies to.",
          "tokenAmount": "The amount of the asset being committed."
        }
      },
      "DeletedCommitment(uint256)": {
        "params": {
          "commitmentId": "The id of the commitment that was deleted."
        }
      },
      "ExercisedCommitment(uint256,address,uint256,uint256)": {
        "params": {
          "bidId": "The bid id for the loan from TellerV2.",
          "borrower": "The address of the borrower.",
          "commitmentId": "The id of the commitment that was exercised.",
          "tokenAmount": "The amount of the asset being committed."
        }
      },
      "UpdatedCommitment(uint256,address,uint256,address,uint256)": {
        "params": {
          "commitmentId": "The id of the commitment that was updated.",
          "lender": "The address of the lender.",
          "lendingToken": "The address of the asset being committed.",
          "marketId": "The Id of the market the commitment applies to.",
          "tokenAmount": "The amount of the asset being committed."
        }
      },
      "UpdatedCommitmentBorrowers(uint256)": {
        "params": {
          "commitmentId": "The id of the commitment that was updated."
        }
      }
    },
    "kind": "dev",
    "methods": {
      "acceptCommitment(uint256,uint256,uint256,uint256,address,uint16,uint32)": {
        "details": "LoanDuration must be longer than the market payment cycle",
        "params": {
          "_collateralAmount": "The amount of collateral to use for the loan.",
          "_collateralTokenAddress": "The contract address to use for the loan collateral token.s",
          "_collateralTokenId": "The tokenId of collateral to use for the loan if ERC721 or ERC1155.",
          "_commitmentId": "The id of the commitment being accepted.",
          "_interestRate": "The interest rate APY to use for the loan in basis points.",
          "_loanDuration": "The overall duratiion for the loan.  Must be longer than market payment cycle duration.",
          "_principalAmount": "The amount of currency to borrow for the loan."
        },
        "returns": {
          "bidId": "The ID of the loan that was created on TellerV2"
        }
      },
      "createCommitment((uint256,uint32,uint32,uint16,address,uint256,uint256,uint8,address,uint256,address),address[])": {
        "params": {
          "_borrowerAddressList": "The array of borrowers that are allowed to accept loans using this commitment",
          "_commitment": "The new commitment data expressed as a struct"
        },
        "returns": {
          "commitmentId_": "returns the commitmentId for the created commitment"
        }
      },
      "deleteCommitment(uint256)": {
        "params": {
          "_commitmentId": "The id of the commitment to delete."
        }
      },
      "getCommitmentBorrowers(uint256)": {
        "params": {
          "_commitmentId": "The commitment id for the commitment to query."
        },
        "returns": {
          "borrowers_": "An array of addresses restricted to accept the commitment. Empty array means unrestricted."
        }
      },
      "getRequiredCollateral(uint256,uint256,uint8,address,address)": {
        "params": {
          "_collateralTokenAddress": "The contract address for the collateral for the loan.",
          "_collateralTokenType": "The type of collateral for the loan either ERC20, ERC721, ERC1155, or None.",
          "_maxPrincipalPerCollateralAmount": "The ratio for the amount of principal that can be borrowed for each amount of collateral. This is expanded additionally by the principal decimals.",
          "_principalAmount": "The amount of currency to borrow for the loan.",
          "_principalTokenAddress": "The contract address for the principal for the loan."
        }
      },
      "updateCommitment(uint256,(uint256,uint32,uint32,uint16,address,uint256,uint256,uint8,address,uint256,address))": {
        "params": {
          "_commitment": "The new commitment data expressed as a struct",
          "_commitmentId": "The Id of the commitment to update."
        }
      },
      "updateCommitmentBorrowers(uint256,address[])": {
        "params": {
          "_borrowerAddressList": "The array of borrowers that are allowed to accept loans using this commitment",
          "_commitmentId": "The Id of the commitment to update."
        }
      }
    },
    "version": 1
  },
  "userdoc": {
    "events": {
      "CreatedCommitment(uint256,address,uint256,address,uint256)": {
        "notice": "This event is emitted when a lender's commitment is created."
      },
      "DeletedCommitment(uint256)": {
        "notice": "This event is emitted when a lender's commitment has been deleted."
      },
      "ExercisedCommitment(uint256,address,uint256,uint256)": {
        "notice": "This event is emitted when a lender's commitment is exercised for a loan."
      },
      "UpdatedCommitment(uint256,address,uint256,address,uint256)": {
        "notice": "This event is emitted when a lender's commitment is updated."
      },
      "UpdatedCommitmentBorrowers(uint256)": {
        "notice": "This event is emitted when the allowed borrowers for a commitment is updated."
      }
    },
    "kind": "user",
    "methods": {
      "acceptCommitment(uint256,uint256,uint256,uint256,address,uint16,uint32)": {
        "notice": "Accept the commitment to submitBid and acceptBid using the funds"
      },
      "constructor": {
        "notice": "External Functions *"
      },
      "createCommitment((uint256,uint32,uint32,uint16,address,uint256,uint256,uint8,address,uint256,address),address[])": {
        "notice": "Creates a loan commitment from a lender for a market."
      },
      "deleteCommitment(uint256)": {
        "notice": "Removes the commitment of a lender to a market."
      },
      "getCommitmentBorrowers(uint256)": {
        "notice": "Return the array of borrowers that are allowlisted for a commitment"
      },
      "getRequiredCollateral(uint256,uint256,uint8,address,address)": {
        "notice": "Calculate the amount of collateral required to borrow a loan with _principalAmount of principal"
      },
      "updateCommitment(uint256,(uint256,uint32,uint32,uint16,address,uint256,uint256,uint8,address,uint256,address))": {
        "notice": "Updates the commitment of a lender to a market."
      },
      "updateCommitmentBorrowers(uint256,address[])": {
        "notice": "Updates the borrowers allowed to accept a commitment"
      }
    },
    "version": 1
  },
  "storageLayout": {
    "storage": [
      {
        "astId": 1625,
        "contract": "contracts/LenderCommitmentForwarder.sol:LenderCommitmentForwarder",
        "label": "_initialized",
        "offset": 0,
        "slot": "0",
        "type": "t_uint8"
      },
      {
        "astId": 1628,
        "contract": "contracts/LenderCommitmentForwarder.sol:LenderCommitmentForwarder",
        "label": "_initializing",
        "offset": 1,
        "slot": "0",
        "type": "t_bool"
      },
      {
        "astId": 3912,
        "contract": "contracts/LenderCommitmentForwarder.sol:LenderCommitmentForwarder",
        "label": "__gap",
        "offset": 0,
        "slot": "1",
        "type": "t_array(t_uint256)50_storage"
      },
      {
        "astId": 23566,
        "contract": "contracts/LenderCommitmentForwarder.sol:LenderCommitmentForwarder",
        "label": "__gap",
        "offset": 0,
        "slot": "51",
        "type": "t_array(t_uint256)50_storage"
      },
      {
        "astId": 17113,
        "contract": "contracts/LenderCommitmentForwarder.sol:LenderCommitmentForwarder",
        "label": "commitments",
        "offset": 0,
        "slot": "101",
        "type": "t_mapping(t_uint256,t_struct(Commitment)17108_storage)"
      },
      {
        "astId": 17115,
        "contract": "contracts/LenderCommitmentForwarder.sol:LenderCommitmentForwarder",
        "label": "commitmentCount",
        "offset": 0,
        "slot": "102",
        "type": "t_uint256"
      },
      {
        "astId": 17120,
        "contract": "contracts/LenderCommitmentForwarder.sol:LenderCommitmentForwarder",
        "label": "commitmentBorrowersList",
        "offset": 0,
        "slot": "103",
        "type": "t_mapping(t_uint256,t_struct(AddressSet)5846_storage)"
      }
    ],
    "types": {
      "t_address": {
        "encoding": "inplace",
        "label": "address",
        "numberOfBytes": "20"
      },
      "t_array(t_bytes32)dyn_storage": {
        "base": "t_bytes32",
        "encoding": "dynamic_array",
        "label": "bytes32[]",
        "numberOfBytes": "32"
      },
      "t_array(t_uint256)50_storage": {
        "base": "t_uint256",
        "encoding": "inplace",
        "label": "uint256[50]",
        "numberOfBytes": "1600"
      },
      "t_bool": {
        "encoding": "inplace",
        "label": "bool",
        "numberOfBytes": "1"
      },
      "t_bytes32": {
        "encoding": "inplace",
        "label": "bytes32",
        "numberOfBytes": "32"
      },
      "t_enum(CommitmentCollateralType)17084": {
        "encoding": "inplace",
        "label": "enum LenderCommitmentForwarder.CommitmentCollateralType",
        "numberOfBytes": "1"
      },
      "t_mapping(t_bytes32,t_uint256)": {
        "encoding": "mapping",
        "key": "t_bytes32",
        "label": "mapping(bytes32 => uint256)",
        "numberOfBytes": "32",
        "value": "t_uint256"
      },
      "t_mapping(t_uint256,t_struct(AddressSet)5846_storage)": {
        "encoding": "mapping",
        "key": "t_uint256",
        "label": "mapping(uint256 => struct EnumerableSetUpgradeable.AddressSet)",
        "numberOfBytes": "32",
        "value": "t_struct(AddressSet)5846_storage"
      },
      "t_mapping(t_uint256,t_struct(Commitment)17108_storage)": {
        "encoding": "mapping",
        "key": "t_uint256",
        "label": "mapping(uint256 => struct LenderCommitmentForwarder.Commitment)",
        "numberOfBytes": "32",
        "value": "t_struct(Commitment)17108_storage"
      },
      "t_struct(AddressSet)5846_storage": {
        "encoding": "inplace",
        "label": "struct EnumerableSetUpgradeable.AddressSet",
        "members": [
          {
            "astId": 5845,
            "contract": "contracts/LenderCommitmentForwarder.sol:LenderCommitmentForwarder",
            "label": "_inner",
            "offset": 0,
            "slot": "0",
            "type": "t_struct(Set)5531_storage"
          }
        ],
        "numberOfBytes": "64"
      },
      "t_struct(Commitment)17108_storage": {
        "encoding": "inplace",
        "label": "struct LenderCommitmentForwarder.Commitment",
        "members": [
          {
            "astId": 17086,
            "contract": "contracts/LenderCommitmentForwarder.sol:LenderCommitmentForwarder",
            "label": "maxPrincipal",
            "offset": 0,
            "slot": "0",
            "type": "t_uint256"
          },
          {
            "astId": 17088,
            "contract": "contracts/LenderCommitmentForwarder.sol:LenderCommitmentForwarder",
            "label": "expiration",
            "offset": 0,
            "slot": "1",
            "type": "t_uint32"
          },
          {
            "astId": 17090,
            "contract": "contracts/LenderCommitmentForwarder.sol:LenderCommitmentForwarder",
            "label": "maxDuration",
            "offset": 4,
            "slot": "1",
            "type": "t_uint32"
          },
          {
            "astId": 17092,
            "contract": "contracts/LenderCommitmentForwarder.sol:LenderCommitmentForwarder",
            "label": "minInterestRate",
            "offset": 8,
            "slot": "1",
            "type": "t_uint16"
          },
          {
            "astId": 17094,
            "contract": "contracts/LenderCommitmentForwarder.sol:LenderCommitmentForwarder",
            "label": "collateralTokenAddress",
            "offset": 10,
            "slot": "1",
            "type": "t_address"
          },
          {
            "astId": 17096,
            "contract": "contracts/LenderCommitmentForwarder.sol:LenderCommitmentForwarder",
            "label": "collateralTokenId",
            "offset": 0,
            "slot": "2",
            "type": "t_uint256"
          },
          {
            "astId": 17098,
            "contract": "contracts/LenderCommitmentForwarder.sol:LenderCommitmentForwarder",
            "label": "maxPrincipalPerCollateralAmount",
            "offset": 0,
            "slot": "3",
            "type": "t_uint256"
          },
          {
            "astId": 17101,
            "contract": "contracts/LenderCommitmentForwarder.sol:LenderCommitmentForwarder",
            "label": "collateralTokenType",
            "offset": 0,
            "slot": "4",
            "type": "t_enum(CommitmentCollateralType)17084"
          },
          {
            "astId": 17103,
            "contract": "contracts/LenderCommitmentForwarder.sol:LenderCommitmentForwarder",
            "label": "lender",
            "offset": 1,
            "slot": "4",
            "type": "t_address"
          },
          {
            "astId": 17105,
            "contract": "contracts/LenderCommitmentForwarder.sol:LenderCommitmentForwarder",
            "label": "marketId",
            "offset": 0,
            "slot": "5",
            "type": "t_uint256"
          },
          {
            "astId": 17107,
            "contract": "contracts/LenderCommitmentForwarder.sol:LenderCommitmentForwarder",
            "label": "principalTokenAddress",
            "offset": 0,
            "slot": "6",
            "type": "t_address"
          }
        ],
        "numberOfBytes": "224"
      },
      "t_struct(Set)5531_storage": {
        "encoding": "inplace",
        "label": "struct EnumerableSetUpgradeable.Set",
        "members": [
          {
            "astId": 5526,
            "contract": "contracts/LenderCommitmentForwarder.sol:LenderCommitmentForwarder",
            "label": "_values",
            "offset": 0,
            "slot": "0",
            "type": "t_array(t_bytes32)dyn_storage"
          },
          {
            "astId": 5530,
            "contract": "contracts/LenderCommitmentForwarder.sol:LenderCommitmentForwarder",
            "label": "_indexes",
            "offset": 0,
            "slot": "1",
            "type": "t_mapping(t_bytes32,t_uint256)"
          }
        ],
        "numberOfBytes": "64"
      },
      "t_uint16": {
        "encoding": "inplace",
        "label": "uint16",
        "numberOfBytes": "2"
      },
      "t_uint256": {
        "encoding": "inplace",
        "label": "uint256",
        "numberOfBytes": "32"
      },
      "t_uint32": {
        "encoding": "inplace",
        "label": "uint32",
        "numberOfBytes": "4"
      },
      "t_uint8": {
        "encoding": "inplace",
        "label": "uint8",
        "numberOfBytes": "1"
      }
    }
  }
}