{
  "address": "0x9065E7b11d8de642676B49e16A37EF0B7D38e489",
  "abi": [
    {
      "inputs": [],
      "name": "NotPayable",
      "type": "error"
    },
    {
      "anonymous": false,
      "inputs": [
        {
          "indexed": false,
          "internalType": "uint256",
          "name": "marketId",
          "type": "uint256"
        },
        {
          "indexed": false,
          "internalType": "address",
          "name": "borrower",
          "type": "address"
        }
      ],
      "name": "BorrowerAttestation",
      "type": "event"
    },
    {
      "anonymous": false,
      "inputs": [
        {
          "indexed": false,
          "internalType": "uint256",
          "name": "marketId",
          "type": "uint256"
        },
        {
          "indexed": false,
          "internalType": "address",
          "name": "borrower",
          "type": "address"
        }
      ],
      "name": "BorrowerExitMarket",
      "type": "event"
    },
    {
      "anonymous": false,
      "inputs": [
        {
          "indexed": false,
          "internalType": "uint256",
          "name": "marketId",
          "type": "uint256"
        },
        {
          "indexed": false,
          "internalType": "address",
          "name": "borrower",
          "type": "address"
        }
      ],
      "name": "BorrowerRevocation",
      "type": "event"
    },
    {
      "anonymous": false,
      "inputs": [
        {
          "indexed": false,
          "internalType": "uint256",
          "name": "marketId",
          "type": "uint256"
        },
        {
          "indexed": false,
          "internalType": "address",
          "name": "lender",
          "type": "address"
        }
      ],
      "name": "LenderAttestation",
      "type": "event"
    },
    {
      "anonymous": false,
      "inputs": [
        {
          "indexed": false,
          "internalType": "uint256",
          "name": "marketId",
          "type": "uint256"
        },
        {
          "indexed": false,
          "internalType": "address",
          "name": "lender",
          "type": "address"
        }
      ],
      "name": "LenderExitMarket",
      "type": "event"
    },
    {
      "anonymous": false,
      "inputs": [
        {
          "indexed": false,
          "internalType": "uint256",
          "name": "marketId",
          "type": "uint256"
        },
        {
          "indexed": false,
          "internalType": "address",
          "name": "lender",
          "type": "address"
        }
      ],
      "name": "LenderRevocation",
      "type": "event"
    },
    {
      "anonymous": false,
      "inputs": [
        {
          "indexed": false,
          "internalType": "uint256",
          "name": "marketId",
          "type": "uint256"
        }
      ],
      "name": "MarketClosed",
      "type": "event"
    },
    {
      "anonymous": false,
      "inputs": [
        {
          "indexed": true,
          "internalType": "address",
          "name": "owner",
          "type": "address"
        },
        {
          "indexed": false,
          "internalType": "uint256",
          "name": "marketId",
          "type": "uint256"
        }
      ],
      "name": "MarketCreated",
      "type": "event"
    },
    {
      "anonymous": false,
      "inputs": [
        {
          "indexed": false,
          "internalType": "uint256",
          "name": "marketId",
          "type": "uint256"
        },
        {
          "indexed": false,
          "internalType": "uint32",
          "name": "duration",
          "type": "uint32"
        }
      ],
      "name": "SetBidExpirationTime",
      "type": "event"
    },
    {
      "anonymous": false,
      "inputs": [
        {
          "indexed": false,
          "internalType": "uint256",
          "name": "marketId",
          "type": "uint256"
        },
        {
          "indexed": false,
          "internalType": "bool",
          "name": "required",
          "type": "bool"
        }
      ],
      "name": "SetMarketBorrowerAttestation",
      "type": "event"
    },
    {
      "anonymous": false,
      "inputs": [
        {
          "indexed": false,
          "internalType": "uint256",
          "name": "marketId",
          "type": "uint256"
        },
        {
          "indexed": false,
          "internalType": "uint16",
          "name": "feePct",
          "type": "uint16"
        }
      ],
      "name": "SetMarketFee",
      "type": "event"
    },
    {
      "anonymous": false,
      "inputs": [
        {
          "indexed": false,
          "internalType": "uint256",
          "name": "marketId",
          "type": "uint256"
        },
        {
          "indexed": false,
          "internalType": "address",
          "name": "newRecipient",
          "type": "address"
        }
      ],
      "name": "SetMarketFeeRecipient",
      "type": "event"
    },
    {
      "anonymous": false,
      "inputs": [
        {
          "indexed": false,
          "internalType": "uint256",
          "name": "marketId",
          "type": "uint256"
        },
        {
          "indexed": false,
          "internalType": "bool",
          "name": "required",
          "type": "bool"
        }
      ],
      "name": "SetMarketLenderAttestation",
      "type": "event"
    },
    {
      "anonymous": false,
      "inputs": [
        {
          "indexed": false,
          "internalType": "uint256",
          "name": "marketId",
          "type": "uint256"
        },
        {
          "indexed": false,
          "internalType": "address",
          "name": "newOwner",
          "type": "address"
        }
      ],
      "name": "SetMarketOwner",
      "type": "event"
    },
    {
      "anonymous": false,
      "inputs": [
        {
          "indexed": false,
          "internalType": "uint256",
          "name": "marketId",
          "type": "uint256"
        },
        {
          "indexed": false,
          "internalType": "enum V2Calculations.PaymentType",
          "name": "paymentType",
          "type": "uint8"
        }
      ],
      "name": "SetMarketPaymentType",
      "type": "event"
    },
    {
      "anonymous": false,
      "inputs": [
        {
          "indexed": false,
          "internalType": "uint256",
          "name": "marketId",
          "type": "uint256"
        },
        {
          "indexed": false,
          "internalType": "string",
          "name": "uri",
          "type": "string"
        }
      ],
      "name": "SetMarketURI",
      "type": "event"
    },
    {
      "anonymous": false,
      "inputs": [
        {
          "indexed": false,
          "internalType": "uint256",
          "name": "marketId",
          "type": "uint256"
        },
        {
          "indexed": false,
          "internalType": "uint32",
          "name": "duration",
          "type": "uint32"
        }
      ],
      "name": "SetPaymentCycleDuration",
      "type": "event"
    },
    {
      "anonymous": false,
      "inputs": [
        {
          "indexed": false,
          "internalType": "uint256",
          "name": "marketId",
          "type": "uint256"
        },
        {
          "indexed": false,
          "internalType": "uint32",
          "name": "duration",
          "type": "uint32"
        }
      ],
      "name": "SetPaymentDefaultDuration",
      "type": "event"
    },
    {
      "inputs": [],
      "name": "CURRENT_CODE_VERSION",
      "outputs": [
        {
          "internalType": "uint256",
          "name": "",
          "type": "uint256"
        }
      ],
      "stateMutability": "view",
      "type": "function"
    },
    {
      "inputs": [
        {
          "internalType": "uint256",
          "name": "_marketId",
          "type": "uint256"
        },
        {
          "internalType": "address",
          "name": "_borrowerAddress",
          "type": "address"
        },
        {
          "internalType": "uint256",
          "name": "_expirationTime",
          "type": "uint256"
        },
        {
          "internalType": "uint8",
          "name": "_v",
          "type": "uint8"
        },
        {
          "internalType": "bytes32",
          "name": "_r",
          "type": "bytes32"
        },
        {
          "internalType": "bytes32",
          "name": "_s",
          "type": "bytes32"
        }
      ],
      "name": "attestBorrower",
      "outputs": [],
      "stateMutability": "nonpayable",
      "type": "function"
    },
    {
      "inputs": [
        {
          "internalType": "uint256",
          "name": "_marketId",
          "type": "uint256"
        },
        {
          "internalType": "address",
          "name": "_borrowerAddress",
          "type": "address"
        },
        {
          "internalType": "uint256",
          "name": "_expirationTime",
          "type": "uint256"
        }
      ],
      "name": "attestBorrower",
      "outputs": [],
      "stateMutability": "nonpayable",
      "type": "function"
    },
    {
      "inputs": [
        {
          "internalType": "uint256",
          "name": "_marketId",
          "type": "uint256"
        },
        {
          "internalType": "address",
          "name": "_lenderAddress",
          "type": "address"
        },
        {
          "internalType": "uint256",
          "name": "_expirationTime",
          "type": "uint256"
        },
        {
          "internalType": "uint8",
          "name": "_v",
          "type": "uint8"
        },
        {
          "internalType": "bytes32",
          "name": "_r",
          "type": "bytes32"
        },
        {
          "internalType": "bytes32",
          "name": "_s",
          "type": "bytes32"
        }
      ],
      "name": "attestLender",
      "outputs": [],
      "stateMutability": "nonpayable",
      "type": "function"
    },
    {
      "inputs": [
        {
          "internalType": "uint256",
          "name": "_marketId",
          "type": "uint256"
        },
        {
          "internalType": "address",
          "name": "_lenderAddress",
          "type": "address"
        },
        {
          "internalType": "uint256",
          "name": "_expirationTime",
          "type": "uint256"
        }
      ],
      "name": "attestLender",
      "outputs": [],
      "stateMutability": "nonpayable",
      "type": "function"
    },
    {
      "inputs": [],
      "name": "borrowerAttestationSchemaId",
      "outputs": [
        {
          "internalType": "bytes32",
          "name": "",
          "type": "bytes32"
        }
      ],
      "stateMutability": "view",
      "type": "function"
    },
    {
      "inputs": [
        {
          "internalType": "uint256",
          "name": "_marketId",
          "type": "uint256"
        }
      ],
      "name": "borrowerExitMarket",
      "outputs": [],
      "stateMutability": "nonpayable",
      "type": "function"
    },
    {
      "inputs": [
        {
          "internalType": "uint256",
          "name": "_marketId",
          "type": "uint256"
        }
      ],
      "name": "closeMarket",
      "outputs": [],
      "stateMutability": "nonpayable",
      "type": "function"
    },
    {
      "inputs": [
        {
          "internalType": "address",
          "name": "_initialOwner",
          "type": "address"
        },
        {
          "internalType": "uint32",
          "name": "_paymentCycleDuration",
          "type": "uint32"
        },
        {
          "internalType": "uint32",
          "name": "_paymentDefaultDuration",
          "type": "uint32"
        },
        {
          "internalType": "uint32",
          "name": "_bidExpirationTime",
          "type": "uint32"
        },
        {
          "internalType": "uint16",
          "name": "_feePercent",
          "type": "uint16"
        },
        {
          "internalType": "bool",
          "name": "_requireLenderAttestation",
          "type": "bool"
        },
        {
          "internalType": "bool",
          "name": "_requireBorrowerAttestation",
          "type": "bool"
        },
        {
          "internalType": "enum V2Calculations.PaymentType",
          "name": "_paymentType",
          "type": "uint8"
        },
        {
          "internalType": "string",
          "name": "_uri",
          "type": "string"
        }
      ],
      "name": "createMarket",
      "outputs": [
        {
          "internalType": "uint256",
          "name": "marketId_",
          "type": "uint256"
        }
      ],
      "stateMutability": "nonpayable",
      "type": "function"
    },
    {
      "inputs": [
        {
          "internalType": "address",
          "name": "_initialOwner",
          "type": "address"
        },
        {
          "internalType": "uint32",
          "name": "_paymentCycleDuration",
          "type": "uint32"
        },
        {
          "internalType": "uint32",
          "name": "_paymentDefaultDuration",
          "type": "uint32"
        },
        {
          "internalType": "uint32",
          "name": "_bidExpirationTime",
          "type": "uint32"
        },
        {
          "internalType": "uint16",
          "name": "_feePercent",
          "type": "uint16"
        },
        {
          "internalType": "bool",
          "name": "_requireLenderAttestation",
          "type": "bool"
        },
        {
          "internalType": "bool",
          "name": "_requireBorrowerAttestation",
          "type": "bool"
        },
        {
          "internalType": "string",
          "name": "_uri",
          "type": "string"
        }
      ],
      "name": "createMarket",
      "outputs": [
        {
          "internalType": "uint256",
          "name": "marketId_",
          "type": "uint256"
        }
      ],
      "stateMutability": "nonpayable",
      "type": "function"
    },
    {
      "inputs": [
        {
          "internalType": "uint256",
          "name": "_marketId",
          "type": "uint256"
        },
        {
          "internalType": "uint256",
          "name": "_page",
          "type": "uint256"
        },
        {
          "internalType": "uint256",
          "name": "_perPage",
          "type": "uint256"
        }
      ],
      "name": "getAllVerifiedBorrowersForMarket",
      "outputs": [
        {
          "internalType": "address[]",
          "name": "",
          "type": "address[]"
        }
      ],
      "stateMutability": "view",
      "type": "function"
    },
    {
      "inputs": [
        {
          "internalType": "uint256",
          "name": "_marketId",
          "type": "uint256"
        },
        {
          "internalType": "uint256",
          "name": "_page",
          "type": "uint256"
        },
        {
          "internalType": "uint256",
          "name": "_perPage",
          "type": "uint256"
        }
      ],
      "name": "getAllVerifiedLendersForMarket",
      "outputs": [
        {
          "internalType": "address[]",
          "name": "",
          "type": "address[]"
        }
      ],
      "stateMutability": "view",
      "type": "function"
    },
    {
      "inputs": [
        {
          "internalType": "uint256",
          "name": "marketId",
          "type": "uint256"
        }
      ],
      "name": "getBidExpirationTime",
      "outputs": [
        {
          "internalType": "uint32",
          "name": "",
          "type": "uint32"
        }
      ],
      "stateMutability": "view",
      "type": "function"
    },
    {
      "inputs": [
        {
          "internalType": "uint256",
          "name": "_marketId",
          "type": "uint256"
        }
      ],
      "name": "getMarketAttestationRequirements",
      "outputs": [
        {
          "internalType": "bool",
          "name": "lenderAttestationRequired",
          "type": "bool"
        },
        {
          "internalType": "bool",
          "name": "borrowerAttestationRequired",
          "type": "bool"
        }
      ],
      "stateMutability": "view",
      "type": "function"
    },
    {
      "inputs": [
        {
          "internalType": "uint256",
          "name": "_marketId",
          "type": "uint256"
        }
      ],
      "name": "getMarketData",
      "outputs": [
        {
          "internalType": "address",
          "name": "owner",
          "type": "address"
        },
        {
          "internalType": "uint32",
          "name": "paymentCycleDuration",
          "type": "uint32"
        },
        {
          "internalType": "uint32",
          "name": "paymentDefaultDuration",
          "type": "uint32"
        },
        {
          "internalType": "uint32",
          "name": "loanExpirationTime",
          "type": "uint32"
        },
        {
          "internalType": "string",
          "name": "metadataURI",
          "type": "string"
        },
        {
          "internalType": "uint16",
          "name": "marketplaceFeePercent",
          "type": "uint16"
        },
        {
          "internalType": "bool",
          "name": "lenderAttestationRequired",
          "type": "bool"
        }
      ],
      "stateMutability": "view",
      "type": "function"
    },
    {
      "inputs": [
        {
          "internalType": "uint256",
          "name": "_marketId",
          "type": "uint256"
        }
      ],
      "name": "getMarketFeeRecipient",
      "outputs": [
        {
          "internalType": "address",
          "name": "",
          "type": "address"
        }
      ],
      "stateMutability": "view",
      "type": "function"
    },
    {
      "inputs": [
        {
          "internalType": "uint256",
          "name": "_marketId",
          "type": "uint256"
        }
      ],
      "name": "getMarketOwner",
      "outputs": [
        {
          "internalType": "address",
          "name": "",
          "type": "address"
        }
      ],
      "stateMutability": "view",
      "type": "function"
    },
    {
      "inputs": [
        {
          "internalType": "uint256",
          "name": "_marketId",
          "type": "uint256"
        }
      ],
      "name": "getMarketURI",
      "outputs": [
        {
          "internalType": "string",
          "name": "",
          "type": "string"
        }
      ],
      "stateMutability": "view",
      "type": "function"
    },
    {
      "inputs": [
        {
          "internalType": "uint256",
          "name": "_marketId",
          "type": "uint256"
        }
      ],
      "name": "getMarketplaceFee",
      "outputs": [
        {
          "internalType": "uint16",
          "name": "fee",
          "type": "uint16"
        }
      ],
      "stateMutability": "view",
      "type": "function"
    },
    {
      "inputs": [
        {
          "internalType": "uint256",
          "name": "_marketId",
          "type": "uint256"
        }
      ],
      "name": "getPaymentCycleDuration",
      "outputs": [
        {
          "internalType": "uint32",
          "name": "",
          "type": "uint32"
        }
      ],
      "stateMutability": "view",
      "type": "function"
    },
    {
      "inputs": [
        {
          "internalType": "uint256",
          "name": "_marketId",
          "type": "uint256"
        }
      ],
      "name": "getPaymentDefaultDuration",
      "outputs": [
        {
          "internalType": "uint32",
          "name": "",
          "type": "uint32"
        }
      ],
      "stateMutability": "view",
      "type": "function"
    },
    {
      "inputs": [
        {
          "internalType": "uint256",
          "name": "_marketId",
          "type": "uint256"
        }
      ],
      "name": "getPaymentType",
      "outputs": [
        {
          "internalType": "enum V2Calculations.PaymentType",
          "name": "",
          "type": "uint8"
        }
      ],
      "stateMutability": "view",
      "type": "function"
    },
    {
      "inputs": [
        {
          "internalType": "contract TellerAS",
          "name": "_tellerAS",
          "type": "address"
        }
      ],
      "name": "initialize",
      "outputs": [],
      "stateMutability": "nonpayable",
      "type": "function"
    },
    {
      "inputs": [
        {
          "internalType": "uint256",
          "name": "_marketId",
          "type": "uint256"
        }
      ],
      "name": "isMarketClosed",
      "outputs": [
        {
          "internalType": "bool",
          "name": "",
          "type": "bool"
        }
      ],
      "stateMutability": "view",
      "type": "function"
    },
    {
      "inputs": [],
      "name": "isPayable",
      "outputs": [
        {
          "internalType": "bool",
          "name": "",
          "type": "bool"
        }
      ],
      "stateMutability": "pure",
      "type": "function"
    },
    {
      "inputs": [
        {
          "internalType": "uint256",
          "name": "_marketId",
          "type": "uint256"
        },
        {
          "internalType": "address",
          "name": "_borrowerAddress",
          "type": "address"
        }
      ],
      "name": "isVerifiedBorrower",
      "outputs": [
        {
          "internalType": "bool",
          "name": "isVerified_",
          "type": "bool"
        },
        {
          "internalType": "bytes32",
          "name": "uuid_",
          "type": "bytes32"
        }
      ],
      "stateMutability": "view",
      "type": "function"
    },
    {
      "inputs": [
        {
          "internalType": "uint256",
          "name": "_marketId",
          "type": "uint256"
        },
        {
          "internalType": "address",
          "name": "_lenderAddress",
          "type": "address"
        }
      ],
      "name": "isVerifiedLender",
      "outputs": [
        {
          "internalType": "bool",
          "name": "isVerified_",
          "type": "bool"
        },
        {
          "internalType": "bytes32",
          "name": "uuid_",
          "type": "bytes32"
        }
      ],
      "stateMutability": "view",
      "type": "function"
    },
    {
      "inputs": [],
      "name": "lenderAttestationSchemaId",
      "outputs": [
        {
          "internalType": "bytes32",
          "name": "",
          "type": "bytes32"
        }
      ],
      "stateMutability": "view",
      "type": "function"
    },
    {
      "inputs": [
        {
          "internalType": "uint256",
          "name": "_marketId",
          "type": "uint256"
        }
      ],
      "name": "lenderExitMarket",
      "outputs": [],
      "stateMutability": "nonpayable",
      "type": "function"
    },
    {
      "inputs": [],
      "name": "marketCount",
      "outputs": [
        {
          "internalType": "uint256",
          "name": "",
          "type": "uint256"
        }
      ],
      "stateMutability": "view",
      "type": "function"
    },
    {
      "inputs": [],
      "name": "onUpgrade",
      "outputs": [],
      "stateMutability": "nonpayable",
      "type": "function"
    },
    {
      "inputs": [
        {
          "internalType": "address",
          "name": "recipient",
          "type": "address"
        },
        {
          "internalType": "bytes",
          "name": "schema",
          "type": "bytes"
        },
        {
          "internalType": "bytes",
          "name": "data",
          "type": "bytes"
        },
        {
          "internalType": "uint256",
          "name": "",
          "type": "uint256"
        },
        {
          "internalType": "address",
          "name": "attestor",
          "type": "address"
        }
      ],
      "name": "resolve",
      "outputs": [
        {
          "internalType": "bool",
          "name": "",
          "type": "bool"
        }
      ],
      "stateMutability": "payable",
      "type": "function"
    },
    {
      "inputs": [
        {
          "internalType": "uint256",
          "name": "_marketId",
          "type": "uint256"
        },
        {
          "internalType": "address",
          "name": "_borrowerAddress",
          "type": "address"
        }
      ],
      "name": "revokeBorrower",
      "outputs": [],
      "stateMutability": "nonpayable",
      "type": "function"
    },
    {
      "inputs": [
        {
          "internalType": "uint256",
          "name": "_marketId",
          "type": "uint256"
        },
        {
          "internalType": "address",
          "name": "_borrowerAddress",
          "type": "address"
        },
        {
          "internalType": "uint8",
          "name": "_v",
          "type": "uint8"
        },
        {
          "internalType": "bytes32",
          "name": "_r",
          "type": "bytes32"
        },
        {
          "internalType": "bytes32",
          "name": "_s",
          "type": "bytes32"
        }
      ],
      "name": "revokeBorrower",
      "outputs": [],
      "stateMutability": "nonpayable",
      "type": "function"
    },
    {
      "inputs": [
        {
          "internalType": "uint256",
          "name": "_marketId",
          "type": "uint256"
        },
        {
          "internalType": "address",
          "name": "_lenderAddress",
          "type": "address"
        },
        {
          "internalType": "uint8",
          "name": "_v",
          "type": "uint8"
        },
        {
          "internalType": "bytes32",
          "name": "_r",
          "type": "bytes32"
        },
        {
          "internalType": "bytes32",
          "name": "_s",
          "type": "bytes32"
        }
      ],
      "name": "revokeLender",
      "outputs": [],
      "stateMutability": "nonpayable",
      "type": "function"
    },
    {
      "inputs": [
        {
          "internalType": "uint256",
          "name": "_marketId",
          "type": "uint256"
        },
        {
          "internalType": "address",
          "name": "_lenderAddress",
          "type": "address"
        }
      ],
      "name": "revokeLender",
      "outputs": [],
      "stateMutability": "nonpayable",
      "type": "function"
    },
    {
      "inputs": [
        {
          "internalType": "uint256",
          "name": "_marketId",
          "type": "uint256"
        },
        {
          "internalType": "uint32",
          "name": "_duration",
          "type": "uint32"
        }
      ],
      "name": "setBidExpirationTime",
      "outputs": [],
      "stateMutability": "nonpayable",
      "type": "function"
    },
    {
      "inputs": [
        {
          "internalType": "uint256",
          "name": "_marketId",
          "type": "uint256"
        },
        {
          "internalType": "bool",
          "name": "_required",
          "type": "bool"
        }
      ],
      "name": "setBorrowerAttestationRequired",
      "outputs": [],
      "stateMutability": "nonpayable",
      "type": "function"
    },
    {
      "inputs": [
        {
          "internalType": "uint256",
          "name": "_marketId",
          "type": "uint256"
        },
        {
          "internalType": "bool",
          "name": "_required",
          "type": "bool"
        }
      ],
      "name": "setLenderAttestationRequired",
      "outputs": [],
      "stateMutability": "nonpayable",
      "type": "function"
    },
    {
      "inputs": [
        {
          "internalType": "uint256",
          "name": "_marketId",
          "type": "uint256"
        },
        {
          "internalType": "uint16",
          "name": "_newPercent",
          "type": "uint16"
        }
      ],
      "name": "setMarketFeePercent",
      "outputs": [],
      "stateMutability": "nonpayable",
      "type": "function"
    },
    {
      "inputs": [
        {
          "internalType": "uint256",
          "name": "_marketId",
          "type": "uint256"
        },
        {
          "internalType": "address",
          "name": "_recipient",
          "type": "address"
        }
      ],
      "name": "setMarketFeeRecipient",
      "outputs": [],
      "stateMutability": "nonpayable",
      "type": "function"
    },
    {
      "inputs": [
        {
          "internalType": "uint256",
          "name": "_marketId",
          "type": "uint256"
        },
        {
          "internalType": "enum V2Calculations.PaymentType",
          "name": "_newPaymentType",
          "type": "uint8"
        }
      ],
      "name": "setMarketPaymentType",
      "outputs": [],
      "stateMutability": "nonpayable",
      "type": "function"
    },
    {
      "inputs": [
        {
          "internalType": "uint256",
          "name": "_marketId",
          "type": "uint256"
        },
        {
          "internalType": "string",
          "name": "_uri",
          "type": "string"
        }
      ],
      "name": "setMarketURI",
      "outputs": [],
      "stateMutability": "nonpayable",
      "type": "function"
    },
    {
      "inputs": [
        {
          "internalType": "uint256",
          "name": "_marketId",
          "type": "uint256"
        },
        {
          "internalType": "uint32",
          "name": "_duration",
          "type": "uint32"
        }
      ],
      "name": "setPaymentCycleDuration",
      "outputs": [],
      "stateMutability": "nonpayable",
      "type": "function"
    },
    {
      "inputs": [
        {
          "internalType": "uint256",
          "name": "_marketId",
          "type": "uint256"
        },
        {
          "internalType": "uint32",
          "name": "_duration",
          "type": "uint32"
        }
      ],
      "name": "setPaymentDefaultDuration",
      "outputs": [],
      "stateMutability": "nonpayable",
      "type": "function"
    },
    {
      "inputs": [],
      "name": "tellerAS",
      "outputs": [
        {
          "internalType": "contract TellerAS",
          "name": "",
          "type": "address"
        }
      ],
      "stateMutability": "view",
      "type": "function"
    },
    {
      "inputs": [
        {
          "internalType": "uint256",
          "name": "_marketId",
          "type": "uint256"
        },
        {
          "internalType": "address",
          "name": "_newOwner",
          "type": "address"
        }
      ],
      "name": "transferMarketOwnership",
      "outputs": [],
      "stateMutability": "nonpayable",
      "type": "function"
    },
    {
      "inputs": [
        {
          "internalType": "uint256",
          "name": "_marketId",
          "type": "uint256"
        },
        {
          "internalType": "uint32",
          "name": "_paymentCycleDuration",
          "type": "uint32"
        },
        {
          "internalType": "uint32",
          "name": "_paymentDefaultDuration",
          "type": "uint32"
        },
        {
          "internalType": "uint32",
          "name": "_bidExpirationTime",
          "type": "uint32"
        },
        {
          "internalType": "uint16",
          "name": "_feePercent",
          "type": "uint16"
        },
        {
          "internalType": "bool",
          "name": "_borrowerAttestationRequired",
          "type": "bool"
        },
        {
          "internalType": "bool",
          "name": "_lenderAttestationRequired",
          "type": "bool"
        },
        {
          "internalType": "string",
          "name": "_metadataURI",
          "type": "string"
        }
      ],
      "name": "updateMarketSettings",
      "outputs": [],
      "stateMutability": "nonpayable",
      "type": "function"
    },
    {
      "inputs": [],
      "name": "version",
      "outputs": [
        {
          "internalType": "uint256",
          "name": "",
          "type": "uint256"
        }
      ],
      "stateMutability": "view",
      "type": "function"
    },
    {
      "stateMutability": "payable",
      "type": "receive"
    }
  ],
  "transactionHash": "0x650a2cdb9c1cb690d3256e303ec102a4b02380e3fefb211dd1c8f6d8df4033b2",
  "args": [],
  "numDeployments": 5,
  "solcInputHash": "eb53ccc9bee2317f9717738d5f3526e8",
  "bytecode": "0x608060405234801561001057600080fd5b506130e0806100206000396000f3fe6080604052600436106102b25760003560e01c80637f027a1a11610175578063be99279b116100dc578063d6e794dd11610095578063ec9790821161006f578063ec979082146109ca578063ecd6ce6e146109e0578063f7c0c55514610a00578063f9fa934514610a2057600080fd5b8063d6e794dd14610943578063ddfafef61461098a578063e4050e29146109aa57600080fd5b8063be99279b1461087c578063bfacba3d1461089c578063c4d66de8146108cf578063c995cddc146108ef578063cb90cc311461090f578063ce46e0461461092f57600080fd5b806397eb575b1161012e57806397eb575b146107bc578063aa542fa5146107dc578063ae418095146107fc578063b6b6d77f1461081c578063bc4c34951461083c578063bd536e6e1461085c57600080fd5b80637f027a1a146106ad578063805deb53146106cd5780638b636632146107035780638eff9ea414610723578063947a75b41461078957806394e8e97e1461079c57600080fd5b80633ef19a9b11610219578063583b16ae116101d2578063583b16ae146105f75780636054b175146106175780636441379614610637578063679700d9146106575780637694d2ec1461066d5780637cfc18181461068d57600080fd5b80633ef19a9b1461054c5780633fa7f6881461056c5780634148f94c1461058c578063455154e5146105a1578063532f5694146105c157806354fd4d50146105e157600080fd5b80631cc672df1161026b5780631cc672df1461042d5780631db2b0d91461046d5780631ebc7da81461049a5780632f1be8f9146104ba5780633c0db788146104da5780633d369029146104fe57600080fd5b8063066e7513146102d7578063082fc54d146103135780630a2e98e41461036557806311bed5bb146103ad5780631824a46b146103eb5780631a4808d21461040057600080fd5b366102d257604051631574f9f360e01b815260040160405180910390fd5b005b600080fd5b3480156102e357600080fd5b506102f76102f23660046126d2565b610a40565b6040805192151583526020830191909152015b60405180910390f35b34801561031f57600080fd5b5061035061032e366004612702565b600090815260026020526040902060060154600160401b900463ffffffff1690565b60405163ffffffff909116815260200161030a565b34801561037157600080fd5b5061039a610380366004612702565b6000908152600260208190526040909120015461ffff1690565b60405161ffff909116815260200161030a565b3480156103b957600080fd5b506103506103c8366004612702565b600090815260026020526040902060060154640100000000900463ffffffff1690565b3480156103f757600080fd5b506102d0610a80565b34801561040c57600080fd5b5061042061041b366004612702565b610af2565b60405161030a9190612768565b34801561043957600080fd5b5061045d610448366004612702565b60009081526008602052604090205460ff1690565b604051901515815260200161030a565b34801561047957600080fd5b5061048d61048836600461277b565b610b97565b60405161030a91906127a7565b3480156104a657600080fd5b506102d06104b53660046126d2565b610bc1565b3480156104c657600080fd5b506102d06104d536600461280d565b610c64565b3480156104e657600080fd5b506104f060015481565b60405190815260200161030a565b34801561050a57600080fd5b50610534610519366004612702565b6000908152600260205260409020546001600160a01b031690565b6040516001600160a01b03909116815260200161030a565b34801561055857600080fd5b506102f76105673660046126d2565b610d34565b34801561057857600080fd5b506102d061058736600461284a565b610d68565b34801561059857600080fd5b506104f0600781565b3480156105ad57600080fd5b506102d06105bc3660046126d2565b610d80565b3480156105cd57600080fd5b506102d06105dc3660046128e6565b610d90565b3480156105ed57600080fd5b506104f060075481565b34801561060357600080fd5b506102d061061236600461284a565b610e8d565b34801561062357600080fd5b506102d0610632366004612932565b610e9d565b34801561064357600080fd5b50610534610652366004612702565b610eb3565b34801561066357600080fd5b506104f060065481565b34801561067957600080fd5b5061048d61068836600461277b565b610ef6565b34801561069957600080fd5b506102d06106a83660046126d2565b610f15565b3480156106b957600080fd5b506102d06106c8366004612702565b610fac565b3480156106d957600080fd5b506103506106e8366004612702565b60009081526002602052604090206006015463ffffffff1690565b34801561070f57600080fd5b506102d061071e3660046126d2565b611018565b34801561072f57600080fd5b5061077261073e366004612702565b6000908152600260208190526040909120908101546006909101546201000090910460ff90811692600160601b9092041690565b60408051921515835290151560208301520161030a565b61045d610797366004612982565b611024565b3480156107a857600080fd5b506102d06107b7366004612a30565b6110d2565b3480156107c857600080fd5b506102d06107d7366004612a55565b61118f565b3480156107e857600080fd5b506102d06107f7366004612a9c565b61119c565b34801561080857600080fd5b506102d0610817366004612702565b611282565b34801561082857600080fd5b506102d0610837366004612ad1565b61131b565b34801561084857600080fd5b506102d0610857366004612932565b611413565b34801561086857600080fd5b506102d061087736600461280d565b611422565b34801561088857600080fd5b506102d0610897366004612a30565b6114ef565b3480156108a857600080fd5b506108bc6108b7366004612702565b6115ae565b60405161030a9796959493929190612af4565b3480156108db57600080fd5b506102d06108ea366004612b53565b6116c0565b3480156108fb57600080fd5b506102d061090a366004612702565b611a10565b34801561091b57600080fd5b506104f061092a366004612b70565b611a5b565b34801561093b57600080fd5b50600061045d565b34801561094f57600080fd5b5061097d61095e366004612702565b6000908152600260205260409020600a0154600160a01b900460ff1690565b60405161030a9190612c7b565b34801561099657600080fd5b50600954610534906001600160a01b031681565b3480156109b657600080fd5b506102d06109c5366004612a55565b611a6f565b3480156109d657600080fd5b506104f060045481565b3480156109ec57600080fd5b506102d06109fb36600461280d565b611a7c565b348015610a0c57600080fd5b506102d0610a1b366004612c89565b611b31565b348015610a2c57600080fd5b506104f0610a3b366004612d41565b611bbc565b600082815260026020526040812060068101548291610a74918591600160601b90910460ff16906009810190600701611bdf565b915091505b9250929050565b600780541415610aec5760405162461bcd60e51b815260206004820152602c60248201527f436f6e747261637420616c726561647920757067726164656420746f206c617460448201526b6573742076657273696f6e2160a01b60648201526084015b60405180910390fd5b60078055565b6000818152600260205260409020600101805460609190610b1290612d79565b80601f0160208091040260200160405190810160405280929190818152602001828054610b3e90612d79565b8015610b8b5780601f10610b6057610100808354040283529160200191610b8b565b820191906000526020600020905b815481529060010190602001808311610b6e57829003601f168201915b50505050509050919050565b6000838152600260205260409020606090600301610bb6818585611cb9565b9150505b9392505050565b60008281526002602052604090205482906001600160a01b03163314610bf95760405162461bcd60e51b8152600401610ae390612db4565b600083815260026020908152604091829020600a0180546001600160a01b0319166001600160a01b0386169081179091558251868152918201527ffc7e26c4fffcd77fc52c81b32a6a6b7838b5592ced8c14c1a46e2b4a322c568a91015b60405180910390a1505050565b60008281526002602052604090205482906001600160a01b03163314610c9c5760405162461bcd60e51b8152600401610ae390612db4565b60008381526002602052604090206006015463ffffffff8381166401000000009092041614610d2f57600083815260026020908152604091829020600601805467ffffffff00000000191664010000000063ffffffff8716908102919091179091558251868152918201527f3e49e2efeacab7e8344acd4e7940449bf62039aa3734c34fa6d3525654be81019101610c57565b505050565b60008281526002602081905260408220908101548291610a749185916201000090910460ff16906005810190600301611bdf565b610d788686866001878787611da0565b505050505050565b610d8c82826000611ee5565b5050565b60008381526002602052604090205483906001600160a01b03163314610dc85760405162461bcd60e51b8152600401610ae390612db4565b6000848152600260209081526040918290209151610dea926001019101612ddb565b604051602081830303815290604052805190602001208383604051602001610e13929190612e77565b6040516020818303038152906040528051906020012014610e87576000848152600260205260409020610e4a906001018484612621565b507f6218b53065a32d32b3f52d9ad728c1b826a2aae15fc1ee92f83836debbcc1029848484604051610e7e93929190612e87565b60405180910390a15b50505050565b610d788686866000878787611da0565b610eac85856001868686611f58565b5050505050565b6000818152600260205260408120600a01546001600160a01b031680610ef05750506000908152600260205260409020546001600160a01b031690565b92915050565b6000838152600260205260409020606090600701610bb6818585611cb9565b60008281526002602052604090205482906001600160a01b03163314610f4d5760405162461bcd60e51b8152600401610ae390612db4565b60008381526002602090815260409182902080546001600160a01b0319166001600160a01b0386169081179091558251868152918201527ff68f2d4b68e0d54a81a3b8e53403ddec34a1e288cf6a6f6b3621c0a47b6e36f99101610c57565b6000818152600260205260408120610fc79060030133611f6f565b90508015610d8c577f55e867ccc9ac324e2c193ce4ed25397fb890213c704685f2c9fbe5bd7507298682335b604080519283526001600160a01b039091166020830152015b60405180910390a15050565b610d8c82826001611ee5565b60008087873060405160200161103c93929190612ebd565b60408051601f1981840301815291905280516020909101209050600080611065878901896126d2565b915091508260055414801561108b5750806001600160a01b03168b6001600160a01b0316145b80156110b057506000828152600260205260409020546001600160a01b038681169116145b806110c357506001600160a01b03851630145b9b9a5050505050505050505050565b60008281526002602052604090205482906001600160a01b0316331461110a5760405162461bcd60e51b8152600401610ae390612db4565b6000838152600260208190526040909120015462010000900460ff16151582151514610d2f57600083815260026020818152604092839020909101805462ff0000191662010000861515908102919091179091558251868152918201527f4666a8529dea37114f2ecc11706d613f7a59a7967f8467da6877820b83d405a19101610c57565b610d2f8383836001611f84565b60008281526002602052604090205482906001600160a01b031633146111d45760405162461bcd60e51b8152600401610ae390612db4565b6000838152600260205260409020600a0154600160a01b900460ff16600181111561120157611201612c43565b82600181111561121357611213612c43565b14610d2f576000838152600260205260409020600a01805483919060ff60a01b1916600160a01b83600181111561124c5761124c612c43565b02179055507ff81d9cc918f72edfc74e6b61d4e19ef9a739e94a0e9715b108e6af62275142ef8383604051610c57929190612ee3565b60008181526002602052604090205481906001600160a01b031633146112ba5760405162461bcd60e51b8152600401610ae390612db4565b60008281526008602052604090205460ff16610d8c5760008281526008602052604090819020805460ff19166001179055517f9dc30b8eda31a6a144e092e5de600955523a6a925cc15cc1d1b9b4872cfa61559061100c9084815260200190565b60008281526002602052604090205482906001600160a01b031633146113535760405162461bcd60e51b8152600401610ae390612db4565b6127108261ffff16111561139b5760405162461bcd60e51b815260206004820152600f60248201526e1a5b9d985b1a59081c195c98d95b9d608a1b6044820152606401610ae3565b6000838152600260208190526040909120015461ffff838116911614610d2f57600083815260026020818152604092839020909101805461ffff191661ffff86169081179091558251868152918201527f9c6f3e426c05d512408d4ecf517e5155756288155088ad45a81c0e111e3d18549101610c57565b610eac85856000868686611f58565b60008281526002602052604090205482906001600160a01b0316331461145a5760405162461bcd60e51b8152600401610ae390612db4565b60008381526002602052604090206006015463ffffffff838116600160401b9092041614610d2f5760008381526002602090815260409182902060060180546bffffffff00000000000000001916600160401b63ffffffff8716908102919091179091558251868152918201527ff0275a50e761f3b1635fa59ce199b1f2268b3fcb7fbdfb18c21aa3d2d78aa7b79101610c57565b60008281526002602052604090205482906001600160a01b031633146115275760405162461bcd60e51b8152600401610ae390612db4565b600083815260026020526040902060060154600160601b900460ff16151582151514610d2f57600083815260026020908152604091829020600601805460ff60601b1916600160601b861515908102919091179091558251868152918201527fc906280af595fe94779bb9a972f24fe4e0ed7f76bebb4ee0eb9a5f30d6dd4c879101610c57565b60008181526002602081905260408220805460068201549282015460019092018054859485948594606094869485946001600160a01b039093169363ffffffff808516946401000000008104821694600160401b90910490911692909161ffff8116916201000090910460ff1690839061162790612d79565b80601f016020809104026020016040519081016040528092919081815260200182805461165390612d79565b80156116a05780601f10611675576101008083540402835291602001916116a0565b820191906000526020600020905b81548152906001019060200180831161168357829003601f168201915b505050505092509650965096509650965096509650919395979092949650565b600054610100900460ff166116db5760005460ff16156116df565b303b155b6117425760405162461bcd60e51b815260206004820152602e60248201527f496e697469616c697a61626c653a20636f6e747261637420697320616c72656160448201526d191e481a5b9a5d1a585b1a5e995960921b6064820152608401610ae3565b600054610100900460ff16158015611764576000805461ffff19166101011790555b600980546001600160a01b0319166001600160a01b038416908117909155604080516381fa6cd360e01b815290516381fa6cd391600480820192602092909190829003018186803b1580156117b857600080fd5b505afa1580156117cc573d6000803e3d6000fd5b505050506040513d601f19601f820116820180604052508101906117f09190612ef7565b6040805163a99e7e2960e01b81526004810191909152602960448201527f2875696e74323536206d61726b657449642c2061646472657373206c656e646560648201526872416464726573732960b81b60848201523060248201526001600160a01b03919091169063a99e7e299060a401602060405180830381600087803b15801561187b57600080fd5b505af115801561188f573d6000803e3d6000fd5b505050506040513d601f19601f820116820180604052508101906118b39190612f14565b600155600954604080516381fa6cd360e01b815290516001600160a01b03909216916381fa6cd391600480820192602092909190829003018186803b1580156118fb57600080fd5b505afa15801561190f573d6000803e3d6000fd5b505050506040513d601f19601f820116820180604052508101906119339190612ef7565b6040805163a99e7e2960e01b81526004810191909152602b60448201527f2875696e74323536206d61726b657449642c206164647265737320626f72726f60648201526a776572416464726573732960a81b60848201523060248201526001600160a01b03919091169063a99e7e299060a401602060405180830381600087803b1580156119c057600080fd5b505af11580156119d4573d6000803e3d6000fd5b505050506040513d601f19601f820116820180604052508101906119f89190612f14565b6006558015610d8c576000805461ff00191690555050565b6000818152600260205260408120611a2b9060070133611f6f565b90508015610d8c577f914ccbaf2f5c9c2f4b7c6be3497b6b2ceb6ce2d050aec6eb2e0e31b8f9f67f0c8233610ff3565b60006110c38b8b8b8b8b8b8b8b8b8b6120e1565b610d2f8383836000611f84565b60008281526002602052604090205482906001600160a01b03163314611ab45760405162461bcd60e51b8152600401610ae390612db4565b60008381526002602052604090206006015463ffffffff838116911614610d2f57600083815260026020908152604091829020600601805463ffffffff191663ffffffff86169081179091558251868152918201527fa04499c227e7a6de804e5a57e4b38990792373bd8d73b6c13ab76e40600748439101610c57565b60008981526002602052604090205489906001600160a01b03163314611b695760405162461bcd60e51b8152600401610ae390612db4565b611b748a8484610d90565b611b7e8a8a611a7c565b611b888a89610c64565b611b928a88611422565b611b9c8a8761131b565b611ba68a856110d2565b611bb08a866114ef565b50505050505050505050565b6000611bd18a8a8a8a8a8a8a60008b8b6120e1565b9a9950505050505050505050565b6000808415611cab57611bf2838761224d565b8015611c8857506009546001600160a01b03878116600090815260208790526040908190205490516330cd251f60e21b8152600481019190915291169063c334947c9060240160206040518083038186803b158015611c5057600080fd5b505afa158015611c64573d6000803e3d6000fd5b505050506040513d601f19601f82011682018060405250810190611c889190612f2d565b6001600160a01b0387166000908152602086905260409020549092509050611cb0565b600191505b94509492505050565b60606000611cc68561226f565b90506000611cd48486612f60565b9050818111611d97576000611ce98583612f7f565b905082811115611cf65750815b611d008282612f97565b67ffffffffffffffff811115611d1857611d18612fae565b604051908082528060200260200182016040528015611d41578160200160208202803683370190505b509350815b81811015611d9457611d588882612279565b858281518110611d6a57611d6a612fc4565b6001600160a01b039092166020928302919091019091015280611d8c81612fda565b915050611d46565b50505b50509392505050565b83611dad57600654611db1565b6001545b806005819055506000808989604051602001611de09291909182526001600160a01b0316602082015260400190565b60405160208183030381529060405290506000600260008c815260200190815260200160002060000160009054906101000a90046001600160a01b03169050600960009054906101000a90046001600160a01b03166001600160a01b031663930ed0138b6005548c600087878e8e8e6040518a63ffffffff1660e01b8152600401611e7399989796959493929190612ff5565b602060405180830381600087803b158015611e8d57600080fd5b505af1158015611ea1573d6000803e3d6000fd5b505050506040513d601f19601f82011682018060405250810190611ec59190612f14565b92505050611ed589898389612285565b5050600060055550505050505050565b6000838152600260205260409020546001600160a01b0316336001600160a01b031614611f4b5760405162461bcd60e51b81526020600482015260146024820152732737ba103a34329036b0b935b2ba1037bbb732b960611b6044820152606401610ae3565b6000610eac848484612387565b6000611f65878787612387565b5050505050505050565b6000610bba836001600160a01b038416612497565b80611f9157600654611f95565b6001545b60058190556000858152600260205260409020546001600160a01b0316336001600160a01b0316146120005760405162461bcd60e51b81526020600482015260146024820152732737ba103a34329036b0b935b2ba1037bbb732b960611b6044820152606401610ae3565b6009546005546040516000926001600160a01b0316916309a954cd9188919088908690612045908d9086906020019182526001600160a01b0316602082015260400190565b6040516020818303038152906040526040518663ffffffff1660e01b8152600401612074959493929190613056565b602060405180830381600087803b15801561208e57600080fd5b505af11580156120a2573d6000803e3d6000fd5b505050506040513d601f19601f820116820180604052508101906120c69190612f14565b90506120d486868386612285565b5050600060055550505050565b60006001600160a01b038b166121315760405162461bcd60e51b8152602060048201526015602482015274496e76616c6964206f776e6572206164647265737360581b6044820152606401610ae3565b60046000815461214090612fda565b9182905550600081815260026020526040902080546001600160a01b0319166001600160a01b038e161790559050612179818484610d90565b612183818b611a7c565b61218d818a610c64565b612197818861131b565b6121a18189611422565b6121ab818561119c565b85156121d357600081815260026020819052604090912001805462ff00001916620100001790555b84156121fc576000818152600260205260409020600601805460ff60601b1916600160601b1790555b8a6001600160a01b03167fa69fa77c6a90b171cf4e3d9a9dd6c4e56fbd1fbbdcf3925eaf600ccaa917feab8260405161223791815260200190565b60405180910390a29a9950505050505050505050565b6001600160a01b03811660009081526001830160205260408120541515610bba565b6000610ef0825490565b6000610bba838361258a565b801561230d5760008481526002602081815260408084206001600160a01b038816855260058101835290842086905592879052526122c690600301846125b4565b50604080518581526001600160a01b03851660208201527f75675690de0899b0b869d83b44b2d926ac594426b2a0286c478ecdf815cbd33e910160405180910390a1610e87565b60008481526002602081815260408084206001600160a01b0388168552600981018352908420869055928790525261234890600701846125b4565b50604080518581526001600160a01b03851660208201527f0c2cfc7e7a16ebee66e77fb314f4bfdb5505e33e77d41c0c60604efc70fd926b9101610e7e565b60008115612412575060008381526002602081815260408084206001600160a01b038716855260058101835290842054938790529190526123cb9060030184611f6f565b50604080518581526001600160a01b03851660208201527f6e7c30dc58d3daa1458c79b66ca464f5f3d8a23d9e50eb14daf1cb0923bf2900910160405180910390a1610bba565b5060008381526002602081815260408084206001600160a01b0387168552600981018352908420549387905291905261244e9060070184611f6f565b50604080518581526001600160a01b03851660208201527fe76a3e8b220b622b9fc2a655ab867687a93f195809eb3639f422e60936ff7eb4910160405180910390a19392505050565b600081815260018301602052604081205480156125805760006124bb600183612f97565b85549091506000906124cf90600190612f97565b90508181146125345760008660000182815481106124ef576124ef612fc4565b906000526020600020015490508087600001848154811061251257612512612fc4565b6000918252602080832090910192909255918252600188019052604090208390555b855486908061254557612545613094565b600190038181906000526020600020016000905590558560010160008681526020019081526020016000206000905560019350505050610ef0565b6000915050610ef0565b60008260000182815481106125a1576125a1612fc4565b9060005260206000200154905092915050565b6000610bba836001600160a01b03841660006125e3838360009081526001919091016020526040902054151590565b61261957508154600181810184556000848152602080822090930184905584548482528286019093526040902091909155610ef0565b506000610ef0565b82805461262d90612d79565b90600052602060002090601f01602090048101928261264f5760008555612695565b82601f106126685782800160ff19823516178555612695565b82800160010185558215612695579182015b8281111561269557823582559160200191906001019061267a565b506126a19291506126a5565b5090565b5b808211156126a157600081556001016126a6565b6001600160a01b03811681146126cf57600080fd5b50565b600080604083850312156126e557600080fd5b8235915060208301356126f7816126ba565b809150509250929050565b60006020828403121561271457600080fd5b5035919050565b6000815180845260005b8181101561274157602081850181015186830182015201612725565b81811115612753576000602083870101525b50601f01601f19169290920160200192915050565b602081526000610bba602083018461271b565b60008060006060848603121561279057600080fd5b505081359360208301359350604090920135919050565b6020808252825182820181905260009190848201906040850190845b818110156127e85783516001600160a01b0316835292840192918401916001016127c3565b50909695505050505050565b803563ffffffff8116811461280857600080fd5b919050565b6000806040838503121561282057600080fd5b82359150612830602084016127f4565b90509250929050565b803560ff8116811461280857600080fd5b60008060008060008060c0878903121561286357600080fd5b863595506020870135612875816126ba565b94506040870135935061288a60608801612839565b92506080870135915060a087013590509295509295509295565b60008083601f8401126128b657600080fd5b50813567ffffffffffffffff8111156128ce57600080fd5b602083019150836020828501011115610a7957600080fd5b6000806000604084860312156128fb57600080fd5b83359250602084013567ffffffffffffffff81111561291957600080fd5b612925868287016128a4565b9497909650939450505050565b600080600080600060a0868803121561294a57600080fd5b85359450602086013561295c816126ba565b935061296a60408701612839565b94979396509394606081013594506080013592915050565b600080600080600080600060a0888a03121561299d57600080fd5b87356129a8816126ba565b9650602088013567ffffffffffffffff808211156129c557600080fd5b6129d18b838c016128a4565b909850965060408a01359150808211156129ea57600080fd5b506129f78a828b016128a4565b909550935050606088013591506080880135612a12816126ba565b8091505092959891949750929550565b80151581146126cf57600080fd5b60008060408385031215612a4357600080fd5b8235915060208301356126f781612a22565b600080600060608486031215612a6a57600080fd5b833592506020840135612a7c816126ba565b929592945050506040919091013590565b80356002811061280857600080fd5b60008060408385031215612aaf57600080fd5b8235915061283060208401612a8d565b803561ffff8116811461280857600080fd5b60008060408385031215612ae457600080fd5b8235915061283060208401612abf565b6001600160a01b038816815263ffffffff878116602083015286811660408301528516606082015260e060808201819052600090612b349083018661271b565b61ffff9490941660a08301525090151560c09091015295945050505050565b600060208284031215612b6557600080fd5b8135610bba816126ba565b6000806000806000806000806000806101208b8d031215612b9057600080fd5b8a35612b9b816126ba565b9950612ba960208c016127f4565b9850612bb760408c016127f4565b9750612bc560608c016127f4565b9650612bd360808c01612abf565b955060a08b0135612be381612a22565b945060c08b0135612bf381612a22565b9350612c0160e08c01612a8d565b92506101008b013567ffffffffffffffff811115612c1e57600080fd5b612c2a8d828e016128a4565b915080935050809150509295989b9194979a5092959850565b634e487b7160e01b600052602160045260246000fd5b60028110612c7757634e487b7160e01b600052602160045260246000fd5b9052565b60208101610ef08284612c59565b60008060008060008060008060006101008a8c031215612ca857600080fd5b89359850612cb860208b016127f4565b9750612cc660408b016127f4565b9650612cd460608b016127f4565b9550612ce260808b01612abf565b945060a08a0135612cf281612a22565b935060c08a0135612d0281612a22565b925060e08a013567ffffffffffffffff811115612d1e57600080fd5b612d2a8c828d016128a4565b915080935050809150509295985092959850929598565b60008060008060008060008060006101008a8c031215612d6057600080fd5b8935612d6b816126ba565b9850612cb860208b016127f4565b600181811c90821680612d8d57607f821691505b60208210811415612dae57634e487b7160e01b600052602260045260246000fd5b50919050565b6020808252600d908201526c2737ba103a34329037bbb732b960991b604082015260600190565b600080835481600182811c915080831680612df757607f831692505b6020808410821415612e1757634e487b7160e01b86526022600452602486fd5b818015612e2b5760018114612e3c57612e69565b60ff19861689528489019650612e69565b60008a81526020902060005b86811015612e615781548b820152908501908301612e48565b505084890196505b509498975050505050505050565b8183823760009101908152919050565b83815260406020820152816040820152818360608301376000818301606090810191909152601f909201601f1916010192915050565b8284823760609190911b6bffffffffffffffffffffffff19169101908152601401919050565b82815260408101610bba6020830184612c59565b600060208284031215612f0957600080fd5b8151610bba816126ba565b600060208284031215612f2657600080fd5b5051919050565b600060208284031215612f3f57600080fd5b8151610bba81612a22565b634e487b7160e01b600052601160045260246000fd5b6000816000190483118215151615612f7a57612f7a612f4a565b500290565b60008219821115612f9257612f92612f4a565b500190565b600082821015612fa957612fa9612f4a565b500390565b634e487b7160e01b600052604160045260246000fd5b634e487b7160e01b600052603260045260246000fd5b6000600019821415612fee57612fee612f4a565b5060010190565b600061012060018060a01b03808d1684528b60208501528a604085015289606085015281608085015261302a8285018a61271b565b971660a0840152505060ff9390931660c084015260e08301919091526101009091015295945050505050565b60018060a01b038616815284602082015283604082015282606082015260a06080820152600061308960a083018461271b565b979650505050505050565b634e487b7160e01b600052603160045260246000fdfea2646970667358221220b65e3373da0873a69f39e865651ec7693cbbf3d0b466fd1dbf55c07099a32a3264736f6c63430008090033",
  "devdoc": {
    "kind": "dev",
    "methods": {
      "attestBorrower(uint256,address,uint256)": {
        "details": "See {_attestStakeholder}."
      },
      "attestBorrower(uint256,address,uint256,uint8,bytes32,bytes32)": {
        "details": "See {_attestStakeholderViaDelegation}."
      },
      "attestLender(uint256,address,uint256)": {
        "details": "See {_attestStakeholder}."
      },
      "attestLender(uint256,address,uint256,uint8,bytes32,bytes32)": {
        "details": "See {_attestStakeholderViaDelegation}."
      },
      "borrowerExitMarket(uint256)": {
        "params": {
          "_marketId": "The market ID to leave."
        }
      },
      "closeMarket(uint256)": {
        "params": {
          "_marketId": "The market ID for the market to close."
        }
      },
      "createMarket(address,uint32,uint32,uint32,uint16,bool,bool,string)": {
        "details": "Uses the default EMI payment type.",
        "params": {
          "_bidExpirationTime": "Length of time in seconds before pending bids expire.",
          "_initialOwner": "Address who will initially own the market.",
          "_paymentCycleDuration": "Length of time in seconds before a bid's next payment is required to be made.",
          "_paymentDefaultDuration": "Length of time in seconds before a loan is considered in default for non-payment.",
          "_requireBorrowerAttestation": "Boolean that indicates if borrowers require attestation to join market.",
          "_requireLenderAttestation": "Boolean that indicates if lenders require attestation to join market.",
          "_uri": "URI string to get metadata details about the market."
        },
        "returns": {
          "marketId_": "The market ID of the newly created market."
        }
      },
      "createMarket(address,uint32,uint32,uint32,uint16,bool,bool,uint8,string)": {
        "params": {
          "_bidExpirationTime": "Length of time in seconds before pending bids expire.",
          "_initialOwner": "Address who will initially own the market.",
          "_paymentCycleDuration": "Length of time in seconds before a bid's next payment is required to be made.",
          "_paymentDefaultDuration": "Length of time in seconds before a loan is considered in default for non-payment.",
          "_paymentType": "The payment type for loans in the market.",
          "_requireBorrowerAttestation": "Boolean that indicates if borrowers require attestation to join market.",
          "_requireLenderAttestation": "Boolean that indicates if lenders require attestation to join market.",
          "_uri": "URI string to get metadata details about the market."
        },
        "returns": {
          "marketId_": "The market ID of the newly created market."
        }
      },
      "getAllVerifiedBorrowersForMarket(uint256,uint256,uint256)": {
        "params": {
          "_marketId": "The ID of the market.",
          "_page": "Page index to start from.",
          "_perPage": "Number of items in a page to return."
        },
        "returns": {
          "_0": "Array of addresses that have been added to a market."
        }
      },
      "getAllVerifiedLendersForMarket(uint256,uint256,uint256)": {
        "params": {
          "_marketId": "The ID of a market.",
          "_page": "Page index to start from.",
          "_perPage": "Number of items in a page to return."
        },
        "returns": {
          "_0": "Array of addresses that have been added to a market."
        }
      },
      "getMarketAttestationRequirements(uint256)": {
        "params": {
          "_marketId": "The ID of the market."
        }
      },
      "getMarketData(uint256)": {
        "params": {
          "_marketId": "The ID of a market."
        }
      },
      "getMarketFeeRecipient(uint256)": {
        "params": {
          "_marketId": "The ID of a market."
        },
        "returns": {
          "_0": "The address of a market's fee recipient."
        }
      },
      "getMarketOwner(uint256)": {
        "params": {
          "_marketId": "The ID of a market."
        },
        "returns": {
          "_0": "The address of a market's owner."
        }
      },
      "getMarketURI(uint256)": {
        "params": {
          "_marketId": "The ID of a market."
        },
        "returns": {
          "_0": "URI of a market's metadata."
        }
      },
      "getMarketplaceFee(uint256)": {
        "params": {
          "_marketId": "The ID of a market."
        },
        "returns": {
          "fee": "in basis points"
        }
      },
      "getPaymentCycleDuration(uint256)": {
        "params": {
          "_marketId": "The ID of a market."
        },
        "returns": {
          "_0": "Duration of a loan until it is delinquent."
        }
      },
      "getPaymentDefaultDuration(uint256)": {
        "params": {
          "_marketId": "The ID of a market."
        },
        "returns": {
          "_0": "Duration of a loan repayment interval until it is default."
        }
      },
      "getPaymentType(uint256)": {
        "params": {
          "_marketId": "the ID of the market."
        },
        "returns": {
          "_0": "The type of payment for loans in the market."
        }
      },
      "isMarketClosed(uint256)": {
        "params": {
          "_marketId": "The market ID for the market to check."
        }
      },
      "isPayable()": {
        "details": "Returns whether the resolver supports ETH transfers"
      },
      "isVerifiedBorrower(uint256,address)": {
        "params": {
          "_borrowerAddress": "Address of the borrower to check.",
          "_marketId": "The ID of a market."
        },
        "returns": {
          "isVerified_": "Boolean indicating if a borrower has been added to a market.",
          "uuid_": "Bytes32 representing the UUID of the borrower."
        }
      },
      "isVerifiedLender(uint256,address)": {
        "params": {
          "_lenderAddress": "Address to check.",
          "_marketId": "The ID of a market."
        },
        "returns": {
          "isVerified_": "Boolean indicating if a lender has been added to a market.",
          "uuid_": "Bytes32 representing the UUID of the lender."
        }
      },
      "lenderExitMarket(uint256)": {
        "params": {
          "_marketId": "The market ID to leave."
        }
      },
      "resolve(address,bytes,bytes,uint256,address)": {
        "details": "This function must only be called by the `attestLender` function above.",
        "params": {
          "": "@param attestor Market owner's address who signed the attestation.",
          "data": "Data the must include the market ID and lender's address",
          "recipient": "Lender's address who is being attested.",
          "schema": "The schema used for the attestation."
        },
        "returns": {
          "_0": "Boolean indicating the attestation was successful."
        }
      },
      "revokeBorrower(uint256,address)": {
        "details": "See {_revokeStakeholder}."
      },
      "revokeBorrower(uint256,address,uint8,bytes32,bytes32)": {
        "details": "See {_revokeStakeholderViaDelegation}."
      },
      "revokeLender(uint256,address)": {
        "details": "See {_revokeStakeholder}."
      },
      "revokeLender(uint256,address,uint8,bytes32,bytes32)": {
        "details": "See {_revokeStakeholderViaDelegation}."
      },
      "setBorrowerAttestationRequired(uint256,bool)": {
        "params": {
          "_marketId": "The ID of a market.",
          "_required": "Boolean indicating if the market requires whitelist. Requirements: - The caller must be the current owner."
        }
      },
      "setLenderAttestationRequired(uint256,bool)": {
        "params": {
          "_marketId": "The ID of a market.",
          "_required": "Boolean indicating if the market requires whitelist. Requirements: - The caller must be the current owner."
        }
      },
      "setMarketFeePercent(uint256,uint16)": {
        "params": {
          "_marketId": "The ID of a market.",
          "_newPercent": "The percentage fee in basis points. Requirements: - The caller must be the current owner."
        }
      },
      "setMarketFeeRecipient(uint256,address)": {
        "params": {
          "_marketId": "The ID of a market.",
          "_recipient": "Address of the new fee recipient. Requirements: - The caller must be the current owner."
        }
      },
      "setMarketPaymentType(uint256,uint8)": {
        "params": {
          "_marketId": "The ID of the market.",
          "_newPaymentType": "The payment type for the market."
        }
      },
      "setMarketURI(uint256,string)": {
        "params": {
          "_marketId": "The ID of a market.",
          "_uri": "A URI that points to a market's metadata. Requirements: - The caller must be the current owner."
        }
      },
      "setPaymentCycleDuration(uint256,uint32)": {
        "params": {
          "_duration": "Delinquency duration for new loans",
          "_marketId": "The ID of a market."
        }
      },
      "setPaymentDefaultDuration(uint256,uint32)": {
        "params": {
          "_duration": "Default duration for new loans",
          "_marketId": "The ID of a market."
        }
      },
      "transferMarketOwnership(uint256,address)": {
        "params": {
          "_marketId": "The ID of a market.",
          "_newOwner": "Address of the new market owner. Requirements: - The caller must be the current owner."
        }
      },
      "updateMarketSettings(uint256,uint32,uint32,uint32,uint16,bool,bool,string)": {
        "params": {
          "_bidExpirationTime": "Duration of time before a bid is considered out of date",
          "_marketId": "The ID of a market.",
          "_metadataURI": "A URI that points to a market's metadata. Requirements: - The caller must be the current owner.",
          "_paymentCycleDuration": "Delinquency duration for new loans",
          "_paymentDefaultDuration": "Default duration for new loans"
        }
      }
    },
    "version": 1
  },
  "userdoc": {
    "kind": "user",
    "methods": {
      "CURRENT_CODE_VERSION()": {
        "notice": "Constant Variables *"
      },
      "attestBorrower(uint256,address,uint256)": {
        "notice": "Adds a borrower to a market."
      },
      "attestBorrower(uint256,address,uint256,uint8,bytes32,bytes32)": {
        "notice": "Adds a borrower to a market via delegated attestation."
      },
      "attestLender(uint256,address,uint256)": {
        "notice": "Adds a lender to a market."
      },
      "attestLender(uint256,address,uint256,uint8,bytes32,bytes32)": {
        "notice": "Adds a lender to a market via delegated attestation."
      },
      "borrowerExitMarket(uint256)": {
        "notice": "Allows a borrower to voluntarily leave a market."
      },
      "closeMarket(uint256)": {
        "notice": "Closes a market so new bids cannot be added."
      },
      "createMarket(address,uint32,uint32,uint32,uint16,bool,bool,string)": {
        "notice": "Creates a new market."
      },
      "createMarket(address,uint32,uint32,uint32,uint16,bool,bool,uint8,string)": {
        "notice": "Creates a new market."
      },
      "getAllVerifiedBorrowersForMarket(uint256,uint256,uint256)": {
        "notice": "Gets addresses of all attested borrowers."
      },
      "getAllVerifiedLendersForMarket(uint256,uint256,uint256)": {
        "notice": "Gets addresses of all attested lenders."
      },
      "getMarketAttestationRequirements(uint256)": {
        "notice": "Gets the attestation requirements for a given market."
      },
      "getMarketData(uint256)": {
        "notice": "Gets the data associated with a market."
      },
      "getMarketFeeRecipient(uint256)": {
        "notice": "Gets the fee recipient of a market."
      },
      "getMarketOwner(uint256)": {
        "notice": "Gets the address of a market's owner."
      },
      "getMarketURI(uint256)": {
        "notice": "Gets the metadata URI of a market."
      },
      "getMarketplaceFee(uint256)": {
        "notice": "Gets the marketplace fee in basis points"
      },
      "getPaymentCycleDuration(uint256)": {
        "notice": "Gets the loan delinquent duration of a market."
      },
      "getPaymentDefaultDuration(uint256)": {
        "notice": "Gets the loan default duration of a market."
      },
      "getPaymentType(uint256)": {
        "notice": "Get the payment type of a market."
      },
      "isMarketClosed(uint256)": {
        "notice": "Returns the status of a market being open or closed for new bids."
      },
      "isVerifiedBorrower(uint256,address)": {
        "notice": "Checks if a borrower has been attested and added to a market."
      },
      "isVerifiedLender(uint256,address)": {
        "notice": "Checks if a lender has been attested and added to a market."
      },
      "lenderExitMarket(uint256)": {
        "notice": "Allows a lender to voluntarily leave a market."
      },
      "onUpgrade()": {
        "notice": "Sets the new tellerAS on upgrade"
      },
      "resolve(address,bytes,bytes,uint256,address)": {
        "notice": "Verifies an attestation is valid."
      },
      "revokeBorrower(uint256,address)": {
        "notice": "Removes a borrower from an market."
      },
      "revokeBorrower(uint256,address,uint8,bytes32,bytes32)": {
        "notice": "Removes a borrower from a market via delegated revocation."
      },
      "revokeLender(uint256,address)": {
        "notice": "Removes a lender from an market."
      },
      "revokeLender(uint256,address,uint8,bytes32,bytes32)": {
        "notice": "Removes a borrower from a market via delegated revocation."
      },
      "setBorrowerAttestationRequired(uint256,bool)": {
        "notice": "Enable/disables market whitelist for borrowers."
      },
      "setLenderAttestationRequired(uint256,bool)": {
        "notice": "Enable/disables market whitelist for lenders."
      },
      "setMarketFeePercent(uint256,uint16)": {
        "notice": "Sets the fee for the market."
      },
      "setMarketFeeRecipient(uint256,address)": {
        "notice": "Sets the fee recipient address for a market."
      },
      "setMarketPaymentType(uint256,uint8)": {
        "notice": "Set the payment type for the market."
      },
      "setMarketURI(uint256,string)": {
        "notice": "Sets the metadata URI for a market."
      },
      "setPaymentCycleDuration(uint256,uint32)": {
        "notice": "Sets the duration of new loans for this market before they turn delinquent.Changing this value does not change the terms of existing loans for this market."
      },
      "setPaymentDefaultDuration(uint256,uint32)": {
        "notice": "Sets the duration of new loans for this market before they turn defaulted.Changing this value does not change the terms of existing loans for this market."
      },
      "transferMarketOwnership(uint256,address)": {
        "notice": "Transfers ownership of a marketplace."
      },
      "updateMarketSettings(uint256,uint32,uint32,uint32,uint16,bool,bool,string)": {
        "notice": "Updates multiple market settings for a given market."
      }
    },
    "version": 1
  },
  "storageLayout": {
    "storage": [
      {
        "astId": 3108,
        "contract": "contracts/MarketRegistry.sol:MarketRegistry",
        "label": "_initialized",
        "offset": 0,
        "slot": "0",
        "type": "t_bool"
      },
      {
        "astId": 3111,
        "contract": "contracts/MarketRegistry.sol:MarketRegistry",
        "label": "_initializing",
        "offset": 1,
        "slot": "0",
        "type": "t_bool"
      },
      {
        "astId": 9359,
        "contract": "contracts/MarketRegistry.sol:MarketRegistry",
        "label": "lenderAttestationSchemaId",
        "offset": 0,
        "slot": "1",
        "type": "t_bytes32"
      },
      {
        "astId": 9364,
        "contract": "contracts/MarketRegistry.sol:MarketRegistry",
        "label": "markets",
        "offset": 0,
        "slot": "2",
        "type": "t_mapping(t_uint256,t_struct(Marketplace)9357_storage)"
      },
      {
        "astId": 9368,
        "contract": "contracts/MarketRegistry.sol:MarketRegistry",
        "label": "__uriToId",
        "offset": 0,
        "slot": "3",
        "type": "t_mapping(t_bytes32,t_uint256)"
      },
      {
        "astId": 9370,
        "contract": "contracts/MarketRegistry.sol:MarketRegistry",
        "label": "marketCount",
        "offset": 0,
        "slot": "4",
        "type": "t_uint256"
      },
      {
        "astId": 9372,
        "contract": "contracts/MarketRegistry.sol:MarketRegistry",
        "label": "_attestingSchemaId",
        "offset": 0,
        "slot": "5",
        "type": "t_bytes32"
      },
      {
        "astId": 9374,
        "contract": "contracts/MarketRegistry.sol:MarketRegistry",
        "label": "borrowerAttestationSchemaId",
        "offset": 0,
        "slot": "6",
        "type": "t_bytes32"
      },
      {
        "astId": 9376,
        "contract": "contracts/MarketRegistry.sol:MarketRegistry",
        "label": "version",
        "offset": 0,
        "slot": "7",
        "type": "t_uint256"
      },
      {
        "astId": 9380,
        "contract": "contracts/MarketRegistry.sol:MarketRegistry",
        "label": "marketIsClosed",
        "offset": 0,
        "slot": "8",
        "type": "t_mapping(t_uint256,t_bool)"
      },
      {
        "astId": 9383,
        "contract": "contracts/MarketRegistry.sol:MarketRegistry",
        "label": "tellerAS",
        "offset": 0,
        "slot": "9",
        "type": "t_contract(TellerAS)8468"
      }
    ],
    "types": {
      "t_address": {
        "encoding": "inplace",
        "label": "address",
        "numberOfBytes": "20"
      },
      "t_array(t_bytes32)dyn_storage": {
        "base": "t_bytes32",
        "encoding": "dynamic_array",
        "label": "bytes32[]",
        "numberOfBytes": "32"
      },
      "t_bool": {
        "encoding": "inplace",
        "label": "bool",
        "numberOfBytes": "1"
      },
      "t_bytes32": {
        "encoding": "inplace",
        "label": "bytes32",
        "numberOfBytes": "32"
      },
      "t_contract(TellerAS)8468": {
        "encoding": "inplace",
        "label": "contract TellerAS",
        "numberOfBytes": "20"
      },
      "t_enum(PaymentType)13699": {
        "encoding": "inplace",
        "label": "enum V2Calculations.PaymentType",
        "numberOfBytes": "1"
      },
      "t_mapping(t_address,t_bytes32)": {
        "encoding": "mapping",
        "key": "t_address",
        "label": "mapping(address => bytes32)",
        "numberOfBytes": "32",
        "value": "t_bytes32"
      },
      "t_mapping(t_bytes32,t_uint256)": {
        "encoding": "mapping",
        "key": "t_bytes32",
        "label": "mapping(bytes32 => uint256)",
        "numberOfBytes": "32",
        "value": "t_uint256"
      },
      "t_mapping(t_uint256,t_bool)": {
        "encoding": "mapping",
        "key": "t_uint256",
        "label": "mapping(uint256 => bool)",
        "numberOfBytes": "32",
        "value": "t_bool"
      },
      "t_mapping(t_uint256,t_struct(Marketplace)9357_storage)": {
        "encoding": "mapping",
        "key": "t_uint256",
        "label": "mapping(uint256 => struct MarketRegistry.Marketplace)",
        "numberOfBytes": "32",
        "value": "t_struct(Marketplace)9357_storage"
      },
      "t_string_storage": {
        "encoding": "bytes",
        "label": "string",
        "numberOfBytes": "32"
      },
      "t_struct(AddressSet)7277_storage": {
        "encoding": "inplace",
        "label": "struct EnumerableSet.AddressSet",
        "members": [
          {
            "astId": 7276,
            "contract": "contracts/MarketRegistry.sol:MarketRegistry",
            "label": "_inner",
            "offset": 0,
            "slot": "0",
            "type": "t_struct(Set)6976_storage"
          }
        ],
        "numberOfBytes": "64"
      },
      "t_struct(Marketplace)9357_storage": {
        "encoding": "inplace",
        "label": "struct MarketRegistry.Marketplace",
        "members": [
          {
            "astId": 9323,
            "contract": "contracts/MarketRegistry.sol:MarketRegistry",
            "label": "owner",
            "offset": 0,
            "slot": "0",
            "type": "t_address"
          },
          {
            "astId": 9325,
            "contract": "contracts/MarketRegistry.sol:MarketRegistry",
            "label": "metadataURI",
            "offset": 0,
            "slot": "1",
            "type": "t_string_storage"
          },
          {
            "astId": 9327,
            "contract": "contracts/MarketRegistry.sol:MarketRegistry",
            "label": "marketplaceFeePercent",
            "offset": 0,
            "slot": "2",
            "type": "t_uint16"
          },
          {
            "astId": 9329,
            "contract": "contracts/MarketRegistry.sol:MarketRegistry",
            "label": "lenderAttestationRequired",
            "offset": 2,
            "slot": "2",
            "type": "t_bool"
          },
          {
            "astId": 9332,
            "contract": "contracts/MarketRegistry.sol:MarketRegistry",
            "label": "verifiedLendersForMarket",
            "offset": 0,
            "slot": "3",
            "type": "t_struct(AddressSet)7277_storage"
          },
          {
            "astId": 9336,
            "contract": "contracts/MarketRegistry.sol:MarketRegistry",
            "label": "lenderAttestationIds",
            "offset": 0,
            "slot": "5",
            "type": "t_mapping(t_address,t_bytes32)"
          },
          {
            "astId": 9338,
            "contract": "contracts/MarketRegistry.sol:MarketRegistry",
            "label": "paymentCycleDuration",
            "offset": 0,
            "slot": "6",
            "type": "t_uint32"
          },
          {
            "astId": 9340,
            "contract": "contracts/MarketRegistry.sol:MarketRegistry",
            "label": "paymentDefaultDuration",
            "offset": 4,
            "slot": "6",
            "type": "t_uint32"
          },
          {
            "astId": 9342,
            "contract": "contracts/MarketRegistry.sol:MarketRegistry",
            "label": "bidExpirationTime",
            "offset": 8,
            "slot": "6",
            "type": "t_uint32"
          },
          {
            "astId": 9344,
            "contract": "contracts/MarketRegistry.sol:MarketRegistry",
            "label": "borrowerAttestationRequired",
            "offset": 12,
            "slot": "6",
            "type": "t_bool"
          },
          {
            "astId": 9347,
            "contract": "contracts/MarketRegistry.sol:MarketRegistry",
            "label": "verifiedBorrowersForMarket",
            "offset": 0,
            "slot": "7",
            "type": "t_struct(AddressSet)7277_storage"
          },
          {
            "astId": 9351,
            "contract": "contracts/MarketRegistry.sol:MarketRegistry",
            "label": "borrowerAttestationIds",
            "offset": 0,
            "slot": "9",
            "type": "t_mapping(t_address,t_bytes32)"
          },
          {
            "astId": 9353,
            "contract": "contracts/MarketRegistry.sol:MarketRegistry",
            "label": "feeRecipient",
            "offset": 0,
            "slot": "10",
            "type": "t_address"
          },
          {
            "astId": 9356,
            "contract": "contracts/MarketRegistry.sol:MarketRegistry",
            "label": "paymentType",
            "offset": 20,
            "slot": "10",
            "type": "t_enum(PaymentType)13699"
          }
        ],
        "numberOfBytes": "352"
      },
      "t_struct(Set)6976_storage": {
        "encoding": "inplace",
        "label": "struct EnumerableSet.Set",
        "members": [
          {
            "astId": 6971,
            "contract": "contracts/MarketRegistry.sol:MarketRegistry",
            "label": "_values",
            "offset": 0,
            "slot": "0",
            "type": "t_array(t_bytes32)dyn_storage"
          },
          {
            "astId": 6975,
            "contract": "contracts/MarketRegistry.sol:MarketRegistry",
            "label": "_indexes",
            "offset": 0,
            "slot": "1",
            "type": "t_mapping(t_bytes32,t_uint256)"
          }
        ],
        "numberOfBytes": "64"
      },
      "t_uint16": {
        "encoding": "inplace",
        "label": "uint16",
        "numberOfBytes": "2"
      },
      "t_uint256": {
        "encoding": "inplace",
        "label": "uint256",
        "numberOfBytes": "32"
      },
      "t_uint32": {
        "encoding": "inplace",
        "label": "uint32",
        "numberOfBytes": "4"
      }
    }
  }
}