{
  "address": "0x971527C71FCfcdCcb58e8E59BbD9EF4E5a4A501a",
  "abi": [
    {
      "inputs": [
        {
          "internalType": "address",
          "name": "_tellerV2",
          "type": "address"
        },
        {
          "internalType": "address",
          "name": "_marketRegistry",
          "type": "address"
        },
        {
          "internalType": "address",
          "name": "_collateralManager",
          "type": "address"
        }
      ],
      "stateMutability": "nonpayable",
      "type": "constructor"
    },
    {
      "anonymous": false,
      "inputs": [
        {
          "indexed": false,
          "internalType": "uint256",
          "name": "allocationId",
          "type": "uint256"
        },
        {
          "indexed": false,
          "internalType": "uint256",
          "name": "bidId",
          "type": "uint256"
        },
        {
          "indexed": false,
          "internalType": "address",
          "name": "recipient",
          "type": "address"
        },
        {
          "indexed": false,
          "internalType": "uint256",
          "name": "amount",
          "type": "uint256"
        }
      ],
      "name": "ClaimedRewards",
      "type": "event"
    },
    {
      "anonymous": false,
      "inputs": [
        {
          "indexed": false,
          "internalType": "uint256",
          "name": "allocationId",
          "type": "uint256"
        },
        {
          "indexed": false,
          "internalType": "address",
          "name": "allocator",
          "type": "address"
        },
        {
          "indexed": false,
          "internalType": "uint256",
          "name": "marketId",
          "type": "uint256"
        }
      ],
      "name": "CreatedAllocation",
      "type": "event"
    },
    {
      "anonymous": false,
      "inputs": [
        {
          "indexed": false,
          "internalType": "uint256",
          "name": "allocationId",
          "type": "uint256"
        },
        {
          "indexed": false,
          "internalType": "uint256",
          "name": "amount",
          "type": "uint256"
        }
      ],
      "name": "DecreasedAllocation",
      "type": "event"
    },
    {
      "anonymous": false,
      "inputs": [
        {
          "indexed": false,
          "internalType": "uint256",
          "name": "allocationId",
          "type": "uint256"
        }
      ],
      "name": "DeletedAllocation",
      "type": "event"
    },
    {
      "anonymous": false,
      "inputs": [
        {
          "indexed": false,
          "internalType": "uint256",
          "name": "allocationId",
          "type": "uint256"
        },
        {
          "indexed": false,
          "internalType": "uint256",
          "name": "amount",
          "type": "uint256"
        }
      ],
      "name": "IncreasedAllocation",
      "type": "event"
    },
    {
      "anonymous": false,
      "inputs": [
        {
          "indexed": false,
          "internalType": "uint8",
          "name": "version",
          "type": "uint8"
        }
      ],
      "name": "Initialized",
      "type": "event"
    },
    {
      "anonymous": false,
      "inputs": [
        {
          "indexed": false,
          "internalType": "uint256",
          "name": "allocationId",
          "type": "uint256"
        }
      ],
      "name": "UpdatedAllocation",
      "type": "event"
    },
    {
      "inputs": [
        {
          "components": [
            {
              "internalType": "address",
              "name": "allocator",
              "type": "address"
            },
            {
              "internalType": "address",
              "name": "rewardTokenAddress",
              "type": "address"
            },
            {
              "internalType": "uint256",
              "name": "rewardTokenAmount",
              "type": "uint256"
            },
            {
              "internalType": "uint256",
              "name": "marketId",
              "type": "uint256"
            },
            {
              "internalType": "address",
              "name": "requiredPrincipalTokenAddress",
              "type": "address"
            },
            {
              "internalType": "address",
              "name": "requiredCollateralTokenAddress",
              "type": "address"
            },
            {
              "internalType": "uint256",
              "name": "minimumCollateralPerPrincipalAmount",
              "type": "uint256"
            },
            {
              "internalType": "uint256",
              "name": "rewardPerLoanPrincipalAmount",
              "type": "uint256"
            },
            {
              "internalType": "uint32",
              "name": "bidStartTimeMin",
              "type": "uint32"
            },
            {
              "internalType": "uint32",
              "name": "bidStartTimeMax",
              "type": "uint32"
            },
            {
              "internalType": "enum IMarketLiquidityRewards.AllocationStrategy",
              "name": "allocationStrategy",
              "type": "uint8"
            }
          ],
          "internalType": "struct IMarketLiquidityRewards.RewardAllocation",
          "name": "_allocation",
          "type": "tuple"
        }
      ],
      "name": "allocateRewards",
      "outputs": [
        {
          "internalType": "uint256",
          "name": "allocationId_",
          "type": "uint256"
        }
      ],
      "stateMutability": "nonpayable",
      "type": "function"
    },
    {
      "inputs": [
        {
          "internalType": "uint256",
          "name": "",
          "type": "uint256"
        }
      ],
      "name": "allocatedRewards",
      "outputs": [
        {
          "internalType": "address",
          "name": "allocator",
          "type": "address"
        },
        {
          "internalType": "address",
          "name": "rewardTokenAddress",
          "type": "address"
        },
        {
          "internalType": "uint256",
          "name": "rewardTokenAmount",
          "type": "uint256"
        },
        {
          "internalType": "uint256",
          "name": "marketId",
          "type": "uint256"
        },
        {
          "internalType": "address",
          "name": "requiredPrincipalTokenAddress",
          "type": "address"
        },
        {
          "internalType": "address",
          "name": "requiredCollateralTokenAddress",
          "type": "address"
        },
        {
          "internalType": "uint256",
          "name": "minimumCollateralPerPrincipalAmount",
          "type": "uint256"
        },
        {
          "internalType": "uint256",
          "name": "rewardPerLoanPrincipalAmount",
          "type": "uint256"
        },
        {
          "internalType": "uint32",
          "name": "bidStartTimeMin",
          "type": "uint32"
        },
        {
          "internalType": "uint32",
          "name": "bidStartTimeMax",
          "type": "uint32"
        },
        {
          "internalType": "enum IMarketLiquidityRewards.AllocationStrategy",
          "name": "allocationStrategy",
          "type": "uint8"
        }
      ],
      "stateMutability": "view",
      "type": "function"
    },
    {
      "inputs": [
        {
          "internalType": "uint256",
          "name": "_allocationId",
          "type": "uint256"
        },
        {
          "internalType": "uint256",
          "name": "_bidId",
          "type": "uint256"
        }
      ],
      "name": "claimRewards",
      "outputs": [],
      "stateMutability": "nonpayable",
      "type": "function"
    },
    {
      "inputs": [
        {
          "internalType": "uint256",
          "name": "_allocationId",
          "type": "uint256"
        },
        {
          "internalType": "uint256",
          "name": "_tokenAmount",
          "type": "uint256"
        }
      ],
      "name": "deallocateRewards",
      "outputs": [],
      "stateMutability": "nonpayable",
      "type": "function"
    },
    {
      "inputs": [
        {
          "internalType": "uint256",
          "name": "_allocationId",
          "type": "uint256"
        },
        {
          "internalType": "uint256",
          "name": "_tokenAmount",
          "type": "uint256"
        }
      ],
      "name": "increaseAllocationAmount",
      "outputs": [],
      "stateMutability": "nonpayable",
      "type": "function"
    },
    {
      "inputs": [],
      "name": "initialize",
      "outputs": [],
      "stateMutability": "nonpayable",
      "type": "function"
    },
    {
      "inputs": [
        {
          "internalType": "uint256",
          "name": "",
          "type": "uint256"
        },
        {
          "internalType": "uint256",
          "name": "",
          "type": "uint256"
        }
      ],
      "name": "rewardClaimedForBid",
      "outputs": [
        {
          "internalType": "bool",
          "name": "",
          "type": "bool"
        }
      ],
      "stateMutability": "view",
      "type": "function"
    },
    {
      "inputs": [
        {
          "internalType": "uint256",
          "name": "_allocationId",
          "type": "uint256"
        },
        {
          "internalType": "uint256",
          "name": "_minimumCollateralPerPrincipalAmount",
          "type": "uint256"
        },
        {
          "internalType": "uint256",
          "name": "_rewardPerLoanPrincipalAmount",
          "type": "uint256"
        },
        {
          "internalType": "uint32",
          "name": "_bidStartTimeMin",
          "type": "uint32"
        },
        {
          "internalType": "uint32",
          "name": "_bidStartTimeMax",
          "type": "uint32"
        }
      ],
      "name": "updateAllocation",
      "outputs": [],
      "stateMutability": "nonpayable",
      "type": "function"
    }
  ],
  "transactionHash": "0x399f144d1361690902a07296df3e8abe5ec88bd50af747ac64ccdaa88fb13bf0",
  "args": [
    "0xD3D79A066F2cD471841C047D372F218252Dbf8Ed",
    "0xeF0f89baC623eD7C875bC2F23b5403DcF90ba8Bd",
    "0x76888a882a4fF57455B5e74B791DD19DF3ba51Bb"
  ],
  "numDeployments": 1,
  "solcInputHash": "704ec39527d925eea3260ddc4e8d1e8a",
  "bytecode": "0x60e06040523480156200001157600080fd5b50604051620019313803806200193183398101604081905262000034916200006f565b6001600160a01b0392831660805290821660a0521660c052620000b9565b80516001600160a01b03811681146200006a57600080fd5b919050565b6000806000606084860312156200008557600080fd5b620000908462000052565b9250620000a06020850162000052565b9150620000b06040850162000052565b90509250925092565b60805160a05160c05161184b620000e660003960006104b401526000505060006103a5015261184b6000f3fe608060405234801561001057600080fd5b50600436106100885760003560e01c80636f05bbdc1161005b5780636f05bbdc146101195780638129fc1c146101b8578063abcc45e0146101c0578063b291ac4c146101d357600080fd5b80633997ec2c1461008d5780634cfb5beb146100a2578063594dd432146100e55780635cb22c5a146100f8575b600080fd5b6100a061009b3660046112b1565b6101e6565b005b6100d06100b03660046112b1565b600360209081526000928352604080842090915290825290205460ff1681565b60405190151581526020015b60405180910390f35b6100a06100f33660046112b1565b6102e5565b61010b6101063660046112d3565b610782565b6040519081526020016100dc565b6101a16101273660046112ec565b60026020819052600091825260409091208054600182015492820154600383015460048401546005850154600686015460078701546008909701546001600160a01b0396871698871697959694959385169490921692909163ffffffff80821691640100000000810490911690600160401b900460ff168b565b6040516100dc9b9a9998979695949392919061131b565b6100a0610915565b6100a06101ce3660046113bd565b610a1e565b6100a06101e13660046112b1565b610b18565b600082815260026020526040908190206001015490516323b872dd60e01b8152336004820152306024820152604481018390526001600160a01b03909116906323b872dd90606401602060405180830381600087803b15801561024857600080fd5b505af115801561025c573d6000803e3d6000fd5b505050506040513d601f19601f820116820180604052508101906102809190611413565b50600082815260026020819052604082200180548392906102a290849061144b565b909155505060408051838152602081018390527f6066faf685f9876a4e900441602eb0063cdc31b9241c2384019c1b72bf58f1e191015b60405180910390a15050565b6000828152600260209081526040808320848452600383528184208685529092529091205460ff16156103585760405162461bcd60e51b81526020600482015260166024820152751c995dd85c9908185b1c9958591e4818db185a5b595960521b60448201526064015b60405180910390fd5b6000828152600360209081526040808320868452909152808220805460ff191660011790555163e0d3d58d60e01b8152600481018490528190819081908190819081906001600160a01b037f0000000000000000000000000000000000000000000000000000000000000000169063e0d3d58d9060240160e06040518083038186803b1580156103e757600080fd5b505afa1580156103fb573d6000803e3d6000fd5b505050506040513d601f19601f8201168201806040525081019061041f9190611478565b965096509650965096509650965060008860050160009054906101000a90046001600160a01b0316905061047c838a60080160009054906101000a900463ffffffff168b60080160049054906101000a900463ffffffff16610d50565b6001600160a01b038116156105455760405163cd98536b60e01b8152600481018b90526001600160a01b0382811660248301526000917f00000000000000000000000000000000000000000000000000000000000000009091169063cd98536b9060440160206040518083038186803b1580156104f857600080fd5b505afa15801561050c573d6000803e3d6000fd5b505050506040513d601f19601f820116820180604052508101906105309190611504565b9050610543828288888e60060154610e52565b505b600489015461055e9086906001600160a01b0316610fc8565b60058901546105779082906001600160a01b0316610fc8565b60008b81526002602052604090206003015486146105d75760405162461bcd60e51b815260206004820181905260248201527f4d61726b65744964206d69736d6174636820666f7220616c6c6f636174696f6e604482015260640161034f565b6000856001600160a01b031663313ce5676040518163ffffffff1660e01b815260040160206040518083038186803b15801561061257600080fd5b505afa158015610626573d6000803e3d6000fd5b505050506040513d601f19601f8201168201806040525081019061064a919061151d565b60088b015460ff918216925060009161066d91600160401b900416858c8c61103b565b9050600061068087848e60070154611191565b905061068c8e826111b2565b60008e8152600260205260409081902060010154905163a9059cbb60e01b81526001600160a01b038481166004830152602482018490529091169063a9059cbb90604401602060405180830381600087803b1580156106ea57600080fd5b505af11580156106fe573d6000803e3d6000fd5b505050506040513d601f19601f820116820180604052508101906107229190611413565b50604080518f8152602081018f90526001600160a01b038416818301526060810183905290517f9bcf4b7082743be9e48c040fa49881bdac9ba7ed4f12e71d8ff6c946da65c0649181900360800190a15050505050505050505050505050565b600180546000918261079383611540565b909155509050336107a7602084018461155b565b6001600160a01b0316146107fd5760405162461bcd60e51b815260206004820152601960248201527f496e76616c696420616c6c6f6361746f72206164647265737300000000000000604482015260640161034f565b61080d604083016020840161155b565b604080516323b872dd60e01b81523360048201523060248201529084013560448201526001600160a01b0391909116906323b872dd90606401602060405180830381600087803b15801561086057600080fd5b505af1158015610874573d6000803e3d6000fd5b505050506040513d601f19601f820116820180604052508101906108989190611413565b50600081815260026020526040902082906108b38282611603565b507f678866ebbf19eed1d9f95e0bfd63584f721eab8935f83844394f78873789a80d9050816108e5602085018561155b565b604080519283526001600160a01b03919091166020830152606085810135838301529051918290030190a1919050565b600054610100900460ff16158080156109355750600054600160ff909116105b8061094f5750303b15801561094f575060005460ff166001145b6109b25760405162461bcd60e51b815260206004820152602e60248201527f496e697469616c697a61626c653a20636f6e747261637420697320616c72656160448201526d191e481a5b9a5d1a585b1a5e995960921b606482015260840161034f565b6000805460ff1916600117905580156109d5576000805461ff0019166101001790555b8015610a1b576000805461ff0019169055604051600181527f7f26b83ff96e1f2b6a682f133852f6798a09c465da95921460cefb38474024989060200160405180910390a15b50565b600085815260026020526040902080546001600160a01b03163314610a9f5760405162461bcd60e51b815260206004820152603160248201527f4f6e6c792074686520616c6c6f6361746f722063616e2075706461746520616c6044820152703637b1b0ba34b7b7103932bbb0b932399760791b606482015260840161034f565b600681018590556007810184905560088101805463ffffffff8481166401000000000267ffffffffffffffff19909216908616171790556040517ffcd537d3fc9c6f64078c9c86412d6a64c37948df1bd043ecc7f9f581d7e8e24490610b089088815260200190565b60405180910390a1505050505050565b6000828152600260205260409020546001600160a01b03163314610b915760405162461bcd60e51b815260206004820152602a60248201527f4f6e6c792074686520616c6c6f6361746f722063616e206465616c6c6f63617460448201526932903932bbb0b932399760b11b606482015260840161034f565b60008281526002602081905260409091200154811115610bc05750600081815260026020819052604090912001545b610bca82826111b2565b6000828152600260205260409081902060010154905163a9059cbb60e01b8152336004820152602481018390526001600160a01b039091169063a9059cbb90604401602060405180830381600087803b158015610c2657600080fd5b505af1158015610c3a573d6000803e3d6000fd5b505050506040513d601f19601f82011682018060405250810190610c5e9190611413565b5060008281526002602081905260409091200154610d1657600082815260026020819052604080832080546001600160a01b03199081168255600182018054821690559281018490556003810184905560048101805484169055600581018054909316909255600682018390556007820192909255600801805468ffffffffffffffffff19169055517f698179301d5c74d995c4597afa699d93a464ea03a6a2a9bfc11f0d0fd4c9cfd9906102d99084815260200190565b60408051838152602081018390527fdb6f83be148266f54cb6b67859eedb520ac995d0d6b670dcee19a3d5c6f1e47e91016102d9565b5050565b63ffffffff82161580610d6e57508163ffffffff168363ffffffff16115b610dcf5760405162461bcd60e51b815260206004820152602c60248201527f4c6f616e20776173206163636570746564206265666f726520746865206d696e60448201526b1039ba30b93a103a34b6b29760a11b606482015260840161034f565b63ffffffff81161580610ded57508063ffffffff168363ffffffff16105b610e4d5760405162461bcd60e51b815260206004820152602b60248201527f4c6f616e2077617320616363657074656420616674657220746865206d61782060448201526a39ba30b93a103a34b6b29760a91b606482015260840161034f565b505050565b6000836001600160a01b031663313ce5676040518163ffffffff1660e01b815260040160206040518083038186803b158015610e8d57600080fd5b505afa158015610ea1573d6000803e3d6000fd5b505050506040513d601f19601f82011682018060405250810190610ec5919061151d565b60ff1690506000866001600160a01b031663313ce5676040518163ffffffff1660e01b815260040160206040518083038186803b158015610f0557600080fd5b505afa158015610f19573d6000803e3d6000fd5b505050506040513d601f19601f82011682018060405250810190610f3d919061151d565b60ff1690506000610f50858484876111dc565b905080871015610fbe5760405162461bcd60e51b815260206004820152603360248201527f4c6f616e20646f6573206e6f74206d656574206d696e696d756d20636f6c6c616044820152723a32b930b634bd30ba34b7b7103930ba34b79760691b606482015260840161034f565b5050505050505050565b6001600160a01b0381161580610fef5750806001600160a01b0316826001600160a01b0316145b610d4c5760405162461bcd60e51b815260206004820152601f60248201527f496e76616c696420657870656374656420746f6b656e20616464726573732e00604482015260640161034f565b60008085600181111561105057611050611305565b14156110be57600484600581111561106a5761106a611305565b146110b75760405162461bcd60e51b815260206004820152601b60248201527f496e76616c69642062696420737461746520666f72206c6f616e2e0000000000604482015260640161034f565b5081611189565b60018560018111156110d2576110d2611305565b14156111415760038460058111156110ec576110ec611305565b101561113a5760405162461bcd60e51b815260206004820152601b60248201527f496e76616c69642062696420737461746520666f72206c6f616e2e0000000000604482015260640161034f565b5080611189565b60405162461bcd60e51b815260206004820152601b60248201527f556e6b6e6f776e20616c6c6f636174696f6e2073747261746567790000000000604482015260640161034f565b949350505050565b60006111a884836111a386600a6117dc565b611201565b90505b9392505050565b600082815260026020819052604082200180548392906111d39084906117e8565b90915550505050565b60006111f885836111ed868861144b565b6111a390600a6117dc565b95945050505050565b60008080600019858709858702925082811083820303915050806000141561123c57838281611232576112326117ff565b04925050506111ab565b80841161124857600080fd5b60008486880960026001871981018816978890046003810283188082028403028082028403028082028403028082028403028082028403029081029092039091026000889003889004909101858311909403939093029303949094049190911702949350505050565b600080604083850312156112c457600080fd5b50508035926020909101359150565b600061016082840312156112e657600080fd5b50919050565b6000602082840312156112fe57600080fd5b5035919050565b634e487b7160e01b600052602160045260246000fd5b6001600160a01b038c811682528b81166020830152604082018b9052606082018a90528881166080830152871660a082015260c0810186905260e0810185905263ffffffff848116610100830152831661012082015261016081016002831061139457634e487b7160e01b600052602160045260246000fd5b826101408301529c9b505050505050505050505050565b63ffffffff81168114610a1b57600080fd5b600080600080600060a086880312156113d557600080fd5b85359450602086013593506040860135925060608601356113f5816113ab565b91506080860135611405816113ab565b809150509295509295909350565b60006020828403121561142557600080fd5b815180151581146111ab57600080fd5b634e487b7160e01b600052601160045260246000fd5b6000821982111561145e5761145e611435565b500190565b6001600160a01b0381168114610a1b57600080fd5b600080600080600080600060e0888a03121561149357600080fd5b875161149e81611463565b60208901519097506114af81611463565b604089015160608a015191975095506114c781611463565b608089015160a08a015191955093506114df816113ab565b60c0890151909250600681106114f457600080fd5b8091505092959891949750929550565b60006020828403121561151657600080fd5b5051919050565b60006020828403121561152f57600080fd5b815160ff811681146111ab57600080fd5b600060001982141561155457611554611435565b5060010190565b60006020828403121561156d57600080fd5b81356111ab81611463565b6000813561158581611463565b92915050565b80546001600160a01b0319166001600160a01b0392909216919091179055565b60008135611585816113ab565b600081356002811061158557600080fd5b600282106115e757634e487b7160e01b600052602160045260246000fd5b805460ff60401b8360401b1660ff60401b198216178255505050565b61161561160f83611578565b8261158b565b61162d61162460208401611578565b6001830161158b565b604082013560028201556060820135600382015561165961165060808401611578565b6004830161158b565b61167161166860a08401611578565b6005830161158b565b60c0820135600682015560e08201356007820155600881016116b061169961010085016115ab565b825463ffffffff191663ffffffff91909116178255565b6116e26116c061012085016115ab565b825467ffffffff00000000191660209190911b67ffffffff0000000016178255565b610e4d6116f261014085016115b8565b826115c9565b600181815b8085111561173357816000190482111561171957611719611435565b8085161561172657918102915b93841c93908002906116fd565b509250929050565b60008261174a57506001611585565b8161175757506000611585565b816001811461176d576002811461177757611793565b6001915050611585565b60ff84111561178857611788611435565b50506001821b611585565b5060208310610133831016604e8410600b84101617156117b6575081810a611585565b6117c083836116f8565b80600019048211156117d4576117d4611435565b029392505050565b60006111ab838361173b565b6000828210156117fa576117fa611435565b500390565b634e487b7160e01b600052601260045260246000fdfea2646970667358221220e9ee9ce41db1cc79b75bc905ef429848369d3338d2dc4b86c00a6602f8690fb164736f6c63430008090033",
  "devdoc": {
    "kind": "dev",
    "methods": {
      "allocateRewards((address,address,uint256,uint256,address,address,uint256,uint256,uint32,uint32,uint8))": {
        "params": {
          "_allocation": "- The RewardAllocation struct data to create"
        },
        "returns": {
          "allocationId_": "allocationId_"
        }
      },
      "claimRewards(uint256,uint256)": {
        "params": {
          "_allocationId": "- The id for the reward allocation",
          "_bidId": "- The id for the loan. Each loan only grants one reward per allocation."
        }
      },
      "deallocateRewards(uint256,uint256)": {
        "params": {
          "_allocationId": "- The id for the allocation",
          "_tokenAmount": "- The amount of tokens to withdraw"
        }
      },
      "increaseAllocationAmount(uint256,uint256)": {
        "params": {
          "_allocationId": "- The id for the allocation",
          "_tokenAmount": "- The amount of tokens to add"
        }
      },
      "updateAllocation(uint256,uint256,uint256,uint32,uint32)": {
        "params": {
          "_allocationId": "- The id for the allocation",
          "_bidStartTimeMax": "- The block timestamp that loans must have been accepted before to claim rewards",
          "_bidStartTimeMin": "- The block timestamp that loans must have been accepted after to claim rewards",
          "_minimumCollateralPerPrincipalAmount": "- The required collateralization ratio",
          "_rewardPerLoanPrincipalAmount": "- The reward to give per principal amount"
        }
      }
    },
    "version": 1
  },
  "userdoc": {
    "kind": "user",
    "methods": {
      "allocateRewards((address,address,uint256,uint256,address,address,uint256,uint256,uint32,uint32,uint8))": {
        "notice": "Creates a new token allocation and transfers the token amount into escrow in this contract"
      },
      "claimRewards(uint256,uint256)": {
        "notice": "Allows a borrower or lender to withdraw the allocated ERC20 reward for their loan"
      },
      "deallocateRewards(uint256,uint256)": {
        "notice": "Allows the allocator to withdraw some or all of the funds within an allocation"
      },
      "increaseAllocationAmount(uint256,uint256)": {
        "notice": "Allows anyone to add tokens to an allocation"
      },
      "updateAllocation(uint256,uint256,uint256,uint32,uint32)": {
        "notice": "Allows the allocator to update properties of an allocation"
      }
    },
    "version": 1
  },
  "storageLayout": {
    "storage": [
      {
        "astId": 138,
        "contract": "contracts/MarketLiquidityRewards.sol:MarketLiquidityRewards",
        "label": "_initialized",
        "offset": 0,
        "slot": "0",
        "type": "t_uint8"
      },
      {
        "astId": 141,
        "contract": "contracts/MarketLiquidityRewards.sol:MarketLiquidityRewards",
        "label": "_initializing",
        "offset": 1,
        "slot": "0",
        "type": "t_bool"
      },
      {
        "astId": 12374,
        "contract": "contracts/MarketLiquidityRewards.sol:MarketLiquidityRewards",
        "label": "allocationCount",
        "offset": 0,
        "slot": "1",
        "type": "t_uint256"
      },
      {
        "astId": 12379,
        "contract": "contracts/MarketLiquidityRewards.sol:MarketLiquidityRewards",
        "label": "allocatedRewards",
        "offset": 0,
        "slot": "2",
        "type": "t_mapping(t_uint256,t_struct(RewardAllocation)19290_storage)"
      },
      {
        "astId": 12385,
        "contract": "contracts/MarketLiquidityRewards.sol:MarketLiquidityRewards",
        "label": "rewardClaimedForBid",
        "offset": 0,
        "slot": "3",
        "type": "t_mapping(t_uint256,t_mapping(t_uint256,t_bool))"
      }
    ],
    "types": {
      "t_address": {
        "encoding": "inplace",
        "label": "address",
        "numberOfBytes": "20"
      },
      "t_bool": {
        "encoding": "inplace",
        "label": "bool",
        "numberOfBytes": "1"
      },
      "t_enum(AllocationStrategy)19293": {
        "encoding": "inplace",
        "label": "enum IMarketLiquidityRewards.AllocationStrategy",
        "numberOfBytes": "1"
      },
      "t_mapping(t_uint256,t_bool)": {
        "encoding": "mapping",
        "key": "t_uint256",
        "label": "mapping(uint256 => bool)",
        "numberOfBytes": "32",
        "value": "t_bool"
      },
      "t_mapping(t_uint256,t_mapping(t_uint256,t_bool))": {
        "encoding": "mapping",
        "key": "t_uint256",
        "label": "mapping(uint256 => mapping(uint256 => bool))",
        "numberOfBytes": "32",
        "value": "t_mapping(t_uint256,t_bool)"
      },
      "t_mapping(t_uint256,t_struct(RewardAllocation)19290_storage)": {
        "encoding": "mapping",
        "key": "t_uint256",
        "label": "mapping(uint256 => struct IMarketLiquidityRewards.RewardAllocation)",
        "numberOfBytes": "32",
        "value": "t_struct(RewardAllocation)19290_storage"
      },
      "t_struct(RewardAllocation)19290_storage": {
        "encoding": "inplace",
        "label": "struct IMarketLiquidityRewards.RewardAllocation",
        "members": [
          {
            "astId": 19268,
            "contract": "contracts/MarketLiquidityRewards.sol:MarketLiquidityRewards",
            "label": "allocator",
            "offset": 0,
            "slot": "0",
            "type": "t_address"
          },
          {
            "astId": 19270,
            "contract": "contracts/MarketLiquidityRewards.sol:MarketLiquidityRewards",
            "label": "rewardTokenAddress",
            "offset": 0,
            "slot": "1",
            "type": "t_address"
          },
          {
            "astId": 19272,
            "contract": "contracts/MarketLiquidityRewards.sol:MarketLiquidityRewards",
            "label": "rewardTokenAmount",
            "offset": 0,
            "slot": "2",
            "type": "t_uint256"
          },
          {
            "astId": 19274,
            "contract": "contracts/MarketLiquidityRewards.sol:MarketLiquidityRewards",
            "label": "marketId",
            "offset": 0,
            "slot": "3",
            "type": "t_uint256"
          },
          {
            "astId": 19276,
            "contract": "contracts/MarketLiquidityRewards.sol:MarketLiquidityRewards",
            "label": "requiredPrincipalTokenAddress",
            "offset": 0,
            "slot": "4",
            "type": "t_address"
          },
          {
            "astId": 19278,
            "contract": "contracts/MarketLiquidityRewards.sol:MarketLiquidityRewards",
            "label": "requiredCollateralTokenAddress",
            "offset": 0,
            "slot": "5",
            "type": "t_address"
          },
          {
            "astId": 19280,
            "contract": "contracts/MarketLiquidityRewards.sol:MarketLiquidityRewards",
            "label": "minimumCollateralPerPrincipalAmount",
            "offset": 0,
            "slot": "6",
            "type": "t_uint256"
          },
          {
            "astId": 19282,
            "contract": "contracts/MarketLiquidityRewards.sol:MarketLiquidityRewards",
            "label": "rewardPerLoanPrincipalAmount",
            "offset": 0,
            "slot": "7",
            "type": "t_uint256"
          },
          {
            "astId": 19284,
            "contract": "contracts/MarketLiquidityRewards.sol:MarketLiquidityRewards",
            "label": "bidStartTimeMin",
            "offset": 0,
            "slot": "8",
            "type": "t_uint32"
          },
          {
            "astId": 19286,
            "contract": "contracts/MarketLiquidityRewards.sol:MarketLiquidityRewards",
            "label": "bidStartTimeMax",
            "offset": 4,
            "slot": "8",
            "type": "t_uint32"
          },
          {
            "astId": 19289,
            "contract": "contracts/MarketLiquidityRewards.sol:MarketLiquidityRewards",
            "label": "allocationStrategy",
            "offset": 8,
            "slot": "8",
            "type": "t_enum(AllocationStrategy)19293"
          }
        ],
        "numberOfBytes": "288"
      },
      "t_uint256": {
        "encoding": "inplace",
        "label": "uint256",
        "numberOfBytes": "32"
      },
      "t_uint32": {
        "encoding": "inplace",
        "label": "uint32",
        "numberOfBytes": "4"
      },
      "t_uint8": {
        "encoding": "inplace",
        "label": "uint8",
        "numberOfBytes": "1"
      }
    }
  }
}