{
  "address": "0x8a335f888aF37354AEb04df0002e85Ae94D29C55",
  "abi": [
    {
      "inputs": [
        {
          "components": [
            {
              "internalType": "address",
              "name": "from",
              "type": "address"
            },
            {
              "internalType": "address",
              "name": "to",
              "type": "address"
            },
            {
              "internalType": "uint256",
              "name": "value",
              "type": "uint256"
            },
            {
              "internalType": "uint256",
              "name": "gas",
              "type": "uint256"
            },
            {
              "internalType": "uint256",
              "name": "nonce",
              "type": "uint256"
            },
            {
              "internalType": "bytes",
              "name": "data",
              "type": "bytes"
            }
          ],
          "internalType": "struct MinimalForwarderUpgradeable.ForwardRequest",
          "name": "req",
          "type": "tuple"
        },
        {
          "internalType": "bytes",
          "name": "signature",
          "type": "bytes"
        }
      ],
      "name": "execute",
      "outputs": [
        {
          "internalType": "bool",
          "name": "",
          "type": "bool"
        },
        {
          "internalType": "bytes",
          "name": "",
          "type": "bytes"
        }
      ],
      "stateMutability": "payable",
      "type": "function"
    },
    {
      "inputs": [
        {
          "internalType": "address",
          "name": "from",
          "type": "address"
        }
      ],
      "name": "getNonce",
      "outputs": [
        {
          "internalType": "uint256",
          "name": "",
          "type": "uint256"
        }
      ],
      "stateMutability": "view",
      "type": "function"
    },
    {
      "inputs": [],
      "name": "initialize",
      "outputs": [],
      "stateMutability": "nonpayable",
      "type": "function"
    },
    {
      "inputs": [
        {
          "components": [
            {
              "internalType": "address",
              "name": "from",
              "type": "address"
            },
            {
              "internalType": "address",
              "name": "to",
              "type": "address"
            },
            {
              "internalType": "uint256",
              "name": "value",
              "type": "uint256"
            },
            {
              "internalType": "uint256",
              "name": "gas",
              "type": "uint256"
            },
            {
              "internalType": "uint256",
              "name": "nonce",
              "type": "uint256"
            },
            {
              "internalType": "bytes",
              "name": "data",
              "type": "bytes"
            }
          ],
          "internalType": "struct MinimalForwarderUpgradeable.ForwardRequest",
          "name": "req",
          "type": "tuple"
        },
        {
          "internalType": "bytes",
          "name": "signature",
          "type": "bytes"
        }
      ],
      "name": "verify",
      "outputs": [
        {
          "internalType": "bool",
          "name": "",
          "type": "bool"
        }
      ],
      "stateMutability": "view",
      "type": "function"
    }
  ],
  "artifactName": "MetaForwarder",
  "transactionHash": "0x65f53aa9653828ed8ea21d0e2d715da4538fe17bdc03f1335c4c3693ebfe8886",
  "args": [],
  "solcInputHash": "d0605e32865db6ecbe05401d23984095",
  "bytecode": "0x608060405234801561001057600080fd5b50610c4f806100206000396000f3fe60806040526004361061003f5760003560e01c80632d0335ab1461004457806347153f821461008d5780638129fc1c146100ae578063bf5d3bdb146100c5575b600080fd5b34801561005057600080fd5b5061007a61005f3660046109e7565b6001600160a01b031660009081526035602052604090205490565b6040519081526020015b60405180910390f35b6100a061009b366004610a17565b6100f5565b604051610084929190610ae6565b3480156100ba57600080fd5b506100c361028f565b005b3480156100d157600080fd5b506100e56100e0366004610a17565b61039a565b6040519015158152602001610084565b6000606061010485858561039a565b6101705760405162461bcd60e51b815260206004820152603260248201527f4d696e696d616c466f727761726465723a207369676e617475726520646f6573604482015271081b9bdd081b585d18da081c995c5d595cdd60721b60648201526084015b60405180910390fd5b61017f60808601356001610b22565b6035600061019060208901896109e7565b6001600160a01b03166001600160a01b03168152602001908152602001600020819055506000808660200160208101906101ca91906109e7565b6001600160a01b0316606088013560408901356101ea60a08b018b610b48565b6101f760208d018d6109e7565b60405160200161020993929190610b8f565b60408051601f198184030181529082905261022391610bb5565b600060405180830381858888f193505050503d8060008114610261576040519150601f19603f3d011682016040523d82523d6000602084013e610266565b606091505b50909250905061027b603f6060890135610bd1565b5a1161028357fe5b90969095509350505050565b600054610100900460ff166102aa5760005460ff16156102ae565b303b155b6103115760405162461bcd60e51b815260206004820152602e60248201527f496e697469616c697a61626c653a20636f6e747261637420697320616c72656160448201526d191e481a5b9a5d1a585b1a5e995960921b6064820152608401610167565b600054610100900460ff16158015610333576000805461ffff19166101011790555b610385604051806040016040528060138152602001722a32b63632b926b2ba30a337b93bb0b93232b960691b81525060405180604001604052806005815260200164302e302e3160d81b815250610519565b8015610397576000805461ff00191690555b50565b6000806104ad84848080601f0160208091040260200160405190810160405280939291908181526020018383808284376000920191909152506104a792507fdd8f4b70b0f4393e889bd39128a30628a78b61816a9eb8199759e7a349657e48915061040a905060208a018a6109e7565b61041a60408b0160208c016109e7565b60408b013560608c013560808d013561043660a08f018f610b48565b604051610444929190610bf3565b6040805191829003822060208301989098526001600160a01b0396871690820152949093166060850152608084019190915260a083015260c082015260e0810191909152610100016040516020818303038152906040528051906020012061059e565b906105f2565b90506080850135603560006104c560208901896109e7565b6001600160a01b03166001600160a01b031681526020019081526020016000205414801561051057506104fb60208601866109e7565b6001600160a01b0316816001600160a01b0316145b95945050505050565b600054610100900460ff166105845760405162461bcd60e51b815260206004820152602b60248201527f496e697469616c697a61626c653a20636f6e7472616374206973206e6f74206960448201526a6e697469616c697a696e6760a81b6064820152608401610167565b815160209283012081519190920120600191909155600255565b60006105ec6105ab610616565b8360405161190160f01b6020820152602281018390526042810182905260009060620160405160208183030381529060405280519060200120905092915050565b92915050565b60008060006106018585610696565b9150915061060e81610706565b509392505050565b60006106917f8b73c3c69bb8fe3d512ecc4cf759cc79239f7b179b0ffacaa9a75d522b39400f61064560015490565b6002546040805160208101859052908101839052606081018290524660808201523060a082015260009060c0016040516020818303038152906040528051906020012090509392505050565b905090565b6000808251604114156106cd5760208301516040840151606085015160001a6106c1878285856108c1565b945094505050506106ff565b8251604014156106f757602083015160408401516106ec8683836109ae565b9350935050506106ff565b506000905060025b9250929050565b600081600481111561071a5761071a610c03565b14156107235750565b600181600481111561073757610737610c03565b14156107855760405162461bcd60e51b815260206004820152601860248201527f45434453413a20696e76616c6964207369676e617475726500000000000000006044820152606401610167565b600281600481111561079957610799610c03565b14156107e75760405162461bcd60e51b815260206004820152601f60248201527f45434453413a20696e76616c6964207369676e6174757265206c656e677468006044820152606401610167565b60038160048111156107fb576107fb610c03565b14156108545760405162461bcd60e51b815260206004820152602260248201527f45434453413a20696e76616c6964207369676e6174757265202773272076616c604482015261756560f01b6064820152608401610167565b600481600481111561086857610868610c03565b14156103975760405162461bcd60e51b815260206004820152602260248201527f45434453413a20696e76616c6964207369676e6174757265202776272076616c604482015261756560f01b6064820152608401610167565b6000807f7fffffffffffffffffffffffffffffff5d576e7357a4501ddfe92f46681b20a08311156108f857506000905060036109a5565b8460ff16601b1415801561091057508460ff16601c14155b1561092157506000905060046109a5565b6040805160008082526020820180845289905260ff881692820192909252606081018690526080810185905260019060a0016020604051602081039080840390855afa158015610975573d6000803e3d6000fd5b5050604051601f1901519150506001600160a01b03811661099e576000600192509250506109a5565b9150600090505b94509492505050565b6000806001600160ff1b038316816109cb60ff86901c601b610b22565b90506109d9878288856108c1565b935093505050935093915050565b6000602082840312156109f957600080fd5b81356001600160a01b0381168114610a1057600080fd5b9392505050565b600080600060408486031215610a2c57600080fd5b833567ffffffffffffffff80821115610a4457600080fd5b9085019060c08288031215610a5857600080fd5b90935060208501359080821115610a6e57600080fd5b818601915086601f830112610a8257600080fd5b813581811115610a9157600080fd5b876020828501011115610aa357600080fd5b6020830194508093505050509250925092565b60005b83811015610ad1578181015183820152602001610ab9565b83811115610ae0576000848401525b50505050565b82151581526040602082015260008251806040840152610b0d816060850160208701610ab6565b601f01601f1916919091016060019392505050565b60008219821115610b4357634e487b7160e01b600052601160045260246000fd5b500190565b6000808335601e19843603018112610b5f57600080fd5b83018035915067ffffffffffffffff821115610b7a57600080fd5b6020019150368190038213156106ff57600080fd5b8284823760609190911b6bffffffffffffffffffffffff19169101908152601401919050565b60008251610bc7818460208701610ab6565b9190910192915050565b600082610bee57634e487b7160e01b600052601260045260246000fd5b500490565b8183823760009101908152919050565b634e487b7160e01b600052602160045260246000fdfea2646970667358221220799123a2aa83e0681213ae5995bf800e90beac39990c36babed8f7594a6230ac64736f6c63430008090033",
  "devdoc": {
    "kind": "dev",
    "methods": {},
    "version": 1
  },
  "userdoc": {
    "kind": "user",
    "methods": {},
    "version": 1
  },
  "storageLayout": {
    "storage": [
      {
        "astId": 1704,
        "contract": "contracts/MetaForwarder.sol:MetaForwarder",
        "label": "_initialized",
        "offset": 0,
        "slot": "0",
        "type": "t_bool"
      },
      {
        "astId": 1707,
        "contract": "contracts/MetaForwarder.sol:MetaForwarder",
        "label": "_initializing",
        "offset": 1,
        "slot": "0",
        "type": "t_bool"
      },
      {
        "astId": 2786,
        "contract": "contracts/MetaForwarder.sol:MetaForwarder",
        "label": "_HASHED_NAME",
        "offset": 0,
        "slot": "1",
        "type": "t_bytes32"
      },
      {
        "astId": 2788,
        "contract": "contracts/MetaForwarder.sol:MetaForwarder",
        "label": "_HASHED_VERSION",
        "offset": 0,
        "slot": "2",
        "type": "t_bytes32"
      },
      {
        "astId": 2926,
        "contract": "contracts/MetaForwarder.sol:MetaForwarder",
        "label": "__gap",
        "offset": 0,
        "slot": "3",
        "type": "t_array(t_uint256)50_storage"
      },
      {
        "astId": 1544,
        "contract": "contracts/MetaForwarder.sol:MetaForwarder",
        "label": "_nonces",
        "offset": 0,
        "slot": "53",
        "type": "t_mapping(t_address,t_uint256)"
      },
      {
        "astId": 1696,
        "contract": "contracts/MetaForwarder.sol:MetaForwarder",
        "label": "__gap",
        "offset": 0,
        "slot": "54",
        "type": "t_array(t_uint256)49_storage"
      }
    ],
    "types": {
      "t_address": {
        "encoding": "inplace",
        "label": "address",
        "numberOfBytes": "20"
      },
      "t_array(t_uint256)49_storage": {
        "base": "t_uint256",
        "encoding": "inplace",
        "label": "uint256[49]",
        "numberOfBytes": "1568"
      },
      "t_array(t_uint256)50_storage": {
        "base": "t_uint256",
        "encoding": "inplace",
        "label": "uint256[50]",
        "numberOfBytes": "1600"
      },
      "t_bool": {
        "encoding": "inplace",
        "label": "bool",
        "numberOfBytes": "1"
      },
      "t_bytes32": {
        "encoding": "inplace",
        "label": "bytes32",
        "numberOfBytes": "32"
      },
      "t_mapping(t_address,t_uint256)": {
        "encoding": "mapping",
        "key": "t_address",
        "label": "mapping(address => uint256)",
        "numberOfBytes": "32",
        "value": "t_uint256"
      },
      "t_uint256": {
        "encoding": "inplace",
        "label": "uint256",
        "numberOfBytes": "32"
      }
    }
  }
}