{
  "address": "0x72733102AB139FB0367cc29D492c955A7c736079",
  "abi": [
    {
      "anonymous": false,
      "inputs": [
        {
          "indexed": true,
          "internalType": "address",
          "name": "account",
          "type": "address"
        },
        {
          "indexed": true,
          "internalType": "enum RepMark",
          "name": "repMark",
          "type": "uint8"
        },
        {
          "indexed": false,
          "internalType": "uint256",
          "name": "bidId",
          "type": "uint256"
        }
      ],
      "name": "MarkAdded",
      "type": "event"
    },
    {
      "anonymous": false,
      "inputs": [
        {
          "indexed": true,
          "internalType": "address",
          "name": "account",
          "type": "address"
        },
        {
          "indexed": true,
          "internalType": "enum RepMark",
          "name": "repMark",
          "type": "uint8"
        },
        {
          "indexed": false,
          "internalType": "uint256",
          "name": "bidId",
          "type": "uint256"
        }
      ],
      "name": "MarkRemoved",
      "type": "event"
    },
    {
      "inputs": [],
      "name": "CONTROLLER",
      "outputs": [
        {
          "internalType": "bytes32",
          "name": "",
          "type": "bytes32"
        }
      ],
      "stateMutability": "view",
      "type": "function"
    },
    {
      "inputs": [
        {
          "internalType": "address",
          "name": "_account",
          "type": "address"
        }
      ],
      "name": "getCurrentDefaultLoanIds",
      "outputs": [
        {
          "internalType": "uint256[]",
          "name": "",
          "type": "uint256[]"
        }
      ],
      "stateMutability": "nonpayable",
      "type": "function"
    },
    {
      "inputs": [
        {
          "internalType": "address",
          "name": "_account",
          "type": "address"
        }
      ],
      "name": "getCurrentDelinquentLoanIds",
      "outputs": [
        {
          "internalType": "uint256[]",
          "name": "",
          "type": "uint256[]"
        }
      ],
      "stateMutability": "nonpayable",
      "type": "function"
    },
    {
      "inputs": [
        {
          "internalType": "address",
          "name": "_account",
          "type": "address"
        }
      ],
      "name": "getDefaultedLoanIds",
      "outputs": [
        {
          "internalType": "uint256[]",
          "name": "",
          "type": "uint256[]"
        }
      ],
      "stateMutability": "nonpayable",
      "type": "function"
    },
    {
      "inputs": [
        {
          "internalType": "address",
          "name": "_account",
          "type": "address"
        }
      ],
      "name": "getDelinquentLoanIds",
      "outputs": [
        {
          "internalType": "uint256[]",
          "name": "",
          "type": "uint256[]"
        }
      ],
      "stateMutability": "nonpayable",
      "type": "function"
    },
    {
      "inputs": [
        {
          "internalType": "address",
          "name": "_tellerV2",
          "type": "address"
        }
      ],
      "name": "initialize",
      "outputs": [],
      "stateMutability": "nonpayable",
      "type": "function"
    },
    {
      "inputs": [],
      "name": "tellerV2",
      "outputs": [
        {
          "internalType": "contract ITellerV2",
          "name": "",
          "type": "address"
        }
      ],
      "stateMutability": "view",
      "type": "function"
    },
    {
      "inputs": [
        {
          "internalType": "address",
          "name": "_account",
          "type": "address"
        }
      ],
      "name": "updateAccountReputation",
      "outputs": [],
      "stateMutability": "nonpayable",
      "type": "function"
    },
    {
      "inputs": [
        {
          "internalType": "address",
          "name": "_account",
          "type": "address"
        },
        {
          "internalType": "uint256",
          "name": "_bidId",
          "type": "uint256"
        }
      ],
      "name": "updateAccountReputation",
      "outputs": [
        {
          "internalType": "enum RepMark",
          "name": "",
          "type": "uint8"
        }
      ],
      "stateMutability": "nonpayable",
      "type": "function"
    }
  ],
  "artifactName": "ReputationManager",
  "transactionHash": "0x9a56b97d4be9326e851dfb0cb5b2a596f0a64a500b6aa3d2ef1e0e9dea5329a1",
  "args": [],
  "solcInputHash": "da330fe2e38316efe7fedf19ac145fb7",
  "bytecode": "0x608060405234801561001057600080fd5b50610ba2806100206000396000f3fe608060405234801561001057600080fd5b50600436106100935760003560e01c8063941675db11610066578063941675db146100fc578063c4d66de81461012d578063c7312e4714610140578063e0d5343d14610160578063ee0fc1211461017357600080fd5b806303c04b2814610098578063287b498a146100c15780637076185c146100d457806376604b37146100e9575b600080fd5b6100ab6100a6366004610934565b6101a8565b6040516100b89190610a60565b60405180910390f35b6100ab6100cf366004610934565b6101da565b6100e76100e2366004610934565b610206565b005b6100ab6100f7366004610934565b6102d8565b600054610115906201000090046001600160a01b031681565b6040516001600160a01b0390911681526020016100b8565b6100e761013b366004610934565b610304565b61015361014e36600461094f565b6103e4565b6040516100b89190610aa4565b6100ab61016e366004610934565b6103f7565b61019a7f70546d1c92f8c2132ae23a23f5177aa8526356051c7510df99f50e012d22152981565b6040519081526020016100b8565b60606101b382610206565b6001600160a01b03821660009081526002602052604090206101d49061041f565b92915050565b60606101e582610206565b6001600160a01b03821660009081526004602052604090206101d49061041f565b6000805460405163054de0ff60e01b81526001600160a01b038481166004830152620100009092049091169063054de0ff9060240160006040518083038186803b15801561025357600080fd5b505afa158015610267573d6000803e3d6000fd5b505050506040513d6000823e601f3d908101601f1916820160405261028f9190810190610979565b905060005b81518110156102d3576102c0838383815181106102b3576102b3610b40565b602002602001015161042c565b50806102cb81610ae3565b915050610294565b505050565b60606102e382610206565b6001600160a01b03821660009081526001602052604090206101d49061041f565b600054610100900460ff1661031f5760005460ff1615610323565b303b155b61038a5760405162461bcd60e51b815260206004820152602e60248201527f496e697469616c697a61626c653a20636f6e747261637420697320616c72656160448201526d191e481a5b9a5d1a585b1a5e995960921b606482015260840160405180910390fd5b600054610100900460ff161580156103ac576000805461ffff19166101011790555b6000805462010000600160b01b031916620100006001600160a01b0385160217905580156103e0576000805461ff00191690555b5050565b60006103f0838361042c565b9392505050565b606061040282610206565b6001600160a01b03821660009081526003602052604090206101d4905b606060006103f083610575565b6000805460405163e8cbab0960e01b815260048101849052620100009091046001600160a01b03169063e8cbab099060240160206040518083038186803b15801561047657600080fd5b505afa15801561048a573d6000803e3d6000fd5b505050506040513d601f19601f820116820180604052508101906104ae9190610a3e565b156104c7575060026104c2838360016105d1565b610551565b60005460405163093f561760e01b815260048101849052620100009091046001600160a01b03169063093f56179060240160206040518083038186803b15801561051057600080fd5b505afa158015610524573d6000803e3d6000fd5b505050506040513d601f19601f820116820180604052508101906105489190610a3e565b15610551575060015b600081600281111561056557610565610b14565b146101d4576101d48383836106ab565b6060816000018054806020026020016040519081016040528092919081815260200182805480156105c557602002820191906000526020600020905b8154815260200190600101908083116105b1575b50505050509050919050565b60018160028111156105e5576105e5610b14565b1415610613576001600160a01b038316600090815260036020526040902061060d90836107be565b50610651565b600281600281111561062757610627610b14565b1415610651576001600160a01b038316600090815260046020526040902061064f90836107be565b505b80600281111561066357610663610b14565b836001600160a01b03167f3b90fa143863a45908a7b69d67a369f6e401bfc21b1f1873b2c18f7dfdf0dd278460405161069e91815260200190565b60405180910390a3505050565b60018160028111156106bf576106bf610b14565b1415610710576001600160a01b03831660009081526001602052604090206106e790836107ca565b506001600160a01b038316600090815260036020526040902061070a90836107ca565b50610771565b600281600281111561072457610724610b14565b1415610771576001600160a01b038316600090815260026020526040902061074c90836107ca565b506001600160a01b038316600090815260046020526040902061076f90836107ca565b505b80600281111561078357610783610b14565b836001600160a01b03167f07ffa1c77b3c4d3bf16ff59253da47ed8e8a4367376d6caf4bf66469977bc5db8460405161069e91815260200190565b60006103f083836107d6565b60006103f083836108c9565b600081815260018301602052604081205480156108bf5760006107fa600183610acc565b855490915060009061080e90600190610acc565b905081811461087357600086600001828154811061082e5761082e610b40565b906000526020600020015490508087600001848154811061085157610851610b40565b6000918252602080832090910192909255918252600188019052604090208390555b855486908061088457610884610b2a565b6001900381819060005260206000200160009055905585600101600086815260200190815260200160002060009055600193505050506101d4565b60009150506101d4565b6000818152600183016020526040812054610910575081546001818101845560008481526020808220909301849055845484825282860190935260409020919091556101d4565b5060006101d4565b80356001600160a01b038116811461092f57600080fd5b919050565b60006020828403121561094657600080fd5b6103f082610918565b6000806040838503121561096257600080fd5b61096b83610918565b946020939093013593505050565b6000602080838503121561098c57600080fd5b825167ffffffffffffffff808211156109a457600080fd5b818501915085601f8301126109b857600080fd5b8151818111156109ca576109ca610b56565b8060051b604051601f19603f830116810181811085821117156109ef576109ef610b56565b604052828152858101935084860182860187018a1015610a0e57600080fd5b600095505b83861015610a31578051855260019590950194938601938601610a13565b5098975050505050505050565b600060208284031215610a5057600080fd5b815180151581146103f057600080fd5b6020808252825182820181905260009190848201906040850190845b81811015610a9857835183529284019291840191600101610a7c565b50909695505050505050565b6020810160038310610ac657634e487b7160e01b600052602160045260246000fd5b91905290565b600082821015610ade57610ade610afe565b500390565b6000600019821415610af757610af7610afe565b5060010190565b634e487b7160e01b600052601160045260246000fd5b634e487b7160e01b600052602160045260246000fd5b634e487b7160e01b600052603160045260246000fd5b634e487b7160e01b600052603260045260246000fd5b634e487b7160e01b600052604160045260246000fdfea264697066735822122010ae33f876d5eae24fda74b6298e14920b1af51509431983f548db1fb8e89de864736f6c63430008060033",
  "devdoc": {
    "kind": "dev",
    "methods": {},
    "version": 1
  },
  "userdoc": {
    "kind": "user",
    "methods": {
      "initialize(address)": {
        "notice": "Initializes the proxy."
      }
    },
    "version": 1
  },
  "storageLayout": {
    "storage": [
      {
        "astId": 2677,
        "contract": "contracts/ReputationManager.sol:ReputationManager",
        "label": "_initialized",
        "offset": 0,
        "slot": "0",
        "type": "t_bool"
      },
      {
        "astId": 2680,
        "contract": "contracts/ReputationManager.sol:ReputationManager",
        "label": "_initializing",
        "offset": 1,
        "slot": "0",
        "type": "t_bool"
      },
      {
        "astId": 9660,
        "contract": "contracts/ReputationManager.sol:ReputationManager",
        "label": "tellerV2",
        "offset": 2,
        "slot": "0",
        "type": "t_contract(ITellerV2)12561"
      },
      {
        "astId": 9665,
        "contract": "contracts/ReputationManager.sol:ReputationManager",
        "label": "_delinquencies",
        "offset": 0,
        "slot": "1",
        "type": "t_mapping(t_address,t_struct(UintSet)7003_storage)"
      },
      {
        "astId": 9670,
        "contract": "contracts/ReputationManager.sol:ReputationManager",
        "label": "_defaults",
        "offset": 0,
        "slot": "2",
        "type": "t_mapping(t_address,t_struct(UintSet)7003_storage)"
      },
      {
        "astId": 9675,
        "contract": "contracts/ReputationManager.sol:ReputationManager",
        "label": "_currentDelinquencies",
        "offset": 0,
        "slot": "3",
        "type": "t_mapping(t_address,t_struct(UintSet)7003_storage)"
      },
      {
        "astId": 9680,
        "contract": "contracts/ReputationManager.sol:ReputationManager",
        "label": "_currentDefaults",
        "offset": 0,
        "slot": "4",
        "type": "t_mapping(t_address,t_struct(UintSet)7003_storage)"
      }
    ],
    "types": {
      "t_address": {
        "encoding": "inplace",
        "label": "address",
        "numberOfBytes": "20"
      },
      "t_array(t_bytes32)dyn_storage": {
        "base": "t_bytes32",
        "encoding": "dynamic_array",
        "label": "bytes32[]",
        "numberOfBytes": "32"
      },
      "t_bool": {
        "encoding": "inplace",
        "label": "bool",
        "numberOfBytes": "1"
      },
      "t_bytes32": {
        "encoding": "inplace",
        "label": "bytes32",
        "numberOfBytes": "32"
      },
      "t_contract(ITellerV2)12561": {
        "encoding": "inplace",
        "label": "contract ITellerV2",
        "numberOfBytes": "20"
      },
      "t_mapping(t_address,t_struct(UintSet)7003_storage)": {
        "encoding": "mapping",
        "key": "t_address",
        "label": "mapping(address => struct EnumerableSet.UintSet)",
        "numberOfBytes": "32",
        "value": "t_struct(UintSet)7003_storage"
      },
      "t_mapping(t_bytes32,t_uint256)": {
        "encoding": "mapping",
        "key": "t_bytes32",
        "label": "mapping(bytes32 => uint256)",
        "numberOfBytes": "32",
        "value": "t_uint256"
      },
      "t_struct(Set)6545_storage": {
        "encoding": "inplace",
        "label": "struct EnumerableSet.Set",
        "members": [
          {
            "astId": 6540,
            "contract": "contracts/ReputationManager.sol:ReputationManager",
            "label": "_values",
            "offset": 0,
            "slot": "0",
            "type": "t_array(t_bytes32)dyn_storage"
          },
          {
            "astId": 6544,
            "contract": "contracts/ReputationManager.sol:ReputationManager",
            "label": "_indexes",
            "offset": 0,
            "slot": "1",
            "type": "t_mapping(t_bytes32,t_uint256)"
          }
        ],
        "numberOfBytes": "64"
      },
      "t_struct(UintSet)7003_storage": {
        "encoding": "inplace",
        "label": "struct EnumerableSet.UintSet",
        "members": [
          {
            "astId": 7002,
            "contract": "contracts/ReputationManager.sol:ReputationManager",
            "label": "_inner",
            "offset": 0,
            "slot": "0",
            "type": "t_struct(Set)6545_storage"
          }
        ],
        "numberOfBytes": "64"
      },
      "t_uint256": {
        "encoding": "inplace",
        "label": "uint256",
        "numberOfBytes": "32"
      }
    }
  }
}