{
  "address": "0x9c2a3732AaA63e9372aA50DCde169560cfa5f14e",
  "abi": [
    {
      "inputs": [
        {
          "internalType": "address",
          "name": "trustedForwarder",
          "type": "address"
        }
      ],
      "stateMutability": "nonpayable",
      "type": "constructor"
    },
    {
      "inputs": [
        {
          "internalType": "uint256",
          "name": "bidId",
          "type": "uint256"
        },
        {
          "internalType": "string",
          "name": "action",
          "type": "string"
        },
        {
          "internalType": "string",
          "name": "message",
          "type": "string"
        }
      ],
      "name": "ActionNotAllowed",
      "type": "error"
    },
    {
      "inputs": [
        {
          "internalType": "uint256",
          "name": "bidId",
          "type": "uint256"
        },
        {
          "internalType": "uint256",
          "name": "payment",
          "type": "uint256"
        },
        {
          "internalType": "uint256",
          "name": "minimumOwed",
          "type": "uint256"
        }
      ],
      "name": "PaymentNotMinimum",
      "type": "error"
    },
    {
      "anonymous": false,
      "inputs": [
        {
          "indexed": true,
          "internalType": "uint256",
          "name": "bidId",
          "type": "uint256"
        },
        {
          "indexed": true,
          "internalType": "address",
          "name": "lender",
          "type": "address"
        }
      ],
      "name": "AcceptedBid",
      "type": "event"
    },
    {
      "anonymous": false,
      "inputs": [
        {
          "indexed": true,
          "internalType": "uint256",
          "name": "bidId",
          "type": "uint256"
        }
      ],
      "name": "CancelledBid",
      "type": "event"
    },
    {
      "anonymous": false,
      "inputs": [
        {
          "indexed": true,
          "internalType": "uint256",
          "name": "bidId",
          "type": "uint256"
        },
        {
          "indexed": true,
          "internalType": "string",
          "name": "feeType",
          "type": "string"
        },
        {
          "indexed": true,
          "internalType": "uint256",
          "name": "amount",
          "type": "uint256"
        }
      ],
      "name": "FeePaid",
      "type": "event"
    },
    {
      "anonymous": false,
      "inputs": [
        {
          "indexed": true,
          "internalType": "uint256",
          "name": "bidId",
          "type": "uint256"
        },
        {
          "indexed": true,
          "internalType": "address",
          "name": "liquidator",
          "type": "address"
        }
      ],
      "name": "LoanLiquidated",
      "type": "event"
    },
    {
      "anonymous": false,
      "inputs": [
        {
          "indexed": true,
          "internalType": "uint256",
          "name": "bidId",
          "type": "uint256"
        }
      ],
      "name": "LoanRepaid",
      "type": "event"
    },
    {
      "anonymous": false,
      "inputs": [
        {
          "indexed": true,
          "internalType": "uint256",
          "name": "bidId",
          "type": "uint256"
        }
      ],
      "name": "LoanRepayment",
      "type": "event"
    },
    {
      "anonymous": false,
      "inputs": [
        {
          "indexed": true,
          "internalType": "uint256",
          "name": "marketId",
          "type": "uint256"
        },
        {
          "indexed": true,
          "internalType": "address",
          "name": "forwarder",
          "type": "address"
        },
        {
          "indexed": false,
          "internalType": "address",
          "name": "sender",
          "type": "address"
        }
      ],
      "name": "MarketForwarderApproved",
      "type": "event"
    },
    {
      "anonymous": false,
      "inputs": [
        {
          "indexed": true,
          "internalType": "uint256",
          "name": "bidId",
          "type": "uint256"
        }
      ],
      "name": "MarketOwnerCancelledBid",
      "type": "event"
    },
    {
      "anonymous": false,
      "inputs": [
        {
          "indexed": true,
          "internalType": "address",
          "name": "previousOwner",
          "type": "address"
        },
        {
          "indexed": true,
          "internalType": "address",
          "name": "newOwner",
          "type": "address"
        }
      ],
      "name": "OwnershipTransferred",
      "type": "event"
    },
    {
      "anonymous": false,
      "inputs": [
        {
          "indexed": false,
          "internalType": "address",
          "name": "account",
          "type": "address"
        }
      ],
      "name": "Paused",
      "type": "event"
    },
    {
      "anonymous": false,
      "inputs": [
        {
          "indexed": false,
          "internalType": "uint16",
          "name": "newFee",
          "type": "uint16"
        },
        {
          "indexed": false,
          "internalType": "uint16",
          "name": "oldFee",
          "type": "uint16"
        }
      ],
      "name": "ProtocolFeeSet",
      "type": "event"
    },
    {
      "anonymous": false,
      "inputs": [
        {
          "indexed": true,
          "internalType": "uint256",
          "name": "bidId",
          "type": "uint256"
        },
        {
          "indexed": true,
          "internalType": "address",
          "name": "borrower",
          "type": "address"
        },
        {
          "indexed": false,
          "internalType": "address",
          "name": "receiver",
          "type": "address"
        },
        {
          "indexed": true,
          "internalType": "bytes32",
          "name": "metadataURI",
          "type": "bytes32"
        }
      ],
      "name": "SubmittedBid",
      "type": "event"
    },
    {
      "anonymous": false,
      "inputs": [
        {
          "indexed": true,
          "internalType": "uint256",
          "name": "marketId",
          "type": "uint256"
        },
        {
          "indexed": false,
          "internalType": "address",
          "name": "forwarder",
          "type": "address"
        },
        {
          "indexed": false,
          "internalType": "address",
          "name": "sender",
          "type": "address"
        }
      ],
      "name": "TrustedMarketForwarderSet",
      "type": "event"
    },
    {
      "anonymous": false,
      "inputs": [
        {
          "indexed": false,
          "internalType": "address",
          "name": "account",
          "type": "address"
        }
      ],
      "name": "Unpaused",
      "type": "event"
    },
    {
      "inputs": [],
      "name": "CURRENT_CODE_VERSION",
      "outputs": [
        {
          "internalType": "uint256",
          "name": "",
          "type": "uint256"
        }
      ],
      "stateMutability": "view",
      "type": "function"
    },
    {
      "inputs": [
        {
          "internalType": "address",
          "name": "",
          "type": "address"
        }
      ],
      "name": "_lenderVolumeFilled",
      "outputs": [
        {
          "internalType": "uint256",
          "name": "",
          "type": "uint256"
        }
      ],
      "stateMutability": "view",
      "type": "function"
    },
    {
      "inputs": [],
      "name": "_totalVolumeFilled",
      "outputs": [
        {
          "internalType": "uint256",
          "name": "",
          "type": "uint256"
        }
      ],
      "stateMutability": "view",
      "type": "function"
    },
    {
      "inputs": [
        {
          "internalType": "address",
          "name": "_lendingToken",
          "type": "address"
        }
      ],
      "name": "addLendingToken",
      "outputs": [],
      "stateMutability": "nonpayable",
      "type": "function"
    },
    {
      "inputs": [
        {
          "internalType": "uint256",
          "name": "_marketId",
          "type": "uint256"
        },
        {
          "internalType": "address",
          "name": "_forwarder",
          "type": "address"
        }
      ],
      "name": "approveMarketForwarder",
      "outputs": [],
      "stateMutability": "nonpayable",
      "type": "function"
    },
    {
      "inputs": [
        {
          "internalType": "uint256",
          "name": "",
          "type": "uint256"
        }
      ],
      "name": "bidDefaultDuration",
      "outputs": [
        {
          "internalType": "uint32",
          "name": "",
          "type": "uint32"
        }
      ],
      "stateMutability": "view",
      "type": "function"
    },
    {
      "inputs": [
        {
          "internalType": "uint256",
          "name": "",
          "type": "uint256"
        }
      ],
      "name": "bidExpirationTime",
      "outputs": [
        {
          "internalType": "uint32",
          "name": "",
          "type": "uint32"
        }
      ],
      "stateMutability": "view",
      "type": "function"
    },
    {
      "inputs": [],
      "name": "bidId",
      "outputs": [
        {
          "internalType": "uint256",
          "name": "",
          "type": "uint256"
        }
      ],
      "stateMutability": "view",
      "type": "function"
    },
    {
      "inputs": [
        {
          "internalType": "uint256",
          "name": "",
          "type": "uint256"
        }
      ],
      "name": "bids",
      "outputs": [
        {
          "internalType": "address",
          "name": "borrower",
          "type": "address"
        },
        {
          "internalType": "address",
          "name": "receiver",
          "type": "address"
        },
        {
          "internalType": "address",
          "name": "lender",
          "type": "address"
        },
        {
          "internalType": "uint256",
          "name": "marketplaceId",
          "type": "uint256"
        },
        {
          "internalType": "bytes32",
          "name": "_metadataURI",
          "type": "bytes32"
        },
        {
          "components": [
            {
              "internalType": "contract ERC20",
              "name": "lendingToken",
              "type": "address"
            },
            {
              "internalType": "uint256",
              "name": "principal",
              "type": "uint256"
            },
            {
              "components": [
                {
                  "internalType": "uint256",
                  "name": "principal",
                  "type": "uint256"
                },
                {
                  "internalType": "uint256",
                  "name": "interest",
                  "type": "uint256"
                }
              ],
              "internalType": "struct TellerV2Storage_G0.Payment",
              "name": "totalRepaid",
              "type": "tuple"
            },
            {
              "internalType": "uint32",
              "name": "timestamp",
              "type": "uint32"
            },
            {
              "internalType": "uint32",
              "name": "acceptedTimestamp",
              "type": "uint32"
            },
            {
              "internalType": "uint32",
              "name": "lastRepaidTimestamp",
              "type": "uint32"
            },
            {
              "internalType": "uint32",
              "name": "loanDuration",
              "type": "uint32"
            }
          ],
          "internalType": "struct TellerV2Storage_G0.LoanDetails",
          "name": "loanDetails",
          "type": "tuple"
        },
        {
          "components": [
            {
              "internalType": "uint256",
              "name": "paymentCycleAmount",
              "type": "uint256"
            },
            {
              "internalType": "uint32",
              "name": "paymentCycle",
              "type": "uint32"
            },
            {
              "internalType": "uint16",
              "name": "APR",
              "type": "uint16"
            }
          ],
          "internalType": "struct TellerV2Storage_G0.Terms",
          "name": "terms",
          "type": "tuple"
        },
        {
          "internalType": "enum TellerV2Storage_G0.BidState",
          "name": "state",
          "type": "uint8"
        },
        {
          "internalType": "enum V2Calculations.PaymentType",
          "name": "paymentType",
          "type": "uint8"
        }
      ],
      "stateMutability": "view",
      "type": "function"
    },
    {
      "inputs": [
        {
          "internalType": "address",
          "name": "",
          "type": "address"
        },
        {
          "internalType": "uint256",
          "name": "",
          "type": "uint256"
        }
      ],
      "name": "borrowerBids",
      "outputs": [
        {
          "internalType": "uint256",
          "name": "",
          "type": "uint256"
        }
      ],
      "stateMutability": "view",
      "type": "function"
    },
    {
      "inputs": [
        {
          "internalType": "uint256",
          "name": "_bidId",
          "type": "uint256"
        },
        {
          "internalType": "uint256",
          "name": "_timestamp",
          "type": "uint256"
        }
      ],
      "name": "calculateAmountDue",
      "outputs": [
        {
          "components": [
            {
              "internalType": "uint256",
              "name": "principal",
              "type": "uint256"
            },
            {
              "internalType": "uint256",
              "name": "interest",
              "type": "uint256"
            }
          ],
          "internalType": "struct TellerV2Storage_G0.Payment",
          "name": "due",
          "type": "tuple"
        }
      ],
      "stateMutability": "view",
      "type": "function"
    },
    {
      "inputs": [
        {
          "internalType": "uint256",
          "name": "_bidId",
          "type": "uint256"
        }
      ],
      "name": "calculateAmountDue",
      "outputs": [
        {
          "components": [
            {
              "internalType": "uint256",
              "name": "principal",
              "type": "uint256"
            },
            {
              "internalType": "uint256",
              "name": "interest",
              "type": "uint256"
            }
          ],
          "internalType": "struct TellerV2Storage_G0.Payment",
          "name": "due",
          "type": "tuple"
        }
      ],
      "stateMutability": "view",
      "type": "function"
    },
    {
      "inputs": [
        {
          "internalType": "uint256",
          "name": "_bidId",
          "type": "uint256"
        },
        {
          "internalType": "uint256",
          "name": "_timestamp",
          "type": "uint256"
        }
      ],
      "name": "calculateAmountOwed",
      "outputs": [
        {
          "components": [
            {
              "internalType": "uint256",
              "name": "principal",
              "type": "uint256"
            },
            {
              "internalType": "uint256",
              "name": "interest",
              "type": "uint256"
            }
          ],
          "internalType": "struct TellerV2Storage_G0.Payment",
          "name": "owed",
          "type": "tuple"
        }
      ],
      "stateMutability": "view",
      "type": "function"
    },
    {
      "inputs": [
        {
          "internalType": "uint256",
          "name": "_bidId",
          "type": "uint256"
        }
      ],
      "name": "calculateAmountOwed",
      "outputs": [
        {
          "components": [
            {
              "internalType": "uint256",
              "name": "principal",
              "type": "uint256"
            },
            {
              "internalType": "uint256",
              "name": "interest",
              "type": "uint256"
            }
          ],
          "internalType": "struct TellerV2Storage_G0.Payment",
          "name": "owed",
          "type": "tuple"
        }
      ],
      "stateMutability": "view",
      "type": "function"
    },
    {
      "inputs": [
        {
          "internalType": "uint256",
          "name": "_bidId",
          "type": "uint256"
        }
      ],
      "name": "calculateNextDueDate",
      "outputs": [
        {
          "internalType": "uint32",
          "name": "dueDate_",
          "type": "uint32"
        }
      ],
      "stateMutability": "view",
      "type": "function"
    },
    {
      "inputs": [
        {
          "internalType": "uint256",
          "name": "_bidId",
          "type": "uint256"
        }
      ],
      "name": "cancelBid",
      "outputs": [],
      "stateMutability": "nonpayable",
      "type": "function"
    },
    {
      "inputs": [
        {
          "internalType": "uint256",
          "name": "_bidId",
          "type": "uint256"
        }
      ],
      "name": "getBidState",
      "outputs": [
        {
          "internalType": "enum TellerV2Storage_G0.BidState",
          "name": "",
          "type": "uint8"
        }
      ],
      "stateMutability": "view",
      "type": "function"
    },
    {
      "inputs": [
        {
          "internalType": "address",
          "name": "_borrower",
          "type": "address"
        }
      ],
      "name": "getBorrowerActiveLoanIds",
      "outputs": [
        {
          "internalType": "uint256[]",
          "name": "",
          "type": "uint256[]"
        }
      ],
      "stateMutability": "view",
      "type": "function"
    },
    {
      "inputs": [
        {
          "internalType": "address",
          "name": "_borrower",
          "type": "address"
        }
      ],
      "name": "getBorrowerLoanIds",
      "outputs": [
        {
          "internalType": "uint256[]",
          "name": "",
          "type": "uint256[]"
        }
      ],
      "stateMutability": "view",
      "type": "function"
    },
    {
      "inputs": [],
      "name": "getLendingTokens",
      "outputs": [
        {
          "internalType": "address[]",
          "name": "",
          "type": "address[]"
        }
      ],
      "stateMutability": "view",
      "type": "function"
    },
    {
      "inputs": [
        {
          "internalType": "uint256",
          "name": "_bidId",
          "type": "uint256"
        }
      ],
      "name": "getLoanBorrower",
      "outputs": [
        {
          "internalType": "address",
          "name": "borrower_",
          "type": "address"
        }
      ],
      "stateMutability": "view",
      "type": "function"
    },
    {
      "inputs": [
        {
          "internalType": "uint256",
          "name": "_bidId",
          "type": "uint256"
        }
      ],
      "name": "getLoanLender",
      "outputs": [
        {
          "internalType": "address",
          "name": "lender_",
          "type": "address"
        }
      ],
      "stateMutability": "view",
      "type": "function"
    },
    {
      "inputs": [
        {
          "internalType": "uint256",
          "name": "_bidId",
          "type": "uint256"
        }
      ],
      "name": "getLoanLendingToken",
      "outputs": [
        {
          "internalType": "address",
          "name": "token_",
          "type": "address"
        }
      ],
      "stateMutability": "view",
      "type": "function"
    },
    {
      "inputs": [
        {
          "internalType": "uint256",
          "name": "_bidId",
          "type": "uint256"
        }
      ],
      "name": "getMetadataURI",
      "outputs": [
        {
          "internalType": "string",
          "name": "metadataURI_",
          "type": "string"
        }
      ],
      "stateMutability": "view",
      "type": "function"
    },
    {
      "inputs": [
        {
          "internalType": "uint256",
          "name": "_marketId",
          "type": "uint256"
        },
        {
          "internalType": "address",
          "name": "_forwarder",
          "type": "address"
        },
        {
          "internalType": "address",
          "name": "_account",
          "type": "address"
        }
      ],
      "name": "hasApprovedMarketForwarder",
      "outputs": [
        {
          "internalType": "bool",
          "name": "",
          "type": "bool"
        }
      ],
      "stateMutability": "view",
      "type": "function"
    },
    {
      "inputs": [
        {
          "internalType": "uint16",
          "name": "_protocolFee",
          "type": "uint16"
        },
        {
          "internalType": "address",
          "name": "_marketRegistry",
          "type": "address"
        },
        {
          "internalType": "address",
          "name": "_reputationManager",
          "type": "address"
        },
        {
          "internalType": "address",
          "name": "_lenderCommitmentForwarder",
          "type": "address"
        },
        {
          "internalType": "address[]",
          "name": "_lendingTokens",
          "type": "address[]"
        }
      ],
      "name": "initialize",
      "outputs": [],
      "stateMutability": "nonpayable",
      "type": "function"
    },
    {
      "inputs": [
        {
          "internalType": "uint256",
          "name": "_bidId",
          "type": "uint256"
        }
      ],
      "name": "isLoanDefaulted",
      "outputs": [
        {
          "internalType": "bool",
          "name": "",
          "type": "bool"
        }
      ],
      "stateMutability": "view",
      "type": "function"
    },
    {
      "inputs": [
        {
          "internalType": "uint256",
          "name": "_bidId",
          "type": "uint256"
        }
      ],
      "name": "isLoanExpired",
      "outputs": [
        {
          "internalType": "bool",
          "name": "",
          "type": "bool"
        }
      ],
      "stateMutability": "view",
      "type": "function"
    },
    {
      "inputs": [
        {
          "internalType": "uint256",
          "name": "_bidId",
          "type": "uint256"
        }
      ],
      "name": "isPaymentLate",
      "outputs": [
        {
          "internalType": "bool",
          "name": "",
          "type": "bool"
        }
      ],
      "stateMutability": "view",
      "type": "function"
    },
    {
      "inputs": [
        {
          "internalType": "address",
          "name": "forwarder",
          "type": "address"
        }
      ],
      "name": "isTrustedForwarder",
      "outputs": [
        {
          "internalType": "bool",
          "name": "",
          "type": "bool"
        }
      ],
      "stateMutability": "view",
      "type": "function"
    },
    {
      "inputs": [
        {
          "internalType": "uint256",
          "name": "_marketId",
          "type": "uint256"
        },
        {
          "internalType": "address",
          "name": "_trustedMarketForwarder",
          "type": "address"
        }
      ],
      "name": "isTrustedMarketForwarder",
      "outputs": [
        {
          "internalType": "bool",
          "name": "",
          "type": "bool"
        }
      ],
      "stateMutability": "view",
      "type": "function"
    },
    {
      "inputs": [
        {
          "internalType": "uint256",
          "name": "_bidId",
          "type": "uint256"
        }
      ],
      "name": "lastRepaidTimestamp",
      "outputs": [
        {
          "internalType": "uint32",
          "name": "",
          "type": "uint32"
        }
      ],
      "stateMutability": "view",
      "type": "function"
    },
    {
      "inputs": [
        {
          "internalType": "uint256",
          "name": "_bidId",
          "type": "uint256"
        }
      ],
      "name": "lenderAcceptBid",
      "outputs": [
        {
          "internalType": "uint256",
          "name": "amountToProtocol",
          "type": "uint256"
        },
        {
          "internalType": "uint256",
          "name": "amountToMarketplace",
          "type": "uint256"
        },
        {
          "internalType": "uint256",
          "name": "amountToBorrower",
          "type": "uint256"
        }
      ],
      "stateMutability": "nonpayable",
      "type": "function"
    },
    {
      "inputs": [],
      "name": "lenderCommitmentForwarder",
      "outputs": [
        {
          "internalType": "address",
          "name": "",
          "type": "address"
        }
      ],
      "stateMutability": "view",
      "type": "function"
    },
    {
      "inputs": [
        {
          "internalType": "address",
          "name": "",
          "type": "address"
        },
        {
          "internalType": "address",
          "name": "",
          "type": "address"
        }
      ],
      "name": "lenderVolumeFilled",
      "outputs": [
        {
          "internalType": "uint256",
          "name": "",
          "type": "uint256"
        }
      ],
      "stateMutability": "view",
      "type": "function"
    },
    {
      "inputs": [
        {
          "internalType": "uint256",
          "name": "_bidId",
          "type": "uint256"
        }
      ],
      "name": "liquidateLoanFull",
      "outputs": [],
      "stateMutability": "nonpayable",
      "type": "function"
    },
    {
      "inputs": [
        {
          "internalType": "uint256",
          "name": "_bidId",
          "type": "uint256"
        }
      ],
      "name": "marketOwnerCancelBid",
      "outputs": [],
      "stateMutability": "nonpayable",
      "type": "function"
    },
    {
      "inputs": [],
      "name": "marketRegistry",
      "outputs": [
        {
          "internalType": "contract IMarketRegistry",
          "name": "",
          "type": "address"
        }
      ],
      "stateMutability": "view",
      "type": "function"
    },
    {
      "inputs": [],
      "name": "onUpgrade",
      "outputs": [],
      "stateMutability": "nonpayable",
      "type": "function"
    },
    {
      "inputs": [],
      "name": "owner",
      "outputs": [
        {
          "internalType": "address",
          "name": "",
          "type": "address"
        }
      ],
      "stateMutability": "view",
      "type": "function"
    },
    {
      "inputs": [],
      "name": "pauseProtocol",
      "outputs": [],
      "stateMutability": "nonpayable",
      "type": "function"
    },
    {
      "inputs": [],
      "name": "paused",
      "outputs": [
        {
          "internalType": "bool",
          "name": "",
          "type": "bool"
        }
      ],
      "stateMutability": "view",
      "type": "function"
    },
    {
      "inputs": [],
      "name": "protocolFee",
      "outputs": [
        {
          "internalType": "uint16",
          "name": "",
          "type": "uint16"
        }
      ],
      "stateMutability": "view",
      "type": "function"
    },
    {
      "inputs": [
        {
          "internalType": "address",
          "name": "_lendingToken",
          "type": "address"
        }
      ],
      "name": "removeLendingToken",
      "outputs": [],
      "stateMutability": "nonpayable",
      "type": "function"
    },
    {
      "inputs": [],
      "name": "renounceOwnership",
      "outputs": [],
      "stateMutability": "nonpayable",
      "type": "function"
    },
    {
      "inputs": [
        {
          "internalType": "uint256",
          "name": "_bidId",
          "type": "uint256"
        },
        {
          "internalType": "uint256",
          "name": "_amount",
          "type": "uint256"
        }
      ],
      "name": "repayLoan",
      "outputs": [],
      "stateMutability": "nonpayable",
      "type": "function"
    },
    {
      "inputs": [
        {
          "internalType": "uint256",
          "name": "_bidId",
          "type": "uint256"
        }
      ],
      "name": "repayLoanFull",
      "outputs": [],
      "stateMutability": "nonpayable",
      "type": "function"
    },
    {
      "inputs": [
        {
          "internalType": "uint256",
          "name": "_bidId",
          "type": "uint256"
        }
      ],
      "name": "repayLoanMinimum",
      "outputs": [],
      "stateMutability": "nonpayable",
      "type": "function"
    },
    {
      "inputs": [],
      "name": "reputationManager",
      "outputs": [
        {
          "internalType": "contract IReputationManager",
          "name": "",
          "type": "address"
        }
      ],
      "stateMutability": "view",
      "type": "function"
    },
    {
      "inputs": [
        {
          "internalType": "uint16",
          "name": "newFee",
          "type": "uint16"
        }
      ],
      "name": "setProtocolFee",
      "outputs": [],
      "stateMutability": "nonpayable",
      "type": "function"
    },
    {
      "inputs": [
        {
          "internalType": "address",
          "name": "_reputationManager",
          "type": "address"
        }
      ],
      "name": "setReputationManager",
      "outputs": [],
      "stateMutability": "nonpayable",
      "type": "function"
    },
    {
      "inputs": [
        {
          "internalType": "uint256",
          "name": "_marketId",
          "type": "uint256"
        },
        {
          "internalType": "address",
          "name": "_forwarder",
          "type": "address"
        }
      ],
      "name": "setTrustedMarketForwarder",
      "outputs": [],
      "stateMutability": "nonpayable",
      "type": "function"
    },
    {
      "inputs": [
        {
          "internalType": "address",
          "name": "_lendingToken",
          "type": "address"
        },
        {
          "internalType": "uint256",
          "name": "_marketplaceId",
          "type": "uint256"
        },
        {
          "internalType": "uint256",
          "name": "_principal",
          "type": "uint256"
        },
        {
          "internalType": "uint32",
          "name": "_duration",
          "type": "uint32"
        },
        {
          "internalType": "uint16",
          "name": "_APR",
          "type": "uint16"
        },
        {
          "internalType": "string",
          "name": "_metadataURI",
          "type": "string"
        },
        {
          "internalType": "address",
          "name": "_receiver",
          "type": "address"
        }
      ],
      "name": "submitBid",
      "outputs": [
        {
          "internalType": "uint256",
          "name": "bidId_",
          "type": "uint256"
        }
      ],
      "stateMutability": "nonpayable",
      "type": "function"
    },
    {
      "inputs": [
        {
          "internalType": "address",
          "name": "",
          "type": "address"
        }
      ],
      "name": "totalVolumeFilled",
      "outputs": [
        {
          "internalType": "uint256",
          "name": "",
          "type": "uint256"
        }
      ],
      "stateMutability": "view",
      "type": "function"
    },
    {
      "inputs": [
        {
          "internalType": "address",
          "name": "newOwner",
          "type": "address"
        }
      ],
      "name": "transferOwnership",
      "outputs": [],
      "stateMutability": "nonpayable",
      "type": "function"
    },
    {
      "inputs": [],
      "name": "unpauseProtocol",
      "outputs": [],
      "stateMutability": "nonpayable",
      "type": "function"
    },
    {
      "inputs": [
        {
          "internalType": "uint256",
          "name": "",
          "type": "uint256"
        }
      ],
      "name": "uris",
      "outputs": [
        {
          "internalType": "string",
          "name": "",
          "type": "string"
        }
      ],
      "stateMutability": "view",
      "type": "function"
    },
    {
      "inputs": [],
      "name": "version",
      "outputs": [
        {
          "internalType": "uint256",
          "name": "",
          "type": "uint256"
        }
      ],
      "stateMutability": "view",
      "type": "function"
    }
  ],
  "transactionHash": "0x6487d12117ff36519f19dc55b3a97b91ae20eaf7641bb01c17dfcb50dbbda37b",
  "args": [
    "0xbCEa235C9ce3A9b61E3186Cc3bBC78C601F4c5c1"
  ],
  "numDeployments": 4,
  "solcInputHash": "eb53ccc9bee2317f9717738d5f3526e8",
  "bytecode": "0x60a060405260006097553480156200001657600080fd5b5060405162004c0138038062004c0183398101604081905262000039916200004b565b6001600160a01b03166080526200007d565b6000602082840312156200005e57600080fd5b81516001600160a01b03811681146200007657600080fd5b9392505050565b608051614b61620000a06000396000818161073001526139b20152614b616000f3fe608060405234801561001057600080fd5b506004361061038e5760003560e01c80636b868afb116101de578063b0e21e8a1161010f578063d87569cc116100ad578063e8cbab091161007c578063e8cbab09146109da578063ecb96fe6146109ed578063f2fde38b14610a00578063f93b6be514610a1357600080fd5b8063d87569cc14610999578063d974cc57146109ac578063dbf62489146109bf578063e4467f35146109c757600080fd5b8063bde644fb116100e9578063bde644fb1461092d578063bf77ffae14610940578063d4eda4cf14610973578063d76ac91f1461098657600080fd5b8063b0e21e8a146108e4578063b5d34fcd146108fa578063ba6d5b151461091a57600080fd5b80638da5cb5b1161017c578063a10905ea11610156578063a10905ea14610864578063a51e2bad14610890578063a75021ba146108a3578063a8cb5d68146108b657600080fd5b80638da5cb5b1461082d5780639703ef351461083e5780639a11e3391461085157600080fd5b8063715018a6116101b8578063715018a6146107f65780638288da8a146107fe5780638a700b53146108115780638ac473191461082457600080fd5b80636b868afb146107bd5780636c6ca79c146107d0578063706a43c3146107e357600080fd5b8063206c54c7116102c35780634423c5f1116102615780635c975abb116102305780635c975abb146107605780635fe3effe146107715780636aedfe68146107845780636b76c0851461079757600080fd5b80634423c5f1146105e857806354fd4d501461070457806356a837f41461070d578063572b6c051461072057600080fd5b80632e9332d41161029d5780632e9332d4146105915780633819bcdc146105a45780633ef0a2f7146105b75780634148f94c146105e057600080fd5b8063206c54c714610549578063235d5a7b1461055c5780632519dc791461057157600080fd5b8063127caa8811610330578063145730331161030a57806314573033146104d75780631824a46b1461051b57806319b353de146105235780631d1236331461053657600080fd5b8063127caa881461047e5780631289b396146104b95780631420a266146104c257600080fd5b8063093f56171161036c578063093f5617146104085780631042b85f1461042b578063106182231461044b5780631253c5461461045e57600080fd5b8063054de0ff1461039357806306f33a92146103bc578063089487b5146103dd575b600080fd5b6103a66103a1366004614075565b610a1b565b6040516103b39190614092565b60405180910390f35b6103cf6103ca3660046140f8565b610a45565b6040519081526020016103b3565b6103cf6103eb3660046141c6565b60a360209081526000928352604080842090915290825290205481565b61041b6104163660046141ff565b6110e9565b60405190151581526020016103b3565b61043e610439366004614218565b61113e565b6040516103b3919061423a565b61041b6104593660046141ff565b6111c3565b61047161046c3660046141ff565b611259565b6040516103b391906142a9565b6104a461048c3660046141ff565b60a26020526000908152604090205463ffffffff1681565b60405163ffffffff90911681526020016103b3565b6103cf609b5481565b6104d56104d03660046142bc565b6112f3565b005b6105036104e53660046141ff565b6000908152609860205260409020600501546001600160a01b031690565b6040516001600160a01b0390911681526020016103b3565b6104d561144c565b61041b6105313660046142e1565b6114bb565b6103a6610544366004614075565b6114fa565b6104d56105573660046141ff565b611566565b6105646116d9565b6040516103b39190614323565b6103cf61057f366004614075565b60a46020526000908152604090205481565b6104d561059f3660046142bc565b6116ea565b6103cf6105b2366004614364565b6117cd565b6105036105c53660046141ff565b6000908152609860205260409020546001600160a01b031690565b6103cf600781565b6106ef6105f63660046141ff565b60986020908152600091825260409182902080546001820154600283015460038401546004850154875160e08101895260058701546001600160a01b0390811682526006880154828a01528951808b018b52600789015481526008890154818b0152828b0152600988015463ffffffff808216606080860191909152600160201b80840483166080870152600160401b8404831660a0870152600160601b909304821660c08601528c519081018d52600a8b01548152600b8b01549182169b81019b909b520461ffff1699890199909952600c909601549488169793841696939092169490939192909160ff8082169161010090041689565b6040516103b3999897969594939291906143ca565b6103cf60a55481565b6104d561071b366004614075565b6117fe565b61041b61072e366004614075565b7f00000000000000000000000000000000000000000000000000000000000000006001600160a01b0390811691161490565b60655462010000900460ff1661041b565b6104d561077f3660046144c3565b611869565b61043e610792366004614218565b611a90565b6104a46107a53660046141ff565b60a16020526000908152604090205463ffffffff1681565b609f54610503906001600160a01b031681565b61043e6107de3660046141ff565b611b15565b6104a46107f13660046141ff565b611b86565b6104d5611cc8565b6104d561080c3660046141ff565b611d1d565b6104d561081f366004614218565b611e86565b6103cf60975481565b6033546001600160a01b0316610503565b6104d561084c3660046141ff565b611f8b565b6104d561085f3660046141ff565b612040565b6105036108723660046141ff565b6000908152609860205260409020600201546001600160a01b031690565b6104a461089e3660046141ff565b6120f7565b6104d56108b1366004614075565b61210e565b6108c96108c43660046141ff565b612166565b604080519384526020840192909252908201526060016103b3565b60655460405161ffff90911681526020016103b3565b6103cf610908366004614075565b609a6020526000908152604090205481565b60a954610503906001600160a01b031681565b61047161093b3660046141ff565b6127e3565b61096661094e3660046141ff565b6000908152609860205260409020600c015460ff1690565b6040516103b39190614582565b6104d56109813660046141ff565b6128fb565b6104d5610994366004614075565b6129b6565b61041b6109a73660046142bc565b612a61565b61043e6109ba3660046141ff565b612a9b565b6104d5612b0c565b6104d56109d5366004614590565b612b86565b61041b6109e83660046141ff565b612c38565b609e54610503906001600160a01b031681565b6104d5610a0e366004614075565b612cc7565b6104d5612d7e565b6001600160a01b038116600090815260a060205260409020606090610a3f90612e1e565b92915050565b60655460009062010000900460ff1615610a7a5760405162461bcd60e51b8152600401610a71906145ad565b60405180910390fd5b6000610a8589612e2b565b609e5460405163066e751360e01b8152600481018c90526001600160a01b0380841660248301529293506000929091169063066e7513906044016040805180830381600087803b158015610ad857600080fd5b505af1158015610aec573d6000803e3d6000fd5b505050506040513d601f19601f82011682018060405250810190610b1091906145e7565b50905080610b585760405162461bcd60e51b81526020600482015260156024820152742737ba103b32b934b334b2b2103137b93937bbb2b960591b6044820152606401610a71565b609e54604051631cc672df60e01b8152600481018c90526001600160a01b0390911690631cc672df90602401602060405180830381600087803b158015610b9e57600080fd5b505af1158015610bb2573d6000803e3d6000fd5b505050506040513d601f19601f82011682018060405250810190610bd69190614613565b15610c165760405162461bcd60e51b815260206004820152601060248201526f13585c9ad95d081a5cc818db1bdcd95960821b6044820152606401610a71565b610c21609c8c612ed6565b610c6d5760405162461bcd60e51b815260206004820152601c60248201527f4c656e64696e6720746f6b656e206e6f7420617574686f72697a6564000000006044820152606401610a71565b609754600081815260986020526040902080546001600160a01b0319166001600160a01b03858116919091178255919450908516610cb55780546001600160a01b0316610cb7565b845b6001820180546001600160a01b03199081166001600160a01b0393841617909155600383018d90556005830180549091168e8316179055600682018b90556009820180546fffffffff0000000000000000ffffffff1916600160601b63ffffffff8d81169190910263ffffffff1916919091174291909116179055609e5460405163805deb5360e01b8152600481018e905291169063805deb5390602401602060405180830381600087803b158015610d6f57600080fd5b505af1158015610d83573d6000803e3d6000fd5b505050506040513d601f19601f82011682018060405250810190610da7919061462e565b600b8201805463ffffffff9290921665ffffffffffff1990921691909117600160201b61ffff8b1602179055609e546040516311bed5bb60e01b8152600481018d90526001600160a01b03909116906311bed5bb90602401602060405180830381600087803b158015610e1957600080fd5b505af1158015610e2d573d6000803e3d6000fd5b505050506040513d601f19601f82011682018060405250810190610e51919061462e565b609754600090815260a1602052604090819020805463ffffffff191663ffffffff9390931692909217909155609e54905163082fc54d60e01b8152600481018d90526001600160a01b039091169063082fc54d90602401602060405180830381600087803b158015610ec257600080fd5b505af1158015610ed6573d6000803e3d6000fd5b505050506040513d601f19601f82011682018060405250810190610efa919061462e565b609754600090815260a2602052604090819020805463ffffffff191663ffffffff9390931692909217909155609e54905163d6e794dd60e01b8152600481018d90526001600160a01b039091169063d6e794dd9060240160206040518083038186803b158015610f6957600080fd5b505afa158015610f7d573d6000803e3d6000fd5b505050506040513d601f19601f82011682018060405250810190610fa1919061464b565b600c8201805461ff001916610100836001811115610fc157610fc1614390565b0217905550600c810154600b820154610fed91610100900460ff16908c908c9063ffffffff168c612ef8565b600a820155609754600090815260a66020526040902061100e908888613fbc565b50600c8101805460ff19166001179055604051611031908890889060200161466c565b60408051808303601f19018152908290528051602091820120835460975460018601546001600160a01b0390811686529294929091169290917ff887b1f393f43fb94c5d50483df4bd410ffbf286128c5f24ff56c580ac7f731c910160405180910390a480546001600160a01b031660009081526099602090815260408220609780548254600181018455928552928420909101919091558054916110d583614692565b919050555050505098975050505050505050565b600060036000838152609860205260409020600c015460ff16600581111561111357611113614390565b1461112057506000919050565b61112982611b86565b63ffffffff164263ffffffff16119050919050565b604080518082019091526000808252602082015260008381526098602052604090206003600c82015460ff16600581111561117b5761117b614390565b14158061119957506009810154600160201b900463ffffffff168311155b156111a45750610a3f565b6000806111b18386612f64565b91865250602085015250505092915050565b60008181526098602052604081206001600c82015460ff1660058111156111ec576111ec614390565b146111fa5750600092915050565b600083815260a2602052604090205463ffffffff1661121c5750600092915050565b600083815260a2602052604090205460098201546112439163ffffffff90811691166146ad565b63ffffffff164263ffffffff1611915050919050565b60a66020526000908152604090208054611272906146d5565b80601f016020809104026020016040519081016040528092919081815260200182805461129e906146d5565b80156112eb5780601f106112c0576101008083540402835291602001916112eb565b820191906000526020600020905b8154815290600101906020018083116112ce57829003601f168201915b505050505081565b6112fb612fe3565b609e54604051633d36902960e01b8152600481018590526001600160a01b039283169290911690633d36902990602401602060405180830381600087803b15801561134557600080fd5b505af1158015611359573d6000803e3d6000fd5b505050506040513d601f19601f8201168201806040525081019061137d9190614710565b6001600160a01b0316146113d35760405162461bcd60e51b815260206004820152601f60248201527f43616c6c6572206d75737420626520746865206d61726b6574206f776e6572006044820152606401610a71565b600082815260a76020526040902080546001600160a01b0319166001600160a01b038316179055817fa593acf9edc343669c7fc50d2caa3911326adef438361f0fa911be85c9e296a482611425612fe3565b604080516001600160a01b0393841681529290911660208301520160405180910390a25050565b600760a55414156114b45760405162461bcd60e51b815260206004820152602c60248201527f436f6e747261637420616c726561647920757067726164656420746f206c617460448201526b6573742076657273696f6e2160a01b6064820152608401610a71565b600760a555565b60006114c78484612a61565b80156114f057506001600160a01b038316600090815260a8602052604090206114f09083612ed6565b90505b9392505050565b6001600160a01b03811660009081526099602090815260409182902080548351818402810184019094528084526060939283018282801561155a57602002820191906000526020600020905b815481526020019060010190808311611546575b50505050509050919050565b609e5460008281526098602052604090819020600301549051633d36902960e01b81526001600160a01b0390921691633d369029916115ab9160040190815260200190565b602060405180830381600087803b1580156115c557600080fd5b505af11580156115d9573d6000803e3d6000fd5b505050506040513d601f19601f820116820180604052508101906115fd9190614710565b6001600160a01b031661160e612fe3565b6001600160a01b0316146116a2576040516347bc33cb60e11b8152600481018290526060602482015260146064820152731b585c9ad95d13dddb995c90d85b98d95b109a5960621b608482015260a06044820152602160a48201527f4f6e6c7920746865206d61726b6574206f776e65722063616e2063616e63656c60c4820152602160f81b60e482015261010401610a71565b6116ab81612fed565b60405181907ff3f271d754f5264e0d143bf9be577d6eba153b0d833bd3a127d7b1a280bb13f190600090a250565b60606116e5609c612e1e565b905090565b6116f48282612a61565b6117505760405162461bcd60e51b815260206004820152602760248201527f466f72776172646572206d757374206265207472757374656420627920746865604482015266081b585c9ad95d60ca1b6064820152608401610a71565b61177961175b612fe3565b6001600160a01b038316600090815260a860205260409020906130a1565b50806001600160a01b0316827f65d6b5305e8c0e58e88454a1aeecae0f55975222338b25abd0997b4d305056a16117ae612fe3565b6040516001600160a01b03909116815260200160405180910390a35050565b609960205281600052604060002081815481106117e957600080fd5b90600052602060002001600091509150505481565b611806612fe3565b6001600160a01b03166118216033546001600160a01b031690565b6001600160a01b0316146118475760405162461bcd60e51b8152600401610a719061472d565b609f80546001600160a01b0319166001600160a01b0392909216919091179055565b600054610100900460ff166118845760005460ff1615611888565b303b155b6118eb5760405162461bcd60e51b815260206004820152602e60248201527f496e697469616c697a61626c653a20636f6e747261637420697320616c72656160448201526d191e481a5b9a5d1a585b1a5e995960921b6064820152608401610a71565b600054610100900460ff1615801561190d576000805461ffff19166101011790555b611916876130b6565b61191e6130ee565b60a980546001600160a01b038087166001600160a01b031992831617909255609e8054898416908316179055609f805492881692909116919091179055816119a85760405162461bcd60e51b815260206004820152601b60248201527f4e6f206c656e64696e6720746f6b656e732073706563696669656400000000006044820152606401610a71565b60005b82811015611a74576119ec8484838181106119c8576119c8614762565b90506020020160208101906119dd9190614075565b6001600160a01b03163b151590565b611a385760405162461bcd60e51b815260206004820152601a60248201527f6c656e64696e6720746f6b656e206e6f7420636f6e74726163740000000000006044820152606401610a71565b611a62848483818110611a4d57611a4d614762565b90506020020160208101906109949190614075565b80611a6c81614692565b9150506119ab565b508015611a87576000805461ff00191690555b50505050505050565b604080518082018252600080825260208083018290528582526098905291909120600c81015460039060ff166005811115611acd57611acd614390565b141580611aeb57506009810154600160201b900463ffffffff168311155b15611af65750610a3f565b600080611b038386612f64565b90865260208601525050505092915050565b604080518082019091526000808252602082015260036000838152609860205260409020600c015460ff166005811115611b5157611b51614390565b14611b5b57919050565b60008281526098602052604081208190611b759042612f64565b918552506020840152509092915050565b6000818152609860205260408120600c81015460039060ff166005811115611bb057611bb0614390565b14611bbb5750919050565b600b8101546009820154611bdf9163ffffffff90811691600160201b9004166146ad565b6009820154909250600090600160201b900463ffffffff16611c00856120f7565b611c0a9190614778565b905063ffffffff811615611c6157600b820154600090611c309063ffffffff16836147b3565b611c3b9060016146ad565b600b840154909150611c539063ffffffff16826147d6565b611c5d90856146ad565b9350505b6009820154611c869063ffffffff600160601b8204811691600160201b9004166146ad565b63ffffffff168363ffffffff161115611cc1576009820154611cbe9063ffffffff600160601b8204811691600160201b9004166146ad565b92505b5050919050565b611cd0612fe3565b6001600160a01b0316611ceb6033546001600160a01b031690565b6001600160a01b031614611d115760405162461bcd60e51b8152600401610a719061472d565b611d1b600061311d565b565b60408051808201909152600d81526c3634b8bab4b230ba32a637b0b760991b6020820152819060036000838152609860205260409020600c015460ff166005811115611d6b57611d6b614390565b14611d8d5781816040516347bc33cb60e11b8152600401610a71929190614802565b611d9683612c38565b611de25760405162461bcd60e51b815260206004820152601760248201527f4c6f616e206d7573742062652064656661756c7465642e0000000000000000006044820152606401610a71565b60008381526098602052604081209080611dfc8342612f64565b9250509150611e2b866040518060400160405280858152602001848152508385611e269190614851565b61316f565b600c8301805460ff191660051790556003830154611e4890612e2b565b6001600160a01b0316867f73de9acc561f27528ab0a3b5dd63fefb4e59f95575891299a6f862a78779817660405160405180910390a3505050505050565b6040805180820190915260098152683932b830bca637b0b760b91b6020820152829060036000838152609860205260409020600c015460ff166005811115611ed057611ed0614390565b14611ef25781816040516347bc33cb60e11b8152600401610a71929190614802565b600084815260986020526040812081908190611f0e9042612f64565b919450925090506000611f218284614851565b905080871015611f545760405162dd9d0f60e61b8152600481018990526024810188905260448101829052606401610a71565b611f81886040518060400160405280858b611f6f9190614869565b8152602001859052611e268588614851565b5050505050505050565b600081815260986020526040902080546003909101546001600160a01b0390911690611fb690612e2b565b6001600160a01b031614612034576040516347bc33cb60e11b81526004810182905260606024820152600960648201526818d85b98d95b109a5960ba1b608482015260a06044820152601e60a48201527f4f6e6c792074686520626964206f776e65722063616e2063616e63656c21000060c482015260e401610a71565b61203d81612fed565b50565b6040805180820190915260098152683932b830bca637b0b760b91b6020820152819060036000838152609860205260409020600c015460ff16600581111561208a5761208a614390565b146120ac5781816040516347bc33cb60e11b8152600401610a71929190614802565b600083815260986020526040812081906120c69042612f64565b92505091506120f0856040518060400160405280858152602001848152508385611e269190614851565b5050505050565b6000818152609860205260408120610a3f906133e1565b612116612fe3565b6001600160a01b03166121316033546001600160a01b031690565b6001600160a01b0316146121575760405162461bcd60e51b8152600401610a719061472d565b612162609c82613427565b5050565b6000806000836040518060400160405280600f81526020016e1b195b99195c9058d8d95c1d109a59608a1b815250600160058111156121a7576121a7614390565b6000838152609860205260409020600c015460ff1660058111156121cd576121cd614390565b146121ef5781816040516347bc33cb60e11b8152600401610a71929190614880565b60655462010000900460ff16156122185760405162461bcd60e51b8152600401610a71906145ad565b6000868152609860205260408120600381015490919061223790612e2b565b609e546003840154604051633ef19a9b60e01b815260048101919091526001600160a01b03808416602483015292935060009290911690633ef19a9b906044016040805180830381600087803b15801561229057600080fd5b505af11580156122a4573d6000803e3d6000fd5b505050506040513d601f19601f820116820180604052508101906122c891906145e7565b5090508061230e5760405162461bcd60e51b81526020600482015260136024820152722737ba103b32b934b334b2b2103632b73232b960691b6044820152606401610a71565b609e546003840154604051631cc672df60e01b81526001600160a01b0390921691631cc672df916123459160040190815260200190565b602060405180830381600087803b15801561235f57600080fd5b505af1158015612373573d6000803e3d6000fd5b505050506040513d601f19601f820116820180604052508101906123979190614613565b156123d75760405162461bcd60e51b815260206004820152601060248201526f13585c9ad95d081a5cc818db1bdcd95960821b6044820152606401610a71565b6123e0896111c3565b1561241f5760405162461bcd60e51b815260206004820152600f60248201526e109a59081a185cc8195e1c1a5c9959608a1b6044820152606401610a71565b6009830180546bffffffffffffffff000000001916600160201b4263ffffffff1690810263ffffffff60401b191691909117600160401b91909102179055600c830180546003919060ff191660018302179055506002830180546001600160a01b0319166001600160a01b0384161790556065546124a79061ffff165b60068501549061343c565b609e54600385015460405163028ba63960e21b8152929a50612537926001600160a01b0390921691630a2e98e4916124e59160040190815260200190565b602060405180830381600087803b1580156124ff57600080fd5b505af1158015612513573d6000803e3d6000fd5b505050506040513d601f19601f8201168201806040525081019061249c91906148cd565b96508688846005016001015461254d9190614869565b6125579190614869565b6002840154909650612594906001600160a01b031661257e6033546001600160a01b031690565b60058601546001600160a01b031691908b61344e565b6002830154609e5460038501546040516332209bcb60e11b81526004810191909152612639926001600160a01b03908116921690636441379690602401602060405180830381600087803b1580156125eb57600080fd5b505af11580156125ff573d6000803e3d6000fd5b505050506040513d601f19601f820116820180604052508101906126239190614710565b60058601546001600160a01b031691908a61344e565b600283015460018401546005850154612663926001600160a01b039182169290821691168961344e565b600683015460058401546001600160a01b03908116600090815260a3602090815260408083206002890154909416835292905290812080549091906126a9908490614851565b9091555050600683015460058401546001600160a01b0316600090815260a46020526040812080549091906126df908490614851565b909155505082546001600160a01b0316600090815260a060205260409020612707908a6134ae565b5060028301546040516001600160a01b03909116908a907fde9d3bfa8771df6761c0afac2375c88c70a3aa30478e1bd15363294033b470ed90600090a3604051671c1c9bdd1bd8dbdb60c21b81528890600801604051908190038120908b907f476a21a61ac4a7da250e040733aa10facd2eeee584b2c009d178c3de3d8a12dc90600090a46040516a6d61726b6574706c61636560a81b81528790600b01604051908190038120908b907f476a21a61ac4a7da250e040733aa10facd2eeee584b2c009d178c3de3d8a12dc90600090a450505050509193909250565b600081815260a660205260409020805460609190612800906146d5565b80601f016020809104026020016040519081016040528092919081815260200182805461282c906146d5565b80156128795780601f1061284e57610100808354040283529160200191612879565b820191906000526020600020905b81548152906001019060200180831161285c57829003601f168201915b505050505090508060405160200161289191906148ea565b604051602081830303815290604052805190602001207fc5d2460186f7233c927e7db2dcc703c0e500b653ca82273b7bfad8045d85a47060001b14156128f657600082815260986020908152604090912060040154906128f29082906134ba565b9150505b919050565b6040805180820190915260098152683932b830bca637b0b760b91b6020820152819060036000838152609860205260409020600c015460ff16600581111561294557612945614390565b146129675781816040516347bc33cb60e11b8152600401610a71929190614802565b6000838152609860205260408120819081906129839042612f64565b9250925092506129ae866040518060400160405280858152602001848152508386611e269190614851565b505050505050565b6129be612fe3565b6001600160a01b03166129d96033546001600160a01b031690565b6001600160a01b0316146129ff5760405162461bcd60e51b8152600401610a719061472d565b6001600160a01b0381163b612a565760405162461bcd60e51b815260206004820152601f60248201527f496e636f7272656374206c656e64696e6720746f6b656e2061646472657373006044820152606401610a71565b612162609c826130a1565b600082815260a760205260408120546001600160a01b03838116911614806114f357505060a9546001600160a01b03908116911614919050565b604080518082019091526000808252602082015260036000838152609860205260409020600c015460ff166005811115612ad757612ad7614390565b14612ae157919050565b60008281526098602052604081208190612afb9042612f64565b908552602085015250919392505050565b612b14612fe3565b6001600160a01b0316612b2f6033546001600160a01b031690565b6001600160a01b031614612b555760405162461bcd60e51b8152600401610a719061472d565b60655462010000900460ff1615612b7e5760405162461bcd60e51b8152600401610a71906145ad565b611d1b613656565b612b8e612fe3565b6001600160a01b0316612ba96033546001600160a01b031690565b6001600160a01b031614612bcf5760405162461bcd60e51b8152600401610a719061472d565b60655461ffff82811691161415612be35750565b6065805461ffff83811661ffff198316811790935560408051938452911660208301819052917f4810ece076cee6c6042808956f3f65dad1bc72b75181341d7bed810d39deda0f910160405180910390a15050565b60008181526098602052604081206003600c82015460ff166005811115612c6157612c61614390565b14612c6f5750600092915050565b600083815260a1602052604090205463ffffffff16612c915750600092915050565b600083815260a1602052604090205463ffffffff16612caf846120f7565b612cb99042614778565b63ffffffff16119392505050565b612ccf612fe3565b6001600160a01b0316612cea6033546001600160a01b031690565b6001600160a01b031614612d105760405162461bcd60e51b8152600401610a719061472d565b6001600160a01b038116612d755760405162461bcd60e51b815260206004820152602660248201527f4f776e61626c653a206e6577206f776e657220697320746865207a65726f206160448201526564647265737360d01b6064820152608401610a71565b61203d8161311d565b612d86612fe3565b6001600160a01b0316612da16033546001600160a01b031690565b6001600160a01b031614612dc75760405162461bcd60e51b8152600401610a719061472d565b60655462010000900460ff16612e165760405162461bcd60e51b815260206004820152601460248201527314185d5cd8589b194e881b9bdd081c185d5cd95960621b6044820152606401610a71565b611d1b6136d6565b606060006114f38361375a565b6000612e39826109a7612fe3565b15612ece5760131936013560601c612e768160a86000612e57612fe3565b6001600160a01b03168152602081019190915260400160002090612ed6565b610a3f5760405162461bcd60e51b8152602060048201526024808201527f53656e646572206d75737420617070726f7665206d61726b657420666f727761604482015263393232b960e11b6064820152608401610a71565b610a3f612fe3565b6001600160a01b038116600090815260018301602052604081205415156114f3565b60006001866001811115612f0e57612f0e614390565b1415612f4c57612f45612f3263ffffffff808616906301e1338090600a906137b416565b600a612f3e888661343c565b91906137e1565b9050612f5b565b612f58858585856137f6565b90505b95945050505050565b60068201546007830154600b840154600a85015460009384938493612fd69361ffff600160201b8304169163ffffffff16612f9e8b6133e1565b60098c0154600c8d015463ffffffff928316928d92600160201b8104821692600160601b90910490911690610100900460ff166138ad565b9250925092509250925092565b60006116e56139ae565b60408051808201909152600981526818d85b98d95b109a5960ba1b6020820152819060016000838152609860205260409020600c015460ff16600581111561303757613037614390565b146130595781816040516347bc33cb60e11b8152600401610a71929190614880565b600083815260986020526040808220600c01805460ff191660021790555184917fa0633b09ac3029a6746aa27d4db1407f5f287a10c41a6b2ad2859f4da9b2680b91a2505050565b60006114f3836001600160a01b0384166139f3565b600054610100900460ff166130dd5760405162461bcd60e51b8152600401610a7190614906565b6130e5613a42565b61203d81613a71565b600054610100900460ff166131155760405162461bcd60e51b8152600401610a7190614906565b611d1b613aa1565b603380546001600160a01b038381166001600160a01b0319831681179093556040519116919082907f8be0079c531659141344cd1fd0a4f28419497f9722a3daafe3b4186f6b6457e090600090a35050565b600083815260986020908152604082209084015184519192916131929190614851565b609f54835460405163c7312e4760e01b81526001600160a01b0391821660048201526024810189905292935060009291169063c7312e4790604401602060405180830381600087803b1580156131e757600080fd5b505af11580156131fb573d6000803e3d6000fd5b505050506040513d601f19601f8201168201806040525081019061321f9190614951565b905083821061328e57600c8301805460ff1916600417905582546001600160a01b0316600090815260a06020526040902084925061325d9087613ad6565b5060405186907f9a7851747cd7ffb3fe0a32caf3da48b31f27cebe131267051640f8b72fc4718690600090a26132ba565b60405186907f68ca97895fe2d09eab47e752271728ade667e72dda27e68c20eaa191a9c2187d90600090a25b6132e86132ca8460030154612e2b565b600285015460058601546001600160a01b039081169291168561344e565b84516007840180546000906132fe908490614851565b9091555050602085015160088401805460009061331c908490614851565b909155505060098301805463ffffffff60401b1916600160401b4263ffffffff1602179055600081600281111561335557613355614390565b146129ae57609f54835460405163c7312e4760e01b81526001600160a01b0391821660048201526024810189905291169063c7312e4790604401602060405180830381600087803b1580156133a957600080fd5b505af11580156133bd573d6000803e3d6000fd5b505050506040513d601f19601f82011682018060405250810190611a879190614951565b6009810154600090600160401b900463ffffffff1615613412576009820154600160401b900463ffffffff16610a3f565b5060090154600160201b900463ffffffff1690565b60006114f3836001600160a01b038416613ade565b60006114f3838361ffff1660026137e1565b604080516001600160a01b0385811660248301528416604482015260648082018490528251808303909101815260849091019091526020810180516001600160e01b03166323b872dd60e01b1790526134a8908590613bd1565b50505050565b60006114f383836139f3565b606060006134c9836002614972565b6134d4906002614851565b67ffffffffffffffff8111156134ec576134ec614991565b6040519080825280601f01601f191660200182016040528015613516576020820181803683370190505b509050600360fc1b8160008151811061353157613531614762565b60200101906001600160f81b031916908160001a905350600f60fb1b8160018151811061356057613560614762565b60200101906001600160f81b031916908160001a9053506000613584846002614972565b61358f906001614851565b90505b6001811115613607576f181899199a1a9b1b9c1cb0b131b232b360811b85600f16601081106135c3576135c3614762565b1a60f81b8282815181106135d9576135d9614762565b60200101906001600160f81b031916908160001a90535060049490941c93613600816149a7565b9050613592565b5083156114f35760405162461bcd60e51b815260206004820181905260248201527f537472696e67733a20686578206c656e67746820696e73756666696369656e746044820152606401610a71565b60655462010000900460ff161561367f5760405162461bcd60e51b8152600401610a71906145ad565b6065805462ff00001916620100001790557f62e78cea01bee320cd4e420270b5ea74000d11b0c9f74754ebdbfc544b05a2586136b9612fe3565b6040516001600160a01b03909116815260200160405180910390a1565b60655462010000900460ff166137255760405162461bcd60e51b815260206004820152601460248201527314185d5cd8589b194e881b9bdd081c185d5cd95960621b6044820152606401610a71565b6065805462ff0000191690557f5db9ee0a495bf2e6ff9c91a7834c1ba4fdd244a5e8aa4e537bd38aeae4b073aa6136b9612fe3565b60608160000180548060200260200160405190810160405280929190818152602001828054801561155a57602002820191906000526020600020908154815260200190600101908083116115465750505050509050919050565b6000826137c3575060006114f3565b826137cd83613ca8565b6137d79086614972565b6114f091906149be565b60006137ec82613ca8565b6137d78486614972565b60008061380384866147b3565b63ffffffff16905061ffff83166138265761381e81876149be565b9150506138a5565b670de0b6b3a764000060006138586301e1338061385263ffffffff891661384c89613cc0565b90613ce4565b90613d18565b905060006138708461386a8486614851565b90613d48565b905060006138828261384c8c86613ce4565b905060006138908584614869565b905061389c8282613d18565b96505050505050505b949350505050565b600080806138bb8c8e614869565b925060006138c9848d61343c565b905060006138d78a8a614869565b90506301e133806138e88284614972565b6138f291906149be565b92506000613900898b6149d2565b61390a90896149d2565b905060008c82128061392557508d6139228689614851565b11155b9050600188600181111561393b5761393b614390565b141561395057801561394b578695505b61399a565b60008161395d578e613967565b6139678689614851565b905060008e6139768684614972565b61398091906149be565b905061399561398f8883614869565b8a613d60565b975050505b505050509a509a509a975050505050505050565b60007f00000000000000000000000000000000000000000000000000000000000000006001600160a01b03163314156139ee575060131936013560601c90565b503390565b6000818152600183016020526040812054613a3a57508154600181810184556000848152602080822090930184905584548482528286019093526040902091909155610a3f565b506000610a3f565b600054610100900460ff16613a695760405162461bcd60e51b8152600401610a7190614906565b611d1b613d76565b600054610100900460ff16613a985760405162461bcd60e51b8152600401610a7190614906565b61203d81612b86565b600054610100900460ff16613ac85760405162461bcd60e51b8152600401610a7190614906565b6065805462ff000019169055565b60006114f383835b60008181526001830160205260408120548015613bc7576000613b02600183614869565b8554909150600090613b1690600190614869565b9050818114613b7b576000866000018281548110613b3657613b36614762565b9060005260206000200154905080876000018481548110613b5957613b59614762565b6000918252602080832090910192909255918252600188019052604090208390555b8554869080613b8c57613b8c614a11565b600190038181906000526020600020016000905590558560010160008681526020019081526020016000206000905560019350505050610a3f565b6000915050610a3f565b6000613c26826040518060400160405280602081526020017f5361666545524332303a206c6f772d6c6576656c2063616c6c206661696c6564815250856001600160a01b0316613dad9092919063ffffffff16565b805190915015613ca35780806020019051810190613c449190614613565b613ca35760405162461bcd60e51b815260206004820152602a60248201527f5361666545524332303a204552433230206f7065726174696f6e20646964206e6044820152691bdd081cdd58d8d9595960b21b6064820152608401610a71565b505050565b6000613cb582600a614b0b565b610a3f906064614972565b6000610a3f612710613cde61ffff8516670de0b6b3a7640000613dbc565b90613dc8565b60006114f3670de0b6b3a7640000613cde613cff8686613dbc565b613d126002670de0b6b3a76400006149be565b90613dd4565b600080613d266002846149be565b90506138a583613cde613d4187670de0b6b3a7640000613dbc565b8490613dd4565b60006114f38383670de0b6b3a7640000613ce4613de0565b6000818310613d6f57816114f3565b5090919050565b600054610100900460ff16613d9d5760405162461bcd60e51b8152600401610a7190614906565b611d1b613da8612fe3565b61311d565b60606114f08484600085613e52565b60006114f38284614972565b60006114f382846149be565b60006114f38284614851565b6000613ded600285614b17565b613df75782613df9565b845b9050613e066002856149be565b93505b83156138a557613e1d85868463ffffffff16565b9450613e2a600285614b17565b15613e4057613e3d81868463ffffffff16565b90505b613e4b6002856149be565b9350613e09565b606082471015613eb35760405162461bcd60e51b815260206004820152602660248201527f416464726573733a20696e73756666696369656e742062616c616e636520666f6044820152651c8818d85b1b60d21b6064820152608401610a71565b6001600160a01b0385163b613f0a5760405162461bcd60e51b815260206004820152601d60248201527f416464726573733a2063616c6c20746f206e6f6e2d636f6e74726163740000006044820152606401610a71565b600080866001600160a01b03168587604051613f2691906148ea565b60006040518083038185875af1925050503d8060008114613f63576040519150601f19603f3d011682016040523d82523d6000602084013e613f68565b606091505b5091509150613f78828286613f83565b979650505050505050565b60608315613f925750816114f3565b825115613fa25782518084602001fd5b8160405162461bcd60e51b8152600401610a7191906142a9565b828054613fc8906146d5565b90600052602060002090601f016020900481019282613fea5760008555614030565b82601f106140035782800160ff19823516178555614030565b82800160010185558215614030579182015b82811115614030578235825591602001919060010190614015565b5061403c929150614040565b5090565b5b8082111561403c5760008155600101614041565b6001600160a01b038116811461203d57600080fd5b80356128f681614055565b60006020828403121561408757600080fd5b81356114f381614055565b6020808252825182820181905260009190848201906040850190845b818110156140ca578351835292840192918401916001016140ae565b50909695505050505050565b63ffffffff8116811461203d57600080fd5b61ffff8116811461203d57600080fd5b60008060008060008060008060e0898b03121561411457600080fd5b883561411f81614055565b97506020890135965060408901359550606089013561413d816140d6565b9450608089013561414d816140e8565b935060a089013567ffffffffffffffff8082111561416a57600080fd5b818b0191508b601f83011261417e57600080fd5b81358181111561418d57600080fd5b8c602082850101111561419f57600080fd5b6020830195508094505050506141b760c08a0161406a565b90509295985092959890939650565b600080604083850312156141d957600080fd5b82356141e481614055565b915060208301356141f481614055565b809150509250929050565b60006020828403121561421157600080fd5b5035919050565b6000806040838503121561422b57600080fd5b50508035926020909101359150565b815181526020808301519082015260408101610a3f565b60005b8381101561426c578181015183820152602001614254565b838111156134a85750506000910152565b60008151808452614295816020860160208601614251565b601f01601f19169290920160200192915050565b6020815260006114f3602083018461427d565b600080604083850312156142cf57600080fd5b8235915060208301356141f481614055565b6000806000606084860312156142f657600080fd5b83359250602084013561430881614055565b9150604084013561431881614055565b809150509250925092565b6020808252825182820181905260009190848201906040850190845b818110156140ca5783516001600160a01b03168352928401929184019160010161433f565b6000806040838503121561437757600080fd5b823561438281614055565b946020939093013593505050565b634e487b7160e01b600052602160045260246000fd5b600681106143b6576143b6614390565b9052565b600281106143b6576143b6614390565b60006102408201905060018060a01b03808c168352808b166020840152808a1660408401528860608401528760808401528087511660a084015250602086015160c0830152604086015161442b60e084018280518252602090810151910152565b50606086015163ffffffff9081166101208401526080870151811661014084015260a08701511661016083015260c086015161447061018084018263ffffffff169052565b5084516101a0830152602085015163ffffffff166101c0830152604085015161ffff166101e08301526144a76102008301856143a6565b6144b56102208301846143ba565b9a9950505050505050505050565b60008060008060008060a087890312156144dc57600080fd5b86356144e7816140e8565b955060208701356144f781614055565b9450604087013561450781614055565b9350606087013561451781614055565b9250608087013567ffffffffffffffff8082111561453457600080fd5b818901915089601f83011261454857600080fd5b81358181111561455757600080fd5b8a60208260051b850101111561456c57600080fd5b6020830194508093505050509295509295509295565b60208101610a3f82846143a6565b6000602082840312156145a257600080fd5b81356114f3816140e8565b60208082526010908201526f14185d5cd8589b194e881c185d5cd95960821b604082015260600190565b805180151581146128f657600080fd5b600080604083850312156145fa57600080fd5b614603836145d7565b9150602083015190509250929050565b60006020828403121561462557600080fd5b6114f3826145d7565b60006020828403121561464057600080fd5b81516114f3816140d6565b60006020828403121561465d57600080fd5b8151600281106114f357600080fd5b8183823760009101908152919050565b634e487b7160e01b600052601160045260246000fd5b60006000198214156146a6576146a661467c565b5060010190565b600063ffffffff8083168185168083038211156146cc576146cc61467c565b01949350505050565b600181811c908216806146e957607f821691505b6020821081141561470a57634e487b7160e01b600052602260045260246000fd5b50919050565b60006020828403121561472257600080fd5b81516114f381614055565b6020808252818101527f4f776e61626c653a2063616c6c6572206973206e6f7420746865206f776e6572604082015260600190565b634e487b7160e01b600052603260045260246000fd5b600063ffffffff838116908316818110156147955761479561467c565b039392505050565b634e487b7160e01b600052601260045260246000fd5b600063ffffffff808416806147ca576147ca61479d565b92169190910492915050565b600063ffffffff808316818516818304811182151516156147f9576147f961467c565b02949350505050565b82815260606020820152600061481b606083018461427d565b8281036040938401526015815274131bd85b881b5d5cdd081899481858d8d95c1d1959605a1b6020820152919091019392505050565b600082198211156148645761486461467c565b500190565b60008282101561487b5761487b61467c565b500390565b828152606060208201526000614899606083018461427d565b8281036040938401526013815272426964206d7573742062652070656e64696e6760681b6020820152919091019392505050565b6000602082840312156148df57600080fd5b81516114f3816140e8565b600082516148fc818460208701614251565b9190910192915050565b6020808252602b908201527f496e697469616c697a61626c653a20636f6e7472616374206973206e6f74206960408201526a6e697469616c697a696e6760a81b606082015260800190565b60006020828403121561496357600080fd5b8151600381106114f357600080fd5b600081600019048311821515161561498c5761498c61467c565b500290565b634e487b7160e01b600052604160045260246000fd5b6000816149b6576149b661467c565b506000190190565b6000826149cd576149cd61479d565b500490565b60008083128015600160ff1b8501841216156149f0576149f061467c565b6001600160ff1b0384018313811615614a0b57614a0b61467c565b50500390565b634e487b7160e01b600052603160045260246000fd5b600181815b80851115614a62578160001904821115614a4857614a4861467c565b80851615614a5557918102915b93841c9390800290614a2c565b509250929050565b600082614a7957506001610a3f565b81614a8657506000610a3f565b8160018114614a9c5760028114614aa657614ac2565b6001915050610a3f565b60ff841115614ab757614ab761467c565b50506001821b610a3f565b5060208310610133831016604e8410600b8410161715614ae5575081810a610a3f565b614aef8383614a27565b8060001904821115614b0357614b0361467c565b029392505050565b60006114f38383614a6a565b600082614b2657614b2661479d565b50069056fea26469706673582212200566d98ca5c2c65bb7ebbecbce48a68db2c47fb191c4fec129c5e246c5f13f0464736f6c63430008090033",
  "devdoc": {
    "errors": {
      "ActionNotAllowed(uint256,string,string)": [
        {
          "params": {
            "action": "The action string (i.e: 'repayLoan', 'cancelBid', 'etc)",
            "bidId": "The id of the bid.",
            "message": "The message string to return to the user explaining why the tx was reverted"
          }
        }
      ],
      "PaymentNotMinimum(uint256,uint256,uint256)": [
        {
          "params": {
            "bidId": "The id of the bid the borrower is attempting to repay.",
            "minimumOwed": "The minimum owed value",
            "payment": "The payment made by the borrower"
          }
        }
      ]
    },
    "events": {
      "AcceptedBid(uint256,address)": {
        "params": {
          "bidId": "The id of the bid accepted.",
          "lender": "The address of the accepted bid lender."
        }
      },
      "CancelledBid(uint256)": {
        "params": {
          "bidId": "The id of the cancelled bid."
        }
      },
      "FeePaid(uint256,string,uint256)": {
        "params": {
          "amount": "The amount of the fee being paid.",
          "bidId": "The id of the bid.",
          "feeType": "The name of the fee being paid."
        }
      },
      "LoanLiquidated(uint256,address)": {
        "params": {
          "bidId": "The id of the bid/loan which was repaid."
        }
      },
      "LoanRepaid(uint256)": {
        "params": {
          "bidId": "The id of the bid/loan which was repaid."
        }
      },
      "LoanRepayment(uint256)": {
        "params": {
          "bidId": "The id of the bid/loan to which the payment was made."
        }
      },
      "MarketOwnerCancelledBid(uint256)": {
        "params": {
          "bidId": "The id of the bid funded. Note: The `CancelledBid` event will also be emitted."
        }
      },
      "SubmittedBid(uint256,address,address,bytes32)": {
        "params": {
          "bidId": "The id of the bid submitted.",
          "borrower": "The address of the bid borrower.",
          "metadataURI": "URI for additional bid information as part of loan bid."
        }
      }
    },
    "kind": "dev",
    "methods": {
      "addLendingToken(address)": {
        "params": {
          "_lendingToken": "The contract address of the lending token."
        }
      },
      "approveMarketForwarder(uint256,address)": {
        "params": {
          "_forwarder": "A forwarder contract address.",
          "_marketId": "An ID for a lending market."
        }
      },
      "calculateAmountDue(uint256)": {
        "params": {
          "_bidId": "The id of the loan bid to get the payment amount for."
        }
      },
      "calculateAmountDue(uint256,uint256)": {
        "params": {
          "_bidId": "The id of the loan bid to get the payment amount for.",
          "_timestamp": "The timestamp at which to get the due payment at."
        }
      },
      "calculateAmountOwed(uint256)": {
        "params": {
          "_bidId": "The id of the loan bid to calculate the owed amount for."
        }
      },
      "calculateAmountOwed(uint256,uint256)": {
        "params": {
          "_bidId": "The id of the loan bid to calculate the owed amount for.",
          "_timestamp": "The timestamp at which to calculate the loan owed amount at."
        }
      },
      "calculateNextDueDate(uint256)": {
        "params": {
          "_bidId": "The id of the loan bid."
        }
      },
      "cancelBid(uint256)": {
        "params": {
          "_bidId": "The id of the bid to cancel."
        }
      },
      "getLoanBorrower(uint256)": {
        "params": {
          "_bidId": "The id of the bid/loan to get the borrower for."
        },
        "returns": {
          "borrower_": "The address of the borrower associated with the bid."
        }
      },
      "getLoanLender(uint256)": {
        "params": {
          "_bidId": "The id of the bid/loan to get the lender for."
        },
        "returns": {
          "lender_": "The address of the lender associated with the bid."
        }
      },
      "getMetadataURI(uint256)": {
        "params": {
          "_bidId": "The id of the bid to return the metadataURI for"
        },
        "returns": {
          "metadataURI_": "The metadataURI for the bid, as a string."
        }
      },
      "hasApprovedMarketForwarder(uint256,address,address)": {
        "params": {
          "_account": "The address to verify set an approval.",
          "_forwarder": "A forwarder contract address.",
          "_marketId": "An ID for a lending market."
        },
        "returns": {
          "_0": "A boolean indicating if an approval was set."
        }
      },
      "initialize(uint16,address,address,address,address[])": {
        "params": {
          "_lendingTokens": "The list of tokens allowed as lending assets on the protocol.",
          "_protocolFee": "The fee collected by the protocol for loan processing."
        }
      },
      "isLoanDefaulted(uint256)": {
        "params": {
          "_bidId": "The id of the loan bid to check for."
        }
      },
      "isLoanExpired(uint256)": {
        "params": {
          "_bidId": "The id of the loan bid to check for."
        }
      },
      "isPaymentLate(uint256)": {
        "params": {
          "_bidId": "The id of the loan bid to check for."
        }
      },
      "isTrustedMarketForwarder(uint256,address)": {
        "params": {
          "_marketId": "An ID for a lending market.",
          "_trustedMarketForwarder": "An address to check if is a trusted forwarder in the given market."
        },
        "returns": {
          "_0": "A boolean indicating the forwarder address is trusted in a market."
        }
      },
      "lastRepaidTimestamp(uint256)": {
        "params": {
          "_bidId": "The id of the loan bid to get the timestamp for."
        }
      },
      "lenderAcceptBid(uint256)": {
        "params": {
          "_bidId": "The id of the loan bid to accept."
        }
      },
      "liquidateLoanFull(uint256)": {
        "params": {
          "_bidId": "The id of the loan to make the payment towards."
        }
      },
      "marketOwnerCancelBid(uint256)": {
        "params": {
          "_bidId": "The id of the bid to cancel."
        }
      },
      "owner()": {
        "details": "Returns the address of the current owner."
      },
      "paused()": {
        "details": "Returns true if the contract is paused, and false otherwise."
      },
      "removeLendingToken(address)": {
        "params": {
          "_lendingToken": "The contract address of the lending token."
        }
      },
      "renounceOwnership()": {
        "details": "Leaves the contract without owner. It will not be possible to call `onlyOwner` functions anymore. Can only be called by the current owner. NOTE: Renouncing ownership will leave the contract without an owner, thereby removing any functionality that is only available to the owner."
      },
      "repayLoan(uint256,uint256)": {
        "params": {
          "_amount": "The amount of the payment.",
          "_bidId": "The id of the loan to make the payment towards."
        }
      },
      "repayLoanFull(uint256)": {
        "params": {
          "_bidId": "The id of the loan to make the payment towards."
        }
      },
      "repayLoanMinimum(uint256)": {
        "params": {
          "_bidId": "The id of the loan to make the payment towards."
        }
      },
      "setProtocolFee(uint16)": {
        "params": {
          "newFee": "The new protocol fee to be set."
        }
      },
      "setReputationManager(address)": {
        "params": {
          "_reputationManager": "The new contract address."
        }
      },
      "setTrustedMarketForwarder(uint256,address)": {
        "params": {
          "_forwarder": "A forwarder contract address.",
          "_marketId": "An ID for a lending market."
        }
      },
      "submitBid(address,uint256,uint256,uint32,uint16,string,address)": {
        "params": {
          "_APR": "The proposed interest rate for the loan bid.",
          "_duration": "The recurrent length of time before which a payment is due.",
          "_lendingToken": "The lending token asset requested to be borrowed.",
          "_marketplaceId": "The unique id of the marketplace for the bid.",
          "_metadataURI": "The URI for additional borrower loan information as part of loan bid.",
          "_principal": "The principal amount of the loan bid.",
          "_receiver": "The address where the loan amount will be sent to."
        }
      },
      "transferOwnership(address)": {
        "details": "Transfers ownership of the contract to a new account (`newOwner`). Can only be called by the current owner."
      }
    },
    "version": 1
  },
  "userdoc": {
    "errors": {
      "ActionNotAllowed(uint256,string,string)": [
        {
          "notice": "This error is reverted when the action isn't allowed"
        }
      ],
      "PaymentNotMinimum(uint256,uint256,uint256)": [
        {
          "notice": "This error is reverted when repayment amount is less than the required minimum"
        }
      ]
    },
    "events": {
      "AcceptedBid(uint256,address)": {
        "notice": "This event is emitted when a bid has been accepted by a lender."
      },
      "CancelledBid(uint256)": {
        "notice": "This event is emitted when a previously submitted bid has been cancelled."
      },
      "FeePaid(uint256,string,uint256)": {
        "notice": "This event is emitted when a fee has been paid related to a bid."
      },
      "LoanLiquidated(uint256,address)": {
        "notice": "This event is emitted when a loan has been fully repaid."
      },
      "LoanRepaid(uint256)": {
        "notice": "This event is emitted when a loan has been fully repaid."
      },
      "LoanRepayment(uint256)": {
        "notice": "This event is emitted when a payment is made towards an active loan."
      },
      "MarketOwnerCancelledBid(uint256)": {
        "notice": "This event is emitted when market owner has cancelled a pending bid in their market."
      },
      "ProtocolFeeSet(uint16,uint16)": {
        "notice": "This event is emitted when the protocol fee has been updated."
      },
      "SubmittedBid(uint256,address,address,bytes32)": {
        "notice": "This event is emitted when a new bid is submitted."
      }
    },
    "kind": "user",
    "methods": {
      "CURRENT_CODE_VERSION()": {
        "notice": "Constant Variables *"
      },
      "addLendingToken(address)": {
        "notice": "Lets the DAO/owner of the protocol add an authorized lending token."
      },
      "approveMarketForwarder(uint256,address)": {
        "notice": "Approves a forwarder contract to use their address as a sender for a specific market.The forwarder given must be trusted by the market given."
      },
      "bidId()": {
        "notice": "Storage Variables "
      },
      "calculateAmountDue(uint256)": {
        "notice": "Calculates the minimum payment amount due for a loan."
      },
      "calculateAmountDue(uint256,uint256)": {
        "notice": "Calculates the minimum payment amount due for a loan at a specific timestamp."
      },
      "calculateAmountOwed(uint256)": {
        "notice": "Calculates the total amount owed for a bid."
      },
      "calculateAmountOwed(uint256,uint256)": {
        "notice": "Calculates the total amount owed for a loan bid at a specific timestamp."
      },
      "calculateNextDueDate(uint256)": {
        "notice": "Returns the next due date for a loan payment."
      },
      "cancelBid(uint256)": {
        "notice": "Function for a borrower to cancel their pending bid."
      },
      "constructor": {
        "notice": "Constructor *"
      },
      "getLendingTokens()": {
        "notice": "Returns the list of authorized tokens on the protocol."
      },
      "getLoanBorrower(uint256)": {
        "notice": "Returns the borrower address for a given bid."
      },
      "getLoanLender(uint256)": {
        "notice": "Returns the lender address for a given bid."
      },
      "getMetadataURI(uint256)": {
        "notice": "Gets the metadataURI for a bidId."
      },
      "hasApprovedMarketForwarder(uint256,address,address)": {
        "notice": "Checks if an account has approved a forwarder for a market."
      },
      "initialize(uint16,address,address,address,address[])": {
        "notice": "Initializes the proxy."
      },
      "isLoanDefaulted(uint256)": {
        "notice": "Checks to see if a borrower is delinquent."
      },
      "isLoanExpired(uint256)": {
        "notice": "Checks to see if a pending loan has expired so it is no longer able to be accepted."
      },
      "isPaymentLate(uint256)": {
        "notice": "Checks to see if a borrower is delinquent."
      },
      "isTrustedMarketForwarder(uint256,address)": {
        "notice": "Checks if an address is a trusted forwarder contract for a given market."
      },
      "lastRepaidTimestamp(uint256)": {
        "notice": "Returns the last repaid timestamp for a loan."
      },
      "lenderAcceptBid(uint256)": {
        "notice": "Function for a lender to accept a proposed loan bid."
      },
      "liquidateLoanFull(uint256)": {
        "notice": "Function for users to liquidate a defaulted loan."
      },
      "marketOwnerCancelBid(uint256)": {
        "notice": "Function for a market owner to cancel a bid in the market."
      },
      "pauseProtocol()": {
        "notice": "Lets the DAO/owner of the protocol implement an emergency stop mechanism."
      },
      "protocolFee()": {
        "notice": "Returns the current protocol fee."
      },
      "removeLendingToken(address)": {
        "notice": "Lets the DAO/owner of the protocol remove an authorized lending token."
      },
      "repayLoan(uint256,uint256)": {
        "notice": "Function for users to make a payment towards an active loan."
      },
      "repayLoanFull(uint256)": {
        "notice": "Function for users to repay an active loan in full."
      },
      "repayLoanMinimum(uint256)": {
        "notice": "Function for users to make the minimum amount due for an active loan."
      },
      "setProtocolFee(uint16)": {
        "notice": "Lets the DAO/owner of the protocol to set a new protocol fee."
      },
      "setReputationManager(address)": {
        "notice": "Lets the DAO/owner of the protocol to set a new reputation manager contract."
      },
      "setTrustedMarketForwarder(uint256,address)": {
        "notice": "Sets a trusted forwarder for a lending market.The caller must owner the market given. See {MarketRegistry}"
      },
      "submitBid(address,uint256,uint256,uint32,uint16,string,address)": {
        "notice": "Function for a borrower to create a bid for a loan."
      },
      "unpauseProtocol()": {
        "notice": "Lets the DAO/owner of the protocol undo a previously implemented emergency stop."
      }
    },
    "version": 1
  },
  "storageLayout": {
    "storage": [
      {
        "astId": 1617,
        "contract": "contracts/TellerV2.sol:TellerV2",
        "label": "_initialized",
        "offset": 0,
        "slot": "0",
        "type": "t_bool"
      },
      {
        "astId": 1620,
        "contract": "contracts/TellerV2.sol:TellerV2",
        "label": "_initializing",
        "offset": 1,
        "slot": "0",
        "type": "t_bool"
      },
      {
        "astId": 2157,
        "contract": "contracts/TellerV2.sol:TellerV2",
        "label": "__gap",
        "offset": 0,
        "slot": "1",
        "type": "t_array(t_uint256)50_storage"
      },
      {
        "astId": 1309,
        "contract": "contracts/TellerV2.sol:TellerV2",
        "label": "_owner",
        "offset": 0,
        "slot": "51",
        "type": "t_address"
      },
      {
        "astId": 1421,
        "contract": "contracts/TellerV2.sol:TellerV2",
        "label": "__gap",
        "offset": 0,
        "slot": "52",
        "type": "t_array(t_uint256)49_storage"
      },
      {
        "astId": 11275,
        "contract": "contracts/TellerV2.sol:TellerV2",
        "label": "_protocolFee",
        "offset": 0,
        "slot": "101",
        "type": "t_uint16"
      },
      {
        "astId": 1705,
        "contract": "contracts/TellerV2.sol:TellerV2",
        "label": "_paused",
        "offset": 2,
        "slot": "101",
        "type": "t_bool"
      },
      {
        "astId": 1794,
        "contract": "contracts/TellerV2.sol:TellerV2",
        "label": "__gap",
        "offset": 0,
        "slot": "102",
        "type": "t_array(t_uint256)49_storage"
      },
      {
        "astId": 14761,
        "contract": "contracts/TellerV2.sol:TellerV2",
        "label": "bidId",
        "offset": 0,
        "slot": "151",
        "type": "t_uint256"
      },
      {
        "astId": 14766,
        "contract": "contracts/TellerV2.sol:TellerV2",
        "label": "bids",
        "offset": 0,
        "slot": "152",
        "type": "t_mapping(t_uint256,t_struct(Bid)14750_storage)"
      },
      {
        "astId": 14771,
        "contract": "contracts/TellerV2.sol:TellerV2",
        "label": "borrowerBids",
        "offset": 0,
        "slot": "153",
        "type": "t_mapping(t_address,t_array(t_uint256)dyn_storage)"
      },
      {
        "astId": 14775,
        "contract": "contracts/TellerV2.sol:TellerV2",
        "label": "_lenderVolumeFilled",
        "offset": 0,
        "slot": "154",
        "type": "t_mapping(t_address,t_uint256)"
      },
      {
        "astId": 14777,
        "contract": "contracts/TellerV2.sol:TellerV2",
        "label": "_totalVolumeFilled",
        "offset": 0,
        "slot": "155",
        "type": "t_uint256"
      },
      {
        "astId": 14780,
        "contract": "contracts/TellerV2.sol:TellerV2",
        "label": "lendingTokensSet",
        "offset": 0,
        "slot": "156",
        "type": "t_struct(AddressSet)7277_storage"
      },
      {
        "astId": 14783,
        "contract": "contracts/TellerV2.sol:TellerV2",
        "label": "marketRegistry",
        "offset": 0,
        "slot": "158",
        "type": "t_contract(IMarketRegistry)15365"
      },
      {
        "astId": 14786,
        "contract": "contracts/TellerV2.sol:TellerV2",
        "label": "reputationManager",
        "offset": 0,
        "slot": "159",
        "type": "t_contract(IReputationManager)15424"
      },
      {
        "astId": 14791,
        "contract": "contracts/TellerV2.sol:TellerV2",
        "label": "_borrowerBidsActive",
        "offset": 0,
        "slot": "160",
        "type": "t_mapping(t_address,t_struct(UintSet)7434_storage)"
      },
      {
        "astId": 14795,
        "contract": "contracts/TellerV2.sol:TellerV2",
        "label": "bidDefaultDuration",
        "offset": 0,
        "slot": "161",
        "type": "t_mapping(t_uint256,t_uint32)"
      },
      {
        "astId": 14799,
        "contract": "contracts/TellerV2.sol:TellerV2",
        "label": "bidExpirationTime",
        "offset": 0,
        "slot": "162",
        "type": "t_mapping(t_uint256,t_uint32)"
      },
      {
        "astId": 14805,
        "contract": "contracts/TellerV2.sol:TellerV2",
        "label": "lenderVolumeFilled",
        "offset": 0,
        "slot": "163",
        "type": "t_mapping(t_address,t_mapping(t_address,t_uint256))"
      },
      {
        "astId": 14809,
        "contract": "contracts/TellerV2.sol:TellerV2",
        "label": "totalVolumeFilled",
        "offset": 0,
        "slot": "164",
        "type": "t_mapping(t_address,t_uint256)"
      },
      {
        "astId": 14811,
        "contract": "contracts/TellerV2.sol:TellerV2",
        "label": "version",
        "offset": 0,
        "slot": "165",
        "type": "t_uint256"
      },
      {
        "astId": 14815,
        "contract": "contracts/TellerV2.sol:TellerV2",
        "label": "uris",
        "offset": 0,
        "slot": "166",
        "type": "t_mapping(t_uint256,t_string_storage)"
      },
      {
        "astId": 14822,
        "contract": "contracts/TellerV2.sol:TellerV2",
        "label": "_trustedMarketForwarders",
        "offset": 0,
        "slot": "167",
        "type": "t_mapping(t_uint256,t_address)"
      },
      {
        "astId": 14827,
        "contract": "contracts/TellerV2.sol:TellerV2",
        "label": "_approvedForwarderSenders",
        "offset": 0,
        "slot": "168",
        "type": "t_mapping(t_address,t_struct(AddressSet)7277_storage)"
      },
      {
        "astId": 14832,
        "contract": "contracts/TellerV2.sol:TellerV2",
        "label": "lenderCommitmentForwarder",
        "offset": 0,
        "slot": "169",
        "type": "t_address"
      }
    ],
    "types": {
      "t_address": {
        "encoding": "inplace",
        "label": "address",
        "numberOfBytes": "20"
      },
      "t_array(t_bytes32)dyn_storage": {
        "base": "t_bytes32",
        "encoding": "dynamic_array",
        "label": "bytes32[]",
        "numberOfBytes": "32"
      },
      "t_array(t_uint256)49_storage": {
        "base": "t_uint256",
        "encoding": "inplace",
        "label": "uint256[49]",
        "numberOfBytes": "1568"
      },
      "t_array(t_uint256)50_storage": {
        "base": "t_uint256",
        "encoding": "inplace",
        "label": "uint256[50]",
        "numberOfBytes": "1600"
      },
      "t_array(t_uint256)dyn_storage": {
        "base": "t_uint256",
        "encoding": "dynamic_array",
        "label": "uint256[]",
        "numberOfBytes": "32"
      },
      "t_bool": {
        "encoding": "inplace",
        "label": "bool",
        "numberOfBytes": "1"
      },
      "t_bytes32": {
        "encoding": "inplace",
        "label": "bytes32",
        "numberOfBytes": "32"
      },
      "t_contract(ERC20)3763": {
        "encoding": "inplace",
        "label": "contract ERC20",
        "numberOfBytes": "20"
      },
      "t_contract(IMarketRegistry)15365": {
        "encoding": "inplace",
        "label": "contract IMarketRegistry",
        "numberOfBytes": "20"
      },
      "t_contract(IReputationManager)15424": {
        "encoding": "inplace",
        "label": "contract IReputationManager",
        "numberOfBytes": "20"
      },
      "t_enum(BidState)14705": {
        "encoding": "inplace",
        "label": "enum TellerV2Storage_G0.BidState",
        "numberOfBytes": "1"
      },
      "t_enum(PaymentType)13699": {
        "encoding": "inplace",
        "label": "enum V2Calculations.PaymentType",
        "numberOfBytes": "1"
      },
      "t_mapping(t_address,t_array(t_uint256)dyn_storage)": {
        "encoding": "mapping",
        "key": "t_address",
        "label": "mapping(address => uint256[])",
        "numberOfBytes": "32",
        "value": "t_array(t_uint256)dyn_storage"
      },
      "t_mapping(t_address,t_mapping(t_address,t_uint256))": {
        "encoding": "mapping",
        "key": "t_address",
        "label": "mapping(address => mapping(address => uint256))",
        "numberOfBytes": "32",
        "value": "t_mapping(t_address,t_uint256)"
      },
      "t_mapping(t_address,t_struct(AddressSet)7277_storage)": {
        "encoding": "mapping",
        "key": "t_address",
        "label": "mapping(address => struct EnumerableSet.AddressSet)",
        "numberOfBytes": "32",
        "value": "t_struct(AddressSet)7277_storage"
      },
      "t_mapping(t_address,t_struct(UintSet)7434_storage)": {
        "encoding": "mapping",
        "key": "t_address",
        "label": "mapping(address => struct EnumerableSet.UintSet)",
        "numberOfBytes": "32",
        "value": "t_struct(UintSet)7434_storage"
      },
      "t_mapping(t_address,t_uint256)": {
        "encoding": "mapping",
        "key": "t_address",
        "label": "mapping(address => uint256)",
        "numberOfBytes": "32",
        "value": "t_uint256"
      },
      "t_mapping(t_bytes32,t_uint256)": {
        "encoding": "mapping",
        "key": "t_bytes32",
        "label": "mapping(bytes32 => uint256)",
        "numberOfBytes": "32",
        "value": "t_uint256"
      },
      "t_mapping(t_uint256,t_address)": {
        "encoding": "mapping",
        "key": "t_uint256",
        "label": "mapping(uint256 => address)",
        "numberOfBytes": "32",
        "value": "t_address"
      },
      "t_mapping(t_uint256,t_string_storage)": {
        "encoding": "mapping",
        "key": "t_uint256",
        "label": "mapping(uint256 => string)",
        "numberOfBytes": "32",
        "value": "t_string_storage"
      },
      "t_mapping(t_uint256,t_struct(Bid)14750_storage)": {
        "encoding": "mapping",
        "key": "t_uint256",
        "label": "mapping(uint256 => struct TellerV2Storage_G0.Bid)",
        "numberOfBytes": "32",
        "value": "t_struct(Bid)14750_storage"
      },
      "t_mapping(t_uint256,t_uint32)": {
        "encoding": "mapping",
        "key": "t_uint256",
        "label": "mapping(uint256 => uint32)",
        "numberOfBytes": "32",
        "value": "t_uint32"
      },
      "t_string_storage": {
        "encoding": "bytes",
        "label": "string",
        "numberOfBytes": "32"
      },
      "t_struct(AddressSet)7277_storage": {
        "encoding": "inplace",
        "label": "struct EnumerableSet.AddressSet",
        "members": [
          {
            "astId": 7276,
            "contract": "contracts/TellerV2.sol:TellerV2",
            "label": "_inner",
            "offset": 0,
            "slot": "0",
            "type": "t_struct(Set)6976_storage"
          }
        ],
        "numberOfBytes": "64"
      },
      "t_struct(Bid)14750_storage": {
        "encoding": "inplace",
        "label": "struct TellerV2Storage_G0.Bid",
        "members": [
          {
            "astId": 14729,
            "contract": "contracts/TellerV2.sol:TellerV2",
            "label": "borrower",
            "offset": 0,
            "slot": "0",
            "type": "t_address"
          },
          {
            "astId": 14731,
            "contract": "contracts/TellerV2.sol:TellerV2",
            "label": "receiver",
            "offset": 0,
            "slot": "1",
            "type": "t_address"
          },
          {
            "astId": 14733,
            "contract": "contracts/TellerV2.sol:TellerV2",
            "label": "lender",
            "offset": 0,
            "slot": "2",
            "type": "t_address"
          },
          {
            "astId": 14735,
            "contract": "contracts/TellerV2.sol:TellerV2",
            "label": "marketplaceId",
            "offset": 0,
            "slot": "3",
            "type": "t_uint256"
          },
          {
            "astId": 14737,
            "contract": "contracts/TellerV2.sol:TellerV2",
            "label": "_metadataURI",
            "offset": 0,
            "slot": "4",
            "type": "t_bytes32"
          },
          {
            "astId": 14740,
            "contract": "contracts/TellerV2.sol:TellerV2",
            "label": "loanDetails",
            "offset": 0,
            "slot": "5",
            "type": "t_struct(LoanDetails)14727_storage"
          },
          {
            "astId": 14743,
            "contract": "contracts/TellerV2.sol:TellerV2",
            "label": "terms",
            "offset": 0,
            "slot": "10",
            "type": "t_struct(Terms)14757_storage"
          },
          {
            "astId": 14746,
            "contract": "contracts/TellerV2.sol:TellerV2",
            "label": "state",
            "offset": 0,
            "slot": "12",
            "type": "t_enum(BidState)14705"
          },
          {
            "astId": 14749,
            "contract": "contracts/TellerV2.sol:TellerV2",
            "label": "paymentType",
            "offset": 1,
            "slot": "12",
            "type": "t_enum(PaymentType)13699"
          }
        ],
        "numberOfBytes": "416"
      },
      "t_struct(LoanDetails)14727_storage": {
        "encoding": "inplace",
        "label": "struct TellerV2Storage_G0.LoanDetails",
        "members": [
          {
            "astId": 14713,
            "contract": "contracts/TellerV2.sol:TellerV2",
            "label": "lendingToken",
            "offset": 0,
            "slot": "0",
            "type": "t_contract(ERC20)3763"
          },
          {
            "astId": 14715,
            "contract": "contracts/TellerV2.sol:TellerV2",
            "label": "principal",
            "offset": 0,
            "slot": "1",
            "type": "t_uint256"
          },
          {
            "astId": 14718,
            "contract": "contracts/TellerV2.sol:TellerV2",
            "label": "totalRepaid",
            "offset": 0,
            "slot": "2",
            "type": "t_struct(Payment)14710_storage"
          },
          {
            "astId": 14720,
            "contract": "contracts/TellerV2.sol:TellerV2",
            "label": "timestamp",
            "offset": 0,
            "slot": "4",
            "type": "t_uint32"
          },
          {
            "astId": 14722,
            "contract": "contracts/TellerV2.sol:TellerV2",
            "label": "acceptedTimestamp",
            "offset": 4,
            "slot": "4",
            "type": "t_uint32"
          },
          {
            "astId": 14724,
            "contract": "contracts/TellerV2.sol:TellerV2",
            "label": "lastRepaidTimestamp",
            "offset": 8,
            "slot": "4",
            "type": "t_uint32"
          },
          {
            "astId": 14726,
            "contract": "contracts/TellerV2.sol:TellerV2",
            "label": "loanDuration",
            "offset": 12,
            "slot": "4",
            "type": "t_uint32"
          }
        ],
        "numberOfBytes": "160"
      },
      "t_struct(Payment)14710_storage": {
        "encoding": "inplace",
        "label": "struct TellerV2Storage_G0.Payment",
        "members": [
          {
            "astId": 14707,
            "contract": "contracts/TellerV2.sol:TellerV2",
            "label": "principal",
            "offset": 0,
            "slot": "0",
            "type": "t_uint256"
          },
          {
            "astId": 14709,
            "contract": "contracts/TellerV2.sol:TellerV2",
            "label": "interest",
            "offset": 0,
            "slot": "1",
            "type": "t_uint256"
          }
        ],
        "numberOfBytes": "64"
      },
      "t_struct(Set)6976_storage": {
        "encoding": "inplace",
        "label": "struct EnumerableSet.Set",
        "members": [
          {
            "astId": 6971,
            "contract": "contracts/TellerV2.sol:TellerV2",
            "label": "_values",
            "offset": 0,
            "slot": "0",
            "type": "t_array(t_bytes32)dyn_storage"
          },
          {
            "astId": 6975,
            "contract": "contracts/TellerV2.sol:TellerV2",
            "label": "_indexes",
            "offset": 0,
            "slot": "1",
            "type": "t_mapping(t_bytes32,t_uint256)"
          }
        ],
        "numberOfBytes": "64"
      },
      "t_struct(Terms)14757_storage": {
        "encoding": "inplace",
        "label": "struct TellerV2Storage_G0.Terms",
        "members": [
          {
            "astId": 14752,
            "contract": "contracts/TellerV2.sol:TellerV2",
            "label": "paymentCycleAmount",
            "offset": 0,
            "slot": "0",
            "type": "t_uint256"
          },
          {
            "astId": 14754,
            "contract": "contracts/TellerV2.sol:TellerV2",
            "label": "paymentCycle",
            "offset": 0,
            "slot": "1",
            "type": "t_uint32"
          },
          {
            "astId": 14756,
            "contract": "contracts/TellerV2.sol:TellerV2",
            "label": "APR",
            "offset": 4,
            "slot": "1",
            "type": "t_uint16"
          }
        ],
        "numberOfBytes": "64"
      },
      "t_struct(UintSet)7434_storage": {
        "encoding": "inplace",
        "label": "struct EnumerableSet.UintSet",
        "members": [
          {
            "astId": 7433,
            "contract": "contracts/TellerV2.sol:TellerV2",
            "label": "_inner",
            "offset": 0,
            "slot": "0",
            "type": "t_struct(Set)6976_storage"
          }
        ],
        "numberOfBytes": "64"
      },
      "t_uint16": {
        "encoding": "inplace",
        "label": "uint16",
        "numberOfBytes": "2"
      },
      "t_uint256": {
        "encoding": "inplace",
        "label": "uint256",
        "numberOfBytes": "32"
      },
      "t_uint32": {
        "encoding": "inplace",
        "label": "uint32",
        "numberOfBytes": "4"
      }
    }
  }
}