{
  "address": "0xAd0fD5947877382E493e17Fb37303D94c4A1deEF",
  "abi": [
    {
      "inputs": [
        {
          "internalType": "uint32",
          "name": "_acceptedTimestamp",
          "type": "uint32"
        },
        {
          "internalType": "uint32",
          "name": "_paymentCycle",
          "type": "uint32"
        },
        {
          "internalType": "uint32",
          "name": "_loanDuration",
          "type": "uint32"
        },
        {
          "internalType": "uint32",
          "name": "_lastRepaidTimestamp",
          "type": "uint32"
        },
        {
          "internalType": "enum PaymentCycleType",
          "name": "_bidPaymentCycleType",
          "type": "PaymentCycleType"
        }
      ],
      "name": "calculateNextDueDate",
      "outputs": [
        {
          "internalType": "uint32",
          "name": "dueDate_",
          "type": "uint32"
        }
      ],
      "stateMutability": "view",
      "type": "function"
    },
    {
      "inputs": [
        {
          "internalType": "enum PaymentType",
          "name": "_type",
          "type": "PaymentType"
        },
        {
          "internalType": "enum PaymentCycleType",
          "name": "_cycleType",
          "type": "PaymentCycleType"
        },
        {
          "internalType": "uint256",
          "name": "_principal",
          "type": "uint256"
        },
        {
          "internalType": "uint32",
          "name": "_duration",
          "type": "uint32"
        },
        {
          "internalType": "uint32",
          "name": "_paymentCycle",
          "type": "uint32"
        },
        {
          "internalType": "uint16",
          "name": "_apr",
          "type": "uint16"
        }
      ],
      "name": "calculatePaymentCycleAmount",
      "outputs": [
        {
          "internalType": "uint256",
          "name": "",
          "type": "uint256"
        }
      ],
      "stateMutability": "view",
      "type": "function"
    }
  ],
  "transactionHash": "0x102e87813d60bf992e49fc28b44888df5062ce6be7ce8e49a383a40a32fcf9f7",
  "args": [],
  "numDeployments": 6,
  "solcInputHash": "fda2ec31b4234f11c5d21e351a4ace99",
  "bytecode": "0x61139261003a600b82828239805160001a60731461002d57634e487b7160e01b600052600060045260246000fd5b30600052607381538281f3fe73000000000000000000000000000000000000000030146080604052600436106100555760003560e01c80628945b51461005a5780630dcf1658146100805780635ab17296146100a8578063e4de10d3146100d6575b600080fd5b61006d610068366004610e66565b6100e9565b6040519081526020015b60405180910390f35b61009361008e366004610ee2565b610187565b60405163ffffffff9091168152602001610077565b6100bb6100b6366004610f4b565b6102bd565b60408051938452602084019290925290820152606001610077565b6100bb6100e4366004610f9d565b6104a8565b600080600187600181111561010057610100610fe5565b1461010f576301e13380610115565b6301da9c005b63ffffffff169050600188600181111561013157610131610fe5565b141561016c5761016461015163ffffffff808716908490600a906104d816565b600a61015d898761050f565b919061052a565b91505061017d565b610179868686868561053f565b9150505b9695505050505050565b6000600182600181111561019d5761019d610fe5565b14156102195760006101bb8763ffffffff168563ffffffff16610674565b90506101cc8763ffffffff166106fb565b6101db8563ffffffff166106fb565b11156101f3576101ec600282611011565b9050610201565b6101fe600182611011565b90505b6102118763ffffffff1682610715565b91505061028d565b600082600181111561022d5761022d610fe5565b141561028d5761023d8587611029565b9050600061024b8785611051565b905063ffffffff81161561028b5760006102718263ffffffff168863ffffffff166107e7565b905061027d8782611076565b6102879084611029565b9250505b505b60006102998588611029565b90508063ffffffff168263ffffffff1611156102b3578091505b5095945050505050565b60078501546006860154600091829182916102d7916110a2565b925060006102e588886110a2565b9050600060018760018111156102fd576102fd610fe5565b1461030c576301e13380610312565b6301da9c005b600b8b015463ffffffff918216925060009161034191889164010000000090910461ffff169060029061052a16565b90508161034e84836110b9565b61035891906110ee565b60098c01549094506000925082915061037f908890600160601b900463ffffffff16611102565b63ffffffff16905080610395575063ffffffff86165b60098b01546000906103be9063ffffffff600160601b8204811691640100000000900416611011565b905060006103cc83836110a2565b9050808b11806103e95750600a8d01546103e6878a611011565b11155b9350600192506103f7915050565b600c8b0154610100900460ff16600181111561041557610415610fe5565b141561042a578015610425578493505b61049b565b60006104688763ffffffff16848d600a016000015461044991906110b9565b61045391906110ee565b600a8d0154610463908790611011565b61081e565b90506000826104775781610481565b6104818588611011565b905061049661049086836110a2565b8861081e565b955050505b5050955095509592505050565b60008060006104c8876104ba89610834565b63ffffffff168888886102bd565b9250925092509450945094915050565b6000826104e757506000610508565b826104f18361087b565b6104fb90866110b9565b61050591906110ee565b90505b9392505050565b6000610521838361ffff16600261052a565b90505b92915050565b60006105358261087b565b6104fb84866110b9565b60008363ffffffff168563ffffffff1610156105ad5760405162461bcd60e51b815260206004820152602360248201527f504d543a206379636c65206475726174696f6e203c206c6f616e20647572617460448201526234b7b760e91b606482015260840160405180910390fd5b61ffff83166105d6576105cf868563ffffffff168763ffffffff166001610893565b905061066b565b60006105ee8663ffffffff168663ffffffff166107e7565b9050670de0b6b3a7640000600061061e8561061863ffffffff8a166106128a6108e4565b90610908565b9061093c565b90506000610636846106308486611011565b9061096c565b90506000610648826106128d86610908565b9050600061065685846110a2565b9050610662828261093c565b96505050505050505b95945050505050565b60008183111561068357600080fd5b60008061069b61069662015180876110ee565b610984565b5090925090506000806106b461069662015180886110ee565b509092509050826106c685600c6110b9565b826106d285600c6110b9565b6106dc9190611011565b6106e691906110a2565b6106f091906110a2565b979650505050505050565b600061070d61069662015180846110ee565b949350505050565b600080808061072a61069662015180886110ee565b9194509250905061073b8583611011565b9150600c61074a6001846110a2565b61075491906110ee565b61075e9084611011565b9250600c61076d6001846110a2565b6107779190611125565b610782906001611011565b915060006107908484610af8565b90508082111561079e578091505b6107ab6201518088611125565b620151806107ba868686610b7e565b6107c491906110b9565b6107ce9190611011565b9450868510156107dd57600080fd5b5050505092915050565b6000821561081557816107fb6001856110a2565b61080591906110ee565b610810906001611011565b610521565b50600092915050565b600081831061082d5781610521565b5090919050565b6009810154600090600160401b900463ffffffff1615610865576009820154600160401b900463ffffffff16610524565b5060090154640100000000900463ffffffff1690565b600061088882600a61121d565b6105249060646110b9565b6000806108a1868686610cbb565b905060018360028111156108b7576108b7610fe5565b1480156108d45750600084806108cf576108cf6110d8565b868809115b1561066b5761017d600182611011565b600061052461271061090261ffff8516670de0b6b3a7640000610d6b565b90610d77565b6000610521670de0b6b3a76400006109026109238686610d6b565b6109366002670de0b6b3a76400006110ee565b90610d83565b60008061094a6002846110ee565b905061070d8361090261096587670de0b6b3a7640000610d6b565b8490610d83565b60006105218383670de0b6b3a7640000610908610d8f565b60008080838162253d8c61099b8362010bd9611229565b6109a59190611229565b9050600062023ab16109b883600461126a565b6109c291906112ef565b905060046109d38262023ab161126a565b6109de906003611229565b6109e891906112ef565b6109f2908361131d565b9150600062164b09610a05846001611229565b610a1190610fa061126a565b610a1b91906112ef565b90506004610a2b826105b561126a565b610a3591906112ef565b610a3f908461131d565b610a4a90601f611229565b9250600061098f610a5c85605061126a565b610a6691906112ef565b905060006050610a788361098f61126a565b610a8291906112ef565b610a8c908661131d565b9050610a99600b836112ef565b9450610aa685600c61126a565b610ab1836002611229565b610abb919061131d565b91508483610aca60318761131d565b610ad590606461126a565b610adf9190611229565b610ae99190611229565b9a919950975095505050505050565b60008160011480610b095750816003145b80610b145750816005145b80610b1f5750816007145b80610b2a5750816008145b80610b35575081600a145b80610b40575081600c145b15610b4d5750601f610524565b81600214610b5d5750601e610524565b610b6683610e01565b610b7157601c610b74565b601d5b60ff169392505050565b60006107b2841015610b8f57600080fd5b838383600062253d8c60046064600c610ba9600e8861131d565b610bb391906112ef565b610bbf88611324611229565b610bc99190611229565b610bd391906112ef565b610bde90600361126a565b610be891906112ef565b600c80610bf6600e8861131d565b610c0091906112ef565b610c0b90600c61126a565b610c1660028861131d565b610c20919061131d565b610c2c9061016f61126a565b610c3691906112ef565b6004600c610c45600e8961131d565b610c4f91906112ef565b610c5b896112c0611229565b610c659190611229565b610c71906105b561126a565b610c7b91906112ef565b610c87617d4b8761131d565b610c919190611229565b610c9b9190611229565b610ca5919061131d565b610caf919061131d565b98975050505050505050565b600080806000198587098587029250828110838203039150508060001415610cf657838281610cec57610cec6110d8565b0492505050610508565b808411610d0257600080fd5b60008486880960026001871981018816978890046003810283188082028403028082028403028082028403028082028403028082028403029081029092039091026000889003889004909101858311909403939093029303949094049190911702949350505050565b600061052182846110b9565b600061052182846110ee565b60006105218284611011565b6000610d9c600285611125565b610da65782610da8565b845b9050610db56002856110ee565b93505b831561070d57610dcc85868463ffffffff16565b9450610dd9600285611125565b15610def57610dec81868463ffffffff16565b90505b610dfa6002856110ee565b9350610db8565b6000610e0e600483611125565b158015610e245750610e21606483611125565b15155b806105245750610e3661019083611125565b1592915050565b60028110610e4a57600080fd5b50565b803563ffffffff81168114610e6157600080fd5b919050565b60008060008060008060c08789031215610e7f57600080fd5b8635610e8a81610e3d565b95506020870135610e9a81610e3d565b945060408701359350610eaf60608801610e4d565b9250610ebd60808801610e4d565b915060a087013561ffff81168114610ed457600080fd5b809150509295509295509295565b600080600080600060a08688031215610efa57600080fd5b610f0386610e4d565b9450610f1160208701610e4d565b9350610f1f60408701610e4d565b9250610f2d60608701610e4d565b91506080860135610f3d81610e3d565b809150509295509295909350565b600080600080600060a08688031215610f6357600080fd5b8535945060208601359350604086013592506060860135610f8381610e3d565b9150610f9160808701610e4d565b90509295509295909350565b60008060008060808587031215610fb357600080fd5b84359350602085013592506040850135610fcc81610e3d565b9150610fda60608601610e4d565b905092959194509250565b634e487b7160e01b600052602160045260246000fd5b634e487b7160e01b600052601160045260246000fd5b6000821982111561102457611024610ffb565b500190565b600063ffffffff80831681851680830382111561104857611048610ffb565b01949350505050565b600063ffffffff8381169083168181101561106e5761106e610ffb565b039392505050565b600063ffffffff8083168185168183048111821515161561109957611099610ffb565b02949350505050565b6000828210156110b4576110b4610ffb565b500390565b60008160001904831182151516156110d3576110d3610ffb565b500290565b634e487b7160e01b600052601260045260246000fd5b6000826110fd576110fd6110d8565b500490565b600063ffffffff80841680611119576111196110d8565b92169190910692915050565b600082611134576111346110d8565b500690565b600181815b8085111561117457816000190482111561115a5761115a610ffb565b8085161561116757918102915b93841c939080029061113e565b509250929050565b60008261118b57506001610524565b8161119857506000610524565b81600181146111ae57600281146111b8576111d4565b6001915050610524565b60ff8411156111c9576111c9610ffb565b50506001821b610524565b5060208310610133831016604e8410600b84101617156111f7575081810a610524565b6112018383611139565b806000190482111561121557611215610ffb565b029392505050565b6000610521838361117c565b600080821280156001600160ff1b038490038513161561124b5761124b610ffb565b600160ff1b839003841281161561126457611264610ffb565b50500190565b60006001600160ff1b038184138284138082168684048611161561129057611290610ffb565b600160ff1b60008712828116878305891216156112af576112af610ffb565b600087129250878205871284841616156112cb576112cb610ffb565b878505871281841616156112e1576112e1610ffb565b505050929093029392505050565b6000826112fe576112fe6110d8565b600160ff1b82146000198414161561131857611318610ffb565b500590565b60008083128015600160ff1b85018412161561133b5761133b610ffb565b6001600160ff1b038401831381161561135657611356610ffb565b5050039056fea2646970667358221220919c19a319e330785d342ba3bd86c1c2afc39a749a6d2df82516d60bb3b0063d64736f6c63430008090033",
  "devdoc": {
    "kind": "dev",
    "methods": {
      "calculateAmountOwed(Bid storage,uint256,PaymentCycleType,uint32)": {
        "params": {
          "_bid": "The loan bid struct to get the owed amount for.",
          "_paymentCycleType": "The payment cycle type of the loan (Seconds or Monthly).",
          "_timestamp": "The timestamp at which to get the owed amount at."
        }
      },
      "calculatePaymentCycleAmount(PaymentType,PaymentCycleType,uint256,uint32,uint32,uint16)": {
        "params": {
          "_apr": "The annual percentage rate of the loan.",
          "_cycleType": "The cycle type set for the loan. (Seconds or Monthly)",
          "_duration": "The length of the loan.",
          "_paymentCycle": "The length of the loan's payment cycle.",
          "_principal": "The starting amount that is owed on the loan.",
          "_type": "The payment type of the loan."
        }
      }
    },
    "version": 1
  },
  "userdoc": {
    "kind": "user",
    "methods": {
      "calculateAmountOwed(Bid storage,uint256,PaymentCycleType,uint32)": {
        "notice": "Calculates the amount owed for a loan."
      },
      "calculatePaymentCycleAmount(PaymentType,PaymentCycleType,uint256,uint32,uint32,uint16)": {
        "notice": "Calculates the amount owed for a loan for the next payment cycle."
      }
    },
    "version": 1
  },
  "storageLayout": {
    "storage": [],
    "types": null
  }
}