{
  "abi": [
    {
      "inputs": [
        {
          "internalType": "uint224",
          "name": "_supplyCap",
          "type": "uint224"
        },
        {
          "internalType": "address",
          "name": "tokenOwner",
          "type": "address"
        }
      ],
      "stateMutability": "nonpayable",
      "type": "constructor"
    },
    {
      "anonymous": false,
      "inputs": [
        {
          "indexed": true,
          "internalType": "address",
          "name": "owner",
          "type": "address"
        },
        {
          "indexed": true,
          "internalType": "address",
          "name": "spender",
          "type": "address"
        },
        {
          "indexed": false,
          "internalType": "uint256",
          "name": "value",
          "type": "uint256"
        }
      ],
      "name": "Approval",
      "type": "event"
    },
    {
      "anonymous": false,
      "inputs": [
        {
          "indexed": true,
          "internalType": "address",
          "name": "delegator",
          "type": "address"
        },
        {
          "indexed": true,
          "internalType": "address",
          "name": "fromDelegate",
          "type": "address"
        },
        {
          "indexed": true,
          "internalType": "address",
          "name": "toDelegate",
          "type": "address"
        }
      ],
      "name": "DelegateChanged",
      "type": "event"
    },
    {
      "anonymous": false,
      "inputs": [
        {
          "indexed": true,
          "internalType": "address",
          "name": "delegate",
          "type": "address"
        },
        {
          "indexed": false,
          "internalType": "uint256",
          "name": "previousBalance",
          "type": "uint256"
        },
        {
          "indexed": false,
          "internalType": "uint256",
          "name": "newBalance",
          "type": "uint256"
        }
      ],
      "name": "DelegateVotesChanged",
      "type": "event"
    },
    {
      "anonymous": false,
      "inputs": [
        {
          "indexed": true,
          "internalType": "address",
          "name": "previousOwner",
          "type": "address"
        },
        {
          "indexed": true,
          "internalType": "address",
          "name": "newOwner",
          "type": "address"
        }
      ],
      "name": "OwnershipTransferred",
      "type": "event"
    },
    {
      "anonymous": false,
      "inputs": [
        {
          "indexed": true,
          "internalType": "address",
          "name": "from",
          "type": "address"
        },
        {
          "indexed": true,
          "internalType": "address",
          "name": "to",
          "type": "address"
        },
        {
          "indexed": false,
          "internalType": "uint256",
          "name": "value",
          "type": "uint256"
        }
      ],
      "name": "Transfer",
      "type": "event"
    },
    {
      "inputs": [],
      "name": "DOMAIN_SEPARATOR",
      "outputs": [
        {
          "internalType": "bytes32",
          "name": "",
          "type": "bytes32"
        }
      ],
      "stateMutability": "view",
      "type": "function"
    },
    {
      "inputs": [
        {
          "internalType": "address",
          "name": "owner",
          "type": "address"
        },
        {
          "internalType": "address",
          "name": "spender",
          "type": "address"
        }
      ],
      "name": "allowance",
      "outputs": [
        {
          "internalType": "uint256",
          "name": "",
          "type": "uint256"
        }
      ],
      "stateMutability": "view",
      "type": "function"
    },
    {
      "inputs": [
        {
          "internalType": "address",
          "name": "spender",
          "type": "address"
        },
        {
          "internalType": "uint256",
          "name": "amount",
          "type": "uint256"
        }
      ],
      "name": "approve",
      "outputs": [
        {
          "internalType": "bool",
          "name": "",
          "type": "bool"
        }
      ],
      "stateMutability": "nonpayable",
      "type": "function"
    },
    {
      "inputs": [
        {
          "internalType": "address",
          "name": "account",
          "type": "address"
        }
      ],
      "name": "balanceOf",
      "outputs": [
        {
          "internalType": "uint256",
          "name": "",
          "type": "uint256"
        }
      ],
      "stateMutability": "view",
      "type": "function"
    },
    {
      "inputs": [
        {
          "internalType": "address",
          "name": "account",
          "type": "address"
        },
        {
          "internalType": "uint256",
          "name": "amount",
          "type": "uint256"
        }
      ],
      "name": "burn",
      "outputs": [],
      "stateMutability": "nonpayable",
      "type": "function"
    },
    {
      "inputs": [
        {
          "internalType": "address",
          "name": "account",
          "type": "address"
        },
        {
          "internalType": "uint32",
          "name": "pos",
          "type": "uint32"
        }
      ],
      "name": "checkpoints",
      "outputs": [
        {
          "components": [
            {
              "internalType": "uint32",
              "name": "fromBlock",
              "type": "uint32"
            },
            {
              "internalType": "uint224",
              "name": "votes",
              "type": "uint224"
            }
          ],
          "internalType": "struct ERC20Votes.Checkpoint",
          "name": "",
          "type": "tuple"
        }
      ],
      "stateMutability": "view",
      "type": "function"
    },
    {
      "inputs": [],
      "name": "decimals",
      "outputs": [
        {
          "internalType": "uint8",
          "name": "",
          "type": "uint8"
        }
      ],
      "stateMutability": "view",
      "type": "function"
    },
    {
      "inputs": [
        {
          "internalType": "address",
          "name": "spender",
          "type": "address"
        },
        {
          "internalType": "uint256",
          "name": "subtractedValue",
          "type": "uint256"
        }
      ],
      "name": "decreaseAllowance",
      "outputs": [
        {
          "internalType": "bool",
          "name": "",
          "type": "bool"
        }
      ],
      "stateMutability": "nonpayable",
      "type": "function"
    },
    {
      "inputs": [
        {
          "internalType": "address",
          "name": "delegatee",
          "type": "address"
        }
      ],
      "name": "delegate",
      "outputs": [],
      "stateMutability": "nonpayable",
      "type": "function"
    },
    {
      "inputs": [
        {
          "internalType": "address",
          "name": "delegatee",
          "type": "address"
        },
        {
          "internalType": "uint256",
          "name": "nonce",
          "type": "uint256"
        },
        {
          "internalType": "uint256",
          "name": "expiry",
          "type": "uint256"
        },
        {
          "internalType": "uint8",
          "name": "v",
          "type": "uint8"
        },
        {
          "internalType": "bytes32",
          "name": "r",
          "type": "bytes32"
        },
        {
          "internalType": "bytes32",
          "name": "s",
          "type": "bytes32"
        }
      ],
      "name": "delegateBySig",
      "outputs": [],
      "stateMutability": "nonpayable",
      "type": "function"
    },
    {
      "inputs": [
        {
          "internalType": "address",
          "name": "account",
          "type": "address"
        }
      ],
      "name": "delegates",
      "outputs": [
        {
          "internalType": "address",
          "name": "",
          "type": "address"
        }
      ],
      "stateMutability": "view",
      "type": "function"
    },
    {
      "inputs": [
        {
          "internalType": "uint256",
          "name": "blockNumber",
          "type": "uint256"
        }
      ],
      "name": "getPastTotalSupply",
      "outputs": [
        {
          "internalType": "uint256",
          "name": "",
          "type": "uint256"
        }
      ],
      "stateMutability": "view",
      "type": "function"
    },
    {
      "inputs": [
        {
          "internalType": "address",
          "name": "account",
          "type": "address"
        },
        {
          "internalType": "uint256",
          "name": "blockNumber",
          "type": "uint256"
        }
      ],
      "name": "getPastVotes",
      "outputs": [
        {
          "internalType": "uint256",
          "name": "",
          "type": "uint256"
        }
      ],
      "stateMutability": "view",
      "type": "function"
    },
    {
      "inputs": [
        {
          "internalType": "address",
          "name": "account",
          "type": "address"
        }
      ],
      "name": "getVotes",
      "outputs": [
        {
          "internalType": "uint256",
          "name": "",
          "type": "uint256"
        }
      ],
      "stateMutability": "view",
      "type": "function"
    },
    {
      "inputs": [
        {
          "internalType": "address",
          "name": "spender",
          "type": "address"
        },
        {
          "internalType": "uint256",
          "name": "addedValue",
          "type": "uint256"
        }
      ],
      "name": "increaseAllowance",
      "outputs": [
        {
          "internalType": "bool",
          "name": "",
          "type": "bool"
        }
      ],
      "stateMutability": "nonpayable",
      "type": "function"
    },
    {
      "inputs": [
        {
          "internalType": "address",
          "name": "account",
          "type": "address"
        },
        {
          "internalType": "uint256",
          "name": "amount",
          "type": "uint256"
        }
      ],
      "name": "mint",
      "outputs": [],
      "stateMutability": "nonpayable",
      "type": "function"
    },
    {
      "inputs": [],
      "name": "name",
      "outputs": [
        {
          "internalType": "string",
          "name": "",
          "type": "string"
        }
      ],
      "stateMutability": "view",
      "type": "function"
    },
    {
      "inputs": [
        {
          "internalType": "address",
          "name": "owner",
          "type": "address"
        }
      ],
      "name": "nonces",
      "outputs": [
        {
          "internalType": "uint256",
          "name": "",
          "type": "uint256"
        }
      ],
      "stateMutability": "view",
      "type": "function"
    },
    {
      "inputs": [
        {
          "internalType": "address",
          "name": "account",
          "type": "address"
        }
      ],
      "name": "numCheckpoints",
      "outputs": [
        {
          "internalType": "uint32",
          "name": "",
          "type": "uint32"
        }
      ],
      "stateMutability": "view",
      "type": "function"
    },
    {
      "inputs": [],
      "name": "owner",
      "outputs": [
        {
          "internalType": "address",
          "name": "",
          "type": "address"
        }
      ],
      "stateMutability": "view",
      "type": "function"
    },
    {
      "inputs": [
        {
          "internalType": "address",
          "name": "owner",
          "type": "address"
        },
        {
          "internalType": "address",
          "name": "spender",
          "type": "address"
        },
        {
          "internalType": "uint256",
          "name": "value",
          "type": "uint256"
        },
        {
          "internalType": "uint256",
          "name": "deadline",
          "type": "uint256"
        },
        {
          "internalType": "uint8",
          "name": "v",
          "type": "uint8"
        },
        {
          "internalType": "bytes32",
          "name": "r",
          "type": "bytes32"
        },
        {
          "internalType": "bytes32",
          "name": "s",
          "type": "bytes32"
        }
      ],
      "name": "permit",
      "outputs": [],
      "stateMutability": "nonpayable",
      "type": "function"
    },
    {
      "inputs": [],
      "name": "renounceOwnership",
      "outputs": [],
      "stateMutability": "nonpayable",
      "type": "function"
    },
    {
      "inputs": [],
      "name": "symbol",
      "outputs": [
        {
          "internalType": "string",
          "name": "",
          "type": "string"
        }
      ],
      "stateMutability": "view",
      "type": "function"
    },
    {
      "inputs": [],
      "name": "totalSupply",
      "outputs": [
        {
          "internalType": "uint256",
          "name": "",
          "type": "uint256"
        }
      ],
      "stateMutability": "view",
      "type": "function"
    },
    {
      "inputs": [
        {
          "internalType": "address",
          "name": "to",
          "type": "address"
        },
        {
          "internalType": "uint256",
          "name": "amount",
          "type": "uint256"
        }
      ],
      "name": "transfer",
      "outputs": [
        {
          "internalType": "bool",
          "name": "",
          "type": "bool"
        }
      ],
      "stateMutability": "nonpayable",
      "type": "function"
    },
    {
      "inputs": [
        {
          "internalType": "address",
          "name": "from",
          "type": "address"
        },
        {
          "internalType": "address",
          "name": "to",
          "type": "address"
        },
        {
          "internalType": "uint256",
          "name": "amount",
          "type": "uint256"
        }
      ],
      "name": "transferFrom",
      "outputs": [
        {
          "internalType": "bool",
          "name": "",
          "type": "bool"
        }
      ],
      "stateMutability": "nonpayable",
      "type": "function"
    },
    {
      "inputs": [
        {
          "internalType": "address",
          "name": "newOwner",
          "type": "address"
        }
      ],
      "name": "transferOwnership",
      "outputs": [],
      "stateMutability": "nonpayable",
      "type": "function"
    }
  ],
  "bytecode": {
    "object": "0x6101606040523480156200001257600080fd5b50604051620023be380380620023be83398101604081905262000035916200023e565b604051806040016040528060068152602001652a32b63632b960d11b81525080604051806040016040528060018152602001603160f81b815250604051806040016040528060068152602001652a32b63632b960d11b815250604051806040016040528060038152602001622a262960e91b8152508160039081620000bb919062000338565b506004620000ca828262000338565b5050825160209384012082519284019290922060e08390526101008190524660a0818152604080517f8b73c3c69bb8fe3d512ecc4cf759cc79239f7b179b0ffacaa9a75d522b39400f818901819052818301979097526060810194909452608080850193909352308483018190528151808603909301835260c094850190915281519190960120905292909252610120525062000169905033620001ec565b6000826001600160e01b031611620001c75760405162461bcd60e51b815260206004820152601560248201527f45524332304361707065643a2063617020697320300000000000000000000000604482015260640160405180910390fd5b6001600160e01b0380831661014052620001e4908290620001ec16565b505062000404565b600a80546001600160a01b038381166001600160a01b0319831681179093556040519116919082907f8be0079c531659141344cd1fd0a4f28419497f9722a3daafe3b4186f6b6457e090600090a35050565b600080604083850312156200025257600080fd5b82516001600160e01b03811681146200026a57600080fd5b60208401519092506001600160a01b03811681146200028857600080fd5b809150509250929050565b634e487b7160e01b600052604160045260246000fd5b600181811c90821680620002be57607f821691505b602082108103620002df57634e487b7160e01b600052602260045260246000fd5b50919050565b601f8211156200033357600081815260208120601f850160051c810160208610156200030e5750805b601f850160051c820191505b818110156200032f578281556001016200031a565b5050505b505050565b81516001600160401b0381111562000354576200035462000293565b6200036c81620003658454620002a9565b84620002e5565b602080601f831160018114620003a457600084156200038b5750858301515b600019600386901b1c1916600185901b1785556200032f565b600085815260208120601f198616915b82811015620003d557888601518255948401946001909101908401620003b4565b5085821015620003f45787850151600019600388901b60f8161c191681555b5050505050600190811b01905550565b60805160a05160c05160e051610100516101205161014051611f5f6200045f600039600061112901526000610f6901526000610fb801526000610f9301526000610eec01526000610f1601526000610f400152611f5f6000f3fe608060405234801561001057600080fd5b50600436106101a95760003560e01c8063715018a6116100f9578063a457c2d711610097578063d505accf11610071578063d505accf146103b4578063dd62ed3e146103c7578063f1127ed8146103da578063f2fde38b1461041757600080fd5b8063a457c2d71461037b578063a9059cbb1461038e578063c3cda520146103a157600080fd5b80638e539e8c116100d35780638e539e8c1461033a57806395d89b411461034d5780639ab24eb0146103555780639dc29fac1461036857600080fd5b8063715018a61461030e5780637ecebe00146103165780638da5cb5b1461032957600080fd5b80633950935111610166578063587cde1e11610140578063587cde1e146102665780635c19a95c146102aa5780636fcfff45146102bd57806370a08231146102e557600080fd5b8063395093511461022b5780633a46b1a81461023e57806340c10f191461025157600080fd5b806306fdde03146101ae578063095ea7b3146101cc57806318160ddd146101ef57806323b872dd14610201578063313ce567146102145780633644e51514610223575b600080fd5b6101b661042a565b6040516101c39190611c21565b60405180910390f35b6101df6101da366004611c8b565b6104bc565b60405190151581526020016101c3565b6002545b6040519081526020016101c3565b6101df61020f366004611cb5565b6104d6565b604051601281526020016101c3565b6101f36104fa565b6101df610239366004611c8b565b610509565b6101f361024c366004611c8b565b61052b565b61026461025f366004611c8b565b6105aa565b005b610292610274366004611cf1565b6001600160a01b039081166000908152600760205260409020541690565b6040516001600160a01b0390911681526020016101c3565b6102646102b8366004611cf1565b6105c0565b6102d06102cb366004611cf1565b6105cd565b60405163ffffffff90911681526020016101c3565b6101f36102f3366004611cf1565b6001600160a01b031660009081526020819052604090205490565b6102646105ef565b6101f3610324366004611cf1565b610603565b600a546001600160a01b0316610292565b6101f3610348366004611d0c565b610621565b6101b661067d565b6101f3610363366004611cf1565b61068c565b610264610376366004611c8b565b610713565b6101df610389366004611c8b565b610725565b6101df61039c366004611c8b565b6107a0565b6102646103af366004611d36565b6107ae565b6102646103c2366004611d8e565b6108e4565b6101f36103d5366004611df8565b610a48565b6103ed6103e8366004611e2b565b610a73565b60408051825163ffffffff1681526020928301516001600160e01b031692810192909252016101c3565b610264610425366004611cf1565b610af7565b60606003805461043990611e6b565b80601f016020809104026020016040519081016040528092919081815260200182805461046590611e6b565b80156104b25780601f10610487576101008083540402835291602001916104b2565b820191906000526020600020905b81548152906001019060200180831161049557829003601f168201915b5050505050905090565b6000336104ca818585610b6d565b60019150505b92915050565b6000336104e4858285610c91565b6104ef858585610d0b565b506001949350505050565b6000610504610edf565b905090565b6000336104ca81858561051c8383610a48565b6105269190611eb5565b610b6d565b60004382106105815760405162461bcd60e51b815260206004820152601f60248201527f4552433230566f7465733a20626c6f636b206e6f7420796574206d696e65640060448201526064015b60405180910390fd5b6001600160a01b03831660009081526008602052604090206105a39083611006565b9392505050565b6105b26110c3565b6105bc828261111d565b5050565b6105ca33826111cf565b50565b6001600160a01b0381166000908152600860205260408120546104d090611248565b6105f76110c3565b61060160006112b1565b565b6001600160a01b0381166000908152600560205260408120546104d0565b60004382106106725760405162461bcd60e51b815260206004820152601f60248201527f4552433230566f7465733a20626c6f636b206e6f7420796574206d696e6564006044820152606401610578565b6104d0600983611006565b60606004805461043990611e6b565b6001600160a01b0381166000908152600860205260408120548015610700576001600160a01b03831660009081526008602052604090206106ce600183611ec8565b815481106106de576106de611edb565b60009182526020909120015464010000000090046001600160e01b0316610703565b60005b6001600160e01b03169392505050565b61071b6110c3565b6105bc8282611303565b600033816107338286610a48565b9050838110156107935760405162461bcd60e51b815260206004820152602560248201527f45524332303a2064656372656173656420616c6c6f77616e63652062656c6f77604482015264207a65726f60d81b6064820152608401610578565b6104ef8286868403610b6d565b6000336104ca818585610d0b565b834211156107fe5760405162461bcd60e51b815260206004820152601d60248201527f4552433230566f7465733a207369676e617475726520657870697265640000006044820152606401610578565b604080517fe48329057bfd03d55e49b547132e39cffd9c1820ad7b9d4c5307691425d15adf60208201526001600160a01b038816918101919091526060810186905260808101859052600090610878906108709060a0016040516020818303038152906040528051906020012061131b565b858585611369565b905061088381611391565b86146108d15760405162461bcd60e51b815260206004820152601960248201527f4552433230566f7465733a20696e76616c6964206e6f6e6365000000000000006044820152606401610578565b6108db81886111cf565b50505050505050565b834211156109345760405162461bcd60e51b815260206004820152601d60248201527f45524332305065726d69743a206578706972656420646561646c696e650000006044820152606401610578565b60007f6e71edae12b1b97f4d1f60370fef10105fa2faae0126114a169c64845d6126c98888886109638c611391565b6040805160208101969096526001600160a01b0394851690860152929091166060840152608083015260a082015260c0810186905260e00160405160208183030381529060405280519060200120905060006109be8261131b565b905060006109ce82878787611369565b9050896001600160a01b0316816001600160a01b031614610a315760405162461bcd60e51b815260206004820152601e60248201527f45524332305065726d69743a20696e76616c6964207369676e617475726500006044820152606401610578565b610a3c8a8a8a610b6d565b50505050505050505050565b6001600160a01b03918216600090815260016020908152604080832093909416825291909152205490565b60408051808201909152600080825260208201526001600160a01b0383166000908152600860205260409020805463ffffffff8416908110610ab757610ab7611edb565b60009182526020918290206040805180820190915291015463ffffffff8116825264010000000090046001600160e01b0316918101919091529392505050565b610aff6110c3565b6001600160a01b038116610b645760405162461bcd60e51b815260206004820152602660248201527f4f776e61626c653a206e6577206f776e657220697320746865207a65726f206160448201526564647265737360d01b6064820152608401610578565b6105ca816112b1565b6001600160a01b038316610bcf5760405162461bcd60e51b8152602060048201526024808201527f45524332303a20617070726f76652066726f6d20746865207a65726f206164646044820152637265737360e01b6064820152608401610578565b6001600160a01b038216610c305760405162461bcd60e51b815260206004820152602260248201527f45524332303a20617070726f766520746f20746865207a65726f206164647265604482015261737360f01b6064820152608401610578565b6001600160a01b0383811660008181526001602090815260408083209487168084529482529182902085905590518481527f8c5be1e5ebec7d5bd14f71427d1e84f3dd0314c0f7b2291e5b200ac8c7c3b925910160405180910390a3505050565b6000610c9d8484610a48565b90506000198114610d055781811015610cf85760405162461bcd60e51b815260206004820152601d60248201527f45524332303a20696e73756666696369656e7420616c6c6f77616e63650000006044820152606401610578565b610d058484848403610b6d565b50505050565b6001600160a01b038316610d6f5760405162461bcd60e51b815260206004820152602560248201527f45524332303a207472616e736665722066726f6d20746865207a65726f206164604482015264647265737360d81b6064820152608401610578565b6001600160a01b038216610dd15760405162461bcd60e51b815260206004820152602360248201527f45524332303a207472616e7366657220746f20746865207a65726f206164647260448201526265737360e81b6064820152608401610578565b6001600160a01b03831660009081526020819052604090205481811015610e495760405162461bcd60e51b815260206004820152602660248201527f45524332303a207472616e7366657220616d6f756e7420657863656564732062604482015265616c616e636560d01b6064820152608401610578565b6001600160a01b03808516600090815260208190526040808220858503905591851681529081208054849290610e80908490611eb5565b92505081905550826001600160a01b0316846001600160a01b03167fddf252ad1be2c89b69c2b068fc378daa952ba7f163c4a11628f55a4df523b3ef84604051610ecc91815260200190565b60405180910390a3610d058484846113be565b6000306001600160a01b037f000000000000000000000000000000000000000000000000000000000000000016148015610f3857507f000000000000000000000000000000000000000000000000000000000000000046145b15610f6257507f000000000000000000000000000000000000000000000000000000000000000090565b50604080517f00000000000000000000000000000000000000000000000000000000000000006020808301919091527f0000000000000000000000000000000000000000000000000000000000000000828401527f000000000000000000000000000000000000000000000000000000000000000060608301524660808301523060a0808401919091528351808403909101815260c0909201909252805191012090565b8154600090815b8181101561106a57600061102182846113f0565b90508486828154811061103657611036611edb565b60009182526020909120015463ffffffff16111561105657809250611064565b611061816001611eb5565b91505b5061100d565b81156110ae578461107c600184611ec8565b8154811061108c5761108c611edb565b60009182526020909120015464010000000090046001600160e01b03166110b1565b60005b6001600160e01b031695945050505050565b600a546001600160a01b031633146106015760405162461bcd60e51b815260206004820181905260248201527f4f776e61626c653a2063616c6c6572206973206e6f7420746865206f776e65726044820152606401610578565b611127828261140b565b7f00000000000000000000000000000000000000000000000000000000000000006001600160e01b031661115a60025490565b11156111c15760405162461bcd60e51b815260206004820152603060248201527f4552433230566f7465733a20746f74616c20737570706c79207269736b73206f60448201526f766572666c6f77696e6720766f74657360801b6064820152608401610578565b610d0560096114f2836114fe565b6001600160a01b038281166000818152600760208181526040808420805485845282862054949093528787166001600160a01b03198416811790915590519190951694919391928592917f3134e8a2e6d97e929a7e54011ea5485d7d196dd5f0ba4d4ef95803e8e3fc257f9190a4610d05828483611677565b600063ffffffff8211156112ad5760405162461bcd60e51b815260206004820152602660248201527f53616665436173743a2076616c756520646f65736e27742066697420696e203360448201526532206269747360d01b6064820152608401610578565b5090565b600a80546001600160a01b038381166001600160a01b0319831681179093556040519116919082907f8be0079c531659141344cd1fd0a4f28419497f9722a3daafe3b4186f6b6457e090600090a35050565b61130d82826117b4565b610d056009611909836114fe565b60006104d0611328610edf565b8360405161190160f01b6020820152602281018390526042810182905260009060620160405160208183030381529060405280519060200120905092915050565b600080600061137a87878787611915565b9150915061138781611a02565b5095945050505050565b6001600160a01b03811660009081526005602052604090208054600181018255905b50919050565b505050565b6001600160a01b038381166000908152600760205260408082205485841683529120546113b992918216911683611677565b60006113ff6002848418611ef1565b6105a390848416611eb5565b6001600160a01b0382166114615760405162461bcd60e51b815260206004820152601f60248201527f45524332303a206d696e7420746f20746865207a65726f2061646472657373006044820152606401610578565b80600260008282546114739190611eb5565b90915550506001600160a01b038216600090815260208190526040812080548392906114a0908490611eb5565b90915550506040518181526001600160a01b038316906000907fddf252ad1be2c89b69c2b068fc378daa952ba7f163c4a11628f55a4df523b3ef9060200160405180910390a36105bc600083836113be565b60006105a38284611eb5565b8254600090819080156115495785611517600183611ec8565b8154811061152757611527611edb565b60009182526020909120015464010000000090046001600160e01b031661154c565b60005b6001600160e01b0316925061156583858763ffffffff16565b91506000811180156115a35750438661157f600184611ec8565b8154811061158f5761158f611edb565b60009182526020909120015463ffffffff16145b15611603576115b182611bb8565b866115bd600184611ec8565b815481106115cd576115cd611edb565b9060005260206000200160000160046101000a8154816001600160e01b0302191690836001600160e01b0316021790555061166e565b85604051806040016040528061161843611248565b63ffffffff16815260200161162c85611bb8565b6001600160e01b0390811690915282546001810184556000938452602093849020835194909301519091166401000000000263ffffffff909316929092179101555b50935093915050565b816001600160a01b0316836001600160a01b0316141580156116995750600081115b156113b9576001600160a01b03831615611727576001600160a01b038316600090815260086020526040812081906116d490611909856114fe565b91509150846001600160a01b03167fdec2bacdd2f05b59de34da9b523dff8be42e5e38e818c82fdb0bae774387a724838360405161171c929190918252602082015260400190565b60405180910390a250505b6001600160a01b038216156113b9576001600160a01b0382166000908152600860205260408120819061175d906114f2856114fe565b91509150836001600160a01b03167fdec2bacdd2f05b59de34da9b523dff8be42e5e38e818c82fdb0bae774387a72483836040516117a5929190918252602082015260400190565b60405180910390a25050505050565b6001600160a01b0382166118145760405162461bcd60e51b815260206004820152602160248201527f45524332303a206275726e2066726f6d20746865207a65726f206164647265736044820152607360f81b6064820152608401610578565b6001600160a01b038216600090815260208190526040902054818110156118885760405162461bcd60e51b815260206004820152602260248201527f45524332303a206275726e20616d6f756e7420657863656564732062616c616e604482015261636560f01b6064820152608401610578565b6001600160a01b03831660009081526020819052604081208383039055600280548492906118b7908490611ec8565b90915550506040518281526000906001600160a01b038516907fddf252ad1be2c89b69c2b068fc378daa952ba7f163c4a11628f55a4df523b3ef9060200160405180910390a36113b9836000846113be565b60006105a38284611ec8565b6000807f7fffffffffffffffffffffffffffffff5d576e7357a4501ddfe92f46681b20a083111561194c57506000905060036119f9565b8460ff16601b1415801561196457508460ff16601c14155b1561197557506000905060046119f9565b6040805160008082526020820180845289905260ff881692820192909252606081018690526080810185905260019060a0016020604051602081039080840390855afa1580156119c9573d6000803e3d6000fd5b5050604051601f1901519150506001600160a01b0381166119f2576000600192509250506119f9565b9150600090505b94509492505050565b6000816004811115611a1657611a16611f13565b03611a1e5750565b6001816004811115611a3257611a32611f13565b03611a7f5760405162461bcd60e51b815260206004820152601860248201527f45434453413a20696e76616c6964207369676e617475726500000000000000006044820152606401610578565b6002816004811115611a9357611a93611f13565b03611ae05760405162461bcd60e51b815260206004820152601f60248201527f45434453413a20696e76616c6964207369676e6174757265206c656e677468006044820152606401610578565b6003816004811115611af457611af4611f13565b03611b4c5760405162461bcd60e51b815260206004820152602260248201527f45434453413a20696e76616c6964207369676e6174757265202773272076616c604482015261756560f01b6064820152608401610578565b6004816004811115611b6057611b60611f13565b036105ca5760405162461bcd60e51b815260206004820152602260248201527f45434453413a20696e76616c6964207369676e6174757265202776272076616c604482015261756560f01b6064820152608401610578565b60006001600160e01b038211156112ad5760405162461bcd60e51b815260206004820152602760248201527f53616665436173743a2076616c756520646f65736e27742066697420696e20326044820152663234206269747360c81b6064820152608401610578565b600060208083528351808285015260005b81811015611c4e57858101830151858201604001528201611c32565b506000604082860101526040601f19601f8301168501019250505092915050565b80356001600160a01b0381168114611c8657600080fd5b919050565b60008060408385031215611c9e57600080fd5b611ca783611c6f565b946020939093013593505050565b600080600060608486031215611cca57600080fd5b611cd384611c6f565b9250611ce160208501611c6f565b9150604084013590509250925092565b600060208284031215611d0357600080fd5b6105a382611c6f565b600060208284031215611d1e57600080fd5b5035919050565b803560ff81168114611c8657600080fd5b60008060008060008060c08789031215611d4f57600080fd5b611d5887611c6f565b95506020870135945060408701359350611d7460608801611d25565b92506080870135915060a087013590509295509295509295565b600080600080600080600060e0888a031215611da957600080fd5b611db288611c6f565b9650611dc060208901611c6f565b95506040880135945060608801359350611ddc60808901611d25565b925060a0880135915060c0880135905092959891949750929550565b60008060408385031215611e0b57600080fd5b611e1483611c6f565b9150611e2260208401611c6f565b90509250929050565b60008060408385031215611e3e57600080fd5b611e4783611c6f565b9150602083013563ffffffff81168114611e6057600080fd5b809150509250929050565b600181811c90821680611e7f57607f821691505b6020821081036113b357634e487b7160e01b600052602260045260246000fd5b634e487b7160e01b600052601160045260246000fd5b808201808211156104d0576104d0611e9f565b818103818111156104d0576104d0611e9f565b634e487b7160e01b600052603260045260246000fd5b600082611f0e57634e487b7160e01b600052601260045260246000fd5b500490565b634e487b7160e01b600052602160045260246000fdfea26469706673582212204b430546aa04be3b56d5eae1fdb9144264e7e17cc24ade920dc71483bf74d94164736f6c63430008110033",
    "linkReferences": {}
  },
  "methodIdentifiers": {
    "DOMAIN_SEPARATOR()": "3644e515",
    "allowance(address,address)": "dd62ed3e",
    "approve(address,uint256)": "095ea7b3",
    "balanceOf(address)": "70a08231",
    "burn(address,uint256)": "9dc29fac",
    "checkpoints(address,uint32)": "f1127ed8",
    "decimals()": "313ce567",
    "decreaseAllowance(address,uint256)": "a457c2d7",
    "delegate(address)": "5c19a95c",
    "delegateBySig(address,uint256,uint256,uint8,bytes32,bytes32)": "c3cda520",
    "delegates(address)": "587cde1e",
    "getPastTotalSupply(uint256)": "8e539e8c",
    "getPastVotes(address,uint256)": "3a46b1a8",
    "getVotes(address)": "9ab24eb0",
    "increaseAllowance(address,uint256)": "39509351",
    "mint(address,uint256)": "40c10f19",
    "name()": "06fdde03",
    "nonces(address)": "7ecebe00",
    "numCheckpoints(address)": "6fcfff45",
    "owner()": "8da5cb5b",
    "permit(address,address,uint256,uint256,uint8,bytes32,bytes32)": "d505accf",
    "renounceOwnership()": "715018a6",
    "symbol()": "95d89b41",
    "totalSupply()": "18160ddd",
    "transfer(address,uint256)": "a9059cbb",
    "transferFrom(address,address,uint256)": "23b872dd",
    "transferOwnership(address)": "f2fde38b"
  },
  "id": 13
}