{
  "abi": [
    {
      "inputs": [
        {
          "internalType": "contract IERC20",
          "name": "targetToken",
          "type": "address"
        },
        {
          "internalType": "uint256",
          "name": "targetAmount",
          "type": "uint256"
        }
      ],
      "stateMutability": "nonpayable",
      "type": "constructor"
    },
    {
      "inputs": [],
      "name": "NotPayable",
      "type": "error"
    },
    {
      "inputs": [],
      "name": "isPayable",
      "outputs": [
        {
          "internalType": "bool",
          "name": "",
          "type": "bool"
        }
      ],
      "stateMutability": "pure",
      "type": "function"
    },
    {
      "inputs": [
        {
          "internalType": "address",
          "name": "",
          "type": "address"
        },
        {
          "internalType": "bytes",
          "name": "",
          "type": "bytes"
        },
        {
          "internalType": "bytes",
          "name": "",
          "type": "bytes"
        },
        {
          "internalType": "uint256",
          "name": "",
          "type": "uint256"
        },
        {
          "internalType": "address",
          "name": "msgSender",
          "type": "address"
        }
      ],
      "name": "resolve",
      "outputs": [
        {
          "internalType": "bool",
          "name": "",
          "type": "bool"
        }
      ],
      "stateMutability": "payable",
      "type": "function"
    },
    {
      "stateMutability": "payable",
      "type": "receive"
    }
  ],
  "bytecode": {
    "object": "0x60c060405234801561001057600080fd5b5060405161062f38038061062f83398101604081905261002f91610045565b6001600160a01b0390911660805260a05261007f565b6000806040838503121561005857600080fd5b82516001600160a01b038116811461006f57600080fd5b6020939093015192949293505050565b60805160a05161058d6100a2600039600060be01526000609a015261058d6000f3fe60806040526004361061002d5760003560e01c8063947a75b414610050578063ce46e0461461007757600080fd5b3661004b57604051631574f9f360e01b815260040160405180910390fd5b600080fd5b61006361005e366004610421565b61008b565b604051901515815260200160405180910390f35b34801561008357600080fd5b506000610063565b60006100e26001600160a01b037f00000000000000000000000000000000000000000000000000000000000000001683307f00000000000000000000000000000000000000000000000000000000000000006100f0565b506001979650505050505050565b604080516001600160a01b0385811660248301528416604482015260648082018490528251808303909101815260849091019091526020810180516001600160e01b03166323b872dd60e01b17905261014a908590610150565b50505050565b60006101a5826040518060400160405280602081526020017f5361666545524332303a206c6f772d6c6576656c2063616c6c206661696c6564815250856001600160a01b031661022c9092919063ffffffff16565b80519091501561022757808060200190518101906101c391906104bb565b6102275760405162461bcd60e51b815260206004820152602a60248201527f5361666545524332303a204552433230206f7065726174696f6e20646964206e6044820152691bdd081cdd58d8d9595960b21b60648201526084015b60405180910390fd5b505050565b606061023b8484600085610243565b949350505050565b6060824710156102a45760405162461bcd60e51b815260206004820152602660248201527f416464726573733a20696e73756666696369656e742062616c616e636520666f6044820152651c8818d85b1b60d21b606482015260840161021e565b600080866001600160a01b031685876040516102c09190610508565b60006040518083038185875af1925050503d80600081146102fd576040519150601f19603f3d011682016040523d82523d6000602084013e610302565b606091505b50915091506103138783838761031e565b979650505050505050565b6060831561038d578251600003610386576001600160a01b0385163b6103865760405162461bcd60e51b815260206004820152601d60248201527f416464726573733a2063616c6c20746f206e6f6e2d636f6e7472616374000000604482015260640161021e565b508161023b565b61023b83838151156103a25781518083602001fd5b8060405162461bcd60e51b815260040161021e9190610524565b80356001600160a01b03811681146103d357600080fd5b919050565b60008083601f8401126103ea57600080fd5b50813567ffffffffffffffff81111561040257600080fd5b60208301915083602082850101111561041a57600080fd5b9250929050565b600080600080600080600060a0888a03121561043c57600080fd5b610445886103bc565b9650602088013567ffffffffffffffff8082111561046257600080fd5b61046e8b838c016103d8565b909850965060408a013591508082111561048757600080fd5b506104948a828b016103d8565b909550935050606088013591506104ad608089016103bc565b905092959891949750929550565b6000602082840312156104cd57600080fd5b815180151581146104dd57600080fd5b9392505050565b60005b838110156104ff5781810151838201526020016104e7565b50506000910152565b6000825161051a8184602087016104e4565b9190910192915050565b60208152600082518060208401526105438160408501602087016104e4565b601f01601f1916919091016040019291505056fea2646970667358221220aa608acd0cf09b6487552878cff57e4043cd3bbab6678d53cb91cad1312fb77564736f6c63430008110033",
    "linkReferences": {}
  },
  "methodIdentifiers": {
    "isPayable()": "ce46e046",
    "resolve(address,bytes,bytes,uint256,address)": "947a75b4"
  },
  "id": 114
}