{
  "abi": [
    {
      "inputs": [
        {
          "internalType": "contract IASRegistry",
          "name": "registry",
          "type": "address"
        },
        {
          "internalType": "contract IEASEIP712Verifier",
          "name": "verifier",
          "type": "address"
        }
      ],
      "stateMutability": "nonpayable",
      "type": "constructor"
    },
    {
      "inputs": [],
      "name": "AccessDenied",
      "type": "error"
    },
    {
      "inputs": [],
      "name": "AlreadyRevoked",
      "type": "error"
    },
    {
      "inputs": [],
      "name": "InvalidAttestation",
      "type": "error"
    },
    {
      "inputs": [],
      "name": "InvalidExpirationTime",
      "type": "error"
    },
    {
      "inputs": [],
      "name": "InvalidOffset",
      "type": "error"
    },
    {
      "inputs": [],
      "name": "InvalidRegistry",
      "type": "error"
    },
    {
      "inputs": [],
      "name": "InvalidSchema",
      "type": "error"
    },
    {
      "inputs": [],
      "name": "InvalidVerifier",
      "type": "error"
    },
    {
      "inputs": [],
      "name": "NotFound",
      "type": "error"
    },
    {
      "inputs": [],
      "name": "NotPayable",
      "type": "error"
    },
    {
      "anonymous": false,
      "inputs": [
        {
          "indexed": true,
          "internalType": "address",
          "name": "recipient",
          "type": "address"
        },
        {
          "indexed": true,
          "internalType": "address",
          "name": "attester",
          "type": "address"
        },
        {
          "indexed": false,
          "internalType": "bytes32",
          "name": "uuid",
          "type": "bytes32"
        },
        {
          "indexed": true,
          "internalType": "bytes32",
          "name": "schema",
          "type": "bytes32"
        }
      ],
      "name": "Attested",
      "type": "event"
    },
    {
      "anonymous": false,
      "inputs": [
        {
          "indexed": true,
          "internalType": "address",
          "name": "recipient",
          "type": "address"
        },
        {
          "indexed": true,
          "internalType": "address",
          "name": "attester",
          "type": "address"
        },
        {
          "indexed": false,
          "internalType": "bytes32",
          "name": "uuid",
          "type": "bytes32"
        },
        {
          "indexed": true,
          "internalType": "bytes32",
          "name": "schema",
          "type": "bytes32"
        }
      ],
      "name": "Revoked",
      "type": "event"
    },
    {
      "inputs": [],
      "name": "VERSION",
      "outputs": [
        {
          "internalType": "string",
          "name": "",
          "type": "string"
        }
      ],
      "stateMutability": "view",
      "type": "function"
    },
    {
      "inputs": [
        {
          "internalType": "address",
          "name": "recipient",
          "type": "address"
        },
        {
          "internalType": "bytes32",
          "name": "schema",
          "type": "bytes32"
        },
        {
          "internalType": "uint256",
          "name": "expirationTime",
          "type": "uint256"
        },
        {
          "internalType": "bytes32",
          "name": "refUUID",
          "type": "bytes32"
        },
        {
          "internalType": "bytes",
          "name": "data",
          "type": "bytes"
        }
      ],
      "name": "attest",
      "outputs": [
        {
          "internalType": "bytes32",
          "name": "",
          "type": "bytes32"
        }
      ],
      "stateMutability": "payable",
      "type": "function"
    },
    {
      "inputs": [
        {
          "internalType": "address",
          "name": "recipient",
          "type": "address"
        },
        {
          "internalType": "bytes32",
          "name": "schema",
          "type": "bytes32"
        },
        {
          "internalType": "uint256",
          "name": "expirationTime",
          "type": "uint256"
        },
        {
          "internalType": "bytes32",
          "name": "refUUID",
          "type": "bytes32"
        },
        {
          "internalType": "bytes",
          "name": "data",
          "type": "bytes"
        },
        {
          "internalType": "address",
          "name": "attester",
          "type": "address"
        },
        {
          "internalType": "uint8",
          "name": "v",
          "type": "uint8"
        },
        {
          "internalType": "bytes32",
          "name": "r",
          "type": "bytes32"
        },
        {
          "internalType": "bytes32",
          "name": "s",
          "type": "bytes32"
        }
      ],
      "name": "attestByDelegation",
      "outputs": [
        {
          "internalType": "bytes32",
          "name": "",
          "type": "bytes32"
        }
      ],
      "stateMutability": "payable",
      "type": "function"
    },
    {
      "inputs": [],
      "name": "getASRegistry",
      "outputs": [
        {
          "internalType": "contract IASRegistry",
          "name": "",
          "type": "address"
        }
      ],
      "stateMutability": "view",
      "type": "function"
    },
    {
      "inputs": [
        {
          "internalType": "bytes32",
          "name": "uuid",
          "type": "bytes32"
        }
      ],
      "name": "getAttestation",
      "outputs": [
        {
          "components": [
            {
              "internalType": "bytes32",
              "name": "uuid",
              "type": "bytes32"
            },
            {
              "internalType": "bytes32",
              "name": "schema",
              "type": "bytes32"
            },
            {
              "internalType": "address",
              "name": "recipient",
              "type": "address"
            },
            {
              "internalType": "address",
              "name": "attester",
              "type": "address"
            },
            {
              "internalType": "uint256",
              "name": "time",
              "type": "uint256"
            },
            {
              "internalType": "uint256",
              "name": "expirationTime",
              "type": "uint256"
            },
            {
              "internalType": "uint256",
              "name": "revocationTime",
              "type": "uint256"
            },
            {
              "internalType": "bytes32",
              "name": "refUUID",
              "type": "bytes32"
            },
            {
              "internalType": "bytes",
              "name": "data",
              "type": "bytes"
            }
          ],
          "internalType": "struct IEAS.Attestation",
          "name": "",
          "type": "tuple"
        }
      ],
      "stateMutability": "view",
      "type": "function"
    },
    {
      "inputs": [],
      "name": "getAttestationsCount",
      "outputs": [
        {
          "internalType": "uint256",
          "name": "",
          "type": "uint256"
        }
      ],
      "stateMutability": "view",
      "type": "function"
    },
    {
      "inputs": [],
      "name": "getEIP712Verifier",
      "outputs": [
        {
          "internalType": "contract IEASEIP712Verifier",
          "name": "",
          "type": "address"
        }
      ],
      "stateMutability": "view",
      "type": "function"
    },
    {
      "inputs": [],
      "name": "getLastUUID",
      "outputs": [
        {
          "internalType": "bytes32",
          "name": "",
          "type": "bytes32"
        }
      ],
      "stateMutability": "view",
      "type": "function"
    },
    {
      "inputs": [
        {
          "internalType": "address",
          "name": "recipient",
          "type": "address"
        },
        {
          "internalType": "bytes32",
          "name": "schema",
          "type": "bytes32"
        },
        {
          "internalType": "uint256",
          "name": "start",
          "type": "uint256"
        },
        {
          "internalType": "uint256",
          "name": "length",
          "type": "uint256"
        },
        {
          "internalType": "bool",
          "name": "reverseOrder",
          "type": "bool"
        }
      ],
      "name": "getReceivedAttestationUUIDs",
      "outputs": [
        {
          "internalType": "bytes32[]",
          "name": "",
          "type": "bytes32[]"
        }
      ],
      "stateMutability": "view",
      "type": "function"
    },
    {
      "inputs": [
        {
          "internalType": "address",
          "name": "recipient",
          "type": "address"
        },
        {
          "internalType": "bytes32",
          "name": "schema",
          "type": "bytes32"
        }
      ],
      "name": "getReceivedAttestationUUIDsCount",
      "outputs": [
        {
          "internalType": "uint256",
          "name": "",
          "type": "uint256"
        }
      ],
      "stateMutability": "view",
      "type": "function"
    },
    {
      "inputs": [
        {
          "internalType": "bytes32",
          "name": "uuid",
          "type": "bytes32"
        },
        {
          "internalType": "uint256",
          "name": "start",
          "type": "uint256"
        },
        {
          "internalType": "uint256",
          "name": "length",
          "type": "uint256"
        },
        {
          "internalType": "bool",
          "name": "reverseOrder",
          "type": "bool"
        }
      ],
      "name": "getRelatedAttestationUUIDs",
      "outputs": [
        {
          "internalType": "bytes32[]",
          "name": "",
          "type": "bytes32[]"
        }
      ],
      "stateMutability": "view",
      "type": "function"
    },
    {
      "inputs": [
        {
          "internalType": "bytes32",
          "name": "uuid",
          "type": "bytes32"
        }
      ],
      "name": "getRelatedAttestationUUIDsCount",
      "outputs": [
        {
          "internalType": "uint256",
          "name": "",
          "type": "uint256"
        }
      ],
      "stateMutability": "view",
      "type": "function"
    },
    {
      "inputs": [
        {
          "internalType": "bytes32",
          "name": "schema",
          "type": "bytes32"
        },
        {
          "internalType": "uint256",
          "name": "start",
          "type": "uint256"
        },
        {
          "internalType": "uint256",
          "name": "length",
          "type": "uint256"
        },
        {
          "internalType": "bool",
          "name": "reverseOrder",
          "type": "bool"
        }
      ],
      "name": "getSchemaAttestationUUIDs",
      "outputs": [
        {
          "internalType": "bytes32[]",
          "name": "",
          "type": "bytes32[]"
        }
      ],
      "stateMutability": "view",
      "type": "function"
    },
    {
      "inputs": [
        {
          "internalType": "bytes32",
          "name": "schema",
          "type": "bytes32"
        }
      ],
      "name": "getSchemaAttestationUUIDsCount",
      "outputs": [
        {
          "internalType": "uint256",
          "name": "",
          "type": "uint256"
        }
      ],
      "stateMutability": "view",
      "type": "function"
    },
    {
      "inputs": [
        {
          "internalType": "address",
          "name": "attester",
          "type": "address"
        },
        {
          "internalType": "bytes32",
          "name": "schema",
          "type": "bytes32"
        },
        {
          "internalType": "uint256",
          "name": "start",
          "type": "uint256"
        },
        {
          "internalType": "uint256",
          "name": "length",
          "type": "uint256"
        },
        {
          "internalType": "bool",
          "name": "reverseOrder",
          "type": "bool"
        }
      ],
      "name": "getSentAttestationUUIDs",
      "outputs": [
        {
          "internalType": "bytes32[]",
          "name": "",
          "type": "bytes32[]"
        }
      ],
      "stateMutability": "view",
      "type": "function"
    },
    {
      "inputs": [
        {
          "internalType": "address",
          "name": "recipient",
          "type": "address"
        },
        {
          "internalType": "bytes32",
          "name": "schema",
          "type": "bytes32"
        }
      ],
      "name": "getSentAttestationUUIDsCount",
      "outputs": [
        {
          "internalType": "uint256",
          "name": "",
          "type": "uint256"
        }
      ],
      "stateMutability": "view",
      "type": "function"
    },
    {
      "inputs": [
        {
          "internalType": "bytes32",
          "name": "uuid",
          "type": "bytes32"
        }
      ],
      "name": "isAttestationActive",
      "outputs": [
        {
          "internalType": "bool",
          "name": "",
          "type": "bool"
        }
      ],
      "stateMutability": "view",
      "type": "function"
    },
    {
      "inputs": [
        {
          "internalType": "bytes32",
          "name": "uuid",
          "type": "bytes32"
        }
      ],
      "name": "isAttestationValid",
      "outputs": [
        {
          "internalType": "bool",
          "name": "",
          "type": "bool"
        }
      ],
      "stateMutability": "view",
      "type": "function"
    },
    {
      "inputs": [
        {
          "internalType": "bytes32",
          "name": "uuid",
          "type": "bytes32"
        }
      ],
      "name": "revoke",
      "outputs": [],
      "stateMutability": "nonpayable",
      "type": "function"
    },
    {
      "inputs": [
        {
          "internalType": "bytes32",
          "name": "uuid",
          "type": "bytes32"
        },
        {
          "internalType": "address",
          "name": "attester",
          "type": "address"
        },
        {
          "internalType": "uint8",
          "name": "v",
          "type": "uint8"
        },
        {
          "internalType": "bytes32",
          "name": "r",
          "type": "bytes32"
        },
        {
          "internalType": "bytes32",
          "name": "s",
          "type": "bytes32"
        }
      ],
      "name": "revokeByDelegation",
      "outputs": [],
      "stateMutability": "nonpayable",
      "type": "function"
    }
  ],
  "bytecode": {
    "object": "0x60c06040523480156200001157600080fd5b5060405162001b3e38038062001b3e8339810160408190526200003491620000b5565b6001600160a01b0382166200005c576040516311a1e69760e01b815260040160405180910390fd5b6001600160a01b038116620000845760405163baa3de5f60e01b815260040160405180910390fd5b6001600160a01b039182166080521660a052620000f4565b6001600160a01b0381168114620000b257600080fd5b50565b60008060408385031215620000c957600080fd5b8251620000d6816200009c565b6020840151909250620000e9816200009c565b809150509250929050565b60805160a051611a0f6200012f600039600081816101b30152818161066f015261092a01526000818161028701526109d20152611a0f6000f3fe60806040526004361061011f5760003560e01c8063a3112a64116100a0578063d8c5ebd411610064578063d8c5ebd41461037d578063e30bb563146103c0578063ef0a3098146103ef578063f96e501314610404578063ffa1ad741461041957600080fd5b8063a3112a64146102be578063b75c7dc6146102eb578063c042d88f1461030d578063c334947c1461032d578063d87647b21461035d57600080fd5b806362196643116100e7578063621966431461020b57806363583538146102385780637f04f2841461025857806381fa6cd314610278578063930ed013146102ab57600080fd5b80630560f90f1461012457806309a954cd14610164578063105152981461017757806315cd31a1146101a45780631bc9a07a146101eb575b600080fd5b34801561013057600080fd5b5061015161013f366004611151565b60009081526020819052604090205490565b6040519081526020015b60405180910390f35b6101516101723660046111c8565b610455565b34801561018357600080fd5b50610197610192366004611249565b610471565b60405161015b919061129f565b3480156101b057600080fd5b507f00000000000000000000000000000000000000000000000000000000000000005b6040516001600160a01b03909116815260200161015b565b3480156101f757600080fd5b50610197610206366004611249565b6104f7565b34801561021757600080fd5b50610151610226366004611151565b60009081526003602052604090205490565b34801561024457600080fd5b506101976102533660046112e3565b610571565b34801561026457600080fd5b506101976102733660046112e3565b6105e9565b34801561028457600080fd5b507f00000000000000000000000000000000000000000000000000000000000000006101d3565b6101516102b936600461133a565b610655565b3480156102ca57600080fd5b506102de6102d9366004611151565b610706565b60405161015b9190611434565b3480156102f757600080fd5b5061030b610306366004611151565b610869565b005b34801561031957600080fd5b506101516103283660046114c4565b610876565b34801561033957600080fd5b5061034d610348366004611151565b6108a1565b604051901515815260200161015b565b34801561036957600080fd5b5061030b6103783660046114f0565b6108ed565b34801561038957600080fd5b506101516103983660046114c4565b6001600160a01b03919091166000908152600160209081526040808320938352929052205490565b3480156103cc57600080fd5b5061034d6103db366004611151565b600090815260046020526040902054151590565b3480156103fb57600080fd5b50600654610151565b34801561041057600080fd5b50600554610151565b34801561042557600080fd5b50610448604051806040016040528060038152602001620605c760eb1b81525081565b60405161015b9190611540565b600061046687878787878733610997565b979650505050505050565b6001600160a01b038516600090815260016020908152604080832087845282529182902080548351818402810184019094528084526060936104ed93909291908301828280156104e057602002820191906000526020600020905b8154815260200190600101908083116104cc575b5050505050858585610edc565b9695505050505050565b6001600160a01b038516600090815260026020908152604080832087845282529182902080548351818402810184019094528084526060936104ed93909291908301828280156104e057602002820191906000526020600020908154815260200190600101908083116104cc575050505050858585610edc565b60606105de600360008781526020019081526020016000208054806020026020016040519081016040528092919081815260200182805480156104e057602002820191906000526020600020908154815260200190600101908083116104cc575050505050858585610edc565b90505b949350505050565b60606105de6000808781526020019081526020016000208054806020026020016040519081016040528092919081815260200182805480156104e057602002820191906000526020600020908154815260200190600101908083116104cc575050505050858585610edc565b604051636aeb49a560e01b81526000906001600160a01b037f00000000000000000000000000000000000000000000000000000000000000001690636aeb49a5906106b6908e908e908e908e908e908e908e908e908e908e90600401611583565b600060405180830381600087803b1580156106d057600080fd5b505af11580156106e4573d6000803e3d6000fd5b505050506106f78b8b8b8b8b8b8b610997565b9b9a5050505050505050505050565b604080516101208101825260008082526020820181905291810182905260608082018390526080820183905260a0820183905260c0820183905260e08201929092526101008101919091526000828152600460208181526040928390208351610120810185528154815260018201549281019290925260028101546001600160a01b039081169483019490945260038101549093166060820152908201546080820152600582015460a0820152600682015460c0820152600782015460e0820152600882018054919291610100840191906107e0906115e6565b80601f016020809104026020016040519081016040528092919081815260200182805461080c906115e6565b80156108595780601f1061082e57610100808354040283529160200191610859565b820191906000526020600020905b81548152906001019060200180831161083c57829003601f168201915b5050505050815250509050919050565b6108738133611015565b50565b6001600160a01b03821660009081526002602090815260408083208484529091529020545b92915050565b600081815260046020526040812054151580156108cf57506000828152600460205260409020600501544211155b801561089b5750506000908152600460205260409020600601541590565b604051631863f01d60e01b8152600481018690526001600160a01b03858116602483015260ff8516604483015260648201849052608482018390527f00000000000000000000000000000000000000000000000000000000000000001690631863f01d9060a401600060405180830381600087803b15801561096e57600080fd5b505af1158015610982573d6000803e3d6000fd5b505050506109908585611015565b5050505050565b60004286116109b9576040516308e8b93760e01b815260040160405180910390fd5b6040516339243ea960e11b8152600481018890526000907f00000000000000000000000000000000000000000000000000000000000000006001600160a01b0316906372487d5290602401600060405180830381865afa158015610a21573d6000803e3d6000fd5b505050506040513d6000823e601f3d908101601f19168201604052610a499190810190611690565b8051909150610a6b57604051635f9bd90760e11b815260040160405180910390fd5b60208101516001600160a01b03811615610ba6573415801590610aed5750806001600160a01b031663ce46e0466040518163ffffffff1660e01b8152600401602060405180830381865afa158015610ac7573d6000803e3d6000fd5b505050506040513d601f19601f82011682018060405250810190610aeb9190611778565b155b15610b0b57604051631574f9f360e01b815260040160405180910390fd5b806001600160a01b031663947a75b4348c85606001518a8a8e8b6040518863ffffffff1660e01b8152600401610b4696959493929190611795565b60206040518083038185885af1158015610b64573d6000803e3d6000fd5b50505050506040513d601f19601f82011682018060405250810190610b899190611778565b610ba65760405163bd8ba84d60e01b815260040160405180910390fd5b60006040518061012001604052806000801b81526020018b81526020018c6001600160a01b03168152602001866001600160a01b031681526020014281526020018a81526020016000815260200189815260200188888080601f01602080910402602001604051908101604052809392919081815260200183838082843760009201919091525050509152509050610c3d816110eb565b600681905550600654816000018181525050600160008c6001600160a01b03166001600160a01b0316815260200190815260200160002060008b8152602001908152602001600020600654908060018154018082558091505060019003906000526020600020016000909190919091505560026000866001600160a01b03166001600160a01b0316815260200190815260200160002060008b81526020019081526020016000206006549080600181540180825580915050600190039060005260206000200160009091909190915055600360008b8152602001908152602001600020600654908060018154018082558091505060019003906000526020600020016000909190919091505580600460006006548152602001908152602001600020600082015181600001556020820151816001015560408201518160020160006101000a8154816001600160a01b0302191690836001600160a01b0316021790555060608201518160030160006101000a8154816001600160a01b0302191690836001600160a01b031602179055506080820151816004015560a0820151816005015560c0820151816006015560e08201518160070155610100820151816008019081610e0b9190611835565b50506005805491506000610e1e8361190b565b90915550508715610e7a57600088815260046020526040902054610e555760405163c5723b5160e01b815260040160405180910390fd5b6000888152602081815260408220600654815460018101835591845291909220909101555b89856001600160a01b03168c6001600160a01b03167f8bf46bf4cfd674fa735a3d63ec1c9ad4153f033c290341f3a588b75685141b35600654604051610ec291815260200190565b60405180910390a450506006549998505050505050505050565b83516060906000819003610f005750506040805160008152602081019091526105e1565b808510610f1f5760405162ed0ab960e11b815260040160405180910390fd5b83610f2a8187611924565b821015610f3e57610f3b8683611937565b90505b60008167ffffffffffffffff811115610f5957610f59611620565b604051908082528060200260200182016040528015610f82578160200160208202803683370190505b50905060005b82811015611009578886610fa557610fa0828a611924565b610fc4565b610faf828a611924565b610fba906001611924565b610fc49086611937565b81518110610fd457610fd461194a565b6020026020010151828281518110610fee57610fee61194a565b60209081029190910101526110028161190b565b9050610f88565b50979650505050505050565b600082815260046020526040902080546110425760405163c5723b5160e01b815260040160405180910390fd5b60038101546001600160a01b0383811691161461107257604051634ca8886760e01b815260040160405180910390fd5b6006810154156110955760405163905e710760e01b815260040160405180910390fd5b426006820155600181015460028201546040518581526001600160a01b038581169216907ff930a6e2523c9cc298691873087a740550b8fc85a0680830414c148ed927f6159060200160405180910390a4505050565b6020808201516040808401516060850151608086015160a08701516101008801518551808701875260018152600160fe1b818a0152600554965160009961113499989101611960565b604051602081830303815290604052805190602001209050919050565b60006020828403121561116357600080fd5b5035919050565b6001600160a01b038116811461087357600080fd5b60008083601f84011261119157600080fd5b50813567ffffffffffffffff8111156111a957600080fd5b6020830191508360208285010111156111c157600080fd5b9250929050565b60008060008060008060a087890312156111e157600080fd5b86356111ec8161116a565b9550602087013594506040870135935060608701359250608087013567ffffffffffffffff81111561121d57600080fd5b61122989828a0161117f565b979a9699509497509295939492505050565b801515811461087357600080fd5b600080600080600060a0868803121561126157600080fd5b853561126c8161116a565b945060208601359350604086013592506060860135915060808601356112918161123b565b809150509295509295909350565b6020808252825182820181905260009190848201906040850190845b818110156112d7578351835292840192918401916001016112bb565b50909695505050505050565b600080600080608085870312156112f957600080fd5b84359350602085013592506040850135915060608501356113198161123b565b939692955090935050565b803560ff8116811461133557600080fd5b919050565b6000806000806000806000806000806101208b8d03121561135a57600080fd5b8a356113658161116a565b995060208b0135985060408b0135975060608b0135965060808b013567ffffffffffffffff81111561139657600080fd5b6113a28d828e0161117f565b90975095505060a08b01356113b68161116a565b93506113c460c08c01611324565b925060e08b013591506101008b013590509295989b9194979a5092959850565b60005b838110156113ff5781810151838201526020016113e7565b50506000910152565b600081518084526114208160208601602086016113e4565b601f01601f19169290920160200192915050565b6020815281516020820152602082015160408201526000604083015161146560608401826001600160a01b03169052565b5060608301516001600160a01b038116608084015250608083015160a083015260a083015160c083015260c083015160e083015260e08301516101008181850152808501519150506101208081850152506105e1610140840182611408565b600080604083850312156114d757600080fd5b82356114e28161116a565b946020939093013593505050565b600080600080600060a0868803121561150857600080fd5b85359450602086013561151a8161116a565b935061152860408701611324565b94979396509394606081013594506080013592915050565b6020815260006115536020830184611408565b9392505050565b81835281816020850137506000828201602090810191909152601f909101601f19169091010190565b600061012060018060a01b03808e1684528c60208501528b60408501528a60608501528160808501526115b98285018a8c61155a565b971660a0840152505060ff9390931660c084015260e0830191909152610100909101529695505050505050565b600181811c908216806115fa57607f821691505b60208210810361161a57634e487b7160e01b600052602260045260246000fd5b50919050565b634e487b7160e01b600052604160045260246000fd5b6040516080810167ffffffffffffffff8111828210171561165957611659611620565b60405290565b604051601f8201601f1916810167ffffffffffffffff8111828210171561168857611688611620565b604052919050565b600060208083850312156116a357600080fd5b825167ffffffffffffffff808211156116bb57600080fd5b90840190608082870312156116cf57600080fd5b6116d7611636565b82518152838301516116e88161116a565b818501526040838101519082015260608301518281111561170857600080fd5b80840193505086601f84011261171d57600080fd5b82518281111561172f5761172f611620565b611741601f8201601f1916860161165f565b9250808352878582860101111561175757600080fd5b611766818685018787016113e4565b50606081019190915295945050505050565b60006020828403121561178a57600080fd5b81516115538161123b565b600060018060a01b03808916835260a060208401526117b760a0840189611408565b83810360408501526117ca81888a61155a565b6060850196909652509290921660809091015250949350505050565b601f82111561183057600081815260208120601f850160051c8101602086101561180d5750805b601f850160051c820191505b8181101561182c57828155600101611819565b5050505b505050565b815167ffffffffffffffff81111561184f5761184f611620565b6118638161185d84546115e6565b846117e6565b602080601f83116001811461189857600084156118805750858301515b600019600386901b1c1916600185901b17855561182c565b600085815260208120601f198616915b828110156118c7578886015182559484019460019091019084016118a8565b50858210156118e55787850151600019600388901b60f8161c191681555b5050505050600190811b01905550565b634e487b7160e01b600052601160045260246000fd5b60006001820161191d5761191d6118f5565b5060010190565b8082018082111561089b5761089b6118f5565b8181038181111561089b5761089b6118f5565b634e487b7160e01b600052603260045260246000fd5b88815260006bffffffffffffffffffffffff19808a60601b166020840152808960601b1660348401525086604883015285606883015284516119a98160888501602089016113e4565b8451908301906119c08160888401602089016113e4565b016088810193909352505060a80197965050505050505056fea26469706673582212204f4eb6c41af5d00d7ed2472668aa11270509add4d929ca81c876e04f053f36f864736f6c63430008110033",
    "linkReferences": {}
  },
  "methodIdentifiers": {
    "VERSION()": "ffa1ad74",
    "attest(address,bytes32,uint256,bytes32,bytes)": "09a954cd",
    "attestByDelegation(address,bytes32,uint256,bytes32,bytes,address,uint8,bytes32,bytes32)": "930ed013",
    "getASRegistry()": "81fa6cd3",
    "getAttestation(bytes32)": "a3112a64",
    "getAttestationsCount()": "f96e5013",
    "getEIP712Verifier()": "15cd31a1",
    "getLastUUID()": "ef0a3098",
    "getReceivedAttestationUUIDs(address,bytes32,uint256,uint256,bool)": "10515298",
    "getReceivedAttestationUUIDsCount(address,bytes32)": "d8c5ebd4",
    "getRelatedAttestationUUIDs(bytes32,uint256,uint256,bool)": "7f04f284",
    "getRelatedAttestationUUIDsCount(bytes32)": "0560f90f",
    "getSchemaAttestationUUIDs(bytes32,uint256,uint256,bool)": "63583538",
    "getSchemaAttestationUUIDsCount(bytes32)": "62196643",
    "getSentAttestationUUIDs(address,bytes32,uint256,uint256,bool)": "1bc9a07a",
    "getSentAttestationUUIDsCount(address,bytes32)": "c042d88f",
    "isAttestationActive(bytes32)": "c334947c",
    "isAttestationValid(bytes32)": "e30bb563",
    "revoke(bytes32)": "b75c7dc6",
    "revokeByDelegation(bytes32,address,uint8,bytes32,bytes32)": "d87647b2"
  },
  "id": 1
}