{
  "abi": [
    {
      "inputs": [
        {
          "internalType": "address",
          "name": "trustedForwarder",
          "type": "address"
        }
      ],
      "stateMutability": "nonpayable",
      "type": "constructor"
    },
    {
      "inputs": [
        {
          "internalType": "uint256",
          "name": "bidId",
          "type": "uint256"
        },
        {
          "internalType": "string",
          "name": "action",
          "type": "string"
        },
        {
          "internalType": "string",
          "name": "message",
          "type": "string"
        }
      ],
      "name": "ActionNotAllowed",
      "type": "error"
    },
    {
      "inputs": [
        {
          "internalType": "uint256",
          "name": "bidId",
          "type": "uint256"
        },
        {
          "internalType": "uint256",
          "name": "payment",
          "type": "uint256"
        },
        {
          "internalType": "uint256",
          "name": "minimumOwed",
          "type": "uint256"
        }
      ],
      "name": "PaymentNotMinimum",
      "type": "error"
    },
    {
      "anonymous": false,
      "inputs": [
        {
          "indexed": true,
          "internalType": "uint256",
          "name": "bidId",
          "type": "uint256"
        },
        {
          "indexed": true,
          "internalType": "address",
          "name": "lender",
          "type": "address"
        }
      ],
      "name": "AcceptedBid",
      "type": "event"
    },
    {
      "anonymous": false,
      "inputs": [
        {
          "indexed": true,
          "internalType": "uint256",
          "name": "bidId",
          "type": "uint256"
        }
      ],
      "name": "CancelledBid",
      "type": "event"
    },
    {
      "anonymous": false,
      "inputs": [
        {
          "indexed": true,
          "internalType": "uint256",
          "name": "bidId",
          "type": "uint256"
        },
        {
          "indexed": true,
          "internalType": "string",
          "name": "feeType",
          "type": "string"
        },
        {
          "indexed": true,
          "internalType": "uint256",
          "name": "amount",
          "type": "uint256"
        }
      ],
      "name": "FeePaid",
      "type": "event"
    },
    {
      "anonymous": false,
      "inputs": [
        {
          "indexed": false,
          "internalType": "uint8",
          "name": "version",
          "type": "uint8"
        }
      ],
      "name": "Initialized",
      "type": "event"
    },
    {
      "anonymous": false,
      "inputs": [
        {
          "indexed": true,
          "internalType": "uint256",
          "name": "bidId",
          "type": "uint256"
        },
        {
          "indexed": true,
          "internalType": "address",
          "name": "liquidator",
          "type": "address"
        }
      ],
      "name": "LoanLiquidated",
      "type": "event"
    },
    {
      "anonymous": false,
      "inputs": [
        {
          "indexed": true,
          "internalType": "uint256",
          "name": "bidId",
          "type": "uint256"
        }
      ],
      "name": "LoanRepaid",
      "type": "event"
    },
    {
      "anonymous": false,
      "inputs": [
        {
          "indexed": true,
          "internalType": "uint256",
          "name": "bidId",
          "type": "uint256"
        }
      ],
      "name": "LoanRepayment",
      "type": "event"
    },
    {
      "anonymous": false,
      "inputs": [
        {
          "indexed": true,
          "internalType": "uint256",
          "name": "marketId",
          "type": "uint256"
        },
        {
          "indexed": true,
          "internalType": "address",
          "name": "forwarder",
          "type": "address"
        },
        {
          "indexed": false,
          "internalType": "address",
          "name": "sender",
          "type": "address"
        }
      ],
      "name": "MarketForwarderApproved",
      "type": "event"
    },
    {
      "anonymous": false,
      "inputs": [
        {
          "indexed": true,
          "internalType": "uint256",
          "name": "bidId",
          "type": "uint256"
        }
      ],
      "name": "MarketOwnerCancelledBid",
      "type": "event"
    },
    {
      "anonymous": false,
      "inputs": [
        {
          "indexed": true,
          "internalType": "address",
          "name": "previousOwner",
          "type": "address"
        },
        {
          "indexed": true,
          "internalType": "address",
          "name": "newOwner",
          "type": "address"
        }
      ],
      "name": "OwnershipTransferred",
      "type": "event"
    },
    {
      "anonymous": false,
      "inputs": [
        {
          "indexed": false,
          "internalType": "address",
          "name": "account",
          "type": "address"
        }
      ],
      "name": "Paused",
      "type": "event"
    },
    {
      "anonymous": false,
      "inputs": [
        {
          "indexed": false,
          "internalType": "uint16",
          "name": "newFee",
          "type": "uint16"
        },
        {
          "indexed": false,
          "internalType": "uint16",
          "name": "oldFee",
          "type": "uint16"
        }
      ],
      "name": "ProtocolFeeSet",
      "type": "event"
    },
    {
      "anonymous": false,
      "inputs": [
        {
          "indexed": true,
          "internalType": "uint256",
          "name": "bidId",
          "type": "uint256"
        },
        {
          "indexed": true,
          "internalType": "address",
          "name": "borrower",
          "type": "address"
        },
        {
          "indexed": false,
          "internalType": "address",
          "name": "receiver",
          "type": "address"
        },
        {
          "indexed": true,
          "internalType": "bytes32",
          "name": "metadataURI",
          "type": "bytes32"
        }
      ],
      "name": "SubmittedBid",
      "type": "event"
    },
    {
      "anonymous": false,
      "inputs": [
        {
          "indexed": true,
          "internalType": "uint256",
          "name": "marketId",
          "type": "uint256"
        },
        {
          "indexed": false,
          "internalType": "address",
          "name": "forwarder",
          "type": "address"
        },
        {
          "indexed": false,
          "internalType": "address",
          "name": "sender",
          "type": "address"
        }
      ],
      "name": "TrustedMarketForwarderSet",
      "type": "event"
    },
    {
      "anonymous": false,
      "inputs": [
        {
          "indexed": false,
          "internalType": "address",
          "name": "account",
          "type": "address"
        }
      ],
      "name": "Unpaused",
      "type": "event"
    },
    {
      "inputs": [],
      "name": "CURRENT_CODE_VERSION",
      "outputs": [
        {
          "internalType": "uint8",
          "name": "",
          "type": "uint8"
        }
      ],
      "stateMutability": "view",
      "type": "function"
    },
    {
      "inputs": [
        {
          "internalType": "address",
          "name": "",
          "type": "address"
        }
      ],
      "name": "_lenderVolumeFilled",
      "outputs": [
        {
          "internalType": "uint256",
          "name": "",
          "type": "uint256"
        }
      ],
      "stateMutability": "view",
      "type": "function"
    },
    {
      "inputs": [],
      "name": "_totalVolumeFilled",
      "outputs": [
        {
          "internalType": "uint256",
          "name": "",
          "type": "uint256"
        }
      ],
      "stateMutability": "view",
      "type": "function"
    },
    {
      "inputs": [
        {
          "internalType": "address",
          "name": "_lendingToken",
          "type": "address"
        }
      ],
      "name": "addLendingToken",
      "outputs": [],
      "stateMutability": "nonpayable",
      "type": "function"
    },
    {
      "inputs": [
        {
          "internalType": "uint256",
          "name": "_marketId",
          "type": "uint256"
        },
        {
          "internalType": "address",
          "name": "_forwarder",
          "type": "address"
        }
      ],
      "name": "approveMarketForwarder",
      "outputs": [],
      "stateMutability": "nonpayable",
      "type": "function"
    },
    {
      "inputs": [
        {
          "internalType": "uint256",
          "name": "",
          "type": "uint256"
        }
      ],
      "name": "bidDefaultDuration",
      "outputs": [
        {
          "internalType": "uint32",
          "name": "",
          "type": "uint32"
        }
      ],
      "stateMutability": "view",
      "type": "function"
    },
    {
      "inputs": [
        {
          "internalType": "uint256",
          "name": "",
          "type": "uint256"
        }
      ],
      "name": "bidExpirationTime",
      "outputs": [
        {
          "internalType": "uint32",
          "name": "",
          "type": "uint32"
        }
      ],
      "stateMutability": "view",
      "type": "function"
    },
    {
      "inputs": [],
      "name": "bidId",
      "outputs": [
        {
          "internalType": "uint256",
          "name": "",
          "type": "uint256"
        }
      ],
      "stateMutability": "view",
      "type": "function"
    },
    {
      "inputs": [
        {
          "internalType": "uint256",
          "name": "",
          "type": "uint256"
        }
      ],
      "name": "bids",
      "outputs": [
        {
          "internalType": "address",
          "name": "borrower",
          "type": "address"
        },
        {
          "internalType": "address",
          "name": "receiver",
          "type": "address"
        },
        {
          "internalType": "address",
          "name": "lender",
          "type": "address"
        },
        {
          "internalType": "uint256",
          "name": "marketplaceId",
          "type": "uint256"
        },
        {
          "internalType": "bytes32",
          "name": "_metadataURI",
          "type": "bytes32"
        },
        {
          "components": [
            {
              "internalType": "contract ERC20",
              "name": "lendingToken",
              "type": "address"
            },
            {
              "internalType": "uint256",
              "name": "principal",
              "type": "uint256"
            },
            {
              "components": [
                {
                  "internalType": "uint256",
                  "name": "principal",
                  "type": "uint256"
                },
                {
                  "internalType": "uint256",
                  "name": "interest",
                  "type": "uint256"
                }
              ],
              "internalType": "struct Payment",
              "name": "totalRepaid",
              "type": "tuple"
            },
            {
              "internalType": "uint32",
              "name": "timestamp",
              "type": "uint32"
            },
            {
              "internalType": "uint32",
              "name": "acceptedTimestamp",
              "type": "uint32"
            },
            {
              "internalType": "uint32",
              "name": "lastRepaidTimestamp",
              "type": "uint32"
            },
            {
              "internalType": "uint32",
              "name": "loanDuration",
              "type": "uint32"
            }
          ],
          "internalType": "struct LoanDetails",
          "name": "loanDetails",
          "type": "tuple"
        },
        {
          "components": [
            {
              "internalType": "uint256",
              "name": "paymentCycleAmount",
              "type": "uint256"
            },
            {
              "internalType": "uint32",
              "name": "paymentCycle",
              "type": "uint32"
            },
            {
              "internalType": "uint16",
              "name": "APR",
              "type": "uint16"
            }
          ],
          "internalType": "struct Terms",
          "name": "terms",
          "type": "tuple"
        },
        {
          "internalType": "enum BidState",
          "name": "state",
          "type": "uint8"
        },
        {
          "internalType": "enum PaymentType",
          "name": "paymentType",
          "type": "uint8"
        }
      ],
      "stateMutability": "view",
      "type": "function"
    },
    {
      "inputs": [
        {
          "internalType": "address",
          "name": "",
          "type": "address"
        },
        {
          "internalType": "uint256",
          "name": "",
          "type": "uint256"
        }
      ],
      "name": "borrowerBids",
      "outputs": [
        {
          "internalType": "uint256",
          "name": "",
          "type": "uint256"
        }
      ],
      "stateMutability": "view",
      "type": "function"
    },
    {
      "inputs": [
        {
          "internalType": "uint256",
          "name": "_bidId",
          "type": "uint256"
        },
        {
          "internalType": "uint256",
          "name": "_timestamp",
          "type": "uint256"
        }
      ],
      "name": "calculateAmountDue",
      "outputs": [
        {
          "components": [
            {
              "internalType": "uint256",
              "name": "principal",
              "type": "uint256"
            },
            {
              "internalType": "uint256",
              "name": "interest",
              "type": "uint256"
            }
          ],
          "internalType": "struct Payment",
          "name": "due",
          "type": "tuple"
        }
      ],
      "stateMutability": "view",
      "type": "function"
    },
    {
      "inputs": [
        {
          "internalType": "uint256",
          "name": "_bidId",
          "type": "uint256"
        }
      ],
      "name": "calculateAmountDue",
      "outputs": [
        {
          "components": [
            {
              "internalType": "uint256",
              "name": "principal",
              "type": "uint256"
            },
            {
              "internalType": "uint256",
              "name": "interest",
              "type": "uint256"
            }
          ],
          "internalType": "struct Payment",
          "name": "due",
          "type": "tuple"
        }
      ],
      "stateMutability": "view",
      "type": "function"
    },
    {
      "inputs": [
        {
          "internalType": "uint256",
          "name": "_bidId",
          "type": "uint256"
        },
        {
          "internalType": "uint256",
          "name": "_timestamp",
          "type": "uint256"
        }
      ],
      "name": "calculateAmountOwed",
      "outputs": [
        {
          "components": [
            {
              "internalType": "uint256",
              "name": "principal",
              "type": "uint256"
            },
            {
              "internalType": "uint256",
              "name": "interest",
              "type": "uint256"
            }
          ],
          "internalType": "struct Payment",
          "name": "owed",
          "type": "tuple"
        }
      ],
      "stateMutability": "view",
      "type": "function"
    },
    {
      "inputs": [
        {
          "internalType": "uint256",
          "name": "_bidId",
          "type": "uint256"
        }
      ],
      "name": "calculateAmountOwed",
      "outputs": [
        {
          "components": [
            {
              "internalType": "uint256",
              "name": "principal",
              "type": "uint256"
            },
            {
              "internalType": "uint256",
              "name": "interest",
              "type": "uint256"
            }
          ],
          "internalType": "struct Payment",
          "name": "owed",
          "type": "tuple"
        }
      ],
      "stateMutability": "view",
      "type": "function"
    },
    {
      "inputs": [
        {
          "internalType": "uint256",
          "name": "_bidId",
          "type": "uint256"
        }
      ],
      "name": "calculateNextDueDate",
      "outputs": [
        {
          "internalType": "uint32",
          "name": "dueDate_",
          "type": "uint32"
        }
      ],
      "stateMutability": "view",
      "type": "function"
    },
    {
      "inputs": [
        {
          "internalType": "uint256",
          "name": "_bidId",
          "type": "uint256"
        }
      ],
      "name": "cancelBid",
      "outputs": [],
      "stateMutability": "nonpayable",
      "type": "function"
    },
    {
      "inputs": [],
      "name": "collateralManager",
      "outputs": [
        {
          "internalType": "contract ICollateralManager",
          "name": "",
          "type": "address"
        }
      ],
      "stateMutability": "view",
      "type": "function"
    },
    {
      "inputs": [
        {
          "internalType": "uint256",
          "name": "_bidId",
          "type": "uint256"
        }
      ],
      "name": "getBidState",
      "outputs": [
        {
          "internalType": "enum BidState",
          "name": "",
          "type": "uint8"
        }
      ],
      "stateMutability": "view",
      "type": "function"
    },
    {
      "inputs": [
        {
          "internalType": "address",
          "name": "_borrower",
          "type": "address"
        }
      ],
      "name": "getBorrowerActiveLoanIds",
      "outputs": [
        {
          "internalType": "uint256[]",
          "name": "",
          "type": "uint256[]"
        }
      ],
      "stateMutability": "view",
      "type": "function"
    },
    {
      "inputs": [
        {
          "internalType": "address",
          "name": "_borrower",
          "type": "address"
        }
      ],
      "name": "getBorrowerLoanIds",
      "outputs": [
        {
          "internalType": "uint256[]",
          "name": "",
          "type": "uint256[]"
        }
      ],
      "stateMutability": "view",
      "type": "function"
    },
    {
      "inputs": [],
      "name": "getLendingTokens",
      "outputs": [
        {
          "internalType": "address[]",
          "name": "",
          "type": "address[]"
        }
      ],
      "stateMutability": "view",
      "type": "function"
    },
    {
      "inputs": [
        {
          "internalType": "uint256",
          "name": "_bidId",
          "type": "uint256"
        }
      ],
      "name": "getLoanBorrower",
      "outputs": [
        {
          "internalType": "address",
          "name": "borrower_",
          "type": "address"
        }
      ],
      "stateMutability": "view",
      "type": "function"
    },
    {
      "inputs": [
        {
          "internalType": "uint256",
          "name": "_bidId",
          "type": "uint256"
        }
      ],
      "name": "getLoanLender",
      "outputs": [
        {
          "internalType": "address",
          "name": "lender_",
          "type": "address"
        }
      ],
      "stateMutability": "view",
      "type": "function"
    },
    {
      "inputs": [
        {
          "internalType": "uint256",
          "name": "_bidId",
          "type": "uint256"
        }
      ],
      "name": "getLoanLendingToken",
      "outputs": [
        {
          "internalType": "address",
          "name": "token_",
          "type": "address"
        }
      ],
      "stateMutability": "view",
      "type": "function"
    },
    {
      "inputs": [
        {
          "internalType": "uint256",
          "name": "_bidId",
          "type": "uint256"
        }
      ],
      "name": "getMetadataURI",
      "outputs": [
        {
          "internalType": "string",
          "name": "metadataURI_",
          "type": "string"
        }
      ],
      "stateMutability": "view",
      "type": "function"
    },
    {
      "inputs": [
        {
          "internalType": "uint256",
          "name": "_marketId",
          "type": "uint256"
        },
        {
          "internalType": "address",
          "name": "_forwarder",
          "type": "address"
        },
        {
          "internalType": "address",
          "name": "_account",
          "type": "address"
        }
      ],
      "name": "hasApprovedMarketForwarder",
      "outputs": [
        {
          "internalType": "bool",
          "name": "",
          "type": "bool"
        }
      ],
      "stateMutability": "view",
      "type": "function"
    },
    {
      "inputs": [
        {
          "internalType": "uint16",
          "name": "_protocolFee",
          "type": "uint16"
        },
        {
          "internalType": "address",
          "name": "_marketRegistry",
          "type": "address"
        },
        {
          "internalType": "address",
          "name": "_reputationManager",
          "type": "address"
        },
        {
          "internalType": "address",
          "name": "_lenderCommitmentForwarder",
          "type": "address"
        },
        {
          "internalType": "address[]",
          "name": "_lendingTokens",
          "type": "address[]"
        },
        {
          "internalType": "address",
          "name": "_collateralManagerAddress",
          "type": "address"
        }
      ],
      "name": "initialize",
      "outputs": [],
      "stateMutability": "nonpayable",
      "type": "function"
    },
    {
      "inputs": [
        {
          "internalType": "uint256",
          "name": "_bidId",
          "type": "uint256"
        }
      ],
      "name": "isLoanDefaulted",
      "outputs": [
        {
          "internalType": "bool",
          "name": "",
          "type": "bool"
        }
      ],
      "stateMutability": "view",
      "type": "function"
    },
    {
      "inputs": [
        {
          "internalType": "uint256",
          "name": "_bidId",
          "type": "uint256"
        }
      ],
      "name": "isLoanExpired",
      "outputs": [
        {
          "internalType": "bool",
          "name": "",
          "type": "bool"
        }
      ],
      "stateMutability": "view",
      "type": "function"
    },
    {
      "inputs": [
        {
          "internalType": "uint256",
          "name": "_bidId",
          "type": "uint256"
        }
      ],
      "name": "isPaymentLate",
      "outputs": [
        {
          "internalType": "bool",
          "name": "",
          "type": "bool"
        }
      ],
      "stateMutability": "view",
      "type": "function"
    },
    {
      "inputs": [
        {
          "internalType": "address",
          "name": "forwarder",
          "type": "address"
        }
      ],
      "name": "isTrustedForwarder",
      "outputs": [
        {
          "internalType": "bool",
          "name": "",
          "type": "bool"
        }
      ],
      "stateMutability": "view",
      "type": "function"
    },
    {
      "inputs": [
        {
          "internalType": "uint256",
          "name": "_marketId",
          "type": "uint256"
        },
        {
          "internalType": "address",
          "name": "_trustedMarketForwarder",
          "type": "address"
        }
      ],
      "name": "isTrustedMarketForwarder",
      "outputs": [
        {
          "internalType": "bool",
          "name": "",
          "type": "bool"
        }
      ],
      "stateMutability": "view",
      "type": "function"
    },
    {
      "inputs": [
        {
          "internalType": "uint256",
          "name": "_bidId",
          "type": "uint256"
        }
      ],
      "name": "lastRepaidTimestamp",
      "outputs": [
        {
          "internalType": "uint32",
          "name": "",
          "type": "uint32"
        }
      ],
      "stateMutability": "view",
      "type": "function"
    },
    {
      "inputs": [
        {
          "internalType": "uint256",
          "name": "_bidId",
          "type": "uint256"
        }
      ],
      "name": "lenderAcceptBid",
      "outputs": [
        {
          "internalType": "uint256",
          "name": "amountToProtocol",
          "type": "uint256"
        },
        {
          "internalType": "uint256",
          "name": "amountToMarketplace",
          "type": "uint256"
        },
        {
          "internalType": "uint256",
          "name": "amountToBorrower",
          "type": "uint256"
        }
      ],
      "stateMutability": "nonpayable",
      "type": "function"
    },
    {
      "inputs": [],
      "name": "lenderCommitmentForwarder",
      "outputs": [
        {
          "internalType": "address",
          "name": "",
          "type": "address"
        }
      ],
      "stateMutability": "view",
      "type": "function"
    },
    {
      "inputs": [
        {
          "internalType": "address",
          "name": "",
          "type": "address"
        },
        {
          "internalType": "address",
          "name": "",
          "type": "address"
        }
      ],
      "name": "lenderVolumeFilled",
      "outputs": [
        {
          "internalType": "uint256",
          "name": "",
          "type": "uint256"
        }
      ],
      "stateMutability": "view",
      "type": "function"
    },
    {
      "inputs": [
        {
          "internalType": "uint256",
          "name": "_bidId",
          "type": "uint256"
        }
      ],
      "name": "liquidateLoanFull",
      "outputs": [],
      "stateMutability": "nonpayable",
      "type": "function"
    },
    {
      "inputs": [
        {
          "internalType": "uint256",
          "name": "_bidId",
          "type": "uint256"
        }
      ],
      "name": "marketOwnerCancelBid",
      "outputs": [],
      "stateMutability": "nonpayable",
      "type": "function"
    },
    {
      "inputs": [],
      "name": "marketRegistry",
      "outputs": [
        {
          "internalType": "contract IMarketRegistry",
          "name": "",
          "type": "address"
        }
      ],
      "stateMutability": "view",
      "type": "function"
    },
    {
      "inputs": [
        {
          "internalType": "uint256",
          "name": "_bidId",
          "type": "uint256"
        },
        {
          "internalType": "uint32",
          "name": "_timestamp",
          "type": "uint32"
        }
      ],
      "name": "mockAcceptedTimestamp",
      "outputs": [],
      "stateMutability": "nonpayable",
      "type": "function"
    },
    {
      "inputs": [
        {
          "internalType": "uint256",
          "name": "_bidId",
          "type": "uint256"
        }
      ],
      "name": "mockAcceptedTimestamp",
      "outputs": [],
      "stateMutability": "nonpayable",
      "type": "function"
    },
    {
      "inputs": [
        {
          "components": [
            {
              "internalType": "address",
              "name": "borrower",
              "type": "address"
            },
            {
              "internalType": "address",
              "name": "receiver",
              "type": "address"
            },
            {
              "internalType": "address",
              "name": "lender",
              "type": "address"
            },
            {
              "internalType": "uint256",
              "name": "marketplaceId",
              "type": "uint256"
            },
            {
              "internalType": "bytes32",
              "name": "_metadataURI",
              "type": "bytes32"
            },
            {
              "components": [
                {
                  "internalType": "contract ERC20",
                  "name": "lendingToken",
                  "type": "address"
                },
                {
                  "internalType": "uint256",
                  "name": "principal",
                  "type": "uint256"
                },
                {
                  "components": [
                    {
                      "internalType": "uint256",
                      "name": "principal",
                      "type": "uint256"
                    },
                    {
                      "internalType": "uint256",
                      "name": "interest",
                      "type": "uint256"
                    }
                  ],
                  "internalType": "struct Payment",
                  "name": "totalRepaid",
                  "type": "tuple"
                },
                {
                  "internalType": "uint32",
                  "name": "timestamp",
                  "type": "uint32"
                },
                {
                  "internalType": "uint32",
                  "name": "acceptedTimestamp",
                  "type": "uint32"
                },
                {
                  "internalType": "uint32",
                  "name": "lastRepaidTimestamp",
                  "type": "uint32"
                },
                {
                  "internalType": "uint32",
                  "name": "loanDuration",
                  "type": "uint32"
                }
              ],
              "internalType": "struct LoanDetails",
              "name": "loanDetails",
              "type": "tuple"
            },
            {
              "components": [
                {
                  "internalType": "uint256",
                  "name": "paymentCycleAmount",
                  "type": "uint256"
                },
                {
                  "internalType": "uint32",
                  "name": "paymentCycle",
                  "type": "uint32"
                },
                {
                  "internalType": "uint16",
                  "name": "APR",
                  "type": "uint16"
                }
              ],
              "internalType": "struct Terms",
              "name": "terms",
              "type": "tuple"
            },
            {
              "internalType": "enum BidState",
              "name": "state",
              "type": "uint8"
            },
            {
              "internalType": "enum PaymentType",
              "name": "paymentType",
              "type": "uint8"
            }
          ],
          "internalType": "struct Bid",
          "name": "_bid",
          "type": "tuple"
        }
      ],
      "name": "mockBid",
      "outputs": [],
      "stateMutability": "nonpayable",
      "type": "function"
    },
    {
      "inputs": [
        {
          "internalType": "uint256",
          "name": "_bidId",
          "type": "uint256"
        },
        {
          "internalType": "uint32",
          "name": "_timestamp",
          "type": "uint32"
        }
      ],
      "name": "mockLastRepaidTimestamp",
      "outputs": [],
      "stateMutability": "nonpayable",
      "type": "function"
    },
    {
      "inputs": [],
      "name": "owner",
      "outputs": [
        {
          "internalType": "address",
          "name": "",
          "type": "address"
        }
      ],
      "stateMutability": "view",
      "type": "function"
    },
    {
      "inputs": [],
      "name": "pauseProtocol",
      "outputs": [],
      "stateMutability": "nonpayable",
      "type": "function"
    },
    {
      "inputs": [],
      "name": "paused",
      "outputs": [
        {
          "internalType": "bool",
          "name": "",
          "type": "bool"
        }
      ],
      "stateMutability": "view",
      "type": "function"
    },
    {
      "inputs": [],
      "name": "protocolFee",
      "outputs": [
        {
          "internalType": "uint16",
          "name": "",
          "type": "uint16"
        }
      ],
      "stateMutability": "view",
      "type": "function"
    },
    {
      "inputs": [
        {
          "internalType": "address",
          "name": "_lendingToken",
          "type": "address"
        }
      ],
      "name": "removeLendingToken",
      "outputs": [],
      "stateMutability": "nonpayable",
      "type": "function"
    },
    {
      "inputs": [],
      "name": "renounceOwnership",
      "outputs": [],
      "stateMutability": "nonpayable",
      "type": "function"
    },
    {
      "inputs": [
        {
          "internalType": "uint256",
          "name": "_bidId",
          "type": "uint256"
        },
        {
          "internalType": "uint256",
          "name": "_amount",
          "type": "uint256"
        }
      ],
      "name": "repayLoan",
      "outputs": [],
      "stateMutability": "nonpayable",
      "type": "function"
    },
    {
      "inputs": [
        {
          "internalType": "uint256",
          "name": "_bidId",
          "type": "uint256"
        }
      ],
      "name": "repayLoanFull",
      "outputs": [],
      "stateMutability": "nonpayable",
      "type": "function"
    },
    {
      "inputs": [
        {
          "internalType": "uint256",
          "name": "_bidId",
          "type": "uint256"
        }
      ],
      "name": "repayLoanMinimum",
      "outputs": [],
      "stateMutability": "nonpayable",
      "type": "function"
    },
    {
      "inputs": [],
      "name": "reputationManager",
      "outputs": [
        {
          "internalType": "contract IReputationManager",
          "name": "",
          "type": "address"
        }
      ],
      "stateMutability": "view",
      "type": "function"
    },
    {
      "inputs": [
        {
          "internalType": "address",
          "name": "_collateralManager",
          "type": "address"
        }
      ],
      "name": "setCollateralManager",
      "outputs": [],
      "stateMutability": "nonpayable",
      "type": "function"
    },
    {
      "inputs": [
        {
          "internalType": "uint16",
          "name": "newFee",
          "type": "uint16"
        }
      ],
      "name": "setProtocolFee",
      "outputs": [],
      "stateMutability": "nonpayable",
      "type": "function"
    },
    {
      "inputs": [
        {
          "internalType": "address",
          "name": "_reputationManager",
          "type": "address"
        }
      ],
      "name": "setReputationManager",
      "outputs": [],
      "stateMutability": "nonpayable",
      "type": "function"
    },
    {
      "inputs": [
        {
          "internalType": "uint256",
          "name": "_marketId",
          "type": "uint256"
        },
        {
          "internalType": "address",
          "name": "_forwarder",
          "type": "address"
        }
      ],
      "name": "setTrustedMarketForwarder",
      "outputs": [],
      "stateMutability": "nonpayable",
      "type": "function"
    },
    {
      "inputs": [
        {
          "internalType": "uint256",
          "name": "_version",
          "type": "uint256"
        }
      ],
      "name": "setVersion",
      "outputs": [],
      "stateMutability": "nonpayable",
      "type": "function"
    },
    {
      "inputs": [
        {
          "internalType": "address",
          "name": "_lendingToken",
          "type": "address"
        },
        {
          "internalType": "uint256",
          "name": "_marketplaceId",
          "type": "uint256"
        },
        {
          "internalType": "uint256",
          "name": "_principal",
          "type": "uint256"
        },
        {
          "internalType": "uint32",
          "name": "_duration",
          "type": "uint32"
        },
        {
          "internalType": "uint16",
          "name": "_APR",
          "type": "uint16"
        },
        {
          "internalType": "string",
          "name": "_metadataURI",
          "type": "string"
        },
        {
          "internalType": "address",
          "name": "_receiver",
          "type": "address"
        }
      ],
      "name": "submitBid",
      "outputs": [
        {
          "internalType": "uint256",
          "name": "bidId_",
          "type": "uint256"
        }
      ],
      "stateMutability": "nonpayable",
      "type": "function"
    },
    {
      "inputs": [
        {
          "internalType": "address",
          "name": "_lendingToken",
          "type": "address"
        },
        {
          "internalType": "uint256",
          "name": "_marketplaceId",
          "type": "uint256"
        },
        {
          "internalType": "uint256",
          "name": "_principal",
          "type": "uint256"
        },
        {
          "internalType": "uint32",
          "name": "_duration",
          "type": "uint32"
        },
        {
          "internalType": "uint16",
          "name": "_APR",
          "type": "uint16"
        },
        {
          "internalType": "string",
          "name": "_metadataURI",
          "type": "string"
        },
        {
          "internalType": "address",
          "name": "_receiver",
          "type": "address"
        },
        {
          "components": [
            {
              "internalType": "enum CollateralType",
              "name": "_collateralType",
              "type": "uint8"
            },
            {
              "internalType": "uint256",
              "name": "_amount",
              "type": "uint256"
            },
            {
              "internalType": "uint256",
              "name": "_tokenId",
              "type": "uint256"
            },
            {
              "internalType": "address",
              "name": "_collateralAddress",
              "type": "address"
            }
          ],
          "internalType": "struct Collateral[]",
          "name": "_collateralInfo",
          "type": "tuple[]"
        }
      ],
      "name": "submitBid",
      "outputs": [
        {
          "internalType": "uint256",
          "name": "bidId_",
          "type": "uint256"
        }
      ],
      "stateMutability": "nonpayable",
      "type": "function"
    },
    {
      "inputs": [
        {
          "internalType": "address",
          "name": "",
          "type": "address"
        }
      ],
      "name": "totalVolumeFilled",
      "outputs": [
        {
          "internalType": "uint256",
          "name": "",
          "type": "uint256"
        }
      ],
      "stateMutability": "view",
      "type": "function"
    },
    {
      "inputs": [
        {
          "internalType": "address",
          "name": "newOwner",
          "type": "address"
        }
      ],
      "name": "transferOwnership",
      "outputs": [],
      "stateMutability": "nonpayable",
      "type": "function"
    },
    {
      "inputs": [],
      "name": "unpauseProtocol",
      "outputs": [],
      "stateMutability": "nonpayable",
      "type": "function"
    },
    {
      "inputs": [
        {
          "internalType": "uint256",
          "name": "",
          "type": "uint256"
        }
      ],
      "name": "uris",
      "outputs": [
        {
          "internalType": "string",
          "name": "",
          "type": "string"
        }
      ],
      "stateMutability": "view",
      "type": "function"
    },
    {
      "inputs": [],
      "name": "version",
      "outputs": [
        {
          "internalType": "uint256",
          "name": "",
          "type": "uint256"
        }
      ],
      "stateMutability": "view",
      "type": "function"
    }
  ],
  "bytecode": {
    "object": "0x60a060405260006097553480156200001657600080fd5b50604051620055d0380380620055d083398101604081905262000039916200004b565b6001600160a01b03166080526200007d565b6000602082840312156200005e57600080fd5b81516001600160a01b03811681146200007657600080fd5b9392505050565b608051615530620000a0600039600081816107c00152613c1c01526155306000f3fe608060405234801561001057600080fd5b50600436106103db5760003560e01c80636b868afb1161020a578063a8cb5d6811610125578063d87569cc116100b8578063e4467f3511610087578063e4467f3514610ae1578063e8cbab0914610af4578063ecb96fe614610b07578063f2fde38b14610b1a578063f93b6be514610b2d57600080fd5b8063d87569cc14610aa0578063d974cc5714610ab3578063dbf6248914610ac6578063df872adf14610ace57600080fd5b8063bde644fb116100f4578063bde644fb14610a34578063bf77ffae14610a47578063d4eda4cf14610a7a578063d76ac91f14610a8d57600080fd5b8063a8cb5d68146109bd578063b0e21e8a146109eb578063b5d34fcd14610a01578063ba6d5b1514610a2157600080fd5b80638a700b531161019d5780639a11e3391161016c5780639a11e33914610958578063a10905ea1461096b578063a51e2bad14610997578063a75021ba146109aa57600080fd5b80638a700b53146109185780638ac473191461092b5780638da5cb5b146109345780639703ef351461094557600080fd5b80637bbd53d7116101d95780637bbd53d7146108cc5780638288da8a146108df578063837c0bf6146108f2578063842a05d41461090557600080fd5b80636b868afb1461088b5780636c6ca79c1461089e578063706a43c3146108b1578063715018a6146108c457600080fd5b806323be345c116102fa57806354fd4d501161028d5780635bf71ef61161025c5780635bf71ef61461082e5780635c975abb146108415780636aedfe68146108525780636b76c0851461086557600080fd5b806354fd4d501461079457806356a837f41461079d578063572b6c05146107b05780635be344ba146107f057600080fd5b80633ef0a2f7116102c95780633ef0a2f714610622578063408def1e1461064b5780634148f94c1461065e5780634423c5f11461067857600080fd5b806323be345c146105c95780632519dc79146105dc5780632e9332d4146105fc5780633819bcdc1461060f57600080fd5b80631289b396116103725780631d123633116103415780631d1236331461057b578063206c54c71461058e5780632357ab7b146105a1578063235d5a7b146105b457600080fd5b80631289b396146105065780631420a2661461050f578063145730331461052457806319b353de1461056857600080fd5b80631042b85f116103ae5780631042b85f1461047857806310618223146104985780631253c546146104ab578063127caa88146104cb57600080fd5b8063054de0ff146103e057806306f33a9214610409578063089487b51461042a578063093f561714610455575b600080fd5b6103f36103ee366004614506565b610b35565b6040516104009190614523565b60405180910390f35b61041c6104173660046145d2565b610b5f565b604051908152602001610400565b61041c610438366004614674565b60a360209081526000928352604080842090915290825290205481565b6104686104633660046146ad565b610b86565b6040519015158152602001610400565b61048b6104863660046146c6565b610bdb565b60405161040091906146e8565b6104686104a63660046146ad565b610c60565b6104be6104b93660046146ad565b610cf8565b604051610400919061474f565b6104f16104d93660046146ad565b60a26020526000908152604090205463ffffffff1681565b60405163ffffffff9091168152602001610400565b61041c609b5481565b61052261051d366004614762565b610d92565b005b6105506105323660046146ad565b6000908152609860205260409020600501546001600160a01b031690565b6040516001600160a01b039091168152602001610400565b610468610576366004614787565b610ee1565b6103f3610589366004614506565b610f20565b61052261059c3660046146ad565b610f8c565b6105226105af3660046147c9565b6110f0565b6105bc611174565b60405161040091906147ee565b60aa54610550906001600160a01b031681565b61041c6105ea366004614506565b60a46020526000908152604090205481565b61052261060a366004614762565b611185565b61041c61061d36600461482f565b611268565b6105506106303660046146ad565b6000908152609860205260409020546001600160a01b031690565b6105226106593660046146ad565b60a555565b610666600781565b60405160ff9091168152602001610400565b61077f6106863660046146ad565b60986020908152600091825260409182902080546001820154600283015460038401546004850154875160e08101895260058701546001600160a01b0390811682526006880154828a01528951808b018b52600789015481526008890154818b0152828b0152600988015463ffffffff808216606080860191909152600160201b80840483166080870152600160401b8404831660a0870152600160601b909304821660c08601528c519081018d52600a8b01548152600b8b01549182169b81019b909b520461ffff1699890199909952600c909601549488169793841696939092169490939192909160ff8082169161010090041689565b60405161040099989796959493929190614895565b61041c60a55481565b6105226107ab366004614506565b611299565b6104686107be366004614506565b7f00000000000000000000000000000000000000000000000000000000000000006001600160a01b0390811691161490565b6105226107fe3660046146ad565b6000908152609860205260409020600901805467ffffffff000000001916600160201b4263ffffffff1602179055565b61052261083c3660046147c9565b6112c3565b60655462010000900460ff16610468565b61048b6108603660046146c6565b611344565b6104f16108733660046146ad565b60a16020526000908152604090205463ffffffff1681565b609f54610550906001600160a01b031681565b61048b6108ac3660046146ad565b6113c9565b6104f16108bf3660046146ad565b61143a565b61052261157c565b61041c6108da36600461498e565b611590565b6105226108ed3660046146ad565b61169c565b610522610900366004614a8e565b611873565b610522610913366004614506565b611aad565b6105226109263660046146c6565b611b56565b61041c60975481565b6033546001600160a01b0316610550565b6105226109533660046146ad565b611c58565b6105226109663660046146ad565b611d0d565b6105506109793660046146ad565b6000908152609860205260409020600201546001600160a01b031690565b6104f16109a53660046146ad565b611dc4565b6105226109b8366004614506565b611ddb565b6109d06109cb3660046146ad565b611df2565b60408051938452602084019290925290820152606001610400565b60655460405161ffff9091168152602001610400565b61041c610a0f366004614506565b609a6020526000908152604090205481565b60a954610550906001600160a01b031681565b6104be610a423660046146ad565b612470565b610a6d610a553660046146ad565b6000908152609860205260409020600c015460ff1690565b6040516104009190614b5f565b610522610a883660046146ad565b612587565b610522610a9b366004614506565b612642565b610468610aae366004614762565b6126ac565b61048b610ac13660046146ad565b6126e6565b610522612757565b610522610adc366004614b6d565b61276f565b610522610aef366004614b86565b6127e5565b610468610b023660046146ad565b61284b565b609e54610550906001600160a01b031681565b610522610b28366004614506565b6128dc565b610522612952565b6001600160a01b038116600090815260a060205260409020606090610b599061296a565b92915050565b6000610b69612977565b610b7989898989898989896129c3565b9998505050505050505050565b600060036000838152609860205260409020600c015460ff166005811115610bb057610bb061485b565b14610bbd57506000919050565b610bc68261143a565b63ffffffff164263ffffffff16119050919050565b604080518082019091526000808252602082015260008381526098602052604090206003600c82015460ff166005811115610c1857610c1861485b565b141580610c3657506009810154600160201b900463ffffffff168311155b15610c415750610b59565b600080610c4e8386612fd9565b91865250602085015250505092915050565b60008181526098602052604081206001600c82015460ff166005811115610c8957610c8961485b565b14610c975750600092915050565b600083815260a2602052604081205463ffffffff169003610cbb5750600092915050565b600083815260a260205260409020546009820154610ce29163ffffffff9081169116614bb9565b63ffffffff164263ffffffff1611915050919050565b60a66020526000908152604090208054610d1190614bd6565b80601f0160208091040260200160405190810160405280929190818152602001828054610d3d90614bd6565b8015610d8a5780601f10610d5f57610100808354040283529160200191610d8a565b820191906000526020600020905b815481529060010190602001808311610d6d57829003601f168201915b505050505081565b610d9a613058565b609e54604051633d36902960e01b8152600481018590526001600160a01b039283169290911690633d369029906024016020604051808303816000875af1158015610de9573d6000803e3d6000fd5b505050506040513d601f19601f82011682018060405250810190610e0d9190614c0a565b6001600160a01b031614610e685760405162461bcd60e51b815260206004820152601f60248201527f43616c6c6572206d75737420626520746865206d61726b6574206f776e65720060448201526064015b60405180910390fd5b600082815260a76020526040902080546001600160a01b0319166001600160a01b038316179055817fa593acf9edc343669c7fc50d2caa3911326adef438361f0fa911be85c9e296a482610eba613058565b604080516001600160a01b0393841681529290911660208301520160405180910390a25050565b6000610eed84846126ac565b8015610f1657506001600160a01b038316600090815260a860205260409020610f169083613062565b90505b9392505050565b6001600160a01b038116600090815260996020908152604091829020805483518184028101840190945280845260609392830182828015610f8057602002820191906000526020600020905b815481526020019060010190808311610f6c575b50505050509050919050565b609e5460008281526098602052604090819020600301549051633d36902960e01b81526001600160a01b0390921691633d36902991610fd19160040190815260200190565b6020604051808303816000875af1158015610ff0573d6000803e3d6000fd5b505050506040513d601f19601f820116820180604052508101906110149190614c0a565b6001600160a01b0316611025613058565b6001600160a01b0316146110b9576040516347bc33cb60e11b8152600481018290526060602482015260146064820152731b585c9ad95d13dddb995c90d85b98d95b109a5960621b608482015260a06044820152602160a48201527f4f6e6c7920746865206d61726b6574206f776e65722063616e2063616e63656c60c4820152602160f81b60e482015261010401610e5f565b6110c281613084565b60405181907ff3f271d754f5264e0d143bf9be577d6eba153b0d833bd3a127d7b1a280bb13f190600090a250565b60008163ffffffff161161113d5760405162461bcd60e51b8152602060048201526014602482015273041636365707465642074696d657374616d7020360641b6044820152606401610e5f565b600091825260986020526040909120600901805463ffffffff909216600160201b0267ffffffff0000000019909216919091179055565b6060611180609c61296a565b905090565b61118f82826126ac565b6111eb5760405162461bcd60e51b815260206004820152602760248201527f466f72776172646572206d757374206265207472757374656420627920746865604482015266081b585c9ad95d60ca1b6064820152608401610e5f565b6112146111f6613058565b6001600160a01b038316600090815260a86020526040902090613138565b50806001600160a01b0316827f65d6b5305e8c0e58e88454a1aeecae0f55975222338b25abd0997b4d305056a1611249613058565b6040516001600160a01b03909116815260200160405180910390a35050565b6099602052816000526040600020818154811061128457600080fd5b90600052602060002001600091509150505481565b6112a161314d565b609f80546001600160a01b0319166001600160a01b0392909216919091179055565b60008163ffffffff161161130e5760405162461bcd60e51b815260206004820152601260248201527105265706169642074696d657374616d7020360741b6044820152606401610e5f565b600091825260986020526040909120600901805463ffffffff909216600160401b0263ffffffff60401b19909216919091179055565b604080518082018252600080825260208083018290528582526098905291909120600c81015460039060ff1660058111156113815761138161485b565b14158061139f57506009810154600160201b900463ffffffff168311155b156113aa5750610b59565b6000806113b78386612fd9565b90865260208601525050505092915050565b604080518082019091526000808252602082015260036000838152609860205260409020600c015460ff1660058111156114055761140561485b565b1461140f57919050565b600082815260986020526040812081906114299042612fd9565b918552506020840152509092915050565b6000818152609860205260408120600c81015460039060ff1660058111156114645761146461485b565b1461146f5750919050565b600b81015460098201546114939163ffffffff90811691600160201b900416614bb9565b6009820154909250600090600160201b900463ffffffff166114b485611dc4565b6114be9190614c27565b905063ffffffff81161561151557600b8201546000906114e49063ffffffff1683614c5a565b6114ef906001614bb9565b600b8401549091506115079063ffffffff1682614c7d565b6115119085614bb9565b9350505b600982015461153a9063ffffffff600160601b8204811691600160201b900416614bb9565b63ffffffff168363ffffffff1611156115755760098201546115729063ffffffff600160601b8204811691600160201b900416614bb9565b92505b5050919050565b61158461314d565b61158e60006131c6565b565b600061159a612977565b6115aa8b8b8b8b8b8b8b8b6129c3565b60aa54604051631532dc4560e01b81529192506000916001600160a01b0390911690631532dc45906115e490859088908890600401614cb2565b6020604051808303816000875af1158015611603573d6000803e3d6000fd5b505050506040513d601f19601f820116820180604052508101906116279190614d53565b905060018115151461168d5760405162461bcd60e51b815260206004820152602960248201527f436f6c6c61746572616c2062616c616e636520636f756c64206e6f74206265206044820152681d985b1a59185d195960ba1b6064820152608401610e5f565b509a9950505050505050505050565b60408051808201909152600d81526c3634b8bab4b230ba32a637b0b760991b6020820152819060036000838152609860205260409020600c015460ff1660058111156116ea576116ea61485b565b1461170c5781816040516347bc33cb60e11b8152600401610e5f929190614d6e565b6117158361284b565b6117615760405162461bcd60e51b815260206004820152601760248201527f4c6f616e206d7573742062652064656661756c7465642e0000000000000000006044820152606401610e5f565b6000838152609860205260408120908061177b8342612fd9565b92505091506117ac8660405180604001604052808581526020018481525083856117a59190614dbd565b6000613218565b600c8301805460ff1916600517905560038301546000906117cc906134da565b60aa5460405163f0472c4960e01b8152600481018a90526001600160a01b03808416602483015292935091169063f0472c4990604401600060405180830381600087803b15801561181c57600080fd5b505af1158015611830573d6000803e3d6000fd5b50506040516001600160a01b03841692508991507f73de9acc561f27528ab0a3b5dd63fefb4e59f95575891299a6f862a78779817690600090a350505050505050565b600054610100900460ff16158080156118935750600054600160ff909116105b806118ad5750303b1580156118ad575060005460ff166001145b6118c95760405162461bcd60e51b8152600401610e5f90614dd0565b6000805460ff1916600117905580156118ec576000805461ff0019166101001790555b6118f588613585565b6118fd6135bd565b60a980546001600160a01b038088166001600160a01b031992831617909255609e80548a8416908316179055609f805492891692909116919091179055611943826135ec565b826119905760405162461bcd60e51b815260206004820152601b60248201527f4e6f206c656e64696e6720746f6b656e732073706563696669656400000000006044820152606401610e5f565b60005b83811015611a5c576119d48585838181106119b0576119b0614e1e565b90506020020160208101906119c59190614506565b6001600160a01b03163b151590565b611a205760405162461bcd60e51b815260206004820152601a60248201527f6c656e64696e6720746f6b656e206e6f7420636f6e74726163740000000000006044820152606401610e5f565b611a4a858583818110611a3557611a35614e1e565b9050602002016020810190610a9b9190614506565b80611a5481614e34565b915050611993565b508015611aa3576000805461ff0019169055604051600181527f7f26b83ff96e1f2b6a682f133852f6798a09c465da95921460cefb38474024989060200160405180910390a15b5050505050505050565b600054600790610100900460ff16158015611acf575060005460ff8083169116105b611aeb5760405162461bcd60e51b8152600401610e5f90614dd0565b6000805461ffff191660ff831617610100179055611b0761314d565b611b10826135ec565b6000805461ff001916905560405160ff821681527f7f26b83ff96e1f2b6a682f133852f6798a09c465da95921460cefb3847402498906020015b60405180910390a15050565b6040805180820190915260098152683932b830bca637b0b760b91b6020820152829060036000838152609860205260409020600c015460ff166005811115611ba057611ba061485b565b14611bc25781816040516347bc33cb60e11b8152600401610e5f929190614d6e565b600084815260986020526040812081908190611bde9042612fd9565b919450925090506000611bf18284614dbd565b905080871015611c245760405162dd9d0f60e61b8152600481018990526024810188905260448101829052606401610e5f565b611aa3886040518060400160405280858b611c3f9190614e4d565b8152602001859052611c518588614dbd565b6001613218565b600081815260986020526040902080546003909101546001600160a01b0390911690611c83906134da565b6001600160a01b031614611d01576040516347bc33cb60e11b81526004810182905260606024820152600960648201526818d85b98d95b109a5960ba1b608482015260a06044820152601e60a48201527f4f6e6c792074686520626964206f776e65722063616e2063616e63656c21000060c482015260e401610e5f565b611d0a81613084565b50565b6040805180820190915260098152683932b830bca637b0b760b91b6020820152819060036000838152609860205260409020600c015460ff166005811115611d5757611d5761485b565b14611d795781816040516347bc33cb60e11b8152600401610e5f929190614d6e565b60008381526098602052604081208190611d939042612fd9565b9250509150611dbd856040518060400160405280858152602001848152508385611c519190614dbd565b5050505050565b6000818152609860205260408120610b59906136f3565b611de361314d565b611dee609c82613739565b5050565b6000806000836040518060400160405280600f81526020016e1b195b99195c9058d8d95c1d109a59608a1b81525060016005811115611e3357611e3361485b565b6000838152609860205260409020600c015460ff166005811115611e5957611e5961485b565b14611e7b5781816040516347bc33cb60e11b8152600401610e5f929190614e60565b611e83612977565b60008681526098602052604081206003810154909190611ea2906134da565b609e546003840154604051633ef19a9b60e01b815260048101919091526001600160a01b03808416602483015292935060009290911690633ef19a9b9060440160408051808303816000875af1158015611f00573d6000803e3d6000fd5b505050506040513d601f19601f82011682018060405250810190611f249190614ead565b50905080611f6a5760405162461bcd60e51b81526020600482015260136024820152722737ba103b32b934b334b2b2103632b73232b960691b6044820152606401610e5f565b609e546003840154604051631cc672df60e01b81526001600160a01b0390921691631cc672df91611fa19160040190815260200190565b6020604051808303816000875af1158015611fc0573d6000803e3d6000fd5b505050506040513d601f19601f82011682018060405250810190611fe49190614d53565b156120245760405162461bcd60e51b815260206004820152601060248201526f13585c9ad95d081a5cc818db1bdcd95960821b6044820152606401610e5f565b61202d89610c60565b1561206c5760405162461bcd60e51b815260206004820152600f60248201526e109a59081a185cc8195e1c1a5c9959608a1b6044820152606401610e5f565b6009830180546bffffffffffffffff000000001916600160201b4263ffffffff1690810263ffffffff60401b191691909117600160401b91909102179055600c830180546003919060ff191660018302179055506002830180546001600160a01b0319166001600160a01b038481169190911790915560aa546040516346f0b08b60e11b8152600481018c9052911690638de1611690602401600060405180830381600087803b15801561211f57600080fd5b505af1158015612133573d6000803e3d6000fd5b5050505061215261214760655461ffff1690565b60068501549061374e565b609e54600385015460405163028ba63960e21b8152929a506121d3926001600160a01b0390921691630a2e98e4916121909160040190815260200190565b6020604051808303816000875af11580156121af573d6000803e3d6000fd5b505050506040513d601f19601f820116820180604052508101906121479190614ed9565b9650868884600501600101546121e99190614e4d565b6121f39190614e4d565b6002840154909650612230906001600160a01b031661221a6033546001600160a01b031690565b60058601546001600160a01b031691908b613760565b6002830154609e5460038501546040516332209bcb60e11b815260048101919091526122c6926001600160a01b039081169216906364413796906024016020604051808303816000875af115801561228c573d6000803e3d6000fd5b505050506040513d601f19601f820116820180604052508101906122b09190614c0a565b60058601546001600160a01b031691908a613760565b6002830154600184015460058501546122f0926001600160a01b0391821692908216911689613760565b600683015460058401546001600160a01b03908116600090815260a360209081526040808320600289015490941683529290529081208054909190612336908490614dbd565b9091555050600683015460058401546001600160a01b0316600090815260a460205260408120805490919061236c908490614dbd565b909155505082546001600160a01b0316600090815260a060205260409020612394908a6137c0565b5060028301546040516001600160a01b03909116908a907fde9d3bfa8771df6761c0afac2375c88c70a3aa30478e1bd15363294033b470ed90600090a3604051671c1c9bdd1bd8dbdb60c21b81528890600801604051908190038120908b907f476a21a61ac4a7da250e040733aa10facd2eeee584b2c009d178c3de3d8a12dc90600090a46040516a6d61726b6574706c61636560a81b81528790600b01604051908190038120908b907f476a21a61ac4a7da250e040733aa10facd2eeee584b2c009d178c3de3d8a12dc90600090a450505050509193909250565b600081815260a66020526040902080546060919061248d90614bd6565b80601f01602080910402602001604051908101604052809291908181526020018280546124b990614bd6565b80156125065780601f106124db57610100808354040283529160200191612506565b820191906000526020600020905b8154815290600101906020018083116124e957829003601f168201915b505050505090508060405160200161251e9190614ef6565b604051602081830303815290604052805190602001207fc5d2460186f7233c927e7db2dcc703c0e500b653ca82273b7bfad8045d85a47060001b03612582576000828152609860209081526040909120600401549061257e9082906137cc565b9150505b919050565b6040805180820190915260098152683932b830bca637b0b760b91b6020820152819060036000838152609860205260409020600c015460ff1660058111156125d1576125d161485b565b146125f35781816040516347bc33cb60e11b8152600401610e5f929190614d6e565b60008381526098602052604081208190819061260f9042612fd9565b92509250925061263a866040518060400160405280858152602001848152508386611c519190614dbd565b505050505050565b61264a61314d565b6001600160a01b0381163b6126a15760405162461bcd60e51b815260206004820152601f60248201527f496e636f7272656374206c656e64696e6720746f6b656e2061646472657373006044820152606401610e5f565b611dee609c82613138565b600082815260a760205260408120546001600160a01b0383811691161480610f1957505060a9546001600160a01b03908116911614919050565b604080518082019091526000808252602082015260036000838152609860205260409020600c015460ff1660058111156127225761272261485b565b1461272c57919050565b600082815260986020526040812081906127469042612fd9565b908552602085015250919392505050565b61275f61314d565b612767612977565b61158e613968565b6097546000908152609860205260409020819061278c8282615109565b9050506099600061279b613058565b6001600160a01b03168152602080820192909252604001600090812060978054825460018101845592845293832090910192909255815491906127dd83614e34565b919050555050565b6127ed61314d565b60655461ffff828116911614611d0a576065805461ffff83811661ffff198316811790935560408051938452911660208301819052917f4810ece076cee6c6042808956f3f65dad1bc72b75181341d7bed810d39deda0f9101611b4a565b60008181526098602052604081206003600c82015460ff1660058111156128745761287461485b565b146128825750600092915050565b600083815260a1602052604081205463ffffffff1690036128a65750600092915050565b600083815260a1602052604090205463ffffffff166128c484611dc4565b6128ce9042614c27565b63ffffffff16119392505050565b6128e461314d565b6001600160a01b0381166129495760405162461bcd60e51b815260206004820152602660248201527f4f776e61626c653a206e6577206f776e657220697320746865207a65726f206160448201526564647265737360d01b6064820152608401610e5f565b611d0a816131c6565b61295a61314d565b6129626139c7565b61158e613a16565b60606000610f1983613a53565b60655462010000900460ff161561158e5760405162461bcd60e51b815260206004820152601060248201526f14185d5cd8589b194e881c185d5cd95960821b6044820152606401610e5f565b6000806129cf896134da565b609e5460405163066e751360e01b8152600481018c90526001600160a01b0380841660248301529293506000929091169063066e75139060440160408051808303816000875af1158015612a27573d6000803e3d6000fd5b505050506040513d601f19601f82011682018060405250810190612a4b9190614ead565b50905080612a935760405162461bcd60e51b81526020600482015260156024820152742737ba103b32b934b334b2b2103137b93937bbb2b960591b6044820152606401610e5f565b609e54604051631cc672df60e01b8152600481018c90526001600160a01b0390911690631cc672df906024016020604051808303816000875af1158015612ade573d6000803e3d6000fd5b505050506040513d601f19601f82011682018060405250810190612b029190614d53565b15612b425760405162461bcd60e51b815260206004820152601060248201526f13585c9ad95d081a5cc818db1bdcd95960821b6044820152606401610e5f565b612b4d609c8c613062565b612b995760405162461bcd60e51b815260206004820152601c60248201527f4c656e64696e6720746f6b656e206e6f7420617574686f72697a6564000000006044820152606401610e5f565b609754600081815260986020526040902080546001600160a01b0319166001600160a01b03858116919091178255919450908516612be15780546001600160a01b0316612be3565b845b6001820180546001600160a01b03199081166001600160a01b0393841617909155600383018d90556005830180549091168e8316179055600682018b90556009820180546fffffffff0000000000000000ffffffff1916600160601b63ffffffff8d81169190910263ffffffff1916919091174291909116179055609e5460405163805deb5360e01b8152600481018e905291169063805deb53906024016020604051808303816000875af1158015612ca0573d6000803e3d6000fd5b505050506040513d601f19601f82011682018060405250810190612cc491906151b0565b600b8201805463ffffffff9290921665ffffffffffff1990921691909117600160201b61ffff8b1602179055609e546040516311bed5bb60e01b8152600481018d90526001600160a01b03909116906311bed5bb906024016020604051808303816000875af1158015612d3b573d6000803e3d6000fd5b505050506040513d601f19601f82011682018060405250810190612d5f91906151b0565b609754600090815260a1602052604090819020805463ffffffff191663ffffffff9390931692909217909155609e54905163082fc54d60e01b8152600481018d90526001600160a01b039091169063082fc54d906024016020604051808303816000875af1158015612dd5573d6000803e3d6000fd5b505050506040513d601f19601f82011682018060405250810190612df991906151b0565b609754600090815260a2602052604090819020805463ffffffff191663ffffffff9390931692909217909155609e54905163d6e794dd60e01b8152600481018d90526001600160a01b039091169063d6e794dd90602401602060405180830381865afa158015612e6d573d6000803e3d6000fd5b505050506040513d601f19601f82011682018060405250810190612e9191906151cd565b600c8201805461ff001916610100836001811115612eb157612eb161485b565b0217905550600c810154600b820154612edd91610100900460ff16908c908c9063ffffffff168c613aad565b600a820155609754600090815260a660205260409020612efe878983615246565b50600c8101805460ff19166001179055604051612f219088908890602001615306565b60408051808303601f19018152908290528051602091820120835460975460018601546001600160a01b0390811686529294929091169290917ff887b1f393f43fb94c5d50483df4bd410ffbf286128c5f24ff56c580ac7f731c910160405180910390a480546001600160a01b03166000908152609960209081526040822060978054825460018101845592855292842090910191909155805491612fc583614e34565b919050555050505098975050505050505050565b60068201546007830154600b840154600a8501546000938493849361304b9361ffff600160201b8304169163ffffffff166130138b6136f3565b60098c0154600c8d015463ffffffff928316928d92600160201b8104821692600160601b90910490911690610100900460ff16613b18565b9250925092509250925092565b6000611180613c18565b6001600160a01b03811660009081526001830160205260408120541515610f19565b60408051808201909152600981526818d85b98d95b109a5960ba1b6020820152819060016000838152609860205260409020600c015460ff1660058111156130ce576130ce61485b565b146130f05781816040516347bc33cb60e11b8152600401610e5f929190614e60565b600083815260986020526040808220600c01805460ff191660021790555184917fa0633b09ac3029a6746aa27d4db1407f5f287a10c41a6b2ad2859f4da9b2680b91a2505050565b6000610f19836001600160a01b038416613c5c565b613155613058565b6001600160a01b03166131706033546001600160a01b031690565b6001600160a01b03161461158e5760405162461bcd60e51b815260206004820181905260248201527f4f776e61626c653a2063616c6c6572206973206e6f7420746865206f776e65726044820152606401610e5f565b603380546001600160a01b038381166001600160a01b0319831681179093556040519116919082907f8be0079c531659141344cd1fd0a4f28419497f9722a3daafe3b4186f6b6457e090600090a35050565b6000848152609860209081526040822090850151855191929161323b9190614dbd565b609f54835460405163c7312e4760e01b81526001600160a01b039182166004820152602481018a905292935060009291169063c7312e47906044016020604051808303816000875af1158015613295573d6000803e3d6000fd5b505050506040513d601f19601f820116820180604052508101906132b99190615316565b905084821061338d57600c8301805460ff1916600417905582546001600160a01b0316600090815260a0602052604090208592506132f79088613cab565b50831561335d5760aa54604051632e1a7d4d60e01b8152600481018990526001600160a01b0390911690632e1a7d4d90602401600060405180830381600087803b15801561334457600080fd5b505af1158015613358573d6000803e3d6000fd5b505050505b60405187907f9a7851747cd7ffb3fe0a32caf3da48b31f27cebe131267051640f8b72fc4718690600090a26133b9565b60405187907f68ca97895fe2d09eab47e752271728ade667e72dda27e68c20eaa191a9c2187d90600090a25b6133e76133c984600301546134da565b600285015460058601546001600160a01b0390811692911685613760565b85516007840180546000906133fd908490614dbd565b9091555050602086015160088401805460009061341b908490614dbd565b909155505060098301805463ffffffff60401b1916600160401b4263ffffffff160217905560008160028111156134545761345461485b565b146134d157609f54835460405163c7312e4760e01b81526001600160a01b039182166004820152602481018a905291169063c7312e47906044016020604051808303816000875af11580156134ad573d6000803e3d6000fd5b505050506040513d601f19601f82011682018060405250810190611aa39190615316565b50505050505050565b60006134e882610aae613058565b1561357d5760131936013560601c6135258160a86000613506613058565b6001600160a01b03168152602081019190915260400160002090613062565b610b595760405162461bcd60e51b8152602060048201526024808201527f53656e646572206d75737420617070726f7665206d61726b657420666f727761604482015263393232b960e11b6064820152608401610e5f565b610b59613058565b600054610100900460ff166135ac5760405162461bcd60e51b8152600401610e5f90615333565b6135b4613cb7565b611d0a81613ce6565b600054610100900460ff166135e45760405162461bcd60e51b8152600401610e5f90615333565b61158e613d16565b600054610100900460ff166136135760405162461bcd60e51b8152600401610e5f90615333565b60aa546001600160a01b03161561366c5760405162461bcd60e51b815260206004820152601e60248201527f436f6c6c61746572616c204d616e6167657220616c72656164792073657400006044820152606401610e5f565b6001600160a01b0381163b6136d15760405162461bcd60e51b815260206004820152602560248201527f436f6c6c61746572616c204d616e61676572206d757374206265206120636f6e6044820152641d1c9858dd60da1b6064820152608401610e5f565b60aa80546001600160a01b0319166001600160a01b0392909216919091179055565b6009810154600090600160401b900463ffffffff1615613724576009820154600160401b900463ffffffff16610b59565b5060090154600160201b900463ffffffff1690565b6000610f19836001600160a01b038416613d4b565b6000610f19838361ffff166002613e45565b604080516001600160a01b0385811660248301528416604482015260648082018490528251808303909101815260849091019091526020810180516001600160e01b03166323b872dd60e01b1790526137ba908590613e64565b50505050565b6000610f198383613c5c565b606060006137db83600261537e565b6137e6906002614dbd565b67ffffffffffffffff8111156137fe576137fe6151ea565b6040519080825280601f01601f191660200182016040528015613828576020820181803683370190505b509050600360fc1b8160008151811061384357613843614e1e565b60200101906001600160f81b031916908160001a905350600f60fb1b8160018151811061387257613872614e1e565b60200101906001600160f81b031916908160001a905350600061389684600261537e565b6138a1906001614dbd565b90505b6001811115613919576f181899199a1a9b1b9c1cb0b131b232b360811b85600f16601081106138d5576138d5614e1e565b1a60f81b8282815181106138eb576138eb614e1e565b60200101906001600160f81b031916908160001a90535060049490941c9361391281615395565b90506138a4565b508315610f195760405162461bcd60e51b815260206004820181905260248201527f537472696e67733a20686578206c656e67746820696e73756666696369656e746044820152606401610e5f565b613970612977565b6065805462ff00001916620100001790557f62e78cea01bee320cd4e420270b5ea74000d11b0c9f74754ebdbfc544b05a2586139aa613058565b6040516001600160a01b03909116815260200160405180910390a1565b60655462010000900460ff1661158e5760405162461bcd60e51b815260206004820152601460248201527314185d5cd8589b194e881b9bdd081c185d5cd95960621b6044820152606401610e5f565b613a1e6139c7565b6065805462ff0000191690557f5db9ee0a495bf2e6ff9c91a7834c1ba4fdd244a5e8aa4e537bd38aeae4b073aa6139aa613058565b606081600001805480602002602001604051908101604052809291908181526020018280548015610f805760200282019190600052602060002090815481526020019060010190808311610f6c5750505050509050919050565b60006001866001811115613ac357613ac361485b565b03613b0057613af9613ae663ffffffff808616906301e1338090600a90613f3b16565b600a613af2888661374e565b9190613e45565b9050613b0f565b613b0c85858585613f61565b90505b95945050505050565b60008080613b268c8e614e4d565b92506000613b34848d61374e565b90506000613b428a8a614e4d565b90506301e13380613b53828461537e565b613b5d91906153ac565b92506000613b6b898b6153c0565b613b7590896153c0565b905060008c821280613b9057508d613b8d8689614dbd565b11155b90506001886001811115613ba657613ba661485b565b03613bba578015613bb5578695505b613c04565b600081613bc7578e613bd1565b613bd18689614dbd565b905060008e613be0868461537e565b613bea91906153ac565b9050613bff613bf98883614e4d565b8a614098565b975050505b505050509a509a509a975050505050505050565b60007f00000000000000000000000000000000000000000000000000000000000000006001600160a01b03163303613c57575060131936013560601c90565b503390565b6000818152600183016020526040812054613ca357508154600181810184556000848152602080822090930184905584548482528286019093526040902091909155610b59565b506000610b59565b6000610f198383613d4b565b600054610100900460ff16613cde5760405162461bcd60e51b8152600401610e5f90615333565b61158e6140ae565b600054610100900460ff16613d0d5760405162461bcd60e51b8152600401610e5f90615333565b611d0a816127e5565b600054610100900460ff16613d3d5760405162461bcd60e51b8152600401610e5f90615333565b6065805462ff000019169055565b60008181526001830160205260408120548015613e34576000613d6f600183614e4d565b8554909150600090613d8390600190614e4d565b9050818114613de8576000866000018281548110613da357613da3614e1e565b9060005260206000200154905080876000018481548110613dc657613dc6614e1e565b6000918252602080832090910192909255918252600188019052604090208390555b8554869080613df957613df96153e0565b600190038181906000526020600020016000905590558560010160008681526020019081526020016000206000905560019350505050610b59565b6000915050610b59565b5092915050565b6000613e50826140e5565b613e5a848661537e565b610f1691906153ac565b6000613eb9826040518060400160405280602081526020017f5361666545524332303a206c6f772d6c6576656c2063616c6c206661696c6564815250856001600160a01b03166140fd9092919063ffffffff16565b805190915015613f365780806020019051810190613ed79190614d53565b613f365760405162461bcd60e51b815260206004820152602a60248201527f5361666545524332303a204552433230206f7065726174696f6e20646964206e6044820152691bdd081cdd58d8d9595960b21b6064820152608401610e5f565b505050565b600082600003613f4d57506000610f19565b82613f57836140e5565b613e5a908661537e565b60008263ffffffff168463ffffffff161015613fcb5760405162461bcd60e51b815260206004820152602360248201527f504d543a206379636c65206475726174696f6e203c206c6f616e20647572617460448201526234b7b760e91b6064820152608401610e5f565b8161ffff16600003613ff757613ff0858463ffffffff168663ffffffff16600161410c565b9050614090565b600061400f8563ffffffff168563ffffffff1661415d565b9050670de0b6b3a764000060006140436301e1338061403d63ffffffff891661403789614194565b906141b8565b906141ec565b9050600061405b846140558486614dbd565b9061421c565b9050600061406d826140378c866141b8565b9050600061407b8584614e4d565b905061408782826141ec565b96505050505050505b949350505050565b60008183106140a75781610f19565b5090919050565b600054610100900460ff166140d55760405162461bcd60e51b8152600401610e5f90615333565b61158e6140e0613058565b6131c6565b60006140f282600a6154da565b610b5990606461537e565b6060610f168484600085614234565b60008061411a868686614365565b905060018360028111156141305761413061485b565b14801561414d57506000848061414857614148614c44565b868809115b15613b0f57613b0c600182614dbd565b6000821561418b5781614171600185614e4d565b61417b91906153ac565b614186906001614dbd565b610f19565b50600092915050565b6000610b596127106141b261ffff8516670de0b6b3a7640000614414565b90614420565b6000610f19670de0b6b3a76400006141b26141d38686614414565b6141e66002670de0b6b3a76400006153ac565b9061442c565b6000806141fa6002846153ac565b9050614090836141b261421587670de0b6b3a7640000614414565b849061442c565b6000610f198383670de0b6b3a76400006141b8614438565b6060824710156142955760405162461bcd60e51b815260206004820152602660248201527f416464726573733a20696e73756666696369656e742062616c616e636520666f6044820152651c8818d85b1b60d21b6064820152608401610e5f565b6001600160a01b0385163b6142ec5760405162461bcd60e51b815260206004820152601d60248201527f416464726573733a2063616c6c20746f206e6f6e2d636f6e74726163740000006044820152606401610e5f565b600080866001600160a01b031685876040516143089190614ef6565b60006040518083038185875af1925050503d8060008114614345576040519150601f19603f3d011682016040523d82523d6000602084013e61434a565b606091505b509150915061435a8282866144ad565b979650505050505050565b600080806000198587098587029250828110838203039150508060000361439f5783828161439557614395614c44565b0492505050610f19565b8084116143ab57600080fd5b60008486880960026001871981018816978890046003810283188082028403028082028403028082028403028082028403028082028403029081029092039091026000889003889004909101858311909403939093029303949094049190911702949350505050565b6000610f19828461537e565b6000610f1982846153ac565b6000610f198284614dbd565b60006144456002856154e6565b6000036144525782614454565b845b90506144616002856153ac565b93505b83156140905761447885868463ffffffff16565b94506144856002856154e6565b1561449b5761449881868463ffffffff16565b90505b6144a66002856153ac565b9350614464565b606083156144bc575081610f19565b8251156144cc5782518084602001fd5b8160405162461bcd60e51b8152600401610e5f919061474f565b6001600160a01b0381168114611d0a57600080fd5b8035612582816144e6565b60006020828403121561451857600080fd5b8135610f19816144e6565b6020808252825182820181905260009190848201906040850190845b8181101561455b5783518352928401929184019160010161453f565b50909695505050505050565b63ffffffff81168114611d0a57600080fd5b61ffff81168114611d0a57600080fd5b60008083601f84011261459b57600080fd5b50813567ffffffffffffffff8111156145b357600080fd5b6020830191508360208285010111156145cb57600080fd5b9250929050565b60008060008060008060008060e0898b0312156145ee57600080fd5b88356145f9816144e6565b97506020890135965060408901359550606089013561461781614567565b9450608089013561462781614579565b935060a089013567ffffffffffffffff81111561464357600080fd5b61464f8b828c01614589565b90945092505060c0890135614663816144e6565b809150509295985092959890939650565b6000806040838503121561468757600080fd5b8235614692816144e6565b915060208301356146a2816144e6565b809150509250929050565b6000602082840312156146bf57600080fd5b5035919050565b600080604083850312156146d957600080fd5b50508035926020909101359150565b815181526020808301519082015260408101610b59565b60005b8381101561471a578181015183820152602001614702565b50506000910152565b6000815180845261473b8160208601602086016146ff565b601f01601f19169290920160200192915050565b602081526000610f196020830184614723565b6000806040838503121561477557600080fd5b8235915060208301356146a2816144e6565b60008060006060848603121561479c57600080fd5b8335925060208401356147ae816144e6565b915060408401356147be816144e6565b809150509250925092565b600080604083850312156147dc57600080fd5b8235915060208301356146a281614567565b6020808252825182820181905260009190848201906040850190845b8181101561455b5783516001600160a01b03168352928401929184019160010161480a565b6000806040838503121561484257600080fd5b823561484d816144e6565b946020939093013593505050565b634e487b7160e01b600052602160045260246000fd5b600681106148815761488161485b565b9052565b600281106148815761488161485b565b60006102408201905060018060a01b03808c168352808b166020840152808a1660408401528860608401528760808401528087511660a084015250602086015160c083015260408601516148f660e084018280518252602090810151910152565b50606086015163ffffffff9081166101208401526080870151811661014084015260a08701511661016083015260c086015161493b61018084018263ffffffff169052565b5084516101a0830152602085015163ffffffff166101c0830152604085015161ffff166101e0830152614972610200830185614871565b614980610220830184614885565b9a9950505050505050505050565b6000806000806000806000806000806101008b8d0312156149ae57600080fd5b8a356149b9816144e6565b995060208b0135985060408b0135975060608b01356149d781614567565b965060808b01356149e781614579565b955060a08b013567ffffffffffffffff80821115614a0457600080fd5b614a108e838f01614589565b909750955060c08d01359150614a25826144e6565b90935060e08c01359080821115614a3b57600080fd5b818d0191508d601f830112614a4f57600080fd5b813581811115614a5e57600080fd5b8e60208260071b8501011115614a7357600080fd5b6020830194508093505050509295989b9194979a5092959850565b600080600080600080600060c0888a031215614aa957600080fd5b8735614ab481614579565b96506020880135614ac4816144e6565b95506040880135614ad4816144e6565b94506060880135614ae4816144e6565b9350608088013567ffffffffffffffff80821115614b0157600080fd5b818a0191508a601f830112614b1557600080fd5b813581811115614b2457600080fd5b8b60208260051b8501011115614b3957600080fd5b602083019550809450505050614b5160a089016144fb565b905092959891949750929550565b60208101610b598284614871565b60006102408284031215614b8057600080fd5b50919050565b600060208284031215614b9857600080fd5b8135610f1981614579565b634e487b7160e01b600052601160045260246000fd5b63ffffffff818116838216019080821115613e3e57613e3e614ba3565b600181811c90821680614bea57607f821691505b602082108103614b8057634e487b7160e01b600052602260045260246000fd5b600060208284031215614c1c57600080fd5b8151610f19816144e6565b63ffffffff828116828216039080821115613e3e57613e3e614ba3565b634e487b7160e01b600052601260045260246000fd5b600063ffffffff80841680614c7157614c71614c44565b92169190910492915050565b63ffffffff818116838216028082169190828114614c9d57614c9d614ba3565b505092915050565b60038110611d0a57600080fd5b838152604060208083018290528282018490526000919060609081850187855b88811015614d34578135614ce581614ca5565b60038110614cf557614cf561485b565b83528184013584840152858201358684015284820135614d14816144e6565b6001600160a01b0316838601526080928301929190910190600101614cd2565b50909998505050505050505050565b8051801515811461258257600080fd5b600060208284031215614d6557600080fd5b610f1982614d43565b828152606060208201526000614d876060830184614723565b8281036040938401526015815274131bd85b881b5d5cdd081899481858d8d95c1d1959605a1b6020820152919091019392505050565b80820180821115610b5957610b59614ba3565b6020808252602e908201527f496e697469616c697a61626c653a20636f6e747261637420697320616c72656160408201526d191e481a5b9a5d1a585b1a5e995960921b606082015260800190565b634e487b7160e01b600052603260045260246000fd5b600060018201614e4657614e46614ba3565b5060010190565b81810381811115610b5957610b59614ba3565b828152606060208201526000614e796060830184614723565b8281036040938401526013815272426964206d7573742062652070656e64696e6760681b6020820152919091019392505050565b60008060408385031215614ec057600080fd5b614ec983614d43565b9150602083015190509250929050565b600060208284031215614eeb57600080fd5b8151610f1981614579565b60008251614f088184602087016146ff565b9190910192915050565b60008135610b59816144e6565b80546001600160a01b0319166001600160a01b0392909216919091179055565b60008135610b5981614567565b8135614f57816144e6565b614f618183614f1f565b50602082013560018201556040820135600282015560608201356003820155600481016080830135614f9281614567565b815463ffffffff191663ffffffff82161782555060a0830135614fb481614567565b815467ffffffff00000000191660209190911b67ffffffff0000000016178155615008614fe360c08501614f3f565b825463ffffffff60401b191660409190911b6bffffffff000000000000000016178255565b613f3661501760e08501614f3f565b82805463ffffffff60601b191660609290921b63ffffffff60601b16919091179055565b8135815560018101602083013561505181614567565b815463ffffffff191663ffffffff821617825550604083013561507381614579565b815465ffff00000000191660209190911b65ffff00000000161790555050565b6000813560068110610b5957600080fd5b600682106150b4576150b461485b565b60ff1981541660ff831681178255505050565b60028110611d0a57600080fd5b60008135610b59816150c7565b600282106150f1576150f161485b565b805461ff008360081b1661ff00198216178255505050565b61511b61511583614f12565b82614f1f565b61513361512a60208401614f12565b60018301614f1f565b61514b61514260408401614f12565b60028301614f1f565b606082013560038201556080820135600482015561516f60a0830160058301614f4c565b6151806101a08301600a830161503b565b600c810161519a6151946102008501615093565b826150a4565b613f366151aa61022085016150d4565b826150e1565b6000602082840312156151c257600080fd5b8151610f1981614567565b6000602082840312156151df57600080fd5b8151610f19816150c7565b634e487b7160e01b600052604160045260246000fd5b601f821115613f3657600081815260208120601f850160051c810160208610156152275750805b601f850160051c820191505b8181101561263a57828155600101615233565b67ffffffffffffffff83111561525e5761525e6151ea565b6152728361526c8354614bd6565b83615200565b6000601f8411600181146152a6576000851561528e5750838201355b600019600387901b1c1916600186901b178355611dbd565b600083815260209020601f19861690835b828110156152d757868501358255602094850194600190920191016152b7565b50868210156152f45760001960f88860031b161c19848701351681555b505060018560011b0183555050505050565b8183823760009101908152919050565b60006020828403121561532857600080fd5b8151610f1981614ca5565b6020808252602b908201527f496e697469616c697a61626c653a20636f6e7472616374206973206e6f74206960408201526a6e697469616c697a696e6760a81b606082015260800190565b8082028115828204841417610b5957610b59614ba3565b6000816153a4576153a4614ba3565b506000190190565b6000826153bb576153bb614c44565b500490565b8181036000831280158383131683831282161715613e3e57613e3e614ba3565b634e487b7160e01b600052603160045260246000fd5b600181815b8085111561543157816000190482111561541757615417614ba3565b8085161561542457918102915b93841c93908002906153fb565b509250929050565b60008261544857506001610b59565b8161545557506000610b59565b816001811461546b576002811461547557615491565b6001915050610b59565b60ff84111561548657615486614ba3565b50506001821b610b59565b5060208310610133831016604e8410600b84101617156154b4575081810a610b59565b6154be83836153f6565b80600019048211156154d2576154d2614ba3565b029392505050565b6000610f198383615439565b6000826154f5576154f5614c44565b50069056fea264697066735822122049ec42a3792239becb66b2965a8d817bf449d60344f4ff1f264096c8f03e2e9d64736f6c63430008110033",
    "linkReferences": {}
  },
  "methodIdentifiers": {
    "CURRENT_CODE_VERSION()": "4148f94c",
    "_lenderVolumeFilled(address)": "b5d34fcd",
    "_totalVolumeFilled()": "1289b396",
    "addLendingToken(address)": "d76ac91f",
    "approveMarketForwarder(uint256,address)": "2e9332d4",
    "bidDefaultDuration(uint256)": "6b76c085",
    "bidExpirationTime(uint256)": "127caa88",
    "bidId()": "8ac47319",
    "bids(uint256)": "4423c5f1",
    "borrowerBids(address,uint256)": "3819bcdc",
    "calculateAmountDue(uint256)": "d974cc57",
    "calculateAmountDue(uint256,uint256)": "6aedfe68",
    "calculateAmountOwed(uint256)": "6c6ca79c",
    "calculateAmountOwed(uint256,uint256)": "1042b85f",
    "calculateNextDueDate(uint256)": "706a43c3",
    "cancelBid(uint256)": "9703ef35",
    "collateralManager()": "23be345c",
    "getBidState(uint256)": "bf77ffae",
    "getBorrowerActiveLoanIds(address)": "054de0ff",
    "getBorrowerLoanIds(address)": "1d123633",
    "getLendingTokens()": "235d5a7b",
    "getLoanBorrower(uint256)": "3ef0a2f7",
    "getLoanLender(uint256)": "a10905ea",
    "getLoanLendingToken(uint256)": "14573033",
    "getMetadataURI(uint256)": "bde644fb",
    "hasApprovedMarketForwarder(uint256,address,address)": "19b353de",
    "initialize(uint16,address,address,address,address[],address)": "837c0bf6",
    "isLoanDefaulted(uint256)": "e8cbab09",
    "isLoanExpired(uint256)": "10618223",
    "isPaymentLate(uint256)": "093f5617",
    "isTrustedForwarder(address)": "572b6c05",
    "isTrustedMarketForwarder(uint256,address)": "d87569cc",
    "lastRepaidTimestamp(uint256)": "a51e2bad",
    "lenderAcceptBid(uint256)": "a8cb5d68",
    "lenderCommitmentForwarder()": "ba6d5b15",
    "lenderVolumeFilled(address,address)": "089487b5",
    "liquidateLoanFull(uint256)": "8288da8a",
    "marketOwnerCancelBid(uint256)": "206c54c7",
    "marketRegistry()": "ecb96fe6",
    "mockAcceptedTimestamp(uint256)": "5be344ba",
    "mockAcceptedTimestamp(uint256,uint32)": "2357ab7b",
    "mockBid((address,address,address,uint256,bytes32,(address,uint256,(uint256,uint256),uint32,uint32,uint32,uint32),(uint256,uint32,uint16),uint8,uint8))": "df872adf",
    "mockLastRepaidTimestamp(uint256,uint32)": "5bf71ef6",
    "owner()": "8da5cb5b",
    "pauseProtocol()": "dbf62489",
    "paused()": "5c975abb",
    "protocolFee()": "b0e21e8a",
    "removeLendingToken(address)": "a75021ba",
    "renounceOwnership()": "715018a6",
    "repayLoan(uint256,uint256)": "8a700b53",
    "repayLoanFull(uint256)": "9a11e339",
    "repayLoanMinimum(uint256)": "d4eda4cf",
    "reputationManager()": "6b868afb",
    "setCollateralManager(address)": "842a05d4",
    "setProtocolFee(uint16)": "e4467f35",
    "setReputationManager(address)": "56a837f4",
    "setTrustedMarketForwarder(uint256,address)": "1420a266",
    "setVersion(uint256)": "408def1e",
    "submitBid(address,uint256,uint256,uint32,uint16,string,address)": "06f33a92",
    "submitBid(address,uint256,uint256,uint32,uint16,string,address,(uint8,uint256,uint256,address)[])": "7bbd53d7",
    "totalVolumeFilled(address)": "2519dc79",
    "transferOwnership(address)": "f2fde38b",
    "unpauseProtocol()": "f93b6be5",
    "uris(uint256)": "1253c546",
    "version()": "54fd4d50"
  },
  "id": 20
}