{
  "abi": [
    {
      "inputs": [
        {
          "internalType": "address",
          "name": "trustedForwarder",
          "type": "address"
        }
      ],
      "stateMutability": "nonpayable",
      "type": "constructor"
    },
    {
      "inputs": [
        {
          "internalType": "uint256",
          "name": "bidId",
          "type": "uint256"
        },
        {
          "internalType": "string",
          "name": "action",
          "type": "string"
        },
        {
          "internalType": "string",
          "name": "message",
          "type": "string"
        }
      ],
      "name": "ActionNotAllowed",
      "type": "error"
    },
    {
      "inputs": [
        {
          "internalType": "uint256",
          "name": "bidId",
          "type": "uint256"
        },
        {
          "internalType": "uint256",
          "name": "payment",
          "type": "uint256"
        },
        {
          "internalType": "uint256",
          "name": "minimumOwed",
          "type": "uint256"
        }
      ],
      "name": "PaymentNotMinimum",
      "type": "error"
    },
    {
      "anonymous": false,
      "inputs": [
        {
          "indexed": true,
          "internalType": "uint256",
          "name": "bidId",
          "type": "uint256"
        },
        {
          "indexed": true,
          "internalType": "address",
          "name": "lender",
          "type": "address"
        }
      ],
      "name": "AcceptedBid",
      "type": "event"
    },
    {
      "anonymous": false,
      "inputs": [
        {
          "indexed": true,
          "internalType": "uint256",
          "name": "bidId",
          "type": "uint256"
        }
      ],
      "name": "CancelledBid",
      "type": "event"
    },
    {
      "anonymous": false,
      "inputs": [
        {
          "indexed": true,
          "internalType": "uint256",
          "name": "bidId",
          "type": "uint256"
        },
        {
          "indexed": true,
          "internalType": "string",
          "name": "feeType",
          "type": "string"
        },
        {
          "indexed": true,
          "internalType": "uint256",
          "name": "amount",
          "type": "uint256"
        }
      ],
      "name": "FeePaid",
      "type": "event"
    },
    {
      "anonymous": false,
      "inputs": [
        {
          "indexed": false,
          "internalType": "uint8",
          "name": "version",
          "type": "uint8"
        }
      ],
      "name": "Initialized",
      "type": "event"
    },
    {
      "anonymous": false,
      "inputs": [
        {
          "indexed": true,
          "internalType": "uint256",
          "name": "bidId",
          "type": "uint256"
        },
        {
          "indexed": true,
          "internalType": "address",
          "name": "liquidator",
          "type": "address"
        }
      ],
      "name": "LoanLiquidated",
      "type": "event"
    },
    {
      "anonymous": false,
      "inputs": [
        {
          "indexed": true,
          "internalType": "uint256",
          "name": "bidId",
          "type": "uint256"
        }
      ],
      "name": "LoanRepaid",
      "type": "event"
    },
    {
      "anonymous": false,
      "inputs": [
        {
          "indexed": true,
          "internalType": "uint256",
          "name": "bidId",
          "type": "uint256"
        }
      ],
      "name": "LoanRepayment",
      "type": "event"
    },
    {
      "anonymous": false,
      "inputs": [
        {
          "indexed": true,
          "internalType": "uint256",
          "name": "marketId",
          "type": "uint256"
        },
        {
          "indexed": true,
          "internalType": "address",
          "name": "forwarder",
          "type": "address"
        },
        {
          "indexed": false,
          "internalType": "address",
          "name": "sender",
          "type": "address"
        }
      ],
      "name": "MarketForwarderApproved",
      "type": "event"
    },
    {
      "anonymous": false,
      "inputs": [
        {
          "indexed": true,
          "internalType": "uint256",
          "name": "bidId",
          "type": "uint256"
        }
      ],
      "name": "MarketOwnerCancelledBid",
      "type": "event"
    },
    {
      "anonymous": false,
      "inputs": [
        {
          "indexed": true,
          "internalType": "address",
          "name": "previousOwner",
          "type": "address"
        },
        {
          "indexed": true,
          "internalType": "address",
          "name": "newOwner",
          "type": "address"
        }
      ],
      "name": "OwnershipTransferred",
      "type": "event"
    },
    {
      "anonymous": false,
      "inputs": [
        {
          "indexed": false,
          "internalType": "address",
          "name": "account",
          "type": "address"
        }
      ],
      "name": "Paused",
      "type": "event"
    },
    {
      "anonymous": false,
      "inputs": [
        {
          "indexed": false,
          "internalType": "uint16",
          "name": "newFee",
          "type": "uint16"
        },
        {
          "indexed": false,
          "internalType": "uint16",
          "name": "oldFee",
          "type": "uint16"
        }
      ],
      "name": "ProtocolFeeSet",
      "type": "event"
    },
    {
      "anonymous": false,
      "inputs": [
        {
          "indexed": true,
          "internalType": "uint256",
          "name": "bidId",
          "type": "uint256"
        },
        {
          "indexed": true,
          "internalType": "address",
          "name": "borrower",
          "type": "address"
        },
        {
          "indexed": false,
          "internalType": "address",
          "name": "receiver",
          "type": "address"
        },
        {
          "indexed": true,
          "internalType": "bytes32",
          "name": "metadataURI",
          "type": "bytes32"
        }
      ],
      "name": "SubmittedBid",
      "type": "event"
    },
    {
      "anonymous": false,
      "inputs": [
        {
          "indexed": true,
          "internalType": "uint256",
          "name": "marketId",
          "type": "uint256"
        },
        {
          "indexed": false,
          "internalType": "address",
          "name": "forwarder",
          "type": "address"
        },
        {
          "indexed": false,
          "internalType": "address",
          "name": "sender",
          "type": "address"
        }
      ],
      "name": "TrustedMarketForwarderSet",
      "type": "event"
    },
    {
      "anonymous": false,
      "inputs": [
        {
          "indexed": false,
          "internalType": "address",
          "name": "account",
          "type": "address"
        }
      ],
      "name": "Unpaused",
      "type": "event"
    },
    {
      "inputs": [],
      "name": "CURRENT_CODE_VERSION",
      "outputs": [
        {
          "internalType": "uint8",
          "name": "",
          "type": "uint8"
        }
      ],
      "stateMutability": "view",
      "type": "function"
    },
    {
      "inputs": [
        {
          "internalType": "address",
          "name": "",
          "type": "address"
        }
      ],
      "name": "_lenderVolumeFilled",
      "outputs": [
        {
          "internalType": "uint256",
          "name": "",
          "type": "uint256"
        }
      ],
      "stateMutability": "view",
      "type": "function"
    },
    {
      "inputs": [],
      "name": "_totalVolumeFilled",
      "outputs": [
        {
          "internalType": "uint256",
          "name": "",
          "type": "uint256"
        }
      ],
      "stateMutability": "view",
      "type": "function"
    },
    {
      "inputs": [
        {
          "internalType": "address",
          "name": "_lendingToken",
          "type": "address"
        }
      ],
      "name": "addLendingToken",
      "outputs": [],
      "stateMutability": "nonpayable",
      "type": "function"
    },
    {
      "inputs": [
        {
          "internalType": "uint256",
          "name": "_marketId",
          "type": "uint256"
        },
        {
          "internalType": "address",
          "name": "_forwarder",
          "type": "address"
        }
      ],
      "name": "approveMarketForwarder",
      "outputs": [],
      "stateMutability": "nonpayable",
      "type": "function"
    },
    {
      "inputs": [
        {
          "internalType": "uint256",
          "name": "",
          "type": "uint256"
        }
      ],
      "name": "bidDefaultDuration",
      "outputs": [
        {
          "internalType": "uint32",
          "name": "",
          "type": "uint32"
        }
      ],
      "stateMutability": "view",
      "type": "function"
    },
    {
      "inputs": [
        {
          "internalType": "uint256",
          "name": "",
          "type": "uint256"
        }
      ],
      "name": "bidExpirationTime",
      "outputs": [
        {
          "internalType": "uint32",
          "name": "",
          "type": "uint32"
        }
      ],
      "stateMutability": "view",
      "type": "function"
    },
    {
      "inputs": [],
      "name": "bidId",
      "outputs": [
        {
          "internalType": "uint256",
          "name": "",
          "type": "uint256"
        }
      ],
      "stateMutability": "view",
      "type": "function"
    },
    {
      "inputs": [
        {
          "internalType": "uint256",
          "name": "",
          "type": "uint256"
        }
      ],
      "name": "bidPaymentCycleType",
      "outputs": [
        {
          "internalType": "enum PaymentCycleType",
          "name": "",
          "type": "uint8"
        }
      ],
      "stateMutability": "view",
      "type": "function"
    },
    {
      "inputs": [
        {
          "internalType": "uint256",
          "name": "",
          "type": "uint256"
        }
      ],
      "name": "bids",
      "outputs": [
        {
          "internalType": "address",
          "name": "borrower",
          "type": "address"
        },
        {
          "internalType": "address",
          "name": "receiver",
          "type": "address"
        },
        {
          "internalType": "address",
          "name": "lender",
          "type": "address"
        },
        {
          "internalType": "uint256",
          "name": "marketplaceId",
          "type": "uint256"
        },
        {
          "internalType": "bytes32",
          "name": "_metadataURI",
          "type": "bytes32"
        },
        {
          "components": [
            {
              "internalType": "contract ERC20",
              "name": "lendingToken",
              "type": "address"
            },
            {
              "internalType": "uint256",
              "name": "principal",
              "type": "uint256"
            },
            {
              "components": [
                {
                  "internalType": "uint256",
                  "name": "principal",
                  "type": "uint256"
                },
                {
                  "internalType": "uint256",
                  "name": "interest",
                  "type": "uint256"
                }
              ],
              "internalType": "struct Payment",
              "name": "totalRepaid",
              "type": "tuple"
            },
            {
              "internalType": "uint32",
              "name": "timestamp",
              "type": "uint32"
            },
            {
              "internalType": "uint32",
              "name": "acceptedTimestamp",
              "type": "uint32"
            },
            {
              "internalType": "uint32",
              "name": "lastRepaidTimestamp",
              "type": "uint32"
            },
            {
              "internalType": "uint32",
              "name": "loanDuration",
              "type": "uint32"
            }
          ],
          "internalType": "struct LoanDetails",
          "name": "loanDetails",
          "type": "tuple"
        },
        {
          "components": [
            {
              "internalType": "uint256",
              "name": "paymentCycleAmount",
              "type": "uint256"
            },
            {
              "internalType": "uint32",
              "name": "paymentCycle",
              "type": "uint32"
            },
            {
              "internalType": "uint16",
              "name": "APR",
              "type": "uint16"
            }
          ],
          "internalType": "struct Terms",
          "name": "terms",
          "type": "tuple"
        },
        {
          "internalType": "enum BidState",
          "name": "state",
          "type": "uint8"
        },
        {
          "internalType": "enum PaymentType",
          "name": "paymentType",
          "type": "uint8"
        }
      ],
      "stateMutability": "view",
      "type": "function"
    },
    {
      "inputs": [
        {
          "internalType": "address",
          "name": "",
          "type": "address"
        },
        {
          "internalType": "uint256",
          "name": "",
          "type": "uint256"
        }
      ],
      "name": "borrowerBids",
      "outputs": [
        {
          "internalType": "uint256",
          "name": "",
          "type": "uint256"
        }
      ],
      "stateMutability": "view",
      "type": "function"
    },
    {
      "inputs": [
        {
          "internalType": "uint256",
          "name": "_bidId",
          "type": "uint256"
        },
        {
          "internalType": "uint256",
          "name": "_timestamp",
          "type": "uint256"
        }
      ],
      "name": "calculateAmountDue",
      "outputs": [
        {
          "components": [
            {
              "internalType": "uint256",
              "name": "principal",
              "type": "uint256"
            },
            {
              "internalType": "uint256",
              "name": "interest",
              "type": "uint256"
            }
          ],
          "internalType": "struct Payment",
          "name": "due",
          "type": "tuple"
        }
      ],
      "stateMutability": "view",
      "type": "function"
    },
    {
      "inputs": [
        {
          "internalType": "uint256",
          "name": "_bidId",
          "type": "uint256"
        }
      ],
      "name": "calculateAmountDue",
      "outputs": [
        {
          "components": [
            {
              "internalType": "uint256",
              "name": "principal",
              "type": "uint256"
            },
            {
              "internalType": "uint256",
              "name": "interest",
              "type": "uint256"
            }
          ],
          "internalType": "struct Payment",
          "name": "due",
          "type": "tuple"
        }
      ],
      "stateMutability": "view",
      "type": "function"
    },
    {
      "inputs": [
        {
          "internalType": "uint256",
          "name": "_bidId",
          "type": "uint256"
        },
        {
          "internalType": "uint256",
          "name": "_timestamp",
          "type": "uint256"
        }
      ],
      "name": "calculateAmountOwed",
      "outputs": [
        {
          "components": [
            {
              "internalType": "uint256",
              "name": "principal",
              "type": "uint256"
            },
            {
              "internalType": "uint256",
              "name": "interest",
              "type": "uint256"
            }
          ],
          "internalType": "struct Payment",
          "name": "owed",
          "type": "tuple"
        }
      ],
      "stateMutability": "view",
      "type": "function"
    },
    {
      "inputs": [
        {
          "internalType": "uint256",
          "name": "_bidId",
          "type": "uint256"
        }
      ],
      "name": "calculateAmountOwed",
      "outputs": [
        {
          "components": [
            {
              "internalType": "uint256",
              "name": "principal",
              "type": "uint256"
            },
            {
              "internalType": "uint256",
              "name": "interest",
              "type": "uint256"
            }
          ],
          "internalType": "struct Payment",
          "name": "owed",
          "type": "tuple"
        }
      ],
      "stateMutability": "view",
      "type": "function"
    },
    {
      "inputs": [
        {
          "internalType": "uint256",
          "name": "_bidId",
          "type": "uint256"
        }
      ],
      "name": "calculateNextDueDate",
      "outputs": [
        {
          "internalType": "uint32",
          "name": "dueDate_",
          "type": "uint32"
        }
      ],
      "stateMutability": "view",
      "type": "function"
    },
    {
      "inputs": [
        {
          "internalType": "uint256",
          "name": "_bidId",
          "type": "uint256"
        }
      ],
      "name": "cancelBid",
      "outputs": [],
      "stateMutability": "nonpayable",
      "type": "function"
    },
    {
      "inputs": [
        {
          "internalType": "uint256",
          "name": "_bidId",
          "type": "uint256"
        }
      ],
      "name": "claimLoanNFT",
      "outputs": [],
      "stateMutability": "nonpayable",
      "type": "function"
    },
    {
      "inputs": [],
      "name": "collateralManager",
      "outputs": [
        {
          "internalType": "contract ICollateralManager",
          "name": "",
          "type": "address"
        }
      ],
      "stateMutability": "view",
      "type": "function"
    },
    {
      "inputs": [
        {
          "internalType": "uint256",
          "name": "_bidId",
          "type": "uint256"
        }
      ],
      "name": "getBidState",
      "outputs": [
        {
          "internalType": "enum BidState",
          "name": "",
          "type": "uint8"
        }
      ],
      "stateMutability": "view",
      "type": "function"
    },
    {
      "inputs": [
        {
          "internalType": "address",
          "name": "_borrower",
          "type": "address"
        }
      ],
      "name": "getBorrowerActiveLoanIds",
      "outputs": [
        {
          "internalType": "uint256[]",
          "name": "",
          "type": "uint256[]"
        }
      ],
      "stateMutability": "view",
      "type": "function"
    },
    {
      "inputs": [
        {
          "internalType": "address",
          "name": "_borrower",
          "type": "address"
        }
      ],
      "name": "getBorrowerLoanIds",
      "outputs": [
        {
          "internalType": "uint256[]",
          "name": "",
          "type": "uint256[]"
        }
      ],
      "stateMutability": "view",
      "type": "function"
    },
    {
      "inputs": [],
      "name": "getLendingTokens",
      "outputs": [
        {
          "internalType": "address[]",
          "name": "",
          "type": "address[]"
        }
      ],
      "stateMutability": "view",
      "type": "function"
    },
    {
      "inputs": [
        {
          "internalType": "uint256",
          "name": "_bidId",
          "type": "uint256"
        }
      ],
      "name": "getLoanBorrower",
      "outputs": [
        {
          "internalType": "address",
          "name": "borrower_",
          "type": "address"
        }
      ],
      "stateMutability": "view",
      "type": "function"
    },
    {
      "inputs": [
        {
          "internalType": "uint256",
          "name": "_bidId",
          "type": "uint256"
        }
      ],
      "name": "getLoanLender",
      "outputs": [
        {
          "internalType": "address",
          "name": "lender_",
          "type": "address"
        }
      ],
      "stateMutability": "view",
      "type": "function"
    },
    {
      "inputs": [
        {
          "internalType": "uint256",
          "name": "_bidId",
          "type": "uint256"
        }
      ],
      "name": "getLoanLendingToken",
      "outputs": [
        {
          "internalType": "address",
          "name": "token_",
          "type": "address"
        }
      ],
      "stateMutability": "view",
      "type": "function"
    },
    {
      "inputs": [
        {
          "internalType": "uint256",
          "name": "_bidId",
          "type": "uint256"
        }
      ],
      "name": "getLoanMarketId",
      "outputs": [
        {
          "internalType": "uint256",
          "name": "_marketId",
          "type": "uint256"
        }
      ],
      "stateMutability": "view",
      "type": "function"
    },
    {
      "inputs": [
        {
          "internalType": "uint256",
          "name": "_bidId",
          "type": "uint256"
        }
      ],
      "name": "getMetadataURI",
      "outputs": [
        {
          "internalType": "string",
          "name": "metadataURI_",
          "type": "string"
        }
      ],
      "stateMutability": "view",
      "type": "function"
    },
    {
      "inputs": [
        {
          "internalType": "uint256",
          "name": "_marketId",
          "type": "uint256"
        },
        {
          "internalType": "address",
          "name": "_forwarder",
          "type": "address"
        },
        {
          "internalType": "address",
          "name": "_account",
          "type": "address"
        }
      ],
      "name": "hasApprovedMarketForwarder",
      "outputs": [
        {
          "internalType": "bool",
          "name": "",
          "type": "bool"
        }
      ],
      "stateMutability": "view",
      "type": "function"
    },
    {
      "inputs": [
        {
          "internalType": "uint16",
          "name": "_protocolFee",
          "type": "uint16"
        },
        {
          "internalType": "address",
          "name": "_marketRegistry",
          "type": "address"
        },
        {
          "internalType": "address",
          "name": "_reputationManager",
          "type": "address"
        },
        {
          "internalType": "address",
          "name": "_lenderCommitmentForwarder",
          "type": "address"
        },
        {
          "internalType": "address[]",
          "name": "_lendingTokens",
          "type": "address[]"
        },
        {
          "internalType": "address",
          "name": "_collateralManagerAddress",
          "type": "address"
        },
        {
          "internalType": "address",
          "name": "_lenderManager",
          "type": "address"
        }
      ],
      "name": "initialize",
      "outputs": [],
      "stateMutability": "nonpayable",
      "type": "function"
    },
    {
      "inputs": [
        {
          "internalType": "uint256",
          "name": "_bidId",
          "type": "uint256"
        }
      ],
      "name": "isLoanDefaulted",
      "outputs": [
        {
          "internalType": "bool",
          "name": "",
          "type": "bool"
        }
      ],
      "stateMutability": "view",
      "type": "function"
    },
    {
      "inputs": [
        {
          "internalType": "uint256",
          "name": "_bidId",
          "type": "uint256"
        }
      ],
      "name": "isLoanExpired",
      "outputs": [
        {
          "internalType": "bool",
          "name": "",
          "type": "bool"
        }
      ],
      "stateMutability": "view",
      "type": "function"
    },
    {
      "inputs": [
        {
          "internalType": "uint256",
          "name": "_bidId",
          "type": "uint256"
        }
      ],
      "name": "isPaymentLate",
      "outputs": [
        {
          "internalType": "bool",
          "name": "",
          "type": "bool"
        }
      ],
      "stateMutability": "view",
      "type": "function"
    },
    {
      "inputs": [
        {
          "internalType": "address",
          "name": "forwarder",
          "type": "address"
        }
      ],
      "name": "isTrustedForwarder",
      "outputs": [
        {
          "internalType": "bool",
          "name": "",
          "type": "bool"
        }
      ],
      "stateMutability": "view",
      "type": "function"
    },
    {
      "inputs": [
        {
          "internalType": "uint256",
          "name": "_marketId",
          "type": "uint256"
        },
        {
          "internalType": "address",
          "name": "_trustedMarketForwarder",
          "type": "address"
        }
      ],
      "name": "isTrustedMarketForwarder",
      "outputs": [
        {
          "internalType": "bool",
          "name": "",
          "type": "bool"
        }
      ],
      "stateMutability": "view",
      "type": "function"
    },
    {
      "inputs": [
        {
          "internalType": "uint256",
          "name": "_bidId",
          "type": "uint256"
        }
      ],
      "name": "lastRepaidTimestamp",
      "outputs": [
        {
          "internalType": "uint32",
          "name": "",
          "type": "uint32"
        }
      ],
      "stateMutability": "view",
      "type": "function"
    },
    {
      "inputs": [
        {
          "internalType": "uint256",
          "name": "_bidId",
          "type": "uint256"
        }
      ],
      "name": "lenderAcceptBid",
      "outputs": [
        {
          "internalType": "uint256",
          "name": "amountToProtocol",
          "type": "uint256"
        },
        {
          "internalType": "uint256",
          "name": "amountToMarketplace",
          "type": "uint256"
        },
        {
          "internalType": "uint256",
          "name": "amountToBorrower",
          "type": "uint256"
        }
      ],
      "stateMutability": "nonpayable",
      "type": "function"
    },
    {
      "inputs": [],
      "name": "lenderCommitmentForwarder",
      "outputs": [
        {
          "internalType": "address",
          "name": "",
          "type": "address"
        }
      ],
      "stateMutability": "view",
      "type": "function"
    },
    {
      "inputs": [],
      "name": "lenderManager",
      "outputs": [
        {
          "internalType": "contract ILenderManager",
          "name": "",
          "type": "address"
        }
      ],
      "stateMutability": "view",
      "type": "function"
    },
    {
      "inputs": [
        {
          "internalType": "address",
          "name": "",
          "type": "address"
        },
        {
          "internalType": "address",
          "name": "",
          "type": "address"
        }
      ],
      "name": "lenderVolumeFilled",
      "outputs": [
        {
          "internalType": "uint256",
          "name": "",
          "type": "uint256"
        }
      ],
      "stateMutability": "view",
      "type": "function"
    },
    {
      "inputs": [
        {
          "internalType": "uint256",
          "name": "_bidId",
          "type": "uint256"
        }
      ],
      "name": "liquidateLoanFull",
      "outputs": [],
      "stateMutability": "nonpayable",
      "type": "function"
    },
    {
      "inputs": [
        {
          "internalType": "uint256",
          "name": "_bidId",
          "type": "uint256"
        }
      ],
      "name": "marketOwnerCancelBid",
      "outputs": [],
      "stateMutability": "nonpayable",
      "type": "function"
    },
    {
      "inputs": [],
      "name": "marketRegistry",
      "outputs": [
        {
          "internalType": "contract IMarketRegistry",
          "name": "",
          "type": "address"
        }
      ],
      "stateMutability": "view",
      "type": "function"
    },
    {
      "inputs": [
        {
          "internalType": "address",
          "name": "_lenderManager",
          "type": "address"
        }
      ],
      "name": "onUpgrade",
      "outputs": [],
      "stateMutability": "nonpayable",
      "type": "function"
    },
    {
      "inputs": [],
      "name": "owner",
      "outputs": [
        {
          "internalType": "address",
          "name": "",
          "type": "address"
        }
      ],
      "stateMutability": "view",
      "type": "function"
    },
    {
      "inputs": [],
      "name": "pauseProtocol",
      "outputs": [],
      "stateMutability": "nonpayable",
      "type": "function"
    },
    {
      "inputs": [],
      "name": "paused",
      "outputs": [
        {
          "internalType": "bool",
          "name": "",
          "type": "bool"
        }
      ],
      "stateMutability": "view",
      "type": "function"
    },
    {
      "inputs": [],
      "name": "protocolFee",
      "outputs": [
        {
          "internalType": "uint16",
          "name": "",
          "type": "uint16"
        }
      ],
      "stateMutability": "view",
      "type": "function"
    },
    {
      "inputs": [
        {
          "internalType": "address",
          "name": "_lendingToken",
          "type": "address"
        }
      ],
      "name": "removeLendingToken",
      "outputs": [],
      "stateMutability": "nonpayable",
      "type": "function"
    },
    {
      "inputs": [],
      "name": "renounceOwnership",
      "outputs": [],
      "stateMutability": "nonpayable",
      "type": "function"
    },
    {
      "inputs": [
        {
          "internalType": "uint256",
          "name": "_bidId",
          "type": "uint256"
        },
        {
          "internalType": "uint256",
          "name": "_amount",
          "type": "uint256"
        }
      ],
      "name": "repayLoan",
      "outputs": [],
      "stateMutability": "nonpayable",
      "type": "function"
    },
    {
      "inputs": [
        {
          "internalType": "uint256",
          "name": "_bidId",
          "type": "uint256"
        }
      ],
      "name": "repayLoanFull",
      "outputs": [],
      "stateMutability": "nonpayable",
      "type": "function"
    },
    {
      "inputs": [
        {
          "internalType": "uint256",
          "name": "_bidId",
          "type": "uint256"
        }
      ],
      "name": "repayLoanMinimum",
      "outputs": [],
      "stateMutability": "nonpayable",
      "type": "function"
    },
    {
      "inputs": [],
      "name": "reputationManager",
      "outputs": [
        {
          "internalType": "contract IReputationManager",
          "name": "",
          "type": "address"
        }
      ],
      "stateMutability": "view",
      "type": "function"
    },
    {
      "inputs": [
        {
          "internalType": "uint16",
          "name": "newFee",
          "type": "uint16"
        }
      ],
      "name": "setProtocolFee",
      "outputs": [],
      "stateMutability": "nonpayable",
      "type": "function"
    },
    {
      "inputs": [
        {
          "internalType": "address",
          "name": "_reputationManager",
          "type": "address"
        }
      ],
      "name": "setReputationManager",
      "outputs": [],
      "stateMutability": "nonpayable",
      "type": "function"
    },
    {
      "inputs": [
        {
          "internalType": "uint256",
          "name": "_marketId",
          "type": "uint256"
        },
        {
          "internalType": "address",
          "name": "_forwarder",
          "type": "address"
        }
      ],
      "name": "setTrustedMarketForwarder",
      "outputs": [],
      "stateMutability": "nonpayable",
      "type": "function"
    },
    {
      "inputs": [
        {
          "internalType": "address",
          "name": "_lendingToken",
          "type": "address"
        },
        {
          "internalType": "uint256",
          "name": "_marketplaceId",
          "type": "uint256"
        },
        {
          "internalType": "uint256",
          "name": "_principal",
          "type": "uint256"
        },
        {
          "internalType": "uint32",
          "name": "_duration",
          "type": "uint32"
        },
        {
          "internalType": "uint16",
          "name": "_APR",
          "type": "uint16"
        },
        {
          "internalType": "string",
          "name": "_metadataURI",
          "type": "string"
        },
        {
          "internalType": "address",
          "name": "_receiver",
          "type": "address"
        }
      ],
      "name": "submitBid",
      "outputs": [
        {
          "internalType": "uint256",
          "name": "bidId_",
          "type": "uint256"
        }
      ],
      "stateMutability": "nonpayable",
      "type": "function"
    },
    {
      "inputs": [
        {
          "internalType": "address",
          "name": "_lendingToken",
          "type": "address"
        },
        {
          "internalType": "uint256",
          "name": "_marketplaceId",
          "type": "uint256"
        },
        {
          "internalType": "uint256",
          "name": "_principal",
          "type": "uint256"
        },
        {
          "internalType": "uint32",
          "name": "_duration",
          "type": "uint32"
        },
        {
          "internalType": "uint16",
          "name": "_APR",
          "type": "uint16"
        },
        {
          "internalType": "string",
          "name": "_metadataURI",
          "type": "string"
        },
        {
          "internalType": "address",
          "name": "_receiver",
          "type": "address"
        },
        {
          "components": [
            {
              "internalType": "enum CollateralType",
              "name": "_collateralType",
              "type": "uint8"
            },
            {
              "internalType": "uint256",
              "name": "_amount",
              "type": "uint256"
            },
            {
              "internalType": "uint256",
              "name": "_tokenId",
              "type": "uint256"
            },
            {
              "internalType": "address",
              "name": "_collateralAddress",
              "type": "address"
            }
          ],
          "internalType": "struct Collateral[]",
          "name": "_collateralInfo",
          "type": "tuple[]"
        }
      ],
      "name": "submitBid",
      "outputs": [
        {
          "internalType": "uint256",
          "name": "bidId_",
          "type": "uint256"
        }
      ],
      "stateMutability": "nonpayable",
      "type": "function"
    },
    {
      "inputs": [
        {
          "internalType": "address",
          "name": "",
          "type": "address"
        }
      ],
      "name": "totalVolumeFilled",
      "outputs": [
        {
          "internalType": "uint256",
          "name": "",
          "type": "uint256"
        }
      ],
      "stateMutability": "view",
      "type": "function"
    },
    {
      "inputs": [
        {
          "internalType": "address",
          "name": "newOwner",
          "type": "address"
        }
      ],
      "name": "transferOwnership",
      "outputs": [],
      "stateMutability": "nonpayable",
      "type": "function"
    },
    {
      "inputs": [],
      "name": "unpauseProtocol",
      "outputs": [],
      "stateMutability": "nonpayable",
      "type": "function"
    },
    {
      "inputs": [
        {
          "internalType": "uint256",
          "name": "",
          "type": "uint256"
        }
      ],
      "name": "uris",
      "outputs": [
        {
          "internalType": "string",
          "name": "",
          "type": "string"
        }
      ],
      "stateMutability": "view",
      "type": "function"
    },
    {
      "inputs": [],
      "name": "version",
      "outputs": [
        {
          "internalType": "uint256",
          "name": "",
          "type": "uint256"
        }
      ],
      "stateMutability": "view",
      "type": "function"
    }
  ],
  "bytecode": {
    "object": "0x60a060405260006097553480156200001657600080fd5b5060405162005c1938038062005c1983398101604081905262000039916200004b565b6001600160a01b03166080526200007d565b6000602082840312156200005e57600080fd5b81516001600160a01b03811681146200007657600080fd5b9392505050565b608051615b79620000a060003960008181610808015261413f0152615b796000f3fe608060405234801561001057600080fd5b50600436106103d05760003560e01c80636b868afb116101ff578063b5d34fcd1161011a578063d974cc57116100ad578063ecb96fe61161007c578063ecb96fe614610abf578063f2fde38b14610ad2578063f93b6be514610ae5578063fa34c84e14610aed57600080fd5b8063d974cc5714610a7e578063dbf6248914610a91578063e4467f3514610a99578063e8cbab0914610aac57600080fd5b8063bf77ffae116100e9578063bf77ffae14610a12578063d4eda4cf14610a45578063d76ac91f14610a58578063d87569cc14610a6b57600080fd5b8063b5d34fcd146109b9578063b97e8141146109d9578063ba6d5b15146109ec578063bde644fb146109ff57600080fd5b80638da5cb5b11610192578063a51e2bad11610161578063a51e2bad1461094f578063a75021ba14610962578063a8cb5d6814610975578063b0e21e8a146109a357600080fd5b80638da5cb5b146109055780639703ef35146109165780639a11e33914610929578063a10905ea1461093c57600080fd5b80637bbd53d7116101ce5780637bbd53d7146108c35780638288da8a146108d65780638a700b53146108e95780638ac47319146108fc57600080fd5b80636b868afb146108825780636c6ca79c14610895578063706a43c3146108a8578063715018a6146108bb57600080fd5b806323be345c116102ef5780634423c5f111610282578063572b6c0511610251578063572b6c05146107f85780635c975abb146108385780636aedfe68146108495780636b76c0851461085c57600080fd5b80634423c5f1146106ad5780634a06f6ea146107c957806354fd4d50146107dc57806356a837f4146107e557600080fd5b80633819bcdc116102be5780633819bcdc146106345780633ef0a2f71461064757806340910c70146106705780634148f94c1461069357600080fd5b806323be345c146105be5780632519dc79146105d15780632e9332d4146105f1578063367358911461060457600080fd5b80631289b3961161036757806319b353de1161033657806319b353de146105705780631d12363314610583578063206c54c714610596578063235d5a7b146105a957600080fd5b80631289b396146104fb5780631420a26614610504578063145730331461051957806318520f051461055d57600080fd5b80631042b85f116103a35780631042b85f1461046d578063106182231461048d5780631253c546146104a0578063127caa88146104c057600080fd5b8063054de0ff146103d557806306f33a92146103fe578063089487b51461041f578063093f56171461044a575b600080fd5b6103e86103e3366004614d62565b610b00565b6040516103f59190614d7f565b60405180910390f35b61041161040c366004614e2e565b610b2a565b6040519081526020016103f5565b61041161042d366004614ed0565b60a360209081526000928352604080842090915290825290205481565b61045d610458366004614f09565b610b51565b60405190151581526020016103f5565b61048061047b366004614f22565b610ba6565b6040516103f59190614f44565b61045d61049b366004614f09565b610c3f565b6104b36104ae366004614f09565b610cd7565b6040516103f59190614fab565b6104e66104ce366004614f09565b60a26020526000908152604090205463ffffffff1681565b60405163ffffffff90911681526020016103f5565b610411609b5481565b610517610512366004614fbe565b610d71565b005b610545610527366004614f09565b6000908152609860205260409020600501546001600160a01b031690565b6040516001600160a01b0390911681526020016103f5565b61051761056b366004614f09565b610ebe565b61045d61057e366004614fe3565b611048565b6103e8610591366004614d62565b611087565b6105176105a4366004614f09565b6110f3565b6105b1611255565b6040516103f59190615025565b60aa54610545906001600160a01b031681565b6104116105df366004614d62565b60a46020526000908152604090205481565b6105176105ff366004614fbe565b611266565b610627610612366004614f09565b60ac6020526000908152604090205460ff1681565b6040516103f5919061508c565b61041161064236600461509f565b611349565b610545610655366004614f09565b6000908152609860205260409020546001600160a01b031690565b61041161067e366004614f09565b60009081526098602052604090206003015490565b61069b600881565b60405160ff90911681526020016103f5565b6107b46106bb366004614f09565b60986020908152600091825260409182902080546001820154600283015460038401546004850154875160e08101895260058701546001600160a01b0390811682526006880154828a01528951808b018b52600789015481526008890154818b0152828b0152600988015463ffffffff808216606080860191909152600160201b80840483166080870152600160401b8404831660a0870152600160601b909304821660c08601528c519081018d52600a8b01548152600b8b01549182169b81019b909b520461ffff1699890199909952600c909601549488169793841696939092169490939192909160ff8082169161010090041689565b6040516103f5999897969594939291906150e8565b60ab54610545906001600160a01b031681565b61041160a55481565b6105176107f3366004614d62565b61137a565b61045d610806366004614d62565b7f00000000000000000000000000000000000000000000000000000000000000006001600160a01b0390811691161490565b60655462010000900460ff1661045d565b610480610857366004614f22565b6113a4565b6104e661086a366004614f09565b60a16020526000908152604090205463ffffffff1681565b609f54610545906001600160a01b031681565b6104806108a3366004614f09565b61143d565b6104e66108b6366004614f09565b6114bd565b6105176116cc565b6104116108d13660046151e1565b6116e0565b6105176108e4366004614f09565b6117ec565b6105176108f7366004614f22565b6119d7565b61041160975481565b6033546001600160a01b0316610545565b610517610924366004614f09565b611af3565b610517610937366004614f09565b611ba8565b61054561094a366004614f09565b611c6e565b6104e661095d366004614f09565b611d08565b610517610970366004614d62565b611d1f565b610988610983366004614f09565b611d36565b604080519384526020840192909252908201526060016103f5565b60655460405161ffff90911681526020016103f5565b6104116109c7366004614d62565b609a6020526000908152604090205481565b6105176109e73660046152e1565b61238b565b60a954610545906001600160a01b031681565b6104b3610a0d366004614f09565b6125cf565b610a38610a20366004614f09565b6000908152609860205260409020600c015460ff1690565b6040516103f591906153c2565b610517610a53366004614f09565b6126dd565b610517610a66366004614d62565b6127a8565b61045d610a79366004614fbe565b612812565b610480610a8c366004614f09565b61284c565b6105176128cc565b610517610aa73660046153d0565b6128e4565b61045d610aba366004614f09565b612952565b609e54610545906001600160a01b031681565b610517610ae0366004614d62565b6129e3565b610517612a59565b610517610afb366004614d62565b612a71565b6001600160a01b038116600090815260a060205260409020606090610b2490612b12565b92915050565b6000610b34612b1f565b610b448989898989898989612b6b565b9998505050505050505050565b600060036000838152609860205260409020600c015460ff166005811115610b7b57610b7b615066565b14610b8857506000919050565b610b91826114bd565b63ffffffff164263ffffffff16119050919050565b604080518082019091526000808252602082015260008381526098602052604090206003600c82015460ff166005811115610be357610be3615066565b141580610c0157506009810154600160201b900463ffffffff168311155b15610c0c5750610b24565b600084815260ac60205260408120548190610c2d908490879060ff166131d6565b91865250602085015250505092915050565b60008181526098602052604081206001600c82015460ff166005811115610c6857610c68615066565b14610c765750600092915050565b600083815260a2602052604081205463ffffffff169003610c9a5750600092915050565b600083815260a260205260409020546009820154610cc19163ffffffff9081169116615403565b63ffffffff164263ffffffff1611915050919050565b60a66020526000908152604090208054610cf090615420565b80601f0160208091040260200160405190810160405280929190818152602001828054610d1c90615420565b8015610d695780601f10610d3e57610100808354040283529160200191610d69565b820191906000526020600020905b815481529060010190602001808311610d4c57829003601f168201915b505050505081565b610d79613204565b609e54604051633d36902960e01b8152600481018590526001600160a01b039283169290911690633d36902990602401602060405180830381865afa158015610dc6573d6000803e3d6000fd5b505050506040513d601f19601f82011682018060405250810190610dea919061545a565b6001600160a01b031614610e455760405162461bcd60e51b815260206004820152601f60248201527f43616c6c6572206d75737420626520746865206d61726b6574206f776e65720060448201526064015b60405180910390fd5b600082815260a76020526040902080546001600160a01b0319166001600160a01b038316179055817fa593acf9edc343669c7fc50d2caa3911326adef438361f0fa911be85c9e296a482610e97613204565b604080516001600160a01b0393841681529290911660208301520160405180910390a25050565b60408051808201909152600c81526b18db185a5b531bd85b93919560a21b6020820152819060036000838152609860205260409020600c015460ff166005811115610f0b57610f0b615066565b14610f2d5781816040516347bc33cb60e11b8152600401610e3c929190615477565b610f35612b1f565b60008381526098602052604081206003810154909190610f549061320e565b60028301549091506001600160a01b03808316911614610fb65760405162461bcd60e51b815260206004820152601960248201527f6f6e6c79206c656e6465722063616e20636c61696d204e4654000000000000006044820152606401610e3c565b60ab5460405163096c998360e41b8152600481018790526001600160a01b038381166024830152909116906396c9983090604401600060405180830381600087803b15801561100457600080fd5b505af1158015611018573d6000803e3d6000fd5b505060ab54600290940180546001600160a01b0319166001600160a01b0390951694909417909355505050505050565b60006110548484612812565b801561107d57506001600160a01b038316600090815260a86020526040902061107d90836132b9565b90505b9392505050565b6001600160a01b0381166000908152609960209081526040918290208054835181840281018401909452808452606093928301828280156110e757602002820191906000526020600020905b8154815260200190600101908083116110d3575b50505050509050919050565b609e5460008281526098602052604090819020600301549051633d36902960e01b81526001600160a01b0390921691633d369029916111389160040190815260200190565b602060405180830381865afa158015611155573d6000803e3d6000fd5b505050506040513d601f19601f82011682018060405250810190611179919061545a565b6001600160a01b031661118a613204565b6001600160a01b03161461121e576040516347bc33cb60e11b8152600481018290526060602482015260146064820152731b585c9ad95d13dddb995c90d85b98d95b109a5960621b608482015260a06044820152602160a48201527f4f6e6c7920746865206d61726b6574206f776e65722063616e2063616e63656c60c4820152602160f81b60e482015261010401610e3c565b611227816132db565b60405181907ff3f271d754f5264e0d143bf9be577d6eba153b0d833bd3a127d7b1a280bb13f190600090a250565b6060611261609c612b12565b905090565b6112708282612812565b6112cc5760405162461bcd60e51b815260206004820152602760248201527f466f72776172646572206d757374206265207472757374656420627920746865604482015266081b585c9ad95d60ca1b6064820152608401610e3c565b6112f56112d7613204565b6001600160a01b038316600090815260a8602052604090209061338f565b50806001600160a01b0316827f65d6b5305e8c0e58e88454a1aeecae0f55975222338b25abd0997b4d305056a161132a613204565b6040516001600160a01b03909116815260200160405180910390a35050565b6099602052816000526040600020818154811061136557600080fd5b90600052602060002001600091509150505481565b6113826133a4565b609f80546001600160a01b0319166001600160a01b0392909216919091179055565b604080518082018252600080825260208083018290528582526098905291909120600c81015460039060ff1660058111156113e1576113e1615066565b1415806113ff57506009810154600160201b900463ffffffff168311155b1561140a5750610b24565b600084815260ac6020526040812054819061142b908490879060ff166131d6565b90865260208601525050505092915050565b604080518082019091526000808252602082015260036000838152609860205260409020600c015460ff16600581111561147957611479615066565b1461148357919050565b600082815260986020908152604080832060ac90925282205482916114ac91429060ff166131d6565b918552506020840152509092915050565b6000818152609860205260408120600c81015460039060ff1660058111156114e7576114e7615066565b146114f25750919050565b60006114fd84611d08565b90506001600085815260ac602052604090205460ff16600181111561152457611524615066565b036115c357600982015460009061154c9063ffffffff600160201b909104811690841661341d565b600984015490915061156a90600160201b900463ffffffff166134a4565b6115798363ffffffff166134a4565b11156115915761158a6002826154c6565b905061159f565b61159c6001826154c6565b90505b60098301546115bb90600160201b900463ffffffff16826134be565b935050611682565b600084815260ac602052604081205460ff1660018111156115e6576115e6615066565b0361168257600b820154600983015461160f9163ffffffff90811691600160201b900416615403565b600983015490935060009061163190600160201b900463ffffffff16836154d9565b905063ffffffff81161561168057600b83015460009061165a9063ffffffff8085169116613590565b600b8501549091506116729063ffffffff16826154f6565b61167c9086615403565b9450505b505b60098201546000906116aa9063ffffffff600160601b8204811691600160201b900416615403565b90508063ffffffff168463ffffffff1611156116c4578093505b505050919050565b6116d46133a4565b6116de60006135c7565b565b60006116ea612b1f565b6116fa8b8b8b8b8b8b8b8b612b6b565b60aa54604051631532dc4560e01b81529192506000916001600160a01b0390911690631532dc45906117349085908890889060040161552b565b6020604051808303816000875af1158015611753573d6000803e3d6000fd5b505050506040513d601f19601f8201168201806040525081019061177791906155cc565b90506001811515146117dd5760405162461bcd60e51b815260206004820152602960248201527f436f6c6c61746572616c2062616c616e636520636f756c64206e6f74206265206044820152681d985b1a59185d195960ba1b6064820152608401610e3c565b509a9950505050505050505050565b60408051808201909152600d81526c3634b8bab4b230ba32a637b0b760991b6020820152819060036000838152609860205260409020600c015460ff16600581111561183a5761183a615066565b1461185c5781816040516347bc33cb60e11b8152600401610e3c929190615477565b61186583612952565b6118b15760405162461bcd60e51b815260206004820152601760248201527f4c6f616e206d7573742062652064656661756c7465642e0000000000000000006044820152606401610e3c565b600083815260986020908152604080832060ac90925282205490919081906118df908490429060ff166131d6565b925050915061191086604051806040016040528085815260200184815250838561190991906154c6565b6000613619565b600c8301805460ff1916600517905560038301546000906119309061320e565b60aa5460405163f0472c4960e01b8152600481018a90526001600160a01b03808416602483015292935091169063f0472c4990604401600060405180830381600087803b15801561198057600080fd5b505af1158015611994573d6000803e3d6000fd5b50506040516001600160a01b03841692508991507f73de9acc561f27528ab0a3b5dd63fefb4e59f95575891299a6f862a78779817690600090a350505050505050565b6040805180820190915260098152683932b830bca637b0b760b91b6020820152829060036000838152609860205260409020600c015460ff166005811115611a2157611a21615066565b14611a435781816040516347bc33cb60e11b8152600401610e3c929190615477565b600084815260986020908152604080832060ac90925282205482918291611a6f9190429060ff166131d6565b919450925090506000611a8282846154c6565b905080871015611ab55760405162dd9d0f60e61b8152600481018990526024810188905260448101829052606401610e3c565b611ae9886040518060400160405280858b611ad091906155e7565b8152602001859052611ae285886154c6565b6001613619565b5050505050505050565b600081815260986020526040902080546003909101546001600160a01b0390911690611b1e9061320e565b6001600160a01b031614611b9c576040516347bc33cb60e11b81526004810182905260606024820152600960648201526818d85b98d95b109a5960ba1b608482015260a06044820152601e60a48201527f4f6e6c792074686520626964206f776e65722063616e2063616e63656c21000060c482015260e401610e3c565b611ba5816132db565b50565b6040805180820190915260098152683932b830bca637b0b760b91b6020820152819060036000838152609860205260409020600c015460ff166005811115611bf257611bf2615066565b14611c145781816040516347bc33cb60e11b8152600401610e3c929190615477565b600083815260986020908152604080832060ac9092528220548291611c3d91429060ff166131d6565b9250509150611c67856040518060400160405280858152602001848152508385611ae291906154c6565b5050505050565b60008181526098602052604090206002015460ab546001600160a01b0391821691168103611d035760ab546040516331a9108f60e11b8152600481018490526001600160a01b0390911690636352211e90602401602060405180830381865afa158015611cdf573d6000803e3d6000fd5b505050506040513d601f19601f82011682018060405250810190610b24919061545a565b919050565b6000818152609860205260408120610b24906138d7565b611d276133a4565b611d32609c8261391d565b5050565b6000806000836040518060400160405280600f81526020016e1b195b99195c9058d8d95c1d109a59608a1b81525060016005811115611d7757611d77615066565b6000838152609860205260409020600c015460ff166005811115611d9d57611d9d615066565b14611dbf5781816040516347bc33cb60e11b8152600401610e3c9291906155fa565b611dc7612b1f565b60008681526098602052604081206003810154909190611de69061320e565b609e546003840154604051633ef19a9b60e01b815260048101919091526001600160a01b03808416602483015292935060009290911690633ef19a9b906044016040805180830381865afa158015611e42573d6000803e3d6000fd5b505050506040513d601f19601f82011682018060405250810190611e669190615647565b50905080611eac5760405162461bcd60e51b81526020600482015260136024820152722737ba103b32b934b334b2b2103632b73232b960691b6044820152606401610e3c565b609e546003840154604051631cc672df60e01b81526001600160a01b0390921691631cc672df91611ee39160040190815260200190565b602060405180830381865afa158015611f00573d6000803e3d6000fd5b505050506040513d601f19601f82011682018060405250810190611f2491906155cc565b15611f645760405162461bcd60e51b815260206004820152601060248201526f13585c9ad95d081a5cc818db1bdcd95960821b6044820152606401610e3c565b611f6d89610c3f565b15611fac5760405162461bcd60e51b815260206004820152600f60248201526e109a59081a185cc8195e1c1a5c9959608a1b6044820152606401610e3c565b6009830180546bffffffffffffffff000000001916600160201b4263ffffffff1690810263ffffffff60401b191691909117600160401b91909102179055600c830180546003919060ff191660018302179055506002830180546001600160a01b0319166001600160a01b038481169190911790915560aa546040516346f0b08b60e11b8152600481018c9052911690638de1611690602401600060405180830381600087803b15801561205f57600080fd5b505af1158015612073573d6000803e3d6000fd5b5050505061209261208760655461ffff1690565b600685015490613932565b609e54600385015460405163028ba63960e21b8152929a50612111926001600160a01b0390921691630a2e98e4916120d09160040190815260200190565b602060405180830381865afa1580156120ed573d6000803e3d6000fd5b505050506040513d601f19601f820116820180604052508101906120879190615673565b96508688846005016001015461212791906155e7565b61213191906155e7565b955061215f826121496033546001600160a01b031690565b60058601546001600160a01b031691908b613944565b609e5460038401546040516332209bcb60e11b81526121f39285926001600160a01b039091169163644137969161219c9160040190815260200190565b602060405180830381865afa1580156121b9573d6000803e3d6000fd5b505050506040513d601f19601f820116820180604052508101906121dd919061545a565b60058601546001600160a01b031691908a613944565b60018301546005840154612216916001600160a01b039182169185911689613944565b600683015460058401546001600160a01b03908116600090815260a360209081526040808320938716835292905290812080549091906122579084906154c6565b9091555050600683015460058401546001600160a01b0316600090815260a460205260408120805490919061228d9084906154c6565b909155505082546001600160a01b0316600090815260a0602052604090206122b5908a6139a4565b506040516001600160a01b038316908a907fde9d3bfa8771df6761c0afac2375c88c70a3aa30478e1bd15363294033b470ed90600090a3604051671c1c9bdd1bd8dbdb60c21b81528890600801604051908190038120908b907f476a21a61ac4a7da250e040733aa10facd2eeee584b2c009d178c3de3d8a12dc90600090a46040516a6d61726b6574706c61636560a81b81528790600b01604051908190038120908b907f476a21a61ac4a7da250e040733aa10facd2eeee584b2c009d178c3de3d8a12dc90600090a450505050509193909250565b600054610100900460ff16158080156123ab5750600054600160ff909116105b806123c55750303b1580156123c5575060005460ff166001145b6123e15760405162461bcd60e51b8152600401610e3c90615690565b6000805460ff191660011790558015612404576000805461ff0019166101001790555b61240d896139b0565b6124156139e8565b60a980546001600160a01b038089166001600160a01b031992831617909255609e80548b8416908316179055609f8054928a169290911691909117905561245b83613a17565b61246482613b1e565b836124b15760405162461bcd60e51b815260206004820152601b60248201527f4e6f206c656e64696e6720746f6b656e732073706563696669656400000000006044820152606401610e3c565b60005b8481101561257d576124f58686838181106124d1576124d16156de565b90506020020160208101906124e69190614d62565b6001600160a01b03163b151590565b6125415760405162461bcd60e51b815260206004820152601a60248201527f6c656e64696e6720746f6b656e206e6f7420636f6e74726163740000000000006044820152606401610e3c565b61256b868683818110612556576125566156de565b9050602002016020810190610a669190614d62565b80612575816156f4565b9150506124b4565b5080156125c4576000805461ff0019169055604051600181527f7f26b83ff96e1f2b6a682f133852f6798a09c465da95921460cefb38474024989060200160405180910390a15b505050505050505050565b600081815260a6602052604090208054606091906125ec90615420565b80601f016020809104026020016040519081016040528092919081815260200182805461261890615420565b80156126655780601f1061263a57610100808354040283529160200191612665565b820191906000526020600020905b81548152906001019060200180831161264857829003601f168201915b505050505090508060405160200161267d919061570d565b604051602081830303815290604052805190602001207fc5d2460186f7233c927e7db2dcc703c0e500b653ca82273b7bfad8045d85a47060001b03611d035760008281526098602090815260409091206004015490611080908290613c17565b6040805180820190915260098152683932b830bca637b0b760b91b6020820152819060036000838152609860205260409020600c015460ff16600581111561272757612727615066565b146127495781816040516347bc33cb60e11b8152600401610e3c929190615477565b600083815260986020908152604080832060ac909252822054829182916127759190429060ff166131d6565b9250925092506127a0866040518060400160405280858152602001848152508386611ae291906154c6565b505050505050565b6127b06133a4565b6001600160a01b0381163b6128075760405162461bcd60e51b815260206004820152601f60248201527f496e636f7272656374206c656e64696e6720746f6b656e2061646472657373006044820152606401610e3c565b611d32609c8261338f565b600082815260a760205260408120546001600160a01b038381169116148061108057505060a9546001600160a01b03908116911614919050565b604080518082019091526000808252602082015260036000838152609860205260409020600c015460ff16600581111561288857612888615066565b1461289257919050565b600082815260986020908152604080832060ac90925282205482916128bb91429060ff166131d6565b908552602085015250919392505050565b6128d46133a4565b6128dc612b1f565b6116de613db3565b6128ec6133a4565b60655461ffff828116911614611ba5576065805461ffff83811661ffff198316811790935560408051938452911660208301819052917f4810ece076cee6c6042808956f3f65dad1bc72b75181341d7bed810d39deda0f91015b60405180910390a15050565b60008181526098602052604081206003600c82015460ff16600581111561297b5761297b615066565b146129895750600092915050565b600083815260a1602052604081205463ffffffff1690036129ad5750600092915050565b600083815260a1602052604090205463ffffffff166129cb84611d08565b6129d590426154d9565b63ffffffff16119392505050565b6129eb6133a4565b6001600160a01b038116612a505760405162461bcd60e51b815260206004820152602660248201527f4f776e61626c653a206e6577206f776e657220697320746865207a65726f206160448201526564647265737360d01b6064820152608401610e3c565b611ba5816135c7565b612a616133a4565b612a69613e12565b6116de613e61565b600054600890610100900460ff16158015612a93575060005460ff8083169116105b612aaf5760405162461bcd60e51b8152600401610e3c90615690565b6000805461ffff191660ff831617610100179055612acb6133a4565b612ad482613b1e565b6000805461ff001916905560405160ff821681527f7f26b83ff96e1f2b6a682f133852f6798a09c465da95921460cefb384740249890602001612946565b6060600061108083613e9e565b60655462010000900460ff16156116de5760405162461bcd60e51b815260206004820152601060248201526f14185d5cd8589b194e881c185d5cd95960821b6044820152606401610e3c565b600080612b778961320e565b609e5460405163066e751360e01b8152600481018c90526001600160a01b0380841660248301529293506000929091169063066e7513906044016040805180830381865afa158015612bcd573d6000803e3d6000fd5b505050506040513d601f19601f82011682018060405250810190612bf19190615647565b50905080612c395760405162461bcd60e51b81526020600482015260156024820152742737ba103b32b934b334b2b2103137b93937bbb2b960591b6044820152606401610e3c565b609e54604051631cc672df60e01b8152600481018c90526001600160a01b0390911690631cc672df90602401602060405180830381865afa158015612c82573d6000803e3d6000fd5b505050506040513d601f19601f82011682018060405250810190612ca691906155cc565b15612ce65760405162461bcd60e51b815260206004820152601060248201526f13585c9ad95d081a5cc818db1bdcd95960821b6044820152606401610e3c565b612cf1609c8c6132b9565b612d3d5760405162461bcd60e51b815260206004820152601c60248201527f4c656e64696e6720746f6b656e206e6f7420617574686f72697a6564000000006044820152606401610e3c565b609754600081815260986020526040902080546001600160a01b0319166001600160a01b03858116919091178255919450908516612d855780546001600160a01b0316612d87565b845b6001820180546001600160a01b03199081166001600160a01b0393841617909155600383018d90556005830180549091168e8316179055600682018b90556009820180546fffffffff0000000000000000ffffffff1916600160601b63ffffffff8d81169190910263ffffffff1916919091174291909116179055609e5460405163a5630f1960e01b8152600481018e905291169063a5630f19906024016040805180830381865afa158015612e41573d6000803e3d6000fd5b505050506040513d601f19601f82011682018060405250810190612e659190615736565b609754600090815260ac602052604081208054600b86019291849160ff191660018381811115612e9757612e97615066565b021790555081546101009190910a63ffffffff8181021990921694909116029290921790915550600b8101805465ffff000000001916600160201b61ffff8b1602179055609e546040516311bed5bb60e01b8152600481018d90526001600160a01b03909116906311bed5bb90602401602060405180830381865afa158015612f24573d6000803e3d6000fd5b505050506040513d601f19601f82011682018060405250810190612f489190615765565b609754600090815260a1602052604090819020805463ffffffff191663ffffffff9390931692909217909155609e54905163082fc54d60e01b8152600481018d90526001600160a01b039091169063082fc54d90602401602060405180830381865afa158015612fbc573d6000803e3d6000fd5b505050506040513d601f19601f82011682018060405250810190612fe09190615765565b609754600090815260a2602052604090819020805463ffffffff191663ffffffff9390931692909217909155609e54905163d6e794dd60e01b8152600481018d90526001600160a01b039091169063d6e794dd90602401602060405180830381865afa158015613054573d6000803e3d6000fd5b505050506040513d601f19601f820116820180604052508101906130789190615782565b600c8201805461ff00191661010083600181111561309857613098615066565b0217905550600c810154609754600090815260ac6020526040902054600b8301546130da9260ff61010090910481169216908d908d9063ffffffff168d613ef8565b600a820155609754600090815260a6602052604090206130fb8789836157fb565b50600c8101805460ff1916600117905560405161311e90889088906020016158bb565b60408051808303601f19018152908290528051602091820120835460975460018601546001600160a01b0390811686529294929091169290917ff887b1f393f43fb94c5d50483df4bd410ffbf286128c5f24ff56c580ac7f731c910160405180910390a480546001600160a01b031660009081526099602090815260408220609780548254600181018455928552928420909101919091558054916131c2836156f4565b919050555050505098975050505050505050565b60008060006131f5866131e8886138d7565b63ffffffff168787613f95565b92509250925093509350939050565b600061126161413b565b600061321c82610a79613204565b156132b15760131936013560601c6132598160a8600061323a613204565b6001600160a01b031681526020810191909152604001600020906132b9565b610b245760405162461bcd60e51b8152602060048201526024808201527f53656e646572206d75737420617070726f7665206d61726b657420666f727761604482015263393232b960e11b6064820152608401610e3c565b610b24613204565b6001600160a01b03811660009081526001830160205260408120541515611080565b60408051808201909152600981526818d85b98d95b109a5960ba1b6020820152819060016000838152609860205260409020600c015460ff16600581111561332557613325615066565b146133475781816040516347bc33cb60e11b8152600401610e3c9291906155fa565b600083815260986020526040808220600c01805460ff191660021790555184917fa0633b09ac3029a6746aa27d4db1407f5f287a10c41a6b2ad2859f4da9b2680b91a2505050565b6000611080836001600160a01b03841661417f565b6133ac613204565b6001600160a01b03166133c76033546001600160a01b031690565b6001600160a01b0316146116de5760405162461bcd60e51b815260206004820181905260248201527f4f776e61626c653a2063616c6c6572206973206e6f7420746865206f776e65726044820152606401610e3c565b60008183111561342c57600080fd5b60008061344461343f62015180876158e1565b6141ce565b50909250905060008061345d61343f62015180886158e1565b5090925090508261346f85600c6158f5565b8261347b85600c6158f5565b61348591906154c6565b61348f91906155e7565b61349991906155e7565b979650505050505050565b60006134b661343f62015180846158e1565b949350505050565b60008080806134d361343f62015180886158e1565b919450925090506134e485836154c6565b9150600c6134f36001846155e7565b6134fd91906158e1565b61350790846154c6565b9250600c6135166001846155e7565b613520919061590c565b61352b9060016154c6565b915060006135398484614342565b905080821115613547578091505b613554620151808861590c565b620151806135638686866143c8565b61356d91906158f5565b61357791906154c6565b94508685101561358657600080fd5b5050505092915050565b600082156135be57816135a46001856155e7565b6135ae91906158e1565b6135b99060016154c6565b611080565b50600092915050565b603380546001600160a01b038381166001600160a01b0319831681179093556040519116919082907f8be0079c531659141344cd1fd0a4f28419497f9722a3daafe3b4186f6b6457e090600090a35050565b6000848152609860209081526040822090850151855191929161363c91906154c6565b609f54835460405163c7312e4760e01b81526001600160a01b039182166004820152602481018a905292935060009291169063c7312e47906044016020604051808303816000875af1158015613696573d6000803e3d6000fd5b505050506040513d601f19601f820116820180604052508101906136ba9190615920565b905084821061378e57600c8301805460ff1916600417905582546001600160a01b0316600090815260a0602052604090208592506136f89088614505565b50831561375e5760aa54604051632e1a7d4d60e01b8152600481018990526001600160a01b0390911690632e1a7d4d90602401600060405180830381600087803b15801561374557600080fd5b505af1158015613759573d6000803e3d6000fd5b505050505b60405187907f9a7851747cd7ffb3fe0a32caf3da48b31f27cebe131267051640f8b72fc4718690600090a26137ba565b60405187907f68ca97895fe2d09eab47e752271728ade667e72dda27e68c20eaa191a9c2187d90600090a25b60006137c588611c6e565b90506137ed6137d7856003015461320e565b60058601546001600160a01b0316908386613944565b86516007850180546000906138039084906154c6565b909155505060208701516008850180546000906138219084906154c6565b909155505060098401805463ffffffff60401b1916600160401b4263ffffffff1602179055600082600281111561385a5761385a615066565b14611ae957609f54845460405163c7312e4760e01b81526001600160a01b039182166004820152602481018b905291169063c7312e47906044016020604051808303816000875af11580156138b3573d6000803e3d6000fd5b505050506040513d601f19601f820116820180604052508101906125c49190615920565b6009810154600090600160401b900463ffffffff1615613908576009820154600160401b900463ffffffff16610b24565b5060090154600160201b900463ffffffff1690565b6000611080836001600160a01b03841661450d565b6000611080838361ffff166002614607565b604080516001600160a01b0385811660248301528416604482015260648082018490528251808303909101815260849091019091526020810180516001600160e01b03166323b872dd60e01b17905261399e908590614626565b50505050565b6000611080838361417f565b600054610100900460ff166139d75760405162461bcd60e51b8152600401610e3c9061593d565b6139df6146fd565b611ba58161472c565b600054610100900460ff16613a0f5760405162461bcd60e51b8152600401610e3c9061593d565b6116de61475c565b600054610100900460ff16613a3e5760405162461bcd60e51b8152600401610e3c9061593d565b60aa546001600160a01b031615613a975760405162461bcd60e51b815260206004820152601e60248201527f436f6c6c61746572616c204d616e6167657220616c72656164792073657400006044820152606401610e3c565b6001600160a01b0381163b613afc5760405162461bcd60e51b815260206004820152602560248201527f436f6c6c61746572616c204d616e61676572206d757374206265206120636f6e6044820152641d1c9858dd60da1b6064820152608401610e3c565b60aa80546001600160a01b0319166001600160a01b0392909216919091179055565b600054610100900460ff16613b455760405162461bcd60e51b8152600401610e3c9061593d565b60ab546001600160a01b031615613b9e5760405162461bcd60e51b815260206004820152601960248201527f4c656e6465724d616e6167657220616c726561647920736574000000000000006044820152606401610e3c565b6001600160a01b0381163b613bf55760405162461bcd60e51b815260206004820181905260248201527f4c656e6465724d616e61676572206d757374206265206120636f6e74726163746044820152606401610e3c565b60ab80546001600160a01b0319166001600160a01b0392909216919091179055565b60606000613c268360026158f5565b613c319060026154c6565b67ffffffffffffffff811115613c4957613c4961579f565b6040519080825280601f01601f191660200182016040528015613c73576020820181803683370190505b509050600360fc1b81600081518110613c8e57613c8e6156de565b60200101906001600160f81b031916908160001a905350600f60fb1b81600181518110613cbd57613cbd6156de565b60200101906001600160f81b031916908160001a9053506000613ce18460026158f5565b613cec9060016154c6565b90505b6001811115613d64576f181899199a1a9b1b9c1cb0b131b232b360811b85600f1660108110613d2057613d206156de565b1a60f81b828281518110613d3657613d366156de565b60200101906001600160f81b031916908160001a90535060049490941c93613d5d81615988565b9050613cef565b5083156110805760405162461bcd60e51b815260206004820181905260248201527f537472696e67733a20686578206c656e67746820696e73756666696369656e746044820152606401610e3c565b613dbb612b1f565b6065805462ff00001916620100001790557f62e78cea01bee320cd4e420270b5ea74000d11b0c9f74754ebdbfc544b05a258613df5613204565b6040516001600160a01b03909116815260200160405180910390a1565b60655462010000900460ff166116de5760405162461bcd60e51b815260206004820152601460248201527314185d5cd8589b194e881b9bdd081c185d5cd95960621b6044820152606401610e3c565b613e69613e12565b6065805462ff0000191690557f5db9ee0a495bf2e6ff9c91a7834c1ba4fdd244a5e8aa4e537bd38aeae4b073aa613df5613204565b6060816000018054806020026020016040519081016040528092919081815260200182805480156110e757602002820191906000526020600020908154815260200190600101908083116110d35750505050509050919050565b6000806001876001811115613f0f57613f0f615066565b14613f1e576301e13380613f24565b6301da9c005b63ffffffff1690506001886001811115613f4057613f40615066565b03613f7a57613f72613f5f63ffffffff808716908490600a9061479116565b600a613f6b8987613932565b9190614607565b915050613f8b565b613f8786868686856147b7565b9150505b9695505050505050565b6007840154600685015460009182918291613faf916155e7565b925060006001856001811115613fc757613fc7615066565b14613fd6576301e13380613fdc565b6301da9c005b63ffffffff169050600061400e89600a0160010160049054906101000a900461ffff168661393290919063ffffffff16565b9050600061401c89896155e7565b90508261402982846158f5565b61403391906158e1565b60098b015490945060009061405590600160201b900463ffffffff168a61599f565b60098c01546140719190600160601b900463ffffffff1661599f565b600b8c015490915060009063ffffffff1682128061409c5750600a8c0154614099878a6154c6565b11155b90506001600c8d0154610100900460ff1660018111156140be576140be615066565b036140d25780156140cd578796505b61412c565b6000816140e357600a8d01546140ed565b6140ed878a6154c6565b600b8e015490915060009063ffffffff1661410886846158f5565b61411291906158e1565b905061412761412189836155e7565b8b6148eb565b985050505b50505050509450945094915050565b60007f00000000000000000000000000000000000000000000000000000000000000006001600160a01b0316330361417a575060131936013560601c90565b503390565b60008181526001830160205260408120546141c657508154600181810184556000848152602080822090930184905584548482528286019093526040902091909155610b24565b506000610b24565b60008080838162253d8c6141e58362010bd96159bf565b6141ef91906159bf565b9050600062023ab16142028360046159df565b61420c9190615a0f565b9050600461421d8262023ab16159df565b6142289060036159bf565b6142329190615a0f565b61423c908361599f565b9150600062164b0961424f8460016159bf565b61425b90610fa06159df565b6142659190615a0f565b90506004614275826105b56159df565b61427f9190615a0f565b614289908461599f565b61429490601f6159bf565b9250600061098f6142a68560506159df565b6142b09190615a0f565b9050600060506142c28361098f6159df565b6142cc9190615a0f565b6142d6908661599f565b90506142e3600b83615a0f565b94506142f085600c6159df565b6142fb8360026159bf565b614305919061599f565b9150848361431460318761599f565b61431f9060646159df565b61432991906159bf565b61433391906159bf565b9a919950975095505050505050565b600081600114806143535750816003145b8061435e5750816005145b806143695750816007145b806143745750816008145b8061437f575081600a145b8061438a575081600c145b156143975750601f610b24565b816002146143a75750601e610b24565b6143b083614901565b6143bb57601c6143be565b601d5b60ff169392505050565b60006107b28410156143d957600080fd5b838383600062253d8c60046064600c6143f3600e8861599f565b6143fd9190615a0f565b614409886113246159bf565b61441391906159bf565b61441d9190615a0f565b6144289060036159df565b6144329190615a0f565b600c80614440600e8861599f565b61444a9190615a0f565b61445590600c6159df565b61446060028861599f565b61446a919061599f565b6144769061016f6159df565b6144809190615a0f565b6004600c61448f600e8961599f565b6144999190615a0f565b6144a5896112c06159bf565b6144af91906159bf565b6144bb906105b56159df565b6144c59190615a0f565b6144d1617d4b8761599f565b6144db91906159bf565b6144e591906159bf565b6144ef919061599f565b6144f9919061599f565b98975050505050505050565b600061108083835b600081815260018301602052604081205480156145f65760006145316001836155e7565b8554909150600090614545906001906155e7565b90508181146145aa576000866000018281548110614565576145656156de565b9060005260206000200154905080876000018481548110614588576145886156de565b6000918252602080832090910192909255918252600188019052604090208390555b85548690806145bb576145bb615a3d565b600190038181906000526020600020016000905590558560010160008681526020019081526020016000206000905560019350505050610b24565b6000915050610b24565b5092915050565b60006146128261493d565b61461c84866158f5565b61107d91906158e1565b600061467b826040518060400160405280602081526020017f5361666545524332303a206c6f772d6c6576656c2063616c6c206661696c6564815250856001600160a01b03166149559092919063ffffffff16565b8051909150156146f8578080602001905181019061469991906155cc565b6146f85760405162461bcd60e51b815260206004820152602a60248201527f5361666545524332303a204552433230206f7065726174696f6e20646964206e6044820152691bdd081cdd58d8d9595960b21b6064820152608401610e3c565b505050565b600054610100900460ff166147245760405162461bcd60e51b8152600401610e3c9061593d565b6116de614964565b600054610100900460ff166147535760405162461bcd60e51b8152600401610e3c9061593d565b611ba5816128e4565b600054610100900460ff166147835760405162461bcd60e51b8152600401610e3c9061593d565b6065805462ff000019169055565b6000826000036147a357506000611080565b826147ad8361493d565b61461c90866158f5565b60008363ffffffff168563ffffffff1610156148215760405162461bcd60e51b815260206004820152602360248201527f504d543a206379636c65206475726174696f6e203c206c6f616e20647572617460448201526234b7b760e91b6064820152608401610e3c565b8261ffff1660000361484d57614846868563ffffffff168763ffffffff16600161499b565b90506148e2565b60006148658663ffffffff168663ffffffff16613590565b9050670de0b6b3a764000060006148958561488f63ffffffff8a166148898a6149ec565b90614a10565b90614a44565b905060006148ad846148a784866154c6565b90614a74565b905060006148bf826148898d86614a10565b905060006148cd85846155e7565b90506148d98282614a44565b96505050505050505b95945050505050565b60008183106148fa5781611080565b5090919050565b600061490e60048361590c565b158015614924575061492160648361590c565b15155b80610b2457506149366101908361590c565b1592915050565b600061494a82600a615b37565b610b249060646158f5565b606061107d8484600085614a8c565b600054610100900460ff1661498b5760405162461bcd60e51b8152600401610e3c9061593d565b6116de614996613204565b6135c7565b6000806149a9868686614b5c565b905060018360028111156149bf576149bf615066565b1480156149dc5750600084806149d7576149d76158cb565b868809115b156148e257613f8b6001826154c6565b6000610b24612710614a0a61ffff8516670de0b6b3a7640000614c0b565b90614c17565b6000611080670de0b6b3a7640000614a0a614a2b8686614c0b565b614a3e6002670de0b6b3a76400006158e1565b90614c23565b600080614a526002846158e1565b90506134b683614a0a614a6d87670de0b6b3a7640000614c0b565b8490614c23565b60006110808383670de0b6b3a7640000614a10614c2f565b606082471015614aed5760405162461bcd60e51b815260206004820152602660248201527f416464726573733a20696e73756666696369656e742062616c616e636520666f6044820152651c8818d85b1b60d21b6064820152608401610e3c565b600080866001600160a01b03168587604051614b09919061570d565b60006040518083038185875af1925050503d8060008114614b46576040519150601f19603f3d011682016040523d82523d6000602084013e614b4b565b606091505b509150915061349987838387614ca4565b6000808060001985870985870292508281108382030391505080600003614b9657838281614b8c57614b8c6158cb565b0492505050611080565b808411614ba257600080fd5b60008486880960026001871981018816978890046003810283188082028403028082028403028082028403028082028403028082028403029081029092039091026000889003889004909101858311909403939093029303949094049190911702949350505050565b600061108082846158f5565b600061108082846158e1565b600061108082846154c6565b6000614c3c60028561590c565b600003614c495782614c4b565b845b9050614c586002856158e1565b93505b83156134b657614c6f85868463ffffffff16565b9450614c7c60028561590c565b15614c9257614c8f81868463ffffffff16565b90505b614c9d6002856158e1565b9350614c5b565b60608315614d13578251600003614d0c576001600160a01b0385163b614d0c5760405162461bcd60e51b815260206004820152601d60248201527f416464726573733a2063616c6c20746f206e6f6e2d636f6e74726163740000006044820152606401610e3c565b50816134b6565b6134b68383815115614d285781518083602001fd5b8060405162461bcd60e51b8152600401610e3c9190614fab565b6001600160a01b0381168114611ba557600080fd5b8035611d0381614d42565b600060208284031215614d7457600080fd5b813561108081614d42565b6020808252825182820181905260009190848201906040850190845b81811015614db757835183529284019291840191600101614d9b565b50909695505050505050565b63ffffffff81168114611ba557600080fd5b61ffff81168114611ba557600080fd5b60008083601f840112614df757600080fd5b50813567ffffffffffffffff811115614e0f57600080fd5b602083019150836020828501011115614e2757600080fd5b9250929050565b60008060008060008060008060e0898b031215614e4a57600080fd5b8835614e5581614d42565b975060208901359650604089013595506060890135614e7381614dc3565b94506080890135614e8381614dd5565b935060a089013567ffffffffffffffff811115614e9f57600080fd5b614eab8b828c01614de5565b90945092505060c0890135614ebf81614d42565b809150509295985092959890939650565b60008060408385031215614ee357600080fd5b8235614eee81614d42565b91506020830135614efe81614d42565b809150509250929050565b600060208284031215614f1b57600080fd5b5035919050565b60008060408385031215614f3557600080fd5b50508035926020909101359150565b815181526020808301519082015260408101610b24565b60005b83811015614f76578181015183820152602001614f5e565b50506000910152565b60008151808452614f97816020860160208601614f5b565b601f01601f19169290920160200192915050565b6020815260006110806020830184614f7f565b60008060408385031215614fd157600080fd5b823591506020830135614efe81614d42565b600080600060608486031215614ff857600080fd5b83359250602084013561500a81614d42565b9150604084013561501a81614d42565b809150509250925092565b6020808252825182820181905260009190848201906040850190845b81811015614db75783516001600160a01b031683529284019291840191600101615041565b634e487b7160e01b600052602160045260246000fd5b60028110611ba557611ba5615066565b602081016150998361507c565b91905290565b600080604083850312156150b257600080fd5b82356150bd81614d42565b946020939093013593505050565b600681106150db576150db615066565b9052565b6150db8161507c565b60006102408201905060018060a01b03808c168352808b166020840152808a1660408401528860608401528760808401528087511660a084015250602086015160c0830152604086015161514960e084018280518252602090810151910152565b50606086015163ffffffff9081166101208401526080870151811661014084015260a08701511661016083015260c086015161518e61018084018263ffffffff169052565b5084516101a0830152602085015163ffffffff166101c0830152604085015161ffff166101e08301526151c56102008301856150cb565b6151d36102208301846150df565b9a9950505050505050505050565b6000806000806000806000806000806101008b8d03121561520157600080fd5b8a3561520c81614d42565b995060208b0135985060408b0135975060608b013561522a81614dc3565b965060808b013561523a81614dd5565b955060a08b013567ffffffffffffffff8082111561525757600080fd5b6152638e838f01614de5565b909750955060c08d0135915061527882614d42565b90935060e08c0135908082111561528e57600080fd5b818d0191508d601f8301126152a257600080fd5b8135818111156152b157600080fd5b8e60208260071b85010111156152c657600080fd5b6020830194508093505050509295989b9194979a5092959850565b60008060008060008060008060e0898b0312156152fd57600080fd5b883561530881614dd5565b9750602089013561531881614d42565b9650604089013561532881614d42565b9550606089013561533881614d42565b9450608089013567ffffffffffffffff8082111561535557600080fd5b818b0191508b601f83011261536957600080fd5b81358181111561537857600080fd5b8c60208260051b850101111561538d57600080fd5b6020830196508095505050506153a560a08a01614d57565b91506153b360c08a01614d57565b90509295985092959890939650565b60208101610b2482846150cb565b6000602082840312156153e257600080fd5b813561108081614dd5565b634e487b7160e01b600052601160045260246000fd5b63ffffffff818116838216019080821115614600576146006153ed565b600181811c9082168061543457607f821691505b60208210810361545457634e487b7160e01b600052602260045260246000fd5b50919050565b60006020828403121561546c57600080fd5b815161108081614d42565b8281526060602082015260006154906060830184614f7f565b8281036040938401526015815274131bd85b881b5d5cdd081899481858d8d95c1d1959605a1b6020820152919091019392505050565b80820180821115610b2457610b246153ed565b63ffffffff828116828216039080821115614600576146006153ed565b63ffffffff818116838216028082169190828114615516576155166153ed565b505092915050565b60038110611ba557600080fd5b838152604060208083018290528282018490526000919060609081850187855b888110156155ad57813561555e8161551e565b6003811061556e5761556e615066565b8352818401358484015285820135868401528482013561558d81614d42565b6001600160a01b031683860152608092830192919091019060010161554b565b50909998505050505050505050565b80518015158114611d0357600080fd5b6000602082840312156155de57600080fd5b611080826155bc565b81810381811115610b2457610b246153ed565b8281526060602082015260006156136060830184614f7f565b8281036040938401526013815272426964206d7573742062652070656e64696e6760681b6020820152919091019392505050565b6000806040838503121561565a57600080fd5b615663836155bc565b9150602083015190509250929050565b60006020828403121561568557600080fd5b815161108081614dd5565b6020808252602e908201527f496e697469616c697a61626c653a20636f6e747261637420697320616c72656160408201526d191e481a5b9a5d1a585b1a5e995960921b606082015260800190565b634e487b7160e01b600052603260045260246000fd5b600060018201615706576157066153ed565b5060010190565b6000825161571f818460208701614f5b565b9190910192915050565b60028110611ba557600080fd5b6000806040838503121561574957600080fd5b825161575481614dc3565b6020840151909250614efe81615729565b60006020828403121561577757600080fd5b815161108081614dc3565b60006020828403121561579457600080fd5b815161108081615729565b634e487b7160e01b600052604160045260246000fd5b601f8211156146f857600081815260208120601f850160051c810160208610156157dc5750805b601f850160051c820191505b818110156127a0578281556001016157e8565b67ffffffffffffffff8311156158135761581361579f565b615827836158218354615420565b836157b5565b6000601f84116001811461585b57600085156158435750838201355b600019600387901b1c1916600186901b178355611c67565b600083815260209020601f19861690835b8281101561588c578685013582556020948501946001909201910161586c565b50868210156158a95760001960f88860031b161c19848701351681555b505060018560011b0183555050505050565b8183823760009101908152919050565b634e487b7160e01b600052601260045260246000fd5b6000826158f0576158f06158cb565b500490565b8082028115828204841417610b2457610b246153ed565b60008261591b5761591b6158cb565b500690565b60006020828403121561593257600080fd5b81516110808161551e565b6020808252602b908201527f496e697469616c697a61626c653a20636f6e7472616374206973206e6f74206960408201526a6e697469616c697a696e6760a81b606082015260800190565b600081615997576159976153ed565b506000190190565b8181036000831280158383131683831282161715614600576146006153ed565b8082018281126000831280158216821582161715615516576155166153ed565b80820260008212600160ff1b841416156159fb576159fb6153ed565b8181058314821517610b2457610b246153ed565b600082615a1e57615a1e6158cb565b600160ff1b821460001984141615615a3857615a386153ed565b500590565b634e487b7160e01b600052603160045260246000fd5b600181815b80851115615a8e578160001904821115615a7457615a746153ed565b80851615615a8157918102915b93841c9390800290615a58565b509250929050565b600082615aa557506001610b24565b81615ab257506000610b24565b8160018114615ac85760028114615ad257615aee565b6001915050610b24565b60ff841115615ae357615ae36153ed565b50506001821b610b24565b5060208310610133831016604e8410600b8410161715615b11575081810a610b24565b615b1b8383615a53565b8060001904821115615b2f57615b2f6153ed565b029392505050565b60006110808383615a9656fea26469706673582212208f505c5f9bb025fb596c5466edf20290f9cbabb99c79275b6a8f0c25a11ce8c164736f6c63430008110033",
    "linkReferences": {}
  },
  "methodIdentifiers": {
    "CURRENT_CODE_VERSION()": "4148f94c",
    "_lenderVolumeFilled(address)": "b5d34fcd",
    "_totalVolumeFilled()": "1289b396",
    "addLendingToken(address)": "d76ac91f",
    "approveMarketForwarder(uint256,address)": "2e9332d4",
    "bidDefaultDuration(uint256)": "6b76c085",
    "bidExpirationTime(uint256)": "127caa88",
    "bidId()": "8ac47319",
    "bidPaymentCycleType(uint256)": "36735891",
    "bids(uint256)": "4423c5f1",
    "borrowerBids(address,uint256)": "3819bcdc",
    "calculateAmountDue(uint256)": "d974cc57",
    "calculateAmountDue(uint256,uint256)": "6aedfe68",
    "calculateAmountOwed(uint256)": "6c6ca79c",
    "calculateAmountOwed(uint256,uint256)": "1042b85f",
    "calculateNextDueDate(uint256)": "706a43c3",
    "cancelBid(uint256)": "9703ef35",
    "claimLoanNFT(uint256)": "18520f05",
    "collateralManager()": "23be345c",
    "getBidState(uint256)": "bf77ffae",
    "getBorrowerActiveLoanIds(address)": "054de0ff",
    "getBorrowerLoanIds(address)": "1d123633",
    "getLendingTokens()": "235d5a7b",
    "getLoanBorrower(uint256)": "3ef0a2f7",
    "getLoanLender(uint256)": "a10905ea",
    "getLoanLendingToken(uint256)": "14573033",
    "getLoanMarketId(uint256)": "40910c70",
    "getMetadataURI(uint256)": "bde644fb",
    "hasApprovedMarketForwarder(uint256,address,address)": "19b353de",
    "initialize(uint16,address,address,address,address[],address,address)": "b97e8141",
    "isLoanDefaulted(uint256)": "e8cbab09",
    "isLoanExpired(uint256)": "10618223",
    "isPaymentLate(uint256)": "093f5617",
    "isTrustedForwarder(address)": "572b6c05",
    "isTrustedMarketForwarder(uint256,address)": "d87569cc",
    "lastRepaidTimestamp(uint256)": "a51e2bad",
    "lenderAcceptBid(uint256)": "a8cb5d68",
    "lenderCommitmentForwarder()": "ba6d5b15",
    "lenderManager()": "4a06f6ea",
    "lenderVolumeFilled(address,address)": "089487b5",
    "liquidateLoanFull(uint256)": "8288da8a",
    "marketOwnerCancelBid(uint256)": "206c54c7",
    "marketRegistry()": "ecb96fe6",
    "onUpgrade(address)": "fa34c84e",
    "owner()": "8da5cb5b",
    "pauseProtocol()": "dbf62489",
    "paused()": "5c975abb",
    "protocolFee()": "b0e21e8a",
    "removeLendingToken(address)": "a75021ba",
    "renounceOwnership()": "715018a6",
    "repayLoan(uint256,uint256)": "8a700b53",
    "repayLoanFull(uint256)": "9a11e339",
    "repayLoanMinimum(uint256)": "d4eda4cf",
    "reputationManager()": "6b868afb",
    "setProtocolFee(uint16)": "e4467f35",
    "setReputationManager(address)": "56a837f4",
    "setTrustedMarketForwarder(uint256,address)": "1420a266",
    "submitBid(address,uint256,uint256,uint32,uint16,string,address)": "06f33a92",
    "submitBid(address,uint256,uint256,uint32,uint16,string,address,(uint8,uint256,uint256,address)[])": "7bbd53d7",
    "totalVolumeFilled(address)": "2519dc79",
    "transferOwnership(address)": "f2fde38b",
    "unpauseProtocol()": "f93b6be5",
    "uris(uint256)": "1253c546",
    "version()": "54fd4d50"
  },
  "id": 10
}