{
  "abi": [
    {
      "inputs": [
        {
          "internalType": "address",
          "name": "trustedForwarder",
          "type": "address"
        }
      ],
      "stateMutability": "nonpayable",
      "type": "constructor"
    },
    {
      "inputs": [
        {
          "internalType": "uint256",
          "name": "bidId",
          "type": "uint256"
        },
        {
          "internalType": "string",
          "name": "action",
          "type": "string"
        },
        {
          "internalType": "string",
          "name": "message",
          "type": "string"
        }
      ],
      "name": "ActionNotAllowed",
      "type": "error"
    },
    {
      "inputs": [
        {
          "internalType": "uint256",
          "name": "bidId",
          "type": "uint256"
        },
        {
          "internalType": "uint256",
          "name": "payment",
          "type": "uint256"
        },
        {
          "internalType": "uint256",
          "name": "minimumOwed",
          "type": "uint256"
        }
      ],
      "name": "PaymentNotMinimum",
      "type": "error"
    },
    {
      "anonymous": false,
      "inputs": [
        {
          "indexed": true,
          "internalType": "uint256",
          "name": "bidId",
          "type": "uint256"
        },
        {
          "indexed": true,
          "internalType": "address",
          "name": "lender",
          "type": "address"
        }
      ],
      "name": "AcceptedBid",
      "type": "event"
    },
    {
      "anonymous": false,
      "inputs": [
        {
          "indexed": true,
          "internalType": "uint256",
          "name": "bidId",
          "type": "uint256"
        }
      ],
      "name": "CancelledBid",
      "type": "event"
    },
    {
      "anonymous": false,
      "inputs": [
        {
          "indexed": true,
          "internalType": "uint256",
          "name": "bidId",
          "type": "uint256"
        },
        {
          "indexed": true,
          "internalType": "string",
          "name": "feeType",
          "type": "string"
        },
        {
          "indexed": true,
          "internalType": "uint256",
          "name": "amount",
          "type": "uint256"
        }
      ],
      "name": "FeePaid",
      "type": "event"
    },
    {
      "anonymous": false,
      "inputs": [
        {
          "indexed": false,
          "internalType": "uint8",
          "name": "version",
          "type": "uint8"
        }
      ],
      "name": "Initialized",
      "type": "event"
    },
    {
      "anonymous": false,
      "inputs": [
        {
          "indexed": true,
          "internalType": "uint256",
          "name": "bidId",
          "type": "uint256"
        },
        {
          "indexed": true,
          "internalType": "address",
          "name": "liquidator",
          "type": "address"
        }
      ],
      "name": "LoanLiquidated",
      "type": "event"
    },
    {
      "anonymous": false,
      "inputs": [
        {
          "indexed": true,
          "internalType": "uint256",
          "name": "bidId",
          "type": "uint256"
        }
      ],
      "name": "LoanRepaid",
      "type": "event"
    },
    {
      "anonymous": false,
      "inputs": [
        {
          "indexed": true,
          "internalType": "uint256",
          "name": "bidId",
          "type": "uint256"
        }
      ],
      "name": "LoanRepayment",
      "type": "event"
    },
    {
      "anonymous": false,
      "inputs": [
        {
          "indexed": true,
          "internalType": "uint256",
          "name": "marketId",
          "type": "uint256"
        },
        {
          "indexed": true,
          "internalType": "address",
          "name": "forwarder",
          "type": "address"
        },
        {
          "indexed": false,
          "internalType": "address",
          "name": "sender",
          "type": "address"
        }
      ],
      "name": "MarketForwarderApproved",
      "type": "event"
    },
    {
      "anonymous": false,
      "inputs": [
        {
          "indexed": true,
          "internalType": "uint256",
          "name": "bidId",
          "type": "uint256"
        }
      ],
      "name": "MarketOwnerCancelledBid",
      "type": "event"
    },
    {
      "anonymous": false,
      "inputs": [
        {
          "indexed": true,
          "internalType": "address",
          "name": "previousOwner",
          "type": "address"
        },
        {
          "indexed": true,
          "internalType": "address",
          "name": "newOwner",
          "type": "address"
        }
      ],
      "name": "OwnershipTransferred",
      "type": "event"
    },
    {
      "anonymous": false,
      "inputs": [
        {
          "indexed": false,
          "internalType": "address",
          "name": "account",
          "type": "address"
        }
      ],
      "name": "Paused",
      "type": "event"
    },
    {
      "anonymous": false,
      "inputs": [
        {
          "indexed": false,
          "internalType": "uint16",
          "name": "newFee",
          "type": "uint16"
        },
        {
          "indexed": false,
          "internalType": "uint16",
          "name": "oldFee",
          "type": "uint16"
        }
      ],
      "name": "ProtocolFeeSet",
      "type": "event"
    },
    {
      "anonymous": false,
      "inputs": [
        {
          "indexed": true,
          "internalType": "uint256",
          "name": "bidId",
          "type": "uint256"
        },
        {
          "indexed": true,
          "internalType": "address",
          "name": "borrower",
          "type": "address"
        },
        {
          "indexed": false,
          "internalType": "address",
          "name": "receiver",
          "type": "address"
        },
        {
          "indexed": true,
          "internalType": "bytes32",
          "name": "metadataURI",
          "type": "bytes32"
        }
      ],
      "name": "SubmittedBid",
      "type": "event"
    },
    {
      "anonymous": false,
      "inputs": [
        {
          "indexed": true,
          "internalType": "uint256",
          "name": "marketId",
          "type": "uint256"
        },
        {
          "indexed": false,
          "internalType": "address",
          "name": "forwarder",
          "type": "address"
        },
        {
          "indexed": false,
          "internalType": "address",
          "name": "sender",
          "type": "address"
        }
      ],
      "name": "TrustedMarketForwarderSet",
      "type": "event"
    },
    {
      "anonymous": false,
      "inputs": [
        {
          "indexed": false,
          "internalType": "address",
          "name": "account",
          "type": "address"
        }
      ],
      "name": "Unpaused",
      "type": "event"
    },
    {
      "inputs": [],
      "name": "CURRENT_CODE_VERSION",
      "outputs": [
        {
          "internalType": "uint8",
          "name": "",
          "type": "uint8"
        }
      ],
      "stateMutability": "view",
      "type": "function"
    },
    {
      "inputs": [
        {
          "internalType": "address",
          "name": "",
          "type": "address"
        }
      ],
      "name": "_lenderVolumeFilled",
      "outputs": [
        {
          "internalType": "uint256",
          "name": "",
          "type": "uint256"
        }
      ],
      "stateMutability": "view",
      "type": "function"
    },
    {
      "inputs": [],
      "name": "_totalVolumeFilled",
      "outputs": [
        {
          "internalType": "uint256",
          "name": "",
          "type": "uint256"
        }
      ],
      "stateMutability": "view",
      "type": "function"
    },
    {
      "inputs": [
        {
          "internalType": "address",
          "name": "_lendingToken",
          "type": "address"
        }
      ],
      "name": "addLendingToken",
      "outputs": [],
      "stateMutability": "nonpayable",
      "type": "function"
    },
    {
      "inputs": [
        {
          "internalType": "uint256",
          "name": "_marketId",
          "type": "uint256"
        },
        {
          "internalType": "address",
          "name": "_forwarder",
          "type": "address"
        }
      ],
      "name": "approveMarketForwarder",
      "outputs": [],
      "stateMutability": "nonpayable",
      "type": "function"
    },
    {
      "inputs": [
        {
          "internalType": "uint256",
          "name": "",
          "type": "uint256"
        }
      ],
      "name": "bidDefaultDuration",
      "outputs": [
        {
          "internalType": "uint32",
          "name": "",
          "type": "uint32"
        }
      ],
      "stateMutability": "view",
      "type": "function"
    },
    {
      "inputs": [
        {
          "internalType": "uint256",
          "name": "",
          "type": "uint256"
        }
      ],
      "name": "bidExpirationTime",
      "outputs": [
        {
          "internalType": "uint32",
          "name": "",
          "type": "uint32"
        }
      ],
      "stateMutability": "view",
      "type": "function"
    },
    {
      "inputs": [],
      "name": "bidId",
      "outputs": [
        {
          "internalType": "uint256",
          "name": "",
          "type": "uint256"
        }
      ],
      "stateMutability": "view",
      "type": "function"
    },
    {
      "inputs": [
        {
          "internalType": "uint256",
          "name": "",
          "type": "uint256"
        }
      ],
      "name": "bidPaymentCycleType",
      "outputs": [
        {
          "internalType": "enum PaymentCycleType",
          "name": "",
          "type": "uint8"
        }
      ],
      "stateMutability": "view",
      "type": "function"
    },
    {
      "inputs": [
        {
          "internalType": "uint256",
          "name": "",
          "type": "uint256"
        }
      ],
      "name": "bids",
      "outputs": [
        {
          "internalType": "address",
          "name": "borrower",
          "type": "address"
        },
        {
          "internalType": "address",
          "name": "receiver",
          "type": "address"
        },
        {
          "internalType": "address",
          "name": "lender",
          "type": "address"
        },
        {
          "internalType": "uint256",
          "name": "marketplaceId",
          "type": "uint256"
        },
        {
          "internalType": "bytes32",
          "name": "_metadataURI",
          "type": "bytes32"
        },
        {
          "components": [
            {
              "internalType": "contract ERC20",
              "name": "lendingToken",
              "type": "address"
            },
            {
              "internalType": "uint256",
              "name": "principal",
              "type": "uint256"
            },
            {
              "components": [
                {
                  "internalType": "uint256",
                  "name": "principal",
                  "type": "uint256"
                },
                {
                  "internalType": "uint256",
                  "name": "interest",
                  "type": "uint256"
                }
              ],
              "internalType": "struct Payment",
              "name": "totalRepaid",
              "type": "tuple"
            },
            {
              "internalType": "uint32",
              "name": "timestamp",
              "type": "uint32"
            },
            {
              "internalType": "uint32",
              "name": "acceptedTimestamp",
              "type": "uint32"
            },
            {
              "internalType": "uint32",
              "name": "lastRepaidTimestamp",
              "type": "uint32"
            },
            {
              "internalType": "uint32",
              "name": "loanDuration",
              "type": "uint32"
            }
          ],
          "internalType": "struct LoanDetails",
          "name": "loanDetails",
          "type": "tuple"
        },
        {
          "components": [
            {
              "internalType": "uint256",
              "name": "paymentCycleAmount",
              "type": "uint256"
            },
            {
              "internalType": "uint32",
              "name": "paymentCycle",
              "type": "uint32"
            },
            {
              "internalType": "uint16",
              "name": "APR",
              "type": "uint16"
            }
          ],
          "internalType": "struct Terms",
          "name": "terms",
          "type": "tuple"
        },
        {
          "internalType": "enum BidState",
          "name": "state",
          "type": "uint8"
        },
        {
          "internalType": "enum PaymentType",
          "name": "paymentType",
          "type": "uint8"
        }
      ],
      "stateMutability": "view",
      "type": "function"
    },
    {
      "inputs": [
        {
          "internalType": "address",
          "name": "",
          "type": "address"
        },
        {
          "internalType": "uint256",
          "name": "",
          "type": "uint256"
        }
      ],
      "name": "borrowerBids",
      "outputs": [
        {
          "internalType": "uint256",
          "name": "",
          "type": "uint256"
        }
      ],
      "stateMutability": "view",
      "type": "function"
    },
    {
      "inputs": [
        {
          "internalType": "uint256",
          "name": "_bidId",
          "type": "uint256"
        },
        {
          "internalType": "uint256",
          "name": "_timestamp",
          "type": "uint256"
        }
      ],
      "name": "calculateAmountDue",
      "outputs": [
        {
          "components": [
            {
              "internalType": "uint256",
              "name": "principal",
              "type": "uint256"
            },
            {
              "internalType": "uint256",
              "name": "interest",
              "type": "uint256"
            }
          ],
          "internalType": "struct Payment",
          "name": "due",
          "type": "tuple"
        }
      ],
      "stateMutability": "view",
      "type": "function"
    },
    {
      "inputs": [
        {
          "internalType": "uint256",
          "name": "_bidId",
          "type": "uint256"
        }
      ],
      "name": "calculateAmountDue",
      "outputs": [
        {
          "components": [
            {
              "internalType": "uint256",
              "name": "principal",
              "type": "uint256"
            },
            {
              "internalType": "uint256",
              "name": "interest",
              "type": "uint256"
            }
          ],
          "internalType": "struct Payment",
          "name": "due",
          "type": "tuple"
        }
      ],
      "stateMutability": "view",
      "type": "function"
    },
    {
      "inputs": [
        {
          "internalType": "uint256",
          "name": "_bidId",
          "type": "uint256"
        },
        {
          "internalType": "uint256",
          "name": "_timestamp",
          "type": "uint256"
        }
      ],
      "name": "calculateAmountOwed",
      "outputs": [
        {
          "components": [
            {
              "internalType": "uint256",
              "name": "principal",
              "type": "uint256"
            },
            {
              "internalType": "uint256",
              "name": "interest",
              "type": "uint256"
            }
          ],
          "internalType": "struct Payment",
          "name": "owed",
          "type": "tuple"
        }
      ],
      "stateMutability": "view",
      "type": "function"
    },
    {
      "inputs": [
        {
          "internalType": "uint256",
          "name": "_bidId",
          "type": "uint256"
        }
      ],
      "name": "calculateAmountOwed",
      "outputs": [
        {
          "components": [
            {
              "internalType": "uint256",
              "name": "principal",
              "type": "uint256"
            },
            {
              "internalType": "uint256",
              "name": "interest",
              "type": "uint256"
            }
          ],
          "internalType": "struct Payment",
          "name": "owed",
          "type": "tuple"
        }
      ],
      "stateMutability": "view",
      "type": "function"
    },
    {
      "inputs": [
        {
          "internalType": "uint256",
          "name": "_bidId",
          "type": "uint256"
        }
      ],
      "name": "calculateNextDueDate",
      "outputs": [
        {
          "internalType": "uint32",
          "name": "dueDate_",
          "type": "uint32"
        }
      ],
      "stateMutability": "view",
      "type": "function"
    },
    {
      "inputs": [
        {
          "internalType": "uint256",
          "name": "_bidId",
          "type": "uint256"
        }
      ],
      "name": "cancelBid",
      "outputs": [],
      "stateMutability": "nonpayable",
      "type": "function"
    },
    {
      "inputs": [
        {
          "internalType": "uint256",
          "name": "_bidId",
          "type": "uint256"
        }
      ],
      "name": "claimLoanNFT",
      "outputs": [],
      "stateMutability": "nonpayable",
      "type": "function"
    },
    {
      "inputs": [],
      "name": "collateralManager",
      "outputs": [
        {
          "internalType": "contract ICollateralManager",
          "name": "",
          "type": "address"
        }
      ],
      "stateMutability": "view",
      "type": "function"
    },
    {
      "inputs": [
        {
          "internalType": "uint256",
          "name": "_bidId",
          "type": "uint256"
        }
      ],
      "name": "getBidState",
      "outputs": [
        {
          "internalType": "enum BidState",
          "name": "",
          "type": "uint8"
        }
      ],
      "stateMutability": "view",
      "type": "function"
    },
    {
      "inputs": [
        {
          "internalType": "address",
          "name": "_borrower",
          "type": "address"
        }
      ],
      "name": "getBorrowerActiveLoanIds",
      "outputs": [
        {
          "internalType": "uint256[]",
          "name": "",
          "type": "uint256[]"
        }
      ],
      "stateMutability": "view",
      "type": "function"
    },
    {
      "inputs": [
        {
          "internalType": "address",
          "name": "_borrower",
          "type": "address"
        }
      ],
      "name": "getBorrowerLoanIds",
      "outputs": [
        {
          "internalType": "uint256[]",
          "name": "",
          "type": "uint256[]"
        }
      ],
      "stateMutability": "view",
      "type": "function"
    },
    {
      "inputs": [],
      "name": "getLendingTokens",
      "outputs": [
        {
          "internalType": "address[]",
          "name": "",
          "type": "address[]"
        }
      ],
      "stateMutability": "view",
      "type": "function"
    },
    {
      "inputs": [
        {
          "internalType": "uint256",
          "name": "_bidId",
          "type": "uint256"
        }
      ],
      "name": "getLoanBorrower",
      "outputs": [
        {
          "internalType": "address",
          "name": "borrower_",
          "type": "address"
        }
      ],
      "stateMutability": "view",
      "type": "function"
    },
    {
      "inputs": [
        {
          "internalType": "uint256",
          "name": "_bidId",
          "type": "uint256"
        }
      ],
      "name": "getLoanLender",
      "outputs": [
        {
          "internalType": "address",
          "name": "lender_",
          "type": "address"
        }
      ],
      "stateMutability": "view",
      "type": "function"
    },
    {
      "inputs": [
        {
          "internalType": "uint256",
          "name": "_bidId",
          "type": "uint256"
        }
      ],
      "name": "getLoanLendingToken",
      "outputs": [
        {
          "internalType": "address",
          "name": "token_",
          "type": "address"
        }
      ],
      "stateMutability": "view",
      "type": "function"
    },
    {
      "inputs": [
        {
          "internalType": "uint256",
          "name": "_bidId",
          "type": "uint256"
        }
      ],
      "name": "getLoanMarketId",
      "outputs": [
        {
          "internalType": "uint256",
          "name": "_marketId",
          "type": "uint256"
        }
      ],
      "stateMutability": "view",
      "type": "function"
    },
    {
      "inputs": [
        {
          "internalType": "uint256",
          "name": "_bidId",
          "type": "uint256"
        }
      ],
      "name": "getMetadataURI",
      "outputs": [
        {
          "internalType": "string",
          "name": "metadataURI_",
          "type": "string"
        }
      ],
      "stateMutability": "view",
      "type": "function"
    },
    {
      "inputs": [
        {
          "internalType": "uint256",
          "name": "_marketId",
          "type": "uint256"
        },
        {
          "internalType": "address",
          "name": "_forwarder",
          "type": "address"
        },
        {
          "internalType": "address",
          "name": "_account",
          "type": "address"
        }
      ],
      "name": "hasApprovedMarketForwarder",
      "outputs": [
        {
          "internalType": "bool",
          "name": "",
          "type": "bool"
        }
      ],
      "stateMutability": "view",
      "type": "function"
    },
    {
      "inputs": [
        {
          "internalType": "uint16",
          "name": "_protocolFee",
          "type": "uint16"
        },
        {
          "internalType": "address",
          "name": "_marketRegistry",
          "type": "address"
        },
        {
          "internalType": "address",
          "name": "_reputationManager",
          "type": "address"
        },
        {
          "internalType": "address",
          "name": "_lenderCommitmentForwarder",
          "type": "address"
        },
        {
          "internalType": "address[]",
          "name": "_lendingTokens",
          "type": "address[]"
        },
        {
          "internalType": "address",
          "name": "_collateralManager",
          "type": "address"
        },
        {
          "internalType": "address",
          "name": "_lenderManager",
          "type": "address"
        }
      ],
      "name": "initialize",
      "outputs": [],
      "stateMutability": "nonpayable",
      "type": "function"
    },
    {
      "inputs": [
        {
          "internalType": "uint256",
          "name": "_bidId",
          "type": "uint256"
        }
      ],
      "name": "isLoanDefaulted",
      "outputs": [
        {
          "internalType": "bool",
          "name": "",
          "type": "bool"
        }
      ],
      "stateMutability": "view",
      "type": "function"
    },
    {
      "inputs": [
        {
          "internalType": "uint256",
          "name": "_bidId",
          "type": "uint256"
        }
      ],
      "name": "isLoanExpired",
      "outputs": [
        {
          "internalType": "bool",
          "name": "",
          "type": "bool"
        }
      ],
      "stateMutability": "view",
      "type": "function"
    },
    {
      "inputs": [
        {
          "internalType": "uint256",
          "name": "_bidId",
          "type": "uint256"
        }
      ],
      "name": "isPaymentLate",
      "outputs": [
        {
          "internalType": "bool",
          "name": "",
          "type": "bool"
        }
      ],
      "stateMutability": "view",
      "type": "function"
    },
    {
      "inputs": [
        {
          "internalType": "address",
          "name": "forwarder",
          "type": "address"
        }
      ],
      "name": "isTrustedForwarder",
      "outputs": [
        {
          "internalType": "bool",
          "name": "",
          "type": "bool"
        }
      ],
      "stateMutability": "view",
      "type": "function"
    },
    {
      "inputs": [
        {
          "internalType": "uint256",
          "name": "_marketId",
          "type": "uint256"
        },
        {
          "internalType": "address",
          "name": "_trustedMarketForwarder",
          "type": "address"
        }
      ],
      "name": "isTrustedMarketForwarder",
      "outputs": [
        {
          "internalType": "bool",
          "name": "",
          "type": "bool"
        }
      ],
      "stateMutability": "view",
      "type": "function"
    },
    {
      "inputs": [
        {
          "internalType": "uint256",
          "name": "_bidId",
          "type": "uint256"
        }
      ],
      "name": "lastRepaidTimestamp",
      "outputs": [
        {
          "internalType": "uint32",
          "name": "",
          "type": "uint32"
        }
      ],
      "stateMutability": "view",
      "type": "function"
    },
    {
      "inputs": [
        {
          "internalType": "uint256",
          "name": "_bidId",
          "type": "uint256"
        }
      ],
      "name": "lenderAcceptBid",
      "outputs": [
        {
          "internalType": "uint256",
          "name": "amountToProtocol",
          "type": "uint256"
        },
        {
          "internalType": "uint256",
          "name": "amountToMarketplace",
          "type": "uint256"
        },
        {
          "internalType": "uint256",
          "name": "amountToBorrower",
          "type": "uint256"
        }
      ],
      "stateMutability": "nonpayable",
      "type": "function"
    },
    {
      "inputs": [],
      "name": "lenderCommitmentForwarder",
      "outputs": [
        {
          "internalType": "address",
          "name": "",
          "type": "address"
        }
      ],
      "stateMutability": "view",
      "type": "function"
    },
    {
      "inputs": [],
      "name": "lenderManager",
      "outputs": [
        {
          "internalType": "contract ILenderManager",
          "name": "",
          "type": "address"
        }
      ],
      "stateMutability": "view",
      "type": "function"
    },
    {
      "inputs": [
        {
          "internalType": "address",
          "name": "",
          "type": "address"
        },
        {
          "internalType": "address",
          "name": "",
          "type": "address"
        }
      ],
      "name": "lenderVolumeFilled",
      "outputs": [
        {
          "internalType": "uint256",
          "name": "",
          "type": "uint256"
        }
      ],
      "stateMutability": "view",
      "type": "function"
    },
    {
      "inputs": [
        {
          "internalType": "uint256",
          "name": "_bidId",
          "type": "uint256"
        }
      ],
      "name": "liquidateLoanFull",
      "outputs": [],
      "stateMutability": "nonpayable",
      "type": "function"
    },
    {
      "inputs": [
        {
          "internalType": "uint256",
          "name": "_bidId",
          "type": "uint256"
        }
      ],
      "name": "marketOwnerCancelBid",
      "outputs": [],
      "stateMutability": "nonpayable",
      "type": "function"
    },
    {
      "inputs": [],
      "name": "marketRegistry",
      "outputs": [
        {
          "internalType": "contract IMarketRegistry",
          "name": "",
          "type": "address"
        }
      ],
      "stateMutability": "view",
      "type": "function"
    },
    {
      "inputs": [],
      "name": "owner",
      "outputs": [
        {
          "internalType": "address",
          "name": "",
          "type": "address"
        }
      ],
      "stateMutability": "view",
      "type": "function"
    },
    {
      "inputs": [],
      "name": "pauseProtocol",
      "outputs": [],
      "stateMutability": "nonpayable",
      "type": "function"
    },
    {
      "inputs": [],
      "name": "paused",
      "outputs": [
        {
          "internalType": "bool",
          "name": "",
          "type": "bool"
        }
      ],
      "stateMutability": "view",
      "type": "function"
    },
    {
      "inputs": [],
      "name": "protocolFee",
      "outputs": [
        {
          "internalType": "uint16",
          "name": "",
          "type": "uint16"
        }
      ],
      "stateMutability": "view",
      "type": "function"
    },
    {
      "inputs": [
        {
          "internalType": "address",
          "name": "_lendingToken",
          "type": "address"
        }
      ],
      "name": "removeLendingToken",
      "outputs": [],
      "stateMutability": "nonpayable",
      "type": "function"
    },
    {
      "inputs": [],
      "name": "renounceOwnership",
      "outputs": [],
      "stateMutability": "nonpayable",
      "type": "function"
    },
    {
      "inputs": [
        {
          "internalType": "uint256",
          "name": "_bidId",
          "type": "uint256"
        },
        {
          "internalType": "uint256",
          "name": "_amount",
          "type": "uint256"
        }
      ],
      "name": "repayLoan",
      "outputs": [],
      "stateMutability": "nonpayable",
      "type": "function"
    },
    {
      "inputs": [
        {
          "internalType": "uint256",
          "name": "_bidId",
          "type": "uint256"
        }
      ],
      "name": "repayLoanFull",
      "outputs": [],
      "stateMutability": "nonpayable",
      "type": "function"
    },
    {
      "inputs": [
        {
          "internalType": "uint256",
          "name": "_bidId",
          "type": "uint256"
        }
      ],
      "name": "repayLoanMinimum",
      "outputs": [],
      "stateMutability": "nonpayable",
      "type": "function"
    },
    {
      "inputs": [],
      "name": "reputationManager",
      "outputs": [
        {
          "internalType": "contract IReputationManager",
          "name": "",
          "type": "address"
        }
      ],
      "stateMutability": "view",
      "type": "function"
    },
    {
      "inputs": [
        {
          "internalType": "address",
          "name": "_lenderManager",
          "type": "address"
        }
      ],
      "name": "setLenderManager",
      "outputs": [],
      "stateMutability": "nonpayable",
      "type": "function"
    },
    {
      "inputs": [
        {
          "internalType": "uint16",
          "name": "newFee",
          "type": "uint16"
        }
      ],
      "name": "setProtocolFee",
      "outputs": [],
      "stateMutability": "nonpayable",
      "type": "function"
    },
    {
      "inputs": [
        {
          "internalType": "address",
          "name": "_reputationManager",
          "type": "address"
        }
      ],
      "name": "setReputationManager",
      "outputs": [],
      "stateMutability": "nonpayable",
      "type": "function"
    },
    {
      "inputs": [
        {
          "internalType": "uint256",
          "name": "_marketId",
          "type": "uint256"
        },
        {
          "internalType": "address",
          "name": "_forwarder",
          "type": "address"
        }
      ],
      "name": "setTrustedMarketForwarder",
      "outputs": [],
      "stateMutability": "nonpayable",
      "type": "function"
    },
    {
      "inputs": [
        {
          "internalType": "address",
          "name": "_lendingToken",
          "type": "address"
        },
        {
          "internalType": "uint256",
          "name": "_marketplaceId",
          "type": "uint256"
        },
        {
          "internalType": "uint256",
          "name": "_principal",
          "type": "uint256"
        },
        {
          "internalType": "uint32",
          "name": "_duration",
          "type": "uint32"
        },
        {
          "internalType": "uint16",
          "name": "_APR",
          "type": "uint16"
        },
        {
          "internalType": "string",
          "name": "_metadataURI",
          "type": "string"
        },
        {
          "internalType": "address",
          "name": "_receiver",
          "type": "address"
        }
      ],
      "name": "submitBid",
      "outputs": [
        {
          "internalType": "uint256",
          "name": "bidId_",
          "type": "uint256"
        }
      ],
      "stateMutability": "nonpayable",
      "type": "function"
    },
    {
      "inputs": [
        {
          "internalType": "address",
          "name": "_lendingToken",
          "type": "address"
        },
        {
          "internalType": "uint256",
          "name": "_marketplaceId",
          "type": "uint256"
        },
        {
          "internalType": "uint256",
          "name": "_principal",
          "type": "uint256"
        },
        {
          "internalType": "uint32",
          "name": "_duration",
          "type": "uint32"
        },
        {
          "internalType": "uint16",
          "name": "_APR",
          "type": "uint16"
        },
        {
          "internalType": "string",
          "name": "_metadataURI",
          "type": "string"
        },
        {
          "internalType": "address",
          "name": "_receiver",
          "type": "address"
        },
        {
          "components": [
            {
              "internalType": "enum CollateralType",
              "name": "_collateralType",
              "type": "uint8"
            },
            {
              "internalType": "uint256",
              "name": "_amount",
              "type": "uint256"
            },
            {
              "internalType": "uint256",
              "name": "_tokenId",
              "type": "uint256"
            },
            {
              "internalType": "address",
              "name": "_collateralAddress",
              "type": "address"
            }
          ],
          "internalType": "struct Collateral[]",
          "name": "_collateralInfo",
          "type": "tuple[]"
        }
      ],
      "name": "submitBid",
      "outputs": [
        {
          "internalType": "uint256",
          "name": "bidId_",
          "type": "uint256"
        }
      ],
      "stateMutability": "nonpayable",
      "type": "function"
    },
    {
      "inputs": [
        {
          "internalType": "address",
          "name": "",
          "type": "address"
        }
      ],
      "name": "totalVolumeFilled",
      "outputs": [
        {
          "internalType": "uint256",
          "name": "",
          "type": "uint256"
        }
      ],
      "stateMutability": "view",
      "type": "function"
    },
    {
      "inputs": [
        {
          "internalType": "address",
          "name": "newOwner",
          "type": "address"
        }
      ],
      "name": "transferOwnership",
      "outputs": [],
      "stateMutability": "nonpayable",
      "type": "function"
    },
    {
      "inputs": [],
      "name": "unpauseProtocol",
      "outputs": [],
      "stateMutability": "nonpayable",
      "type": "function"
    },
    {
      "inputs": [
        {
          "internalType": "uint256",
          "name": "",
          "type": "uint256"
        }
      ],
      "name": "uris",
      "outputs": [
        {
          "internalType": "string",
          "name": "",
          "type": "string"
        }
      ],
      "stateMutability": "view",
      "type": "function"
    },
    {
      "inputs": [],
      "name": "version",
      "outputs": [
        {
          "internalType": "uint256",
          "name": "",
          "type": "uint256"
        }
      ],
      "stateMutability": "view",
      "type": "function"
    }
  ],
  "bytecode": {
    "object": "0x60a060405260006097553480156200001657600080fd5b5060405162005c6938038062005c6983398101604081905262000039916200004b565b6001600160a01b03166080526200007d565b6000602082840312156200005e57600080fd5b81516001600160a01b03811681146200007657600080fd5b9392505050565b608051615bc9620000a060003960008181610808015261418f0152615bc96000f3fe608060405234801561001057600080fd5b50600436106103d05760003560e01c80636b868afb116101ff578063b5d34fcd1161011a578063d974cc57116100ad578063e8cbab091161007c578063e8cbab0914610abf578063ecb96fe614610ad2578063f2fde38b14610ae5578063f93b6be514610af857600080fd5b8063d974cc5714610a7e578063dbf6248914610a91578063e41c22f214610a99578063e4467f3514610aac57600080fd5b8063bf77ffae116100e9578063bf77ffae14610a12578063d4eda4cf14610a45578063d76ac91f14610a58578063d87569cc14610a6b57600080fd5b8063b5d34fcd146109b9578063b97e8141146109d9578063ba6d5b15146109ec578063bde644fb146109ff57600080fd5b80638da5cb5b11610192578063a51e2bad11610161578063a51e2bad1461094f578063a75021ba14610962578063a8cb5d6814610975578063b0e21e8a146109a357600080fd5b80638da5cb5b146109055780639703ef35146109165780639a11e33914610929578063a10905ea1461093c57600080fd5b80637bbd53d7116101ce5780637bbd53d7146108c35780638288da8a146108d65780638a700b53146108e95780638ac47319146108fc57600080fd5b80636b868afb146108825780636c6ca79c14610895578063706a43c3146108a8578063715018a6146108bb57600080fd5b806323be345c116102ef5780634423c5f111610282578063572b6c0511610251578063572b6c05146107f85780635c975abb146108385780636aedfe68146108495780636b76c0851461085c57600080fd5b80634423c5f1146106ad5780634a06f6ea146107c957806354fd4d50146107dc57806356a837f4146107e557600080fd5b80633819bcdc116102be5780633819bcdc146106345780633ef0a2f71461064757806340910c70146106705780634148f94c1461069357600080fd5b806323be345c146105be5780632519dc79146105d15780632e9332d4146105f1578063367358911461060457600080fd5b80631289b3961161036757806319b353de1161033657806319b353de146105705780631d12363314610583578063206c54c714610596578063235d5a7b146105a957600080fd5b80631289b396146104fb5780631420a26614610504578063145730331461051957806318520f051461055d57600080fd5b80631042b85f116103a35780631042b85f1461046d578063106182231461048d5780631253c546146104a0578063127caa88146104c057600080fd5b8063054de0ff146103d557806306f33a92146103fe578063089487b51461041f578063093f56171461044a575b600080fd5b6103e86103e3366004614db2565b610b00565b6040516103f59190614dcf565b60405180910390f35b61041161040c366004614e7e565b610b2a565b6040519081526020016103f5565b61041161042d366004614f20565b60a360209081526000928352604080842090915290825290205481565b61045d610458366004614f59565b610b51565b60405190151581526020016103f5565b61048061047b366004614f72565b610ba6565b6040516103f59190614f94565b61045d61049b366004614f59565b610c3f565b6104b36104ae366004614f59565b610cd7565b6040516103f59190614ffb565b6104e66104ce366004614f59565b60a26020526000908152604090205463ffffffff1681565b60405163ffffffff90911681526020016103f5565b610411609b5481565b61051761051236600461500e565b610d71565b005b610545610527366004614f59565b6000908152609860205260409020600501546001600160a01b031690565b6040516001600160a01b0390911681526020016103f5565b61051761056b366004614f59565b610ebe565b61045d61057e366004615033565b611048565b6103e8610591366004614db2565b611087565b6105176105a4366004614f59565b6110f3565b6105b1611255565b6040516103f59190615075565b60aa54610545906001600160a01b031681565b6104116105df366004614db2565b60a46020526000908152604090205481565b6105176105ff36600461500e565b611266565b610627610612366004614f59565b60ac6020526000908152604090205460ff1681565b6040516103f591906150dc565b6104116106423660046150ef565b611349565b610545610655366004614f59565b6000908152609860205260409020546001600160a01b031690565b61041161067e366004614f59565b60009081526098602052604090206003015490565b61069b600981565b60405160ff90911681526020016103f5565b6107b46106bb366004614f59565b60986020908152600091825260409182902080546001820154600283015460038401546004850154875160e08101895260058701546001600160a01b0390811682526006880154828a01528951808b018b52600789015481526008890154818b0152828b0152600988015463ffffffff808216606080860191909152600160201b80840483166080870152600160401b8404831660a0870152600160601b909304821660c08601528c519081018d52600a8b01548152600b8b01549182169b81019b909b520461ffff1699890199909952600c909601549488169793841696939092169490939192909160ff8082169161010090041689565b6040516103f599989796959493929190615138565b60ab54610545906001600160a01b031681565b61041160a55481565b6105176107f3366004614db2565b61137a565b61045d610806366004614db2565b7f00000000000000000000000000000000000000000000000000000000000000006001600160a01b0390811691161490565b60655462010000900460ff1661045d565b610480610857366004614f72565b6113a4565b6104e661086a366004614f59565b60a16020526000908152604090205463ffffffff1681565b609f54610545906001600160a01b031681565b6104806108a3366004614f59565b61143d565b6104e66108b6366004614f59565b6114bd565b6105176116cc565b6104116108d1366004615231565b6116e0565b6105176108e4366004614f59565b6117ec565b6105176108f7366004614f72565b6119d7565b61041160975481565b6033546001600160a01b0316610545565b610517610924366004614f59565b611af3565b610517610937366004614f59565b611ba8565b61054561094a366004614f59565b611c6e565b6104e661095d366004614f59565b611d08565b610517610970366004614db2565b611d1f565b610988610983366004614f59565b611d36565b604080519384526020840192909252908201526060016103f5565b60655460405161ffff90911681526020016103f5565b6104116109c7366004614db2565b609a6020526000908152604090205481565b6105176109e7366004615331565b61238b565b60a954610545906001600160a01b031681565b6104b3610a0d366004614f59565b61277f565b610a38610a20366004614f59565b6000908152609860205260409020600c015460ff1690565b6040516103f59190615412565b610517610a53366004614f59565b61288d565b610517610a66366004614db2565b612958565b61045d610a7936600461500e565b6129c2565b610480610a8c366004614f59565b6129fc565b610517612a7c565b610517610aa7366004614db2565b612a94565b610517610aba366004615420565b612b3d565b61045d610acd366004614f59565b612ba3565b609e54610545906001600160a01b031681565b610517610af3366004614db2565b612c34565b610517612caa565b6001600160a01b038116600090815260a060205260409020606090610b2490612cc2565b92915050565b6000610b34612ccf565b610b448989898989898989612d1b565b9998505050505050505050565b600060036000838152609860205260409020600c015460ff166005811115610b7b57610b7b6150b6565b14610b8857506000919050565b610b91826114bd565b63ffffffff164263ffffffff16119050919050565b604080518082019091526000808252602082015260008381526098602052604090206003600c82015460ff166005811115610be357610be36150b6565b141580610c0157506009810154600160201b900463ffffffff168311155b15610c0c5750610b24565b600084815260ac60205260408120548190610c2d908490879060ff16613386565b91865250602085015250505092915050565b60008181526098602052604081206001600c82015460ff166005811115610c6857610c686150b6565b14610c765750600092915050565b600083815260a2602052604081205463ffffffff169003610c9a5750600092915050565b600083815260a260205260409020546009820154610cc19163ffffffff9081169116615453565b63ffffffff164263ffffffff1611915050919050565b60a66020526000908152604090208054610cf090615470565b80601f0160208091040260200160405190810160405280929190818152602001828054610d1c90615470565b8015610d695780601f10610d3e57610100808354040283529160200191610d69565b820191906000526020600020905b815481529060010190602001808311610d4c57829003601f168201915b505050505081565b610d796133b4565b609e54604051633d36902960e01b8152600481018590526001600160a01b039283169290911690633d36902990602401602060405180830381865afa158015610dc6573d6000803e3d6000fd5b505050506040513d601f19601f82011682018060405250810190610dea91906154aa565b6001600160a01b031614610e455760405162461bcd60e51b815260206004820152601f60248201527f43616c6c6572206d75737420626520746865206d61726b6574206f776e65720060448201526064015b60405180910390fd5b600082815260a76020526040902080546001600160a01b0319166001600160a01b038316179055817fa593acf9edc343669c7fc50d2caa3911326adef438361f0fa911be85c9e296a482610e976133b4565b604080516001600160a01b0393841681529290911660208301520160405180910390a25050565b60408051808201909152600c81526b18db185a5b531bd85b93919560a21b6020820152819060036000838152609860205260409020600c015460ff166005811115610f0b57610f0b6150b6565b14610f2d5781816040516347bc33cb60e11b8152600401610e3c9291906154c7565b610f35612ccf565b60008381526098602052604081206003810154909190610f54906133be565b60028301549091506001600160a01b03808316911614610fb65760405162461bcd60e51b815260206004820152601960248201527f6f6e6c79206c656e6465722063616e20636c61696d204e4654000000000000006044820152606401610e3c565b60ab5460405163096c998360e41b8152600481018790526001600160a01b038381166024830152909116906396c9983090604401600060405180830381600087803b15801561100457600080fd5b505af1158015611018573d6000803e3d6000fd5b505060ab54600290940180546001600160a01b0319166001600160a01b0390951694909417909355505050505050565b600061105484846129c2565b801561107d57506001600160a01b038316600090815260a86020526040902061107d9083613469565b90505b9392505050565b6001600160a01b0381166000908152609960209081526040918290208054835181840281018401909452808452606093928301828280156110e757602002820191906000526020600020905b8154815260200190600101908083116110d3575b50505050509050919050565b609e5460008281526098602052604090819020600301549051633d36902960e01b81526001600160a01b0390921691633d369029916111389160040190815260200190565b602060405180830381865afa158015611155573d6000803e3d6000fd5b505050506040513d601f19601f8201168201806040525081019061117991906154aa565b6001600160a01b031661118a6133b4565b6001600160a01b03161461121e576040516347bc33cb60e11b8152600481018290526060602482015260146064820152731b585c9ad95d13dddb995c90d85b98d95b109a5960621b608482015260a06044820152602160a48201527f4f6e6c7920746865206d61726b6574206f776e65722063616e2063616e63656c60c4820152602160f81b60e482015261010401610e3c565b6112278161348b565b60405181907ff3f271d754f5264e0d143bf9be577d6eba153b0d833bd3a127d7b1a280bb13f190600090a250565b6060611261609c612cc2565b905090565b61127082826129c2565b6112cc5760405162461bcd60e51b815260206004820152602760248201527f466f72776172646572206d757374206265207472757374656420627920746865604482015266081b585c9ad95d60ca1b6064820152608401610e3c565b6112f56112d76133b4565b6001600160a01b038316600090815260a8602052604090209061353f565b50806001600160a01b0316827f65d6b5305e8c0e58e88454a1aeecae0f55975222338b25abd0997b4d305056a161132a6133b4565b6040516001600160a01b03909116815260200160405180910390a35050565b6099602052816000526040600020818154811061136557600080fd5b90600052602060002001600091509150505481565b611382613554565b609f80546001600160a01b0319166001600160a01b0392909216919091179055565b604080518082018252600080825260208083018290528582526098905291909120600c81015460039060ff1660058111156113e1576113e16150b6565b1415806113ff57506009810154600160201b900463ffffffff168311155b1561140a5750610b24565b600084815260ac6020526040812054819061142b908490879060ff16613386565b90865260208601525050505092915050565b604080518082019091526000808252602082015260036000838152609860205260409020600c015460ff166005811115611479576114796150b6565b1461148357919050565b600082815260986020908152604080832060ac90925282205482916114ac91429060ff16613386565b918552506020840152509092915050565b6000818152609860205260408120600c81015460039060ff1660058111156114e7576114e76150b6565b146114f25750919050565b60006114fd84611d08565b90506001600085815260ac602052604090205460ff166001811115611524576115246150b6565b036115c357600982015460009061154c9063ffffffff600160201b90910481169084166135cd565b600984015490915061156a90600160201b900463ffffffff16613654565b6115798363ffffffff16613654565b11156115915761158a600282615516565b905061159f565b61159c600182615516565b90505b60098301546115bb90600160201b900463ffffffff168261366e565b935050611682565b600084815260ac602052604081205460ff1660018111156115e6576115e66150b6565b0361168257600b820154600983015461160f9163ffffffff90811691600160201b900416615453565b600983015490935060009061163190600160201b900463ffffffff1683615529565b905063ffffffff81161561168057600b83015460009061165a9063ffffffff8085169116613740565b600b8501549091506116729063ffffffff1682615546565b61167c9086615453565b9450505b505b60098201546000906116aa9063ffffffff600160601b8204811691600160201b900416615453565b90508063ffffffff168463ffffffff1611156116c4578093505b505050919050565b6116d4613554565b6116de6000613777565b565b60006116ea612ccf565b6116fa8b8b8b8b8b8b8b8b612d1b565b60aa54604051631532dc4560e01b81529192506000916001600160a01b0390911690631532dc45906117349085908890889060040161557b565b6020604051808303816000875af1158015611753573d6000803e3d6000fd5b505050506040513d601f19601f82011682018060405250810190611777919061561c565b90506001811515146117dd5760405162461bcd60e51b815260206004820152602960248201527f436f6c6c61746572616c2062616c616e636520636f756c64206e6f74206265206044820152681d985b1a59185d195960ba1b6064820152608401610e3c565b509a9950505050505050505050565b60408051808201909152600d81526c3634b8bab4b230ba32a637b0b760991b6020820152819060036000838152609860205260409020600c015460ff16600581111561183a5761183a6150b6565b1461185c5781816040516347bc33cb60e11b8152600401610e3c9291906154c7565b61186583612ba3565b6118b15760405162461bcd60e51b815260206004820152601760248201527f4c6f616e206d7573742062652064656661756c7465642e0000000000000000006044820152606401610e3c565b600083815260986020908152604080832060ac90925282205490919081906118df908490429060ff16613386565b92505091506119108660405180604001604052808581526020018481525083856119099190615516565b60006137c9565b600c8301805460ff191660051790556003830154600090611930906133be565b60aa5460405163f0472c4960e01b8152600481018a90526001600160a01b03808416602483015292935091169063f0472c4990604401600060405180830381600087803b15801561198057600080fd5b505af1158015611994573d6000803e3d6000fd5b50506040516001600160a01b03841692508991507f73de9acc561f27528ab0a3b5dd63fefb4e59f95575891299a6f862a78779817690600090a350505050505050565b6040805180820190915260098152683932b830bca637b0b760b91b6020820152829060036000838152609860205260409020600c015460ff166005811115611a2157611a216150b6565b14611a435781816040516347bc33cb60e11b8152600401610e3c9291906154c7565b600084815260986020908152604080832060ac90925282205482918291611a6f9190429060ff16613386565b919450925090506000611a828284615516565b905080871015611ab55760405162dd9d0f60e61b8152600481018990526024810188905260448101829052606401610e3c565b611ae9886040518060400160405280858b611ad09190615637565b8152602001859052611ae28588615516565b60016137c9565b5050505050505050565b600081815260986020526040902080546003909101546001600160a01b0390911690611b1e906133be565b6001600160a01b031614611b9c576040516347bc33cb60e11b81526004810182905260606024820152600960648201526818d85b98d95b109a5960ba1b608482015260a06044820152601e60a48201527f4f6e6c792074686520626964206f776e65722063616e2063616e63656c21000060c482015260e401610e3c565b611ba58161348b565b50565b6040805180820190915260098152683932b830bca637b0b760b91b6020820152819060036000838152609860205260409020600c015460ff166005811115611bf257611bf26150b6565b14611c145781816040516347bc33cb60e11b8152600401610e3c9291906154c7565b600083815260986020908152604080832060ac9092528220548291611c3d91429060ff16613386565b9250509150611c67856040518060400160405280858152602001848152508385611ae29190615516565b5050505050565b60008181526098602052604090206002015460ab546001600160a01b0391821691168103611d035760ab546040516331a9108f60e11b8152600481018490526001600160a01b0390911690636352211e90602401602060405180830381865afa158015611cdf573d6000803e3d6000fd5b505050506040513d601f19601f82011682018060405250810190610b2491906154aa565b919050565b6000818152609860205260408120610b2490613a87565b611d27613554565b611d32609c82613acd565b5050565b6000806000836040518060400160405280600f81526020016e1b195b99195c9058d8d95c1d109a59608a1b81525060016005811115611d7757611d776150b6565b6000838152609860205260409020600c015460ff166005811115611d9d57611d9d6150b6565b14611dbf5781816040516347bc33cb60e11b8152600401610e3c92919061564a565b611dc7612ccf565b60008681526098602052604081206003810154909190611de6906133be565b609e546003840154604051633ef19a9b60e01b815260048101919091526001600160a01b03808416602483015292935060009290911690633ef19a9b906044016040805180830381865afa158015611e42573d6000803e3d6000fd5b505050506040513d601f19601f82011682018060405250810190611e669190615697565b50905080611eac5760405162461bcd60e51b81526020600482015260136024820152722737ba103b32b934b334b2b2103632b73232b960691b6044820152606401610e3c565b609e546003840154604051631cc672df60e01b81526001600160a01b0390921691631cc672df91611ee39160040190815260200190565b602060405180830381865afa158015611f00573d6000803e3d6000fd5b505050506040513d601f19601f82011682018060405250810190611f24919061561c565b15611f645760405162461bcd60e51b815260206004820152601060248201526f13585c9ad95d081a5cc818db1bdcd95960821b6044820152606401610e3c565b611f6d89610c3f565b15611fac5760405162461bcd60e51b815260206004820152600f60248201526e109a59081a185cc8195e1c1a5c9959608a1b6044820152606401610e3c565b6009830180546bffffffffffffffff000000001916600160201b4263ffffffff1690810263ffffffff60401b191691909117600160401b91909102179055600c830180546003919060ff191660018302179055506002830180546001600160a01b0319166001600160a01b038481169190911790915560aa546040516346f0b08b60e11b8152600481018c9052911690638de1611690602401600060405180830381600087803b15801561205f57600080fd5b505af1158015612073573d6000803e3d6000fd5b5050505061209261208760655461ffff1690565b600685015490613ae2565b609e54600385015460405163028ba63960e21b8152929a50612111926001600160a01b0390921691630a2e98e4916120d09160040190815260200190565b602060405180830381865afa1580156120ed573d6000803e3d6000fd5b505050506040513d601f19601f8201168201806040525081019061208791906156c3565b9650868884600501600101546121279190615637565b6121319190615637565b955061215f826121496033546001600160a01b031690565b60058601546001600160a01b031691908b613af4565b609e5460038401546040516332209bcb60e11b81526121f39285926001600160a01b039091169163644137969161219c9160040190815260200190565b602060405180830381865afa1580156121b9573d6000803e3d6000fd5b505050506040513d601f19601f820116820180604052508101906121dd91906154aa565b60058601546001600160a01b031691908a613af4565b60018301546005840154612216916001600160a01b039182169185911689613af4565b600683015460058401546001600160a01b03908116600090815260a36020908152604080832093871683529290529081208054909190612257908490615516565b9091555050600683015460058401546001600160a01b0316600090815260a460205260408120805490919061228d908490615516565b909155505082546001600160a01b0316600090815260a0602052604090206122b5908a613b54565b506040516001600160a01b038316908a907fde9d3bfa8771df6761c0afac2375c88c70a3aa30478e1bd15363294033b470ed90600090a3604051671c1c9bdd1bd8dbdb60c21b81528890600801604051908190038120908b907f476a21a61ac4a7da250e040733aa10facd2eeee584b2c009d178c3de3d8a12dc90600090a46040516a6d61726b6574706c61636560a81b81528790600b01604051908190038120908b907f476a21a61ac4a7da250e040733aa10facd2eeee584b2c009d178c3de3d8a12dc90600090a450505050509193909250565b600054610100900460ff16158080156123ab5750600054600160ff909116105b806123c55750303b1580156123c5575060005460ff166001145b6123e15760405162461bcd60e51b8152600401610e3c906156e0565b6000805460ff191660011790558015612404576000805461ff0019166101001790555b61240d89613b60565b612415613b98565b6001600160a01b0386163b6124815760405162461bcd60e51b815260206004820152602c60248201527f4c656e646572436f6d6d69746d656e74466f72776172646572206d757374206260448201526b1948184818dbdb9d1c9858dd60a21b6064820152608401610e3c565b60a980546001600160a01b0319166001600160a01b038881169190911790915588163b6124fa5760405162461bcd60e51b815260206004820152602160248201527f4d61726b65745265676973747279206d757374206265206120636f6e747261636044820152601d60fa1b6064820152608401610e3c565b609e80546001600160a01b0319166001600160a01b038a81169190911790915587163b6125755760405162461bcd60e51b8152602060048201526024808201527f52657075746174696f6e4d616e61676572206d757374206265206120636f6e746044820152631c9858dd60e21b6064820152608401610e3c565b609f80546001600160a01b0319166001600160a01b038981169190911790915583163b6125f05760405162461bcd60e51b8152602060048201526024808201527f436f6c6c61746572616c4d616e61676572206d757374206265206120636f6e746044820152631c9858dd60e21b6064820152608401610e3c565b60aa80546001600160a01b0319166001600160a01b03851617905561261482613bc7565b836126615760405162461bcd60e51b815260206004820152601b60248201527f4e6f206c656e64696e6720746f6b656e732073706563696669656400000000006044820152606401610e3c565b60005b8481101561272d576126a58686838181106126815761268161572e565b90506020020160208101906126969190614db2565b6001600160a01b03163b151590565b6126f15760405162461bcd60e51b815260206004820152601a60248201527f6c656e64696e6720746f6b656e206e6f7420636f6e74726163740000000000006044820152606401610e3c565b61271b8686838181106127065761270661572e565b9050602002016020810190610a669190614db2565b8061272581615744565b915050612664565b508015612774576000805461ff0019169055604051600181527f7f26b83ff96e1f2b6a682f133852f6798a09c465da95921460cefb38474024989060200160405180910390a15b505050505050505050565b600081815260a66020526040902080546060919061279c90615470565b80601f01602080910402602001604051908101604052809291908181526020018280546127c890615470565b80156128155780601f106127ea57610100808354040283529160200191612815565b820191906000526020600020905b8154815290600101906020018083116127f857829003601f168201915b505050505090508060405160200161282d919061575d565b604051602081830303815290604052805190602001207fc5d2460186f7233c927e7db2dcc703c0e500b653ca82273b7bfad8045d85a47060001b03611d035760008281526098602090815260409091206004015490611080908290613c67565b6040805180820190915260098152683932b830bca637b0b760b91b6020820152819060036000838152609860205260409020600c015460ff1660058111156128d7576128d76150b6565b146128f95781816040516347bc33cb60e11b8152600401610e3c9291906154c7565b600083815260986020908152604080832060ac909252822054829182916129259190429060ff16613386565b925092509250612950866040518060400160405280858152602001848152508386611ae29190615516565b505050505050565b612960613554565b6001600160a01b0381163b6129b75760405162461bcd60e51b815260206004820152601f60248201527f496e636f7272656374206c656e64696e6720746f6b656e2061646472657373006044820152606401610e3c565b611d32609c8261353f565b600082815260a760205260408120546001600160a01b038381169116148061108057505060a9546001600160a01b03908116911614919050565b604080518082019091526000808252602082015260036000838152609860205260409020600c015460ff166005811115612a3857612a386150b6565b14612a4257919050565b600082815260986020908152604080832060ac9092528220548291612a6b91429060ff16613386565b908552602085015250919392505050565b612a84613554565b612a8c612ccf565b6116de613e03565b600054600890610100900460ff16158015612ab6575060005460ff8083169116105b612ad25760405162461bcd60e51b8152600401610e3c906156e0565b6000805461ffff191660ff831617610100179055612aee613554565b612af782613bc7565b6000805461ff001916905560405160ff821681527f7f26b83ff96e1f2b6a682f133852f6798a09c465da95921460cefb3847402498906020015b60405180910390a15050565b612b45613554565b60655461ffff828116911614611ba5576065805461ffff83811661ffff198316811790935560408051938452911660208301819052917f4810ece076cee6c6042808956f3f65dad1bc72b75181341d7bed810d39deda0f9101612b31565b60008181526098602052604081206003600c82015460ff166005811115612bcc57612bcc6150b6565b14612bda5750600092915050565b600083815260a1602052604081205463ffffffff169003612bfe5750600092915050565b600083815260a1602052604090205463ffffffff16612c1c84611d08565b612c269042615529565b63ffffffff16119392505050565b612c3c613554565b6001600160a01b038116612ca15760405162461bcd60e51b815260206004820152602660248201527f4f776e61626c653a206e6577206f776e657220697320746865207a65726f206160448201526564647265737360d01b6064820152608401610e3c565b611ba581613777565b612cb2613554565b612cba613e62565b6116de613eb1565b6060600061108083613eee565b60655462010000900460ff16156116de5760405162461bcd60e51b815260206004820152601060248201526f14185d5cd8589b194e881c185d5cd95960821b6044820152606401610e3c565b600080612d27896133be565b609e5460405163066e751360e01b8152600481018c90526001600160a01b0380841660248301529293506000929091169063066e7513906044016040805180830381865afa158015612d7d573d6000803e3d6000fd5b505050506040513d601f19601f82011682018060405250810190612da19190615697565b50905080612de95760405162461bcd60e51b81526020600482015260156024820152742737ba103b32b934b334b2b2103137b93937bbb2b960591b6044820152606401610e3c565b609e54604051631cc672df60e01b8152600481018c90526001600160a01b0390911690631cc672df90602401602060405180830381865afa158015612e32573d6000803e3d6000fd5b505050506040513d601f19601f82011682018060405250810190612e56919061561c565b15612e965760405162461bcd60e51b815260206004820152601060248201526f13585c9ad95d081a5cc818db1bdcd95960821b6044820152606401610e3c565b612ea1609c8c613469565b612eed5760405162461bcd60e51b815260206004820152601c60248201527f4c656e64696e6720746f6b656e206e6f7420617574686f72697a6564000000006044820152606401610e3c565b609754600081815260986020526040902080546001600160a01b0319166001600160a01b03858116919091178255919450908516612f355780546001600160a01b0316612f37565b845b6001820180546001600160a01b03199081166001600160a01b0393841617909155600383018d90556005830180549091168e8316179055600682018b90556009820180546fffffffff0000000000000000ffffffff1916600160601b63ffffffff8d81169190910263ffffffff1916919091174291909116179055609e5460405163a5630f1960e01b8152600481018e905291169063a5630f19906024016040805180830381865afa158015612ff1573d6000803e3d6000fd5b505050506040513d601f19601f820116820180604052508101906130159190615786565b609754600090815260ac602052604081208054600b86019291849160ff191660018381811115613047576130476150b6565b021790555081546101009190910a63ffffffff8181021990921694909116029290921790915550600b8101805465ffff000000001916600160201b61ffff8b1602179055609e546040516311bed5bb60e01b8152600481018d90526001600160a01b03909116906311bed5bb90602401602060405180830381865afa1580156130d4573d6000803e3d6000fd5b505050506040513d601f19601f820116820180604052508101906130f891906157b5565b609754600090815260a1602052604090819020805463ffffffff191663ffffffff9390931692909217909155609e54905163082fc54d60e01b8152600481018d90526001600160a01b039091169063082fc54d90602401602060405180830381865afa15801561316c573d6000803e3d6000fd5b505050506040513d601f19601f8201168201806040525081019061319091906157b5565b609754600090815260a2602052604090819020805463ffffffff191663ffffffff9390931692909217909155609e54905163d6e794dd60e01b8152600481018d90526001600160a01b039091169063d6e794dd90602401602060405180830381865afa158015613204573d6000803e3d6000fd5b505050506040513d601f19601f8201168201806040525081019061322891906157d2565b600c8201805461ff001916610100836001811115613248576132486150b6565b0217905550600c810154609754600090815260ac6020526040902054600b83015461328a9260ff61010090910481169216908d908d9063ffffffff168d613f48565b600a820155609754600090815260a6602052604090206132ab87898361584b565b50600c8101805460ff191660011790556040516132ce908890889060200161590b565b60408051808303601f19018152908290528051602091820120835460975460018601546001600160a01b0390811686529294929091169290917ff887b1f393f43fb94c5d50483df4bd410ffbf286128c5f24ff56c580ac7f731c910160405180910390a480546001600160a01b0316600090815260996020908152604082206097805482546001810184559285529284209091019190915580549161337283615744565b919050555050505098975050505050505050565b60008060006133a58661339888613a87565b63ffffffff168787613fe5565b92509250925093509350939050565b600061126161418b565b60006133cc82610a796133b4565b156134615760131936013560601c6134098160a860006133ea6133b4565b6001600160a01b03168152602081019190915260400160002090613469565b610b245760405162461bcd60e51b8152602060048201526024808201527f53656e646572206d75737420617070726f7665206d61726b657420666f727761604482015263393232b960e11b6064820152608401610e3c565b610b246133b4565b6001600160a01b03811660009081526001830160205260408120541515611080565b60408051808201909152600981526818d85b98d95b109a5960ba1b6020820152819060016000838152609860205260409020600c015460ff1660058111156134d5576134d56150b6565b146134f75781816040516347bc33cb60e11b8152600401610e3c92919061564a565b600083815260986020526040808220600c01805460ff191660021790555184917fa0633b09ac3029a6746aa27d4db1407f5f287a10c41a6b2ad2859f4da9b2680b91a2505050565b6000611080836001600160a01b0384166141cf565b61355c6133b4565b6001600160a01b03166135776033546001600160a01b031690565b6001600160a01b0316146116de5760405162461bcd60e51b815260206004820181905260248201527f4f776e61626c653a2063616c6c6572206973206e6f7420746865206f776e65726044820152606401610e3c565b6000818311156135dc57600080fd5b6000806135f46135ef6201518087615931565b61421e565b50909250905060008061360d6135ef6201518088615931565b5090925090508261361f85600c615945565b8261362b85600c615945565b6136359190615516565b61363f9190615637565b6136499190615637565b979650505050505050565b60006136666135ef6201518084615931565b949350505050565b60008080806136836135ef6201518088615931565b919450925090506136948583615516565b9150600c6136a3600184615637565b6136ad9190615931565b6136b79084615516565b9250600c6136c6600184615637565b6136d0919061595c565b6136db906001615516565b915060006136e98484614392565b9050808211156136f7578091505b613704620151808861595c565b62015180613713868686614418565b61371d9190615945565b6137279190615516565b94508685101561373657600080fd5b5050505092915050565b6000821561376e5781613754600185615637565b61375e9190615931565b613769906001615516565b611080565b50600092915050565b603380546001600160a01b038381166001600160a01b0319831681179093556040519116919082907f8be0079c531659141344cd1fd0a4f28419497f9722a3daafe3b4186f6b6457e090600090a35050565b600084815260986020908152604082209085015185519192916137ec9190615516565b609f54835460405163c7312e4760e01b81526001600160a01b039182166004820152602481018a905292935060009291169063c7312e47906044016020604051808303816000875af1158015613846573d6000803e3d6000fd5b505050506040513d601f19601f8201168201806040525081019061386a9190615970565b905084821061393e57600c8301805460ff1916600417905582546001600160a01b0316600090815260a0602052604090208592506138a89088614555565b50831561390e5760aa54604051632e1a7d4d60e01b8152600481018990526001600160a01b0390911690632e1a7d4d90602401600060405180830381600087803b1580156138f557600080fd5b505af1158015613909573d6000803e3d6000fd5b505050505b60405187907f9a7851747cd7ffb3fe0a32caf3da48b31f27cebe131267051640f8b72fc4718690600090a261396a565b60405187907f68ca97895fe2d09eab47e752271728ade667e72dda27e68c20eaa191a9c2187d90600090a25b600061397588611c6e565b905061399d61398785600301546133be565b60058601546001600160a01b0316908386613af4565b86516007850180546000906139b3908490615516565b909155505060208701516008850180546000906139d1908490615516565b909155505060098401805463ffffffff60401b1916600160401b4263ffffffff16021790556000826002811115613a0a57613a0a6150b6565b14611ae957609f54845460405163c7312e4760e01b81526001600160a01b039182166004820152602481018b905291169063c7312e47906044016020604051808303816000875af1158015613a63573d6000803e3d6000fd5b505050506040513d601f19601f820116820180604052508101906127749190615970565b6009810154600090600160401b900463ffffffff1615613ab8576009820154600160401b900463ffffffff16610b24565b5060090154600160201b900463ffffffff1690565b6000611080836001600160a01b03841661455d565b6000611080838361ffff166002614657565b604080516001600160a01b0385811660248301528416604482015260648082018490528251808303909101815260849091019091526020810180516001600160e01b03166323b872dd60e01b179052613b4e908590614676565b50505050565b600061108083836141cf565b600054610100900460ff16613b875760405162461bcd60e51b8152600401610e3c9061598d565b613b8f61474d565b611ba58161477c565b600054610100900460ff16613bbf5760405162461bcd60e51b8152600401610e3c9061598d565b6116de6147ac565b600054610100900460ff16613bee5760405162461bcd60e51b8152600401610e3c9061598d565b6001600160a01b0381163b613c455760405162461bcd60e51b815260206004820181905260248201527f4c656e6465724d616e61676572206d757374206265206120636f6e74726163746044820152606401610e3c565b60ab80546001600160a01b0319166001600160a01b0392909216919091179055565b60606000613c76836002615945565b613c81906002615516565b67ffffffffffffffff811115613c9957613c996157ef565b6040519080825280601f01601f191660200182016040528015613cc3576020820181803683370190505b509050600360fc1b81600081518110613cde57613cde61572e565b60200101906001600160f81b031916908160001a905350600f60fb1b81600181518110613d0d57613d0d61572e565b60200101906001600160f81b031916908160001a9053506000613d31846002615945565b613d3c906001615516565b90505b6001811115613db4576f181899199a1a9b1b9c1cb0b131b232b360811b85600f1660108110613d7057613d7061572e565b1a60f81b828281518110613d8657613d8661572e565b60200101906001600160f81b031916908160001a90535060049490941c93613dad816159d8565b9050613d3f565b5083156110805760405162461bcd60e51b815260206004820181905260248201527f537472696e67733a20686578206c656e67746820696e73756666696369656e746044820152606401610e3c565b613e0b612ccf565b6065805462ff00001916620100001790557f62e78cea01bee320cd4e420270b5ea74000d11b0c9f74754ebdbfc544b05a258613e456133b4565b6040516001600160a01b03909116815260200160405180910390a1565b60655462010000900460ff166116de5760405162461bcd60e51b815260206004820152601460248201527314185d5cd8589b194e881b9bdd081c185d5cd95960621b6044820152606401610e3c565b613eb9613e62565b6065805462ff0000191690557f5db9ee0a495bf2e6ff9c91a7834c1ba4fdd244a5e8aa4e537bd38aeae4b073aa613e456133b4565b6060816000018054806020026020016040519081016040528092919081815260200182805480156110e757602002820191906000526020600020908154815260200190600101908083116110d35750505050509050919050565b6000806001876001811115613f5f57613f5f6150b6565b14613f6e576301e13380613f74565b6301da9c005b63ffffffff1690506001886001811115613f9057613f906150b6565b03613fca57613fc2613faf63ffffffff808716908490600a906147e116565b600a613fbb8987613ae2565b9190614657565b915050613fdb565b613fd78686868685614807565b9150505b9695505050505050565b6007840154600685015460009182918291613fff91615637565b925060006001856001811115614017576140176150b6565b14614026576301e1338061402c565b6301da9c005b63ffffffff169050600061405e89600a0160010160049054906101000a900461ffff1686613ae290919063ffffffff16565b9050600061406c8989615637565b9050826140798284615945565b6140839190615931565b60098b01549094506000906140a590600160201b900463ffffffff168a6159ef565b60098c01546140c19190600160601b900463ffffffff166159ef565b600b8c015490915060009063ffffffff168212806140ec5750600a8c01546140e9878a615516565b11155b90506001600c8d0154610100900460ff16600181111561410e5761410e6150b6565b0361412257801561411d578796505b61417c565b60008161413357600a8d015461413d565b61413d878a615516565b600b8e015490915060009063ffffffff166141588684615945565b6141629190615931565b90506141776141718983615637565b8b61493b565b985050505b50505050509450945094915050565b60007f00000000000000000000000000000000000000000000000000000000000000006001600160a01b031633036141ca575060131936013560601c90565b503390565b600081815260018301602052604081205461421657508154600181810184556000848152602080822090930184905584548482528286019093526040902091909155610b24565b506000610b24565b60008080838162253d8c6142358362010bd9615a0f565b61423f9190615a0f565b9050600062023ab1614252836004615a2f565b61425c9190615a5f565b9050600461426d8262023ab1615a2f565b614278906003615a0f565b6142829190615a5f565b61428c90836159ef565b9150600062164b0961429f846001615a0f565b6142ab90610fa0615a2f565b6142b59190615a5f565b905060046142c5826105b5615a2f565b6142cf9190615a5f565b6142d990846159ef565b6142e490601f615a0f565b9250600061098f6142f6856050615a2f565b6143009190615a5f565b9050600060506143128361098f615a2f565b61431c9190615a5f565b61432690866159ef565b9050614333600b83615a5f565b945061434085600c615a2f565b61434b836002615a0f565b61435591906159ef565b915084836143646031876159ef565b61436f906064615a2f565b6143799190615a0f565b6143839190615a0f565b9a919950975095505050505050565b600081600114806143a35750816003145b806143ae5750816005145b806143b95750816007145b806143c45750816008145b806143cf575081600a145b806143da575081600c145b156143e75750601f610b24565b816002146143f75750601e610b24565b61440083614951565b61440b57601c61440e565b601d5b60ff169392505050565b60006107b284101561442957600080fd5b838383600062253d8c60046064600c614443600e886159ef565b61444d9190615a5f565b61445988611324615a0f565b6144639190615a0f565b61446d9190615a5f565b614478906003615a2f565b6144829190615a5f565b600c80614490600e886159ef565b61449a9190615a5f565b6144a590600c615a2f565b6144b06002886159ef565b6144ba91906159ef565b6144c69061016f615a2f565b6144d09190615a5f565b6004600c6144df600e896159ef565b6144e99190615a5f565b6144f5896112c0615a0f565b6144ff9190615a0f565b61450b906105b5615a2f565b6145159190615a5f565b614521617d4b876159ef565b61452b9190615a0f565b6145359190615a0f565b61453f91906159ef565b61454991906159ef565b98975050505050505050565b600061108083835b60008181526001830160205260408120548015614646576000614581600183615637565b855490915060009061459590600190615637565b90508181146145fa5760008660000182815481106145b5576145b561572e565b90600052602060002001549050808760000184815481106145d8576145d861572e565b6000918252602080832090910192909255918252600188019052604090208390555b855486908061460b5761460b615a8d565b600190038181906000526020600020016000905590558560010160008681526020019081526020016000206000905560019350505050610b24565b6000915050610b24565b5092915050565b60006146628261498d565b61466c8486615945565b61107d9190615931565b60006146cb826040518060400160405280602081526020017f5361666545524332303a206c6f772d6c6576656c2063616c6c206661696c6564815250856001600160a01b03166149a59092919063ffffffff16565b80519091501561474857808060200190518101906146e9919061561c565b6147485760405162461bcd60e51b815260206004820152602a60248201527f5361666545524332303a204552433230206f7065726174696f6e20646964206e6044820152691bdd081cdd58d8d9595960b21b6064820152608401610e3c565b505050565b600054610100900460ff166147745760405162461bcd60e51b8152600401610e3c9061598d565b6116de6149b4565b600054610100900460ff166147a35760405162461bcd60e51b8152600401610e3c9061598d565b611ba581612b3d565b600054610100900460ff166147d35760405162461bcd60e51b8152600401610e3c9061598d565b6065805462ff000019169055565b6000826000036147f357506000611080565b826147fd8361498d565b61466c9086615945565b60008363ffffffff168563ffffffff1610156148715760405162461bcd60e51b815260206004820152602360248201527f504d543a206379636c65206475726174696f6e203c206c6f616e20647572617460448201526234b7b760e91b6064820152608401610e3c565b8261ffff1660000361489d57614896868563ffffffff168763ffffffff1660016149eb565b9050614932565b60006148b58663ffffffff168663ffffffff16613740565b9050670de0b6b3a764000060006148e5856148df63ffffffff8a166148d98a614a3c565b90614a60565b90614a94565b905060006148fd846148f78486615516565b90614ac4565b9050600061490f826148d98d86614a60565b9050600061491d8584615637565b90506149298282614a94565b96505050505050505b95945050505050565b600081831061494a5781611080565b5090919050565b600061495e60048361595c565b158015614974575061497160648361595c565b15155b80610b2457506149866101908361595c565b1592915050565b600061499a82600a615b87565b610b24906064615945565b606061107d8484600085614adc565b600054610100900460ff166149db5760405162461bcd60e51b8152600401610e3c9061598d565b6116de6149e66133b4565b613777565b6000806149f9868686614bac565b90506001836002811115614a0f57614a0f6150b6565b148015614a2c575060008480614a2757614a2761591b565b868809115b1561493257613fdb600182615516565b6000610b24612710614a5a61ffff8516670de0b6b3a7640000614c5b565b90614c67565b6000611080670de0b6b3a7640000614a5a614a7b8686614c5b565b614a8e6002670de0b6b3a7640000615931565b90614c73565b600080614aa2600284615931565b905061366683614a5a614abd87670de0b6b3a7640000614c5b565b8490614c73565b60006110808383670de0b6b3a7640000614a60614c7f565b606082471015614b3d5760405162461bcd60e51b815260206004820152602660248201527f416464726573733a20696e73756666696369656e742062616c616e636520666f6044820152651c8818d85b1b60d21b6064820152608401610e3c565b600080866001600160a01b03168587604051614b59919061575d565b60006040518083038185875af1925050503d8060008114614b96576040519150601f19603f3d011682016040523d82523d6000602084013e614b9b565b606091505b509150915061364987838387614cf4565b6000808060001985870985870292508281108382030391505080600003614be657838281614bdc57614bdc61591b565b0492505050611080565b808411614bf257600080fd5b60008486880960026001871981018816978890046003810283188082028403028082028403028082028403028082028403028082028403029081029092039091026000889003889004909101858311909403939093029303949094049190911702949350505050565b60006110808284615945565b60006110808284615931565b60006110808284615516565b6000614c8c60028561595c565b600003614c995782614c9b565b845b9050614ca8600285615931565b93505b831561366657614cbf85868463ffffffff16565b9450614ccc60028561595c565b15614ce257614cdf81868463ffffffff16565b90505b614ced600285615931565b9350614cab565b60608315614d63578251600003614d5c576001600160a01b0385163b614d5c5760405162461bcd60e51b815260206004820152601d60248201527f416464726573733a2063616c6c20746f206e6f6e2d636f6e74726163740000006044820152606401610e3c565b5081613666565b6136668383815115614d785781518083602001fd5b8060405162461bcd60e51b8152600401610e3c9190614ffb565b6001600160a01b0381168114611ba557600080fd5b8035611d0381614d92565b600060208284031215614dc457600080fd5b813561108081614d92565b6020808252825182820181905260009190848201906040850190845b81811015614e0757835183529284019291840191600101614deb565b50909695505050505050565b63ffffffff81168114611ba557600080fd5b61ffff81168114611ba557600080fd5b60008083601f840112614e4757600080fd5b50813567ffffffffffffffff811115614e5f57600080fd5b602083019150836020828501011115614e7757600080fd5b9250929050565b60008060008060008060008060e0898b031215614e9a57600080fd5b8835614ea581614d92565b975060208901359650604089013595506060890135614ec381614e13565b94506080890135614ed381614e25565b935060a089013567ffffffffffffffff811115614eef57600080fd5b614efb8b828c01614e35565b90945092505060c0890135614f0f81614d92565b809150509295985092959890939650565b60008060408385031215614f3357600080fd5b8235614f3e81614d92565b91506020830135614f4e81614d92565b809150509250929050565b600060208284031215614f6b57600080fd5b5035919050565b60008060408385031215614f8557600080fd5b50508035926020909101359150565b815181526020808301519082015260408101610b24565b60005b83811015614fc6578181015183820152602001614fae565b50506000910152565b60008151808452614fe7816020860160208601614fab565b601f01601f19169290920160200192915050565b6020815260006110806020830184614fcf565b6000806040838503121561502157600080fd5b823591506020830135614f4e81614d92565b60008060006060848603121561504857600080fd5b83359250602084013561505a81614d92565b9150604084013561506a81614d92565b809150509250925092565b6020808252825182820181905260009190848201906040850190845b81811015614e075783516001600160a01b031683529284019291840191600101615091565b634e487b7160e01b600052602160045260246000fd5b60028110611ba557611ba56150b6565b602081016150e9836150cc565b91905290565b6000806040838503121561510257600080fd5b823561510d81614d92565b946020939093013593505050565b6006811061512b5761512b6150b6565b9052565b61512b816150cc565b60006102408201905060018060a01b03808c168352808b166020840152808a1660408401528860608401528760808401528087511660a084015250602086015160c0830152604086015161519960e084018280518252602090810151910152565b50606086015163ffffffff9081166101208401526080870151811661014084015260a08701511661016083015260c08601516151de61018084018263ffffffff169052565b5084516101a0830152602085015163ffffffff166101c0830152604085015161ffff166101e083015261521561020083018561511b565b61522361022083018461512f565b9a9950505050505050505050565b6000806000806000806000806000806101008b8d03121561525157600080fd5b8a3561525c81614d92565b995060208b0135985060408b0135975060608b013561527a81614e13565b965060808b013561528a81614e25565b955060a08b013567ffffffffffffffff808211156152a757600080fd5b6152b38e838f01614e35565b909750955060c08d013591506152c882614d92565b90935060e08c013590808211156152de57600080fd5b818d0191508d601f8301126152f257600080fd5b81358181111561530157600080fd5b8e60208260071b850101111561531657600080fd5b6020830194508093505050509295989b9194979a5092959850565b60008060008060008060008060e0898b03121561534d57600080fd5b883561535881614e25565b9750602089013561536881614d92565b9650604089013561537881614d92565b9550606089013561538881614d92565b9450608089013567ffffffffffffffff808211156153a557600080fd5b818b0191508b601f8301126153b957600080fd5b8135818111156153c857600080fd5b8c60208260051b85010111156153dd57600080fd5b6020830196508095505050506153f560a08a01614da7565b915061540360c08a01614da7565b90509295985092959890939650565b60208101610b24828461511b565b60006020828403121561543257600080fd5b813561108081614e25565b634e487b7160e01b600052601160045260246000fd5b63ffffffff8181168382160190808211156146505761465061543d565b600181811c9082168061548457607f821691505b6020821081036154a457634e487b7160e01b600052602260045260246000fd5b50919050565b6000602082840312156154bc57600080fd5b815161108081614d92565b8281526060602082015260006154e06060830184614fcf565b8281036040938401526015815274131bd85b881b5d5cdd081899481858d8d95c1d1959605a1b6020820152919091019392505050565b80820180821115610b2457610b2461543d565b63ffffffff8281168282160390808211156146505761465061543d565b63ffffffff8181168382160280821691908281146155665761556661543d565b505092915050565b60038110611ba557600080fd5b838152604060208083018290528282018490526000919060609081850187855b888110156155fd5781356155ae8161556e565b600381106155be576155be6150b6565b835281840135848401528582013586840152848201356155dd81614d92565b6001600160a01b031683860152608092830192919091019060010161559b565b50909998505050505050505050565b80518015158114611d0357600080fd5b60006020828403121561562e57600080fd5b6110808261560c565b81810381811115610b2457610b2461543d565b8281526060602082015260006156636060830184614fcf565b8281036040938401526013815272426964206d7573742062652070656e64696e6760681b6020820152919091019392505050565b600080604083850312156156aa57600080fd5b6156b38361560c565b9150602083015190509250929050565b6000602082840312156156d557600080fd5b815161108081614e25565b6020808252602e908201527f496e697469616c697a61626c653a20636f6e747261637420697320616c72656160408201526d191e481a5b9a5d1a585b1a5e995960921b606082015260800190565b634e487b7160e01b600052603260045260246000fd5b6000600182016157565761575661543d565b5060010190565b6000825161576f818460208701614fab565b9190910192915050565b60028110611ba557600080fd5b6000806040838503121561579957600080fd5b82516157a481614e13565b6020840151909250614f4e81615779565b6000602082840312156157c757600080fd5b815161108081614e13565b6000602082840312156157e457600080fd5b815161108081615779565b634e487b7160e01b600052604160045260246000fd5b601f82111561474857600081815260208120601f850160051c8101602086101561582c5750805b601f850160051c820191505b8181101561295057828155600101615838565b67ffffffffffffffff831115615863576158636157ef565b615877836158718354615470565b83615805565b6000601f8411600181146158ab57600085156158935750838201355b600019600387901b1c1916600186901b178355611c67565b600083815260209020601f19861690835b828110156158dc57868501358255602094850194600190920191016158bc565b50868210156158f95760001960f88860031b161c19848701351681555b505060018560011b0183555050505050565b8183823760009101908152919050565b634e487b7160e01b600052601260045260246000fd5b6000826159405761594061591b565b500490565b8082028115828204841417610b2457610b2461543d565b60008261596b5761596b61591b565b500690565b60006020828403121561598257600080fd5b81516110808161556e565b6020808252602b908201527f496e697469616c697a61626c653a20636f6e7472616374206973206e6f74206960408201526a6e697469616c697a696e6760a81b606082015260800190565b6000816159e7576159e761543d565b506000190190565b81810360008312801583831316838312821617156146505761465061543d565b80820182811260008312801582168215821617156155665761556661543d565b80820260008212600160ff1b84141615615a4b57615a4b61543d565b8181058314821517610b2457610b2461543d565b600082615a6e57615a6e61591b565b600160ff1b821460001984141615615a8857615a8861543d565b500590565b634e487b7160e01b600052603160045260246000fd5b600181815b80851115615ade578160001904821115615ac457615ac461543d565b80851615615ad157918102915b93841c9390800290615aa8565b509250929050565b600082615af557506001610b24565b81615b0257506000610b24565b8160018114615b185760028114615b2257615b3e565b6001915050610b24565b60ff841115615b3357615b3361543d565b50506001821b610b24565b5060208310610133831016604e8410600b8410161715615b61575081810a610b24565b615b6b8383615aa3565b8060001904821115615b7f57615b7f61543d565b029392505050565b60006110808383615ae656fea264697066735822122007874b52dcd9d5a2e67be61d987c4757f9845e3f9ca5f2a2195255de3a6ef04164736f6c63430008110033",
    "linkReferences": {}
  },
  "methodIdentifiers": {
    "CURRENT_CODE_VERSION()": "4148f94c",
    "_lenderVolumeFilled(address)": "b5d34fcd",
    "_totalVolumeFilled()": "1289b396",
    "addLendingToken(address)": "d76ac91f",
    "approveMarketForwarder(uint256,address)": "2e9332d4",
    "bidDefaultDuration(uint256)": "6b76c085",
    "bidExpirationTime(uint256)": "127caa88",
    "bidId()": "8ac47319",
    "bidPaymentCycleType(uint256)": "36735891",
    "bids(uint256)": "4423c5f1",
    "borrowerBids(address,uint256)": "3819bcdc",
    "calculateAmountDue(uint256)": "d974cc57",
    "calculateAmountDue(uint256,uint256)": "6aedfe68",
    "calculateAmountOwed(uint256)": "6c6ca79c",
    "calculateAmountOwed(uint256,uint256)": "1042b85f",
    "calculateNextDueDate(uint256)": "706a43c3",
    "cancelBid(uint256)": "9703ef35",
    "claimLoanNFT(uint256)": "18520f05",
    "collateralManager()": "23be345c",
    "getBidState(uint256)": "bf77ffae",
    "getBorrowerActiveLoanIds(address)": "054de0ff",
    "getBorrowerLoanIds(address)": "1d123633",
    "getLendingTokens()": "235d5a7b",
    "getLoanBorrower(uint256)": "3ef0a2f7",
    "getLoanLender(uint256)": "a10905ea",
    "getLoanLendingToken(uint256)": "14573033",
    "getLoanMarketId(uint256)": "40910c70",
    "getMetadataURI(uint256)": "bde644fb",
    "hasApprovedMarketForwarder(uint256,address,address)": "19b353de",
    "initialize(uint16,address,address,address,address[],address,address)": "b97e8141",
    "isLoanDefaulted(uint256)": "e8cbab09",
    "isLoanExpired(uint256)": "10618223",
    "isPaymentLate(uint256)": "093f5617",
    "isTrustedForwarder(address)": "572b6c05",
    "isTrustedMarketForwarder(uint256,address)": "d87569cc",
    "lastRepaidTimestamp(uint256)": "a51e2bad",
    "lenderAcceptBid(uint256)": "a8cb5d68",
    "lenderCommitmentForwarder()": "ba6d5b15",
    "lenderManager()": "4a06f6ea",
    "lenderVolumeFilled(address,address)": "089487b5",
    "liquidateLoanFull(uint256)": "8288da8a",
    "marketOwnerCancelBid(uint256)": "206c54c7",
    "marketRegistry()": "ecb96fe6",
    "owner()": "8da5cb5b",
    "pauseProtocol()": "dbf62489",
    "paused()": "5c975abb",
    "protocolFee()": "b0e21e8a",
    "removeLendingToken(address)": "a75021ba",
    "renounceOwnership()": "715018a6",
    "repayLoan(uint256,uint256)": "8a700b53",
    "repayLoanFull(uint256)": "9a11e339",
    "repayLoanMinimum(uint256)": "d4eda4cf",
    "reputationManager()": "6b868afb",
    "setLenderManager(address)": "e41c22f2",
    "setProtocolFee(uint16)": "e4467f35",
    "setReputationManager(address)": "56a837f4",
    "setTrustedMarketForwarder(uint256,address)": "1420a266",
    "submitBid(address,uint256,uint256,uint32,uint16,string,address)": "06f33a92",
    "submitBid(address,uint256,uint256,uint32,uint16,string,address,(uint8,uint256,uint256,address)[])": "7bbd53d7",
    "totalVolumeFilled(address)": "2519dc79",
    "transferOwnership(address)": "f2fde38b",
    "unpauseProtocol()": "f93b6be5",
    "uris(uint256)": "1253c546",
    "version()": "54fd4d50"
  },
  "id": 10
}