{
  "abi": [
    {
      "inputs": [
        {
          "internalType": "address",
          "name": "trustedForwarder",
          "type": "address"
        }
      ],
      "stateMutability": "nonpayable",
      "type": "constructor"
    },
    {
      "inputs": [
        {
          "internalType": "uint256",
          "name": "bidId",
          "type": "uint256"
        },
        {
          "internalType": "string",
          "name": "action",
          "type": "string"
        },
        {
          "internalType": "string",
          "name": "message",
          "type": "string"
        }
      ],
      "name": "ActionNotAllowed",
      "type": "error"
    },
    {
      "inputs": [
        {
          "internalType": "uint256",
          "name": "bidId",
          "type": "uint256"
        },
        {
          "internalType": "uint256",
          "name": "payment",
          "type": "uint256"
        },
        {
          "internalType": "uint256",
          "name": "minimumOwed",
          "type": "uint256"
        }
      ],
      "name": "PaymentNotMinimum",
      "type": "error"
    },
    {
      "anonymous": false,
      "inputs": [
        {
          "indexed": true,
          "internalType": "uint256",
          "name": "bidId",
          "type": "uint256"
        },
        {
          "indexed": true,
          "internalType": "address",
          "name": "lender",
          "type": "address"
        }
      ],
      "name": "AcceptedBid",
      "type": "event"
    },
    {
      "anonymous": false,
      "inputs": [
        {
          "indexed": true,
          "internalType": "uint256",
          "name": "bidId",
          "type": "uint256"
        }
      ],
      "name": "CancelledBid",
      "type": "event"
    },
    {
      "anonymous": false,
      "inputs": [
        {
          "indexed": true,
          "internalType": "uint256",
          "name": "bidId",
          "type": "uint256"
        },
        {
          "indexed": true,
          "internalType": "string",
          "name": "feeType",
          "type": "string"
        },
        {
          "indexed": true,
          "internalType": "uint256",
          "name": "amount",
          "type": "uint256"
        }
      ],
      "name": "FeePaid",
      "type": "event"
    },
    {
      "anonymous": false,
      "inputs": [
        {
          "indexed": false,
          "internalType": "uint8",
          "name": "version",
          "type": "uint8"
        }
      ],
      "name": "Initialized",
      "type": "event"
    },
    {
      "anonymous": false,
      "inputs": [
        {
          "indexed": true,
          "internalType": "uint256",
          "name": "bidId",
          "type": "uint256"
        },
        {
          "indexed": true,
          "internalType": "address",
          "name": "liquidator",
          "type": "address"
        }
      ],
      "name": "LoanLiquidated",
      "type": "event"
    },
    {
      "anonymous": false,
      "inputs": [
        {
          "indexed": true,
          "internalType": "uint256",
          "name": "bidId",
          "type": "uint256"
        }
      ],
      "name": "LoanRepaid",
      "type": "event"
    },
    {
      "anonymous": false,
      "inputs": [
        {
          "indexed": true,
          "internalType": "uint256",
          "name": "bidId",
          "type": "uint256"
        }
      ],
      "name": "LoanRepayment",
      "type": "event"
    },
    {
      "anonymous": false,
      "inputs": [
        {
          "indexed": true,
          "internalType": "uint256",
          "name": "marketId",
          "type": "uint256"
        },
        {
          "indexed": true,
          "internalType": "address",
          "name": "forwarder",
          "type": "address"
        },
        {
          "indexed": false,
          "internalType": "address",
          "name": "sender",
          "type": "address"
        }
      ],
      "name": "MarketForwarderApproved",
      "type": "event"
    },
    {
      "anonymous": false,
      "inputs": [
        {
          "indexed": true,
          "internalType": "uint256",
          "name": "bidId",
          "type": "uint256"
        }
      ],
      "name": "MarketOwnerCancelledBid",
      "type": "event"
    },
    {
      "anonymous": false,
      "inputs": [
        {
          "indexed": true,
          "internalType": "address",
          "name": "previousOwner",
          "type": "address"
        },
        {
          "indexed": true,
          "internalType": "address",
          "name": "newOwner",
          "type": "address"
        }
      ],
      "name": "OwnershipTransferred",
      "type": "event"
    },
    {
      "anonymous": false,
      "inputs": [
        {
          "indexed": false,
          "internalType": "address",
          "name": "account",
          "type": "address"
        }
      ],
      "name": "Paused",
      "type": "event"
    },
    {
      "anonymous": false,
      "inputs": [
        {
          "indexed": false,
          "internalType": "uint16",
          "name": "newFee",
          "type": "uint16"
        },
        {
          "indexed": false,
          "internalType": "uint16",
          "name": "oldFee",
          "type": "uint16"
        }
      ],
      "name": "ProtocolFeeSet",
      "type": "event"
    },
    {
      "anonymous": false,
      "inputs": [
        {
          "indexed": true,
          "internalType": "uint256",
          "name": "bidId",
          "type": "uint256"
        },
        {
          "indexed": true,
          "internalType": "address",
          "name": "borrower",
          "type": "address"
        },
        {
          "indexed": false,
          "internalType": "address",
          "name": "receiver",
          "type": "address"
        },
        {
          "indexed": true,
          "internalType": "bytes32",
          "name": "metadataURI",
          "type": "bytes32"
        }
      ],
      "name": "SubmittedBid",
      "type": "event"
    },
    {
      "anonymous": false,
      "inputs": [
        {
          "indexed": true,
          "internalType": "uint256",
          "name": "marketId",
          "type": "uint256"
        },
        {
          "indexed": false,
          "internalType": "address",
          "name": "forwarder",
          "type": "address"
        },
        {
          "indexed": false,
          "internalType": "address",
          "name": "sender",
          "type": "address"
        }
      ],
      "name": "TrustedMarketForwarderSet",
      "type": "event"
    },
    {
      "anonymous": false,
      "inputs": [
        {
          "indexed": false,
          "internalType": "address",
          "name": "account",
          "type": "address"
        }
      ],
      "name": "Unpaused",
      "type": "event"
    },
    {
      "inputs": [],
      "name": "CURRENT_CODE_VERSION",
      "outputs": [
        {
          "internalType": "uint8",
          "name": "",
          "type": "uint8"
        }
      ],
      "stateMutability": "view",
      "type": "function"
    },
    {
      "inputs": [
        {
          "internalType": "address",
          "name": "",
          "type": "address"
        }
      ],
      "name": "_lenderVolumeFilled",
      "outputs": [
        {
          "internalType": "uint256",
          "name": "",
          "type": "uint256"
        }
      ],
      "stateMutability": "view",
      "type": "function"
    },
    {
      "inputs": [],
      "name": "_totalVolumeFilled",
      "outputs": [
        {
          "internalType": "uint256",
          "name": "",
          "type": "uint256"
        }
      ],
      "stateMutability": "view",
      "type": "function"
    },
    {
      "inputs": [
        {
          "internalType": "address",
          "name": "_lendingToken",
          "type": "address"
        }
      ],
      "name": "addLendingToken",
      "outputs": [],
      "stateMutability": "nonpayable",
      "type": "function"
    },
    {
      "inputs": [
        {
          "internalType": "uint256",
          "name": "_marketId",
          "type": "uint256"
        },
        {
          "internalType": "address",
          "name": "_forwarder",
          "type": "address"
        }
      ],
      "name": "approveMarketForwarder",
      "outputs": [],
      "stateMutability": "nonpayable",
      "type": "function"
    },
    {
      "inputs": [
        {
          "internalType": "uint256",
          "name": "",
          "type": "uint256"
        }
      ],
      "name": "bidDefaultDuration",
      "outputs": [
        {
          "internalType": "uint32",
          "name": "",
          "type": "uint32"
        }
      ],
      "stateMutability": "view",
      "type": "function"
    },
    {
      "inputs": [
        {
          "internalType": "uint256",
          "name": "",
          "type": "uint256"
        }
      ],
      "name": "bidExpirationTime",
      "outputs": [
        {
          "internalType": "uint32",
          "name": "",
          "type": "uint32"
        }
      ],
      "stateMutability": "view",
      "type": "function"
    },
    {
      "inputs": [],
      "name": "bidId",
      "outputs": [
        {
          "internalType": "uint256",
          "name": "",
          "type": "uint256"
        }
      ],
      "stateMutability": "view",
      "type": "function"
    },
    {
      "inputs": [
        {
          "internalType": "uint256",
          "name": "",
          "type": "uint256"
        }
      ],
      "name": "bids",
      "outputs": [
        {
          "internalType": "address",
          "name": "borrower",
          "type": "address"
        },
        {
          "internalType": "address",
          "name": "receiver",
          "type": "address"
        },
        {
          "internalType": "address",
          "name": "lender",
          "type": "address"
        },
        {
          "internalType": "uint256",
          "name": "marketplaceId",
          "type": "uint256"
        },
        {
          "internalType": "bytes32",
          "name": "_metadataURI",
          "type": "bytes32"
        },
        {
          "components": [
            {
              "internalType": "contract ERC20",
              "name": "lendingToken",
              "type": "address"
            },
            {
              "internalType": "uint256",
              "name": "principal",
              "type": "uint256"
            },
            {
              "components": [
                {
                  "internalType": "uint256",
                  "name": "principal",
                  "type": "uint256"
                },
                {
                  "internalType": "uint256",
                  "name": "interest",
                  "type": "uint256"
                }
              ],
              "internalType": "struct Payment",
              "name": "totalRepaid",
              "type": "tuple"
            },
            {
              "internalType": "uint32",
              "name": "timestamp",
              "type": "uint32"
            },
            {
              "internalType": "uint32",
              "name": "acceptedTimestamp",
              "type": "uint32"
            },
            {
              "internalType": "uint32",
              "name": "lastRepaidTimestamp",
              "type": "uint32"
            },
            {
              "internalType": "uint32",
              "name": "loanDuration",
              "type": "uint32"
            }
          ],
          "internalType": "struct LoanDetails",
          "name": "loanDetails",
          "type": "tuple"
        },
        {
          "components": [
            {
              "internalType": "uint256",
              "name": "paymentCycleAmount",
              "type": "uint256"
            },
            {
              "internalType": "uint32",
              "name": "paymentCycle",
              "type": "uint32"
            },
            {
              "internalType": "uint16",
              "name": "APR",
              "type": "uint16"
            }
          ],
          "internalType": "struct Terms",
          "name": "terms",
          "type": "tuple"
        },
        {
          "internalType": "enum BidState",
          "name": "state",
          "type": "uint8"
        },
        {
          "internalType": "enum PaymentType",
          "name": "paymentType",
          "type": "uint8"
        }
      ],
      "stateMutability": "view",
      "type": "function"
    },
    {
      "inputs": [
        {
          "internalType": "address",
          "name": "",
          "type": "address"
        },
        {
          "internalType": "uint256",
          "name": "",
          "type": "uint256"
        }
      ],
      "name": "borrowerBids",
      "outputs": [
        {
          "internalType": "uint256",
          "name": "",
          "type": "uint256"
        }
      ],
      "stateMutability": "view",
      "type": "function"
    },
    {
      "inputs": [
        {
          "internalType": "uint256",
          "name": "_bidId",
          "type": "uint256"
        },
        {
          "internalType": "uint256",
          "name": "_timestamp",
          "type": "uint256"
        }
      ],
      "name": "calculateAmountDue",
      "outputs": [
        {
          "components": [
            {
              "internalType": "uint256",
              "name": "principal",
              "type": "uint256"
            },
            {
              "internalType": "uint256",
              "name": "interest",
              "type": "uint256"
            }
          ],
          "internalType": "struct Payment",
          "name": "due",
          "type": "tuple"
        }
      ],
      "stateMutability": "view",
      "type": "function"
    },
    {
      "inputs": [
        {
          "internalType": "uint256",
          "name": "_bidId",
          "type": "uint256"
        }
      ],
      "name": "calculateAmountDue",
      "outputs": [
        {
          "components": [
            {
              "internalType": "uint256",
              "name": "principal",
              "type": "uint256"
            },
            {
              "internalType": "uint256",
              "name": "interest",
              "type": "uint256"
            }
          ],
          "internalType": "struct Payment",
          "name": "due",
          "type": "tuple"
        }
      ],
      "stateMutability": "view",
      "type": "function"
    },
    {
      "inputs": [
        {
          "internalType": "uint256",
          "name": "_bidId",
          "type": "uint256"
        },
        {
          "internalType": "uint256",
          "name": "_timestamp",
          "type": "uint256"
        }
      ],
      "name": "calculateAmountOwed",
      "outputs": [
        {
          "components": [
            {
              "internalType": "uint256",
              "name": "principal",
              "type": "uint256"
            },
            {
              "internalType": "uint256",
              "name": "interest",
              "type": "uint256"
            }
          ],
          "internalType": "struct Payment",
          "name": "owed",
          "type": "tuple"
        }
      ],
      "stateMutability": "view",
      "type": "function"
    },
    {
      "inputs": [
        {
          "internalType": "uint256",
          "name": "_bidId",
          "type": "uint256"
        }
      ],
      "name": "calculateAmountOwed",
      "outputs": [
        {
          "components": [
            {
              "internalType": "uint256",
              "name": "principal",
              "type": "uint256"
            },
            {
              "internalType": "uint256",
              "name": "interest",
              "type": "uint256"
            }
          ],
          "internalType": "struct Payment",
          "name": "owed",
          "type": "tuple"
        }
      ],
      "stateMutability": "view",
      "type": "function"
    },
    {
      "inputs": [
        {
          "internalType": "uint256",
          "name": "_bidId",
          "type": "uint256"
        }
      ],
      "name": "calculateNextDueDate",
      "outputs": [
        {
          "internalType": "uint32",
          "name": "dueDate_",
          "type": "uint32"
        }
      ],
      "stateMutability": "view",
      "type": "function"
    },
    {
      "inputs": [
        {
          "internalType": "uint256",
          "name": "_bidId",
          "type": "uint256"
        }
      ],
      "name": "cancelBid",
      "outputs": [],
      "stateMutability": "nonpayable",
      "type": "function"
    },
    {
      "inputs": [],
      "name": "collateralManager",
      "outputs": [
        {
          "internalType": "contract ICollateralManager",
          "name": "",
          "type": "address"
        }
      ],
      "stateMutability": "view",
      "type": "function"
    },
    {
      "inputs": [
        {
          "internalType": "uint256",
          "name": "_bidId",
          "type": "uint256"
        }
      ],
      "name": "getBidState",
      "outputs": [
        {
          "internalType": "enum BidState",
          "name": "",
          "type": "uint8"
        }
      ],
      "stateMutability": "view",
      "type": "function"
    },
    {
      "inputs": [
        {
          "internalType": "address",
          "name": "_borrower",
          "type": "address"
        }
      ],
      "name": "getBorrowerActiveLoanIds",
      "outputs": [
        {
          "internalType": "uint256[]",
          "name": "",
          "type": "uint256[]"
        }
      ],
      "stateMutability": "view",
      "type": "function"
    },
    {
      "inputs": [
        {
          "internalType": "address",
          "name": "_borrower",
          "type": "address"
        }
      ],
      "name": "getBorrowerLoanIds",
      "outputs": [
        {
          "internalType": "uint256[]",
          "name": "",
          "type": "uint256[]"
        }
      ],
      "stateMutability": "view",
      "type": "function"
    },
    {
      "inputs": [],
      "name": "getLendingTokens",
      "outputs": [
        {
          "internalType": "address[]",
          "name": "",
          "type": "address[]"
        }
      ],
      "stateMutability": "view",
      "type": "function"
    },
    {
      "inputs": [
        {
          "internalType": "uint256",
          "name": "_bidId",
          "type": "uint256"
        }
      ],
      "name": "getLoanBorrower",
      "outputs": [
        {
          "internalType": "address",
          "name": "borrower_",
          "type": "address"
        }
      ],
      "stateMutability": "view",
      "type": "function"
    },
    {
      "inputs": [
        {
          "internalType": "uint256",
          "name": "_bidId",
          "type": "uint256"
        }
      ],
      "name": "getLoanLender",
      "outputs": [
        {
          "internalType": "address",
          "name": "lender_",
          "type": "address"
        }
      ],
      "stateMutability": "view",
      "type": "function"
    },
    {
      "inputs": [
        {
          "internalType": "uint256",
          "name": "_bidId",
          "type": "uint256"
        }
      ],
      "name": "getLoanLendingToken",
      "outputs": [
        {
          "internalType": "address",
          "name": "token_",
          "type": "address"
        }
      ],
      "stateMutability": "view",
      "type": "function"
    },
    {
      "inputs": [
        {
          "internalType": "uint256",
          "name": "_bidId",
          "type": "uint256"
        }
      ],
      "name": "getMetadataURI",
      "outputs": [
        {
          "internalType": "string",
          "name": "metadataURI_",
          "type": "string"
        }
      ],
      "stateMutability": "view",
      "type": "function"
    },
    {
      "inputs": [
        {
          "internalType": "uint256",
          "name": "_marketId",
          "type": "uint256"
        },
        {
          "internalType": "address",
          "name": "_forwarder",
          "type": "address"
        },
        {
          "internalType": "address",
          "name": "_account",
          "type": "address"
        }
      ],
      "name": "hasApprovedMarketForwarder",
      "outputs": [
        {
          "internalType": "bool",
          "name": "",
          "type": "bool"
        }
      ],
      "stateMutability": "view",
      "type": "function"
    },
    {
      "inputs": [
        {
          "internalType": "uint16",
          "name": "_protocolFee",
          "type": "uint16"
        },
        {
          "internalType": "address",
          "name": "_marketRegistry",
          "type": "address"
        },
        {
          "internalType": "address",
          "name": "_reputationManager",
          "type": "address"
        },
        {
          "internalType": "address",
          "name": "_lenderCommitmentForwarder",
          "type": "address"
        },
        {
          "internalType": "address[]",
          "name": "_lendingTokens",
          "type": "address[]"
        },
        {
          "internalType": "address",
          "name": "_collateralManagerAddress",
          "type": "address"
        }
      ],
      "name": "initialize",
      "outputs": [],
      "stateMutability": "nonpayable",
      "type": "function"
    },
    {
      "inputs": [
        {
          "internalType": "uint256",
          "name": "_bidId",
          "type": "uint256"
        }
      ],
      "name": "isLoanDefaulted",
      "outputs": [
        {
          "internalType": "bool",
          "name": "",
          "type": "bool"
        }
      ],
      "stateMutability": "view",
      "type": "function"
    },
    {
      "inputs": [
        {
          "internalType": "uint256",
          "name": "_bidId",
          "type": "uint256"
        }
      ],
      "name": "isLoanExpired",
      "outputs": [
        {
          "internalType": "bool",
          "name": "",
          "type": "bool"
        }
      ],
      "stateMutability": "view",
      "type": "function"
    },
    {
      "inputs": [
        {
          "internalType": "uint256",
          "name": "_bidId",
          "type": "uint256"
        }
      ],
      "name": "isPaymentLate",
      "outputs": [
        {
          "internalType": "bool",
          "name": "",
          "type": "bool"
        }
      ],
      "stateMutability": "view",
      "type": "function"
    },
    {
      "inputs": [
        {
          "internalType": "address",
          "name": "forwarder",
          "type": "address"
        }
      ],
      "name": "isTrustedForwarder",
      "outputs": [
        {
          "internalType": "bool",
          "name": "",
          "type": "bool"
        }
      ],
      "stateMutability": "view",
      "type": "function"
    },
    {
      "inputs": [
        {
          "internalType": "uint256",
          "name": "_marketId",
          "type": "uint256"
        },
        {
          "internalType": "address",
          "name": "_trustedMarketForwarder",
          "type": "address"
        }
      ],
      "name": "isTrustedMarketForwarder",
      "outputs": [
        {
          "internalType": "bool",
          "name": "",
          "type": "bool"
        }
      ],
      "stateMutability": "view",
      "type": "function"
    },
    {
      "inputs": [
        {
          "internalType": "uint256",
          "name": "_bidId",
          "type": "uint256"
        }
      ],
      "name": "lastRepaidTimestamp",
      "outputs": [
        {
          "internalType": "uint32",
          "name": "",
          "type": "uint32"
        }
      ],
      "stateMutability": "view",
      "type": "function"
    },
    {
      "inputs": [
        {
          "internalType": "uint256",
          "name": "_bidId",
          "type": "uint256"
        }
      ],
      "name": "lenderAcceptBid",
      "outputs": [
        {
          "internalType": "uint256",
          "name": "amountToProtocol",
          "type": "uint256"
        },
        {
          "internalType": "uint256",
          "name": "amountToMarketplace",
          "type": "uint256"
        },
        {
          "internalType": "uint256",
          "name": "amountToBorrower",
          "type": "uint256"
        }
      ],
      "stateMutability": "nonpayable",
      "type": "function"
    },
    {
      "inputs": [],
      "name": "lenderCommitmentForwarder",
      "outputs": [
        {
          "internalType": "address",
          "name": "",
          "type": "address"
        }
      ],
      "stateMutability": "view",
      "type": "function"
    },
    {
      "inputs": [
        {
          "internalType": "address",
          "name": "",
          "type": "address"
        },
        {
          "internalType": "address",
          "name": "",
          "type": "address"
        }
      ],
      "name": "lenderVolumeFilled",
      "outputs": [
        {
          "internalType": "uint256",
          "name": "",
          "type": "uint256"
        }
      ],
      "stateMutability": "view",
      "type": "function"
    },
    {
      "inputs": [
        {
          "internalType": "uint256",
          "name": "_bidId",
          "type": "uint256"
        }
      ],
      "name": "liquidateLoanFull",
      "outputs": [],
      "stateMutability": "nonpayable",
      "type": "function"
    },
    {
      "inputs": [
        {
          "internalType": "uint256",
          "name": "_bidId",
          "type": "uint256"
        }
      ],
      "name": "marketOwnerCancelBid",
      "outputs": [],
      "stateMutability": "nonpayable",
      "type": "function"
    },
    {
      "inputs": [],
      "name": "marketRegistry",
      "outputs": [
        {
          "internalType": "contract IMarketRegistry",
          "name": "",
          "type": "address"
        }
      ],
      "stateMutability": "view",
      "type": "function"
    },
    {
      "inputs": [],
      "name": "owner",
      "outputs": [
        {
          "internalType": "address",
          "name": "",
          "type": "address"
        }
      ],
      "stateMutability": "view",
      "type": "function"
    },
    {
      "inputs": [],
      "name": "pauseProtocol",
      "outputs": [],
      "stateMutability": "nonpayable",
      "type": "function"
    },
    {
      "inputs": [],
      "name": "paused",
      "outputs": [
        {
          "internalType": "bool",
          "name": "",
          "type": "bool"
        }
      ],
      "stateMutability": "view",
      "type": "function"
    },
    {
      "inputs": [],
      "name": "protocolFee",
      "outputs": [
        {
          "internalType": "uint16",
          "name": "",
          "type": "uint16"
        }
      ],
      "stateMutability": "view",
      "type": "function"
    },
    {
      "inputs": [
        {
          "internalType": "address",
          "name": "_lendingToken",
          "type": "address"
        }
      ],
      "name": "removeLendingToken",
      "outputs": [],
      "stateMutability": "nonpayable",
      "type": "function"
    },
    {
      "inputs": [],
      "name": "renounceOwnership",
      "outputs": [],
      "stateMutability": "nonpayable",
      "type": "function"
    },
    {
      "inputs": [
        {
          "internalType": "uint256",
          "name": "_bidId",
          "type": "uint256"
        },
        {
          "internalType": "uint256",
          "name": "_amount",
          "type": "uint256"
        }
      ],
      "name": "repayLoan",
      "outputs": [],
      "stateMutability": "nonpayable",
      "type": "function"
    },
    {
      "inputs": [
        {
          "internalType": "uint256",
          "name": "_bidId",
          "type": "uint256"
        }
      ],
      "name": "repayLoanFull",
      "outputs": [],
      "stateMutability": "nonpayable",
      "type": "function"
    },
    {
      "inputs": [
        {
          "internalType": "uint256",
          "name": "_bidId",
          "type": "uint256"
        }
      ],
      "name": "repayLoanMinimum",
      "outputs": [],
      "stateMutability": "nonpayable",
      "type": "function"
    },
    {
      "inputs": [],
      "name": "reputationManager",
      "outputs": [
        {
          "internalType": "contract IReputationManager",
          "name": "",
          "type": "address"
        }
      ],
      "stateMutability": "view",
      "type": "function"
    },
    {
      "inputs": [
        {
          "internalType": "address",
          "name": "_collateralManager",
          "type": "address"
        }
      ],
      "name": "setCollateralManager",
      "outputs": [],
      "stateMutability": "nonpayable",
      "type": "function"
    },
    {
      "inputs": [
        {
          "internalType": "uint16",
          "name": "newFee",
          "type": "uint16"
        }
      ],
      "name": "setProtocolFee",
      "outputs": [],
      "stateMutability": "nonpayable",
      "type": "function"
    },
    {
      "inputs": [
        {
          "internalType": "address",
          "name": "_reputationManager",
          "type": "address"
        }
      ],
      "name": "setReputationManager",
      "outputs": [],
      "stateMutability": "nonpayable",
      "type": "function"
    },
    {
      "inputs": [
        {
          "internalType": "uint256",
          "name": "_marketId",
          "type": "uint256"
        },
        {
          "internalType": "address",
          "name": "_forwarder",
          "type": "address"
        }
      ],
      "name": "setTrustedMarketForwarder",
      "outputs": [],
      "stateMutability": "nonpayable",
      "type": "function"
    },
    {
      "inputs": [
        {
          "internalType": "address",
          "name": "_lendingToken",
          "type": "address"
        },
        {
          "internalType": "uint256",
          "name": "_marketplaceId",
          "type": "uint256"
        },
        {
          "internalType": "uint256",
          "name": "_principal",
          "type": "uint256"
        },
        {
          "internalType": "uint32",
          "name": "_duration",
          "type": "uint32"
        },
        {
          "internalType": "uint16",
          "name": "_APR",
          "type": "uint16"
        },
        {
          "internalType": "string",
          "name": "_metadataURI",
          "type": "string"
        },
        {
          "internalType": "address",
          "name": "_receiver",
          "type": "address"
        }
      ],
      "name": "submitBid",
      "outputs": [
        {
          "internalType": "uint256",
          "name": "bidId_",
          "type": "uint256"
        }
      ],
      "stateMutability": "nonpayable",
      "type": "function"
    },
    {
      "inputs": [
        {
          "internalType": "address",
          "name": "_lendingToken",
          "type": "address"
        },
        {
          "internalType": "uint256",
          "name": "_marketplaceId",
          "type": "uint256"
        },
        {
          "internalType": "uint256",
          "name": "_principal",
          "type": "uint256"
        },
        {
          "internalType": "uint32",
          "name": "_duration",
          "type": "uint32"
        },
        {
          "internalType": "uint16",
          "name": "_APR",
          "type": "uint16"
        },
        {
          "internalType": "string",
          "name": "_metadataURI",
          "type": "string"
        },
        {
          "internalType": "address",
          "name": "_receiver",
          "type": "address"
        },
        {
          "components": [
            {
              "internalType": "enum CollateralType",
              "name": "_collateralType",
              "type": "uint8"
            },
            {
              "internalType": "uint256",
              "name": "_amount",
              "type": "uint256"
            },
            {
              "internalType": "uint256",
              "name": "_tokenId",
              "type": "uint256"
            },
            {
              "internalType": "address",
              "name": "_collateralAddress",
              "type": "address"
            }
          ],
          "internalType": "struct Collateral[]",
          "name": "_collateralInfo",
          "type": "tuple[]"
        }
      ],
      "name": "submitBid",
      "outputs": [
        {
          "internalType": "uint256",
          "name": "bidId_",
          "type": "uint256"
        }
      ],
      "stateMutability": "nonpayable",
      "type": "function"
    },
    {
      "inputs": [
        {
          "internalType": "address",
          "name": "",
          "type": "address"
        }
      ],
      "name": "totalVolumeFilled",
      "outputs": [
        {
          "internalType": "uint256",
          "name": "",
          "type": "uint256"
        }
      ],
      "stateMutability": "view",
      "type": "function"
    },
    {
      "inputs": [
        {
          "internalType": "address",
          "name": "newOwner",
          "type": "address"
        }
      ],
      "name": "transferOwnership",
      "outputs": [],
      "stateMutability": "nonpayable",
      "type": "function"
    },
    {
      "inputs": [],
      "name": "unpauseProtocol",
      "outputs": [],
      "stateMutability": "nonpayable",
      "type": "function"
    },
    {
      "inputs": [
        {
          "internalType": "uint256",
          "name": "",
          "type": "uint256"
        }
      ],
      "name": "uris",
      "outputs": [
        {
          "internalType": "string",
          "name": "",
          "type": "string"
        }
      ],
      "stateMutability": "view",
      "type": "function"
    },
    {
      "inputs": [],
      "name": "version",
      "outputs": [
        {
          "internalType": "uint256",
          "name": "",
          "type": "uint256"
        }
      ],
      "stateMutability": "view",
      "type": "function"
    }
  ],
  "bytecode": {
    "object": "0x60a060405260006097553480156200001657600080fd5b50604051620050c2380380620050c283398101604081905262000039916200004b565b6001600160a01b03166080526200007d565b6000602082840312156200005e57600080fd5b81516001600160a01b03811681146200007657600080fd5b9392505050565b608051615022620000a06000396000818161076301526139e001526150226000f3fe608060405234801561001057600080fd5b50600436106103a45760003560e01c8063706a43c3116101e9578063b0e21e8a1161010f578063d87569cc116100ad578063e8cbab091161007c578063e8cbab0914610a33578063ecb96fe614610a46578063f2fde38b14610a59578063f93b6be514610a6c57600080fd5b8063d87569cc146109f2578063d974cc5714610a05578063dbf6248914610a18578063e4467f3514610a2057600080fd5b8063bde644fb116100e9578063bde644fb14610986578063bf77ffae14610999578063d4eda4cf146109cc578063d76ac91f146109df57600080fd5b8063b0e21e8a1461093d578063b5d34fcd14610953578063ba6d5b151461097357600080fd5b80638ac4731911610187578063a10905ea11610156578063a10905ea146108bd578063a51e2bad146108e9578063a75021ba146108fc578063a8cb5d681461090f57600080fd5b80638ac473191461087d5780638da5cb5b146108865780639703ef35146108975780639a11e339146108aa57600080fd5b80638288da8a116101c35780638288da8a14610831578063837c0bf614610844578063842a05d4146108575780638a700b531461086a57600080fd5b8063706a43c314610803578063715018a6146108165780637bbd53d71461081e57600080fd5b806323be345c116102ce57806354fd4d501161026c5780636aedfe681161023b5780636aedfe68146107a45780636b76c085146107b75780636b868afb146107dd5780636c6ca79c146107f057600080fd5b806354fd4d501461073757806356a837f414610740578063572b6c05146107535780635c975abb1461079357600080fd5b80633819bcdc116102a85780633819bcdc146105c55780633ef0a2f7146105d85780634148f94c146106015780634423c5f11461061b57600080fd5b806323be345c1461057f5780632519dc79146105925780632e9332d4146105b257600080fd5b8063127caa881161034657806319b353de1161031557806319b353de146105315780631d12363314610544578063206c54c714610557578063235d5a7b1461056a57600080fd5b8063127caa88146104945780631289b396146104cf5780631420a266146104d857806314573033146104ed57600080fd5b8063093f561711610382578063093f56171461041e5780631042b85f1461044157806310618223146104615780631253c5461461047457600080fd5b8063054de0ff146103a957806306f33a92146103d2578063089487b5146103f3575b600080fd5b6103bc6103b73660046142ca565b610a74565b6040516103c991906142e7565b60405180910390f35b6103e56103e0366004614396565b610a9e565b6040519081526020016103c9565b6103e5610401366004614438565b60a360209081526000928352604080842090915290825290205481565b61043161042c366004614471565b610ac5565b60405190151581526020016103c9565b61045461044f36600461448a565b610b1a565b6040516103c991906144ac565b61043161046f366004614471565b610b9f565b610487610482366004614471565b610c37565b6040516103c99190614513565b6104ba6104a2366004614471565b60a26020526000908152604090205463ffffffff1681565b60405163ffffffff90911681526020016103c9565b6103e5609b5481565b6104eb6104e6366004614526565b610cd1565b005b6105196104fb366004614471565b6000908152609860205260409020600501546001600160a01b031690565b6040516001600160a01b0390911681526020016103c9565b61043161053f36600461454b565b610e20565b6103bc6105523660046142ca565b610e5f565b6104eb610565366004614471565b610ecb565b61057261102f565b6040516103c9919061458d565b60aa54610519906001600160a01b031681565b6103e56105a03660046142ca565b60a46020526000908152604090205481565b6104eb6105c0366004614526565b611040565b6103e56105d33660046145ce565b611123565b6105196105e6366004614471565b6000908152609860205260409020546001600160a01b031690565b610609600781565b60405160ff90911681526020016103c9565b610722610629366004614471565b60986020908152600091825260409182902080546001820154600283015460038401546004850154875160e08101895260058701546001600160a01b0390811682526006880154828a01528951808b018b52600789015481526008890154818b0152828b0152600988015463ffffffff808216606080860191909152600160201b80840483166080870152600160401b8404831660a0870152600160601b909304821660c08601528c519081018d52600a8b01548152600b8b01549182169b81019b909b520461ffff1699890199909952600c909601549488169793841696939092169490939192909160ff8082169161010090041689565b6040516103c999989796959493929190614634565b6103e560a55481565b6104eb61074e3660046142ca565b611154565b6104316107613660046142ca565b7f00000000000000000000000000000000000000000000000000000000000000006001600160a01b0390811691161490565b60655462010000900460ff16610431565b6104546107b236600461448a565b61117e565b6104ba6107c5366004614471565b60a16020526000908152604090205463ffffffff1681565b609f54610519906001600160a01b031681565b6104546107fe366004614471565b611203565b6104ba610811366004614471565b611274565b6104eb6113b6565b6103e561082c36600461472d565b6113ca565b6104eb61083f366004614471565b6114d6565b6104eb61085236600461482d565b6116ad565b6104eb6108653660046142ca565b6118e7565b6104eb61087836600461448a565b611990565b6103e560975481565b6033546001600160a01b0316610519565b6104eb6108a5366004614471565b611a92565b6104eb6108b8366004614471565b611b47565b6105196108cb366004614471565b6000908152609860205260409020600201546001600160a01b031690565b6104ba6108f7366004614471565b611bfe565b6104eb61090a3660046142ca565b611c15565b61092261091d366004614471565b611c2c565b604080519384526020840192909252908201526060016103c9565b60655460405161ffff90911681526020016103c9565b6103e56109613660046142ca565b609a6020526000908152604090205481565b60a954610519906001600160a01b031681565b610487610994366004614471565b6122aa565b6109bf6109a7366004614471565b6000908152609860205260409020600c015460ff1690565b6040516103c991906148fe565b6104eb6109da366004614471565b6123c1565b6104eb6109ed3660046142ca565b61247c565b610431610a00366004614526565b6124e6565b610454610a13366004614471565b612520565b6104eb612591565b6104eb610a2e36600461490c565b6125a9565b610431610a41366004614471565b61260f565b609e54610519906001600160a01b031681565b6104eb610a673660046142ca565b6126a0565b6104eb612716565b6001600160a01b038116600090815260a060205260409020606090610a989061272e565b92915050565b6000610aa861273b565b610ab88989898989898989612787565b9998505050505050505050565b600060036000838152609860205260409020600c015460ff166005811115610aef57610aef6145fa565b14610afc57506000919050565b610b0582611274565b63ffffffff164263ffffffff16119050919050565b604080518082019091526000808252602082015260008381526098602052604090206003600c82015460ff166005811115610b5757610b576145fa565b141580610b7557506009810154600160201b900463ffffffff168311155b15610b805750610a98565b600080610b8d8386612d9d565b91865250602085015250505092915050565b60008181526098602052604081206001600c82015460ff166005811115610bc857610bc86145fa565b14610bd65750600092915050565b600083815260a2602052604081205463ffffffff169003610bfa5750600092915050565b600083815260a260205260409020546009820154610c219163ffffffff908116911661493f565b63ffffffff164263ffffffff1611915050919050565b60a66020526000908152604090208054610c509061495c565b80601f0160208091040260200160405190810160405280929190818152602001828054610c7c9061495c565b8015610cc95780601f10610c9e57610100808354040283529160200191610cc9565b820191906000526020600020905b815481529060010190602001808311610cac57829003601f168201915b505050505081565b610cd9612e1c565b609e54604051633d36902960e01b8152600481018590526001600160a01b039283169290911690633d369029906024016020604051808303816000875af1158015610d28573d6000803e3d6000fd5b505050506040513d601f19601f82011682018060405250810190610d4c9190614996565b6001600160a01b031614610da75760405162461bcd60e51b815260206004820152601f60248201527f43616c6c6572206d75737420626520746865206d61726b6574206f776e65720060448201526064015b60405180910390fd5b600082815260a76020526040902080546001600160a01b0319166001600160a01b038316179055817fa593acf9edc343669c7fc50d2caa3911326adef438361f0fa911be85c9e296a482610df9612e1c565b604080516001600160a01b0393841681529290911660208301520160405180910390a25050565b6000610e2c84846124e6565b8015610e5557506001600160a01b038316600090815260a860205260409020610e559083612e26565b90505b9392505050565b6001600160a01b038116600090815260996020908152604091829020805483518184028101840190945280845260609392830182828015610ebf57602002820191906000526020600020905b815481526020019060010190808311610eab575b50505050509050919050565b609e5460008281526098602052604090819020600301549051633d36902960e01b81526001600160a01b0390921691633d36902991610f109160040190815260200190565b6020604051808303816000875af1158015610f2f573d6000803e3d6000fd5b505050506040513d601f19601f82011682018060405250810190610f539190614996565b6001600160a01b0316610f64612e1c565b6001600160a01b031614610ff8576040516347bc33cb60e11b8152600481018290526060602482015260146064820152731b585c9ad95d13dddb995c90d85b98d95b109a5960621b608482015260a06044820152602160a48201527f4f6e6c7920746865206d61726b6574206f776e65722063616e2063616e63656c60c4820152602160f81b60e482015261010401610d9e565b61100181612e48565b60405181907ff3f271d754f5264e0d143bf9be577d6eba153b0d833bd3a127d7b1a280bb13f190600090a250565b606061103b609c61272e565b905090565b61104a82826124e6565b6110a65760405162461bcd60e51b815260206004820152602760248201527f466f72776172646572206d757374206265207472757374656420627920746865604482015266081b585c9ad95d60ca1b6064820152608401610d9e565b6110cf6110b1612e1c565b6001600160a01b038316600090815260a86020526040902090612efc565b50806001600160a01b0316827f65d6b5305e8c0e58e88454a1aeecae0f55975222338b25abd0997b4d305056a1611104612e1c565b6040516001600160a01b03909116815260200160405180910390a35050565b6099602052816000526040600020818154811061113f57600080fd5b90600052602060002001600091509150505481565b61115c612f11565b609f80546001600160a01b0319166001600160a01b0392909216919091179055565b604080518082018252600080825260208083018290528582526098905291909120600c81015460039060ff1660058111156111bb576111bb6145fa565b1415806111d957506009810154600160201b900463ffffffff168311155b156111e45750610a98565b6000806111f18386612d9d565b90865260208601525050505092915050565b604080518082019091526000808252602082015260036000838152609860205260409020600c015460ff16600581111561123f5761123f6145fa565b1461124957919050565b600082815260986020526040812081906112639042612d9d565b918552506020840152509092915050565b6000818152609860205260408120600c81015460039060ff16600581111561129e5761129e6145fa565b146112a95750919050565b600b81015460098201546112cd9163ffffffff90811691600160201b90041661493f565b6009820154909250600090600160201b900463ffffffff166112ee85611bfe565b6112f891906149b3565b905063ffffffff81161561134f57600b82015460009061131e9063ffffffff16836149e6565b61132990600161493f565b600b8401549091506113419063ffffffff1682614a09565b61134b908561493f565b9350505b60098201546113749063ffffffff600160601b8204811691600160201b90041661493f565b63ffffffff168363ffffffff1611156113af5760098201546113ac9063ffffffff600160601b8204811691600160201b90041661493f565b92505b5050919050565b6113be612f11565b6113c86000612f8a565b565b60006113d461273b565b6113e48b8b8b8b8b8b8b8b612787565b60aa54604051631532dc4560e01b81529192506000916001600160a01b0390911690631532dc459061141e90859088908890600401614a3e565b6020604051808303816000875af115801561143d573d6000803e3d6000fd5b505050506040513d601f19601f820116820180604052508101906114619190614adf565b90506001811515146114c75760405162461bcd60e51b815260206004820152602960248201527f436f6c6c61746572616c2062616c616e636520636f756c64206e6f74206265206044820152681d985b1a59185d195960ba1b6064820152608401610d9e565b509a9950505050505050505050565b60408051808201909152600d81526c3634b8bab4b230ba32a637b0b760991b6020820152819060036000838152609860205260409020600c015460ff166005811115611524576115246145fa565b146115465781816040516347bc33cb60e11b8152600401610d9e929190614afa565b61154f8361260f565b61159b5760405162461bcd60e51b815260206004820152601760248201527f4c6f616e206d7573742062652064656661756c7465642e0000000000000000006044820152606401610d9e565b600083815260986020526040812090806115b58342612d9d565b92505091506115e68660405180604001604052808581526020018481525083856115df9190614b49565b6000612fdc565b600c8301805460ff1916600517905560038301546000906116069061329e565b60aa5460405163f0472c4960e01b8152600481018a90526001600160a01b03808416602483015292935091169063f0472c4990604401600060405180830381600087803b15801561165657600080fd5b505af115801561166a573d6000803e3d6000fd5b50506040516001600160a01b03841692508991507f73de9acc561f27528ab0a3b5dd63fefb4e59f95575891299a6f862a78779817690600090a350505050505050565b600054610100900460ff16158080156116cd5750600054600160ff909116105b806116e75750303b1580156116e7575060005460ff166001145b6117035760405162461bcd60e51b8152600401610d9e90614b5c565b6000805460ff191660011790558015611726576000805461ff0019166101001790555b61172f88613349565b611737613381565b60a980546001600160a01b038088166001600160a01b031992831617909255609e80548a8416908316179055609f80549289169290911691909117905561177d826133b0565b826117ca5760405162461bcd60e51b815260206004820152601b60248201527f4e6f206c656e64696e6720746f6b656e732073706563696669656400000000006044820152606401610d9e565b60005b838110156118965761180e8585838181106117ea576117ea614baa565b90506020020160208101906117ff91906142ca565b6001600160a01b03163b151590565b61185a5760405162461bcd60e51b815260206004820152601a60248201527f6c656e64696e6720746f6b656e206e6f7420636f6e74726163740000000000006044820152606401610d9e565b61188485858381811061186f5761186f614baa565b90506020020160208101906109ed91906142ca565b8061188e81614bc0565b9150506117cd565b5080156118dd576000805461ff0019169055604051600181527f7f26b83ff96e1f2b6a682f133852f6798a09c465da95921460cefb38474024989060200160405180910390a15b5050505050505050565b600054600790610100900460ff16158015611909575060005460ff8083169116105b6119255760405162461bcd60e51b8152600401610d9e90614b5c565b6000805461ffff191660ff831617610100179055611941612f11565b61194a826133b0565b6000805461ff001916905560405160ff821681527f7f26b83ff96e1f2b6a682f133852f6798a09c465da95921460cefb3847402498906020015b60405180910390a15050565b6040805180820190915260098152683932b830bca637b0b760b91b6020820152829060036000838152609860205260409020600c015460ff1660058111156119da576119da6145fa565b146119fc5781816040516347bc33cb60e11b8152600401610d9e929190614afa565b600084815260986020526040812081908190611a189042612d9d565b919450925090506000611a2b8284614b49565b905080871015611a5e5760405162dd9d0f60e61b8152600481018990526024810188905260448101829052606401610d9e565b6118dd886040518060400160405280858b611a799190614bd9565b8152602001859052611a8b8588614b49565b6001612fdc565b600081815260986020526040902080546003909101546001600160a01b0390911690611abd9061329e565b6001600160a01b031614611b3b576040516347bc33cb60e11b81526004810182905260606024820152600960648201526818d85b98d95b109a5960ba1b608482015260a06044820152601e60a48201527f4f6e6c792074686520626964206f776e65722063616e2063616e63656c21000060c482015260e401610d9e565b611b4481612e48565b50565b6040805180820190915260098152683932b830bca637b0b760b91b6020820152819060036000838152609860205260409020600c015460ff166005811115611b9157611b916145fa565b14611bb35781816040516347bc33cb60e11b8152600401610d9e929190614afa565b60008381526098602052604081208190611bcd9042612d9d565b9250509150611bf7856040518060400160405280858152602001848152508385611a8b9190614b49565b5050505050565b6000818152609860205260408120610a98906134b7565b611c1d612f11565b611c28609c826134fd565b5050565b6000806000836040518060400160405280600f81526020016e1b195b99195c9058d8d95c1d109a59608a1b81525060016005811115611c6d57611c6d6145fa565b6000838152609860205260409020600c015460ff166005811115611c9357611c936145fa565b14611cb55781816040516347bc33cb60e11b8152600401610d9e929190614bec565b611cbd61273b565b60008681526098602052604081206003810154909190611cdc9061329e565b609e546003840154604051633ef19a9b60e01b815260048101919091526001600160a01b03808416602483015292935060009290911690633ef19a9b9060440160408051808303816000875af1158015611d3a573d6000803e3d6000fd5b505050506040513d601f19601f82011682018060405250810190611d5e9190614c39565b50905080611da45760405162461bcd60e51b81526020600482015260136024820152722737ba103b32b934b334b2b2103632b73232b960691b6044820152606401610d9e565b609e546003840154604051631cc672df60e01b81526001600160a01b0390921691631cc672df91611ddb9160040190815260200190565b6020604051808303816000875af1158015611dfa573d6000803e3d6000fd5b505050506040513d601f19601f82011682018060405250810190611e1e9190614adf565b15611e5e5760405162461bcd60e51b815260206004820152601060248201526f13585c9ad95d081a5cc818db1bdcd95960821b6044820152606401610d9e565b611e6789610b9f565b15611ea65760405162461bcd60e51b815260206004820152600f60248201526e109a59081a185cc8195e1c1a5c9959608a1b6044820152606401610d9e565b6009830180546bffffffffffffffff000000001916600160201b4263ffffffff1690810263ffffffff60401b191691909117600160401b91909102179055600c830180546003919060ff191660018302179055506002830180546001600160a01b0319166001600160a01b038481169190911790915560aa546040516346f0b08b60e11b8152600481018c9052911690638de1611690602401600060405180830381600087803b158015611f5957600080fd5b505af1158015611f6d573d6000803e3d6000fd5b50505050611f8c611f8160655461ffff1690565b600685015490613512565b609e54600385015460405163028ba63960e21b8152929a5061200d926001600160a01b0390921691630a2e98e491611fca9160040190815260200190565b6020604051808303816000875af1158015611fe9573d6000803e3d6000fd5b505050506040513d601f19601f82011682018060405250810190611f819190614c65565b9650868884600501600101546120239190614bd9565b61202d9190614bd9565b600284015490965061206a906001600160a01b03166120546033546001600160a01b031690565b60058601546001600160a01b031691908b613524565b6002830154609e5460038501546040516332209bcb60e11b81526004810191909152612100926001600160a01b039081169216906364413796906024016020604051808303816000875af11580156120c6573d6000803e3d6000fd5b505050506040513d601f19601f820116820180604052508101906120ea9190614996565b60058601546001600160a01b031691908a613524565b60028301546001840154600585015461212a926001600160a01b0391821692908216911689613524565b600683015460058401546001600160a01b03908116600090815260a360209081526040808320600289015490941683529290529081208054909190612170908490614b49565b9091555050600683015460058401546001600160a01b0316600090815260a46020526040812080549091906121a6908490614b49565b909155505082546001600160a01b0316600090815260a0602052604090206121ce908a613584565b5060028301546040516001600160a01b03909116908a907fde9d3bfa8771df6761c0afac2375c88c70a3aa30478e1bd15363294033b470ed90600090a3604051671c1c9bdd1bd8dbdb60c21b81528890600801604051908190038120908b907f476a21a61ac4a7da250e040733aa10facd2eeee584b2c009d178c3de3d8a12dc90600090a46040516a6d61726b6574706c61636560a81b81528790600b01604051908190038120908b907f476a21a61ac4a7da250e040733aa10facd2eeee584b2c009d178c3de3d8a12dc90600090a450505050509193909250565b600081815260a6602052604090208054606091906122c79061495c565b80601f01602080910402602001604051908101604052809291908181526020018280546122f39061495c565b80156123405780601f1061231557610100808354040283529160200191612340565b820191906000526020600020905b81548152906001019060200180831161232357829003601f168201915b50505050509050806040516020016123589190614c82565b604051602081830303815290604052805190602001207fc5d2460186f7233c927e7db2dcc703c0e500b653ca82273b7bfad8045d85a47060001b036123bc57600082815260986020908152604090912060040154906123b8908290613590565b9150505b919050565b6040805180820190915260098152683932b830bca637b0b760b91b6020820152819060036000838152609860205260409020600c015460ff16600581111561240b5761240b6145fa565b1461242d5781816040516347bc33cb60e11b8152600401610d9e929190614afa565b6000838152609860205260408120819081906124499042612d9d565b925092509250612474866040518060400160405280858152602001848152508386611a8b9190614b49565b505050505050565b612484612f11565b6001600160a01b0381163b6124db5760405162461bcd60e51b815260206004820152601f60248201527f496e636f7272656374206c656e64696e6720746f6b656e2061646472657373006044820152606401610d9e565b611c28609c82612efc565b600082815260a760205260408120546001600160a01b0383811691161480610e5857505060a9546001600160a01b03908116911614919050565b604080518082019091526000808252602082015260036000838152609860205260409020600c015460ff16600581111561255c5761255c6145fa565b1461256657919050565b600082815260986020526040812081906125809042612d9d565b908552602085015250919392505050565b612599612f11565b6125a161273b565b6113c861372c565b6125b1612f11565b60655461ffff828116911614611b44576065805461ffff83811661ffff198316811790935560408051938452911660208301819052917f4810ece076cee6c6042808956f3f65dad1bc72b75181341d7bed810d39deda0f9101611984565b60008181526098602052604081206003600c82015460ff166005811115612638576126386145fa565b146126465750600092915050565b600083815260a1602052604081205463ffffffff16900361266a5750600092915050565b600083815260a1602052604090205463ffffffff1661268884611bfe565b61269290426149b3565b63ffffffff16119392505050565b6126a8612f11565b6001600160a01b03811661270d5760405162461bcd60e51b815260206004820152602660248201527f4f776e61626c653a206e6577206f776e657220697320746865207a65726f206160448201526564647265737360d01b6064820152608401610d9e565b611b4481612f8a565b61271e612f11565b61272661378b565b6113c86137da565b60606000610e5883613817565b60655462010000900460ff16156113c85760405162461bcd60e51b815260206004820152601060248201526f14185d5cd8589b194e881c185d5cd95960821b6044820152606401610d9e565b6000806127938961329e565b609e5460405163066e751360e01b8152600481018c90526001600160a01b0380841660248301529293506000929091169063066e75139060440160408051808303816000875af11580156127eb573d6000803e3d6000fd5b505050506040513d601f19601f8201168201806040525081019061280f9190614c39565b509050806128575760405162461bcd60e51b81526020600482015260156024820152742737ba103b32b934b334b2b2103137b93937bbb2b960591b6044820152606401610d9e565b609e54604051631cc672df60e01b8152600481018c90526001600160a01b0390911690631cc672df906024016020604051808303816000875af11580156128a2573d6000803e3d6000fd5b505050506040513d601f19601f820116820180604052508101906128c69190614adf565b156129065760405162461bcd60e51b815260206004820152601060248201526f13585c9ad95d081a5cc818db1bdcd95960821b6044820152606401610d9e565b612911609c8c612e26565b61295d5760405162461bcd60e51b815260206004820152601c60248201527f4c656e64696e6720746f6b656e206e6f7420617574686f72697a6564000000006044820152606401610d9e565b609754600081815260986020526040902080546001600160a01b0319166001600160a01b038581169190911782559194509085166129a55780546001600160a01b03166129a7565b845b6001820180546001600160a01b03199081166001600160a01b0393841617909155600383018d90556005830180549091168e8316179055600682018b90556009820180546fffffffff0000000000000000ffffffff1916600160601b63ffffffff8d81169190910263ffffffff1916919091174291909116179055609e5460405163805deb5360e01b8152600481018e905291169063805deb53906024016020604051808303816000875af1158015612a64573d6000803e3d6000fd5b505050506040513d601f19601f82011682018060405250810190612a889190614c9e565b600b8201805463ffffffff9290921665ffffffffffff1990921691909117600160201b61ffff8b1602179055609e546040516311bed5bb60e01b8152600481018d90526001600160a01b03909116906311bed5bb906024016020604051808303816000875af1158015612aff573d6000803e3d6000fd5b505050506040513d601f19601f82011682018060405250810190612b239190614c9e565b609754600090815260a1602052604090819020805463ffffffff191663ffffffff9390931692909217909155609e54905163082fc54d60e01b8152600481018d90526001600160a01b039091169063082fc54d906024016020604051808303816000875af1158015612b99573d6000803e3d6000fd5b505050506040513d601f19601f82011682018060405250810190612bbd9190614c9e565b609754600090815260a2602052604090819020805463ffffffff191663ffffffff9390931692909217909155609e54905163d6e794dd60e01b8152600481018d90526001600160a01b039091169063d6e794dd90602401602060405180830381865afa158015612c31573d6000803e3d6000fd5b505050506040513d601f19601f82011682018060405250810190612c559190614cbb565b600c8201805461ff001916610100836001811115612c7557612c756145fa565b0217905550600c810154600b820154612ca191610100900460ff16908c908c9063ffffffff168c613871565b600a820155609754600090815260a660205260409020612cc2878983614d38565b50600c8101805460ff19166001179055604051612ce59088908890602001614df8565b60408051808303601f19018152908290528051602091820120835460975460018601546001600160a01b0390811686529294929091169290917ff887b1f393f43fb94c5d50483df4bd410ffbf286128c5f24ff56c580ac7f731c910160405180910390a480546001600160a01b03166000908152609960209081526040822060978054825460018101845592855292842090910191909155805491612d8983614bc0565b919050555050505098975050505050505050565b60068201546007830154600b840154600a85015460009384938493612e0f9361ffff600160201b8304169163ffffffff16612dd78b6134b7565b60098c0154600c8d015463ffffffff928316928d92600160201b8104821692600160601b90910490911690610100900460ff166138dc565b9250925092509250925092565b600061103b6139dc565b6001600160a01b03811660009081526001830160205260408120541515610e58565b60408051808201909152600981526818d85b98d95b109a5960ba1b6020820152819060016000838152609860205260409020600c015460ff166005811115612e9257612e926145fa565b14612eb45781816040516347bc33cb60e11b8152600401610d9e929190614bec565b600083815260986020526040808220600c01805460ff191660021790555184917fa0633b09ac3029a6746aa27d4db1407f5f287a10c41a6b2ad2859f4da9b2680b91a2505050565b6000610e58836001600160a01b038416613a20565b612f19612e1c565b6001600160a01b0316612f346033546001600160a01b031690565b6001600160a01b0316146113c85760405162461bcd60e51b815260206004820181905260248201527f4f776e61626c653a2063616c6c6572206973206e6f7420746865206f776e65726044820152606401610d9e565b603380546001600160a01b038381166001600160a01b0319831681179093556040519116919082907f8be0079c531659141344cd1fd0a4f28419497f9722a3daafe3b4186f6b6457e090600090a35050565b60008481526098602090815260408220908501518551919291612fff9190614b49565b609f54835460405163c7312e4760e01b81526001600160a01b039182166004820152602481018a905292935060009291169063c7312e47906044016020604051808303816000875af1158015613059573d6000803e3d6000fd5b505050506040513d601f19601f8201168201806040525081019061307d9190614e08565b905084821061315157600c8301805460ff1916600417905582546001600160a01b0316600090815260a0602052604090208592506130bb9088613a6f565b5083156131215760aa54604051632e1a7d4d60e01b8152600481018990526001600160a01b0390911690632e1a7d4d90602401600060405180830381600087803b15801561310857600080fd5b505af115801561311c573d6000803e3d6000fd5b505050505b60405187907f9a7851747cd7ffb3fe0a32caf3da48b31f27cebe131267051640f8b72fc4718690600090a261317d565b60405187907f68ca97895fe2d09eab47e752271728ade667e72dda27e68c20eaa191a9c2187d90600090a25b6131ab61318d846003015461329e565b600285015460058601546001600160a01b0390811692911685613524565b85516007840180546000906131c1908490614b49565b909155505060208601516008840180546000906131df908490614b49565b909155505060098301805463ffffffff60401b1916600160401b4263ffffffff16021790556000816002811115613218576132186145fa565b1461329557609f54835460405163c7312e4760e01b81526001600160a01b039182166004820152602481018a905291169063c7312e47906044016020604051808303816000875af1158015613271573d6000803e3d6000fd5b505050506040513d601f19601f820116820180604052508101906118dd9190614e08565b50505050505050565b60006132ac82610a00612e1c565b156133415760131936013560601c6132e98160a860006132ca612e1c565b6001600160a01b03168152602081019190915260400160002090612e26565b610a985760405162461bcd60e51b8152602060048201526024808201527f53656e646572206d75737420617070726f7665206d61726b657420666f727761604482015263393232b960e11b6064820152608401610d9e565b610a98612e1c565b600054610100900460ff166133705760405162461bcd60e51b8152600401610d9e90614e25565b613378613a7b565b611b4481613aaa565b600054610100900460ff166133a85760405162461bcd60e51b8152600401610d9e90614e25565b6113c8613ada565b600054610100900460ff166133d75760405162461bcd60e51b8152600401610d9e90614e25565b60aa546001600160a01b0316156134305760405162461bcd60e51b815260206004820152601e60248201527f436f6c6c61746572616c204d616e6167657220616c72656164792073657400006044820152606401610d9e565b6001600160a01b0381163b6134955760405162461bcd60e51b815260206004820152602560248201527f436f6c6c61746572616c204d616e61676572206d757374206265206120636f6e6044820152641d1c9858dd60da1b6064820152608401610d9e565b60aa80546001600160a01b0319166001600160a01b0392909216919091179055565b6009810154600090600160401b900463ffffffff16156134e8576009820154600160401b900463ffffffff16610a98565b5060090154600160201b900463ffffffff1690565b6000610e58836001600160a01b038416613b0f565b6000610e58838361ffff166002613c09565b604080516001600160a01b0385811660248301528416604482015260648082018490528251808303909101815260849091019091526020810180516001600160e01b03166323b872dd60e01b17905261357e908590613c28565b50505050565b6000610e588383613a20565b6060600061359f836002614e70565b6135aa906002614b49565b67ffffffffffffffff8111156135c2576135c2614cdc565b6040519080825280601f01601f1916602001820160405280156135ec576020820181803683370190505b509050600360fc1b8160008151811061360757613607614baa565b60200101906001600160f81b031916908160001a905350600f60fb1b8160018151811061363657613636614baa565b60200101906001600160f81b031916908160001a905350600061365a846002614e70565b613665906001614b49565b90505b60018111156136dd576f181899199a1a9b1b9c1cb0b131b232b360811b85600f166010811061369957613699614baa565b1a60f81b8282815181106136af576136af614baa565b60200101906001600160f81b031916908160001a90535060049490941c936136d681614e87565b9050613668565b508315610e585760405162461bcd60e51b815260206004820181905260248201527f537472696e67733a20686578206c656e67746820696e73756666696369656e746044820152606401610d9e565b61373461273b565b6065805462ff00001916620100001790557f62e78cea01bee320cd4e420270b5ea74000d11b0c9f74754ebdbfc544b05a25861376e612e1c565b6040516001600160a01b03909116815260200160405180910390a1565b60655462010000900460ff166113c85760405162461bcd60e51b815260206004820152601460248201527314185d5cd8589b194e881b9bdd081c185d5cd95960621b6044820152606401610d9e565b6137e261378b565b6065805462ff0000191690557f5db9ee0a495bf2e6ff9c91a7834c1ba4fdd244a5e8aa4e537bd38aeae4b073aa61376e612e1c565b606081600001805480602002602001604051908101604052809291908181526020018280548015610ebf5760200282019190600052602060002090815481526020019060010190808311610eab5750505050509050919050565b60006001866001811115613887576138876145fa565b036138c4576138bd6138aa63ffffffff808616906301e1338090600a90613cff16565b600a6138b68886613512565b9190613c09565b90506138d3565b6138d085858585613d25565b90505b95945050505050565b600080806138ea8c8e614bd9565b925060006138f8848d613512565b905060006139068a8a614bd9565b90506301e133806139178284614e70565b6139219190614e9e565b9250600061392f898b614eb2565b6139399089614eb2565b905060008c82128061395457508d6139518689614b49565b11155b9050600188600181111561396a5761396a6145fa565b0361397e578015613979578695505b6139c8565b60008161398b578e613995565b6139958689614b49565b905060008e6139a48684614e70565b6139ae9190614e9e565b90506139c36139bd8883614bd9565b8a613e5c565b975050505b505050509a509a509a975050505050505050565b60007f00000000000000000000000000000000000000000000000000000000000000006001600160a01b03163303613a1b575060131936013560601c90565b503390565b6000818152600183016020526040812054613a6757508154600181810184556000848152602080822090930184905584548482528286019093526040902091909155610a98565b506000610a98565b6000610e588383613b0f565b600054610100900460ff16613aa25760405162461bcd60e51b8152600401610d9e90614e25565b6113c8613e72565b600054610100900460ff16613ad15760405162461bcd60e51b8152600401610d9e90614e25565b611b44816125a9565b600054610100900460ff16613b015760405162461bcd60e51b8152600401610d9e90614e25565b6065805462ff000019169055565b60008181526001830160205260408120548015613bf8576000613b33600183614bd9565b8554909150600090613b4790600190614bd9565b9050818114613bac576000866000018281548110613b6757613b67614baa565b9060005260206000200154905080876000018481548110613b8a57613b8a614baa565b6000918252602080832090910192909255918252600188019052604090208390555b8554869080613bbd57613bbd614ed2565b600190038181906000526020600020016000905590558560010160008681526020019081526020016000206000905560019350505050610a98565b6000915050610a98565b5092915050565b6000613c1482613ea9565b613c1e8486614e70565b610e559190614e9e565b6000613c7d826040518060400160405280602081526020017f5361666545524332303a206c6f772d6c6576656c2063616c6c206661696c6564815250856001600160a01b0316613ec19092919063ffffffff16565b805190915015613cfa5780806020019051810190613c9b9190614adf565b613cfa5760405162461bcd60e51b815260206004820152602a60248201527f5361666545524332303a204552433230206f7065726174696f6e20646964206e6044820152691bdd081cdd58d8d9595960b21b6064820152608401610d9e565b505050565b600082600003613d1157506000610e58565b82613d1b83613ea9565b613c1e9086614e70565b60008263ffffffff168463ffffffff161015613d8f5760405162461bcd60e51b815260206004820152602360248201527f504d543a206379636c65206475726174696f6e203c206c6f616e20647572617460448201526234b7b760e91b6064820152608401610d9e565b8161ffff16600003613dbb57613db4858463ffffffff168663ffffffff166001613ed0565b9050613e54565b6000613dd38563ffffffff168563ffffffff16613f21565b9050670de0b6b3a76400006000613e076301e13380613e0163ffffffff8916613dfb89613f58565b90613f7c565b90613fb0565b90506000613e1f84613e198486614b49565b90613fe0565b90506000613e3182613dfb8c86613f7c565b90506000613e3f8584614bd9565b9050613e4b8282613fb0565b96505050505050505b949350505050565b6000818310613e6b5781610e58565b5090919050565b600054610100900460ff16613e995760405162461bcd60e51b8152600401610d9e90614e25565b6113c8613ea4612e1c565b612f8a565b6000613eb682600a614fcc565b610a98906064614e70565b6060610e558484600085613ff8565b600080613ede868686614129565b90506001836002811115613ef457613ef46145fa565b148015613f11575060008480613f0c57613f0c6149d0565b868809115b156138d3576138d0600182614b49565b60008215613f4f5781613f35600185614bd9565b613f3f9190614e9e565b613f4a906001614b49565b610e58565b50600092915050565b6000610a98612710613f7661ffff8516670de0b6b3a76400006141d8565b906141e4565b6000610e58670de0b6b3a7640000613f76613f9786866141d8565b613faa6002670de0b6b3a7640000614e9e565b906141f0565b600080613fbe600284614e9e565b9050613e5483613f76613fd987670de0b6b3a76400006141d8565b84906141f0565b6000610e588383670de0b6b3a7640000613f7c6141fc565b6060824710156140595760405162461bcd60e51b815260206004820152602660248201527f416464726573733a20696e73756666696369656e742062616c616e636520666f6044820152651c8818d85b1b60d21b6064820152608401610d9e565b6001600160a01b0385163b6140b05760405162461bcd60e51b815260206004820152601d60248201527f416464726573733a2063616c6c20746f206e6f6e2d636f6e74726163740000006044820152606401610d9e565b600080866001600160a01b031685876040516140cc9190614c82565b60006040518083038185875af1925050503d8060008114614109576040519150601f19603f3d011682016040523d82523d6000602084013e61410e565b606091505b509150915061411e828286614271565b979650505050505050565b600080806000198587098587029250828110838203039150508060000361416357838281614159576141596149d0565b0492505050610e58565b80841161416f57600080fd5b60008486880960026001871981018816978890046003810283188082028403028082028403028082028403028082028403028082028403029081029092039091026000889003889004909101858311909403939093029303949094049190911702949350505050565b6000610e588284614e70565b6000610e588284614e9e565b6000610e588284614b49565b6000614209600285614fd8565b6000036142165782614218565b845b9050614225600285614e9e565b93505b8315613e545761423c85868463ffffffff16565b9450614249600285614fd8565b1561425f5761425c81868463ffffffff16565b90505b61426a600285614e9e565b9350614228565b60608315614280575081610e58565b8251156142905782518084602001fd5b8160405162461bcd60e51b8152600401610d9e9190614513565b6001600160a01b0381168114611b4457600080fd5b80356123bc816142aa565b6000602082840312156142dc57600080fd5b8135610e58816142aa565b6020808252825182820181905260009190848201906040850190845b8181101561431f57835183529284019291840191600101614303565b50909695505050505050565b63ffffffff81168114611b4457600080fd5b61ffff81168114611b4457600080fd5b60008083601f84011261435f57600080fd5b50813567ffffffffffffffff81111561437757600080fd5b60208301915083602082850101111561438f57600080fd5b9250929050565b60008060008060008060008060e0898b0312156143b257600080fd5b88356143bd816142aa565b9750602089013596506040890135955060608901356143db8161432b565b945060808901356143eb8161433d565b935060a089013567ffffffffffffffff81111561440757600080fd5b6144138b828c0161434d565b90945092505060c0890135614427816142aa565b809150509295985092959890939650565b6000806040838503121561444b57600080fd5b8235614456816142aa565b91506020830135614466816142aa565b809150509250929050565b60006020828403121561448357600080fd5b5035919050565b6000806040838503121561449d57600080fd5b50508035926020909101359150565b815181526020808301519082015260408101610a98565b60005b838110156144de5781810151838201526020016144c6565b50506000910152565b600081518084526144ff8160208601602086016144c3565b601f01601f19169290920160200192915050565b602081526000610e5860208301846144e7565b6000806040838503121561453957600080fd5b823591506020830135614466816142aa565b60008060006060848603121561456057600080fd5b833592506020840135614572816142aa565b91506040840135614582816142aa565b809150509250925092565b6020808252825182820181905260009190848201906040850190845b8181101561431f5783516001600160a01b0316835292840192918401916001016145a9565b600080604083850312156145e157600080fd5b82356145ec816142aa565b946020939093013593505050565b634e487b7160e01b600052602160045260246000fd5b60068110614620576146206145fa565b9052565b60028110614620576146206145fa565b60006102408201905060018060a01b03808c168352808b166020840152808a1660408401528860608401528760808401528087511660a084015250602086015160c0830152604086015161469560e084018280518252602090810151910152565b50606086015163ffffffff9081166101208401526080870151811661014084015260a08701511661016083015260c08601516146da61018084018263ffffffff169052565b5084516101a0830152602085015163ffffffff166101c0830152604085015161ffff166101e0830152614711610200830185614610565b61471f610220830184614624565b9a9950505050505050505050565b6000806000806000806000806000806101008b8d03121561474d57600080fd5b8a35614758816142aa565b995060208b0135985060408b0135975060608b01356147768161432b565b965060808b01356147868161433d565b955060a08b013567ffffffffffffffff808211156147a357600080fd5b6147af8e838f0161434d565b909750955060c08d013591506147c4826142aa565b90935060e08c013590808211156147da57600080fd5b818d0191508d601f8301126147ee57600080fd5b8135818111156147fd57600080fd5b8e60208260071b850101111561481257600080fd5b6020830194508093505050509295989b9194979a5092959850565b600080600080600080600060c0888a03121561484857600080fd5b87356148538161433d565b96506020880135614863816142aa565b95506040880135614873816142aa565b94506060880135614883816142aa565b9350608088013567ffffffffffffffff808211156148a057600080fd5b818a0191508a601f8301126148b457600080fd5b8135818111156148c357600080fd5b8b60208260051b85010111156148d857600080fd5b6020830195508094505050506148f060a089016142bf565b905092959891949750929550565b60208101610a988284614610565b60006020828403121561491e57600080fd5b8135610e588161433d565b634e487b7160e01b600052601160045260246000fd5b63ffffffff818116838216019080821115613c0257613c02614929565b600181811c9082168061497057607f821691505b60208210810361499057634e487b7160e01b600052602260045260246000fd5b50919050565b6000602082840312156149a857600080fd5b8151610e58816142aa565b63ffffffff828116828216039080821115613c0257613c02614929565b634e487b7160e01b600052601260045260246000fd5b600063ffffffff808416806149fd576149fd6149d0565b92169190910492915050565b63ffffffff818116838216028082169190828114614a2957614a29614929565b505092915050565b60038110611b4457600080fd5b838152604060208083018290528282018490526000919060609081850187855b88811015614ac0578135614a7181614a31565b60038110614a8157614a816145fa565b83528184013584840152858201358684015284820135614aa0816142aa565b6001600160a01b0316838601526080928301929190910190600101614a5e565b50909998505050505050505050565b805180151581146123bc57600080fd5b600060208284031215614af157600080fd5b610e5882614acf565b828152606060208201526000614b1360608301846144e7565b8281036040938401526015815274131bd85b881b5d5cdd081899481858d8d95c1d1959605a1b6020820152919091019392505050565b80820180821115610a9857610a98614929565b6020808252602e908201527f496e697469616c697a61626c653a20636f6e747261637420697320616c72656160408201526d191e481a5b9a5d1a585b1a5e995960921b606082015260800190565b634e487b7160e01b600052603260045260246000fd5b600060018201614bd257614bd2614929565b5060010190565b81810381811115610a9857610a98614929565b828152606060208201526000614c0560608301846144e7565b8281036040938401526013815272426964206d7573742062652070656e64696e6760681b6020820152919091019392505050565b60008060408385031215614c4c57600080fd5b614c5583614acf565b9150602083015190509250929050565b600060208284031215614c7757600080fd5b8151610e588161433d565b60008251614c948184602087016144c3565b9190910192915050565b600060208284031215614cb057600080fd5b8151610e588161432b565b600060208284031215614ccd57600080fd5b815160028110610e5857600080fd5b634e487b7160e01b600052604160045260246000fd5b601f821115613cfa57600081815260208120601f850160051c81016020861015614d195750805b601f850160051c820191505b8181101561247457828155600101614d25565b67ffffffffffffffff831115614d5057614d50614cdc565b614d6483614d5e835461495c565b83614cf2565b6000601f841160018114614d985760008515614d805750838201355b600019600387901b1c1916600186901b178355611bf7565b600083815260209020601f19861690835b82811015614dc95786850135825560209485019460019092019101614da9565b5086821015614de65760001960f88860031b161c19848701351681555b505060018560011b0183555050505050565b8183823760009101908152919050565b600060208284031215614e1a57600080fd5b8151610e5881614a31565b6020808252602b908201527f496e697469616c697a61626c653a20636f6e7472616374206973206e6f74206960408201526a6e697469616c697a696e6760a81b606082015260800190565b8082028115828204841417610a9857610a98614929565b600081614e9657614e96614929565b506000190190565b600082614ead57614ead6149d0565b500490565b8181036000831280158383131683831282161715613c0257613c02614929565b634e487b7160e01b600052603160045260246000fd5b600181815b80851115614f23578160001904821115614f0957614f09614929565b80851615614f1657918102915b93841c9390800290614eed565b509250929050565b600082614f3a57506001610a98565b81614f4757506000610a98565b8160018114614f5d5760028114614f6757614f83565b6001915050610a98565b60ff841115614f7857614f78614929565b50506001821b610a98565b5060208310610133831016604e8410600b8410161715614fa6575081810a610a98565b614fb08383614ee8565b8060001904821115614fc457614fc4614929565b029392505050565b6000610e588383614f2b565b600082614fe757614fe76149d0565b50069056fea2646970667358221220893d96f6eb963821085d26d74b75606b55a441483380bd88e3015b434daeb80664736f6c63430008110033",
    "linkReferences": {}
  },
  "methodIdentifiers": {
    "CURRENT_CODE_VERSION()": "4148f94c",
    "_lenderVolumeFilled(address)": "b5d34fcd",
    "_totalVolumeFilled()": "1289b396",
    "addLendingToken(address)": "d76ac91f",
    "approveMarketForwarder(uint256,address)": "2e9332d4",
    "bidDefaultDuration(uint256)": "6b76c085",
    "bidExpirationTime(uint256)": "127caa88",
    "bidId()": "8ac47319",
    "bids(uint256)": "4423c5f1",
    "borrowerBids(address,uint256)": "3819bcdc",
    "calculateAmountDue(uint256)": "d974cc57",
    "calculateAmountDue(uint256,uint256)": "6aedfe68",
    "calculateAmountOwed(uint256)": "6c6ca79c",
    "calculateAmountOwed(uint256,uint256)": "1042b85f",
    "calculateNextDueDate(uint256)": "706a43c3",
    "cancelBid(uint256)": "9703ef35",
    "collateralManager()": "23be345c",
    "getBidState(uint256)": "bf77ffae",
    "getBorrowerActiveLoanIds(address)": "054de0ff",
    "getBorrowerLoanIds(address)": "1d123633",
    "getLendingTokens()": "235d5a7b",
    "getLoanBorrower(uint256)": "3ef0a2f7",
    "getLoanLender(uint256)": "a10905ea",
    "getLoanLendingToken(uint256)": "14573033",
    "getMetadataURI(uint256)": "bde644fb",
    "hasApprovedMarketForwarder(uint256,address,address)": "19b353de",
    "initialize(uint16,address,address,address,address[],address)": "837c0bf6",
    "isLoanDefaulted(uint256)": "e8cbab09",
    "isLoanExpired(uint256)": "10618223",
    "isPaymentLate(uint256)": "093f5617",
    "isTrustedForwarder(address)": "572b6c05",
    "isTrustedMarketForwarder(uint256,address)": "d87569cc",
    "lastRepaidTimestamp(uint256)": "a51e2bad",
    "lenderAcceptBid(uint256)": "a8cb5d68",
    "lenderCommitmentForwarder()": "ba6d5b15",
    "lenderVolumeFilled(address,address)": "089487b5",
    "liquidateLoanFull(uint256)": "8288da8a",
    "marketOwnerCancelBid(uint256)": "206c54c7",
    "marketRegistry()": "ecb96fe6",
    "owner()": "8da5cb5b",
    "pauseProtocol()": "dbf62489",
    "paused()": "5c975abb",
    "protocolFee()": "b0e21e8a",
    "removeLendingToken(address)": "a75021ba",
    "renounceOwnership()": "715018a6",
    "repayLoan(uint256,uint256)": "8a700b53",
    "repayLoanFull(uint256)": "9a11e339",
    "repayLoanMinimum(uint256)": "d4eda4cf",
    "reputationManager()": "6b868afb",
    "setCollateralManager(address)": "842a05d4",
    "setProtocolFee(uint16)": "e4467f35",
    "setReputationManager(address)": "56a837f4",
    "setTrustedMarketForwarder(uint256,address)": "1420a266",
    "submitBid(address,uint256,uint256,uint32,uint16,string,address)": "06f33a92",
    "submitBid(address,uint256,uint256,uint32,uint16,string,address,(uint8,uint256,uint256,address)[])": "7bbd53d7",
    "totalVolumeFilled(address)": "2519dc79",
    "transferOwnership(address)": "f2fde38b",
    "unpauseProtocol()": "f93b6be5",
    "uris(uint256)": "1253c546",
    "version()": "54fd4d50"
  },
  "id": 8
}