{
  "abi": [
    {
      "inputs": [
        {
          "internalType": "address",
          "name": "_tellerV2",
          "type": "address"
        },
        {
          "internalType": "contract WethMock",
          "name": "_wethMock",
          "type": "address"
        }
      ],
      "stateMutability": "nonpayable",
      "type": "constructor"
    },
    {
      "inputs": [
        {
          "internalType": "uint256",
          "name": "_bidId",
          "type": "uint256"
        }
      ],
      "name": "acceptBid",
      "outputs": [],
      "stateMutability": "nonpayable",
      "type": "function"
    },
    {
      "inputs": [
        {
          "internalType": "address",
          "name": "_assetContractAddress",
          "type": "address"
        },
        {
          "internalType": "address",
          "name": "_spender",
          "type": "address"
        },
        {
          "internalType": "uint256",
          "name": "_amount",
          "type": "uint256"
        }
      ],
      "name": "addAllowance",
      "outputs": [],
      "stateMutability": "nonpayable",
      "type": "function"
    },
    {
      "inputs": [
        {
          "internalType": "uint256",
          "name": "_marketId",
          "type": "uint256"
        },
        {
          "internalType": "address",
          "name": "_forwarder",
          "type": "address"
        }
      ],
      "name": "approveMarketForwarder",
      "outputs": [],
      "stateMutability": "nonpayable",
      "type": "function"
    },
    {
      "inputs": [
        {
          "internalType": "address",
          "name": "marketRegistry",
          "type": "address"
        },
        {
          "internalType": "uint32",
          "name": "_paymentCycleDuration",
          "type": "uint32"
        },
        {
          "internalType": "uint32",
          "name": "_paymentDefaultDuration",
          "type": "uint32"
        },
        {
          "internalType": "uint32",
          "name": "_bidExpirationTime",
          "type": "uint32"
        },
        {
          "internalType": "uint16",
          "name": "_feePercent",
          "type": "uint16"
        },
        {
          "internalType": "bool",
          "name": "_requireLenderAttestation",
          "type": "bool"
        },
        {
          "internalType": "bool",
          "name": "_requireBorrowerAttestation",
          "type": "bool"
        },
        {
          "internalType": "enum PaymentType",
          "name": "_paymentType",
          "type": "uint8"
        },
        {
          "internalType": "enum PaymentCycleType",
          "name": "_paymentCycleType",
          "type": "uint8"
        },
        {
          "internalType": "string",
          "name": "_uri",
          "type": "string"
        }
      ],
      "name": "createMarket",
      "outputs": [
        {
          "internalType": "uint256",
          "name": "",
          "type": "uint256"
        }
      ],
      "stateMutability": "nonpayable",
      "type": "function"
    },
    {
      "inputs": [
        {
          "internalType": "uint256",
          "name": "amount",
          "type": "uint256"
        }
      ],
      "name": "depositToWeth",
      "outputs": [],
      "stateMutability": "nonpayable",
      "type": "function"
    },
    {
      "inputs": [
        {
          "internalType": "uint256",
          "name": "_bidId",
          "type": "uint256"
        }
      ],
      "name": "repayLoanFull",
      "outputs": [],
      "stateMutability": "nonpayable",
      "type": "function"
    },
    {
      "inputs": [
        {
          "internalType": "uint256",
          "name": "_marketId",
          "type": "uint256"
        },
        {
          "internalType": "address",
          "name": "_forwarder",
          "type": "address"
        }
      ],
      "name": "setTrustedMarketForwarder",
      "outputs": [],
      "stateMutability": "nonpayable",
      "type": "function"
    },
    {
      "inputs": [
        {
          "internalType": "address",
          "name": "_lendingToken",
          "type": "address"
        },
        {
          "internalType": "uint256",
          "name": "_marketplaceId",
          "type": "uint256"
        },
        {
          "internalType": "uint256",
          "name": "_principal",
          "type": "uint256"
        },
        {
          "internalType": "uint32",
          "name": "_duration",
          "type": "uint32"
        },
        {
          "internalType": "uint16",
          "name": "_APR",
          "type": "uint16"
        },
        {
          "internalType": "string",
          "name": "_metadataURI",
          "type": "string"
        },
        {
          "internalType": "address",
          "name": "_receiver",
          "type": "address"
        }
      ],
      "name": "submitBid",
      "outputs": [
        {
          "internalType": "uint256",
          "name": "",
          "type": "uint256"
        }
      ],
      "stateMutability": "nonpayable",
      "type": "function"
    },
    {
      "inputs": [
        {
          "internalType": "address",
          "name": "_lendingToken",
          "type": "address"
        },
        {
          "internalType": "uint256",
          "name": "_marketplaceId",
          "type": "uint256"
        },
        {
          "internalType": "uint256",
          "name": "_principal",
          "type": "uint256"
        },
        {
          "internalType": "uint32",
          "name": "_duration",
          "type": "uint32"
        },
        {
          "internalType": "uint16",
          "name": "_APR",
          "type": "uint16"
        },
        {
          "internalType": "string",
          "name": "_metadataURI",
          "type": "string"
        },
        {
          "internalType": "address",
          "name": "_receiver",
          "type": "address"
        },
        {
          "components": [
            {
              "internalType": "enum CollateralType",
              "name": "_collateralType",
              "type": "uint8"
            },
            {
              "internalType": "uint256",
              "name": "_amount",
              "type": "uint256"
            },
            {
              "internalType": "uint256",
              "name": "_tokenId",
              "type": "uint256"
            },
            {
              "internalType": "address",
              "name": "_collateralAddress",
              "type": "address"
            }
          ],
          "internalType": "struct Collateral[]",
          "name": "_collateralInfo",
          "type": "tuple[]"
        }
      ],
      "name": "submitCollateralBid",
      "outputs": [
        {
          "internalType": "uint256",
          "name": "",
          "type": "uint256"
        }
      ],
      "stateMutability": "nonpayable",
      "type": "function"
    },
    {
      "inputs": [],
      "name": "tellerV2",
      "outputs": [
        {
          "internalType": "address",
          "name": "",
          "type": "address"
        }
      ],
      "stateMutability": "view",
      "type": "function"
    },
    {
      "inputs": [],
      "name": "wethMock",
      "outputs": [
        {
          "internalType": "contract WethMock",
          "name": "",
          "type": "address"
        }
      ],
      "stateMutability": "view",
      "type": "function"
    },
    {
      "stateMutability": "payable",
      "type": "receive"
    }
  ],
  "bytecode": {
    "object": "0x60c060405234801561001057600080fd5b50604051610e3b380380610e3b83398101604081905261002f9161005e565b6001600160a01b039182166080521660a052610098565b6001600160a01b038116811461005b57600080fd5b50565b6000806040838503121561007157600080fd5b825161007c81610046565b602084015190925061008d81610046565b809150509250929050565b60805160a051610d4d6100ee6000396000818161023f01526103100152600081816101d30152818161027b015281816103ab01528181610406015281816104a7015281816105f901526106a80152610d4d6000f3fe6080604052600436106100a05760003560e01c8063344e553d11610064578063344e553d146101615780635fd72d16146101815780637cf13b53146101a1578063941675db146101c15780639a11e3391461020d578063a79831641461022d57600080fd5b806306f33a92146100ac5780630903f2a9146100df5780631420a266146101015780632b1fd58a146101215780632e9332d41461014157600080fd5b366100a757005b600080fd5b3480156100b857600080fd5b506100cc6100c736600461079a565b610261565b6040519081526020015b60405180910390f35b3480156100eb57600080fd5b506100ff6100fa366004610833565b61030e565b005b34801561010d57600080fd5b506100ff61011c36600461084c565b610385565b34801561012d57600080fd5b506100ff61013c366004610833565b6103f0565b34801561014d57600080fd5b506100ff61015c36600461084c565b610481565b34801561016d57600080fd5b506100cc61017c366004610896565b6104d6565b34801561018d57600080fd5b506100ff61019c36600461097d565b61056c565b3480156101ad57600080fd5b506100cc6101bc3660046109b9565b6105df565b3480156101cd57600080fd5b506101f57f000000000000000000000000000000000000000000000000000000000000000081565b6040516001600160a01b0390911681526020016100d6565b34801561021957600080fd5b506100ff610228366004610833565b610692565b34801561023957600080fd5b506101f57f000000000000000000000000000000000000000000000000000000000000000081565b6040516303799d4960e11b81526000906001600160a01b037f000000000000000000000000000000000000000000000000000000000000000016906306f33a92906102be908c908c908c908c908c908c908c908c90600401610adb565b6020604051808303816000875af11580156102dd573d6000803e3d6000fd5b505050506040513d601f19601f820116820180604052508101906103019190610b38565b9998505050505050505050565b7f00000000000000000000000000000000000000000000000000000000000000006001600160a01b031663d0e30db0826040518263ffffffff1660e01b81526004016000604051808303818588803b15801561036957600080fd5b505af115801561037d573d6000803e3d6000fd5b505050505050565b604051630a10513360e11b8152600481018390526001600160a01b0382811660248301527f00000000000000000000000000000000000000000000000000000000000000001690631420a266906044015b600060405180830381600087803b15801561036957600080fd5b6040516315196bad60e31b8152600481018290527f00000000000000000000000000000000000000000000000000000000000000006001600160a01b03169063a8cb5d68906024016060604051808303816000875af1158015610457573d6000803e3d6000fd5b505050506040513d601f19601f8201168201806040525081019061047b9190610b51565b50505050565b604051630ba4ccb560e21b8152600481018390526001600160a01b0382811660248301527f00000000000000000000000000000000000000000000000000000000000000001690632e9332d4906044016103d6565b60405163344e553d60e01b81526000906001600160a01b038d169063344e553d906105199030908f908f908f908f908f908f908f908f908f908f90600401610b9d565b6020604051808303816000875af1158015610538573d6000803e3d6000fd5b505050506040513d601f19601f8201168201806040525081019061055c9190610b38565b9c9b505050505050505050505050565b60405163095ea7b360e01b81526001600160a01b0383811660048301526024820183905284169063095ea7b3906044016020604051808303816000875af11580156105bb573d6000803e3d6000fd5b505050506040513d601f19601f8201168201806040525081019061047b9190610c29565b604051637bbd53d760e01b81526000906001600160a01b037f00000000000000000000000000000000000000000000000000000000000000001690637bbd53d790610640908e908e908e908e908e908e908e908e908e908e90600401610c4d565b6020604051808303816000875af115801561065f573d6000803e3d6000fd5b505050506040513d601f19601f820116820180604052508101906106839190610b38565b9b9a5050505050505050505050565b604051639a11e33960e01b8152600481018290527f00000000000000000000000000000000000000000000000000000000000000006001600160a01b031690639a11e33990602401600060405180830381600087803b1580156106f457600080fd5b505af1158015610708573d6000803e3d6000fd5b5050505050565b80356001600160a01b038116811461072657600080fd5b919050565b803563ffffffff8116811461072657600080fd5b803561ffff8116811461072657600080fd5b60008083601f84011261076357600080fd5b50813567ffffffffffffffff81111561077b57600080fd5b60208301915083602082850101111561079357600080fd5b9250929050565b60008060008060008060008060e0898b0312156107b657600080fd5b6107bf8961070f565b975060208901359650604089013595506107db60608a0161072b565b94506107e960808a0161073f565b935060a089013567ffffffffffffffff81111561080557600080fd5b6108118b828c01610751565b9094509250610824905060c08a0161070f565b90509295985092959890939650565b60006020828403121561084557600080fd5b5035919050565b6000806040838503121561085f57600080fd5b8235915061086f6020840161070f565b90509250929050565b801515811461088657600080fd5b50565b6002811061088657600080fd5b60008060008060008060008060008060006101408c8e0312156108b857600080fd5b6108c18c61070f565b9a506108cf60208d0161072b565b99506108dd60408d0161072b565b98506108eb60608d0161072b565b97506108f960808d0161073f565b965060a08c013561090981610878565b955060c08c013561091981610878565b945060e08c013561092981610889565b93506101008c013561093a81610889565b92506101208c013567ffffffffffffffff81111561095757600080fd5b6109638e828f01610751565b915080935050809150509295989b509295989b9093969950565b60008060006060848603121561099257600080fd5b61099b8461070f565b92506109a96020850161070f565b9150604084013590509250925092565b6000806000806000806000806000806101008b8d0312156109d957600080fd5b6109e28b61070f565b995060208b0135985060408b013597506109fe60608c0161072b565b9650610a0c60808c0161073f565b955060a08b013567ffffffffffffffff80821115610a2957600080fd5b610a358e838f01610751565b9097509550859150610a4960c08e0161070f565b945060e08d0135915080821115610a5f57600080fd5b818d0191508d601f830112610a7357600080fd5b813581811115610a8257600080fd5b8e60208260071b8501011115610a9757600080fd5b6020830194508093505050509295989b9194979a5092959850565b81835281816020850137506000828201602090810191909152601f909101601f19169091010190565b600060018060a01b03808b16835289602084015288604084015263ffffffff8816606084015261ffff8716608084015260e060a0840152610b2060e084018688610ab2565b915080841660c0840152509998505050505050505050565b600060208284031215610b4a57600080fd5b5051919050565b600080600060608486031215610b6657600080fd5b8351925060208401519150604084015190509250925092565b6002811061088657634e487b7160e01b600052602160045260246000fd5b6001600160a01b038c16815263ffffffff8b811660208301528a811660408301528916606082015261ffff8816608082015286151560a082015285151560c08201526000610140610bed87610b7f565b8660e0840152610bfc86610b7f565b8561010084015280610120840152610c178184018587610ab2565b9e9d5050505050505050505050505050565b600060208284031215610c3b57600080fd5b8151610c4681610878565b9392505050565b600061010060018060a01b03808e16845260208d8186015260408d81870152606063ffffffff8e1681880152608061ffff8e16818901528560a0890152610c978689018d8f610ab2565b8b861660c08a015288810360e08a01528981528a965084016000805b8b811015610cfc57883560038110610cc9578283fd5b83528887013587840152858901358684015287610ce7868b0161070f565b16838601529783019791830191600101610cb3565b5050809750505050505050509b9a505050505050505050505056fea2646970667358221220eae5de93c6c56f37d9fbebae489b78acb0592e415e17459c2e2f68c678a06fe664736f6c63430008110033",
    "linkReferences": {}
  },
  "methodIdentifiers": {
    "acceptBid(uint256)": "2b1fd58a",
    "addAllowance(address,address,uint256)": "5fd72d16",
    "approveMarketForwarder(uint256,address)": "2e9332d4",
    "createMarket(address,uint32,uint32,uint32,uint16,bool,bool,uint8,uint8,string)": "344e553d",
    "depositToWeth(uint256)": "0903f2a9",
    "repayLoanFull(uint256)": "9a11e339",
    "setTrustedMarketForwarder(uint256,address)": "1420a266",
    "submitBid(address,uint256,uint256,uint32,uint16,string,address)": "06f33a92",
    "submitCollateralBid(address,uint256,uint256,uint32,uint16,string,address,(uint8,uint256,uint256,address)[])": "7cf13b53",
    "tellerV2()": "941675db",
    "wethMock()": "a7983164"
  },
  "id": 106
}