{
  "abi": [
    {
      "inputs": [
        {
          "internalType": "contract User",
          "name": "_marketOwner",
          "type": "address"
        }
      ],
      "stateMutability": "nonpayable",
      "type": "constructor"
    },
    {
      "inputs": [
        {
          "internalType": "uint256",
          "name": "",
          "type": "uint256"
        }
      ],
      "name": "getMarketOwner",
      "outputs": [
        {
          "internalType": "address",
          "name": "",
          "type": "address"
        }
      ],
      "stateMutability": "view",
      "type": "function"
    }
  ],
  "bytecode": {
    "object": "0x60a060405234801561001057600080fd5b5060405161014f38038061014f83398101604081905261002f91610040565b6001600160a01b0316608052610070565b60006020828403121561005257600080fd5b81516001600160a01b038116811461006957600080fd5b9392505050565b60805160c76100886000396000603b015260c76000f3fe6080604052348015600f57600080fd5b506004361060285760003560e01c80633d36902914602d575b600080fd5b605d60383660046079565b507f000000000000000000000000000000000000000000000000000000000000000090565b6040516001600160a01b03909116815260200160405180910390f35b600060208284031215608a57600080fd5b503591905056fea26469706673582212204495a493732adbd1fc87ef996dc4821497ab1a6d95e42d485a91c9d8bd9b49d764736f6c63430008110033",
    "linkReferences": {}
  },
  "methodIdentifiers": {
    "getMarketOwner(uint256)": "3d369029"
  },
  "id": 49
}