{
  "abi": [
    {
      "inputs": [
        {
          "internalType": "contract TellerV2Context",
          "name": "_context",
          "type": "address"
        }
      ],
      "stateMutability": "nonpayable",
      "type": "constructor"
    },
    {
      "inputs": [
        {
          "internalType": "uint256",
          "name": "_marketId",
          "type": "uint256"
        },
        {
          "internalType": "address",
          "name": "_forwarder",
          "type": "address"
        }
      ],
      "name": "approveMarketForwarder",
      "outputs": [],
      "stateMutability": "nonpayable",
      "type": "function"
    },
    {
      "inputs": [],
      "name": "context",
      "outputs": [
        {
          "internalType": "contract TellerV2Context",
          "name": "",
          "type": "address"
        }
      ],
      "stateMutability": "view",
      "type": "function"
    },
    {
      "inputs": [
        {
          "internalType": "uint256",
          "name": "_marketId",
          "type": "uint256"
        },
        {
          "internalType": "address",
          "name": "_forwarder",
          "type": "address"
        }
      ],
      "name": "setTrustedMarketForwarder",
      "outputs": [],
      "stateMutability": "nonpayable",
      "type": "function"
    }
  ],
  "bytecode": {
    "object": "0x60a060405234801561001057600080fd5b5060405161029638038061029683398101604081905261002f91610040565b6001600160a01b0316608052610070565b60006020828403121561005257600080fd5b81516001600160a01b038116811461006957600080fd5b9392505050565b6080516101ff6100976000396000818160730152818160d7015261015e01526101ff6000f3fe608060405234801561001057600080fd5b50600436106100415760003560e01c80631420a266146100465780632e9332d41461005b578063d0496d6a1461006e575b600080fd5b61005961005436600461018d565b6100b1565b005b61005961006936600461018d565b610138565b6100957f000000000000000000000000000000000000000000000000000000000000000081565b6040516001600160a01b03909116815260200160405180910390f35b604051630a10513360e11b8152600481018390526001600160a01b0382811660248301527f00000000000000000000000000000000000000000000000000000000000000001690631420a266906044015b600060405180830381600087803b15801561011c57600080fd5b505af1158015610130573d6000803e3d6000fd5b505050505050565b604051630ba4ccb560e21b8152600481018390526001600160a01b0382811660248301527f00000000000000000000000000000000000000000000000000000000000000001690632e9332d490604401610102565b600080604083850312156101a057600080fd5b8235915060208301356001600160a01b03811681146101be57600080fd5b80915050925092905056fea2646970667358221220946c730053659423c3a3f88cda6117a01d9bb9973dec524607046749a057facd64736f6c63430008110033",
    "linkReferences": {}
  },
  "methodIdentifiers": {
    "approveMarketForwarder(uint256,address)": "2e9332d4",
    "context()": "d0496d6a",
    "setTrustedMarketForwarder(uint256,address)": "1420a266"
  },
  "id": 90
}