{
  "abi": [
    {
      "inputs": [
        {
          "internalType": "address",
          "name": "_trustedForwarder",
          "type": "address"
        }
      ],
      "stateMutability": "nonpayable",
      "type": "constructor"
    },
    {
      "inputs": [
        {
          "internalType": "uint256",
          "name": "bidId",
          "type": "uint256"
        },
        {
          "internalType": "string",
          "name": "action",
          "type": "string"
        },
        {
          "internalType": "string",
          "name": "message",
          "type": "string"
        }
      ],
      "name": "ActionNotAllowed",
      "type": "error"
    },
    {
      "inputs": [
        {
          "internalType": "uint256",
          "name": "bidId",
          "type": "uint256"
        },
        {
          "internalType": "uint256",
          "name": "payment",
          "type": "uint256"
        },
        {
          "internalType": "uint256",
          "name": "minimumOwed",
          "type": "uint256"
        }
      ],
      "name": "PaymentNotMinimum",
      "type": "error"
    },
    {
      "anonymous": false,
      "inputs": [
        {
          "indexed": true,
          "internalType": "uint256",
          "name": "bidId",
          "type": "uint256"
        },
        {
          "indexed": true,
          "internalType": "address",
          "name": "lender",
          "type": "address"
        }
      ],
      "name": "AcceptedBid",
      "type": "event"
    },
    {
      "anonymous": false,
      "inputs": [
        {
          "indexed": true,
          "internalType": "uint256",
          "name": "bidId",
          "type": "uint256"
        }
      ],
      "name": "CancelledBid",
      "type": "event"
    },
    {
      "anonymous": false,
      "inputs": [
        {
          "indexed": true,
          "internalType": "uint256",
          "name": "bidId",
          "type": "uint256"
        },
        {
          "indexed": true,
          "internalType": "string",
          "name": "feeType",
          "type": "string"
        },
        {
          "indexed": true,
          "internalType": "uint256",
          "name": "amount",
          "type": "uint256"
        }
      ],
      "name": "FeePaid",
      "type": "event"
    },
    {
      "anonymous": false,
      "inputs": [
        {
          "indexed": false,
          "internalType": "uint8",
          "name": "version",
          "type": "uint8"
        }
      ],
      "name": "Initialized",
      "type": "event"
    },
    {
      "anonymous": false,
      "inputs": [
        {
          "indexed": true,
          "internalType": "uint256",
          "name": "bidId",
          "type": "uint256"
        },
        {
          "indexed": true,
          "internalType": "address",
          "name": "liquidator",
          "type": "address"
        }
      ],
      "name": "LoanLiquidated",
      "type": "event"
    },
    {
      "anonymous": false,
      "inputs": [
        {
          "indexed": true,
          "internalType": "uint256",
          "name": "bidId",
          "type": "uint256"
        }
      ],
      "name": "LoanRepaid",
      "type": "event"
    },
    {
      "anonymous": false,
      "inputs": [
        {
          "indexed": true,
          "internalType": "uint256",
          "name": "bidId",
          "type": "uint256"
        }
      ],
      "name": "LoanRepayment",
      "type": "event"
    },
    {
      "anonymous": false,
      "inputs": [
        {
          "indexed": true,
          "internalType": "uint256",
          "name": "marketId",
          "type": "uint256"
        },
        {
          "indexed": true,
          "internalType": "address",
          "name": "forwarder",
          "type": "address"
        },
        {
          "indexed": false,
          "internalType": "address",
          "name": "sender",
          "type": "address"
        }
      ],
      "name": "MarketForwarderApproved",
      "type": "event"
    },
    {
      "anonymous": false,
      "inputs": [
        {
          "indexed": true,
          "internalType": "uint256",
          "name": "bidId",
          "type": "uint256"
        }
      ],
      "name": "MarketOwnerCancelledBid",
      "type": "event"
    },
    {
      "anonymous": false,
      "inputs": [
        {
          "indexed": true,
          "internalType": "address",
          "name": "previousOwner",
          "type": "address"
        },
        {
          "indexed": true,
          "internalType": "address",
          "name": "newOwner",
          "type": "address"
        }
      ],
      "name": "OwnershipTransferred",
      "type": "event"
    },
    {
      "anonymous": false,
      "inputs": [
        {
          "indexed": false,
          "internalType": "address",
          "name": "account",
          "type": "address"
        }
      ],
      "name": "Paused",
      "type": "event"
    },
    {
      "anonymous": false,
      "inputs": [
        {
          "indexed": false,
          "internalType": "uint16",
          "name": "newFee",
          "type": "uint16"
        },
        {
          "indexed": false,
          "internalType": "uint16",
          "name": "oldFee",
          "type": "uint16"
        }
      ],
      "name": "ProtocolFeeSet",
      "type": "event"
    },
    {
      "anonymous": false,
      "inputs": [
        {
          "indexed": true,
          "internalType": "uint256",
          "name": "bidId",
          "type": "uint256"
        },
        {
          "indexed": true,
          "internalType": "address",
          "name": "borrower",
          "type": "address"
        },
        {
          "indexed": false,
          "internalType": "address",
          "name": "receiver",
          "type": "address"
        },
        {
          "indexed": true,
          "internalType": "bytes32",
          "name": "metadataURI",
          "type": "bytes32"
        }
      ],
      "name": "SubmittedBid",
      "type": "event"
    },
    {
      "anonymous": false,
      "inputs": [
        {
          "indexed": true,
          "internalType": "uint256",
          "name": "marketId",
          "type": "uint256"
        },
        {
          "indexed": false,
          "internalType": "address",
          "name": "forwarder",
          "type": "address"
        },
        {
          "indexed": false,
          "internalType": "address",
          "name": "sender",
          "type": "address"
        }
      ],
      "name": "TrustedMarketForwarderSet",
      "type": "event"
    },
    {
      "anonymous": false,
      "inputs": [
        {
          "indexed": false,
          "internalType": "address",
          "name": "account",
          "type": "address"
        }
      ],
      "name": "Unpaused",
      "type": "event"
    },
    {
      "inputs": [],
      "name": "CURRENT_CODE_VERSION",
      "outputs": [
        {
          "internalType": "uint8",
          "name": "",
          "type": "uint8"
        }
      ],
      "stateMutability": "view",
      "type": "function"
    },
    {
      "inputs": [
        {
          "internalType": "address",
          "name": "",
          "type": "address"
        }
      ],
      "name": "_lenderVolumeFilled",
      "outputs": [
        {
          "internalType": "uint256",
          "name": "",
          "type": "uint256"
        }
      ],
      "stateMutability": "view",
      "type": "function"
    },
    {
      "inputs": [],
      "name": "_totalVolumeFilled",
      "outputs": [
        {
          "internalType": "uint256",
          "name": "",
          "type": "uint256"
        }
      ],
      "stateMutability": "view",
      "type": "function"
    },
    {
      "inputs": [
        {
          "internalType": "address",
          "name": "_lendingToken",
          "type": "address"
        }
      ],
      "name": "addLendingToken",
      "outputs": [],
      "stateMutability": "nonpayable",
      "type": "function"
    },
    {
      "inputs": [
        {
          "internalType": "uint256",
          "name": "_marketId",
          "type": "uint256"
        },
        {
          "internalType": "address",
          "name": "_forwarder",
          "type": "address"
        }
      ],
      "name": "approveMarketForwarder",
      "outputs": [],
      "stateMutability": "nonpayable",
      "type": "function"
    },
    {
      "inputs": [
        {
          "internalType": "uint256",
          "name": "",
          "type": "uint256"
        }
      ],
      "name": "bidDefaultDuration",
      "outputs": [
        {
          "internalType": "uint32",
          "name": "",
          "type": "uint32"
        }
      ],
      "stateMutability": "view",
      "type": "function"
    },
    {
      "inputs": [
        {
          "internalType": "uint256",
          "name": "",
          "type": "uint256"
        }
      ],
      "name": "bidExpirationTime",
      "outputs": [
        {
          "internalType": "uint32",
          "name": "",
          "type": "uint32"
        }
      ],
      "stateMutability": "view",
      "type": "function"
    },
    {
      "inputs": [],
      "name": "bidId",
      "outputs": [
        {
          "internalType": "uint256",
          "name": "",
          "type": "uint256"
        }
      ],
      "stateMutability": "view",
      "type": "function"
    },
    {
      "inputs": [
        {
          "internalType": "uint256",
          "name": "",
          "type": "uint256"
        }
      ],
      "name": "bids",
      "outputs": [
        {
          "internalType": "address",
          "name": "borrower",
          "type": "address"
        },
        {
          "internalType": "address",
          "name": "receiver",
          "type": "address"
        },
        {
          "internalType": "address",
          "name": "lender",
          "type": "address"
        },
        {
          "internalType": "uint256",
          "name": "marketplaceId",
          "type": "uint256"
        },
        {
          "internalType": "bytes32",
          "name": "_metadataURI",
          "type": "bytes32"
        },
        {
          "components": [
            {
              "internalType": "contract ERC20",
              "name": "lendingToken",
              "type": "address"
            },
            {
              "internalType": "uint256",
              "name": "principal",
              "type": "uint256"
            },
            {
              "components": [
                {
                  "internalType": "uint256",
                  "name": "principal",
                  "type": "uint256"
                },
                {
                  "internalType": "uint256",
                  "name": "interest",
                  "type": "uint256"
                }
              ],
              "internalType": "struct Payment",
              "name": "totalRepaid",
              "type": "tuple"
            },
            {
              "internalType": "uint32",
              "name": "timestamp",
              "type": "uint32"
            },
            {
              "internalType": "uint32",
              "name": "acceptedTimestamp",
              "type": "uint32"
            },
            {
              "internalType": "uint32",
              "name": "lastRepaidTimestamp",
              "type": "uint32"
            },
            {
              "internalType": "uint32",
              "name": "loanDuration",
              "type": "uint32"
            }
          ],
          "internalType": "struct LoanDetails",
          "name": "loanDetails",
          "type": "tuple"
        },
        {
          "components": [
            {
              "internalType": "uint256",
              "name": "paymentCycleAmount",
              "type": "uint256"
            },
            {
              "internalType": "uint32",
              "name": "paymentCycle",
              "type": "uint32"
            },
            {
              "internalType": "uint16",
              "name": "APR",
              "type": "uint16"
            }
          ],
          "internalType": "struct Terms",
          "name": "terms",
          "type": "tuple"
        },
        {
          "internalType": "enum BidState",
          "name": "state",
          "type": "uint8"
        },
        {
          "internalType": "enum PaymentType",
          "name": "paymentType",
          "type": "uint8"
        }
      ],
      "stateMutability": "view",
      "type": "function"
    },
    {
      "inputs": [
        {
          "internalType": "address",
          "name": "",
          "type": "address"
        },
        {
          "internalType": "uint256",
          "name": "",
          "type": "uint256"
        }
      ],
      "name": "borrowerBids",
      "outputs": [
        {
          "internalType": "uint256",
          "name": "",
          "type": "uint256"
        }
      ],
      "stateMutability": "view",
      "type": "function"
    },
    {
      "inputs": [
        {
          "internalType": "uint256",
          "name": "_bidId",
          "type": "uint256"
        },
        {
          "internalType": "uint256",
          "name": "_timestamp",
          "type": "uint256"
        }
      ],
      "name": "calculateAmountDue",
      "outputs": [
        {
          "components": [
            {
              "internalType": "uint256",
              "name": "principal",
              "type": "uint256"
            },
            {
              "internalType": "uint256",
              "name": "interest",
              "type": "uint256"
            }
          ],
          "internalType": "struct Payment",
          "name": "due",
          "type": "tuple"
        }
      ],
      "stateMutability": "view",
      "type": "function"
    },
    {
      "inputs": [
        {
          "internalType": "uint256",
          "name": "_bidId",
          "type": "uint256"
        }
      ],
      "name": "calculateAmountDue",
      "outputs": [
        {
          "components": [
            {
              "internalType": "uint256",
              "name": "principal",
              "type": "uint256"
            },
            {
              "internalType": "uint256",
              "name": "interest",
              "type": "uint256"
            }
          ],
          "internalType": "struct Payment",
          "name": "due",
          "type": "tuple"
        }
      ],
      "stateMutability": "view",
      "type": "function"
    },
    {
      "inputs": [
        {
          "internalType": "uint256",
          "name": "_bidId",
          "type": "uint256"
        },
        {
          "internalType": "uint256",
          "name": "_timestamp",
          "type": "uint256"
        }
      ],
      "name": "calculateAmountOwed",
      "outputs": [
        {
          "components": [
            {
              "internalType": "uint256",
              "name": "principal",
              "type": "uint256"
            },
            {
              "internalType": "uint256",
              "name": "interest",
              "type": "uint256"
            }
          ],
          "internalType": "struct Payment",
          "name": "owed",
          "type": "tuple"
        }
      ],
      "stateMutability": "view",
      "type": "function"
    },
    {
      "inputs": [
        {
          "internalType": "uint256",
          "name": "_bidId",
          "type": "uint256"
        }
      ],
      "name": "calculateAmountOwed",
      "outputs": [
        {
          "components": [
            {
              "internalType": "uint256",
              "name": "principal",
              "type": "uint256"
            },
            {
              "internalType": "uint256",
              "name": "interest",
              "type": "uint256"
            }
          ],
          "internalType": "struct Payment",
          "name": "owed",
          "type": "tuple"
        }
      ],
      "stateMutability": "view",
      "type": "function"
    },
    {
      "inputs": [
        {
          "internalType": "uint256",
          "name": "_bidId",
          "type": "uint256"
        }
      ],
      "name": "calculateNextDueDate",
      "outputs": [
        {
          "internalType": "uint32",
          "name": "dueDate_",
          "type": "uint32"
        }
      ],
      "stateMutability": "view",
      "type": "function"
    },
    {
      "inputs": [
        {
          "internalType": "uint256",
          "name": "_bidId",
          "type": "uint256"
        }
      ],
      "name": "cancelBid",
      "outputs": [],
      "stateMutability": "nonpayable",
      "type": "function"
    },
    {
      "inputs": [],
      "name": "collateralManager",
      "outputs": [
        {
          "internalType": "contract ICollateralManager",
          "name": "",
          "type": "address"
        }
      ],
      "stateMutability": "view",
      "type": "function"
    },
    {
      "inputs": [
        {
          "internalType": "uint256",
          "name": "_bidId",
          "type": "uint256"
        }
      ],
      "name": "getBidState",
      "outputs": [
        {
          "internalType": "enum BidState",
          "name": "",
          "type": "uint8"
        }
      ],
      "stateMutability": "view",
      "type": "function"
    },
    {
      "inputs": [
        {
          "internalType": "address",
          "name": "_borrower",
          "type": "address"
        }
      ],
      "name": "getBorrowerActiveLoanIds",
      "outputs": [
        {
          "internalType": "uint256[]",
          "name": "",
          "type": "uint256[]"
        }
      ],
      "stateMutability": "view",
      "type": "function"
    },
    {
      "inputs": [
        {
          "internalType": "address",
          "name": "_borrower",
          "type": "address"
        }
      ],
      "name": "getBorrowerLoanIds",
      "outputs": [
        {
          "internalType": "uint256[]",
          "name": "",
          "type": "uint256[]"
        }
      ],
      "stateMutability": "view",
      "type": "function"
    },
    {
      "inputs": [],
      "name": "getLendingTokens",
      "outputs": [
        {
          "internalType": "address[]",
          "name": "",
          "type": "address[]"
        }
      ],
      "stateMutability": "view",
      "type": "function"
    },
    {
      "inputs": [
        {
          "internalType": "uint256",
          "name": "_bidId",
          "type": "uint256"
        }
      ],
      "name": "getLoanBorrower",
      "outputs": [
        {
          "internalType": "address",
          "name": "borrower_",
          "type": "address"
        }
      ],
      "stateMutability": "view",
      "type": "function"
    },
    {
      "inputs": [
        {
          "internalType": "uint256",
          "name": "_bidId",
          "type": "uint256"
        }
      ],
      "name": "getLoanLender",
      "outputs": [
        {
          "internalType": "address",
          "name": "lender_",
          "type": "address"
        }
      ],
      "stateMutability": "view",
      "type": "function"
    },
    {
      "inputs": [
        {
          "internalType": "uint256",
          "name": "_bidId",
          "type": "uint256"
        }
      ],
      "name": "getLoanLendingToken",
      "outputs": [
        {
          "internalType": "address",
          "name": "token_",
          "type": "address"
        }
      ],
      "stateMutability": "view",
      "type": "function"
    },
    {
      "inputs": [
        {
          "internalType": "uint256",
          "name": "_bidId",
          "type": "uint256"
        }
      ],
      "name": "getMetadataURI",
      "outputs": [
        {
          "internalType": "string",
          "name": "metadataURI_",
          "type": "string"
        }
      ],
      "stateMutability": "view",
      "type": "function"
    },
    {
      "inputs": [
        {
          "internalType": "uint256",
          "name": "_marketId",
          "type": "uint256"
        },
        {
          "internalType": "address",
          "name": "_forwarder",
          "type": "address"
        },
        {
          "internalType": "address",
          "name": "_account",
          "type": "address"
        }
      ],
      "name": "hasApprovedMarketForwarder",
      "outputs": [
        {
          "internalType": "bool",
          "name": "",
          "type": "bool"
        }
      ],
      "stateMutability": "view",
      "type": "function"
    },
    {
      "inputs": [
        {
          "internalType": "uint16",
          "name": "_protocolFee",
          "type": "uint16"
        },
        {
          "internalType": "address",
          "name": "_marketRegistry",
          "type": "address"
        },
        {
          "internalType": "address",
          "name": "_reputationManager",
          "type": "address"
        },
        {
          "internalType": "address",
          "name": "_lenderCommitmentForwarder",
          "type": "address"
        },
        {
          "internalType": "address[]",
          "name": "_lendingTokens",
          "type": "address[]"
        },
        {
          "internalType": "address",
          "name": "_collateralManagerAddress",
          "type": "address"
        }
      ],
      "name": "initialize",
      "outputs": [],
      "stateMutability": "nonpayable",
      "type": "function"
    },
    {
      "inputs": [
        {
          "internalType": "uint256",
          "name": "_bidId",
          "type": "uint256"
        }
      ],
      "name": "isLoanDefaulted",
      "outputs": [
        {
          "internalType": "bool",
          "name": "",
          "type": "bool"
        }
      ],
      "stateMutability": "view",
      "type": "function"
    },
    {
      "inputs": [
        {
          "internalType": "uint256",
          "name": "_bidId",
          "type": "uint256"
        }
      ],
      "name": "isLoanExpired",
      "outputs": [
        {
          "internalType": "bool",
          "name": "",
          "type": "bool"
        }
      ],
      "stateMutability": "view",
      "type": "function"
    },
    {
      "inputs": [
        {
          "internalType": "uint256",
          "name": "_bidId",
          "type": "uint256"
        }
      ],
      "name": "isPaymentLate",
      "outputs": [
        {
          "internalType": "bool",
          "name": "",
          "type": "bool"
        }
      ],
      "stateMutability": "view",
      "type": "function"
    },
    {
      "inputs": [
        {
          "internalType": "address",
          "name": "forwarder",
          "type": "address"
        }
      ],
      "name": "isTrustedForwarder",
      "outputs": [
        {
          "internalType": "bool",
          "name": "",
          "type": "bool"
        }
      ],
      "stateMutability": "view",
      "type": "function"
    },
    {
      "inputs": [
        {
          "internalType": "uint256",
          "name": "_marketId",
          "type": "uint256"
        },
        {
          "internalType": "address",
          "name": "_trustedMarketForwarder",
          "type": "address"
        }
      ],
      "name": "isTrustedMarketForwarder",
      "outputs": [
        {
          "internalType": "bool",
          "name": "",
          "type": "bool"
        }
      ],
      "stateMutability": "view",
      "type": "function"
    },
    {
      "inputs": [
        {
          "internalType": "uint256",
          "name": "_bidId",
          "type": "uint256"
        }
      ],
      "name": "lastRepaidTimestamp",
      "outputs": [
        {
          "internalType": "uint32",
          "name": "",
          "type": "uint32"
        }
      ],
      "stateMutability": "view",
      "type": "function"
    },
    {
      "inputs": [
        {
          "internalType": "uint256",
          "name": "_bidId",
          "type": "uint256"
        }
      ],
      "name": "lenderAcceptBid",
      "outputs": [
        {
          "internalType": "uint256",
          "name": "amountToProtocol",
          "type": "uint256"
        },
        {
          "internalType": "uint256",
          "name": "amountToMarketplace",
          "type": "uint256"
        },
        {
          "internalType": "uint256",
          "name": "amountToBorrower",
          "type": "uint256"
        }
      ],
      "stateMutability": "nonpayable",
      "type": "function"
    },
    {
      "inputs": [],
      "name": "lenderCommitmentForwarder",
      "outputs": [
        {
          "internalType": "address",
          "name": "",
          "type": "address"
        }
      ],
      "stateMutability": "view",
      "type": "function"
    },
    {
      "inputs": [
        {
          "internalType": "address",
          "name": "",
          "type": "address"
        },
        {
          "internalType": "address",
          "name": "",
          "type": "address"
        }
      ],
      "name": "lenderVolumeFilled",
      "outputs": [
        {
          "internalType": "uint256",
          "name": "",
          "type": "uint256"
        }
      ],
      "stateMutability": "view",
      "type": "function"
    },
    {
      "inputs": [
        {
          "internalType": "uint256",
          "name": "_bidId",
          "type": "uint256"
        }
      ],
      "name": "liquidateLoanFull",
      "outputs": [],
      "stateMutability": "nonpayable",
      "type": "function"
    },
    {
      "inputs": [
        {
          "internalType": "uint256",
          "name": "_bidId",
          "type": "uint256"
        }
      ],
      "name": "marketOwnerCancelBid",
      "outputs": [],
      "stateMutability": "nonpayable",
      "type": "function"
    },
    {
      "inputs": [],
      "name": "marketRegistry",
      "outputs": [
        {
          "internalType": "contract IMarketRegistry",
          "name": "",
          "type": "address"
        }
      ],
      "stateMutability": "view",
      "type": "function"
    },
    {
      "inputs": [],
      "name": "owner",
      "outputs": [
        {
          "internalType": "address",
          "name": "",
          "type": "address"
        }
      ],
      "stateMutability": "view",
      "type": "function"
    },
    {
      "inputs": [],
      "name": "pauseProtocol",
      "outputs": [],
      "stateMutability": "nonpayable",
      "type": "function"
    },
    {
      "inputs": [],
      "name": "paused",
      "outputs": [
        {
          "internalType": "bool",
          "name": "",
          "type": "bool"
        }
      ],
      "stateMutability": "view",
      "type": "function"
    },
    {
      "inputs": [],
      "name": "protocolFee",
      "outputs": [
        {
          "internalType": "uint16",
          "name": "",
          "type": "uint16"
        }
      ],
      "stateMutability": "view",
      "type": "function"
    },
    {
      "inputs": [
        {
          "internalType": "address",
          "name": "_lendingToken",
          "type": "address"
        }
      ],
      "name": "removeLendingToken",
      "outputs": [],
      "stateMutability": "nonpayable",
      "type": "function"
    },
    {
      "inputs": [],
      "name": "renounceOwnership",
      "outputs": [],
      "stateMutability": "nonpayable",
      "type": "function"
    },
    {
      "inputs": [
        {
          "internalType": "uint256",
          "name": "_bidId",
          "type": "uint256"
        },
        {
          "internalType": "uint256",
          "name": "_amount",
          "type": "uint256"
        }
      ],
      "name": "repayLoan",
      "outputs": [],
      "stateMutability": "nonpayable",
      "type": "function"
    },
    {
      "inputs": [
        {
          "internalType": "uint256",
          "name": "_bidId",
          "type": "uint256"
        }
      ],
      "name": "repayLoanFull",
      "outputs": [],
      "stateMutability": "nonpayable",
      "type": "function"
    },
    {
      "inputs": [
        {
          "internalType": "uint256",
          "name": "_bidId",
          "type": "uint256"
        }
      ],
      "name": "repayLoanMinimum",
      "outputs": [],
      "stateMutability": "nonpayable",
      "type": "function"
    },
    {
      "inputs": [],
      "name": "reputationManager",
      "outputs": [
        {
          "internalType": "contract IReputationManager",
          "name": "",
          "type": "address"
        }
      ],
      "stateMutability": "view",
      "type": "function"
    },
    {
      "inputs": [
        {
          "internalType": "address",
          "name": "_collateralManager",
          "type": "address"
        }
      ],
      "name": "setCollateralManager",
      "outputs": [],
      "stateMutability": "nonpayable",
      "type": "function"
    },
    {
      "inputs": [
        {
          "internalType": "address",
          "name": "_lenderCommitmentForwarder",
          "type": "address"
        }
      ],
      "name": "setLenderCommitmentForwarder",
      "outputs": [],
      "stateMutability": "nonpayable",
      "type": "function"
    },
    {
      "inputs": [
        {
          "internalType": "uint16",
          "name": "newFee",
          "type": "uint16"
        }
      ],
      "name": "setProtocolFee",
      "outputs": [],
      "stateMutability": "nonpayable",
      "type": "function"
    },
    {
      "inputs": [
        {
          "internalType": "address",
          "name": "_reputationManager",
          "type": "address"
        }
      ],
      "name": "setReputationManager",
      "outputs": [],
      "stateMutability": "nonpayable",
      "type": "function"
    },
    {
      "inputs": [
        {
          "internalType": "uint256",
          "name": "_marketId",
          "type": "uint256"
        },
        {
          "internalType": "address",
          "name": "_forwarder",
          "type": "address"
        }
      ],
      "name": "setTrustedMarketForwarder",
      "outputs": [],
      "stateMutability": "nonpayable",
      "type": "function"
    },
    {
      "inputs": [
        {
          "internalType": "address",
          "name": "_lendingToken",
          "type": "address"
        },
        {
          "internalType": "uint256",
          "name": "_marketplaceId",
          "type": "uint256"
        },
        {
          "internalType": "uint256",
          "name": "_principal",
          "type": "uint256"
        },
        {
          "internalType": "uint32",
          "name": "_duration",
          "type": "uint32"
        },
        {
          "internalType": "uint16",
          "name": "_APR",
          "type": "uint16"
        },
        {
          "internalType": "string",
          "name": "_metadataURI",
          "type": "string"
        },
        {
          "internalType": "address",
          "name": "_receiver",
          "type": "address"
        }
      ],
      "name": "submitBid",
      "outputs": [
        {
          "internalType": "uint256",
          "name": "bidId_",
          "type": "uint256"
        }
      ],
      "stateMutability": "nonpayable",
      "type": "function"
    },
    {
      "inputs": [
        {
          "internalType": "address",
          "name": "_lendingToken",
          "type": "address"
        },
        {
          "internalType": "uint256",
          "name": "_marketplaceId",
          "type": "uint256"
        },
        {
          "internalType": "uint256",
          "name": "_principal",
          "type": "uint256"
        },
        {
          "internalType": "uint32",
          "name": "_duration",
          "type": "uint32"
        },
        {
          "internalType": "uint16",
          "name": "_APR",
          "type": "uint16"
        },
        {
          "internalType": "string",
          "name": "_metadataURI",
          "type": "string"
        },
        {
          "internalType": "address",
          "name": "_receiver",
          "type": "address"
        },
        {
          "components": [
            {
              "internalType": "enum CollateralType",
              "name": "_collateralType",
              "type": "uint8"
            },
            {
              "internalType": "uint256",
              "name": "_amount",
              "type": "uint256"
            },
            {
              "internalType": "uint256",
              "name": "_tokenId",
              "type": "uint256"
            },
            {
              "internalType": "address",
              "name": "_collateralAddress",
              "type": "address"
            }
          ],
          "internalType": "struct Collateral[]",
          "name": "_collateralInfo",
          "type": "tuple[]"
        }
      ],
      "name": "submitBid",
      "outputs": [
        {
          "internalType": "uint256",
          "name": "bidId_",
          "type": "uint256"
        }
      ],
      "stateMutability": "nonpayable",
      "type": "function"
    },
    {
      "inputs": [
        {
          "internalType": "address",
          "name": "",
          "type": "address"
        }
      ],
      "name": "totalVolumeFilled",
      "outputs": [
        {
          "internalType": "uint256",
          "name": "",
          "type": "uint256"
        }
      ],
      "stateMutability": "view",
      "type": "function"
    },
    {
      "inputs": [
        {
          "internalType": "address",
          "name": "newOwner",
          "type": "address"
        }
      ],
      "name": "transferOwnership",
      "outputs": [],
      "stateMutability": "nonpayable",
      "type": "function"
    },
    {
      "inputs": [],
      "name": "unpauseProtocol",
      "outputs": [],
      "stateMutability": "nonpayable",
      "type": "function"
    },
    {
      "inputs": [
        {
          "internalType": "uint256",
          "name": "",
          "type": "uint256"
        }
      ],
      "name": "uris",
      "outputs": [
        {
          "internalType": "string",
          "name": "",
          "type": "string"
        }
      ],
      "stateMutability": "view",
      "type": "function"
    },
    {
      "inputs": [],
      "name": "version",
      "outputs": [
        {
          "internalType": "uint256",
          "name": "",
          "type": "uint256"
        }
      ],
      "stateMutability": "view",
      "type": "function"
    }
  ],
  "bytecode": {
    "object": "0x60a060405260006097553480156200001657600080fd5b50604051620051733803806200517383398101604081905262000039916200004b565b6001600160a01b03166080526200007d565b6000602082840312156200005e57600080fd5b81516001600160a01b03811681146200007657600080fd5b9392505050565b6080516150d3620000a0600039600081816107810152613a9101526150d36000f3fe608060405234801561001057600080fd5b50600436106103af5760003560e01c80636c6ca79c116101f4578063a8cb5d681161011a578063d87569cc116100ad578063e8cbab091161007c578063e8cbab0914610a51578063ecb96fe614610a64578063f2fde38b14610a77578063f93b6be514610a8a57600080fd5b8063d87569cc14610a10578063d974cc5714610a23578063dbf6248914610a36578063e4467f3514610a3e57600080fd5b8063bde644fb116100e9578063bde644fb146109a4578063bf77ffae146109b7578063d4eda4cf146109ea578063d76ac91f146109fd57600080fd5b8063a8cb5d681461092d578063b0e21e8a1461095b578063b5d34fcd14610971578063ba6d5b151461099157600080fd5b80638a700b53116101925780639a11e339116101615780639a11e339146108c8578063a10905ea146108db578063a51e2bad14610907578063a75021ba1461091a57600080fd5b80638a700b53146108885780638ac473191461089b5780638da5cb5b146108a45780639703ef35146108b557600080fd5b80637bbd53d7116101ce5780637bbd53d71461083c5780638288da8a1461084f578063837c0bf614610862578063842a05d41461087557600080fd5b80636c6ca79c1461080e578063706a43c314610821578063715018a61461083457600080fd5b8063235d5a7b116102d95780634423c5f1116102775780635c975abb116102465780635c975abb146107b15780636aedfe68146107c25780636b76c085146107d55780636b868afb146107fb57600080fd5b80634423c5f11461063957806354fd4d501461075557806356a837f41461075e578063572b6c051461077157600080fd5b80632e9332d4116102b35780632e9332d4146105d05780633819bcdc146105e35780633ef0a2f7146105f65780634148f94c1461061f57600080fd5b8063235d5a7b1461058857806323be345c1461059d5780632519dc79146105b057600080fd5b80631253c546116103515780631457303311610320578063145730331461050b57806319b353de1461054f5780631d12363314610562578063206c54c71461057557600080fd5b80631253c54614610494578063127caa88146104b45780631289b396146104ef5780631420a266146104f857600080fd5b8063089487b51161038d578063089487b514610413578063093f56171461043e5780631042b85f14610461578063106182231461048157600080fd5b8063054de0ff146103b457806306b2cd39146103dd57806306f33a92146103f2575b600080fd5b6103c76103c236600461437b565b610a92565b6040516103d49190614398565b60405180910390f35b6103f06103eb36600461437b565b610abc565b005b610405610400366004614447565b610b54565b6040519081526020016103d4565b6104056104213660046144e9565b60a360209081526000928352604080842090915290825290205481565b61045161044c366004614522565b610b7b565b60405190151581526020016103d4565b61047461046f36600461453b565b610bd0565b6040516103d4919061455d565b61045161048f366004614522565b610c55565b6104a76104a2366004614522565b610ced565b6040516103d491906145c4565b6104da6104c2366004614522565b60a26020526000908152604090205463ffffffff1681565b60405163ffffffff90911681526020016103d4565b610405609b5481565b6103f06105063660046145d7565b610d87565b610537610519366004614522565b6000908152609860205260409020600501546001600160a01b031690565b6040516001600160a01b0390911681526020016103d4565b61045161055d3660046145fc565b610ed1565b6103c761057036600461437b565b610f10565b6103f0610583366004614522565b610f7c565b6105906110e0565b6040516103d4919061463e565b60aa54610537906001600160a01b031681565b6104056105be36600461437b565b60a46020526000908152604090205481565b6103f06105de3660046145d7565b6110f1565b6104056105f136600461467f565b6111d4565b610537610604366004614522565b6000908152609860205260409020546001600160a01b031690565b610627600781565b60405160ff90911681526020016103d4565b610740610647366004614522565b60986020908152600091825260409182902080546001820154600283015460038401546004850154875160e08101895260058701546001600160a01b0390811682526006880154828a01528951808b018b52600789015481526008890154818b0152828b0152600988015463ffffffff808216606080860191909152600160201b80840483166080870152600160401b8404831660a0870152600160601b909304821660c08601528c519081018d52600a8b01548152600b8b01549182169b81019b909b520461ffff1699890199909952600c909601549488169793841696939092169490939192909160ff8082169161010090041689565b6040516103d4999897969594939291906146e5565b61040560a55481565b6103f061076c36600461437b565b611205565b61045161077f36600461437b565b7f00000000000000000000000000000000000000000000000000000000000000006001600160a01b0390811691161490565b60655462010000900460ff16610451565b6104746107d036600461453b565b61122f565b6104da6107e3366004614522565b60a16020526000908152604090205463ffffffff1681565b609f54610537906001600160a01b031681565b61047461081c366004614522565b6112b4565b6104da61082f366004614522565b611325565b6103f0611467565b61040561084a3660046147de565b61147b565b6103f061085d366004614522565b611587565b6103f06108703660046148de565b61175e565b6103f061088336600461437b565b611998565b6103f061089636600461453b565b611a41565b61040560975481565b6033546001600160a01b0316610537565b6103f06108c3366004614522565b611b43565b6103f06108d6366004614522565b611bf8565b6105376108e9366004614522565b6000908152609860205260409020600201546001600160a01b031690565b6104da610915366004614522565b611caf565b6103f061092836600461437b565b611cc6565b61094061093b366004614522565b611cdd565b604080519384526020840192909252908201526060016103d4565b60655460405161ffff90911681526020016103d4565b61040561097f36600461437b565b609a6020526000908152604090205481565b60a954610537906001600160a01b031681565b6104a76109b2366004614522565b61235b565b6109dd6109c5366004614522565b6000908152609860205260409020600c015460ff1690565b6040516103d491906149af565b6103f06109f8366004614522565b612472565b6103f0610a0b36600461437b565b61252d565b610451610a1e3660046145d7565b612597565b610474610a31366004614522565b6125d1565b6103f0612642565b6103f0610a4c3660046149bd565b61265a565b610451610a5f366004614522565b6126c0565b609e54610537906001600160a01b031681565b6103f0610a8536600461437b565b612751565b6103f06127c7565b6001600160a01b038116600090815260a060205260409020606090610ab6906127df565b92915050565b60a9546001600160a01b031615610b325760405162461bcd60e51b815260206004820152602f60248201527f54656c6c65723a206c656e64657220636f6d6d69746d656e7420666f7277617260448201526e19195c88185b1c9958591e481cd95d608a1b60648201526084015b60405180910390fd5b60a980546001600160a01b0319166001600160a01b0392909216919091179055565b6000610b5e6127ec565b610b6e8989898989898989612838565b9998505050505050505050565b600060036000838152609860205260409020600c015460ff166005811115610ba557610ba56146ab565b14610bb257506000919050565b610bbb82611325565b63ffffffff164263ffffffff16119050919050565b604080518082019091526000808252602082015260008381526098602052604090206003600c82015460ff166005811115610c0d57610c0d6146ab565b141580610c2b57506009810154600160201b900463ffffffff168311155b15610c365750610ab6565b600080610c438386612e4e565b91865250602085015250505092915050565b60008181526098602052604081206001600c82015460ff166005811115610c7e57610c7e6146ab565b14610c8c5750600092915050565b600083815260a2602052604081205463ffffffff169003610cb05750600092915050565b600083815260a260205260409020546009820154610cd79163ffffffff90811691166149f0565b63ffffffff164263ffffffff1611915050919050565b60a66020526000908152604090208054610d0690614a0d565b80601f0160208091040260200160405190810160405280929190818152602001828054610d3290614a0d565b8015610d7f5780601f10610d5457610100808354040283529160200191610d7f565b820191906000526020600020905b815481529060010190602001808311610d6257829003601f168201915b505050505081565b610d8f612ecd565b609e54604051633d36902960e01b8152600481018590526001600160a01b039283169290911690633d369029906024016020604051808303816000875af1158015610dde573d6000803e3d6000fd5b505050506040513d601f19601f82011682018060405250810190610e029190614a47565b6001600160a01b031614610e585760405162461bcd60e51b815260206004820152601f60248201527f43616c6c6572206d75737420626520746865206d61726b6574206f776e6572006044820152606401610b29565b600082815260a76020526040902080546001600160a01b0319166001600160a01b038316179055817fa593acf9edc343669c7fc50d2caa3911326adef438361f0fa911be85c9e296a482610eaa612ecd565b604080516001600160a01b0393841681529290911660208301520160405180910390a25050565b6000610edd8484612597565b8015610f0657506001600160a01b038316600090815260a860205260409020610f069083612ed7565b90505b9392505050565b6001600160a01b038116600090815260996020908152604091829020805483518184028101840190945280845260609392830182828015610f7057602002820191906000526020600020905b815481526020019060010190808311610f5c575b50505050509050919050565b609e5460008281526098602052604090819020600301549051633d36902960e01b81526001600160a01b0390921691633d36902991610fc19160040190815260200190565b6020604051808303816000875af1158015610fe0573d6000803e3d6000fd5b505050506040513d601f19601f820116820180604052508101906110049190614a47565b6001600160a01b0316611015612ecd565b6001600160a01b0316146110a9576040516347bc33cb60e11b8152600481018290526060602482015260146064820152731b585c9ad95d13dddb995c90d85b98d95b109a5960621b608482015260a06044820152602160a48201527f4f6e6c7920746865206d61726b6574206f776e65722063616e2063616e63656c60c4820152602160f81b60e482015261010401610b29565b6110b281612ef9565b60405181907ff3f271d754f5264e0d143bf9be577d6eba153b0d833bd3a127d7b1a280bb13f190600090a250565b60606110ec609c6127df565b905090565b6110fb8282612597565b6111575760405162461bcd60e51b815260206004820152602760248201527f466f72776172646572206d757374206265207472757374656420627920746865604482015266081b585c9ad95d60ca1b6064820152608401610b29565b611180611162612ecd565b6001600160a01b038316600090815260a86020526040902090612fad565b50806001600160a01b0316827f65d6b5305e8c0e58e88454a1aeecae0f55975222338b25abd0997b4d305056a16111b5612ecd565b6040516001600160a01b03909116815260200160405180910390a35050565b609960205281600052604060002081815481106111f057600080fd5b90600052602060002001600091509150505481565b61120d612fc2565b609f80546001600160a01b0319166001600160a01b0392909216919091179055565b604080518082018252600080825260208083018290528582526098905291909120600c81015460039060ff16600581111561126c5761126c6146ab565b14158061128a57506009810154600160201b900463ffffffff168311155b156112955750610ab6565b6000806112a28386612e4e565b90865260208601525050505092915050565b604080518082019091526000808252602082015260036000838152609860205260409020600c015460ff1660058111156112f0576112f06146ab565b146112fa57919050565b600082815260986020526040812081906113149042612e4e565b918552506020840152509092915050565b6000818152609860205260408120600c81015460039060ff16600581111561134f5761134f6146ab565b1461135a5750919050565b600b810154600982015461137e9163ffffffff90811691600160201b9004166149f0565b6009820154909250600090600160201b900463ffffffff1661139f85611caf565b6113a99190614a64565b905063ffffffff81161561140057600b8201546000906113cf9063ffffffff1683614a97565b6113da9060016149f0565b600b8401549091506113f29063ffffffff1682614aba565b6113fc90856149f0565b9350505b60098201546114259063ffffffff600160601b8204811691600160201b9004166149f0565b63ffffffff168363ffffffff16111561146057600982015461145d9063ffffffff600160601b8204811691600160201b9004166149f0565b92505b5050919050565b61146f612fc2565b611479600061303b565b565b60006114856127ec565b6114958b8b8b8b8b8b8b8b612838565b60aa54604051631532dc4560e01b81529192506000916001600160a01b0390911690631532dc45906114cf90859088908890600401614aef565b6020604051808303816000875af11580156114ee573d6000803e3d6000fd5b505050506040513d601f19601f820116820180604052508101906115129190614b90565b90506001811515146115785760405162461bcd60e51b815260206004820152602960248201527f436f6c6c61746572616c2062616c616e636520636f756c64206e6f74206265206044820152681d985b1a59185d195960ba1b6064820152608401610b29565b509a9950505050505050505050565b60408051808201909152600d81526c3634b8bab4b230ba32a637b0b760991b6020820152819060036000838152609860205260409020600c015460ff1660058111156115d5576115d56146ab565b146115f75781816040516347bc33cb60e11b8152600401610b29929190614bab565b611600836126c0565b61164c5760405162461bcd60e51b815260206004820152601760248201527f4c6f616e206d7573742062652064656661756c7465642e0000000000000000006044820152606401610b29565b600083815260986020526040812090806116668342612e4e565b92505091506116978660405180604001604052808581526020018481525083856116909190614bfa565b600061308d565b600c8301805460ff1916600517905560038301546000906116b79061334f565b60aa5460405163f0472c4960e01b8152600481018a90526001600160a01b03808416602483015292935091169063f0472c4990604401600060405180830381600087803b15801561170757600080fd5b505af115801561171b573d6000803e3d6000fd5b50506040516001600160a01b03841692508991507f73de9acc561f27528ab0a3b5dd63fefb4e59f95575891299a6f862a78779817690600090a350505050505050565b600054610100900460ff161580801561177e5750600054600160ff909116105b806117985750303b158015611798575060005460ff166001145b6117b45760405162461bcd60e51b8152600401610b2990614c0d565b6000805460ff1916600117905580156117d7576000805461ff0019166101001790555b6117e0886133fa565b6117e8613432565b60a980546001600160a01b038088166001600160a01b031992831617909255609e80548a8416908316179055609f80549289169290911691909117905561182e82613461565b8261187b5760405162461bcd60e51b815260206004820152601b60248201527f4e6f206c656e64696e6720746f6b656e732073706563696669656400000000006044820152606401610b29565b60005b83811015611947576118bf85858381811061189b5761189b614c5b565b90506020020160208101906118b0919061437b565b6001600160a01b03163b151590565b61190b5760405162461bcd60e51b815260206004820152601a60248201527f6c656e64696e6720746f6b656e206e6f7420636f6e74726163740000000000006044820152606401610b29565b61193585858381811061192057611920614c5b565b9050602002016020810190610a0b919061437b565b8061193f81614c71565b91505061187e565b50801561198e576000805461ff0019169055604051600181527f7f26b83ff96e1f2b6a682f133852f6798a09c465da95921460cefb38474024989060200160405180910390a15b5050505050505050565b600054600790610100900460ff161580156119ba575060005460ff8083169116105b6119d65760405162461bcd60e51b8152600401610b2990614c0d565b6000805461ffff191660ff8316176101001790556119f2612fc2565b6119fb82613461565b6000805461ff001916905560405160ff821681527f7f26b83ff96e1f2b6a682f133852f6798a09c465da95921460cefb3847402498906020015b60405180910390a15050565b6040805180820190915260098152683932b830bca637b0b760b91b6020820152829060036000838152609860205260409020600c015460ff166005811115611a8b57611a8b6146ab565b14611aad5781816040516347bc33cb60e11b8152600401610b29929190614bab565b600084815260986020526040812081908190611ac99042612e4e565b919450925090506000611adc8284614bfa565b905080871015611b0f5760405162dd9d0f60e61b8152600481018990526024810188905260448101829052606401610b29565b61198e886040518060400160405280858b611b2a9190614c8a565b8152602001859052611b3c8588614bfa565b600161308d565b600081815260986020526040902080546003909101546001600160a01b0390911690611b6e9061334f565b6001600160a01b031614611bec576040516347bc33cb60e11b81526004810182905260606024820152600960648201526818d85b98d95b109a5960ba1b608482015260a06044820152601e60a48201527f4f6e6c792074686520626964206f776e65722063616e2063616e63656c21000060c482015260e401610b29565b611bf581612ef9565b50565b6040805180820190915260098152683932b830bca637b0b760b91b6020820152819060036000838152609860205260409020600c015460ff166005811115611c4257611c426146ab565b14611c645781816040516347bc33cb60e11b8152600401610b29929190614bab565b60008381526098602052604081208190611c7e9042612e4e565b9250509150611ca8856040518060400160405280858152602001848152508385611b3c9190614bfa565b5050505050565b6000818152609860205260408120610ab690613568565b611cce612fc2565b611cd9609c826135ae565b5050565b6000806000836040518060400160405280600f81526020016e1b195b99195c9058d8d95c1d109a59608a1b81525060016005811115611d1e57611d1e6146ab565b6000838152609860205260409020600c015460ff166005811115611d4457611d446146ab565b14611d665781816040516347bc33cb60e11b8152600401610b29929190614c9d565b611d6e6127ec565b60008681526098602052604081206003810154909190611d8d9061334f565b609e546003840154604051633ef19a9b60e01b815260048101919091526001600160a01b03808416602483015292935060009290911690633ef19a9b9060440160408051808303816000875af1158015611deb573d6000803e3d6000fd5b505050506040513d601f19601f82011682018060405250810190611e0f9190614cea565b50905080611e555760405162461bcd60e51b81526020600482015260136024820152722737ba103b32b934b334b2b2103632b73232b960691b6044820152606401610b29565b609e546003840154604051631cc672df60e01b81526001600160a01b0390921691631cc672df91611e8c9160040190815260200190565b6020604051808303816000875af1158015611eab573d6000803e3d6000fd5b505050506040513d601f19601f82011682018060405250810190611ecf9190614b90565b15611f0f5760405162461bcd60e51b815260206004820152601060248201526f13585c9ad95d081a5cc818db1bdcd95960821b6044820152606401610b29565b611f1889610c55565b15611f575760405162461bcd60e51b815260206004820152600f60248201526e109a59081a185cc8195e1c1a5c9959608a1b6044820152606401610b29565b6009830180546bffffffffffffffff000000001916600160201b4263ffffffff1690810263ffffffff60401b191691909117600160401b91909102179055600c830180546003919060ff191660018302179055506002830180546001600160a01b0319166001600160a01b038481169190911790915560aa546040516346f0b08b60e11b8152600481018c9052911690638de1611690602401600060405180830381600087803b15801561200a57600080fd5b505af115801561201e573d6000803e3d6000fd5b5050505061203d61203260655461ffff1690565b6006850154906135c3565b609e54600385015460405163028ba63960e21b8152929a506120be926001600160a01b0390921691630a2e98e49161207b9160040190815260200190565b6020604051808303816000875af115801561209a573d6000803e3d6000fd5b505050506040513d601f19601f820116820180604052508101906120329190614d16565b9650868884600501600101546120d49190614c8a565b6120de9190614c8a565b600284015490965061211b906001600160a01b03166121056033546001600160a01b031690565b60058601546001600160a01b031691908b6135d5565b6002830154609e5460038501546040516332209bcb60e11b815260048101919091526121b1926001600160a01b039081169216906364413796906024016020604051808303816000875af1158015612177573d6000803e3d6000fd5b505050506040513d601f19601f8201168201806040525081019061219b9190614a47565b60058601546001600160a01b031691908a6135d5565b6002830154600184015460058501546121db926001600160a01b03918216929082169116896135d5565b600683015460058401546001600160a01b03908116600090815260a360209081526040808320600289015490941683529290529081208054909190612221908490614bfa565b9091555050600683015460058401546001600160a01b0316600090815260a4602052604081208054909190612257908490614bfa565b909155505082546001600160a01b0316600090815260a06020526040902061227f908a613635565b5060028301546040516001600160a01b03909116908a907fde9d3bfa8771df6761c0afac2375c88c70a3aa30478e1bd15363294033b470ed90600090a3604051671c1c9bdd1bd8dbdb60c21b81528890600801604051908190038120908b907f476a21a61ac4a7da250e040733aa10facd2eeee584b2c009d178c3de3d8a12dc90600090a46040516a6d61726b6574706c61636560a81b81528790600b01604051908190038120908b907f476a21a61ac4a7da250e040733aa10facd2eeee584b2c009d178c3de3d8a12dc90600090a450505050509193909250565b600081815260a66020526040902080546060919061237890614a0d565b80601f01602080910402602001604051908101604052809291908181526020018280546123a490614a0d565b80156123f15780601f106123c6576101008083540402835291602001916123f1565b820191906000526020600020905b8154815290600101906020018083116123d457829003601f168201915b50505050509050806040516020016124099190614d33565b604051602081830303815290604052805190602001207fc5d2460186f7233c927e7db2dcc703c0e500b653ca82273b7bfad8045d85a47060001b0361246d5760008281526098602090815260409091206004015490612469908290613641565b9150505b919050565b6040805180820190915260098152683932b830bca637b0b760b91b6020820152819060036000838152609860205260409020600c015460ff1660058111156124bc576124bc6146ab565b146124de5781816040516347bc33cb60e11b8152600401610b29929190614bab565b6000838152609860205260408120819081906124fa9042612e4e565b925092509250612525866040518060400160405280858152602001848152508386611b3c9190614bfa565b505050505050565b612535612fc2565b6001600160a01b0381163b61258c5760405162461bcd60e51b815260206004820152601f60248201527f496e636f7272656374206c656e64696e6720746f6b656e2061646472657373006044820152606401610b29565b611cd9609c82612fad565b600082815260a760205260408120546001600160a01b0383811691161480610f0957505060a9546001600160a01b03908116911614919050565b604080518082019091526000808252602082015260036000838152609860205260409020600c015460ff16600581111561260d5761260d6146ab565b1461261757919050565b600082815260986020526040812081906126319042612e4e565b908552602085015250919392505050565b61264a612fc2565b6126526127ec565b6114796137dd565b612662612fc2565b60655461ffff828116911614611bf5576065805461ffff83811661ffff198316811790935560408051938452911660208301819052917f4810ece076cee6c6042808956f3f65dad1bc72b75181341d7bed810d39deda0f9101611a35565b60008181526098602052604081206003600c82015460ff1660058111156126e9576126e96146ab565b146126f75750600092915050565b600083815260a1602052604081205463ffffffff16900361271b5750600092915050565b600083815260a1602052604090205463ffffffff1661273984611caf565b6127439042614a64565b63ffffffff16119392505050565b612759612fc2565b6001600160a01b0381166127be5760405162461bcd60e51b815260206004820152602660248201527f4f776e61626c653a206e6577206f776e657220697320746865207a65726f206160448201526564647265737360d01b6064820152608401610b29565b611bf58161303b565b6127cf612fc2565b6127d761383c565b61147961388b565b60606000610f09836138c8565b60655462010000900460ff16156114795760405162461bcd60e51b815260206004820152601060248201526f14185d5cd8589b194e881c185d5cd95960821b6044820152606401610b29565b6000806128448961334f565b609e5460405163066e751360e01b8152600481018c90526001600160a01b0380841660248301529293506000929091169063066e75139060440160408051808303816000875af115801561289c573d6000803e3d6000fd5b505050506040513d601f19601f820116820180604052508101906128c09190614cea565b509050806129085760405162461bcd60e51b81526020600482015260156024820152742737ba103b32b934b334b2b2103137b93937bbb2b960591b6044820152606401610b29565b609e54604051631cc672df60e01b8152600481018c90526001600160a01b0390911690631cc672df906024016020604051808303816000875af1158015612953573d6000803e3d6000fd5b505050506040513d601f19601f820116820180604052508101906129779190614b90565b156129b75760405162461bcd60e51b815260206004820152601060248201526f13585c9ad95d081a5cc818db1bdcd95960821b6044820152606401610b29565b6129c2609c8c612ed7565b612a0e5760405162461bcd60e51b815260206004820152601c60248201527f4c656e64696e6720746f6b656e206e6f7420617574686f72697a6564000000006044820152606401610b29565b609754600081815260986020526040902080546001600160a01b0319166001600160a01b03858116919091178255919450908516612a565780546001600160a01b0316612a58565b845b6001820180546001600160a01b03199081166001600160a01b0393841617909155600383018d90556005830180549091168e8316179055600682018b90556009820180546fffffffff0000000000000000ffffffff1916600160601b63ffffffff8d81169190910263ffffffff1916919091174291909116179055609e5460405163805deb5360e01b8152600481018e905291169063805deb53906024016020604051808303816000875af1158015612b15573d6000803e3d6000fd5b505050506040513d601f19601f82011682018060405250810190612b399190614d4f565b600b8201805463ffffffff9290921665ffffffffffff1990921691909117600160201b61ffff8b1602179055609e546040516311bed5bb60e01b8152600481018d90526001600160a01b03909116906311bed5bb906024016020604051808303816000875af1158015612bb0573d6000803e3d6000fd5b505050506040513d601f19601f82011682018060405250810190612bd49190614d4f565b609754600090815260a1602052604090819020805463ffffffff191663ffffffff9390931692909217909155609e54905163082fc54d60e01b8152600481018d90526001600160a01b039091169063082fc54d906024016020604051808303816000875af1158015612c4a573d6000803e3d6000fd5b505050506040513d601f19601f82011682018060405250810190612c6e9190614d4f565b609754600090815260a2602052604090819020805463ffffffff191663ffffffff9390931692909217909155609e54905163d6e794dd60e01b8152600481018d90526001600160a01b039091169063d6e794dd90602401602060405180830381865afa158015612ce2573d6000803e3d6000fd5b505050506040513d601f19601f82011682018060405250810190612d069190614d6c565b600c8201805461ff001916610100836001811115612d2657612d266146ab565b0217905550600c810154600b820154612d5291610100900460ff16908c908c9063ffffffff168c613922565b600a820155609754600090815260a660205260409020612d73878983614de9565b50600c8101805460ff19166001179055604051612d969088908890602001614ea9565b60408051808303601f19018152908290528051602091820120835460975460018601546001600160a01b0390811686529294929091169290917ff887b1f393f43fb94c5d50483df4bd410ffbf286128c5f24ff56c580ac7f731c910160405180910390a480546001600160a01b03166000908152609960209081526040822060978054825460018101845592855292842090910191909155805491612e3a83614c71565b919050555050505098975050505050505050565b60068201546007830154600b840154600a85015460009384938493612ec09361ffff600160201b8304169163ffffffff16612e888b613568565b60098c0154600c8d015463ffffffff928316928d92600160201b8104821692600160601b90910490911690610100900460ff1661398d565b9250925092509250925092565b60006110ec613a8d565b6001600160a01b03811660009081526001830160205260408120541515610f09565b60408051808201909152600981526818d85b98d95b109a5960ba1b6020820152819060016000838152609860205260409020600c015460ff166005811115612f4357612f436146ab565b14612f655781816040516347bc33cb60e11b8152600401610b29929190614c9d565b600083815260986020526040808220600c01805460ff191660021790555184917fa0633b09ac3029a6746aa27d4db1407f5f287a10c41a6b2ad2859f4da9b2680b91a2505050565b6000610f09836001600160a01b038416613ad1565b612fca612ecd565b6001600160a01b0316612fe56033546001600160a01b031690565b6001600160a01b0316146114795760405162461bcd60e51b815260206004820181905260248201527f4f776e61626c653a2063616c6c6572206973206e6f7420746865206f776e65726044820152606401610b29565b603380546001600160a01b038381166001600160a01b0319831681179093556040519116919082907f8be0079c531659141344cd1fd0a4f28419497f9722a3daafe3b4186f6b6457e090600090a35050565b600084815260986020908152604082209085015185519192916130b09190614bfa565b609f54835460405163c7312e4760e01b81526001600160a01b039182166004820152602481018a905292935060009291169063c7312e47906044016020604051808303816000875af115801561310a573d6000803e3d6000fd5b505050506040513d601f19601f8201168201806040525081019061312e9190614eb9565b905084821061320257600c8301805460ff1916600417905582546001600160a01b0316600090815260a06020526040902085925061316c9088613b20565b5083156131d25760aa54604051632e1a7d4d60e01b8152600481018990526001600160a01b0390911690632e1a7d4d90602401600060405180830381600087803b1580156131b957600080fd5b505af11580156131cd573d6000803e3d6000fd5b505050505b60405187907f9a7851747cd7ffb3fe0a32caf3da48b31f27cebe131267051640f8b72fc4718690600090a261322e565b60405187907f68ca97895fe2d09eab47e752271728ade667e72dda27e68c20eaa191a9c2187d90600090a25b61325c61323e846003015461334f565b600285015460058601546001600160a01b03908116929116856135d5565b8551600784018054600090613272908490614bfa565b90915550506020860151600884018054600090613290908490614bfa565b909155505060098301805463ffffffff60401b1916600160401b4263ffffffff160217905560008160028111156132c9576132c96146ab565b1461334657609f54835460405163c7312e4760e01b81526001600160a01b039182166004820152602481018a905291169063c7312e47906044016020604051808303816000875af1158015613322573d6000803e3d6000fd5b505050506040513d601f19601f8201168201806040525081019061198e9190614eb9565b50505050505050565b600061335d82610a1e612ecd565b156133f25760131936013560601c61339a8160a8600061337b612ecd565b6001600160a01b03168152602081019190915260400160002090612ed7565b610ab65760405162461bcd60e51b8152602060048201526024808201527f53656e646572206d75737420617070726f7665206d61726b657420666f727761604482015263393232b960e11b6064820152608401610b29565b610ab6612ecd565b600054610100900460ff166134215760405162461bcd60e51b8152600401610b2990614ed6565b613429613b2c565b611bf581613b5b565b600054610100900460ff166134595760405162461bcd60e51b8152600401610b2990614ed6565b611479613b8b565b600054610100900460ff166134885760405162461bcd60e51b8152600401610b2990614ed6565b60aa546001600160a01b0316156134e15760405162461bcd60e51b815260206004820152601e60248201527f436f6c6c61746572616c204d616e6167657220616c72656164792073657400006044820152606401610b29565b6001600160a01b0381163b6135465760405162461bcd60e51b815260206004820152602560248201527f436f6c6c61746572616c204d616e61676572206d757374206265206120636f6e6044820152641d1c9858dd60da1b6064820152608401610b29565b60aa80546001600160a01b0319166001600160a01b0392909216919091179055565b6009810154600090600160401b900463ffffffff1615613599576009820154600160401b900463ffffffff16610ab6565b5060090154600160201b900463ffffffff1690565b6000610f09836001600160a01b038416613bc0565b6000610f09838361ffff166002613cba565b604080516001600160a01b0385811660248301528416604482015260648082018490528251808303909101815260849091019091526020810180516001600160e01b03166323b872dd60e01b17905261362f908590613cd9565b50505050565b6000610f098383613ad1565b60606000613650836002614f21565b61365b906002614bfa565b67ffffffffffffffff81111561367357613673614d8d565b6040519080825280601f01601f19166020018201604052801561369d576020820181803683370190505b509050600360fc1b816000815181106136b8576136b8614c5b565b60200101906001600160f81b031916908160001a905350600f60fb1b816001815181106136e7576136e7614c5b565b60200101906001600160f81b031916908160001a905350600061370b846002614f21565b613716906001614bfa565b90505b600181111561378e576f181899199a1a9b1b9c1cb0b131b232b360811b85600f166010811061374a5761374a614c5b565b1a60f81b82828151811061376057613760614c5b565b60200101906001600160f81b031916908160001a90535060049490941c9361378781614f38565b9050613719565b508315610f095760405162461bcd60e51b815260206004820181905260248201527f537472696e67733a20686578206c656e67746820696e73756666696369656e746044820152606401610b29565b6137e56127ec565b6065805462ff00001916620100001790557f62e78cea01bee320cd4e420270b5ea74000d11b0c9f74754ebdbfc544b05a25861381f612ecd565b6040516001600160a01b03909116815260200160405180910390a1565b60655462010000900460ff166114795760405162461bcd60e51b815260206004820152601460248201527314185d5cd8589b194e881b9bdd081c185d5cd95960621b6044820152606401610b29565b61389361383c565b6065805462ff0000191690557f5db9ee0a495bf2e6ff9c91a7834c1ba4fdd244a5e8aa4e537bd38aeae4b073aa61381f612ecd565b606081600001805480602002602001604051908101604052809291908181526020018280548015610f705760200282019190600052602060002090815481526020019060010190808311610f5c5750505050509050919050565b60006001866001811115613938576139386146ab565b036139755761396e61395b63ffffffff808616906301e1338090600a90613db016565b600a61396788866135c3565b9190613cba565b9050613984565b61398185858585613dd6565b90505b95945050505050565b6000808061399b8c8e614c8a565b925060006139a9848d6135c3565b905060006139b78a8a614c8a565b90506301e133806139c88284614f21565b6139d29190614f4f565b925060006139e0898b614f63565b6139ea9089614f63565b905060008c821280613a0557508d613a028689614bfa565b11155b90506001886001811115613a1b57613a1b6146ab565b03613a2f578015613a2a578695505b613a79565b600081613a3c578e613a46565b613a468689614bfa565b905060008e613a558684614f21565b613a5f9190614f4f565b9050613a74613a6e8883614c8a565b8a613f0d565b975050505b505050509a509a509a975050505050505050565b60007f00000000000000000000000000000000000000000000000000000000000000006001600160a01b03163303613acc575060131936013560601c90565b503390565b6000818152600183016020526040812054613b1857508154600181810184556000848152602080822090930184905584548482528286019093526040902091909155610ab6565b506000610ab6565b6000610f098383613bc0565b600054610100900460ff16613b535760405162461bcd60e51b8152600401610b2990614ed6565b611479613f23565b600054610100900460ff16613b825760405162461bcd60e51b8152600401610b2990614ed6565b611bf58161265a565b600054610100900460ff16613bb25760405162461bcd60e51b8152600401610b2990614ed6565b6065805462ff000019169055565b60008181526001830160205260408120548015613ca9576000613be4600183614c8a565b8554909150600090613bf890600190614c8a565b9050818114613c5d576000866000018281548110613c1857613c18614c5b565b9060005260206000200154905080876000018481548110613c3b57613c3b614c5b565b6000918252602080832090910192909255918252600188019052604090208390555b8554869080613c6e57613c6e614f83565b600190038181906000526020600020016000905590558560010160008681526020019081526020016000206000905560019350505050610ab6565b6000915050610ab6565b5092915050565b6000613cc582613f5a565b613ccf8486614f21565b610f069190614f4f565b6000613d2e826040518060400160405280602081526020017f5361666545524332303a206c6f772d6c6576656c2063616c6c206661696c6564815250856001600160a01b0316613f729092919063ffffffff16565b805190915015613dab5780806020019051810190613d4c9190614b90565b613dab5760405162461bcd60e51b815260206004820152602a60248201527f5361666545524332303a204552433230206f7065726174696f6e20646964206e6044820152691bdd081cdd58d8d9595960b21b6064820152608401610b29565b505050565b600082600003613dc257506000610f09565b82613dcc83613f5a565b613ccf9086614f21565b60008263ffffffff168463ffffffff161015613e405760405162461bcd60e51b815260206004820152602360248201527f504d543a206379636c65206475726174696f6e203c206c6f616e20647572617460448201526234b7b760e91b6064820152608401610b29565b8161ffff16600003613e6c57613e65858463ffffffff168663ffffffff166001613f81565b9050613f05565b6000613e848563ffffffff168563ffffffff16613fd2565b9050670de0b6b3a76400006000613eb86301e13380613eb263ffffffff8916613eac89614009565b9061402d565b90614061565b90506000613ed084613eca8486614bfa565b90614091565b90506000613ee282613eac8c8661402d565b90506000613ef08584614c8a565b9050613efc8282614061565b96505050505050505b949350505050565b6000818310613f1c5781610f09565b5090919050565b600054610100900460ff16613f4a5760405162461bcd60e51b8152600401610b2990614ed6565b611479613f55612ecd565b61303b565b6000613f6782600a61507d565b610ab6906064614f21565b6060610f0684846000856140a9565b600080613f8f8686866141da565b90506001836002811115613fa557613fa56146ab565b148015613fc2575060008480613fbd57613fbd614a81565b868809115b1561398457613981600182614bfa565b600082156140005781613fe6600185614c8a565b613ff09190614f4f565b613ffb906001614bfa565b610f09565b50600092915050565b6000610ab661271061402761ffff8516670de0b6b3a7640000614289565b90614295565b6000610f09670de0b6b3a76400006140276140488686614289565b61405b6002670de0b6b3a7640000614f4f565b906142a1565b60008061406f600284614f4f565b9050613f058361402761408a87670de0b6b3a7640000614289565b84906142a1565b6000610f098383670de0b6b3a764000061402d6142ad565b60608247101561410a5760405162461bcd60e51b815260206004820152602660248201527f416464726573733a20696e73756666696369656e742062616c616e636520666f6044820152651c8818d85b1b60d21b6064820152608401610b29565b6001600160a01b0385163b6141615760405162461bcd60e51b815260206004820152601d60248201527f416464726573733a2063616c6c20746f206e6f6e2d636f6e74726163740000006044820152606401610b29565b600080866001600160a01b0316858760405161417d9190614d33565b60006040518083038185875af1925050503d80600081146141ba576040519150601f19603f3d011682016040523d82523d6000602084013e6141bf565b606091505b50915091506141cf828286614322565b979650505050505050565b60008080600019858709858702925082811083820303915050806000036142145783828161420a5761420a614a81565b0492505050610f09565b80841161422057600080fd5b60008486880960026001871981018816978890046003810283188082028403028082028403028082028403028082028403028082028403029081029092039091026000889003889004909101858311909403939093029303949094049190911702949350505050565b6000610f098284614f21565b6000610f098284614f4f565b6000610f098284614bfa565b60006142ba600285615089565b6000036142c757826142c9565b845b90506142d6600285614f4f565b93505b8315613f05576142ed85868463ffffffff16565b94506142fa600285615089565b156143105761430d81868463ffffffff16565b90505b61431b600285614f4f565b93506142d9565b60608315614331575081610f09565b8251156143415782518084602001fd5b8160405162461bcd60e51b8152600401610b2991906145c4565b6001600160a01b0381168114611bf557600080fd5b803561246d8161435b565b60006020828403121561438d57600080fd5b8135610f098161435b565b6020808252825182820181905260009190848201906040850190845b818110156143d0578351835292840192918401916001016143b4565b50909695505050505050565b63ffffffff81168114611bf557600080fd5b61ffff81168114611bf557600080fd5b60008083601f84011261441057600080fd5b50813567ffffffffffffffff81111561442857600080fd5b60208301915083602082850101111561444057600080fd5b9250929050565b60008060008060008060008060e0898b03121561446357600080fd5b883561446e8161435b565b97506020890135965060408901359550606089013561448c816143dc565b9450608089013561449c816143ee565b935060a089013567ffffffffffffffff8111156144b857600080fd5b6144c48b828c016143fe565b90945092505060c08901356144d88161435b565b809150509295985092959890939650565b600080604083850312156144fc57600080fd5b82356145078161435b565b915060208301356145178161435b565b809150509250929050565b60006020828403121561453457600080fd5b5035919050565b6000806040838503121561454e57600080fd5b50508035926020909101359150565b815181526020808301519082015260408101610ab6565b60005b8381101561458f578181015183820152602001614577565b50506000910152565b600081518084526145b0816020860160208601614574565b601f01601f19169290920160200192915050565b602081526000610f096020830184614598565b600080604083850312156145ea57600080fd5b8235915060208301356145178161435b565b60008060006060848603121561461157600080fd5b8335925060208401356146238161435b565b915060408401356146338161435b565b809150509250925092565b6020808252825182820181905260009190848201906040850190845b818110156143d05783516001600160a01b03168352928401929184019160010161465a565b6000806040838503121561469257600080fd5b823561469d8161435b565b946020939093013593505050565b634e487b7160e01b600052602160045260246000fd5b600681106146d1576146d16146ab565b9052565b600281106146d1576146d16146ab565b60006102408201905060018060a01b03808c168352808b166020840152808a1660408401528860608401528760808401528087511660a084015250602086015160c0830152604086015161474660e084018280518252602090810151910152565b50606086015163ffffffff9081166101208401526080870151811661014084015260a08701511661016083015260c086015161478b61018084018263ffffffff169052565b5084516101a0830152602085015163ffffffff166101c0830152604085015161ffff166101e08301526147c26102008301856146c1565b6147d06102208301846146d5565b9a9950505050505050505050565b6000806000806000806000806000806101008b8d0312156147fe57600080fd5b8a356148098161435b565b995060208b0135985060408b0135975060608b0135614827816143dc565b965060808b0135614837816143ee565b955060a08b013567ffffffffffffffff8082111561485457600080fd5b6148608e838f016143fe565b909750955060c08d013591506148758261435b565b90935060e08c0135908082111561488b57600080fd5b818d0191508d601f83011261489f57600080fd5b8135818111156148ae57600080fd5b8e60208260071b85010111156148c357600080fd5b6020830194508093505050509295989b9194979a5092959850565b600080600080600080600060c0888a0312156148f957600080fd5b8735614904816143ee565b965060208801356149148161435b565b955060408801356149248161435b565b945060608801356149348161435b565b9350608088013567ffffffffffffffff8082111561495157600080fd5b818a0191508a601f83011261496557600080fd5b81358181111561497457600080fd5b8b60208260051b850101111561498957600080fd5b6020830195508094505050506149a160a08901614370565b905092959891949750929550565b60208101610ab682846146c1565b6000602082840312156149cf57600080fd5b8135610f09816143ee565b634e487b7160e01b600052601160045260246000fd5b63ffffffff818116838216019080821115613cb357613cb36149da565b600181811c90821680614a2157607f821691505b602082108103614a4157634e487b7160e01b600052602260045260246000fd5b50919050565b600060208284031215614a5957600080fd5b8151610f098161435b565b63ffffffff828116828216039080821115613cb357613cb36149da565b634e487b7160e01b600052601260045260246000fd5b600063ffffffff80841680614aae57614aae614a81565b92169190910492915050565b63ffffffff818116838216028082169190828114614ada57614ada6149da565b505092915050565b60038110611bf557600080fd5b838152604060208083018290528282018490526000919060609081850187855b88811015614b71578135614b2281614ae2565b60038110614b3257614b326146ab565b83528184013584840152858201358684015284820135614b518161435b565b6001600160a01b0316838601526080928301929190910190600101614b0f565b50909998505050505050505050565b8051801515811461246d57600080fd5b600060208284031215614ba257600080fd5b610f0982614b80565b828152606060208201526000614bc46060830184614598565b8281036040938401526015815274131bd85b881b5d5cdd081899481858d8d95c1d1959605a1b6020820152919091019392505050565b80820180821115610ab657610ab66149da565b6020808252602e908201527f496e697469616c697a61626c653a20636f6e747261637420697320616c72656160408201526d191e481a5b9a5d1a585b1a5e995960921b606082015260800190565b634e487b7160e01b600052603260045260246000fd5b600060018201614c8357614c836149da565b5060010190565b81810381811115610ab657610ab66149da565b828152606060208201526000614cb66060830184614598565b8281036040938401526013815272426964206d7573742062652070656e64696e6760681b6020820152919091019392505050565b60008060408385031215614cfd57600080fd5b614d0683614b80565b9150602083015190509250929050565b600060208284031215614d2857600080fd5b8151610f09816143ee565b60008251614d45818460208701614574565b9190910192915050565b600060208284031215614d6157600080fd5b8151610f09816143dc565b600060208284031215614d7e57600080fd5b815160028110610f0957600080fd5b634e487b7160e01b600052604160045260246000fd5b601f821115613dab57600081815260208120601f850160051c81016020861015614dca5750805b601f850160051c820191505b8181101561252557828155600101614dd6565b67ffffffffffffffff831115614e0157614e01614d8d565b614e1583614e0f8354614a0d565b83614da3565b6000601f841160018114614e495760008515614e315750838201355b600019600387901b1c1916600186901b178355611ca8565b600083815260209020601f19861690835b82811015614e7a5786850135825560209485019460019092019101614e5a565b5086821015614e975760001960f88860031b161c19848701351681555b505060018560011b0183555050505050565b8183823760009101908152919050565b600060208284031215614ecb57600080fd5b8151610f0981614ae2565b6020808252602b908201527f496e697469616c697a61626c653a20636f6e7472616374206973206e6f74206960408201526a6e697469616c697a696e6760a81b606082015260800190565b8082028115828204841417610ab657610ab66149da565b600081614f4757614f476149da565b506000190190565b600082614f5e57614f5e614a81565b500490565b8181036000831280158383131683831282161715613cb357613cb36149da565b634e487b7160e01b600052603160045260246000fd5b600181815b80851115614fd4578160001904821115614fba57614fba6149da565b80851615614fc757918102915b93841c9390800290614f9e565b509250929050565b600082614feb57506001610ab6565b81614ff857506000610ab6565b816001811461500e576002811461501857615034565b6001915050610ab6565b60ff841115615029576150296149da565b50506001821b610ab6565b5060208310610133831016604e8410600b8410161715615057575081810a610ab6565b6150618383614f99565b8060001904821115615075576150756149da565b029392505050565b6000610f098383614fdc565b60008261509857615098614a81565b50069056fea2646970667358221220b9c2a44c8b154f392482630832b523a0be483cfa9a58a670dbc63b7dfecfab1f64736f6c63430008110033",
    "linkReferences": {}
  },
  "methodIdentifiers": {
    "CURRENT_CODE_VERSION()": "4148f94c",
    "_lenderVolumeFilled(address)": "b5d34fcd",
    "_totalVolumeFilled()": "1289b396",
    "addLendingToken(address)": "d76ac91f",
    "approveMarketForwarder(uint256,address)": "2e9332d4",
    "bidDefaultDuration(uint256)": "6b76c085",
    "bidExpirationTime(uint256)": "127caa88",
    "bidId()": "8ac47319",
    "bids(uint256)": "4423c5f1",
    "borrowerBids(address,uint256)": "3819bcdc",
    "calculateAmountDue(uint256)": "d974cc57",
    "calculateAmountDue(uint256,uint256)": "6aedfe68",
    "calculateAmountOwed(uint256)": "6c6ca79c",
    "calculateAmountOwed(uint256,uint256)": "1042b85f",
    "calculateNextDueDate(uint256)": "706a43c3",
    "cancelBid(uint256)": "9703ef35",
    "collateralManager()": "23be345c",
    "getBidState(uint256)": "bf77ffae",
    "getBorrowerActiveLoanIds(address)": "054de0ff",
    "getBorrowerLoanIds(address)": "1d123633",
    "getLendingTokens()": "235d5a7b",
    "getLoanBorrower(uint256)": "3ef0a2f7",
    "getLoanLender(uint256)": "a10905ea",
    "getLoanLendingToken(uint256)": "14573033",
    "getMetadataURI(uint256)": "bde644fb",
    "hasApprovedMarketForwarder(uint256,address,address)": "19b353de",
    "initialize(uint16,address,address,address,address[],address)": "837c0bf6",
    "isLoanDefaulted(uint256)": "e8cbab09",
    "isLoanExpired(uint256)": "10618223",
    "isPaymentLate(uint256)": "093f5617",
    "isTrustedForwarder(address)": "572b6c05",
    "isTrustedMarketForwarder(uint256,address)": "d87569cc",
    "lastRepaidTimestamp(uint256)": "a51e2bad",
    "lenderAcceptBid(uint256)": "a8cb5d68",
    "lenderCommitmentForwarder()": "ba6d5b15",
    "lenderVolumeFilled(address,address)": "089487b5",
    "liquidateLoanFull(uint256)": "8288da8a",
    "marketOwnerCancelBid(uint256)": "206c54c7",
    "marketRegistry()": "ecb96fe6",
    "owner()": "8da5cb5b",
    "pauseProtocol()": "dbf62489",
    "paused()": "5c975abb",
    "protocolFee()": "b0e21e8a",
    "removeLendingToken(address)": "a75021ba",
    "renounceOwnership()": "715018a6",
    "repayLoan(uint256,uint256)": "8a700b53",
    "repayLoanFull(uint256)": "9a11e339",
    "repayLoanMinimum(uint256)": "d4eda4cf",
    "reputationManager()": "6b868afb",
    "setCollateralManager(address)": "842a05d4",
    "setLenderCommitmentForwarder(address)": "06b2cd39",
    "setProtocolFee(uint16)": "e4467f35",
    "setReputationManager(address)": "56a837f4",
    "setTrustedMarketForwarder(uint256,address)": "1420a266",
    "submitBid(address,uint256,uint256,uint32,uint16,string,address)": "06f33a92",
    "submitBid(address,uint256,uint256,uint32,uint16,string,address,(uint8,uint256,uint256,address)[])": "7bbd53d7",
    "totalVolumeFilled(address)": "2519dc79",
    "transferOwnership(address)": "f2fde38b",
    "unpauseProtocol()": "f93b6be5",
    "uris(uint256)": "1253c546",
    "version()": "54fd4d50"
  },
  "id": 16
}