{
  "abi": [
    {
      "inputs": [
        {
          "internalType": "address",
          "name": "_tellerV2",
          "type": "address"
        }
      ],
      "stateMutability": "nonpayable",
      "type": "constructor"
    },
    {
      "inputs": [
        {
          "internalType": "uint256",
          "name": "_bidId",
          "type": "uint256"
        }
      ],
      "name": "acceptBid",
      "outputs": [],
      "stateMutability": "nonpayable",
      "type": "function"
    },
    {
      "inputs": [
        {
          "internalType": "address",
          "name": "_assetContractAddress",
          "type": "address"
        },
        {
          "internalType": "address",
          "name": "_spender",
          "type": "address"
        },
        {
          "internalType": "uint256",
          "name": "_amount",
          "type": "uint256"
        }
      ],
      "name": "addAllowance",
      "outputs": [],
      "stateMutability": "nonpayable",
      "type": "function"
    },
    {
      "inputs": [
        {
          "internalType": "uint256",
          "name": "_marketId",
          "type": "uint256"
        },
        {
          "internalType": "address",
          "name": "_forwarder",
          "type": "address"
        }
      ],
      "name": "approveMarketForwarder",
      "outputs": [],
      "stateMutability": "nonpayable",
      "type": "function"
    },
    {
      "inputs": [
        {
          "internalType": "address",
          "name": "marketRegistry",
          "type": "address"
        },
        {
          "internalType": "uint32",
          "name": "_paymentCycleDuration",
          "type": "uint32"
        },
        {
          "internalType": "uint32",
          "name": "_paymentDefaultDuration",
          "type": "uint32"
        },
        {
          "internalType": "uint32",
          "name": "_bidExpirationTime",
          "type": "uint32"
        },
        {
          "internalType": "uint16",
          "name": "_feePercent",
          "type": "uint16"
        },
        {
          "internalType": "bool",
          "name": "_requireLenderAttestation",
          "type": "bool"
        },
        {
          "internalType": "bool",
          "name": "_requireBorrowerAttestation",
          "type": "bool"
        },
        {
          "internalType": "enum PaymentType",
          "name": "_paymentType",
          "type": "uint8"
        },
        {
          "internalType": "enum PaymentCycleType",
          "name": "_paymentCycleType",
          "type": "uint8"
        },
        {
          "internalType": "string",
          "name": "_uri",
          "type": "string"
        }
      ],
      "name": "createMarket",
      "outputs": [
        {
          "internalType": "uint256",
          "name": "",
          "type": "uint256"
        }
      ],
      "stateMutability": "nonpayable",
      "type": "function"
    },
    {
      "inputs": [
        {
          "internalType": "uint256",
          "name": "_bidId",
          "type": "uint256"
        }
      ],
      "name": "repayLoanFull",
      "outputs": [],
      "stateMutability": "nonpayable",
      "type": "function"
    },
    {
      "inputs": [
        {
          "internalType": "uint256",
          "name": "_marketId",
          "type": "uint256"
        },
        {
          "internalType": "address",
          "name": "_forwarder",
          "type": "address"
        }
      ],
      "name": "setTrustedMarketForwarder",
      "outputs": [],
      "stateMutability": "nonpayable",
      "type": "function"
    },
    {
      "inputs": [
        {
          "internalType": "address",
          "name": "_lendingToken",
          "type": "address"
        },
        {
          "internalType": "uint256",
          "name": "_marketplaceId",
          "type": "uint256"
        },
        {
          "internalType": "uint256",
          "name": "_principal",
          "type": "uint256"
        },
        {
          "internalType": "uint32",
          "name": "_duration",
          "type": "uint32"
        },
        {
          "internalType": "uint16",
          "name": "_APR",
          "type": "uint16"
        },
        {
          "internalType": "string",
          "name": "_metadataURI",
          "type": "string"
        },
        {
          "internalType": "address",
          "name": "_receiver",
          "type": "address"
        }
      ],
      "name": "submitBid",
      "outputs": [
        {
          "internalType": "uint256",
          "name": "",
          "type": "uint256"
        }
      ],
      "stateMutability": "nonpayable",
      "type": "function"
    },
    {
      "inputs": [
        {
          "internalType": "address",
          "name": "_lendingToken",
          "type": "address"
        },
        {
          "internalType": "uint256",
          "name": "_marketplaceId",
          "type": "uint256"
        },
        {
          "internalType": "uint256",
          "name": "_principal",
          "type": "uint256"
        },
        {
          "internalType": "uint32",
          "name": "_duration",
          "type": "uint32"
        },
        {
          "internalType": "uint16",
          "name": "_APR",
          "type": "uint16"
        },
        {
          "internalType": "string",
          "name": "_metadataURI",
          "type": "string"
        },
        {
          "internalType": "address",
          "name": "_receiver",
          "type": "address"
        },
        {
          "components": [
            {
              "internalType": "enum CollateralType",
              "name": "_collateralType",
              "type": "uint8"
            },
            {
              "internalType": "uint256",
              "name": "_amount",
              "type": "uint256"
            },
            {
              "internalType": "uint256",
              "name": "_tokenId",
              "type": "uint256"
            },
            {
              "internalType": "address",
              "name": "_collateralAddress",
              "type": "address"
            }
          ],
          "internalType": "struct Collateral[]",
          "name": "_collateralInfo",
          "type": "tuple[]"
        }
      ],
      "name": "submitCollateralBid",
      "outputs": [
        {
          "internalType": "uint256",
          "name": "",
          "type": "uint256"
        }
      ],
      "stateMutability": "nonpayable",
      "type": "function"
    },
    {
      "inputs": [],
      "name": "tellerV2",
      "outputs": [
        {
          "internalType": "address",
          "name": "",
          "type": "address"
        }
      ],
      "stateMutability": "view",
      "type": "function"
    },
    {
      "stateMutability": "payable",
      "type": "receive"
    }
  ],
  "bytecode": {
    "object": "0x60a060405234801561001057600080fd5b50604051610d3d380380610d3d83398101604081905261002f91610040565b6001600160a01b0316608052610070565b60006020828403121561005257600080fd5b81516001600160a01b038116811461006957600080fd5b9392505050565b608051610c886100b56000396000818161019d01528181610211015281816102ca01528181610341015281816103e20152818161053401526105e30152610c886000f3fe60806040526004361061008a5760003560e01c8063344e553d11610059578063344e553d1461012b5780635fd72d161461014b5780637cf13b531461016b578063941675db1461018b5780639a11e339146101d757600080fd5b806306f33a92146100965780631420a266146100c95780632b1fd58a146100eb5780632e9332d41461010b57600080fd5b3661009157005b600080fd5b3480156100a257600080fd5b506100b66100b13660046106d5565b6101f7565b6040519081526020015b60405180910390f35b3480156100d557600080fd5b506100e96100e436600461076e565b6102a4565b005b3480156100f757600080fd5b506100e961010636600461079a565b61032b565b34801561011757600080fd5b506100e961012636600461076e565b6103bc565b34801561013757600080fd5b506100b66101463660046107d1565b610411565b34801561015757600080fd5b506100e96101663660046108b8565b6104a7565b34801561017757600080fd5b506100b66101863660046108f4565b61051a565b34801561019757600080fd5b506101bf7f000000000000000000000000000000000000000000000000000000000000000081565b6040516001600160a01b0390911681526020016100c0565b3480156101e357600080fd5b506100e96101f236600461079a565b6105cd565b6040516303799d4960e11b81526000906001600160a01b037f000000000000000000000000000000000000000000000000000000000000000016906306f33a9290610254908c908c908c908c908c908c908c908c90600401610a16565b6020604051808303816000875af1158015610273573d6000803e3d6000fd5b505050506040513d601f19601f820116820180604052508101906102979190610a73565b9998505050505050505050565b604051630a10513360e11b8152600481018390526001600160a01b0382811660248301527f00000000000000000000000000000000000000000000000000000000000000001690631420a266906044015b600060405180830381600087803b15801561030f57600080fd5b505af1158015610323573d6000803e3d6000fd5b505050505050565b6040516315196bad60e31b8152600481018290527f00000000000000000000000000000000000000000000000000000000000000006001600160a01b03169063a8cb5d68906024016060604051808303816000875af1158015610392573d6000803e3d6000fd5b505050506040513d601f19601f820116820180604052508101906103b69190610a8c565b50505050565b604051630ba4ccb560e21b8152600481018390526001600160a01b0382811660248301527f00000000000000000000000000000000000000000000000000000000000000001690632e9332d4906044016102f5565b60405163344e553d60e01b81526000906001600160a01b038d169063344e553d906104549030908f908f908f908f908f908f908f908f908f908f90600401610ad8565b6020604051808303816000875af1158015610473573d6000803e3d6000fd5b505050506040513d601f19601f820116820180604052508101906104979190610a73565b9c9b505050505050505050505050565b60405163095ea7b360e01b81526001600160a01b0383811660048301526024820183905284169063095ea7b3906044016020604051808303816000875af11580156104f6573d6000803e3d6000fd5b505050506040513d601f19601f820116820180604052508101906103b69190610b64565b604051637bbd53d760e01b81526000906001600160a01b037f00000000000000000000000000000000000000000000000000000000000000001690637bbd53d79061057b908e908e908e908e908e908e908e908e908e908e90600401610b88565b6020604051808303816000875af115801561059a573d6000803e3d6000fd5b505050506040513d601f19601f820116820180604052508101906105be9190610a73565b9b9a5050505050505050505050565b604051639a11e33960e01b8152600481018290527f00000000000000000000000000000000000000000000000000000000000000006001600160a01b031690639a11e33990602401600060405180830381600087803b15801561062f57600080fd5b505af1158015610643573d6000803e3d6000fd5b5050505050565b80356001600160a01b038116811461066157600080fd5b919050565b803563ffffffff8116811461066157600080fd5b803561ffff8116811461066157600080fd5b60008083601f84011261069e57600080fd5b50813567ffffffffffffffff8111156106b657600080fd5b6020830191508360208285010111156106ce57600080fd5b9250929050565b60008060008060008060008060e0898b0312156106f157600080fd5b6106fa8961064a565b9750602089013596506040890135955061071660608a01610666565b945061072460808a0161067a565b935060a089013567ffffffffffffffff81111561074057600080fd5b61074c8b828c0161068c565b909450925061075f905060c08a0161064a565b90509295985092959890939650565b6000806040838503121561078157600080fd5b823591506107916020840161064a565b90509250929050565b6000602082840312156107ac57600080fd5b5035919050565b80151581146107c157600080fd5b50565b600281106107c157600080fd5b60008060008060008060008060008060006101408c8e0312156107f357600080fd5b6107fc8c61064a565b9a5061080a60208d01610666565b995061081860408d01610666565b985061082660608d01610666565b975061083460808d0161067a565b965060a08c0135610844816107b3565b955060c08c0135610854816107b3565b945060e08c0135610864816107c4565b93506101008c0135610875816107c4565b92506101208c013567ffffffffffffffff81111561089257600080fd5b61089e8e828f0161068c565b915080935050809150509295989b509295989b9093969950565b6000806000606084860312156108cd57600080fd5b6108d68461064a565b92506108e46020850161064a565b9150604084013590509250925092565b6000806000806000806000806000806101008b8d03121561091457600080fd5b61091d8b61064a565b995060208b0135985060408b0135975061093960608c01610666565b965061094760808c0161067a565b955060a08b013567ffffffffffffffff8082111561096457600080fd5b6109708e838f0161068c565b909750955085915061098460c08e0161064a565b945060e08d013591508082111561099a57600080fd5b818d0191508d601f8301126109ae57600080fd5b8135818111156109bd57600080fd5b8e60208260071b85010111156109d257600080fd5b6020830194508093505050509295989b9194979a5092959850565b81835281816020850137506000828201602090810191909152601f909101601f19169091010190565b600060018060a01b03808b16835289602084015288604084015263ffffffff8816606084015261ffff8716608084015260e060a0840152610a5b60e0840186886109ed565b915080841660c0840152509998505050505050505050565b600060208284031215610a8557600080fd5b5051919050565b600080600060608486031215610aa157600080fd5b8351925060208401519150604084015190509250925092565b600281106107c157634e487b7160e01b600052602160045260246000fd5b6001600160a01b038c16815263ffffffff8b811660208301528a811660408301528916606082015261ffff8816608082015286151560a082015285151560c08201526000610140610b2887610aba565b8660e0840152610b3786610aba565b8561010084015280610120840152610b5281840185876109ed565b9e9d5050505050505050505050505050565b600060208284031215610b7657600080fd5b8151610b81816107b3565b9392505050565b600061010060018060a01b03808e16845260208d8186015260408d81870152606063ffffffff8e1681880152608061ffff8e16818901528560a0890152610bd28689018d8f6109ed565b8b861660c08a015288810360e08a01528981528a965084016000805b8b811015610c3757883560038110610c04578283fd5b83528887013587840152858901358684015287610c22868b0161064a565b16838601529783019791830191600101610bee565b5050809750505050505050509b9a505050505050505050505056fea26469706673582212209647c7f101a7106864ffed30d73c9a3f6cfb47febdc65164e6c6c58e98fcc5bf64736f6c63430008110033",
    "linkReferences": {}
  },
  "methodIdentifiers": {
    "acceptBid(uint256)": "2b1fd58a",
    "addAllowance(address,address,uint256)": "5fd72d16",
    "approveMarketForwarder(uint256,address)": "2e9332d4",
    "createMarket(address,uint32,uint32,uint32,uint16,bool,bool,uint8,uint8,string)": "344e553d",
    "repayLoanFull(uint256)": "9a11e339",
    "setTrustedMarketForwarder(uint256,address)": "1420a266",
    "submitBid(address,uint256,uint256,uint32,uint16,string,address)": "06f33a92",
    "submitCollateralBid(address,uint256,uint256,uint32,uint16,string,address,(uint8,uint256,uint256,address)[])": "7cf13b53",
    "tellerV2()": "941675db"
  },
  "id": 100
}