{
  "abi": [
    {
      "inputs": [],
      "stateMutability": "nonpayable",
      "type": "constructor"
    },
    {
      "anonymous": false,
      "inputs": [
        {
          "indexed": false,
          "internalType": "uint8",
          "name": "version",
          "type": "uint8"
        }
      ],
      "name": "Initialized",
      "type": "event"
    },
    {
      "anonymous": false,
      "inputs": [
        {
          "indexed": true,
          "internalType": "uint256",
          "name": "marketId",
          "type": "uint256"
        },
        {
          "indexed": true,
          "internalType": "address",
          "name": "forwarder",
          "type": "address"
        },
        {
          "indexed": false,
          "internalType": "address",
          "name": "sender",
          "type": "address"
        }
      ],
      "name": "MarketForwarderApproved",
      "type": "event"
    },
    {
      "anonymous": false,
      "inputs": [
        {
          "indexed": true,
          "internalType": "uint256",
          "name": "marketId",
          "type": "uint256"
        },
        {
          "indexed": false,
          "internalType": "address",
          "name": "forwarder",
          "type": "address"
        },
        {
          "indexed": false,
          "internalType": "address",
          "name": "sender",
          "type": "address"
        }
      ],
      "name": "TrustedMarketForwarderSet",
      "type": "event"
    },
    {
      "inputs": [
        {
          "internalType": "contract User",
          "name": "_marketOwner",
          "type": "address"
        }
      ],
      "name": "__setMarketOwner",
      "outputs": [],
      "stateMutability": "nonpayable",
      "type": "function"
    },
    {
      "inputs": [
        {
          "internalType": "address",
          "name": "",
          "type": "address"
        }
      ],
      "name": "_lenderVolumeFilled",
      "outputs": [
        {
          "internalType": "uint256",
          "name": "",
          "type": "uint256"
        }
      ],
      "stateMutability": "view",
      "type": "function"
    },
    {
      "inputs": [],
      "name": "_totalVolumeFilled",
      "outputs": [
        {
          "internalType": "uint256",
          "name": "",
          "type": "uint256"
        }
      ],
      "stateMutability": "view",
      "type": "function"
    },
    {
      "inputs": [
        {
          "internalType": "uint256",
          "name": "_marketId",
          "type": "uint256"
        },
        {
          "internalType": "address",
          "name": "_forwarder",
          "type": "address"
        }
      ],
      "name": "approveMarketForwarder",
      "outputs": [],
      "stateMutability": "nonpayable",
      "type": "function"
    },
    {
      "inputs": [
        {
          "internalType": "uint256",
          "name": "",
          "type": "uint256"
        }
      ],
      "name": "bidDefaultDuration",
      "outputs": [
        {
          "internalType": "uint32",
          "name": "",
          "type": "uint32"
        }
      ],
      "stateMutability": "view",
      "type": "function"
    },
    {
      "inputs": [
        {
          "internalType": "uint256",
          "name": "",
          "type": "uint256"
        }
      ],
      "name": "bidExpirationTime",
      "outputs": [
        {
          "internalType": "uint32",
          "name": "",
          "type": "uint32"
        }
      ],
      "stateMutability": "view",
      "type": "function"
    },
    {
      "inputs": [],
      "name": "bidId",
      "outputs": [
        {
          "internalType": "uint256",
          "name": "",
          "type": "uint256"
        }
      ],
      "stateMutability": "view",
      "type": "function"
    },
    {
      "inputs": [
        {
          "internalType": "uint256",
          "name": "",
          "type": "uint256"
        }
      ],
      "name": "bids",
      "outputs": [
        {
          "internalType": "address",
          "name": "borrower",
          "type": "address"
        },
        {
          "internalType": "address",
          "name": "receiver",
          "type": "address"
        },
        {
          "internalType": "address",
          "name": "lender",
          "type": "address"
        },
        {
          "internalType": "uint256",
          "name": "marketplaceId",
          "type": "uint256"
        },
        {
          "internalType": "bytes32",
          "name": "_metadataURI",
          "type": "bytes32"
        },
        {
          "components": [
            {
              "internalType": "contract ERC20",
              "name": "lendingToken",
              "type": "address"
            },
            {
              "internalType": "uint256",
              "name": "principal",
              "type": "uint256"
            },
            {
              "components": [
                {
                  "internalType": "uint256",
                  "name": "principal",
                  "type": "uint256"
                },
                {
                  "internalType": "uint256",
                  "name": "interest",
                  "type": "uint256"
                }
              ],
              "internalType": "struct Payment",
              "name": "totalRepaid",
              "type": "tuple"
            },
            {
              "internalType": "uint32",
              "name": "timestamp",
              "type": "uint32"
            },
            {
              "internalType": "uint32",
              "name": "acceptedTimestamp",
              "type": "uint32"
            },
            {
              "internalType": "uint32",
              "name": "lastRepaidTimestamp",
              "type": "uint32"
            },
            {
              "internalType": "uint32",
              "name": "loanDuration",
              "type": "uint32"
            }
          ],
          "internalType": "struct LoanDetails",
          "name": "loanDetails",
          "type": "tuple"
        },
        {
          "components": [
            {
              "internalType": "uint256",
              "name": "paymentCycleAmount",
              "type": "uint256"
            },
            {
              "internalType": "uint32",
              "name": "paymentCycle",
              "type": "uint32"
            },
            {
              "internalType": "uint16",
              "name": "APR",
              "type": "uint16"
            }
          ],
          "internalType": "struct Terms",
          "name": "terms",
          "type": "tuple"
        },
        {
          "internalType": "enum BidState",
          "name": "state",
          "type": "uint8"
        },
        {
          "internalType": "enum PaymentType",
          "name": "paymentType",
          "type": "uint8"
        }
      ],
      "stateMutability": "view",
      "type": "function"
    },
    {
      "inputs": [
        {
          "internalType": "address",
          "name": "",
          "type": "address"
        },
        {
          "internalType": "uint256",
          "name": "",
          "type": "uint256"
        }
      ],
      "name": "borrowerBids",
      "outputs": [
        {
          "internalType": "uint256",
          "name": "",
          "type": "uint256"
        }
      ],
      "stateMutability": "view",
      "type": "function"
    },
    {
      "inputs": [],
      "name": "collateralManager",
      "outputs": [
        {
          "internalType": "contract ICollateralManager",
          "name": "",
          "type": "address"
        }
      ],
      "stateMutability": "view",
      "type": "function"
    },
    {
      "inputs": [
        {
          "internalType": "uint256",
          "name": "_marketId",
          "type": "uint256"
        }
      ],
      "name": "getDataForMarket",
      "outputs": [
        {
          "internalType": "bytes",
          "name": "",
          "type": "bytes"
        }
      ],
      "stateMutability": "view",
      "type": "function"
    },
    {
      "inputs": [
        {
          "internalType": "uint256",
          "name": "_marketId",
          "type": "uint256"
        }
      ],
      "name": "getSenderForMarket",
      "outputs": [
        {
          "internalType": "address",
          "name": "",
          "type": "address"
        }
      ],
      "stateMutability": "view",
      "type": "function"
    },
    {
      "inputs": [
        {
          "internalType": "uint256",
          "name": "_marketId",
          "type": "uint256"
        },
        {
          "internalType": "address",
          "name": "_forwarder",
          "type": "address"
        },
        {
          "internalType": "address",
          "name": "_account",
          "type": "address"
        }
      ],
      "name": "hasApprovedMarketForwarder",
      "outputs": [
        {
          "internalType": "bool",
          "name": "",
          "type": "bool"
        }
      ],
      "stateMutability": "view",
      "type": "function"
    },
    {
      "inputs": [
        {
          "internalType": "address",
          "name": "forwarder",
          "type": "address"
        }
      ],
      "name": "isTrustedForwarder",
      "outputs": [
        {
          "internalType": "bool",
          "name": "",
          "type": "bool"
        }
      ],
      "stateMutability": "view",
      "type": "function"
    },
    {
      "inputs": [
        {
          "internalType": "uint256",
          "name": "_marketId",
          "type": "uint256"
        },
        {
          "internalType": "address",
          "name": "_trustedMarketForwarder",
          "type": "address"
        }
      ],
      "name": "isTrustedMarketForwarder",
      "outputs": [
        {
          "internalType": "bool",
          "name": "",
          "type": "bool"
        }
      ],
      "stateMutability": "view",
      "type": "function"
    },
    {
      "inputs": [],
      "name": "lenderCommitmentForwarder",
      "outputs": [
        {
          "internalType": "address",
          "name": "",
          "type": "address"
        }
      ],
      "stateMutability": "view",
      "type": "function"
    },
    {
      "inputs": [
        {
          "internalType": "address",
          "name": "",
          "type": "address"
        },
        {
          "internalType": "address",
          "name": "",
          "type": "address"
        }
      ],
      "name": "lenderVolumeFilled",
      "outputs": [
        {
          "internalType": "uint256",
          "name": "",
          "type": "uint256"
        }
      ],
      "stateMutability": "view",
      "type": "function"
    },
    {
      "inputs": [],
      "name": "marketRegistry",
      "outputs": [
        {
          "internalType": "contract IMarketRegistry",
          "name": "",
          "type": "address"
        }
      ],
      "stateMutability": "view",
      "type": "function"
    },
    {
      "inputs": [],
      "name": "reputationManager",
      "outputs": [
        {
          "internalType": "contract IReputationManager",
          "name": "",
          "type": "address"
        }
      ],
      "stateMutability": "view",
      "type": "function"
    },
    {
      "inputs": [
        {
          "internalType": "uint256",
          "name": "_marketId",
          "type": "uint256"
        },
        {
          "internalType": "address",
          "name": "_forwarder",
          "type": "address"
        }
      ],
      "name": "setTrustedMarketForwarder",
      "outputs": [],
      "stateMutability": "nonpayable",
      "type": "function"
    },
    {
      "inputs": [
        {
          "internalType": "address",
          "name": "",
          "type": "address"
        }
      ],
      "name": "totalVolumeFilled",
      "outputs": [
        {
          "internalType": "uint256",
          "name": "",
          "type": "uint256"
        }
      ],
      "stateMutability": "view",
      "type": "function"
    },
    {
      "inputs": [
        {
          "internalType": "uint256",
          "name": "",
          "type": "uint256"
        }
      ],
      "name": "uris",
      "outputs": [
        {
          "internalType": "string",
          "name": "",
          "type": "string"
        }
      ],
      "stateMutability": "view",
      "type": "function"
    },
    {
      "inputs": [],
      "name": "version",
      "outputs": [
        {
          "internalType": "uint256",
          "name": "",
          "type": "uint256"
        }
      ],
      "stateMutability": "view",
      "type": "function"
    }
  ],
  "bytecode": {
    "object": "0x60a0604052600060335534801561001557600080fd5b50600060805260805161100661003660003960006107f901526110066000f3fe608060405234801561001057600080fd5b506004361061014d5760003560e01c806354fd4d50116100c3578063b5d34fcd1161007c578063b5d34fcd1461043e578063ba6d5b151461045e578063c1576c8a14610471578063d87569cc14610484578063ecb96fe614610497578063f404df8f146104aa57600080fd5b806354fd4d50146103bf578063572b6c05146103c85780636b76c085146103db5780636b868afb1461040157806377353aba146104145780638ac473191461043557600080fd5b806319b353de1161011557806319b353de1461020957806323be345c1461022c5780632519dc79146102575780632e9332d4146102775780633819bcdc1461028a5780634423c5f11461029d57600080fd5b8063089487b5146101525780631253c54614610190578063127caa88146101b05780631289b396146101eb5780631420a266146101f4575b600080fd5b61017d610160366004610ad5565b603f60209081526000928352604080842090915290825290205481565b6040519081526020015b60405180910390f35b6101a361019e366004610b0e565b6104bd565b6040516101879190610b27565b6101d66101be366004610b0e565b603e6020526000908152604090205463ffffffff1681565b60405163ffffffff9091168152602001610187565b61017d60375481565b610207610202366004610b75565b610557565b005b61021c610217366004610b9a565b6106a6565b6040519015158152602001610187565b60465461023f906001600160a01b031681565b6040516001600160a01b039091168152602001610187565b61017d610265366004610bdc565b60406020819052600091825290205481565b610207610285366004610b75565b6106e3565b61017d610298366004610bf9565b6107c6565b6103aa6102ab366004610b0e565b60346020908152600091825260409182902080546001820154600283015460038401546004850154875160e08101895260058701546001600160a01b0390811682526006880154828a01528951808b018b52600789015481526008890154818b0152828b0152600988015463ffffffff80821660608086019190915264010000000080840483166080870152680100000000000000008404831660a0870152600160601b909304821660c08601528c519081018d52600a8b01548152600b8b01549182169b81019b909b520461ffff1699890199909952600c909601549488169793841696939092169490939192909160ff8082169161010090041689565b60405161018799989796959493929190610c5f565b61017d60415481565b61021c6103d6366004610bdc565b6107f7565b6101d66103e9366004610b0e565b603d6020526000908152604090205463ffffffff1681565b603b5461023f906001600160a01b031681565b610427610422366004610b0e565b610829565b604051610187929190610d53565b61017d60335481565b61017d61044c366004610bdc565b60366020526000908152604090205481565b60455461023f906001600160a01b031681565b61023f61047f366004610b0e565b61083e565b61021c610492366004610b75565b61084f565b603a5461023f906001600160a01b031681565b6102076104b8366004610bdc565b61088b565b604260205260009081526040902080546104d690610d82565b80601f016020809104026020016040519081016040528092919081815260200182805461050290610d82565b801561054f5780601f106105245761010080835404028352916020019161054f565b820191906000526020600020905b81548152906001019060200180831161053257829003601f168201915b505050505081565b61055f6108e8565b603a54604051633d36902960e01b8152600481018590526001600160a01b039283169290911690633d369029906024016020604051808303816000875af11580156105ae573d6000803e3d6000fd5b505050506040513d601f19601f820116820180604052508101906105d29190610dbc565b6001600160a01b03161461062d5760405162461bcd60e51b815260206004820152601f60248201527f43616c6c6572206d75737420626520746865206d61726b6574206f776e65720060448201526064015b60405180910390fd5b600082815260436020526040902080546001600160a01b0319166001600160a01b038316179055817fa593acf9edc343669c7fc50d2caa3911326adef438361f0fa911be85c9e296a48261067f6108e8565b604080516001600160a01b0393841681529290911660208301520160405180910390a25050565b60006106b2848461084f565b80156106db57506001600160a01b03831660009081526044602052604090206106db908361090a565b949350505050565b6106ed828261084f565b6107495760405162461bcd60e51b815260206004820152602760248201527f466f72776172646572206d757374206265207472757374656420627920746865604482015266081b585c9ad95d60ca1b6064820152608401610624565b6107726107546108e8565b6001600160a01b03831660009081526044602052604090209061092c565b50806001600160a01b0316827f65d6b5305e8c0e58e88454a1aeecae0f55975222338b25abd0997b4d305056a16107a76108e8565b6040516001600160a01b03909116815260200160405180910390a35050565b603560205281600052604060002081815481106107e257600080fd5b90600052602060002001600091509150505481565b7f00000000000000000000000000000000000000000000000000000000000000006001600160a01b0390811691161490565b36600061083583610941565b91509150915091565b600061084982610979565b92915050565b6000828152604360205260408120546001600160a01b038381169116148061088457506045546001600160a01b038381169116145b9392505050565b8060405161089890610ab0565b6001600160a01b039091168152602001604051809103906000f0801580156108c4573d6000803e3d6000fd5b50603a80546001600160a01b0319166001600160a01b039290921691909117905550565b60006108f3336107f7565b15610905575060131936013560601c90565b503390565b6001600160a01b03811660009081526001830160205260408120541515610884565b6000610884836001600160a01b038416610a24565b366000610950836104926108e8565b156109715760008036610964601482610dd9565b9261083593929190610dfa565b610835610a73565b6000610987826104926108e8565b15610a1c5760131936013560601c6109c481604460006109a56108e8565b6001600160a01b0316815260208101919091526040016000209061090a565b6108495760405162461bcd60e51b8152602060048201526024808201527f53656e646572206d75737420617070726f7665206d61726b657420666f727761604482015263393232b960e11b6064820152608401610624565b6108496108e8565b6000818152600183016020526040812054610a6b57508154600181810184556000848152602080822090930184905584548482528286019093526040902091909155610849565b506000610849565b366000610a7f336107f7565b15610aa85760008036610a93601482610dd9565b92610aa093929190610dfa565b915091509091565b600036610aa0565b6101ac80610e2583390190565b6001600160a01b0381168114610ad257600080fd5b50565b60008060408385031215610ae857600080fd5b8235610af381610abd565b91506020830135610b0381610abd565b809150509250929050565b600060208284031215610b2057600080fd5b5035919050565b600060208083528351808285015260005b81811015610b5457858101830151858201604001528201610b38565b506000604082860101526040601f19601f8301168501019250505092915050565b60008060408385031215610b8857600080fd5b823591506020830135610b0381610abd565b600080600060608486031215610baf57600080fd5b833592506020840135610bc181610abd565b91506040840135610bd181610abd565b809150509250925092565b600060208284031215610bee57600080fd5b813561088481610abd565b60008060408385031215610c0c57600080fd5b8235610c1781610abd565b946020939093013593505050565b634e487b7160e01b600052602160045260246000fd5b60068110610c4b57610c4b610c25565b9052565b60028110610c4b57610c4b610c25565b60006102408201905060018060a01b03808c168352808b166020840152808a1660408401528860608401528760808401528087511660a084015250602086015160c08301526040860151805160e084015260208101516101008401525063ffffffff6060870151166101208301526080860151610ce561014084018263ffffffff169052565b5060a086015163ffffffff90811661016084015260c0870151811661018084015285516101a08401526020860151166101c0830152604085015161ffff166101e0830152610d37610200830185610c3b565b610d45610220830184610c4f565b9a9950505050505050505050565b60208152816020820152818360408301376000818301604090810191909152601f909201601f19160101919050565b600181811c90821680610d9657607f821691505b602082108103610db657634e487b7160e01b600052602260045260246000fd5b50919050565b600060208284031215610dce57600080fd5b815161088481610abd565b8181038181111561084957634e487b7160e01b600052601160045260246000fd5b60008085851115610e0a57600080fd5b83861115610e1757600080fd5b505082019391909203915056fe608060405234801561001057600080fd5b506040516101ac3803806101ac83398101604081905261002f91610054565b600080546001600160a01b0319166001600160a01b0392909216919091179055610084565b60006020828403121561006657600080fd5b81516001600160a01b038116811461007d57600080fd5b9392505050565b610119806100936000396000f3fe6080604052348015600f57600080fd5b506004361060325760003560e01c80633d3690291460375780636cdaa42114606e575b600080fd5b60526042366004609d565b506000546001600160a01b031690565b6040516001600160a01b03909116815260200160405180910390f35b609b607936600460b5565b600080546001600160a01b0319166001600160a01b0392909216919091179055565b005b60006020828403121560ae57600080fd5b5035919050565b60006020828403121560c657600080fd5b81356001600160a01b038116811460dc57600080fd5b939250505056fea26469706673582212206d6e86ec970e5d3034b439150eb492b6efe2a50c4a6c08b40a242a85732f658364736f6c63430008110033a26469706673582212208d018c3bf0f560d50a378dc97883b8c425a0ce39d343eaac451df8fb471b0c8564736f6c63430008110033",
    "linkReferences": {}
  },
  "methodIdentifiers": {
    "__setMarketOwner(address)": "f404df8f",
    "_lenderVolumeFilled(address)": "b5d34fcd",
    "_totalVolumeFilled()": "1289b396",
    "approveMarketForwarder(uint256,address)": "2e9332d4",
    "bidDefaultDuration(uint256)": "6b76c085",
    "bidExpirationTime(uint256)": "127caa88",
    "bidId()": "8ac47319",
    "bids(uint256)": "4423c5f1",
    "borrowerBids(address,uint256)": "3819bcdc",
    "collateralManager()": "23be345c",
    "getDataForMarket(uint256)": "77353aba",
    "getSenderForMarket(uint256)": "c1576c8a",
    "hasApprovedMarketForwarder(uint256,address,address)": "19b353de",
    "isTrustedForwarder(address)": "572b6c05",
    "isTrustedMarketForwarder(uint256,address)": "d87569cc",
    "lenderCommitmentForwarder()": "ba6d5b15",
    "lenderVolumeFilled(address,address)": "089487b5",
    "marketRegistry()": "ecb96fe6",
    "reputationManager()": "6b868afb",
    "setTrustedMarketForwarder(uint256,address)": "1420a266",
    "totalVolumeFilled(address)": "2519dc79",
    "uris(uint256)": "1253c546",
    "version()": "54fd4d50"
  },
  "id": 86
}