{
  "abi": [
    {
      "anonymous": false,
      "inputs": [
        {
          "indexed": false,
          "internalType": "address",
          "name": "_collateralAddress",
          "type": "address"
        },
        {
          "indexed": false,
          "internalType": "uint256",
          "name": "_amount",
          "type": "uint256"
        }
      ],
      "name": "CollateralDeposited",
      "type": "event"
    },
    {
      "anonymous": false,
      "inputs": [
        {
          "indexed": false,
          "internalType": "address",
          "name": "_collateralAddress",
          "type": "address"
        },
        {
          "indexed": false,
          "internalType": "uint256",
          "name": "_amount",
          "type": "uint256"
        },
        {
          "indexed": false,
          "internalType": "address",
          "name": "_recipient",
          "type": "address"
        }
      ],
      "name": "CollateralWithdrawn",
      "type": "event"
    },
    {
      "anonymous": false,
      "inputs": [
        {
          "indexed": false,
          "internalType": "uint8",
          "name": "version",
          "type": "uint8"
        }
      ],
      "name": "Initialized",
      "type": "event"
    },
    {
      "anonymous": false,
      "inputs": [
        {
          "indexed": true,
          "internalType": "address",
          "name": "previousOwner",
          "type": "address"
        },
        {
          "indexed": true,
          "internalType": "address",
          "name": "newOwner",
          "type": "address"
        }
      ],
      "name": "OwnershipTransferred",
      "type": "event"
    },
    {
      "inputs": [],
      "name": "bidId",
      "outputs": [
        {
          "internalType": "uint256",
          "name": "",
          "type": "uint256"
        }
      ],
      "stateMutability": "view",
      "type": "function"
    },
    {
      "inputs": [
        {
          "internalType": "address",
          "name": "",
          "type": "address"
        }
      ],
      "name": "collateralBalances",
      "outputs": [
        {
          "internalType": "enum CollateralType",
          "name": "_collateralType",
          "type": "uint8"
        },
        {
          "internalType": "uint256",
          "name": "_amount",
          "type": "uint256"
        },
        {
          "internalType": "uint256",
          "name": "_tokenId",
          "type": "uint256"
        },
        {
          "internalType": "address",
          "name": "_collateralAddress",
          "type": "address"
        }
      ],
      "stateMutability": "view",
      "type": "function"
    },
    {
      "inputs": [
        {
          "internalType": "enum CollateralType",
          "name": "_collateralType",
          "type": "uint8"
        },
        {
          "internalType": "address",
          "name": "_collateralAddress",
          "type": "address"
        },
        {
          "internalType": "uint256",
          "name": "_amount",
          "type": "uint256"
        },
        {
          "internalType": "uint256",
          "name": "_tokenId",
          "type": "uint256"
        }
      ],
      "name": "depositAsset",
      "outputs": [],
      "stateMutability": "payable",
      "type": "function"
    },
    {
      "inputs": [
        {
          "internalType": "address",
          "name": "_collateralAddress",
          "type": "address"
        },
        {
          "internalType": "uint256",
          "name": "_amount",
          "type": "uint256"
        }
      ],
      "name": "depositToken",
      "outputs": [],
      "stateMutability": "nonpayable",
      "type": "function"
    },
    {
      "inputs": [],
      "name": "getBid",
      "outputs": [
        {
          "internalType": "uint256",
          "name": "",
          "type": "uint256"
        }
      ],
      "stateMutability": "view",
      "type": "function"
    },
    {
      "inputs": [
        {
          "internalType": "uint256",
          "name": "_bidId",
          "type": "uint256"
        }
      ],
      "name": "initialize",
      "outputs": [],
      "stateMutability": "nonpayable",
      "type": "function"
    },
    {
      "inputs": [
        {
          "internalType": "address",
          "name": "",
          "type": "address"
        },
        {
          "internalType": "address",
          "name": "",
          "type": "address"
        },
        {
          "internalType": "uint256[]",
          "name": "_ids",
          "type": "uint256[]"
        },
        {
          "internalType": "uint256[]",
          "name": "_values",
          "type": "uint256[]"
        },
        {
          "internalType": "bytes",
          "name": "",
          "type": "bytes"
        }
      ],
      "name": "onERC1155BatchReceived",
      "outputs": [
        {
          "internalType": "bytes4",
          "name": "",
          "type": "bytes4"
        }
      ],
      "stateMutability": "nonpayable",
      "type": "function"
    },
    {
      "inputs": [
        {
          "internalType": "address",
          "name": "",
          "type": "address"
        },
        {
          "internalType": "address",
          "name": "",
          "type": "address"
        },
        {
          "internalType": "uint256",
          "name": "id",
          "type": "uint256"
        },
        {
          "internalType": "uint256",
          "name": "value",
          "type": "uint256"
        },
        {
          "internalType": "bytes",
          "name": "",
          "type": "bytes"
        }
      ],
      "name": "onERC1155Received",
      "outputs": [
        {
          "internalType": "bytes4",
          "name": "",
          "type": "bytes4"
        }
      ],
      "stateMutability": "nonpayable",
      "type": "function"
    },
    {
      "inputs": [
        {
          "internalType": "address",
          "name": "",
          "type": "address"
        },
        {
          "internalType": "address",
          "name": "",
          "type": "address"
        },
        {
          "internalType": "uint256",
          "name": "",
          "type": "uint256"
        },
        {
          "internalType": "bytes",
          "name": "",
          "type": "bytes"
        }
      ],
      "name": "onERC721Received",
      "outputs": [
        {
          "internalType": "bytes4",
          "name": "",
          "type": "bytes4"
        }
      ],
      "stateMutability": "pure",
      "type": "function"
    },
    {
      "inputs": [],
      "name": "owner",
      "outputs": [
        {
          "internalType": "address",
          "name": "",
          "type": "address"
        }
      ],
      "stateMutability": "view",
      "type": "function"
    },
    {
      "inputs": [],
      "name": "renounceOwnership",
      "outputs": [],
      "stateMutability": "nonpayable",
      "type": "function"
    },
    {
      "inputs": [
        {
          "internalType": "address",
          "name": "newOwner",
          "type": "address"
        }
      ],
      "name": "transferOwnership",
      "outputs": [],
      "stateMutability": "nonpayable",
      "type": "function"
    },
    {
      "inputs": [
        {
          "internalType": "address",
          "name": "_collateralAddress",
          "type": "address"
        },
        {
          "internalType": "uint256",
          "name": "_amount",
          "type": "uint256"
        },
        {
          "internalType": "address",
          "name": "_recipient",
          "type": "address"
        }
      ],
      "name": "withdraw",
      "outputs": [],
      "stateMutability": "nonpayable",
      "type": "function"
    }
  ],
  "bytecode": {
    "object": "0x608060405234801561001057600080fd5b5061148c806100206000396000f3fe6080604052600436106100c25760003560e01c80638ac473191161007f578063f20c929611610059578063f20c92961461025d578063f23a6e6114610270578063f2fde38b146102b6578063fe4b84df146102d657600080fd5b80638ac47319146101ff5780638da5cb5b14610215578063bc197c811461023d57600080fd5b8063099a019d146100c7578063150b7a02146100eb57806329bc969d14610149578063338b5dea146101a857806369328dec146101ca578063715018a6146101ea575b600080fd5b3480156100d357600080fd5b506065545b6040519081526020015b60405180910390f35b3480156100f757600080fd5b50610130610106366004610fe3565b7f150b7a023d4804d13e8c85fb27262cb750cf6ba9f9dd3bb30d90f482ceeb4b1f95945050505050565b6040516001600160e01b031990911681526020016100e2565b34801561015557600080fd5b50610198610164366004611052565b606660205260009081526040902080546001820154600283015460039093015460ff9092169290916001600160a01b031684565b6040516100e29493929190611083565b3480156101b457600080fd5b506101c86101c33660046110ca565b6102f6565b005b3480156101d657600080fd5b506101c86101e53660046110f4565b6103c8565b3480156101f657600080fd5b506101c8610563565b34801561020b57600080fd5b506100d860655481565b34801561022157600080fd5b506033546040516001600160a01b0390911681526020016100e2565b34801561024957600080fd5b50610130610258366004611175565b610577565b6101c861026b366004611230565b610616565b34801561027c57600080fd5b5061013061028b366004611278565b7ff23a6e612e1ff4830e658fe43f4e3cb4a5f8170bd5d9e69fb5d7a7fa9e4fdf979695505050505050565b3480156102c257600080fd5b506101c86102d1366004611052565b61070c565b3480156102e257600080fd5b506101c86102f13660046112f0565b610785565b6102fe61089c565b600081116103535760405162461bcd60e51b815260206004820152601d60248201527f4465706f73697420616d6f756e742063616e6e6f74206265207a65726f00000060448201526064015b60405180910390fd5b6103616000838360006108f6565b6001600160a01b038216600081815260666020908152604091829020805460ff19168155600181018590558251938452908301849052917fd7243f6f8212d5188fd054141cf6ea89cfc0d91facb8c3afe2f88a1358480142910160405180910390a1505050565b6103d061089c565b600082116104205760405162461bcd60e51b815260206004820152601e60248201527f576974686472617720616d6f756e742063616e6e6f74206265207a65726f0000604482015260640161034a565b6001600160a01b0383166000908152606660205260409020600181015483111561048c5760405162461bcd60e51b815260206004820152601f60248201527f4e6f20636f6c6c61746572616c2062616c616e636520666f7220617373657400604482015260640161034a565b604080516080810190915281546104fa91908390829060ff1660028111156104b6576104b661106d565b60028111156104c7576104c761106d565b815260018201546020820152600282015460408201526003909101546001600160a01b0316606090910152858585610a7f565b8281600101600082825461050e9190611309565b9091555050604080516001600160a01b0386811682526020820186905284168183015290517f5c582f045c0b9365cea3be0c0ad7deef76a1c4fe20ef1f84c153043ec35985039181900360600190a150505050565b61056b61089c565b6105756000610c19565b565b6000600186146105e85760405162461bcd60e51b815260206004820152603660248201527f4f6e6c7920616c6c6f776564206f6e65206173736574206261746368207472616044820152753739b332b9103832b9103a3930b739b0b1ba34b7b71760511b606482015260840161034a565b507fbc197c819b3e337a6f9652dd10becd7eef83032af3b9d958d3d42f669414662198975050505050505050565b61061e61089c565b6000821161066e5760405162461bcd60e51b815260206004820152601d60248201527f4465706f73697420616d6f756e742063616e6e6f74206265207a65726f000000604482015260640161034a565b61067a848484846108f6565b6001600160a01b038316600090815260666020526040902080548590829060ff191660018360028111156106b0576106b061106d565b02179055506001810183905560028101829055604080516001600160a01b0386168152602081018590527fd7243f6f8212d5188fd054141cf6ea89cfc0d91facb8c3afe2f88a1358480142910160405180910390a15050505050565b61071461089c565b6001600160a01b0381166107795760405162461bcd60e51b815260206004820152602660248201527f4f776e61626c653a206e6577206f776e657220697320746865207a65726f206160448201526564647265737360d01b606482015260840161034a565b61078281610c19565b50565b600054610100900460ff16158080156107a55750600054600160ff909116105b806107bf5750303b1580156107bf575060005460ff166001145b6108225760405162461bcd60e51b815260206004820152602e60248201527f496e697469616c697a61626c653a20636f6e747261637420697320616c72656160448201526d191e481a5b9a5d1a585b1a5e995960921b606482015260840161034a565b6000805460ff191660011790558015610845576000805461ff0019166101001790555b61084d610c6b565b60658290558015610898576000805461ff0019169055604051600181527f7f26b83ff96e1f2b6a682f133852f6798a09c465da95921460cefb38474024989060200160405180910390a15b5050565b6033546001600160a01b031633146105755760405162461bcd60e51b815260206004820181905260248201527f4f776e61626c653a2063616c6c6572206973206e6f7420746865206f776e6572604482015260640161034a565b600084600281111561090a5761090a61106d565b036109205761091b83333085610c9a565b610a79565b60018460028111156109345761093461106d565b036109f557816001146109895760405162461bcd60e51b815260206004820152601860248201527f496e636f7272656374206465706f73697420616d6f756e740000000000000000604482015260640161034a565b6040516323b872dd60e01b8152336004820152306024820152604481018290526001600160a01b038416906323b872dd906064015b600060405180830381600087803b1580156109d857600080fd5b505af11580156109ec573d6000803e3d6000fd5b50505050610a79565b6002846002811115610a0957610a0961106d565b03610a7957604051637921219560e11b81526060906001600160a01b0385169063f242432a90610a459033903090879089908890600401611380565b600060405180830381600087803b158015610a5f57600080fd5b505af1158015610a73573d6000803e3d6000fd5b50505050505b50505050565b600084516002811115610a9457610a9461106d565b03610b1957602084015160405163a9059cbb60e01b81526001600160a01b03838116600483015260248201929092529084169063a9059cbb906044016020604051808303816000875af1158015610aef573d6000803e3d6000fd5b505050506040513d601f19601f82011682018060405250810190610b1391906113ba565b50610a79565b600184516002811115610b2e57610b2e61106d565b03610bc55781600114610b835760405162461bcd60e51b815260206004820152601b60248201527f496e636f7272656374207769746864726177616c20616d6f756e740000000000604482015260640161034a565b60408481015190516323b872dd60e01b81523060048201526001600160a01b0383811660248301526044820192909252908416906323b872dd906064016109be565b600284516002811115610bda57610bda61106d565b03610a79576040808501519051637921219560e11b81526060916001600160a01b0386169163f242432a91610a45913091879189908890600401611380565b603380546001600160a01b038381166001600160a01b0319831681179093556040519116919082907f8be0079c531659141344cd1fd0a4f28419497f9722a3daafe3b4186f6b6457e090600090a35050565b600054610100900460ff16610c925760405162461bcd60e51b815260040161034a906113dc565b610575610cf4565b604080516001600160a01b0385811660248301528416604482015260648082018490528251808303909101815260849091019091526020810180516001600160e01b03166323b872dd60e01b179052610a79908590610d24565b600054610100900460ff16610d1b5760405162461bcd60e51b815260040161034a906113dc565b61057533610c19565b6000610d79826040518060400160405280602081526020017f5361666545524332303a206c6f772d6c6576656c2063616c6c206661696c6564815250856001600160a01b0316610dfb9092919063ffffffff16565b805190915015610df65780806020019051810190610d9791906113ba565b610df65760405162461bcd60e51b815260206004820152602a60248201527f5361666545524332303a204552433230206f7065726174696f6e20646964206e6044820152691bdd081cdd58d8d9595960b21b606482015260840161034a565b505050565b6060610e0a8484600085610e14565b90505b9392505050565b606082471015610e755760405162461bcd60e51b815260206004820152602660248201527f416464726573733a20696e73756666696369656e742062616c616e636520666f6044820152651c8818d85b1b60d21b606482015260840161034a565b6001600160a01b0385163b610ecc5760405162461bcd60e51b815260206004820152601d60248201527f416464726573733a2063616c6c20746f206e6f6e2d636f6e7472616374000000604482015260640161034a565b600080866001600160a01b03168587604051610ee89190611427565b60006040518083038185875af1925050503d8060008114610f25576040519150601f19603f3d011682016040523d82523d6000602084013e610f2a565b606091505b5091509150610f3a828286610f45565b979650505050505050565b60608315610f54575081610e0d565b825115610f645782518084602001fd5b8160405162461bcd60e51b815260040161034a9190611443565b80356001600160a01b0381168114610f9557600080fd5b919050565b60008083601f840112610fac57600080fd5b50813567ffffffffffffffff811115610fc457600080fd5b602083019150836020828501011115610fdc57600080fd5b9250929050565b600080600080600060808688031215610ffb57600080fd5b61100486610f7e565b945061101260208701610f7e565b935060408601359250606086013567ffffffffffffffff81111561103557600080fd5b61104188828901610f9a565b969995985093965092949392505050565b60006020828403121561106457600080fd5b610e0d82610f7e565b634e487b7160e01b600052602160045260246000fd5b60808101600386106110a557634e487b7160e01b600052602160045260246000fd5b948152602081019390935260408301919091526001600160a01b031660609091015290565b600080604083850312156110dd57600080fd5b6110e683610f7e565b946020939093013593505050565b60008060006060848603121561110957600080fd5b61111284610f7e565b92506020840135915061112760408501610f7e565b90509250925092565b60008083601f84011261114257600080fd5b50813567ffffffffffffffff81111561115a57600080fd5b6020830191508360208260051b8501011115610fdc57600080fd5b60008060008060008060008060a0898b03121561119157600080fd5b61119a89610f7e565b97506111a860208a01610f7e565b9650604089013567ffffffffffffffff808211156111c557600080fd5b6111d18c838d01611130565b909850965060608b01359150808211156111ea57600080fd5b6111f68c838d01611130565b909650945060808b013591508082111561120f57600080fd5b5061121c8b828c01610f9a565b999c989b5096995094979396929594505050565b6000806000806080858703121561124657600080fd5b84356003811061125557600080fd5b935061126360208601610f7e565b93969395505050506040820135916060013590565b60008060008060008060a0878903121561129157600080fd5b61129a87610f7e565b95506112a860208801610f7e565b94506040870135935060608701359250608087013567ffffffffffffffff8111156112d257600080fd5b6112de89828a01610f9a565b979a9699509497509295939492505050565b60006020828403121561130257600080fd5b5035919050565b8181038181111561132a57634e487b7160e01b600052601160045260246000fd5b92915050565b60005b8381101561134b578181015183820152602001611333565b50506000910152565b6000815180845261136c816020860160208601611330565b601f01601f19169290920160200192915050565b6001600160a01b03868116825285166020820152604081018490526060810183905260a060808201819052600090610f3a90830184611354565b6000602082840312156113cc57600080fd5b81518015158114610e0d57600080fd5b6020808252602b908201527f496e697469616c697a61626c653a20636f6e7472616374206973206e6f74206960408201526a6e697469616c697a696e6760a81b606082015260800190565b60008251611439818460208701611330565b9190910192915050565b602081526000610e0d602083018461135456fea26469706673582212201362d69398efae63a6fff7a0b90ef228b48112bd04c10075f7e00851757aa4a264736f6c63430008110033",
    "linkReferences": {}
  },
  "methodIdentifiers": {
    "bidId()": "8ac47319",
    "collateralBalances(address)": "29bc969d",
    "depositAsset(uint8,address,uint256,uint256)": "f20c9296",
    "depositToken(address,uint256)": "338b5dea",
    "getBid()": "099a019d",
    "initialize(uint256)": "fe4b84df",
    "onERC1155BatchReceived(address,address,uint256[],uint256[],bytes)": "bc197c81",
    "onERC1155Received(address,address,uint256,uint256,bytes)": "f23a6e61",
    "onERC721Received(address,address,uint256,bytes)": "150b7a02",
    "owner()": "8da5cb5b",
    "renounceOwnership()": "715018a6",
    "transferOwnership(address)": "f2fde38b",
    "withdraw(address,uint256,address)": "69328dec"
  },
  "id": 23
}