{
  "abi": [
    {
      "inputs": [
        {
          "internalType": "address",
          "name": "_protocolAddress",
          "type": "address"
        }
      ],
      "stateMutability": "nonpayable",
      "type": "constructor"
    },
    {
      "anonymous": false,
      "inputs": [
        {
          "indexed": true,
          "internalType": "uint256",
          "name": "bidId",
          "type": "uint256"
        },
        {
          "indexed": true,
          "internalType": "address",
          "name": "msgsender",
          "type": "address"
        }
      ],
      "name": "AutoPaidLoanMinimum",
      "type": "event"
    },
    {
      "anonymous": false,
      "inputs": [
        {
          "indexed": true,
          "internalType": "uint256",
          "name": "bidId",
          "type": "uint256"
        },
        {
          "indexed": false,
          "internalType": "bool",
          "name": "enabled",
          "type": "bool"
        }
      ],
      "name": "AutoPayEnabled",
      "type": "event"
    },
    {
      "anonymous": false,
      "inputs": [
        {
          "indexed": false,
          "internalType": "uint16",
          "name": "newFee",
          "type": "uint16"
        },
        {
          "indexed": false,
          "internalType": "uint16",
          "name": "oldFee",
          "type": "uint16"
        }
      ],
      "name": "AutopayFeeSet",
      "type": "event"
    },
    {
      "anonymous": false,
      "inputs": [
        {
          "indexed": false,
          "internalType": "uint8",
          "name": "version",
          "type": "uint8"
        }
      ],
      "name": "Initialized",
      "type": "event"
    },
    {
      "anonymous": false,
      "inputs": [
        {
          "indexed": true,
          "internalType": "address",
          "name": "previousOwner",
          "type": "address"
        },
        {
          "indexed": true,
          "internalType": "address",
          "name": "newOwner",
          "type": "address"
        }
      ],
      "name": "OwnershipTransferred",
      "type": "event"
    },
    {
      "inputs": [
        {
          "internalType": "uint256",
          "name": "_bidId",
          "type": "uint256"
        }
      ],
      "name": "autoPayLoanMinimum",
      "outputs": [],
      "stateMutability": "nonpayable",
      "type": "function"
    },
    {
      "inputs": [],
      "name": "getAutopayFee",
      "outputs": [
        {
          "internalType": "uint16",
          "name": "",
          "type": "uint16"
        }
      ],
      "stateMutability": "view",
      "type": "function"
    },
    {
      "inputs": [
        {
          "internalType": "uint256",
          "name": "_bidId",
          "type": "uint256"
        }
      ],
      "name": "getEstimatedMinimumPayment",
      "outputs": [
        {
          "internalType": "uint256",
          "name": "_amount",
          "type": "uint256"
        }
      ],
      "stateMutability": "nonpayable",
      "type": "function"
    },
    {
      "inputs": [
        {
          "internalType": "uint16",
          "name": "_fee",
          "type": "uint16"
        },
        {
          "internalType": "address",
          "name": "_owner",
          "type": "address"
        }
      ],
      "name": "initialize",
      "outputs": [],
      "stateMutability": "nonpayable",
      "type": "function"
    },
    {
      "inputs": [
        {
          "internalType": "uint256",
          "name": "",
          "type": "uint256"
        }
      ],
      "name": "loanAutoPayEnabled",
      "outputs": [
        {
          "internalType": "bool",
          "name": "",
          "type": "bool"
        }
      ],
      "stateMutability": "view",
      "type": "function"
    },
    {
      "inputs": [],
      "name": "owner",
      "outputs": [
        {
          "internalType": "address",
          "name": "",
          "type": "address"
        }
      ],
      "stateMutability": "view",
      "type": "function"
    },
    {
      "inputs": [],
      "name": "renounceOwnership",
      "outputs": [],
      "stateMutability": "nonpayable",
      "type": "function"
    },
    {
      "inputs": [
        {
          "internalType": "uint256",
          "name": "_bidId",
          "type": "uint256"
        },
        {
          "internalType": "bool",
          "name": "_autoPayEnabled",
          "type": "bool"
        }
      ],
      "name": "setAutoPayEnabled",
      "outputs": [],
      "stateMutability": "nonpayable",
      "type": "function"
    },
    {
      "inputs": [
        {
          "internalType": "uint16",
          "name": "_newFee",
          "type": "uint16"
        }
      ],
      "name": "setAutopayFee",
      "outputs": [],
      "stateMutability": "nonpayable",
      "type": "function"
    },
    {
      "inputs": [],
      "name": "tellerV2",
      "outputs": [
        {
          "internalType": "contract ITellerV2",
          "name": "",
          "type": "address"
        }
      ],
      "stateMutability": "view",
      "type": "function"
    },
    {
      "inputs": [
        {
          "internalType": "address",
          "name": "newOwner",
          "type": "address"
        }
      ],
      "name": "transferOwnership",
      "outputs": [],
      "stateMutability": "nonpayable",
      "type": "function"
    }
  ],
  "bytecode": {
    "object": "0x60a060405234801561001057600080fd5b506040516110d43803806110d483398101604081905261002f91610040565b6001600160a01b0316608052610070565b60006020828403121561005257600080fd5b81516001600160a01b038116811461006957600080fd5b9392505050565b60805161101f6100b560003960008181610156015281816101e8015281816103a40152818161043b0152818161051c015281816105b60152610685015261101f6000f3fe608060405234801561001057600080fd5b50600436106100a95760003560e01c80638e648fbb116100715780638e648fbb1461013b578063941675db14610151578063a90f4b9b14610178578063b0b69ed414610199578063e0dbcde5146101ac578063f2fde38b146101bf57600080fd5b806310a34194146100ae5780631a1a4257146100c35780632fa7b9fd146100fb578063715018a61461010e5780638da5cb5b14610116575b600080fd5b6100c16100bc366004610cb4565b6101d2565b005b6100e66100d1366004610ce4565b60656020526000908152604090205460ff1681565b60405190151581526020015b60405180910390f35b6100c1610109366004610ce4565b610321565b6100c161064e565b6033546001600160a01b03165b6040516001600160a01b0390911681526020016100f2565b60665460405161ffff90911681526020016100f2565b6101237f000000000000000000000000000000000000000000000000000000000000000081565b61018b610186366004610ce4565b610662565b6040519081526020016100f2565b6100c16101a7366004610d14565b610709565b6100c16101ba366004610d44565b61071d565b6100c16101cd366004610d70565b61083a565b604051633ef0a2f760e01b8152600481018390527f00000000000000000000000000000000000000000000000000000000000000006001600160a01b031690633ef0a2f790602401602060405180830381865afa158015610237573d6000803e3d6000fd5b505050506040513d601f19601f8201168201806040525081019061025b9190610d8d565b6001600160a01b0316336001600160a01b0316146102ca5760405162461bcd60e51b815260206004820152602160248201527f4f6e6c792074686520626f72726f7765722063616e20736574206175746f70616044820152607960f81b60648201526084015b60405180910390fd5b600082815260656020908152604091829020805460ff1916841515908117909155915191825283917fd5509862e358cd409ee88c54179adfea59890ed720d2e0b2b4bfec845cb7e23e910160405180910390a25050565b60008181526065602052604090205460ff1661038b5760405162461bcd60e51b8152602060048201526024808201527f4175746f706179206973206e6f7420656e61626c656420666f722074686174206044820152633637b0b760e11b60648201526084016102c1565b604051631457303360e01b8152600481018290526000907f00000000000000000000000000000000000000000000000000000000000000006001600160a01b031690631457303390602401602060405180830381865afa1580156103f3573d6000803e3d6000fd5b505050506040513d601f19601f820116820180604052508101906104179190610d8d565b604051633ef0a2f760e01b8152600481018490529091506000906001600160a01b037f00000000000000000000000000000000000000000000000000000000000000001690633ef0a2f790602401602060405180830381865afa158015610482573d6000803e3d6000fd5b505050506040513d601f19601f820116820180604052508101906104a69190610d8d565b905060006104b384610662565b905060006104ce6104c760665461ffff1690565b83906108b0565b90506104f183306104df8486610dc0565b6001600160a01b0388169291906108cb565b6105056001600160a01b038516338361093c565b60405163095ea7b360e01b81526001600160a01b037f0000000000000000000000000000000000000000000000000000000000000000811660048301526024820184905285169063095ea7b3906044016020604051808303816000875af1158015610574573d6000803e3d6000fd5b505050506040513d601f19601f820116820180604052508101906105989190610dd3565b50604051638a700b5360e01b815260048101869052602481018390527f00000000000000000000000000000000000000000000000000000000000000006001600160a01b031690638a700b5390604401600060405180830381600087803b15801561060257600080fd5b505af1158015610616573d6000803e3d6000fd5b50506040513392508791507f19795cc98ca16b7ef5c8da6b881e6d974b70b5ac32e61432bae368f9511229aa90600090a35050505050565b61065661096c565b61066060006109c6565b565b60405163d974cc5760e01b81526004810182905260009081906001600160a01b037f0000000000000000000000000000000000000000000000000000000000000000169063d974cc57906024016040805180830381865afa1580156106cb573d6000803e3d6000fd5b505050506040513d601f19601f820116820180604052508101906106ef9190610df0565b6020810151815191925061070291610dc0565b9392505050565b61071161096c565b61071a81610a18565b50565b600054610100900460ff161580801561073d5750600054600160ff909116105b806107575750303b158015610757575060005460ff166001145b6107ba5760405162461bcd60e51b815260206004820152602e60248201527f496e697469616c697a61626c653a20636f6e747261637420697320616c72656160448201526d191e481a5b9a5d1a585b1a5e995960921b60648201526084016102c1565b6000805460ff1916600117905580156107dd576000805461ff0019166101001790555b6107e6826109c6565b6107ef83610a18565b8015610835576000805461ff0019169055604051600181527f7f26b83ff96e1f2b6a682f133852f6798a09c465da95921460cefb38474024989060200160405180910390a15b505050565b61084261096c565b6001600160a01b0381166108a75760405162461bcd60e51b815260206004820152602660248201527f4f776e61626c653a206e6577206f776e657220697320746865207a65726f206160448201526564647265737360d01b60648201526084016102c1565b61071a816109c6565b60006108c2838361ffff166002610a81565b90505b92915050565b6040516001600160a01b03808516602483015283166044820152606481018290526109369085906323b872dd60e01b906084015b60408051601f198184030181529190526020810180516001600160e01b03166001600160e01b031990931692909217909152610aa8565b50505050565b6040516001600160a01b03831660248201526044810182905261083590849063a9059cbb60e01b906064016108ff565b6033546001600160a01b031633146106605760405162461bcd60e51b815260206004820181905260248201527f4f776e61626c653a2063616c6c6572206973206e6f7420746865206f776e657260448201526064016102c1565b603380546001600160a01b038381166001600160a01b0319831681179093556040519116919082907f8be0079c531659141344cd1fd0a4f28419497f9722a3daafe3b4186f6b6457e090600090a35050565b60665461ffff90811690821603610a2c5750565b6066805461ffff83811661ffff198316811790935560408051938452911660208301819052917f9ea45a732f370dc854e5140c35197eab50d654de8b22b87766b50cc29c7c9cb3910160405180910390a15050565b6000610a8c82610b7a565b610a968486610e4d565b610aa09190610e64565b949350505050565b6000610afd826040518060400160405280602081526020017f5361666545524332303a206c6f772d6c6576656c2063616c6c206661696c6564815250856001600160a01b0316610b929092919063ffffffff16565b8051909150156108355780806020019051810190610b1b9190610dd3565b6108355760405162461bcd60e51b815260206004820152602a60248201527f5361666545524332303a204552433230206f7065726174696f6e20646964206e6044820152691bdd081cdd58d8d9595960b21b60648201526084016102c1565b6000610b8782600a610f6a565b6108c5906064610e4d565b6060610aa08484600085856001600160a01b0385163b610bf45760405162461bcd60e51b815260206004820152601d60248201527f416464726573733a2063616c6c20746f206e6f6e2d636f6e747261637400000060448201526064016102c1565b600080866001600160a01b03168587604051610c109190610f9a565b60006040518083038185875af1925050503d8060008114610c4d576040519150601f19603f3d011682016040523d82523d6000602084013e610c52565b606091505b5091509150610c62828286610c6d565b979650505050505050565b60608315610c7c575081610702565b825115610c8c5782518084602001fd5b8160405162461bcd60e51b81526004016102c19190610fb6565b801515811461071a57600080fd5b60008060408385031215610cc757600080fd5b823591506020830135610cd981610ca6565b809150509250929050565b600060208284031215610cf657600080fd5b5035919050565b803561ffff81168114610d0f57600080fd5b919050565b600060208284031215610d2657600080fd5b6108c282610cfd565b6001600160a01b038116811461071a57600080fd5b60008060408385031215610d5757600080fd5b610d6083610cfd565b91506020830135610cd981610d2f565b600060208284031215610d8257600080fd5b813561070281610d2f565b600060208284031215610d9f57600080fd5b815161070281610d2f565b634e487b7160e01b600052601160045260246000fd5b808201808211156108c5576108c5610daa565b600060208284031215610de557600080fd5b815161070281610ca6565b600060408284031215610e0257600080fd5b6040516040810181811067ffffffffffffffff82111715610e3357634e487b7160e01b600052604160045260246000fd5b604052825181526020928301519281019290925250919050565b80820281158282048414176108c5576108c5610daa565b600082610e8157634e487b7160e01b600052601260045260246000fd5b500490565b600181815b80851115610ec1578160001904821115610ea757610ea7610daa565b80851615610eb457918102915b93841c9390800290610e8b565b509250929050565b600082610ed8575060016108c5565b81610ee5575060006108c5565b8160018114610efb5760028114610f0557610f21565b60019150506108c5565b60ff841115610f1657610f16610daa565b50506001821b6108c5565b5060208310610133831016604e8410600b8410161715610f44575081810a6108c5565b610f4e8383610e86565b8060001904821115610f6257610f62610daa565b029392505050565b60006108c28383610ec9565b60005b83811015610f91578181015183820152602001610f79565b50506000910152565b60008251610fac818460208701610f76565b9190910192915050565b6020815260008251806020840152610fd5816040850160208701610f76565b601f01601f1916919091016040019291505056fea264697066735822122014ed7de5c397e5238ba5c4c911a1227ec8223f7b8aaf2e329cffd09ed90dae8164736f6c63430008110033",
    "linkReferences": {}
  },
  "methodIdentifiers": {
    "autoPayLoanMinimum(uint256)": "2fa7b9fd",
    "getAutopayFee()": "8e648fbb",
    "getEstimatedMinimumPayment(uint256)": "a90f4b9b",
    "initialize(uint16,address)": "e0dbcde5",
    "loanAutoPayEnabled(uint256)": "1a1a4257",
    "owner()": "8da5cb5b",
    "renounceOwnership()": "715018a6",
    "setAutoPayEnabled(uint256,bool)": "10a34194",
    "setAutopayFee(uint16)": "b0b69ed4",
    "tellerV2()": "941675db",
    "transferOwnership(address)": "f2fde38b"
  },
  "id": 9
}