{
  "abi": [
    {
      "inputs": [
        {
          "internalType": "address",
          "name": "",
          "type": "address"
        }
      ],
      "name": "_lenderVolumeFilled",
      "outputs": [
        {
          "internalType": "uint256",
          "name": "",
          "type": "uint256"
        }
      ],
      "stateMutability": "view",
      "type": "function"
    },
    {
      "inputs": [],
      "name": "_totalVolumeFilled",
      "outputs": [
        {
          "internalType": "uint256",
          "name": "",
          "type": "uint256"
        }
      ],
      "stateMutability": "view",
      "type": "function"
    },
    {
      "inputs": [
        {
          "internalType": "uint256",
          "name": "",
          "type": "uint256"
        }
      ],
      "name": "bidDefaultDuration",
      "outputs": [
        {
          "internalType": "uint32",
          "name": "",
          "type": "uint32"
        }
      ],
      "stateMutability": "view",
      "type": "function"
    },
    {
      "inputs": [
        {
          "internalType": "uint256",
          "name": "",
          "type": "uint256"
        }
      ],
      "name": "bidExpirationTime",
      "outputs": [
        {
          "internalType": "uint32",
          "name": "",
          "type": "uint32"
        }
      ],
      "stateMutability": "view",
      "type": "function"
    },
    {
      "inputs": [],
      "name": "bidId",
      "outputs": [
        {
          "internalType": "uint256",
          "name": "",
          "type": "uint256"
        }
      ],
      "stateMutability": "view",
      "type": "function"
    },
    {
      "inputs": [
        {
          "internalType": "uint256",
          "name": "",
          "type": "uint256"
        }
      ],
      "name": "bids",
      "outputs": [
        {
          "internalType": "address",
          "name": "borrower",
          "type": "address"
        },
        {
          "internalType": "address",
          "name": "receiver",
          "type": "address"
        },
        {
          "internalType": "address",
          "name": "lender",
          "type": "address"
        },
        {
          "internalType": "uint256",
          "name": "marketplaceId",
          "type": "uint256"
        },
        {
          "internalType": "bytes32",
          "name": "_metadataURI",
          "type": "bytes32"
        },
        {
          "components": [
            {
              "internalType": "contract ERC20",
              "name": "lendingToken",
              "type": "address"
            },
            {
              "internalType": "uint256",
              "name": "principal",
              "type": "uint256"
            },
            {
              "components": [
                {
                  "internalType": "uint256",
                  "name": "principal",
                  "type": "uint256"
                },
                {
                  "internalType": "uint256",
                  "name": "interest",
                  "type": "uint256"
                }
              ],
              "internalType": "struct Payment",
              "name": "totalRepaid",
              "type": "tuple"
            },
            {
              "internalType": "uint32",
              "name": "timestamp",
              "type": "uint32"
            },
            {
              "internalType": "uint32",
              "name": "acceptedTimestamp",
              "type": "uint32"
            },
            {
              "internalType": "uint32",
              "name": "lastRepaidTimestamp",
              "type": "uint32"
            },
            {
              "internalType": "uint32",
              "name": "loanDuration",
              "type": "uint32"
            }
          ],
          "internalType": "struct LoanDetails",
          "name": "loanDetails",
          "type": "tuple"
        },
        {
          "components": [
            {
              "internalType": "uint256",
              "name": "paymentCycleAmount",
              "type": "uint256"
            },
            {
              "internalType": "uint32",
              "name": "paymentCycle",
              "type": "uint32"
            },
            {
              "internalType": "uint16",
              "name": "APR",
              "type": "uint16"
            }
          ],
          "internalType": "struct Terms",
          "name": "terms",
          "type": "tuple"
        },
        {
          "internalType": "enum BidState",
          "name": "state",
          "type": "uint8"
        },
        {
          "internalType": "enum PaymentType",
          "name": "paymentType",
          "type": "uint8"
        }
      ],
      "stateMutability": "view",
      "type": "function"
    },
    {
      "inputs": [
        {
          "internalType": "address",
          "name": "",
          "type": "address"
        },
        {
          "internalType": "uint256",
          "name": "",
          "type": "uint256"
        }
      ],
      "name": "borrowerBids",
      "outputs": [
        {
          "internalType": "uint256",
          "name": "",
          "type": "uint256"
        }
      ],
      "stateMutability": "view",
      "type": "function"
    },
    {
      "inputs": [
        {
          "internalType": "uint256",
          "name": "_bidId",
          "type": "uint256"
        },
        {
          "internalType": "uint256",
          "name": "_timestamp",
          "type": "uint256"
        }
      ],
      "name": "calculateAmountDue",
      "outputs": [
        {
          "components": [
            {
              "internalType": "uint256",
              "name": "principal",
              "type": "uint256"
            },
            {
              "internalType": "uint256",
              "name": "interest",
              "type": "uint256"
            }
          ],
          "internalType": "struct Payment",
          "name": "due",
          "type": "tuple"
        }
      ],
      "stateMutability": "view",
      "type": "function"
    },
    {
      "inputs": [
        {
          "internalType": "uint256",
          "name": "_bidId",
          "type": "uint256"
        }
      ],
      "name": "calculateAmountDue",
      "outputs": [
        {
          "components": [
            {
              "internalType": "uint256",
              "name": "principal",
              "type": "uint256"
            },
            {
              "internalType": "uint256",
              "name": "interest",
              "type": "uint256"
            }
          ],
          "internalType": "struct Payment",
          "name": "due",
          "type": "tuple"
        }
      ],
      "stateMutability": "view",
      "type": "function"
    },
    {
      "inputs": [],
      "name": "collateralManager",
      "outputs": [
        {
          "internalType": "contract ICollateralManager",
          "name": "",
          "type": "address"
        }
      ],
      "stateMutability": "view",
      "type": "function"
    },
    {
      "inputs": [
        {
          "internalType": "uint256",
          "name": "_bidId",
          "type": "uint256"
        }
      ],
      "name": "getBidState",
      "outputs": [
        {
          "internalType": "enum BidState",
          "name": "",
          "type": "uint8"
        }
      ],
      "stateMutability": "view",
      "type": "function"
    },
    {
      "inputs": [
        {
          "internalType": "address",
          "name": "_borrower",
          "type": "address"
        }
      ],
      "name": "getBorrowerActiveLoanIds",
      "outputs": [
        {
          "internalType": "uint256[]",
          "name": "",
          "type": "uint256[]"
        }
      ],
      "stateMutability": "view",
      "type": "function"
    },
    {
      "inputs": [
        {
          "internalType": "uint256",
          "name": "_bidId",
          "type": "uint256"
        }
      ],
      "name": "getLoanBorrower",
      "outputs": [
        {
          "internalType": "address",
          "name": "borrower_",
          "type": "address"
        }
      ],
      "stateMutability": "view",
      "type": "function"
    },
    {
      "inputs": [
        {
          "internalType": "uint256",
          "name": "_bidId",
          "type": "uint256"
        }
      ],
      "name": "getLoanDetails",
      "outputs": [
        {
          "components": [
            {
              "internalType": "contract ERC20",
              "name": "lendingToken",
              "type": "address"
            },
            {
              "internalType": "uint256",
              "name": "principal",
              "type": "uint256"
            },
            {
              "components": [
                {
                  "internalType": "uint256",
                  "name": "principal",
                  "type": "uint256"
                },
                {
                  "internalType": "uint256",
                  "name": "interest",
                  "type": "uint256"
                }
              ],
              "internalType": "struct Payment",
              "name": "totalRepaid",
              "type": "tuple"
            },
            {
              "internalType": "uint32",
              "name": "timestamp",
              "type": "uint32"
            },
            {
              "internalType": "uint32",
              "name": "acceptedTimestamp",
              "type": "uint32"
            },
            {
              "internalType": "uint32",
              "name": "lastRepaidTimestamp",
              "type": "uint32"
            },
            {
              "internalType": "uint32",
              "name": "loanDuration",
              "type": "uint32"
            }
          ],
          "internalType": "struct LoanDetails",
          "name": "",
          "type": "tuple"
        }
      ],
      "stateMutability": "view",
      "type": "function"
    },
    {
      "inputs": [
        {
          "internalType": "uint256",
          "name": "_bidId",
          "type": "uint256"
        }
      ],
      "name": "getLoanLender",
      "outputs": [
        {
          "internalType": "address",
          "name": "lender_",
          "type": "address"
        }
      ],
      "stateMutability": "view",
      "type": "function"
    },
    {
      "inputs": [
        {
          "internalType": "uint256",
          "name": "_bidId",
          "type": "uint256"
        }
      ],
      "name": "getLoanLendingToken",
      "outputs": [
        {
          "internalType": "address",
          "name": "token_",
          "type": "address"
        }
      ],
      "stateMutability": "view",
      "type": "function"
    },
    {
      "inputs": [
        {
          "internalType": "uint256",
          "name": "_bidId",
          "type": "uint256"
        }
      ],
      "name": "isLoanDefaulted",
      "outputs": [
        {
          "internalType": "bool",
          "name": "",
          "type": "bool"
        }
      ],
      "stateMutability": "view",
      "type": "function"
    },
    {
      "inputs": [
        {
          "internalType": "uint256",
          "name": "_bidId",
          "type": "uint256"
        }
      ],
      "name": "isPaymentLate",
      "outputs": [
        {
          "internalType": "bool",
          "name": "",
          "type": "bool"
        }
      ],
      "stateMutability": "view",
      "type": "function"
    },
    {
      "inputs": [
        {
          "internalType": "uint256",
          "name": "_bidId",
          "type": "uint256"
        }
      ],
      "name": "lenderAcceptBid",
      "outputs": [
        {
          "internalType": "uint256",
          "name": "amountToProtocol",
          "type": "uint256"
        },
        {
          "internalType": "uint256",
          "name": "amountToMarketplace",
          "type": "uint256"
        },
        {
          "internalType": "uint256",
          "name": "amountToBorrower",
          "type": "uint256"
        }
      ],
      "stateMutability": "nonpayable",
      "type": "function"
    },
    {
      "inputs": [],
      "name": "lenderCommitmentForwarder",
      "outputs": [
        {
          "internalType": "address",
          "name": "",
          "type": "address"
        }
      ],
      "stateMutability": "view",
      "type": "function"
    },
    {
      "inputs": [
        {
          "internalType": "address",
          "name": "",
          "type": "address"
        },
        {
          "internalType": "address",
          "name": "",
          "type": "address"
        }
      ],
      "name": "lenderVolumeFilled",
      "outputs": [
        {
          "internalType": "uint256",
          "name": "",
          "type": "uint256"
        }
      ],
      "stateMutability": "view",
      "type": "function"
    },
    {
      "inputs": [],
      "name": "marketRegistry",
      "outputs": [
        {
          "internalType": "contract IMarketRegistry",
          "name": "",
          "type": "address"
        }
      ],
      "stateMutability": "view",
      "type": "function"
    },
    {
      "inputs": [
        {
          "internalType": "uint256",
          "name": "_bidId",
          "type": "uint256"
        },
        {
          "internalType": "uint256",
          "name": "_amount",
          "type": "uint256"
        }
      ],
      "name": "repayLoan",
      "outputs": [],
      "stateMutability": "nonpayable",
      "type": "function"
    },
    {
      "inputs": [
        {
          "internalType": "uint256",
          "name": "_bidId",
          "type": "uint256"
        }
      ],
      "name": "repayLoanFull",
      "outputs": [],
      "stateMutability": "nonpayable",
      "type": "function"
    },
    {
      "inputs": [
        {
          "internalType": "uint256",
          "name": "_bidId",
          "type": "uint256"
        }
      ],
      "name": "repayLoanMinimum",
      "outputs": [],
      "stateMutability": "nonpayable",
      "type": "function"
    },
    {
      "inputs": [],
      "name": "reputationManager",
      "outputs": [
        {
          "internalType": "contract IReputationManager",
          "name": "",
          "type": "address"
        }
      ],
      "stateMutability": "view",
      "type": "function"
    },
    {
      "inputs": [
        {
          "internalType": "uint256",
          "name": "_bidId",
          "type": "uint256"
        },
        {
          "internalType": "uint32",
          "name": "_timestamp",
          "type": "uint32"
        }
      ],
      "name": "setLastRepaidTimestamp",
      "outputs": [],
      "stateMutability": "nonpayable",
      "type": "function"
    },
    {
      "inputs": [
        {
          "internalType": "address",
          "name": "_marketRegistry",
          "type": "address"
        }
      ],
      "name": "setMarketRegistry",
      "outputs": [],
      "stateMutability": "nonpayable",
      "type": "function"
    },
    {
      "inputs": [
        {
          "internalType": "address",
          "name": "_lendingToken",
          "type": "address"
        },
        {
          "internalType": "uint256",
          "name": "_marketId",
          "type": "uint256"
        },
        {
          "internalType": "uint256",
          "name": "_principal",
          "type": "uint256"
        },
        {
          "internalType": "uint32",
          "name": "_duration",
          "type": "uint32"
        },
        {
          "internalType": "uint16",
          "name": "",
          "type": "uint16"
        },
        {
          "internalType": "string",
          "name": "",
          "type": "string"
        },
        {
          "internalType": "address",
          "name": "_receiver",
          "type": "address"
        }
      ],
      "name": "submitBid",
      "outputs": [
        {
          "internalType": "uint256",
          "name": "bidId_",
          "type": "uint256"
        }
      ],
      "stateMutability": "nonpayable",
      "type": "function"
    },
    {
      "inputs": [
        {
          "internalType": "address",
          "name": "_lendingToken",
          "type": "address"
        },
        {
          "internalType": "uint256",
          "name": "_marketplaceId",
          "type": "uint256"
        },
        {
          "internalType": "uint256",
          "name": "_principal",
          "type": "uint256"
        },
        {
          "internalType": "uint32",
          "name": "_duration",
          "type": "uint32"
        },
        {
          "internalType": "uint16",
          "name": "_APR",
          "type": "uint16"
        },
        {
          "internalType": "string",
          "name": "_metadataURI",
          "type": "string"
        },
        {
          "internalType": "address",
          "name": "_receiver",
          "type": "address"
        },
        {
          "components": [
            {
              "internalType": "enum CollateralType",
              "name": "_collateralType",
              "type": "uint8"
            },
            {
              "internalType": "uint256",
              "name": "_amount",
              "type": "uint256"
            },
            {
              "internalType": "uint256",
              "name": "_tokenId",
              "type": "uint256"
            },
            {
              "internalType": "address",
              "name": "_collateralAddress",
              "type": "address"
            }
          ],
          "internalType": "struct Collateral[]",
          "name": "_collateralInfo",
          "type": "tuple[]"
        }
      ],
      "name": "submitBid",
      "outputs": [
        {
          "internalType": "uint256",
          "name": "bidId_",
          "type": "uint256"
        }
      ],
      "stateMutability": "nonpayable",
      "type": "function"
    },
    {
      "inputs": [
        {
          "internalType": "address",
          "name": "",
          "type": "address"
        }
      ],
      "name": "totalVolumeFilled",
      "outputs": [
        {
          "internalType": "uint256",
          "name": "",
          "type": "uint256"
        }
      ],
      "stateMutability": "view",
      "type": "function"
    },
    {
      "inputs": [
        {
          "internalType": "uint256",
          "name": "",
          "type": "uint256"
        }
      ],
      "name": "uris",
      "outputs": [
        {
          "internalType": "string",
          "name": "",
          "type": "string"
        }
      ],
      "stateMutability": "view",
      "type": "function"
    },
    {
      "inputs": [],
      "name": "version",
      "outputs": [
        {
          "internalType": "uint256",
          "name": "",
          "type": "uint256"
        }
      ],
      "stateMutability": "view",
      "type": "function"
    }
  ],
  "bytecode": {
    "object": "0x60806040526000805534801561001457600080fd5b50611551806100246000396000f3fe608060405234801561001057600080fd5b50600436106101fb5760003560e01c80636b76c0851161011a578063a8cb5d68116100ad578063d4eda4cf1161007c578063d4eda4cf146105d2578063d8579704146106a3578063d974cc57146106d3578063e8cbab0914610276578063ecb96fe6146106e657600080fd5b8063a8cb5d681461060f578063b5d34fcd1461063d578063ba6d5b151461065d578063bf77ffae1461067057600080fd5b80638a700b53116100e95780638a700b53146105b65780638ac47319146105c95780639a11e339146105d2578063a10905ea146105e357600080fd5b80636b76c085146105145780636b868afb1461053a5780637aea0a941461054d5780637bbd53d71461059857600080fd5b806323be345c116101925780634423c5f1116101615780634423c5f1146103b157806354fd4d50146104cb57806366877b8d146104d45780636aedfe68146104f457600080fd5b806323be345c146103425780632519dc79146103555780633819bcdc146103755780633ef0a2f71461038857600080fd5b80631253c546116101ce5780631253c5461461029a578063127caa88146102ba5780631289b396146102f557806314573033146102fe57600080fd5b8063054de0ff1461020057806306f33a921461022a578063089487b51461024b578063093f561714610276575b600080fd5b61021461020e366004610e44565b50606090565b6040516102219190610e5f565b60405180910390f35b61023d610238366004610f12565b6106f9565b604051908152602001610221565b61023d610259366004610fab565b600c60209081526000928352604080842090915290825290205481565b61028a610284366004610fde565b50600090565b6040519015158152602001610221565b6102ad6102a8366004610fde565b6107d9565b6040516102219190610ff7565b6102e06102c8366004610fde565b600b6020526000908152604090205463ffffffff1681565b60405163ffffffff9091168152602001610221565b61023d60045481565b61032a61030c366004610fde565b6000908152600160205260409020600501546001600160a01b031690565b6040516001600160a01b039091168152602001610221565b60135461032a906001600160a01b031681565b61023d610363366004610e44565b600d6020526000908152604090205481565b61023d610383366004611045565b610873565b61032a610396366004610fde565b6000908152600160205260409020546001600160a01b031690565b6104b66103bf366004610fde565b600160208181526000928352604092839020805492810154600282015460038301546004840154875160e08101895260058601546001600160a01b0390811682526006870154828901528951808b018b52600788015481526008880154818a0152828b0152600987015463ffffffff80821660608086019190915264010000000080840483166080870152600160401b8404831660a0870152600160601b909304821660c08601528c519081018d52600a8a01548152600b8a01549182169a81019a909a520461ffff1699880199909952600c90950154968816979384169693909216949093919260ff8082169161010090041689565b6040516102219998979695949392919061111a565b61023d600e5481565b6104e76104e2366004610fde565b6108a4565b60405161022191906111a8565b6105076105023660046111b7565b610940565b60405161022191906111d9565b6102e0610522366004610fde565b600a6020526000908152604090205463ffffffff1681565b60085461032a906001600160a01b031681565b61059661055b3660046111f0565b600091825260016020526040909120600901805463ffffffff909216600160401b026bffffffff000000000000000019909216919091179055565b005b61023d6105a6366004611213565b60009a9950505050505050505050565b6105966105c43660046111b7565b6109c7565b61023d60005481565b6105966105e0366004610fde565b50565b61032a6105f1366004610fde565b6000908152600160205260409020600201546001600160a01b031690565b61062261061d366004610fde565b610a59565b60408051938452602084019290925290820152606001610221565b61023d61064b366004610e44565b60036020526000908152604090205481565b60125461032a906001600160a01b031681565b61069661067e366004610fde565b6000908152600160205260409020600c015460ff1690565b604051610221919061130c565b6105966106b1366004610e44565b600780546001600160a01b0319166001600160a01b0392909216919091179055565b6105076106e1366004610fde565b610b20565b60075461032a906001600160a01b031681565b600080548082526001602052604090912080546001600160a01b031916331781556001600160a01b0383166107385780546001600160a01b031661073a565b825b6001820180546001600160a01b03199081166001600160a01b0393841617909155600383018b9055600583018054909116918c16919091179055600681018890556009810180546fffffffff0000000000000000ffffffff1916600160601b63ffffffff8a81169190910263ffffffff19169190911742919091161790556000805490806107c783611330565b91905055505098975050505050505050565b600f60205260009081526040902080546107f290611349565b80601f016020809104026020016040519081016040528092919081815260200182805461081e90611349565b801561086b5780601f106108405761010080835404028352916020019161086b565b820191906000526020600020905b81548152906001019060200180831161084e57829003601f168201915b505050505081565b6002602052816000526040600020818154811061088f57600080fd5b90600052602060002001600091509150505481565b6108ac610dc7565b50600090815260016020908152604091829020825160e08101845260058201546001600160a01b031681526006820154818401528351808501855260078301548152600883015493810193909352928301919091526009015463ffffffff8082166060840152640100000000820481166080840152600160401b8204811660a0840152600160601b9091041660c082015290565b604080518082018252600080825260208083018290528582526001905291909120600c81015460039060ff16600581111561097d5761097d6110e0565b14158061099c57506009810154640100000000900463ffffffff168311155b156109a757506109c1565b6000806109b48386610b91565b9086526020860152505050505b92915050565b60008281526001602052604090819020600581015491516323b872dd60e01b81523360048201523060248201526044810184905290916001600160a01b0316906323b872dd906064016020604051808303816000875af1158015610a2f573d6000803e3d6000fd5b505050506040513d601f19601f82011682018060405250810190610a539190611383565b50505050565b60008181526001602081905260408083206002810180546001600160a01b03191633908117909155600582015493820154600683015493516323b872dd60e01b815260048101929092526001600160a01b03908116602483015260448201939093528493849316906323b872dd906064016020604051808303816000875af1158015610ae9573d6000803e3d6000fd5b505050506040513d601f19601f82011682018060405250810190610b0d9190611383565b5060060154600095909450859350915050565b604080518082019091526000808252602082015260036000838152600160205260409020600c015460ff166005811115610b5c57610b5c6110e0565b14610b6657919050565b60008281526001602052604081208190610b809042610b91565b908552602085015250919392505050565b60068201546007830154600b840154600a85015460009384938493610c059361ffff6401000000008304169163ffffffff16610bcc8b610c12565b60098c0154600c8d015463ffffffff928316928d926401000000008104821692600160601b90910490911690610100900460ff16610c59565b9250925092509250925092565b6009810154600090600160401b900463ffffffff1615610c43576009820154600160401b900463ffffffff166109c1565b5060090154640100000000900463ffffffff1690565b60008080610c678c8e6113a5565b92506000610c75848d610d59565b90506000610c838a8a6113a5565b90506301e13380610c9482846113b8565b610c9e91906113cf565b92506000610cac898b6113f1565b610cb690896113f1565b905060008c821280610cd157508d610cce8689611418565b11155b90506001886001811115610ce757610ce76110e0565b03610cfb578015610cf6578695505b610d45565b600081610d08578e610d12565b610d128689611418565b905060008e610d2186846113b8565b610d2b91906113cf565b9050610d40610d3a88836113a5565b8a610d72565b975050505b505050509a509a509a975050505050505050565b6000610d6b838361ffff166002610d88565b9392505050565b6000818310610d815781610d6b565b5090919050565b6000610d9382610daf565b610d9d84866113b8565b610da791906113cf565b949350505050565b6000610dbc82600a61150f565b6109c19060646113b8565b6040518060e0016040528060006001600160a01b0316815260200160008152602001610e06604051806040016040528060008152602001600081525090565b8152600060208201819052604082018190526060820181905260809091015290565b80356001600160a01b0381168114610e3f57600080fd5b919050565b600060208284031215610e5657600080fd5b610d6b82610e28565b6020808252825182820181905260009190848201906040850190845b81811015610e9757835183529284019291840191600101610e7b565b50909695505050505050565b803563ffffffff81168114610e3f57600080fd5b803561ffff81168114610e3f57600080fd5b60008083601f840112610edb57600080fd5b50813567ffffffffffffffff811115610ef357600080fd5b602083019150836020828501011115610f0b57600080fd5b9250929050565b60008060008060008060008060e0898b031215610f2e57600080fd5b610f3789610e28565b97506020890135965060408901359550610f5360608a01610ea3565b9450610f6160808a01610eb7565b935060a089013567ffffffffffffffff811115610f7d57600080fd5b610f898b828c01610ec9565b9094509250610f9c905060c08a01610e28565b90509295985092959890939650565b60008060408385031215610fbe57600080fd5b610fc783610e28565b9150610fd560208401610e28565b90509250929050565b600060208284031215610ff057600080fd5b5035919050565b600060208083528351808285015260005b8181101561102457858101830151858201604001528201611008565b506000604082860101526040601f19601f8301168501019250505092915050565b6000806040838503121561105857600080fd5b61106183610e28565b946020939093013593505050565b80516001600160a01b0316825260208082015190830152604080820151906110a39084018280518252602090810151910152565b50606081015163ffffffff80821660808501528060808401511660a08501528060a08401511660c08501528060c08401511660e085015250505050565b634e487b7160e01b600052602160045260246000fd5b60068110611106576111066110e0565b9052565b60028110611106576111066110e0565b6001600160a01b038a811682528981166020830152881660408201526060810187905260808101869052610240810161115660a083018761106f565b84516101a083015263ffffffff6020860151166101c083015261ffff6040860151166101e083015261118c6102008301856110f6565b61119a61022083018461110a565b9a9950505050505050505050565b61010081016109c1828461106f565b600080604083850312156111ca57600080fd5b50508035926020909101359150565b8151815260208083015190820152604081016109c1565b6000806040838503121561120357600080fd5b82359150610fd560208401610ea3565b6000806000806000806000806000806101008b8d03121561123357600080fd5b61123c8b610e28565b995060208b0135985060408b0135975061125860608c01610ea3565b965061126660808c01610eb7565b955060a08b013567ffffffffffffffff8082111561128357600080fd5b61128f8e838f01610ec9565b90975095508591506112a360c08e01610e28565b945060e08d01359150808211156112b957600080fd5b818d0191508d601f8301126112cd57600080fd5b8135818111156112dc57600080fd5b8e60208260071b85010111156112f157600080fd5b6020830194508093505050509295989b9194979a5092959850565b602081016109c182846110f6565b634e487b7160e01b600052601160045260246000fd5b6000600182016113425761134261131a565b5060010190565b600181811c9082168061135d57607f821691505b60208210810361137d57634e487b7160e01b600052602260045260246000fd5b50919050565b60006020828403121561139557600080fd5b81518015158114610d6b57600080fd5b818103818111156109c1576109c161131a565b80820281158282048414176109c1576109c161131a565b6000826113ec57634e487b7160e01b600052601260045260246000fd5b500490565b81810360008312801583831316838312821617156114115761141161131a565b5092915050565b808201808211156109c1576109c161131a565b600181815b8085111561146657816000190482111561144c5761144c61131a565b8085161561145957918102915b93841c9390800290611430565b509250929050565b60008261147d575060016109c1565b8161148a575060006109c1565b81600181146114a057600281146114aa576114c6565b60019150506109c1565b60ff8411156114bb576114bb61131a565b50506001821b6109c1565b5060208310610133831016604e8410600b84101617156114e9575081810a6109c1565b6114f3838361142b565b80600019048211156115075761150761131a565b029392505050565b6000610d6b838361146e56fea26469706673582212201a40df1854315940c5890fc3e926eee0909c377fd7aa083f732eb8d0666452ef64736f6c63430008110033",
    "linkReferences": {}
  },
  "methodIdentifiers": {
    "_lenderVolumeFilled(address)": "b5d34fcd",
    "_totalVolumeFilled()": "1289b396",
    "bidDefaultDuration(uint256)": "6b76c085",
    "bidExpirationTime(uint256)": "127caa88",
    "bidId()": "8ac47319",
    "bids(uint256)": "4423c5f1",
    "borrowerBids(address,uint256)": "3819bcdc",
    "calculateAmountDue(uint256)": "d974cc57",
    "calculateAmountDue(uint256,uint256)": "6aedfe68",
    "collateralManager()": "23be345c",
    "getBidState(uint256)": "bf77ffae",
    "getBorrowerActiveLoanIds(address)": "054de0ff",
    "getLoanBorrower(uint256)": "3ef0a2f7",
    "getLoanDetails(uint256)": "66877b8d",
    "getLoanLender(uint256)": "a10905ea",
    "getLoanLendingToken(uint256)": "14573033",
    "isLoanDefaulted(uint256)": "e8cbab09",
    "isPaymentLate(uint256)": "093f5617",
    "lenderAcceptBid(uint256)": "a8cb5d68",
    "lenderCommitmentForwarder()": "ba6d5b15",
    "lenderVolumeFilled(address,address)": "089487b5",
    "marketRegistry()": "ecb96fe6",
    "repayLoan(uint256,uint256)": "8a700b53",
    "repayLoanFull(uint256)": "9a11e339",
    "repayLoanMinimum(uint256)": "d4eda4cf",
    "reputationManager()": "6b868afb",
    "setLastRepaidTimestamp(uint256,uint32)": "7aea0a94",
    "setMarketRegistry(address)": "d8579704",
    "submitBid(address,uint256,uint256,uint32,uint16,string,address)": "06f33a92",
    "submitBid(address,uint256,uint256,uint32,uint16,string,address,(uint8,uint256,uint256,address)[])": "7bbd53d7",
    "totalVolumeFilled(address)": "2519dc79",
    "uris(uint256)": "1253c546",
    "version()": "54fd4d50"
  },
  "id": 40
}