{
  "abi": [
    {
      "inputs": [
        {
          "internalType": "address",
          "name": "",
          "type": "address"
        }
      ],
      "name": "_lenderVolumeFilled",
      "outputs": [
        {
          "internalType": "uint256",
          "name": "",
          "type": "uint256"
        }
      ],
      "stateMutability": "view",
      "type": "function"
    },
    {
      "inputs": [],
      "name": "_totalVolumeFilled",
      "outputs": [
        {
          "internalType": "uint256",
          "name": "",
          "type": "uint256"
        }
      ],
      "stateMutability": "view",
      "type": "function"
    },
    {
      "inputs": [
        {
          "internalType": "uint256",
          "name": "",
          "type": "uint256"
        }
      ],
      "name": "bidDefaultDuration",
      "outputs": [
        {
          "internalType": "uint32",
          "name": "",
          "type": "uint32"
        }
      ],
      "stateMutability": "view",
      "type": "function"
    },
    {
      "inputs": [
        {
          "internalType": "uint256",
          "name": "",
          "type": "uint256"
        }
      ],
      "name": "bidExpirationTime",
      "outputs": [
        {
          "internalType": "uint32",
          "name": "",
          "type": "uint32"
        }
      ],
      "stateMutability": "view",
      "type": "function"
    },
    {
      "inputs": [],
      "name": "bidId",
      "outputs": [
        {
          "internalType": "uint256",
          "name": "",
          "type": "uint256"
        }
      ],
      "stateMutability": "view",
      "type": "function"
    },
    {
      "inputs": [
        {
          "internalType": "uint256",
          "name": "",
          "type": "uint256"
        }
      ],
      "name": "bidPaymentCycleType",
      "outputs": [
        {
          "internalType": "enum PaymentCycleType",
          "name": "",
          "type": "uint8"
        }
      ],
      "stateMutability": "view",
      "type": "function"
    },
    {
      "inputs": [
        {
          "internalType": "uint256",
          "name": "",
          "type": "uint256"
        }
      ],
      "name": "bids",
      "outputs": [
        {
          "internalType": "address",
          "name": "borrower",
          "type": "address"
        },
        {
          "internalType": "address",
          "name": "receiver",
          "type": "address"
        },
        {
          "internalType": "address",
          "name": "lender",
          "type": "address"
        },
        {
          "internalType": "uint256",
          "name": "marketplaceId",
          "type": "uint256"
        },
        {
          "internalType": "bytes32",
          "name": "_metadataURI",
          "type": "bytes32"
        },
        {
          "components": [
            {
              "internalType": "contract ERC20",
              "name": "lendingToken",
              "type": "address"
            },
            {
              "internalType": "uint256",
              "name": "principal",
              "type": "uint256"
            },
            {
              "components": [
                {
                  "internalType": "uint256",
                  "name": "principal",
                  "type": "uint256"
                },
                {
                  "internalType": "uint256",
                  "name": "interest",
                  "type": "uint256"
                }
              ],
              "internalType": "struct Payment",
              "name": "totalRepaid",
              "type": "tuple"
            },
            {
              "internalType": "uint32",
              "name": "timestamp",
              "type": "uint32"
            },
            {
              "internalType": "uint32",
              "name": "acceptedTimestamp",
              "type": "uint32"
            },
            {
              "internalType": "uint32",
              "name": "lastRepaidTimestamp",
              "type": "uint32"
            },
            {
              "internalType": "uint32",
              "name": "loanDuration",
              "type": "uint32"
            }
          ],
          "internalType": "struct LoanDetails",
          "name": "loanDetails",
          "type": "tuple"
        },
        {
          "components": [
            {
              "internalType": "uint256",
              "name": "paymentCycleAmount",
              "type": "uint256"
            },
            {
              "internalType": "uint32",
              "name": "paymentCycle",
              "type": "uint32"
            },
            {
              "internalType": "uint16",
              "name": "APR",
              "type": "uint16"
            }
          ],
          "internalType": "struct Terms",
          "name": "terms",
          "type": "tuple"
        },
        {
          "internalType": "enum BidState",
          "name": "state",
          "type": "uint8"
        },
        {
          "internalType": "enum PaymentType",
          "name": "paymentType",
          "type": "uint8"
        }
      ],
      "stateMutability": "view",
      "type": "function"
    },
    {
      "inputs": [
        {
          "internalType": "address",
          "name": "",
          "type": "address"
        },
        {
          "internalType": "uint256",
          "name": "",
          "type": "uint256"
        }
      ],
      "name": "borrowerBids",
      "outputs": [
        {
          "internalType": "uint256",
          "name": "",
          "type": "uint256"
        }
      ],
      "stateMutability": "view",
      "type": "function"
    },
    {
      "inputs": [
        {
          "internalType": "uint256",
          "name": "_bidId",
          "type": "uint256"
        },
        {
          "internalType": "uint256",
          "name": "_timestamp",
          "type": "uint256"
        }
      ],
      "name": "calculateAmountDue",
      "outputs": [
        {
          "components": [
            {
              "internalType": "uint256",
              "name": "principal",
              "type": "uint256"
            },
            {
              "internalType": "uint256",
              "name": "interest",
              "type": "uint256"
            }
          ],
          "internalType": "struct Payment",
          "name": "due",
          "type": "tuple"
        }
      ],
      "stateMutability": "view",
      "type": "function"
    },
    {
      "inputs": [
        {
          "internalType": "uint256",
          "name": "_bidId",
          "type": "uint256"
        }
      ],
      "name": "calculateAmountDue",
      "outputs": [
        {
          "components": [
            {
              "internalType": "uint256",
              "name": "principal",
              "type": "uint256"
            },
            {
              "internalType": "uint256",
              "name": "interest",
              "type": "uint256"
            }
          ],
          "internalType": "struct Payment",
          "name": "due",
          "type": "tuple"
        }
      ],
      "stateMutability": "view",
      "type": "function"
    },
    {
      "inputs": [],
      "name": "collateralManager",
      "outputs": [
        {
          "internalType": "contract ICollateralManager",
          "name": "",
          "type": "address"
        }
      ],
      "stateMutability": "view",
      "type": "function"
    },
    {
      "inputs": [
        {
          "internalType": "uint256",
          "name": "_bidId",
          "type": "uint256"
        }
      ],
      "name": "getBidState",
      "outputs": [
        {
          "internalType": "enum BidState",
          "name": "",
          "type": "uint8"
        }
      ],
      "stateMutability": "view",
      "type": "function"
    },
    {
      "inputs": [
        {
          "internalType": "address",
          "name": "_borrower",
          "type": "address"
        }
      ],
      "name": "getBorrowerActiveLoanIds",
      "outputs": [
        {
          "internalType": "uint256[]",
          "name": "",
          "type": "uint256[]"
        }
      ],
      "stateMutability": "view",
      "type": "function"
    },
    {
      "inputs": [
        {
          "internalType": "uint256",
          "name": "_bidId",
          "type": "uint256"
        }
      ],
      "name": "getLoanBorrower",
      "outputs": [
        {
          "internalType": "address",
          "name": "borrower_",
          "type": "address"
        }
      ],
      "stateMutability": "view",
      "type": "function"
    },
    {
      "inputs": [
        {
          "internalType": "uint256",
          "name": "_bidId",
          "type": "uint256"
        }
      ],
      "name": "getLoanDetails",
      "outputs": [
        {
          "components": [
            {
              "internalType": "contract ERC20",
              "name": "lendingToken",
              "type": "address"
            },
            {
              "internalType": "uint256",
              "name": "principal",
              "type": "uint256"
            },
            {
              "components": [
                {
                  "internalType": "uint256",
                  "name": "principal",
                  "type": "uint256"
                },
                {
                  "internalType": "uint256",
                  "name": "interest",
                  "type": "uint256"
                }
              ],
              "internalType": "struct Payment",
              "name": "totalRepaid",
              "type": "tuple"
            },
            {
              "internalType": "uint32",
              "name": "timestamp",
              "type": "uint32"
            },
            {
              "internalType": "uint32",
              "name": "acceptedTimestamp",
              "type": "uint32"
            },
            {
              "internalType": "uint32",
              "name": "lastRepaidTimestamp",
              "type": "uint32"
            },
            {
              "internalType": "uint32",
              "name": "loanDuration",
              "type": "uint32"
            }
          ],
          "internalType": "struct LoanDetails",
          "name": "",
          "type": "tuple"
        }
      ],
      "stateMutability": "view",
      "type": "function"
    },
    {
      "inputs": [
        {
          "internalType": "uint256",
          "name": "_bidId",
          "type": "uint256"
        }
      ],
      "name": "getLoanLender",
      "outputs": [
        {
          "internalType": "address",
          "name": "lender_",
          "type": "address"
        }
      ],
      "stateMutability": "view",
      "type": "function"
    },
    {
      "inputs": [
        {
          "internalType": "uint256",
          "name": "_bidId",
          "type": "uint256"
        }
      ],
      "name": "getLoanLendingToken",
      "outputs": [
        {
          "internalType": "address",
          "name": "token_",
          "type": "address"
        }
      ],
      "stateMutability": "view",
      "type": "function"
    },
    {
      "inputs": [
        {
          "internalType": "uint256",
          "name": "_bidId",
          "type": "uint256"
        }
      ],
      "name": "getLoanMarketId",
      "outputs": [
        {
          "internalType": "uint256",
          "name": "_marketId",
          "type": "uint256"
        }
      ],
      "stateMutability": "view",
      "type": "function"
    },
    {
      "inputs": [],
      "name": "getMarketRegistry",
      "outputs": [
        {
          "internalType": "contract IMarketRegistry",
          "name": "",
          "type": "address"
        }
      ],
      "stateMutability": "view",
      "type": "function"
    },
    {
      "inputs": [
        {
          "internalType": "uint256",
          "name": "_bidId",
          "type": "uint256"
        }
      ],
      "name": "isLoanDefaulted",
      "outputs": [
        {
          "internalType": "bool",
          "name": "",
          "type": "bool"
        }
      ],
      "stateMutability": "view",
      "type": "function"
    },
    {
      "inputs": [
        {
          "internalType": "uint256",
          "name": "_bidId",
          "type": "uint256"
        }
      ],
      "name": "isPaymentLate",
      "outputs": [
        {
          "internalType": "bool",
          "name": "",
          "type": "bool"
        }
      ],
      "stateMutability": "view",
      "type": "function"
    },
    {
      "inputs": [
        {
          "internalType": "uint256",
          "name": "_bidId",
          "type": "uint256"
        }
      ],
      "name": "lenderAcceptBid",
      "outputs": [
        {
          "internalType": "uint256",
          "name": "amountToProtocol",
          "type": "uint256"
        },
        {
          "internalType": "uint256",
          "name": "amountToMarketplace",
          "type": "uint256"
        },
        {
          "internalType": "uint256",
          "name": "amountToBorrower",
          "type": "uint256"
        }
      ],
      "stateMutability": "nonpayable",
      "type": "function"
    },
    {
      "inputs": [],
      "name": "lenderCommitmentForwarder",
      "outputs": [
        {
          "internalType": "address",
          "name": "",
          "type": "address"
        }
      ],
      "stateMutability": "view",
      "type": "function"
    },
    {
      "inputs": [],
      "name": "lenderManager",
      "outputs": [
        {
          "internalType": "contract ILenderManager",
          "name": "",
          "type": "address"
        }
      ],
      "stateMutability": "view",
      "type": "function"
    },
    {
      "inputs": [
        {
          "internalType": "address",
          "name": "",
          "type": "address"
        },
        {
          "internalType": "address",
          "name": "",
          "type": "address"
        }
      ],
      "name": "lenderVolumeFilled",
      "outputs": [
        {
          "internalType": "uint256",
          "name": "",
          "type": "uint256"
        }
      ],
      "stateMutability": "view",
      "type": "function"
    },
    {
      "inputs": [],
      "name": "marketRegistry",
      "outputs": [
        {
          "internalType": "contract IMarketRegistry",
          "name": "",
          "type": "address"
        }
      ],
      "stateMutability": "view",
      "type": "function"
    },
    {
      "inputs": [
        {
          "internalType": "uint256",
          "name": "_bidId",
          "type": "uint256"
        },
        {
          "internalType": "uint256",
          "name": "_amount",
          "type": "uint256"
        }
      ],
      "name": "repayLoan",
      "outputs": [],
      "stateMutability": "nonpayable",
      "type": "function"
    },
    {
      "inputs": [
        {
          "internalType": "uint256",
          "name": "_bidId",
          "type": "uint256"
        }
      ],
      "name": "repayLoanFull",
      "outputs": [],
      "stateMutability": "nonpayable",
      "type": "function"
    },
    {
      "inputs": [
        {
          "internalType": "uint256",
          "name": "_bidId",
          "type": "uint256"
        }
      ],
      "name": "repayLoanMinimum",
      "outputs": [],
      "stateMutability": "nonpayable",
      "type": "function"
    },
    {
      "inputs": [],
      "name": "reputationManager",
      "outputs": [
        {
          "internalType": "contract IReputationManager",
          "name": "",
          "type": "address"
        }
      ],
      "stateMutability": "view",
      "type": "function"
    },
    {
      "inputs": [
        {
          "internalType": "uint256",
          "name": "_bidId",
          "type": "uint256"
        },
        {
          "internalType": "uint32",
          "name": "_timestamp",
          "type": "uint32"
        }
      ],
      "name": "setLastRepaidTimestamp",
      "outputs": [],
      "stateMutability": "nonpayable",
      "type": "function"
    },
    {
      "inputs": [
        {
          "internalType": "address",
          "name": "_marketRegistry",
          "type": "address"
        }
      ],
      "name": "setMarketRegistry",
      "outputs": [],
      "stateMutability": "nonpayable",
      "type": "function"
    },
    {
      "inputs": [
        {
          "internalType": "address",
          "name": "_lendingToken",
          "type": "address"
        },
        {
          "internalType": "uint256",
          "name": "_marketId",
          "type": "uint256"
        },
        {
          "internalType": "uint256",
          "name": "_principal",
          "type": "uint256"
        },
        {
          "internalType": "uint32",
          "name": "_duration",
          "type": "uint32"
        },
        {
          "internalType": "uint16",
          "name": "",
          "type": "uint16"
        },
        {
          "internalType": "string",
          "name": "",
          "type": "string"
        },
        {
          "internalType": "address",
          "name": "_receiver",
          "type": "address"
        }
      ],
      "name": "submitBid",
      "outputs": [
        {
          "internalType": "uint256",
          "name": "bidId_",
          "type": "uint256"
        }
      ],
      "stateMutability": "nonpayable",
      "type": "function"
    },
    {
      "inputs": [
        {
          "internalType": "address",
          "name": "_lendingToken",
          "type": "address"
        },
        {
          "internalType": "uint256",
          "name": "_marketplaceId",
          "type": "uint256"
        },
        {
          "internalType": "uint256",
          "name": "_principal",
          "type": "uint256"
        },
        {
          "internalType": "uint32",
          "name": "_duration",
          "type": "uint32"
        },
        {
          "internalType": "uint16",
          "name": "_APR",
          "type": "uint16"
        },
        {
          "internalType": "string",
          "name": "_metadataURI",
          "type": "string"
        },
        {
          "internalType": "address",
          "name": "_receiver",
          "type": "address"
        },
        {
          "components": [
            {
              "internalType": "enum CollateralType",
              "name": "_collateralType",
              "type": "uint8"
            },
            {
              "internalType": "uint256",
              "name": "_amount",
              "type": "uint256"
            },
            {
              "internalType": "uint256",
              "name": "_tokenId",
              "type": "uint256"
            },
            {
              "internalType": "address",
              "name": "_collateralAddress",
              "type": "address"
            }
          ],
          "internalType": "struct Collateral[]",
          "name": "_collateralInfo",
          "type": "tuple[]"
        }
      ],
      "name": "submitBid",
      "outputs": [
        {
          "internalType": "uint256",
          "name": "bidId_",
          "type": "uint256"
        }
      ],
      "stateMutability": "nonpayable",
      "type": "function"
    },
    {
      "inputs": [
        {
          "internalType": "address",
          "name": "",
          "type": "address"
        }
      ],
      "name": "totalVolumeFilled",
      "outputs": [
        {
          "internalType": "uint256",
          "name": "",
          "type": "uint256"
        }
      ],
      "stateMutability": "view",
      "type": "function"
    },
    {
      "inputs": [
        {
          "internalType": "uint256",
          "name": "",
          "type": "uint256"
        }
      ],
      "name": "uris",
      "outputs": [
        {
          "internalType": "string",
          "name": "",
          "type": "string"
        }
      ],
      "stateMutability": "view",
      "type": "function"
    },
    {
      "inputs": [],
      "name": "version",
      "outputs": [
        {
          "internalType": "uint256",
          "name": "",
          "type": "uint256"
        }
      ],
      "stateMutability": "view",
      "type": "function"
    }
  ],
  "bytecode": {
    "object": "0x60806040526000805534801561001457600080fd5b50611687806100246000396000f3fe608060405234801561001057600080fd5b50600436106102275760003560e01c80636aedfe6811610130578063a8cb5d68116100b8578063d4eda4cf1161007c578063d4eda4cf14610664578063d857970414610746578063d974cc5714610776578063e8cbab09146102a2578063ecb96fe61461078957600080fd5b8063a8cb5d68146106a1578063b5d34fcd146106cf578063ba6d5b15146106ef578063bf77ffae14610702578063c66b8ed21461073557600080fd5b80637bbd53d7116100ff5780637bbd53d71461062a5780638a700b53146106485780638ac473191461065b5780639a11e33914610664578063a10905ea1461067557600080fd5b80636aedfe68146105865780636b76c085146105a65780636b868afb146105cc5780637aea0a94146105df57600080fd5b80632519dc79116101b357806340910c701161018257806340910c701461040d5780634423c5f1146104305780634a06f6ea1461054a57806354fd4d501461055d57806366877b8d1461056657600080fd5b80632519dc791461038157806336735891146103a15780633819bcdc146103d15780633ef0a2f7146103e457600080fd5b80631253c546116101fa5780631253c546146102c6578063127caa88146102e65780631289b39614610321578063145730331461032a57806323be345c1461036e57600080fd5b8063054de0ff1461022c57806306f33a9214610256578063089487b514610277578063093f5617146102a2575b600080fd5b61024061023a366004610f5e565b50606090565b60405161024d9190610f79565b60405180910390f35b61026961026436600461102c565b61079c565b60405190815260200161024d565b6102696102853660046110c5565b600c60209081526000928352604080842090915290825290205481565b6102b66102b03660046110f8565b50600090565b604051901515815260200161024d565b6102d96102d43660046110f8565b61087c565b60405161024d9190611111565b61030c6102f43660046110f8565b600b6020526000908152604090205463ffffffff1681565b60405163ffffffff909116815260200161024d565b61026960045481565b6103566103383660046110f8565b6000908152600160205260409020600501546001600160a01b031690565b6040516001600160a01b03909116815260200161024d565b601354610356906001600160a01b031681565b61026961038f366004610f5e565b600d6020526000908152604090205481565b6103c46103af3660046110f8565b60156020526000908152604090205460ff1681565b60405161024d9190611185565b6102696103df366004611198565b610916565b6103566103f23660046110f8565b6000908152600160205260409020546001600160a01b031690565b61026961041b3660046110f8565b60009081526001602052604090206003015490565b61053561043e3660046110f8565b600160208181526000928352604092839020805492810154600282015460038301546004840154875160e08101895260058601546001600160a01b0390811682526006870154828901528951808b018b52600788015481526008880154818a0152828b0152600987015463ffffffff80821660608086019190915264010000000080840483166080870152600160401b8404831660a0870152600160601b909304821660c08601528c519081018d52600a8a01548152600b8a01549182169a81019a909a520461ffff1699880199909952600c90950154968816979384169693909216949093919260ff8082169161010090041689565b60405161024d99989796959493929190611250565b601454610356906001600160a01b031681565b610269600e5481565b6105796105743660046110f8565b610947565b60405161024d91906112de565b6105996105943660046112ed565b6109e3565b60405161024d919061130f565b61030c6105b43660046110f8565b600a6020526000908152604090205463ffffffff1681565b600854610356906001600160a01b031681565b6106286105ed366004611326565b600091825260016020526040909120600901805463ffffffff909216600160401b026bffffffff000000000000000019909216919091179055565b005b610269610638366004611349565b60009a9950505050505050505050565b6106286106563660046112ed565b610a7e565b61026960005481565b6106286106723660046110f8565b50565b6103566106833660046110f8565b6000908152600160205260409020600201546001600160a01b031690565b6106b46106af3660046110f8565b610b10565b6040805193845260208401929092529082015260600161024d565b6102696106dd366004610f5e565b60036020526000908152604090205481565b601254610356906001600160a01b031681565b6107286107103660046110f8565b6000908152600160205260409020600c015460ff1690565b60405161024d9190611442565b6007546001600160a01b0316610356565b610628610754366004610f5e565b600780546001600160a01b0319166001600160a01b0392909216919091179055565b6105996107843660046110f8565b610bd7565b600754610356906001600160a01b031681565b600080548082526001602052604090912080546001600160a01b031916331781556001600160a01b0383166107db5780546001600160a01b03166107dd565b825b6001820180546001600160a01b03199081166001600160a01b0393841617909155600383018b9055600583018054909116918c16919091179055600681018890556009810180546fffffffff0000000000000000ffffffff1916600160601b63ffffffff8a81169190910263ffffffff191691909117429190911617905560008054908061086a83611466565b91905055505098975050505050505050565b600f60205260009081526040902080546108959061147f565b80601f01602080910402602001604051908101604052809291908181526020018280546108c19061147f565b801561090e5780601f106108e35761010080835404028352916020019161090e565b820191906000526020600020905b8154815290600101906020018083116108f157829003601f168201915b505050505081565b6002602052816000526040600020818154811061093257600080fd5b90600052602060002001600091509150505481565b61094f610ee1565b50600090815260016020908152604091829020825160e08101845260058201546001600160a01b031681526006820154818401528351808501855260078301548152600883015493810193909352928301919091526009015463ffffffff8082166060840152640100000000820481166080840152600160401b8204811660a0840152600160601b9091041660c082015290565b604080518082018252600080825260208083018290528582526001905291909120600c81015460039060ff166005811115610a2057610a2061115f565b141580610a3f57506009810154640100000000900463ffffffff168311155b15610a4a5750610a78565b6000848152601560205260408120548190610a6b908490879060ff16610c57565b9086526020860152505050505b92915050565b60008281526001602052604090819020600581015491516323b872dd60e01b81523360048201523060248201526044810184905290916001600160a01b0316906323b872dd906064016020604051808303816000875af1158015610ae6573d6000803e3d6000fd5b505050506040513d601f19601f82011682018060405250810190610b0a91906114b9565b50505050565b60008181526001602081905260408083206002810180546001600160a01b03191633908117909155600582015493820154600683015493516323b872dd60e01b815260048101929092526001600160a01b03908116602483015260448201939093528493849316906323b872dd906064016020604051808303816000875af1158015610ba0573d6000803e3d6000fd5b505050506040513d601f19601f82011682018060405250810190610bc491906114b9565b5060060154600095909450859350915050565b604080518082019091526000808252602082015260036000838152600160205260409020600c015460ff166005811115610c1357610c1361115f565b14610c1d57919050565b600082815260016020908152604080832060159092528220548291610c4691429060ff16610c57565b908552602085015250919392505050565b6000806000610c7686610c6988610c85565b63ffffffff168787610ccc565b92509250925093509350939050565b6009810154600090600160401b900463ffffffff1615610cb6576009820154600160401b900463ffffffff16610a78565b5060090154640100000000900463ffffffff1690565b6007840154600685015460009182918291610ce6916114db565b925060006001856001811115610cfe57610cfe61115f565b14610d0d576301e13380610d13565b6301da9c005b63ffffffff1690506000610d4589600a0160010160049054906101000a900461ffff1686610e7390919063ffffffff16565b90506000610d5389896114db565b905082610d6082846114ee565b610d6a9190611505565b60098b0154909450600090610d8d90640100000000900463ffffffff168a611527565b60098c0154610da99190600160601b900463ffffffff16611527565b600b8c015490915060009063ffffffff16821280610dd45750600a8c0154610dd1878a61154e565b11155b90506001600c8d0154610100900460ff166001811115610df657610df661115f565b03610e0a578015610e05578796505b610e64565b600081610e1b57600a8d0154610e25565b610e25878a61154e565b600b8e015490915060009063ffffffff16610e4086846114ee565b610e4a9190611505565b9050610e5f610e5989836114db565b8b610e8c565b985050505b50505050509450945094915050565b6000610e85838361ffff166002610ea2565b9392505050565b6000818310610e9b5781610e85565b5090919050565b6000610ead82610ec9565b610eb784866114ee565b610ec19190611505565b949350505050565b6000610ed682600a611645565b610a789060646114ee565b6040518060e0016040528060006001600160a01b0316815260200160008152602001610f20604051806040016040528060008152602001600081525090565b8152600060208201819052604082018190526060820181905260809091015290565b80356001600160a01b0381168114610f5957600080fd5b919050565b600060208284031215610f7057600080fd5b610e8582610f42565b6020808252825182820181905260009190848201906040850190845b81811015610fb157835183529284019291840191600101610f95565b50909695505050505050565b803563ffffffff81168114610f5957600080fd5b803561ffff81168114610f5957600080fd5b60008083601f840112610ff557600080fd5b50813567ffffffffffffffff81111561100d57600080fd5b60208301915083602082850101111561102557600080fd5b9250929050565b60008060008060008060008060e0898b03121561104857600080fd5b61105189610f42565b9750602089013596506040890135955061106d60608a01610fbd565b945061107b60808a01610fd1565b935060a089013567ffffffffffffffff81111561109757600080fd5b6110a38b828c01610fe3565b90945092506110b6905060c08a01610f42565b90509295985092959890939650565b600080604083850312156110d857600080fd5b6110e183610f42565b91506110ef60208401610f42565b90509250929050565b60006020828403121561110a57600080fd5b5035919050565b600060208083528351808285015260005b8181101561113e57858101830151858201604001528201611122565b506000604082860101526040601f19601f8301168501019250505092915050565b634e487b7160e01b600052602160045260246000fd5b600281106106725761067261115f565b6020810161119283611175565b91905290565b600080604083850312156111ab57600080fd5b6111b483610f42565b946020939093013593505050565b80516001600160a01b0316825260208082015190830152604080820151906111f69084018280518252602090810151910152565b50606081015163ffffffff80821660808501528060808401511660a08501528060a08401511660c08501528060c08401511660e085015250505050565b600681106112435761124361115f565b9052565b61124381611175565b6001600160a01b038a811682528981166020830152881660408201526060810187905260808101869052610240810161128c60a08301876111c2565b84516101a083015263ffffffff6020860151166101c083015261ffff6040860151166101e08301526112c2610200830185611233565b6112d0610220830184611247565b9a9950505050505050505050565b6101008101610a7882846111c2565b6000806040838503121561130057600080fd5b50508035926020909101359150565b815181526020808301519082015260408101610a78565b6000806040838503121561133957600080fd5b823591506110ef60208401610fbd565b6000806000806000806000806000806101008b8d03121561136957600080fd5b6113728b610f42565b995060208b0135985060408b0135975061138e60608c01610fbd565b965061139c60808c01610fd1565b955060a08b013567ffffffffffffffff808211156113b957600080fd5b6113c58e838f01610fe3565b90975095508591506113d960c08e01610f42565b945060e08d01359150808211156113ef57600080fd5b818d0191508d601f83011261140357600080fd5b81358181111561141257600080fd5b8e60208260071b850101111561142757600080fd5b6020830194508093505050509295989b9194979a5092959850565b60208101610a788284611233565b634e487b7160e01b600052601160045260246000fd5b60006001820161147857611478611450565b5060010190565b600181811c9082168061149357607f821691505b6020821081036114b357634e487b7160e01b600052602260045260246000fd5b50919050565b6000602082840312156114cb57600080fd5b81518015158114610e8557600080fd5b81810381811115610a7857610a78611450565b8082028115828204841417610a7857610a78611450565b60008261152257634e487b7160e01b600052601260045260246000fd5b500490565b818103600083128015838313168383128216171561154757611547611450565b5092915050565b80820180821115610a7857610a78611450565b600181815b8085111561159c57816000190482111561158257611582611450565b8085161561158f57918102915b93841c9390800290611566565b509250929050565b6000826115b357506001610a78565b816115c057506000610a78565b81600181146115d657600281146115e0576115fc565b6001915050610a78565b60ff8411156115f1576115f1611450565b50506001821b610a78565b5060208310610133831016604e8410600b841016171561161f575081810a610a78565b6116298383611561565b806000190482111561163d5761163d611450565b029392505050565b6000610e8583836115a456fea26469706673582212207983f0334314ced80aacc066b8c4ae7c1f608a704aea670695b1cfb3e939f98864736f6c63430008110033",
    "linkReferences": {}
  },
  "methodIdentifiers": {
    "_lenderVolumeFilled(address)": "b5d34fcd",
    "_totalVolumeFilled()": "1289b396",
    "bidDefaultDuration(uint256)": "6b76c085",
    "bidExpirationTime(uint256)": "127caa88",
    "bidId()": "8ac47319",
    "bidPaymentCycleType(uint256)": "36735891",
    "bids(uint256)": "4423c5f1",
    "borrowerBids(address,uint256)": "3819bcdc",
    "calculateAmountDue(uint256)": "d974cc57",
    "calculateAmountDue(uint256,uint256)": "6aedfe68",
    "collateralManager()": "23be345c",
    "getBidState(uint256)": "bf77ffae",
    "getBorrowerActiveLoanIds(address)": "054de0ff",
    "getLoanBorrower(uint256)": "3ef0a2f7",
    "getLoanDetails(uint256)": "66877b8d",
    "getLoanLender(uint256)": "a10905ea",
    "getLoanLendingToken(uint256)": "14573033",
    "getLoanMarketId(uint256)": "40910c70",
    "getMarketRegistry()": "c66b8ed2",
    "isLoanDefaulted(uint256)": "e8cbab09",
    "isPaymentLate(uint256)": "093f5617",
    "lenderAcceptBid(uint256)": "a8cb5d68",
    "lenderCommitmentForwarder()": "ba6d5b15",
    "lenderManager()": "4a06f6ea",
    "lenderVolumeFilled(address,address)": "089487b5",
    "marketRegistry()": "ecb96fe6",
    "repayLoan(uint256,uint256)": "8a700b53",
    "repayLoanFull(uint256)": "9a11e339",
    "repayLoanMinimum(uint256)": "d4eda4cf",
    "reputationManager()": "6b868afb",
    "setLastRepaidTimestamp(uint256,uint32)": "7aea0a94",
    "setMarketRegistry(address)": "d8579704",
    "submitBid(address,uint256,uint256,uint32,uint16,string,address)": "06f33a92",
    "submitBid(address,uint256,uint256,uint32,uint16,string,address,(uint8,uint256,uint256,address)[])": "7bbd53d7",
    "totalVolumeFilled(address)": "2519dc79",
    "uris(uint256)": "1253c546",
    "version()": "54fd4d50"
  },
  "id": 35
}