{
  "abi": [
    {
      "inputs": [
        {
          "internalType": "address",
          "name": "_marketOwner",
          "type": "address"
        }
      ],
      "stateMutability": "nonpayable",
      "type": "constructor"
    },
    {
      "inputs": [
        {
          "internalType": "address",
          "name": "_initialOwner",
          "type": "address"
        },
        {
          "internalType": "uint32",
          "name": "_paymentCycleDuration",
          "type": "uint32"
        },
        {
          "internalType": "uint32",
          "name": "_paymentDefaultDuration",
          "type": "uint32"
        },
        {
          "internalType": "uint32",
          "name": "_bidExpirationTime",
          "type": "uint32"
        },
        {
          "internalType": "uint16",
          "name": "_feePercent",
          "type": "uint16"
        },
        {
          "internalType": "bool",
          "name": "_requireLenderAttestation",
          "type": "bool"
        },
        {
          "internalType": "bool",
          "name": "_requireBorrowerAttestation",
          "type": "bool"
        },
        {
          "internalType": "enum PaymentType",
          "name": "_paymentType",
          "type": "uint8"
        },
        {
          "internalType": "enum PaymentCycleType",
          "name": "_paymentCycleType",
          "type": "uint8"
        },
        {
          "internalType": "string",
          "name": "_uri",
          "type": "string"
        }
      ],
      "name": "createMarket",
      "outputs": [
        {
          "internalType": "uint256",
          "name": "",
          "type": "uint256"
        }
      ],
      "stateMutability": "nonpayable",
      "type": "function"
    },
    {
      "inputs": [
        {
          "internalType": "address",
          "name": "_initialOwner",
          "type": "address"
        },
        {
          "internalType": "uint32",
          "name": "_paymentCycleDuration",
          "type": "uint32"
        },
        {
          "internalType": "uint32",
          "name": "_paymentDefaultDuration",
          "type": "uint32"
        },
        {
          "internalType": "uint32",
          "name": "_bidExpirationTime",
          "type": "uint32"
        },
        {
          "internalType": "uint16",
          "name": "_feePercent",
          "type": "uint16"
        },
        {
          "internalType": "bool",
          "name": "_requireLenderAttestation",
          "type": "bool"
        },
        {
          "internalType": "bool",
          "name": "_requireBorrowerAttestation",
          "type": "bool"
        },
        {
          "internalType": "string",
          "name": "_uri",
          "type": "string"
        }
      ],
      "name": "createMarket",
      "outputs": [
        {
          "internalType": "uint256",
          "name": "",
          "type": "uint256"
        }
      ],
      "stateMutability": "nonpayable",
      "type": "function"
    },
    {
      "inputs": [
        {
          "internalType": "uint256",
          "name": "_marketId",
          "type": "uint256"
        }
      ],
      "name": "getBidExpirationTime",
      "outputs": [
        {
          "internalType": "uint32",
          "name": "",
          "type": "uint32"
        }
      ],
      "stateMutability": "view",
      "type": "function"
    },
    {
      "inputs": [
        {
          "internalType": "uint256",
          "name": "_marketId",
          "type": "uint256"
        }
      ],
      "name": "getMarketFeeRecipient",
      "outputs": [
        {
          "internalType": "address",
          "name": "",
          "type": "address"
        }
      ],
      "stateMutability": "view",
      "type": "function"
    },
    {
      "inputs": [
        {
          "internalType": "uint256",
          "name": "_marketId",
          "type": "uint256"
        }
      ],
      "name": "getMarketOwner",
      "outputs": [
        {
          "internalType": "address",
          "name": "",
          "type": "address"
        }
      ],
      "stateMutability": "view",
      "type": "function"
    },
    {
      "inputs": [
        {
          "internalType": "uint256",
          "name": "_marketId",
          "type": "uint256"
        }
      ],
      "name": "getMarketURI",
      "outputs": [
        {
          "internalType": "string",
          "name": "",
          "type": "string"
        }
      ],
      "stateMutability": "view",
      "type": "function"
    },
    {
      "inputs": [
        {
          "internalType": "uint256",
          "name": "_marketId",
          "type": "uint256"
        }
      ],
      "name": "getMarketplaceFee",
      "outputs": [
        {
          "internalType": "uint16",
          "name": "",
          "type": "uint16"
        }
      ],
      "stateMutability": "view",
      "type": "function"
    },
    {
      "inputs": [
        {
          "internalType": "uint256",
          "name": "_marketId",
          "type": "uint256"
        }
      ],
      "name": "getPaymentCycle",
      "outputs": [
        {
          "internalType": "uint32",
          "name": "",
          "type": "uint32"
        },
        {
          "internalType": "enum PaymentCycleType",
          "name": "",
          "type": "uint8"
        }
      ],
      "stateMutability": "view",
      "type": "function"
    },
    {
      "inputs": [
        {
          "internalType": "uint256",
          "name": "_marketId",
          "type": "uint256"
        }
      ],
      "name": "getPaymentDefaultDuration",
      "outputs": [
        {
          "internalType": "uint32",
          "name": "",
          "type": "uint32"
        }
      ],
      "stateMutability": "view",
      "type": "function"
    },
    {
      "inputs": [
        {
          "internalType": "uint256",
          "name": "_marketId",
          "type": "uint256"
        }
      ],
      "name": "getPaymentType",
      "outputs": [
        {
          "internalType": "enum PaymentType",
          "name": "",
          "type": "uint8"
        }
      ],
      "stateMutability": "view",
      "type": "function"
    },
    {
      "inputs": [
        {
          "internalType": "contract TellerAS",
          "name": "_tellerAS",
          "type": "address"
        }
      ],
      "name": "initialize",
      "outputs": [],
      "stateMutability": "nonpayable",
      "type": "function"
    },
    {
      "inputs": [
        {
          "internalType": "uint256",
          "name": "_marketId",
          "type": "uint256"
        }
      ],
      "name": "isMarketClosed",
      "outputs": [
        {
          "internalType": "bool",
          "name": "",
          "type": "bool"
        }
      ],
      "stateMutability": "view",
      "type": "function"
    },
    {
      "inputs": [
        {
          "internalType": "uint256",
          "name": "_marketId",
          "type": "uint256"
        },
        {
          "internalType": "address",
          "name": "_borrower",
          "type": "address"
        }
      ],
      "name": "isVerifiedBorrower",
      "outputs": [
        {
          "internalType": "bool",
          "name": "isVerified_",
          "type": "bool"
        },
        {
          "internalType": "bytes32",
          "name": "uuid_",
          "type": "bytes32"
        }
      ],
      "stateMutability": "view",
      "type": "function"
    },
    {
      "inputs": [
        {
          "internalType": "uint256",
          "name": "_marketId",
          "type": "uint256"
        },
        {
          "internalType": "address",
          "name": "_lenderAddress",
          "type": "address"
        }
      ],
      "name": "isVerifiedLender",
      "outputs": [
        {
          "internalType": "bool",
          "name": "isVerified_",
          "type": "bool"
        },
        {
          "internalType": "bytes32",
          "name": "uuid_",
          "type": "bytes32"
        }
      ],
      "stateMutability": "view",
      "type": "function"
    },
    {
      "inputs": [
        {
          "internalType": "address",
          "name": "_owner",
          "type": "address"
        }
      ],
      "name": "setMarketOwner",
      "outputs": [],
      "stateMutability": "nonpayable",
      "type": "function"
    }
  ],
  "bytecode": {
    "object": "0x608060405234801561001057600080fd5b506040516106fd3803806106fd83398101604081905261002f91610054565b600080546001600160a01b0319166001600160a01b0392909216919091179055610084565b60006020828403121561006657600080fd5b81516001600160a01b038116811461007d57600080fd5b9392505050565b61066a806100936000396000f3fe608060405234801561001057600080fd5b50600436106100f55760003560e01c80633d36902911610097578063a5630f1911610066578063a5630f191461026e578063c4d66de814610294578063d6e794dd146102a5578063f9fa9345146102c057600080fd5b80633d369029146102065780633ef19a9b146100fa57806364413796146102065780636cdaa4211461023c57600080fd5b806311bed5bb116100d357806311bed5bb1461012e5780631a4808d2146101795780631cc672df146101b5578063344e553d146101d957600080fd5b8063066e7513146100fa578063082fc54d1461012e5780630a2e98e414610158575b600080fd5b6101126101083660046102f2565b5060019160009150565b6040805192151583526020830191909152015b60405180910390f35b61014361013c366004610322565b506103e890565b60405163ffffffff9091168152602001610125565b61016661013c366004610322565b60405161ffff9091168152602001610125565b6101a8610187366004610322565b5060408051808201909152600681526575726c3a2f2f60d01b602082015290565b604051610125919061033b565b6101c96101c3366004610322565b50600090565b6040519015158152602001610125565b6101f86101e736600461041a565b60009b9a5050505050505050505050565b604051908152602001610125565b610224610214366004610322565b506000546001600160a01b031690565b6040516001600160a01b039091168152602001610125565b61026c61024a3660046104ff565b600080546001600160a01b0319166001600160a01b0392909216919091179055565b005b61028661027c366004610322565b506103e890600090565b604051610125929190610541565b61026c6102a23660046104ff565b50565b6102b36101c3366004610322565b6040516101259190610564565b6101f86102ce366004610577565b60009998505050505050505050565b6001600160a01b03811681146102a257600080fd5b6000806040838503121561030557600080fd5b823591506020830135610317816102dd565b809150509250929050565b60006020828403121561033457600080fd5b5035919050565b600060208083528351808285015260005b818110156103685785810183015185820160400152820161034c565b506000604082860101526040601f19601f8301168501019250505092915050565b803563ffffffff8116811461039d57600080fd5b919050565b803561ffff8116811461039d57600080fd5b8035801515811461039d57600080fd5b600281106102a257600080fd5b60008083601f8401126103e357600080fd5b50813567ffffffffffffffff8111156103fb57600080fd5b60208301915083602082850101111561041357600080fd5b9250929050565b60008060008060008060008060008060006101408c8e03121561043c57600080fd5b8b35610447816102dd565b9a5061045560208d01610389565b995061046360408d01610389565b985061047160608d01610389565b975061047f60808d016103a2565b965061048d60a08d016103b4565b955061049b60c08d016103b4565b945060e08c01356104ab816103c4565b93506101008c01356104bc816103c4565b92506101208c013567ffffffffffffffff8111156104d957600080fd5b6104e58e828f016103d1565b915080935050809150509295989b509295989b9093969950565b60006020828403121561051157600080fd5b813561051c816102dd565b9392505050565b600281106102a257634e487b7160e01b600052602160045260246000fd5b63ffffffff831681526040810161055783610523565b8260208301529392505050565b6020810161057183610523565b91905290565b60008060008060008060008060006101008a8c03121561059657600080fd5b89356105a1816102dd565b98506105af60208b01610389565b97506105bd60408b01610389565b96506105cb60608b01610389565b95506105d960808b016103a2565b94506105e760a08b016103b4565b93506105f560c08b016103b4565b925060e08a013567ffffffffffffffff81111561061157600080fd5b61061d8c828d016103d1565b91508093505080915050929598509295985092959856fea2646970667358221220db4411883f7480d732e0a82507591463f095e3f434d751e9ac1ed6249f8732a964736f6c63430008110033",
    "linkReferences": {}
  },
  "methodIdentifiers": {
    "createMarket(address,uint32,uint32,uint32,uint16,bool,bool,string)": "f9fa9345",
    "createMarket(address,uint32,uint32,uint32,uint16,bool,bool,uint8,uint8,string)": "344e553d",
    "getBidExpirationTime(uint256)": "082fc54d",
    "getMarketFeeRecipient(uint256)": "64413796",
    "getMarketOwner(uint256)": "3d369029",
    "getMarketURI(uint256)": "1a4808d2",
    "getMarketplaceFee(uint256)": "0a2e98e4",
    "getPaymentCycle(uint256)": "a5630f19",
    "getPaymentDefaultDuration(uint256)": "11bed5bb",
    "getPaymentType(uint256)": "d6e794dd",
    "initialize(address)": "c4d66de8",
    "isMarketClosed(uint256)": "1cc672df",
    "isVerifiedBorrower(uint256,address)": "066e7513",
    "isVerifiedLender(uint256,address)": "3ef19a9b",
    "setMarketOwner(address)": "6cdaa421"
  },
  "id": 34
}