{
  "abi": [
    {
      "inputs": [
        {
          "internalType": "address",
          "name": "_initialOwner",
          "type": "address"
        },
        {
          "internalType": "uint32",
          "name": "_paymentCycleDuration",
          "type": "uint32"
        },
        {
          "internalType": "uint32",
          "name": "_paymentDefaultDuration",
          "type": "uint32"
        },
        {
          "internalType": "uint32",
          "name": "_bidExpirationTime",
          "type": "uint32"
        },
        {
          "internalType": "uint16",
          "name": "_feePercent",
          "type": "uint16"
        },
        {
          "internalType": "bool",
          "name": "_requireLenderAttestation",
          "type": "bool"
        },
        {
          "internalType": "bool",
          "name": "_requireBorrowerAttestation",
          "type": "bool"
        },
        {
          "internalType": "enum PaymentType",
          "name": "_paymentType",
          "type": "uint8"
        },
        {
          "internalType": "string",
          "name": "_uri",
          "type": "string"
        }
      ],
      "name": "createMarket",
      "outputs": [
        {
          "internalType": "uint256",
          "name": "",
          "type": "uint256"
        }
      ],
      "stateMutability": "nonpayable",
      "type": "function"
    },
    {
      "inputs": [
        {
          "internalType": "address",
          "name": "_initialOwner",
          "type": "address"
        },
        {
          "internalType": "uint32",
          "name": "_paymentCycleDuration",
          "type": "uint32"
        },
        {
          "internalType": "uint32",
          "name": "_paymentDefaultDuration",
          "type": "uint32"
        },
        {
          "internalType": "uint32",
          "name": "_bidExpirationTime",
          "type": "uint32"
        },
        {
          "internalType": "uint16",
          "name": "_feePercent",
          "type": "uint16"
        },
        {
          "internalType": "bool",
          "name": "_requireLenderAttestation",
          "type": "bool"
        },
        {
          "internalType": "bool",
          "name": "_requireBorrowerAttestation",
          "type": "bool"
        },
        {
          "internalType": "string",
          "name": "_uri",
          "type": "string"
        }
      ],
      "name": "createMarket",
      "outputs": [
        {
          "internalType": "uint256",
          "name": "",
          "type": "uint256"
        }
      ],
      "stateMutability": "nonpayable",
      "type": "function"
    },
    {
      "inputs": [
        {
          "internalType": "uint256",
          "name": "_marketId",
          "type": "uint256"
        }
      ],
      "name": "getBidExpirationTime",
      "outputs": [
        {
          "internalType": "uint32",
          "name": "",
          "type": "uint32"
        }
      ],
      "stateMutability": "nonpayable",
      "type": "function"
    },
    {
      "inputs": [
        {
          "internalType": "uint256",
          "name": "_marketId",
          "type": "uint256"
        }
      ],
      "name": "getMarketFeeRecipient",
      "outputs": [
        {
          "internalType": "address",
          "name": "",
          "type": "address"
        }
      ],
      "stateMutability": "nonpayable",
      "type": "function"
    },
    {
      "inputs": [
        {
          "internalType": "uint256",
          "name": "_marketId",
          "type": "uint256"
        }
      ],
      "name": "getMarketOwner",
      "outputs": [
        {
          "internalType": "address",
          "name": "",
          "type": "address"
        }
      ],
      "stateMutability": "nonpayable",
      "type": "function"
    },
    {
      "inputs": [
        {
          "internalType": "uint256",
          "name": "_marketId",
          "type": "uint256"
        }
      ],
      "name": "getMarketURI",
      "outputs": [
        {
          "internalType": "string",
          "name": "",
          "type": "string"
        }
      ],
      "stateMutability": "nonpayable",
      "type": "function"
    },
    {
      "inputs": [
        {
          "internalType": "uint256",
          "name": "_marketId",
          "type": "uint256"
        }
      ],
      "name": "getMarketplaceFee",
      "outputs": [
        {
          "internalType": "uint16",
          "name": "",
          "type": "uint16"
        }
      ],
      "stateMutability": "nonpayable",
      "type": "function"
    },
    {
      "inputs": [
        {
          "internalType": "uint256",
          "name": "_marketId",
          "type": "uint256"
        }
      ],
      "name": "getPaymentCycleDuration",
      "outputs": [
        {
          "internalType": "uint32",
          "name": "",
          "type": "uint32"
        }
      ],
      "stateMutability": "nonpayable",
      "type": "function"
    },
    {
      "inputs": [
        {
          "internalType": "uint256",
          "name": "_marketId",
          "type": "uint256"
        }
      ],
      "name": "getPaymentDefaultDuration",
      "outputs": [
        {
          "internalType": "uint32",
          "name": "",
          "type": "uint32"
        }
      ],
      "stateMutability": "nonpayable",
      "type": "function"
    },
    {
      "inputs": [
        {
          "internalType": "uint256",
          "name": "_marketId",
          "type": "uint256"
        }
      ],
      "name": "getPaymentType",
      "outputs": [
        {
          "internalType": "enum PaymentType",
          "name": "",
          "type": "uint8"
        }
      ],
      "stateMutability": "view",
      "type": "function"
    },
    {
      "inputs": [
        {
          "internalType": "contract TellerAS",
          "name": "_tellerAS",
          "type": "address"
        }
      ],
      "name": "initialize",
      "outputs": [],
      "stateMutability": "nonpayable",
      "type": "function"
    },
    {
      "inputs": [
        {
          "internalType": "uint256",
          "name": "_marketId",
          "type": "uint256"
        }
      ],
      "name": "isMarketClosed",
      "outputs": [
        {
          "internalType": "bool",
          "name": "",
          "type": "bool"
        }
      ],
      "stateMutability": "nonpayable",
      "type": "function"
    },
    {
      "inputs": [
        {
          "internalType": "uint256",
          "name": "_marketId",
          "type": "uint256"
        },
        {
          "internalType": "address",
          "name": "_borrower",
          "type": "address"
        }
      ],
      "name": "isVerifiedBorrower",
      "outputs": [
        {
          "internalType": "bool",
          "name": "isVerified_",
          "type": "bool"
        },
        {
          "internalType": "bytes32",
          "name": "uuid_",
          "type": "bytes32"
        }
      ],
      "stateMutability": "nonpayable",
      "type": "function"
    },
    {
      "inputs": [
        {
          "internalType": "uint256",
          "name": "_marketId",
          "type": "uint256"
        },
        {
          "internalType": "address",
          "name": "_lenderAddress",
          "type": "address"
        }
      ],
      "name": "isVerifiedLender",
      "outputs": [
        {
          "internalType": "bool",
          "name": "isVerified_",
          "type": "bool"
        },
        {
          "internalType": "bytes32",
          "name": "uuid_",
          "type": "bytes32"
        }
      ],
      "stateMutability": "nonpayable",
      "type": "function"
    },
    {
      "inputs": [
        {
          "internalType": "address",
          "name": "_owner",
          "type": "address"
        }
      ],
      "name": "setMarketOwner",
      "outputs": [],
      "stateMutability": "nonpayable",
      "type": "function"
    }
  ],
  "bytecode": {
    "object": "0x608060405234801561001057600080fd5b506105fa806100206000396000f3fe608060405234801561001057600080fd5b50600436106100f55760003560e01c80633ef19a9b11610097578063c4d66de811610066578063c4d66de814610241578063cb90cc3114610252578063d6e794dd1461027e578063f9fa93451461029957600080fd5b80633ef19a9b146100fa57806364413796146101d95780636cdaa4211461020f578063805deb531461012e57600080fd5b806311bed5bb116100d357806311bed5bb1461012e5780631a4808d2146101795780631cc672df146101b55780633d369029146101d957600080fd5b8063066e7513146100fa578063082fc54d1461012e5780630a2e98e414610158575b600080fd5b6101126101083660046102cb565b5060019160009150565b6040805192151583526020830191909152015b60405180910390f35b61014361013c3660046102fb565b506103e890565b60405163ffffffff9091168152602001610125565b61016661013c3660046102fb565b60405161ffff9091168152602001610125565b6101a86101873660046102fb565b5060408051808201909152600681526575726c3a2f2f60d01b602082015290565b6040516101259190610314565b6101c96101c33660046102fb565b50600090565b6040519015158152602001610125565b6101f76101e73660046102fb565b506000546001600160a01b031690565b6040516001600160a01b039091168152602001610125565b61023f61021d366004610362565b600080546001600160a01b0319166001600160a01b0392909216919091179055565b005b61023f61024f366004610362565b50565b61027061026036600461040a565b60009a9950505050505050505050565b604051908152602001610125565b61028c6101c33660046102fb565b60405161012591906104df565b6102706102a7366004610507565b60009998505050505050505050565b6001600160a01b038116811461024f57600080fd5b600080604083850312156102de57600080fd5b8235915060208301356102f0816102b6565b809150509250929050565b60006020828403121561030d57600080fd5b5035919050565b600060208083528351808285015260005b8181101561034157858101830151858201604001528201610325565b506000604082860101526040601f19601f8301168501019250505092915050565b60006020828403121561037457600080fd5b813561037f816102b6565b9392505050565b803563ffffffff8116811461039a57600080fd5b919050565b803561ffff8116811461039a57600080fd5b8035801515811461039a57600080fd5b60008083601f8401126103d357600080fd5b50813567ffffffffffffffff8111156103eb57600080fd5b60208301915083602082850101111561040357600080fd5b9250929050565b6000806000806000806000806000806101208b8d03121561042a57600080fd5b8a35610435816102b6565b995061044360208c01610386565b985061045160408c01610386565b975061045f60608c01610386565b965061046d60808c0161039f565b955061047b60a08c016103b1565b945061048960c08c016103b1565b935060e08b01356002811061049d57600080fd5b92506101008b013567ffffffffffffffff8111156104ba57600080fd5b6104c68d828e016103c1565b915080935050809150509295989b9194979a5092959850565b602081016002831061050157634e487b7160e01b600052602160045260246000fd5b91905290565b60008060008060008060008060006101008a8c03121561052657600080fd5b8935610531816102b6565b985061053f60208b01610386565b975061054d60408b01610386565b965061055b60608b01610386565b955061056960808b0161039f565b945061057760a08b016103b1565b935061058560c08b016103b1565b925060e08a013567ffffffffffffffff8111156105a157600080fd5b6105ad8c828d016103c1565b91508093505080915050929598509295985092959856fea26469706673582212201f9362e848387931dd3afae65c580957b62b0563b4ee27837cc5fb4192344b9b64736f6c63430008110033",
    "linkReferences": {}
  },
  "methodIdentifiers": {
    "createMarket(address,uint32,uint32,uint32,uint16,bool,bool,string)": "f9fa9345",
    "createMarket(address,uint32,uint32,uint32,uint16,bool,bool,uint8,string)": "cb90cc31",
    "getBidExpirationTime(uint256)": "082fc54d",
    "getMarketFeeRecipient(uint256)": "64413796",
    "getMarketOwner(uint256)": "3d369029",
    "getMarketURI(uint256)": "1a4808d2",
    "getMarketplaceFee(uint256)": "0a2e98e4",
    "getPaymentCycleDuration(uint256)": "805deb53",
    "getPaymentDefaultDuration(uint256)": "11bed5bb",
    "getPaymentType(uint256)": "d6e794dd",
    "initialize(address)": "c4d66de8",
    "isMarketClosed(uint256)": "1cc672df",
    "isVerifiedBorrower(uint256,address)": "066e7513",
    "isVerifiedLender(uint256,address)": "3ef19a9b",
    "setMarketOwner(address)": "6cdaa421"
  },
  "id": 29
}