{
  "abi": [
    {
      "inputs": [],
      "stateMutability": "nonpayable",
      "type": "constructor"
    },
    {
      "inputs": [],
      "name": "InvalidSignature",
      "type": "error"
    },
    {
      "inputs": [],
      "name": "ATTEST_TYPEHASH",
      "outputs": [
        {
          "internalType": "bytes32",
          "name": "",
          "type": "bytes32"
        }
      ],
      "stateMutability": "view",
      "type": "function"
    },
    {
      "inputs": [],
      "name": "DOMAIN_SEPARATOR",
      "outputs": [
        {
          "internalType": "bytes32",
          "name": "",
          "type": "bytes32"
        }
      ],
      "stateMutability": "view",
      "type": "function"
    },
    {
      "inputs": [],
      "name": "REVOKE_TYPEHASH",
      "outputs": [
        {
          "internalType": "bytes32",
          "name": "",
          "type": "bytes32"
        }
      ],
      "stateMutability": "view",
      "type": "function"
    },
    {
      "inputs": [],
      "name": "VERSION",
      "outputs": [
        {
          "internalType": "string",
          "name": "",
          "type": "string"
        }
      ],
      "stateMutability": "view",
      "type": "function"
    },
    {
      "inputs": [
        {
          "internalType": "address",
          "name": "recipient",
          "type": "address"
        },
        {
          "internalType": "bytes32",
          "name": "schema",
          "type": "bytes32"
        },
        {
          "internalType": "uint256",
          "name": "expirationTime",
          "type": "uint256"
        },
        {
          "internalType": "bytes32",
          "name": "refUUID",
          "type": "bytes32"
        },
        {
          "internalType": "bytes",
          "name": "data",
          "type": "bytes"
        },
        {
          "internalType": "address",
          "name": "attester",
          "type": "address"
        },
        {
          "internalType": "uint8",
          "name": "v",
          "type": "uint8"
        },
        {
          "internalType": "bytes32",
          "name": "r",
          "type": "bytes32"
        },
        {
          "internalType": "bytes32",
          "name": "s",
          "type": "bytes32"
        }
      ],
      "name": "attest",
      "outputs": [],
      "stateMutability": "nonpayable",
      "type": "function"
    },
    {
      "inputs": [
        {
          "internalType": "address",
          "name": "account",
          "type": "address"
        }
      ],
      "name": "getNonce",
      "outputs": [
        {
          "internalType": "uint256",
          "name": "",
          "type": "uint256"
        }
      ],
      "stateMutability": "view",
      "type": "function"
    },
    {
      "inputs": [
        {
          "internalType": "bytes32",
          "name": "uuid",
          "type": "bytes32"
        },
        {
          "internalType": "address",
          "name": "attester",
          "type": "address"
        },
        {
          "internalType": "uint8",
          "name": "v",
          "type": "uint8"
        },
        {
          "internalType": "bytes32",
          "name": "r",
          "type": "bytes32"
        },
        {
          "internalType": "bytes32",
          "name": "s",
          "type": "bytes32"
        }
      ],
      "name": "revoke",
      "outputs": [],
      "stateMutability": "nonpayable",
      "type": "function"
    }
  ],
  "bytecode": {
    "object": "0x60a060405234801561001057600080fd5b5060408051808201825260038082526245415360e81b60209283015282518084018452908152620605c760eb1b9082015281517f8b73c3c69bb8fe3d512ecc4cf759cc79239f7b179b0ffacaa9a75d522b39400f818301527f9fed719e0073f95229e6f4f6b6f28f260c524ab08aa40b11f9c28cb710d7c72a818401527f15e7a716d821b9602c70f6d0f574efbb8147fb465215d43354c7b3e69d03ed926060820152466080808301919091523060a0808401919091528451808403909101815260c090920190935280519101209081905261071c6101076000396000818160d8015281816101a6015261031a015261071c6000f3fe608060405234801561001057600080fd5b506004361061007d5760003560e01c80636aeb49a51161005b5780636aeb49a5146100fa5780637e4a7d8f1461010d5780638a73222714610134578063ffa1ad741461015b57600080fd5b80631863f01d146100825780632d0335ab146100975780633644e515146100d3575b600080fd5b61009561009036600461051b565b61018a565b005b6100c06100a5366004610569565b6001600160a01b031660009081526020819052604090205490565b6040519081526020015b60405180910390f35b6100c07f000000000000000000000000000000000000000000000000000000000000000081565b61009561010836600461058b565b610316565b6100c07f39c0608dd995a3a25bfecb0fffe6801a81bae611d94438af988caa522d9d147681565b6100c07fbae0931f3a99efd1b97c2f5b6b6e79d16418246b5055d64757e16de5ad11a8ab81565b61017d604051806040016040528060038152602001620605c760eb1b81525081565b6040516100ca9190610661565b6001600160a01b038416600090815260208190526040812080547f0000000000000000000000000000000000000000000000000000000000000000917fbae0931f3a99efd1b97c2f5b6b6e79d16418246b5055d64757e16de5ad11a8ab918991856101f4836106af565b9091555060408051602081019490945283019190915260608201526080016040516020818303038152906040528051906020012060405160200161024f92919061190160f01b81526002810192909252602282015260420190565b60408051601f198184030181528282528051602091820120600080855291840180845281905260ff88169284019290925260608301869052608083018590529092509060019060a0016020604051602081039080840390855afa1580156102ba573d6000803e3d6000fd5b5050604051601f1901519150506001600160a01b03811615806102ef5750856001600160a01b0316816001600160a01b031614155b1561030d57604051638baa579f60e01b815260040160405180910390fd5b50505050505050565b60007f00000000000000000000000000000000000000000000000000000000000000007f39c0608dd995a3a25bfecb0fffe6801a81bae611d94438af988caa522d9d147660001b8c8c8c8c8c8c6040516103719291906106d6565b60408051918290039091206001600160a01b038d1660009081526020819052918220805491926103a0836106af565b909155506040805160208101989098526001600160a01b03909616958701959095526060860193909352608085019190915260a084015260c083015260e0820152610100016040516020818303038152906040528051906020012060405160200161042292919061190160f01b81526002810192909252602282015260420190565b60408051601f198184030181528282528051602091820120600080855291840180845281905260ff88169284019290925260608301869052608083018590529092509060019060a0016020604051602081039080840390855afa15801561048d573d6000803e3d6000fd5b5050604051601f1901519150506001600160a01b03811615806104c25750856001600160a01b0316816001600160a01b031614155b156104e057604051638baa579f60e01b815260040160405180910390fd5b505050505050505050505050565b80356001600160a01b038116811461050557600080fd5b919050565b803560ff8116811461050557600080fd5b600080600080600060a0868803121561053357600080fd5b85359450610543602087016104ee565b93506105516040870161050a565b94979396509394606081013594506080013592915050565b60006020828403121561057b57600080fd5b610584826104ee565b9392505050565b6000806000806000806000806000806101208b8d0312156105ab57600080fd5b6105b48b6104ee565b995060208b0135985060408b0135975060608b0135965060808b013567ffffffffffffffff808211156105e657600080fd5b818d0191508d601f8301126105fa57600080fd5b81358181111561060957600080fd5b8e602082850101111561061b57600080fd5b60208301985080975050505061063360a08c016104ee565b935061064160c08c0161050a565b925060e08b013591506101008b013590509295989b9194979a5092959850565b600060208083528351808285015260005b8181101561068e57858101830151858201604001528201610672565b506000604082860101526040601f19601f8301168501019250505092915050565b6000600182016106cf57634e487b7160e01b600052601160045260246000fd5b5060010190565b818382376000910190815291905056fea26469706673582212206b5521648ab3104c13c70c9281d0098356598beeab570789215bb1b99b12120b64736f6c63430008110033",
    "linkReferences": {}
  },
  "methodIdentifiers": {
    "ATTEST_TYPEHASH()": "7e4a7d8f",
    "DOMAIN_SEPARATOR()": "3644e515",
    "REVOKE_TYPEHASH()": "8a732227",
    "VERSION()": "ffa1ad74",
    "attest(address,bytes32,uint256,bytes32,bytes,address,uint8,bytes32,bytes32)": "6aeb49a5",
    "getNonce(address)": "2d0335ab",
    "revoke(bytes32,address,uint8,bytes32,bytes32)": "1863f01d"
  },
  "id": 2
}