{
  "abi": [
    {
      "inputs": [],
      "stateMutability": "nonpayable",
      "type": "constructor"
    },
    {
      "anonymous": false,
      "inputs": [
        {
          "indexed": false,
          "internalType": "uint8",
          "name": "version",
          "type": "uint8"
        }
      ],
      "name": "Initialized",
      "type": "event"
    },
    {
      "anonymous": false,
      "inputs": [
        {
          "indexed": true,
          "internalType": "uint256",
          "name": "marketId",
          "type": "uint256"
        },
        {
          "indexed": true,
          "internalType": "address",
          "name": "forwarder",
          "type": "address"
        },
        {
          "indexed": false,
          "internalType": "address",
          "name": "sender",
          "type": "address"
        }
      ],
      "name": "MarketForwarderApproved",
      "type": "event"
    },
    {
      "anonymous": false,
      "inputs": [
        {
          "indexed": true,
          "internalType": "uint256",
          "name": "marketId",
          "type": "uint256"
        },
        {
          "indexed": false,
          "internalType": "address",
          "name": "forwarder",
          "type": "address"
        },
        {
          "indexed": false,
          "internalType": "address",
          "name": "sender",
          "type": "address"
        }
      ],
      "name": "TrustedMarketForwarderSet",
      "type": "event"
    },
    {
      "inputs": [
        {
          "internalType": "contract User",
          "name": "_marketOwner",
          "type": "address"
        }
      ],
      "name": "__setMarketOwner",
      "outputs": [],
      "stateMutability": "nonpayable",
      "type": "function"
    },
    {
      "inputs": [
        {
          "internalType": "address",
          "name": "",
          "type": "address"
        }
      ],
      "name": "_lenderVolumeFilled",
      "outputs": [
        {
          "internalType": "uint256",
          "name": "",
          "type": "uint256"
        }
      ],
      "stateMutability": "view",
      "type": "function"
    },
    {
      "inputs": [],
      "name": "_totalVolumeFilled",
      "outputs": [
        {
          "internalType": "uint256",
          "name": "",
          "type": "uint256"
        }
      ],
      "stateMutability": "view",
      "type": "function"
    },
    {
      "inputs": [
        {
          "internalType": "uint256",
          "name": "_marketId",
          "type": "uint256"
        },
        {
          "internalType": "address",
          "name": "_forwarder",
          "type": "address"
        }
      ],
      "name": "approveMarketForwarder",
      "outputs": [],
      "stateMutability": "nonpayable",
      "type": "function"
    },
    {
      "inputs": [
        {
          "internalType": "uint256",
          "name": "",
          "type": "uint256"
        }
      ],
      "name": "bidDefaultDuration",
      "outputs": [
        {
          "internalType": "uint32",
          "name": "",
          "type": "uint32"
        }
      ],
      "stateMutability": "view",
      "type": "function"
    },
    {
      "inputs": [
        {
          "internalType": "uint256",
          "name": "",
          "type": "uint256"
        }
      ],
      "name": "bidExpirationTime",
      "outputs": [
        {
          "internalType": "uint32",
          "name": "",
          "type": "uint32"
        }
      ],
      "stateMutability": "view",
      "type": "function"
    },
    {
      "inputs": [],
      "name": "bidId",
      "outputs": [
        {
          "internalType": "uint256",
          "name": "",
          "type": "uint256"
        }
      ],
      "stateMutability": "view",
      "type": "function"
    },
    {
      "inputs": [
        {
          "internalType": "uint256",
          "name": "",
          "type": "uint256"
        }
      ],
      "name": "bidPaymentCycleType",
      "outputs": [
        {
          "internalType": "enum PaymentCycleType",
          "name": "",
          "type": "uint8"
        }
      ],
      "stateMutability": "view",
      "type": "function"
    },
    {
      "inputs": [
        {
          "internalType": "uint256",
          "name": "",
          "type": "uint256"
        }
      ],
      "name": "bids",
      "outputs": [
        {
          "internalType": "address",
          "name": "borrower",
          "type": "address"
        },
        {
          "internalType": "address",
          "name": "receiver",
          "type": "address"
        },
        {
          "internalType": "address",
          "name": "lender",
          "type": "address"
        },
        {
          "internalType": "uint256",
          "name": "marketplaceId",
          "type": "uint256"
        },
        {
          "internalType": "bytes32",
          "name": "_metadataURI",
          "type": "bytes32"
        },
        {
          "components": [
            {
              "internalType": "contract ERC20",
              "name": "lendingToken",
              "type": "address"
            },
            {
              "internalType": "uint256",
              "name": "principal",
              "type": "uint256"
            },
            {
              "components": [
                {
                  "internalType": "uint256",
                  "name": "principal",
                  "type": "uint256"
                },
                {
                  "internalType": "uint256",
                  "name": "interest",
                  "type": "uint256"
                }
              ],
              "internalType": "struct Payment",
              "name": "totalRepaid",
              "type": "tuple"
            },
            {
              "internalType": "uint32",
              "name": "timestamp",
              "type": "uint32"
            },
            {
              "internalType": "uint32",
              "name": "acceptedTimestamp",
              "type": "uint32"
            },
            {
              "internalType": "uint32",
              "name": "lastRepaidTimestamp",
              "type": "uint32"
            },
            {
              "internalType": "uint32",
              "name": "loanDuration",
              "type": "uint32"
            }
          ],
          "internalType": "struct LoanDetails",
          "name": "loanDetails",
          "type": "tuple"
        },
        {
          "components": [
            {
              "internalType": "uint256",
              "name": "paymentCycleAmount",
              "type": "uint256"
            },
            {
              "internalType": "uint32",
              "name": "paymentCycle",
              "type": "uint32"
            },
            {
              "internalType": "uint16",
              "name": "APR",
              "type": "uint16"
            }
          ],
          "internalType": "struct Terms",
          "name": "terms",
          "type": "tuple"
        },
        {
          "internalType": "enum BidState",
          "name": "state",
          "type": "uint8"
        },
        {
          "internalType": "enum PaymentType",
          "name": "paymentType",
          "type": "uint8"
        }
      ],
      "stateMutability": "view",
      "type": "function"
    },
    {
      "inputs": [
        {
          "internalType": "address",
          "name": "",
          "type": "address"
        },
        {
          "internalType": "uint256",
          "name": "",
          "type": "uint256"
        }
      ],
      "name": "borrowerBids",
      "outputs": [
        {
          "internalType": "uint256",
          "name": "",
          "type": "uint256"
        }
      ],
      "stateMutability": "view",
      "type": "function"
    },
    {
      "inputs": [],
      "name": "collateralManager",
      "outputs": [
        {
          "internalType": "contract ICollateralManager",
          "name": "",
          "type": "address"
        }
      ],
      "stateMutability": "view",
      "type": "function"
    },
    {
      "inputs": [
        {
          "internalType": "uint256",
          "name": "_marketId",
          "type": "uint256"
        }
      ],
      "name": "getDataForMarket",
      "outputs": [
        {
          "internalType": "bytes",
          "name": "",
          "type": "bytes"
        }
      ],
      "stateMutability": "view",
      "type": "function"
    },
    {
      "inputs": [
        {
          "internalType": "uint256",
          "name": "_marketId",
          "type": "uint256"
        }
      ],
      "name": "getSenderForMarket",
      "outputs": [
        {
          "internalType": "address",
          "name": "",
          "type": "address"
        }
      ],
      "stateMutability": "view",
      "type": "function"
    },
    {
      "inputs": [
        {
          "internalType": "uint256",
          "name": "_marketId",
          "type": "uint256"
        },
        {
          "internalType": "address",
          "name": "_forwarder",
          "type": "address"
        },
        {
          "internalType": "address",
          "name": "_account",
          "type": "address"
        }
      ],
      "name": "hasApprovedMarketForwarder",
      "outputs": [
        {
          "internalType": "bool",
          "name": "",
          "type": "bool"
        }
      ],
      "stateMutability": "view",
      "type": "function"
    },
    {
      "inputs": [
        {
          "internalType": "address",
          "name": "forwarder",
          "type": "address"
        }
      ],
      "name": "isTrustedForwarder",
      "outputs": [
        {
          "internalType": "bool",
          "name": "",
          "type": "bool"
        }
      ],
      "stateMutability": "view",
      "type": "function"
    },
    {
      "inputs": [
        {
          "internalType": "uint256",
          "name": "_marketId",
          "type": "uint256"
        },
        {
          "internalType": "address",
          "name": "_trustedMarketForwarder",
          "type": "address"
        }
      ],
      "name": "isTrustedMarketForwarder",
      "outputs": [
        {
          "internalType": "bool",
          "name": "",
          "type": "bool"
        }
      ],
      "stateMutability": "view",
      "type": "function"
    },
    {
      "inputs": [],
      "name": "lenderCommitmentForwarder",
      "outputs": [
        {
          "internalType": "address",
          "name": "",
          "type": "address"
        }
      ],
      "stateMutability": "view",
      "type": "function"
    },
    {
      "inputs": [],
      "name": "lenderManager",
      "outputs": [
        {
          "internalType": "contract ILenderManager",
          "name": "",
          "type": "address"
        }
      ],
      "stateMutability": "view",
      "type": "function"
    },
    {
      "inputs": [
        {
          "internalType": "address",
          "name": "",
          "type": "address"
        },
        {
          "internalType": "address",
          "name": "",
          "type": "address"
        }
      ],
      "name": "lenderVolumeFilled",
      "outputs": [
        {
          "internalType": "uint256",
          "name": "",
          "type": "uint256"
        }
      ],
      "stateMutability": "view",
      "type": "function"
    },
    {
      "inputs": [],
      "name": "marketRegistry",
      "outputs": [
        {
          "internalType": "contract IMarketRegistry",
          "name": "",
          "type": "address"
        }
      ],
      "stateMutability": "view",
      "type": "function"
    },
    {
      "inputs": [],
      "name": "reputationManager",
      "outputs": [
        {
          "internalType": "contract IReputationManager",
          "name": "",
          "type": "address"
        }
      ],
      "stateMutability": "view",
      "type": "function"
    },
    {
      "inputs": [
        {
          "internalType": "uint256",
          "name": "_marketId",
          "type": "uint256"
        },
        {
          "internalType": "address",
          "name": "_forwarder",
          "type": "address"
        }
      ],
      "name": "setTrustedMarketForwarder",
      "outputs": [],
      "stateMutability": "nonpayable",
      "type": "function"
    },
    {
      "inputs": [
        {
          "internalType": "address",
          "name": "",
          "type": "address"
        }
      ],
      "name": "totalVolumeFilled",
      "outputs": [
        {
          "internalType": "uint256",
          "name": "",
          "type": "uint256"
        }
      ],
      "stateMutability": "view",
      "type": "function"
    },
    {
      "inputs": [
        {
          "internalType": "uint256",
          "name": "",
          "type": "uint256"
        }
      ],
      "name": "uris",
      "outputs": [
        {
          "internalType": "string",
          "name": "",
          "type": "string"
        }
      ],
      "stateMutability": "view",
      "type": "function"
    },
    {
      "inputs": [],
      "name": "version",
      "outputs": [
        {
          "internalType": "uint256",
          "name": "",
          "type": "uint256"
        }
      ],
      "stateMutability": "view",
      "type": "function"
    }
  ],
  "bytecode": {
    "object": "0x60a0604052600060335534801561001557600080fd5b5060006080526080516115da610036600039600061086001526115da6000f3fe608060405234801561001057600080fd5b50600436106101735760003560e01c80634a06f6ea116100de5780638ac4731911610097578063c1576c8a11610071578063c1576c8a146104da578063d87569cc146104ed578063ecb96fe614610500578063f404df8f1461051357600080fd5b80638ac473191461049e578063b5d34fcd146104a7578063ba6d5b15146104c757600080fd5b80634a06f6ea1461041557806354fd4d5014610428578063572b6c05146104315780636b76c085146104445780636b868afb1461046a57806377353aba1461047d57600080fd5b806323be345c1161013057806323be345c146102525780632519dc791461027d5780632e9332d41461029d57806336735891146102b05780633819bcdc146102e05780634423c5f1146102f357600080fd5b8063089487b5146101785780631253c546146101b6578063127caa88146101d65780631289b396146102115780631420a2661461021a57806319b353de1461022f575b600080fd5b6101a3610186366004610b3c565b603f60209081526000928352604080842090915290825290205481565b6040519081526020015b60405180910390f35b6101c96101c4366004610b75565b610526565b6040516101ad9190610b8e565b6101fc6101e4366004610b75565b603e6020526000908152604090205463ffffffff1681565b60405163ffffffff90911681526020016101ad565b6101a360375481565b61022d610228366004610bdc565b6105c0565b005b61024261023d366004610c01565b61070d565b60405190151581526020016101ad565b604654610265906001600160a01b031681565b6040516001600160a01b0390911681526020016101ad565b6101a361028b366004610c43565b60406020819052600091825290205481565b61022d6102ab366004610bdc565b61074a565b6102d36102be366004610b75565b60486020526000908152604090205460ff1681565b6040516101ad9190610c86565b6101a36102ee366004610c99565b61082d565b610400610301366004610b75565b60346020908152600091825260409182902080546001820154600283015460038401546004850154875160e08101895260058701546001600160a01b0390811682526006880154828a01528951808b018b52600789015481526008890154818b0152828b0152600988015463ffffffff80821660608086019190915264010000000080840483166080870152680100000000000000008404831660a0870152600160601b909304821660c08601528c519081018d52600a8b01548152600b8b01549182169b81019b909b520461ffff1699890199909952600c909601549488169793841696939092169490939192909160ff8082169161010090041689565b6040516101ad99989796959493929190610ce2565b604754610265906001600160a01b031681565b6101a360415481565b61024261043f366004610c43565b61085e565b6101fc610452366004610b75565b603d6020526000908152604090205463ffffffff1681565b603b54610265906001600160a01b031681565b61049061048b366004610b75565b610890565b6040516101ad929190610dd6565b6101a360335481565b6101a36104b5366004610c43565b60366020526000908152604090205481565b604554610265906001600160a01b031681565b6102656104e8366004610b75565b6108a5565b6102426104fb366004610bdc565b6108b6565b603a54610265906001600160a01b031681565b61022d610521366004610c43565b6108f2565b6042602052600090815260409020805461053f90610e05565b80601f016020809104026020016040519081016040528092919081815260200182805461056b90610e05565b80156105b85780601f1061058d576101008083540402835291602001916105b8565b820191906000526020600020905b81548152906001019060200180831161059b57829003601f168201915b505050505081565b6105c861094f565b603a54604051633d36902960e01b8152600481018590526001600160a01b039283169290911690633d36902990602401602060405180830381865afa158015610615573d6000803e3d6000fd5b505050506040513d601f19601f820116820180604052508101906106399190610e3f565b6001600160a01b0316146106945760405162461bcd60e51b815260206004820152601f60248201527f43616c6c6572206d75737420626520746865206d61726b6574206f776e65720060448201526064015b60405180910390fd5b600082815260436020526040902080546001600160a01b0319166001600160a01b038316179055817fa593acf9edc343669c7fc50d2caa3911326adef438361f0fa911be85c9e296a4826106e661094f565b604080516001600160a01b0393841681529290911660208301520160405180910390a25050565b600061071984846108b6565b801561074257506001600160a01b03831660009081526044602052604090206107429083610971565b949350505050565b61075482826108b6565b6107b05760405162461bcd60e51b815260206004820152602760248201527f466f72776172646572206d757374206265207472757374656420627920746865604482015266081b585c9ad95d60ca1b606482015260840161068b565b6107d96107bb61094f565b6001600160a01b038316600090815260446020526040902090610993565b50806001600160a01b0316827f65d6b5305e8c0e58e88454a1aeecae0f55975222338b25abd0997b4d305056a161080e61094f565b6040516001600160a01b03909116815260200160405180910390a35050565b6035602052816000526040600020818154811061084957600080fd5b90600052602060002001600091509150505481565b7f00000000000000000000000000000000000000000000000000000000000000006001600160a01b0390811691161490565b36600061089c836109a8565b91509150915091565b60006108b0826109e0565b92915050565b6000828152604360205260408120546001600160a01b03838116911614806108eb57506045546001600160a01b038381169116145b9392505050565b806040516108ff90610b17565b6001600160a01b039091168152602001604051809103906000f08015801561092b573d6000803e3d6000fd5b50603a80546001600160a01b0319166001600160a01b039290921691909117905550565b600061095a3361085e565b1561096c575060131936013560601c90565b503390565b6001600160a01b038116600090815260018301602052604081205415156108eb565b60006108eb836001600160a01b038416610a8b565b3660006109b7836104fb61094f565b156109d857600080366109cb601482610e5c565b9261089c93929190610e7d565b61089c610ada565b60006109ee826104fb61094f565b15610a835760131936013560601c610a2b8160446000610a0c61094f565b6001600160a01b03168152602081019190915260400160002090610971565b6108b05760405162461bcd60e51b8152602060048201526024808201527f53656e646572206d75737420617070726f7665206d61726b657420666f727761604482015263393232b960e11b606482015260840161068b565b6108b061094f565b6000818152600183016020526040812054610ad2575081546001818101845560008481526020808220909301849055845484825282860190935260409020919091556108b0565b5060006108b0565b366000610ae63361085e565b15610b0f5760008036610afa601482610e5c565b92610b0793929190610e7d565b915091509091565b600036610b07565b6106fd80610ea883390190565b6001600160a01b0381168114610b3957600080fd5b50565b60008060408385031215610b4f57600080fd5b8235610b5a81610b24565b91506020830135610b6a81610b24565b809150509250929050565b600060208284031215610b8757600080fd5b5035919050565b600060208083528351808285015260005b81811015610bbb57858101830151858201604001528201610b9f565b506000604082860101526040601f19601f8301168501019250505092915050565b60008060408385031215610bef57600080fd5b823591506020830135610b6a81610b24565b600080600060608486031215610c1657600080fd5b833592506020840135610c2881610b24565b91506040840135610c3881610b24565b809150509250925092565b600060208284031215610c5557600080fd5b81356108eb81610b24565b634e487b7160e01b600052602160045260246000fd5b60028110610b3957610b39610c60565b60208101610c9383610c76565b91905290565b60008060408385031215610cac57600080fd5b8235610cb781610b24565b946020939093013593505050565b60068110610cd557610cd5610c60565b9052565b610cd581610c76565b60006102408201905060018060a01b03808c168352808b166020840152808a1660408401528860608401528760808401528087511660a084015250602086015160c08301526040860151805160e084015260208101516101008401525063ffffffff6060870151166101208301526080860151610d6861014084018263ffffffff169052565b5060a086015163ffffffff90811661016084015260c0870151811661018084015285516101a08401526020860151166101c0830152604085015161ffff166101e0830152610dba610200830185610cc5565b610dc8610220830184610cd9565b9a9950505050505050505050565b60208152816020820152818360408301376000818301604090810191909152601f909201601f19160101919050565b600181811c90821680610e1957607f821691505b602082108103610e3957634e487b7160e01b600052602260045260246000fd5b50919050565b600060208284031215610e5157600080fd5b81516108eb81610b24565b818103818111156108b057634e487b7160e01b600052601160045260246000fd5b60008085851115610e8d57600080fd5b83861115610e9a57600080fd5b505082019391909203915056fe608060405234801561001057600080fd5b506040516106fd3803806106fd83398101604081905261002f91610054565b600080546001600160a01b0319166001600160a01b0392909216919091179055610084565b60006020828403121561006657600080fd5b81516001600160a01b038116811461007d57600080fd5b9392505050565b61066a806100936000396000f3fe608060405234801561001057600080fd5b50600436106100f55760003560e01c80633d36902911610097578063a5630f1911610066578063a5630f191461026e578063c4d66de814610294578063d6e794dd146102a5578063f9fa9345146102c057600080fd5b80633d369029146102065780633ef19a9b146100fa57806364413796146102065780636cdaa4211461023c57600080fd5b806311bed5bb116100d357806311bed5bb1461012e5780631a4808d2146101795780631cc672df146101b5578063344e553d146101d957600080fd5b8063066e7513146100fa578063082fc54d1461012e5780630a2e98e414610158575b600080fd5b6101126101083660046102f2565b5060019160009150565b6040805192151583526020830191909152015b60405180910390f35b61014361013c366004610322565b506103e890565b60405163ffffffff9091168152602001610125565b61016661013c366004610322565b60405161ffff9091168152602001610125565b6101a8610187366004610322565b5060408051808201909152600681526575726c3a2f2f60d01b602082015290565b604051610125919061033b565b6101c96101c3366004610322565b50600090565b6040519015158152602001610125565b6101f86101e736600461041a565b60009b9a5050505050505050505050565b604051908152602001610125565b610224610214366004610322565b506000546001600160a01b031690565b6040516001600160a01b039091168152602001610125565b61026c61024a3660046104ff565b600080546001600160a01b0319166001600160a01b0392909216919091179055565b005b61028661027c366004610322565b506103e890600090565b604051610125929190610541565b61026c6102a23660046104ff565b50565b6102b36101c3366004610322565b6040516101259190610564565b6101f86102ce366004610577565b60009998505050505050505050565b6001600160a01b03811681146102a257600080fd5b6000806040838503121561030557600080fd5b823591506020830135610317816102dd565b809150509250929050565b60006020828403121561033457600080fd5b5035919050565b600060208083528351808285015260005b818110156103685785810183015185820160400152820161034c565b506000604082860101526040601f19601f8301168501019250505092915050565b803563ffffffff8116811461039d57600080fd5b919050565b803561ffff8116811461039d57600080fd5b8035801515811461039d57600080fd5b600281106102a257600080fd5b60008083601f8401126103e357600080fd5b50813567ffffffffffffffff8111156103fb57600080fd5b60208301915083602082850101111561041357600080fd5b9250929050565b60008060008060008060008060008060006101408c8e03121561043c57600080fd5b8b35610447816102dd565b9a5061045560208d01610389565b995061046360408d01610389565b985061047160608d01610389565b975061047f60808d016103a2565b965061048d60a08d016103b4565b955061049b60c08d016103b4565b945060e08c01356104ab816103c4565b93506101008c01356104bc816103c4565b92506101208c013567ffffffffffffffff8111156104d957600080fd5b6104e58e828f016103d1565b915080935050809150509295989b509295989b9093969950565b60006020828403121561051157600080fd5b813561051c816102dd565b9392505050565b600281106102a257634e487b7160e01b600052602160045260246000fd5b63ffffffff831681526040810161055783610523565b8260208301529392505050565b6020810161057183610523565b91905290565b60008060008060008060008060006101008a8c03121561059657600080fd5b89356105a1816102dd565b98506105af60208b01610389565b97506105bd60408b01610389565b96506105cb60608b01610389565b95506105d960808b016103a2565b94506105e760a08b016103b4565b93506105f560c08b016103b4565b925060e08a013567ffffffffffffffff81111561061157600080fd5b61061d8c828d016103d1565b91508093505080915050929598509295985092959856fea2646970667358221220db4411883f7480d732e0a82507591463f095e3f434d751e9ac1ed6249f8732a964736f6c63430008110033a264697066735822122082dbbaa8252669fc5ba535711838bc7f311e311c0120461d9cf5867ab95a351364736f6c63430008110033",
    "linkReferences": {}
  },
  "methodIdentifiers": {
    "__setMarketOwner(address)": "f404df8f",
    "_lenderVolumeFilled(address)": "b5d34fcd",
    "_totalVolumeFilled()": "1289b396",
    "approveMarketForwarder(uint256,address)": "2e9332d4",
    "bidDefaultDuration(uint256)": "6b76c085",
    "bidExpirationTime(uint256)": "127caa88",
    "bidId()": "8ac47319",
    "bidPaymentCycleType(uint256)": "36735891",
    "bids(uint256)": "4423c5f1",
    "borrowerBids(address,uint256)": "3819bcdc",
    "collateralManager()": "23be345c",
    "getDataForMarket(uint256)": "77353aba",
    "getSenderForMarket(uint256)": "c1576c8a",
    "hasApprovedMarketForwarder(uint256,address,address)": "19b353de",
    "isTrustedForwarder(address)": "572b6c05",
    "isTrustedMarketForwarder(uint256,address)": "d87569cc",
    "lenderCommitmentForwarder()": "ba6d5b15",
    "lenderManager()": "4a06f6ea",
    "lenderVolumeFilled(address,address)": "089487b5",
    "marketRegistry()": "ecb96fe6",
    "reputationManager()": "6b868afb",
    "setTrustedMarketForwarder(uint256,address)": "1420a266",
    "totalVolumeFilled(address)": "2519dc79",
    "uris(uint256)": "1253c546",
    "version()": "54fd4d50"
  },
  "id": 99
}