{
  "abi": [
    {
      "inputs": [
        {
          "internalType": "address",
          "name": "_tellerV2",
          "type": "address"
        },
        {
          "internalType": "address",
          "name": "_lenderManager",
          "type": "address"
        }
      ],
      "stateMutability": "nonpayable",
      "type": "constructor"
    },
    {
      "inputs": [
        {
          "internalType": "uint256",
          "name": "_bidId",
          "type": "uint256"
        }
      ],
      "name": "acceptBid",
      "outputs": [],
      "stateMutability": "nonpayable",
      "type": "function"
    },
    {
      "inputs": [
        {
          "internalType": "address",
          "name": "_assetContractAddress",
          "type": "address"
        },
        {
          "internalType": "address",
          "name": "_spender",
          "type": "address"
        },
        {
          "internalType": "uint256",
          "name": "_amount",
          "type": "uint256"
        }
      ],
      "name": "addAllowance",
      "outputs": [],
      "stateMutability": "nonpayable",
      "type": "function"
    },
    {
      "inputs": [
        {
          "internalType": "uint256",
          "name": "_marketId",
          "type": "uint256"
        },
        {
          "internalType": "address",
          "name": "_forwarder",
          "type": "address"
        }
      ],
      "name": "approveMarketForwarder",
      "outputs": [],
      "stateMutability": "nonpayable",
      "type": "function"
    },
    {
      "inputs": [
        {
          "internalType": "address",
          "name": "marketRegistry",
          "type": "address"
        },
        {
          "internalType": "uint32",
          "name": "_paymentCycleDuration",
          "type": "uint32"
        },
        {
          "internalType": "uint32",
          "name": "_paymentDefaultDuration",
          "type": "uint32"
        },
        {
          "internalType": "uint32",
          "name": "_bidExpirationTime",
          "type": "uint32"
        },
        {
          "internalType": "uint16",
          "name": "_feePercent",
          "type": "uint16"
        },
        {
          "internalType": "bool",
          "name": "_requireLenderAttestation",
          "type": "bool"
        },
        {
          "internalType": "bool",
          "name": "_requireBorrowerAttestation",
          "type": "bool"
        },
        {
          "internalType": "enum PaymentType",
          "name": "_paymentType",
          "type": "uint8"
        },
        {
          "internalType": "enum PaymentCycleType",
          "name": "_paymentCycleType",
          "type": "uint8"
        },
        {
          "internalType": "string",
          "name": "_uri",
          "type": "string"
        }
      ],
      "name": "createMarket",
      "outputs": [
        {
          "internalType": "uint256",
          "name": "",
          "type": "uint256"
        }
      ],
      "stateMutability": "nonpayable",
      "type": "function"
    },
    {
      "inputs": [
        {
          "internalType": "uint256",
          "name": "_bidId",
          "type": "uint256"
        }
      ],
      "name": "repayLoanFull",
      "outputs": [],
      "stateMutability": "nonpayable",
      "type": "function"
    },
    {
      "inputs": [
        {
          "internalType": "uint256",
          "name": "_marketId",
          "type": "uint256"
        },
        {
          "internalType": "address",
          "name": "_forwarder",
          "type": "address"
        }
      ],
      "name": "setTrustedMarketForwarder",
      "outputs": [],
      "stateMutability": "nonpayable",
      "type": "function"
    },
    {
      "inputs": [
        {
          "internalType": "address",
          "name": "_lendingToken",
          "type": "address"
        },
        {
          "internalType": "uint256",
          "name": "_marketplaceId",
          "type": "uint256"
        },
        {
          "internalType": "uint256",
          "name": "_principal",
          "type": "uint256"
        },
        {
          "internalType": "uint32",
          "name": "_duration",
          "type": "uint32"
        },
        {
          "internalType": "uint16",
          "name": "_APR",
          "type": "uint16"
        },
        {
          "internalType": "string",
          "name": "_metadataURI",
          "type": "string"
        },
        {
          "internalType": "address",
          "name": "_receiver",
          "type": "address"
        }
      ],
      "name": "submitBid",
      "outputs": [
        {
          "internalType": "uint256",
          "name": "",
          "type": "uint256"
        }
      ],
      "stateMutability": "nonpayable",
      "type": "function"
    },
    {
      "inputs": [
        {
          "internalType": "address",
          "name": "_lendingToken",
          "type": "address"
        },
        {
          "internalType": "uint256",
          "name": "_marketplaceId",
          "type": "uint256"
        },
        {
          "internalType": "uint256",
          "name": "_principal",
          "type": "uint256"
        },
        {
          "internalType": "uint32",
          "name": "_duration",
          "type": "uint32"
        },
        {
          "internalType": "uint16",
          "name": "_APR",
          "type": "uint16"
        },
        {
          "internalType": "string",
          "name": "_metadataURI",
          "type": "string"
        },
        {
          "internalType": "address",
          "name": "_receiver",
          "type": "address"
        },
        {
          "components": [
            {
              "internalType": "enum CollateralType",
              "name": "_collateralType",
              "type": "uint8"
            },
            {
              "internalType": "uint256",
              "name": "_amount",
              "type": "uint256"
            },
            {
              "internalType": "uint256",
              "name": "_tokenId",
              "type": "uint256"
            },
            {
              "internalType": "address",
              "name": "_collateralAddress",
              "type": "address"
            }
          ],
          "internalType": "struct Collateral[]",
          "name": "_collateralInfo",
          "type": "tuple[]"
        }
      ],
      "name": "submitCollateralBid",
      "outputs": [
        {
          "internalType": "uint256",
          "name": "",
          "type": "uint256"
        }
      ],
      "stateMutability": "nonpayable",
      "type": "function"
    },
    {
      "inputs": [],
      "name": "tellerV2",
      "outputs": [
        {
          "internalType": "address",
          "name": "",
          "type": "address"
        }
      ],
      "stateMutability": "view",
      "type": "function"
    },
    {
      "inputs": [
        {
          "internalType": "uint256",
          "name": "bidId",
          "type": "uint256"
        },
        {
          "internalType": "address",
          "name": "to",
          "type": "address"
        }
      ],
      "name": "transferLoan",
      "outputs": [],
      "stateMutability": "nonpayable",
      "type": "function"
    },
    {
      "stateMutability": "payable",
      "type": "receive"
    }
  ],
  "bytecode": {
    "object": "0x60a060405234801561001057600080fd5b50604051610ddd380380610ddd83398101604081905261002f91610073565b6001600160a01b03918216608052600080546001600160a01b031916919092161790556100a6565b80516001600160a01b038116811461006e57600080fd5b919050565b6000806040838503121561008657600080fd5b61008f83610057565b915061009d60208401610057565b90509250929050565b608051610cf26100eb600039600081816101a80152818161023c015281816102f50152818161036c0152818161040d0152818161055f015261060e0152610cf26000f3fe6080604052600436106100955760003560e01c80635fd72d16116100595780635fd72d16146101565780637cf13b5314610176578063941675db146101965780639a11e339146101e2578063c956004e1461020257600080fd5b806306f33a92146100a15780631420a266146100d45780632b1fd58a146100f65780632e9332d414610116578063344e553d1461013657600080fd5b3661009c57005b600080fd5b3480156100ad57600080fd5b506100c16100bc36600461073f565b610222565b6040519081526020015b60405180910390f35b3480156100e057600080fd5b506100f46100ef3660046107d8565b6102cf565b005b34801561010257600080fd5b506100f4610111366004610804565b610356565b34801561012257600080fd5b506100f46101313660046107d8565b6103e7565b34801561014257600080fd5b506100c161015136600461083b565b61043c565b34801561016257600080fd5b506100f4610171366004610922565b6104d2565b34801561018257600080fd5b506100c161019136600461095e565b610545565b3480156101a257600080fd5b506101ca7f000000000000000000000000000000000000000000000000000000000000000081565b6040516001600160a01b0390911681526020016100cb565b3480156101ee57600080fd5b506100f46101fd366004610804565b6105f8565b34801561020e57600080fd5b506100f461021d3660046107d8565b610675565b6040516303799d4960e11b81526000906001600160a01b037f000000000000000000000000000000000000000000000000000000000000000016906306f33a929061027f908c908c908c908c908c908c908c908c90600401610a80565b6020604051808303816000875af115801561029e573d6000803e3d6000fd5b505050506040513d601f19601f820116820180604052508101906102c29190610add565b9998505050505050505050565b604051630a10513360e11b8152600481018390526001600160a01b0382811660248301527f00000000000000000000000000000000000000000000000000000000000000001690631420a266906044015b600060405180830381600087803b15801561033a57600080fd5b505af115801561034e573d6000803e3d6000fd5b505050505050565b6040516315196bad60e31b8152600481018290527f00000000000000000000000000000000000000000000000000000000000000006001600160a01b03169063a8cb5d68906024016060604051808303816000875af11580156103bd573d6000803e3d6000fd5b505050506040513d601f19601f820116820180604052508101906103e19190610af6565b50505050565b604051630ba4ccb560e21b8152600481018390526001600160a01b0382811660248301527f00000000000000000000000000000000000000000000000000000000000000001690632e9332d490604401610320565b60405163344e553d60e01b81526000906001600160a01b038d169063344e553d9061047f9030908f908f908f908f908f908f908f908f908f908f90600401610b42565b6020604051808303816000875af115801561049e573d6000803e3d6000fd5b505050506040513d601f19601f820116820180604052508101906104c29190610add565b9c9b505050505050505050505050565b60405163095ea7b360e01b81526001600160a01b0383811660048301526024820183905284169063095ea7b3906044016020604051808303816000875af1158015610521573d6000803e3d6000fd5b505050506040513d601f19601f820116820180604052508101906103e19190610bce565b604051637bbd53d760e01b81526000906001600160a01b037f00000000000000000000000000000000000000000000000000000000000000001690637bbd53d7906105a6908e908e908e908e908e908e908e908e908e908e90600401610bf2565b6020604051808303816000875af11580156105c5573d6000803e3d6000fd5b505050506040513d601f19601f820116820180604052508101906105e99190610add565b9b9a5050505050505050505050565b604051639a11e33960e01b8152600481018290527f00000000000000000000000000000000000000000000000000000000000000006001600160a01b031690639a11e33990602401600060405180830381600087803b15801561065a57600080fd5b505af115801561066e573d6000803e3d6000fd5b5050505050565b6000546040516323b872dd60e01b81523060048201526001600160a01b03838116602483015260448201859052909116906323b872dd90606401610320565b80356001600160a01b03811681146106cb57600080fd5b919050565b803563ffffffff811681146106cb57600080fd5b803561ffff811681146106cb57600080fd5b60008083601f84011261070857600080fd5b50813567ffffffffffffffff81111561072057600080fd5b60208301915083602082850101111561073857600080fd5b9250929050565b60008060008060008060008060e0898b03121561075b57600080fd5b610764896106b4565b9750602089013596506040890135955061078060608a016106d0565b945061078e60808a016106e4565b935060a089013567ffffffffffffffff8111156107aa57600080fd5b6107b68b828c016106f6565b90945092506107c9905060c08a016106b4565b90509295985092959890939650565b600080604083850312156107eb57600080fd5b823591506107fb602084016106b4565b90509250929050565b60006020828403121561081657600080fd5b5035919050565b801515811461082b57600080fd5b50565b6002811061082b57600080fd5b60008060008060008060008060008060006101408c8e03121561085d57600080fd5b6108668c6106b4565b9a5061087460208d016106d0565b995061088260408d016106d0565b985061089060608d016106d0565b975061089e60808d016106e4565b965060a08c01356108ae8161081d565b955060c08c01356108be8161081d565b945060e08c01356108ce8161082e565b93506101008c01356108df8161082e565b92506101208c013567ffffffffffffffff8111156108fc57600080fd5b6109088e828f016106f6565b915080935050809150509295989b509295989b9093969950565b60008060006060848603121561093757600080fd5b610940846106b4565b925061094e602085016106b4565b9150604084013590509250925092565b6000806000806000806000806000806101008b8d03121561097e57600080fd5b6109878b6106b4565b995060208b0135985060408b013597506109a360608c016106d0565b96506109b160808c016106e4565b955060a08b013567ffffffffffffffff808211156109ce57600080fd5b6109da8e838f016106f6565b90975095508591506109ee60c08e016106b4565b945060e08d0135915080821115610a0457600080fd5b818d0191508d601f830112610a1857600080fd5b813581811115610a2757600080fd5b8e60208260071b8501011115610a3c57600080fd5b6020830194508093505050509295989b9194979a5092959850565b81835281816020850137506000828201602090810191909152601f909101601f19169091010190565b600060018060a01b03808b16835289602084015288604084015263ffffffff8816606084015261ffff8716608084015260e060a0840152610ac560e084018688610a57565b915080841660c0840152509998505050505050505050565b600060208284031215610aef57600080fd5b5051919050565b600080600060608486031215610b0b57600080fd5b8351925060208401519150604084015190509250925092565b6002811061082b57634e487b7160e01b600052602160045260246000fd5b6001600160a01b038c16815263ffffffff8b811660208301528a811660408301528916606082015261ffff8816608082015286151560a082015285151560c08201526000610140610b9287610b24565b8660e0840152610ba186610b24565b8561010084015280610120840152610bbc8184018587610a57565b9e9d5050505050505050505050505050565b600060208284031215610be057600080fd5b8151610beb8161081d565b9392505050565b600061010060018060a01b03808e16845260208d8186015260408d81870152606063ffffffff8e1681880152608061ffff8e16818901528560a0890152610c3c8689018d8f610a57565b8b861660c08a015288810360e08a01528981528a965084016000805b8b811015610ca157883560038110610c6e578283fd5b83528887013587840152858901358684015287610c8c868b016106b4565b16838601529783019791830191600101610c58565b5050809750505050505050509b9a505050505050505050505056fea264697066735822122055e4f6850433570144bf887f09eee8be4b5a9f0c7818adff6e9b441dfd3a1e4b64736f6c63430008110033",
    "linkReferences": {}
  },
  "methodIdentifiers": {
    "acceptBid(uint256)": "2b1fd58a",
    "addAllowance(address,address,uint256)": "5fd72d16",
    "approveMarketForwarder(uint256,address)": "2e9332d4",
    "createMarket(address,uint32,uint32,uint32,uint16,bool,bool,uint8,uint8,string)": "344e553d",
    "repayLoanFull(uint256)": "9a11e339",
    "setTrustedMarketForwarder(uint256,address)": "1420a266",
    "submitBid(address,uint256,uint256,uint32,uint16,string,address)": "06f33a92",
    "submitCollateralBid(address,uint256,uint256,uint32,uint16,string,address,(uint8,uint256,uint256,address)[])": "7cf13b53",
    "tellerV2()": "941675db",
    "transferLoan(uint256,address)": "c956004e"
  },
  "id": 99
}